:100000000C945E000C9486000C9486000C94860080
:100010000C9486000C9486000C9486000C94860048
:100020000C9486000C9486000C9486000C94860038
:100030000C9486000C9486000C9486000C94860028
:100040000C9475090C9486000C945A070C94340790
:100050000C9486000C9486000C9486000C94860008
:100060000C9486000C948600000000080002010039
:100070000003040700000000000000000000000072
:10008000250028002B0000000000240027002A0083
:10009000040404040404040402020202020203032E
:1000A0000303030301020408102040800102040836
:1000B0001020010204081020730A051211241FBE2B
:1000C000CFEFD8E0DEBFCDBF13E0A0E0B1E0E6E7C0
:1000D000FEE202C005900D92A434B107D9F725E0E5
:1000E000A4E4B3E001C01D92AE31B207E1F710E025
:1000F000CDE5D0E004C02197FE010E944916CC3521
:10010000D107C9F70E94530F0C942E170C940000CE
:10011000FC01918D228D892F90E0805C9F4F821B86
:1001200091098F739927089580E090E0892B29F039
:100130000E943B0681110C940000089508950895D3
:10014000CF93DF9300D000D0CDB7DEB7FC01498359
:100150005A836B837C8380899189009769F0BF0102
:10016000DC01ED91FC910480F581E02D9E012F5F73
:100170003F4F44E150E009950F900F900F900F9082
:10018000DF91CF91089508950895089508950F93EC
:100190001F93CF93DF93EC0108AD19AD2CAD3DADAE
:1001A000220F331F88AD99AD280F391F021713078F
:1001B00071F0D8018D919D918D01DC01ED91FC9143
:1001C0000680F781E02D4FA9BE010995E7CFDF91A9
:1001D000CF911F910F910895CB0108957F928F9237
:1001E0009F92AF92BF92CF92DF92EF92FF920F93C6
:1001F0001F93CF93DF93EC0149015A018B01C12C6E
:10020000D12C7601C814D904EA04FB0484F5F80162
:1002100071908F018F8580FF0BC0E881F981008488
:10022000F185E02D20E144E060E070E0CE01099529
:10023000EB85FC858D859E85E817F90738F470827B
:100240008B859C8501969C878B870BC0E881F98103
:10025000672D70E0028CF38DE02DCE01099501969B
:1002600049F02FEFC21AD20AE20AF20ACBCFB40148
:10027000C50102C0B601C701DF91CF911F910F9157
:10028000FF90EF90DF90CF90BF90AF909F908F90B6
:100290007F900895CF93DF93EC01E881F981028884
:1002A000F389E02D09958F3F2FEF920731F02D81D3
:1002B0003E812F5F3F4F3E832D83DF91CF91089585
:1002C0008FEF9FEF089560E070E0CB01089580E02C
:1002D00090E00895CB010895CF93DF93EC018889D6
:1002E0009989DC01ED91FC910084F185E02D09955F
:1002F000892BA9F388899989DC01ED91FC9102840D
:10030000F385E02DDF91CF910994CF93DF93EC013A
:1003100088899989DC01ED91FC910084F185E02DBB
:100320000995892BA9F388899989DC01ED91FC91C4
:100330000484F585E02DDF91CF910994AF92BF92AF
:10034000CF92DF92EF92FF920F931F93CF93DF93A1
:1003500000D000D0CDB7DEB78C015B01C12CD12C11
:100360007601F80180899189DC01ED91FC9102848C
:10037000F385E02D29833A834B835C83099529819A
:100380003A814B815C818F3F71F0C216D306E4063F
:10039000F5064CF4D5018D935D01BFEFCB1ADB0A56
:1003A000EB0AFB0ADECFC701B6010F900F900F904A
:1003B0000F90DF91CF911F910F91FF90EF90DF9001
:1003C000CF90BF90AF900895DC0150968D919C9195
:1003D0005197DC01ED91FC910084F185E02D0994A9
:1003E00080E090E0089580E090E0089580E090E063
:1003F000089580E090E008950895CF93DF93C09131
:100400001B04D0911C04E881F9810084F185E02D62
:10041000CE010995892BB9F3E881F9810284F3852E
:10042000E02DCE01DF91CF9109941F93CF93DF93FD
:10043000182FC0911B04D0911C048A3041F4E8812C
:10044000F9810190F081E02D6DE0CE010995E88100
:10045000F9810190F081E02D612FCE01099521E015
:1004600030E0019711F420E030E0C901DF91CF9135
:100470001F910895FF920F931F93CF93DF93EC0189
:100480000F89188D0115110521F1FE8087E090E09C
:100490000E948012DC0182E191E011969C938E9380
:1004A00016961C921E9215971396DC93CE93129774
:1004B0001496FC921497E801E881F9810480F58193
:1004C000E02DBD01C801DF91CF911F910F91FF90E9
:1004D0000994DF91CF911F910F91FF900895CF93D1
:1004E000DF93EC014A898B899C892A813B814111E8
:1004F00010C04D895E89840F951F28173907D0F0E9
:1005000081E08A8BE881F9810084F185E02D61E04A
:100510000AC08217930770F01A8AE881F981008473
:10052000F185E02D60E0CE010995CE01DF91CF91FC
:100530000C943A02DF91CF9108950C9415130C940A
:1005400015130C9415130C9415130C94151322E128
:1005500032E0FC013183208380AD91AD0C94151302
:10056000CF93DF93EC010E94A702CE01DF91CF91E0
:100570000C9415130C9415132CEF31E0FC0131830E
:100580002083828193810C941513CF93DF93EC0128
:100590000E94BC02CE01DF91CF910C9415130C94F4
:1005A00015130C9415130C941513089508950C94B9
:1005B0001513DC01ED91FC91369720813181820F7A
:1005C000931F0C94D702FB0120813181FC01318300
:1005D0002083FB0142815381F901369720813181CB
:1005E000FC01E20FF31F5183408308952AE631E0B6
:1005F000FC013183208324E731E0318F208F6AE7CB
:1006000071E00C94E302DC01ED91FC9136972081BE
:100610003181820F931F0C94F602CF93DF93EC018C
:100620000E94F602CE01DF91CF910C941513DC01EC
:10063000ED91FC91369720813181820F931F0C94AC
:100640000D030C941513089508950C941513DC01F3
:10065000ED91FC91369720813181820F931F0C948C
:100660002503FB0120813181FC0131832083FB01C3
:1006700042815381F901369720813181FC01E20FDB
:10068000F31F51834083089522EE31E0FC01318352
:1006900020832CEE31E0358B248B62EF71E00C94DB
:1006A0003103DC01ED91FC91369720813181820F7D
:1006B000931F0C944403CF93DF93EC010E944403F7
:1006C000CE01DF91CF910C941513DC01ED91FC91DB
:1006D000369720813181820F931F0C945B030C9419
:1006E00015130F931F93CF93DF938C01EB016F3F93
:1006F0008FEF780719F480E090E00FC06A3031F492
:100700006DE0F801808991890E9402076C2FF80141
:10071000808991890E940207CE01DF91CF911F91BC
:100720000F9108958F929F92BF92CF92DF92EF9296
:10073000FF920F931F93CF93DF9300D000D0CDB7DC
:10074000DEB78C014B01C12CD12C7601C216D30629
:10075000E406F50644F5F401B1904F01FAE0BF124A
:100760000EC06DE0F8018089918929833A834B831B
:100770005C830E9402075C814B813A8129816B2D49
:10078000F8018089918929833A834B835C830E9495
:100790000207FFEFCF1ADF0AEF0AFF0A5C814B81E5
:1007A0003A812981D3CFCA01B9010F900F900F90E0
:1007B0000F90DF91CF911F910F91FF90EF90DF90FD
:1007C000CF90BF909F908F900895CF93DF931F920B
:1007D000CDB7DEB766E972E08DE494E049830E940C
:1007E00032074981642F70E080E090E04AE00E9487
:1007F0008C076CEA72E08DE494E00F90DF91CF916A
:100800000C940907CF92DF92EF92FF920F931F9300
:10081000CF93DF93FB01E5A0F6A0C58DD68D038DA8
:10082000148D68010E151F050CF467016FEA72E064
:100830008DE494E00E943207C7010E94CF076FEB5E
:1008400072E08DE494E00E943207B70180E090E00E
:100850000E94BB1325EE30ED42E750E40E941A14CB
:1008600020E030EC4FE754E40E947C1520E030E0BB
:10087000A9010E94101542E00E94FF076AEC72E095
:100880008DE494E00E943207B601CC15DD050CF42E
:10089000BE01601B710B072E000C880B990B0E9488
:1008A000BB1320E030E048EC52E40E941A146B01C4
:1008B0007C01C01BD10BBE01DD0F880B990B0E9480
:1008C000BB139B01AC01C701B6010E947C1520E05F
:1008D00030E0A9010E9410150E94EE15862F90E0CD
:1008E0000E94CF0769ED72E08DE494E0DF91CF9133
:1008F0001F910F91FF90EF90DF90CF900C941E0707
:10090000FC01848DDF01A80FB11DA35ABF4F2C91AC
:10091000848D90E001968F739927848FA689B7897B
:100920002C93A089B1898C9180648C93938D848D54
:10093000981306C00288F389E02D80818F7D808323
:1009400008950895089508950895089508950F93BA
:100950001F93CF93DF93CDB7DEB72C970FB6F894E4
:10096000DEBF0FBECDBFDC0114962C911497223050
:1009700099F1211104C056961C921E9255978C0134
:100980000E946909F801638774878587968782E0EA
:10099000848381E090E09C878B878281938100979C
:1009A000D9F025813681DC01ED91FC910480F5813F
:1009B000E02D4AE051E05A8349831C830B83AE014A
:1009C000455F5F4F5E834D8338872F831A86198674
:1009D000BE016F5F7F4F09952C960FB6F894DEBF6E
:1009E0000FBECDBFDF91CF911F910F910895CF9290
:1009F000DF92EF92FF920F931F93CF93DF93EC015F
:100A0000DB011496ED91FC911597808191818430E2
:100A1000910509F078C0E8A9F9A9EE0FFF1F8EA58E
:100A20009FA5E80FF91F208131818AA59BA5ACA560
:100A3000BDA5821B930BA109B1098AA79BA7ACA7EF
:100A4000BDA789A58E3008F08E5087708064809392
:100A50007C0080917A00806480937A0080917A0093
:100A600086FDFCCF809178002091790090E0922B58
:100A70009183808348A959A99A01220F331FEEA5BB
:100A8000FFA5E20FF31F20813181CAA4DBA4ECA4EF
:100A9000FDA4C701B601620F731F811D911D6AA7D6
:100AA0007BA78CA79DA7FA013196F9ABE8AB2AA9E1
:100AB0004FA158A5213011F09F0101C09A01E41700
:100AC000F50720F019AA18AA41E04AAB032E000C42
:100AD000440B550B0E9427168DA19EA182179307E8
:100AE00009F45CC03EA32DA3AC0160E070E0CE0130
:100AF0008396DF91CF911F910F91FF90EF90DF9040
:100B0000CF900C94A000029709F048C00DA11EA13F
:100B10008DA99EA908171907A9F12FA98F8D98A152
:100B200021110AC029A13AA1820F931F80179107B2
:100B300050F481E08FAB04C08017910720F01FAA0A
:100B4000CE010E94C700EDA8FEA8C8ACD9AC8CAD00
:100B50009DAD880F991F28AD39AD820F931FC81620
:100B6000D90671F0F601819191916F01DC01ED914F
:100B7000FC910480F581E02DA701BE010995E7CF26
:100B80001EAB0DABCE010296DF91CF911F910F915D
:100B9000FF90EF90DF90CF900C94A704DF91CF915E
:100BA0001F910F91FF90EF90DF90CF9008950895DF
:100BB000089508950895CF92DF92EF92FF920F93D8
:100BC0001F93CF93DF936C017A018B01C0E0D0E0DB
:100BD000CE15DF0589F0D8016D918D01D601ED911B
:100BE000FC910190F081E02DC6010995892B11F44B
:100BF0007E0102C02196ECCFC701DF91CF911F91FA
:100C00000F91FF90EF90DF90CF900895089580E0CE
:100C100090E00895FC01538D448D252F30E0842F02
:100C200090E0821B930B541710F0CF960895019714
:100C30000895FC01918D828D981761F0828DDF01FE
:100C4000A80FB11D5D968C91928D9F5F9F73928FBF
:100C500090E008958FEF9FEF0895FC01918D828DB4
:100C6000981731F0828DE80FF11D858D90E0089581
:100C70008FEF9FEF08958DE494E00E94880021E0BB
:100C8000892B09F420E0822F08950E9419170F93F1
:100C90001F93CF93DF93EC0188819981009729F00E
:100CA0002A813B812617370788F48B016F5F7F4FBE
:100CB0000E944F16009761F0998388831B830A83F3
:100CC0002C813D81232B11F4FC01108281E001C0B5
:100CD00080E0DF91CF911F910F910895EF92FF92E5
:100CE0000F931F93CF93DF93EC0181E0888F9B8D4F
:100CF0008C8D981305C0E889F989808185FD24C011
:100D0000F62E0B8D10E00F5F1F4F0F731127E02E93
:100D10008C8DE8120CC00FB607FCFACFE889F98970
:100D2000808185FFF5CFCE010E948004F1CF8B8DAD
:100D3000FE01E80FF11DE35AFF4FF0820B8FEA89A5
:100D4000FB898081806207C0EE89FF896083E88922
:100D5000F98980818064808381E090E0DF91CF9188
:100D60001F910F91FF90EF900895CF93DF93EC01C7
:100D7000888D8823C9F0EA89FB89808185FD05C0BB
:100D8000A889B9898C9186FD0FC00FB607FCF5CFF5
:100D9000808185FFF2CFA889B9898C9185FFEDCF3D
:100DA000CE010E948004E7CFDF91CF910895EF92AA
:100DB000FF920F931F93CF93DF93EC017B018A0186
:100DC000BA010E9447062881398181110DC0211581
:100DD000310519F0C9010E941513198218821D826C
:100DE0001C821B821A8206C01D830C83B701C901B5
:100DF0000E942717CE01DF91CF911F910F91FF9095
:100E0000EF900895DC01ED91FC910190F081E02DCF
:100E100009946115710579F0FB0101900020E9F753
:100E20003197AF01461B570BDC01ED91FC9102801D
:100E3000F381E02D099480E090E008950F931F93D3
:100E4000CF93DF93EC010E9409078C016CEA72E0FA
:100E5000CE010E940907800F911FDF91CF911F9152
:100E60000F9108950C9409071F920F920FB60F92DD
:100E700011242F933F934F935F936F937F938F939F
:100E80009F93AF93BF93EF93FF938DE494E00E9401
:100E90008004FF91EF91BF91AF919F918F917F91CE
:100EA0006F915F914F913F912F910F900FBE0F90D7
:100EB0001F9018951F920F920FB60F9211242F9327
:100EC0008F939F93EF93FF93E0915D04F0915E0405
:100ED0008081E0916304F091640482FD12C09081EE
:100EE000809166048F5F8F7320916704821751F0A1
:100EF000E0916604F0E0E35BFB4F958F809366041E
:100F000001C08081FF91EF919F918F912F910F9060
:100F10000FBE0F901F9018958F929F92AF92BF9225
:100F20000F931F93CF93DF93CDB7DEB7A1970FB683
:100F3000F894DEBF0FBECDBF19A2423008F44AE0DC
:100F40008E010F5D1F4F842E912CA12CB12CA50179
:100F500094010E942716E62FB901CA010150110918
:100F6000EA3014F4E05D01C0E95CD801EC93232B76
:100F7000242B252B61F7B8018DE494E00E9409072A
:100F8000A1960FB6F894DEBF0FBECDBFDF91CF9113
:100F90001F910F91BF90AF909F908F900895CF9227
:100FA000DF92EF92FF92CF93DF936C01990FEE08DF
:100FB000FF08F7FE19C06DE28DE494E00E9402077D
:100FC000EC0166277727CB016C197D098E099F09F3
:100FD0004AE00E948C078C0F9D1FDF91CF91FF90FC
:100FE000EF90DF90CF9008954AE0C701B601DF91FE
:100FF000CF91FF90EF90DF90CF900C948C074F92A1
:101000005F926F927F928F929F92AF92BF92CF9298
:10101000DF92EF92FF926B017C01B42E9B01AC0139
:101020000E942216882319F067E373E027C0260187
:101030003701E89477F82FEF3FEF4FE75FE7C30101
:10104000B2010E94221681110DC02FEF3FEF4FE732
:101050005FE7C301B2010E94B41318161CF46BE3DE
:1010600073E00CC02FEF3FEF4FE75FE4C701B6011D
:101070000E941D16181694F46FE373E08DE494E05B
:10108000FF90EF90DF90CF90BF90AF909F908F90A8
:101090007F906F905F904F900C9409072FEF3FEF78
:1010A0004FE75FECC701B6010E94B41387FDE4CFA0
:1010B00020E030E0A901C701B6010E94B41387FF08
:1010C0000BC06DE28DE494E00E9402074C01F7FA38
:1010D000F094F7F8F09402C0812C912CA12C60E0E0
:1010E00070E080E09FE3AB1441F020E030E040E2AC
:1010F00051E40E947C15A394F6CF9B01AC01C7017B
:10110000B6010E9410152B013C010E94EE156B01E7
:101110007C010E94B9139B01AC01C301B2010E9482
:101120000F152B013C014AE0C701B6010E948C0754
:101130007C01E80CF91CBB2039F06EE28DE494E0F0
:101140000E940207E80EF91EDB2CDD2021F120E0D1
:1011500030E040E251E4C301B2010E941A142B01B5
:101160003C010E94EE154B01A12CB12C4AE0C501B7
:10117000B4010E948C07E80EF91EC501B4010E945B
:10118000B9139B01AC01C301B2010E940F152B01E1
:101190003C01DA94DACFC701FF90EF90DF90CF9057
:1011A000BF90AF909F908F907F906F905F904F9087
:1011B000089590E0FC01EC55FF4F2491FC01E057AD
:1011C000FF4F8491882399F090E0880F991FFC01CC
:1011D000EA57FF4FA591B491FC01E458FF4F859168
:1011E00094918FB7F894EC91E22BEC938FBF089514
:1011F00090E0FC01E859FF4F3491FC01EC55FF4FA2
:101200002491FC01E057FF4FE491EE2309F43BC029
:10121000332339F1333091F038F43130A9F03230E2
:1012200001F584B58F7D12C0373091F03830A1F0D0
:101230003430B9F4809180008F7D03C080918000AC
:101240008F77809380000DC084B58F7784BD09C0EF
:101250008091B0008F7703C08091B0008F7D809324
:10126000B000F0E0EE0FFF1FE458FF4FA591B491DE
:101270008FB7F894EC91611103C020952E2301C023
:101280002E2B2C938FBF08953FB7F89480914B037A
:1012900090914C03A0914D03B0914E0326B5A89BAD
:1012A00005C02F3F19F00196A11DB11D3FBFBA2FF8
:1012B000A92F982F8827820F911DA11DB11DBC0158
:1012C000CD0142E0660F771F881F991F4A95D1F71D
:1012D00008952FB7F8946091470370914803809167
:1012E000490390914A032FBF08951F920F920FB6A2
:1012F0000F9211242F933F938F939F93AF93BF939C
:101300008091470390914803A0914903B0914A030B
:101310003091460323E0230F2D3720F40196A11DC1
:10132000B11D05C026E8230F0296A11DB11D209313
:1013300046038093470390934803A0934903B093D7
:101340004A0380914B0390914C03A0914D03B091BF
:101350004E030196A11DB11D80934B0390934C0346
:10136000A0934D03B0934E03BF91AF919F918F9186
:101370003F912F910F900FBE0F901F9018950F93D4
:101380001F93CF93DF93EC010A811B818BA59CA552
:101390000817190799F08DA59EA5009769F0DC0143
:1013A000ED91FC910480F581E02D9E01255D3F4F7C
:1013B0004AE050E0BE0109951CA70BA7DF91CF9131
:1013C0001F910F91089542970C94BF0908950895B5
:1013D0000C94151342970C94E8090C94151302977A
:1013E0000C94ED09CF92DF92EF92FF92CF93DF93AF
:1013F000FC01868197816817790709F06AC04A3035
:10140000510509F066C0FB01C280D380E601D7FC1C
:1014100007C0C114F4E0DF062CF0CFEFD3E002C028
:10142000C0E0D0E06BED72E08DE494E00E94320702
:10143000E12CF12C4AE0C701B6010E948C076FEB4A
:1014400072E08DE494E00E943207C701B6010E9469
:10145000BB1325EE30ED42E750E40E941A1420E061
:1014600030EC4FE754E40E947C1520E030E0A90105
:101470000E94101542E00E94FF076BEE72E08DE4BF
:1014800094E00E943207BE01DD0F880B990B0E9489
:10149000BB1320E030E044E352E40E941A1420E041
:1014A00030EC4FE754E40E947C1520E030E0A901C5
:1014B0000E94101542E00E94FF076AEF72E08DE47F
:1014C00094E0DF91CF91FF90EF90DF90CF900C945C
:1014D0001E07DF91CF91FF90EF90DF90CF9008959E
:1014E00002970C94F2096F927F928F929F92AF9223
:1014F000BF92CF92DF92EF92FF920F931F93CF9301
:10150000DF938DE494E01092500410924F0448EE63
:1015100053E060E070E040935104509352046093B4
:1015200053047093540422E431E030934E0420932A
:101530004D0425EC30E030935A042093590424ECF8
:1015400030E030935C0420935B0420EC30E0309377
:101550005E0420935D0421EC30E03093600420931E
:101560005F0422EC30E0309362042093610426ECA7
:1015700030E0309364042093630410926604109268
:101580006704109268041092690461E270E070933D
:101590000205609301051092030510920405109254
:1015A000050546E0C42ED12CE12CF12CC092060595
:1015B000D0920705E0920805F092090510920A05FD
:1015C00010920B0510920C0510920D0540E240930D
:1015D0000E051092100510920F05109213052CEEB7
:1015E00034E0309312052093110522EE31E0309360
:1015F000EB042093EA042CEE31E03093FF042093B7
:10160000FE041092F0041092EF041092F204109273
:10161000F1041092F4041092F3041092F604109264
:10162000F5041092F8041092F7041092FA04109244
:10163000F90420EC31E03093ED042093EC04909316
:10164000FD048093FC0450E15093FB0470933B0431
:1016500060933A0410923C0410923D0410923E04B0
:10166000C0923F04D0924004E0924104F0924204C0
:1016700010924304109244041092450410924604C0
:1016800040934704109249041092480410924C046D
:101690001092210410922204109223041092240428
:1016A00045E254E050934B0440934A044AE651E02B
:1016B0005093200440931F0444E751E050933804B2
:1016C00040933704109229041092280410922B049E
:1016D00010922A0410922D0410922C0410922F04C0
:1016E00010922E04109231041092300410923304A0
:1016F00010923204309326042093250490933604EC
:101700008093350428E02093340410921E04109234
:101710001D0490931C0480931B046DEF71E085E120
:1017200092E00E94191290931E0480931D0484E29B
:1017300092E09093ED038093EC031092EF031092EC
:10174000EE038FE08093F2031092F3031092F40300
:101750001092F5031092F6031092FA031092F90317
:101760001092FB031092FD031092FC0380E490E0C2
:101770000E9480128093F7039093F80320E230E0F8
:101780003093F1032093F003FC01805C9F4FE81736
:10179000F90719F011921192FACF82E492E0909336
:1017A000ED038093EC0382E592E09093FF03809336
:1017B000FE038AE392E09093010480930004109268
:1017C0000404109206041092050410920B04109267
:1017D0000C0410920D0410920E0410920F0410923B
:1017E0001004109211041092120410921604109218
:1017F0001504109214041092130440E850E060E0C5
:1018000070E04093070450930804609309047093B8
:101810000A04109218041092170410921A041092DD
:1018200019042EEF33E0309303042093020422E1E5
:1018300032E03093AE032093AD039093B0038093D6
:10184000AF031092B3031092B5031092B403109239
:10185000BA031092BB031092BC031092BD03109206
:10186000BE031092BF031092C0031092C1031092E6
:10187000C5031092C40380E094E09093C703809363
:10188000C6038EE293E09093C9038093C80381ED71
:1018900093E09093CB038093CA0386E493E0909304
:1018A000CD038093CC0383E090E09093CF038093AB
:1018B000CE0380E290E00E948012FC019C01205E39
:1018C0003F4F11921192E217F307D9F724E232E069
:1018D0003093D1032093D0031092D3031092D203FC
:1018E00020E130E03093D5032093D4032EE0209301
:1018F000D6031092D7031092D8031092D9031092F6
:10190000DA039093DC038093DB031092DE031092E2
:10191000DD031092DF031092E1031092E0038FEFDA
:101920009FEF9093E3038093E2031092E40388E037
:1019300090E09093E8038093E7031092EA031092FB
:10194000E90380E190E00E9480129093E603809387
:10195000E5038FE090E0A0E0B0E08093B6039093C1
:10196000B703A093B803B093B90380E490E09093D9
:10197000C3038093C2038DEA93E09093B2038093F4
:10198000B10382E792E09093A4038093A30380E8DD
:1019900092E09093A6038093A5031092A80310925F
:1019A000A7031092AA031092A9031092AC031092FD
:1019B000AB0382E992E090935D0380935C03CAE8F5
:1019C000D2E0D0935F03C0935E038AE0809360030C
:1019D00010926203109261031092640310926303E9
:1019E00010926603109265031092670310926803C9
:1019F0001092690310926A0310926C0310926B03A9
:101A000010926E0310926D0310926F030E94D9081A
:101A1000D0937103C093700389E080937203109296
:101A20007403109273031092760310927503109250
:101A30007803109277031092790310927A03109230
:101A40007B0310927C0310927E0310927D03109210
:101A5000800310927F03109281030E94D908D093D3
:101A60008303C093820386E08093840310928603ED
:101A700010928503109288031092870310928A03B4
:101A80001092890310928B0310928C0310928D0395
:101A900010928E031092900310928F031092920373
:101AA00010929103109293030E94D908109294030C
:101AB00085E090E00E9480128C01FC01108214826B
:101AC00013828FE99BE09283818385E090E00E94FE
:101AD0008012FC01CFEFC08389E1E82EF12CF28265
:101AE000E18214830383F0939603E093950385E0EA
:101AF00090E00E9480128C01FC01108214821382FB
:101B00008FEA90E09283818385E090E00E948012CA
:101B10006C01FC01C083F282E1821483038385E0BF
:101B200090E00E9480128C01FC01108283EA92E016
:101B300092838183D482C38285E090E00E948012E8
:101B40006C01FC01C083F282E1821483038385E08F
:101B500090E00E9480128C01FC0110829BE4A92E6F
:101B6000B12CB282A182D482C38285E090E00E942F
:101B70008012FC01C083F282E1821483038390937C
:101B800098038093970385E090E00E9480126C0197
:101B9000FC011082148213828CEC91E09283818389
:101BA00085E090E00E9480123C01FC01C08308E2C5
:101BB00010E012830183D482C38285E090E00E940A
:101BC00080124C01FC0110822CE3C22ED12CD28257
:101BD000C1827482638285E090E00E9480123C01A1
:101BE000FC01C083128301839482838285E090E0AC
:101BF0000E9480124C01FC011082D282C182748248
:101C0000638285E090E00E9480123C01FC01C08369
:101C1000128301839482838285E090E00E94801287
:101C20004C01FC011082D282C1827482638285E001
:101C300090E00E9480123C01FC01C083128301836A
:101C40009482838285E090E00E9480124C01FC0126
:101C50001082D282C1827482638285E090E00E9409
:101C600080123C01FC01C083128301839482838231
:101C700085E090E00E9480124C01FC011082D2822B
:101C8000C1827482638285E090E00E948012FC0130
:101C9000C083128301839482838290939A038093FA
:101CA000990385E090E00E9480124C01FC011082B3
:101CB0001482138288E097E09283818385E090E02C
:101CC0000E9480123C0180EAF301808384E690E068
:101CD000928381839482838285E090E00E948012C7
:101CE0004C01FC011082D282C1827482638285E041
:101CF00090E00E948012FC01C083128301839482D1
:101D0000838290939C0380939B0385E090E00E94E4
:101D100080128C01FC011082148213823EEEC32ECD
:101D200032E0D32ED282C18285E090E00E94801200
:101D3000FC01C083D282C1821483038390939E03EB
:101D400080939D0385E090E00E9480128C01FC014D
:101D500010821482138286EB93E09283818385E064
:101D600090E00E948012FC01C08382E390E09283A5
:101D7000818314830383F093A003E0939F0385E0A2
:101D800090E00E9480128C01FC0110821482138268
:101D900087ED9AE09283818385E090E00E94801233
:101DA0006C01FC01C083F282E1821483038385E02D
:101DB00090E00E9480128C01FC011082B282A1820C
:101DC000D482C38285E090E00E948012FC01C0832F
:101DD000F282E182148303839093A2038093A10390
:101DE0008091440390914503892BE1F489E090E0D0
:101DF0000E948012EC018CEF91E0998388831B8212
:101E00001A821D821C821F821E8240E050E06EEA10
:101E100072E0CE0102960E94D7061886D093450341
:101E2000C0934403C0914403D09145038CEF91E0EB
:101E300090935403809353031092560310925503CA
:101E4000109258031092570310925A03109259039C
:101E5000F3E0C335DF0759F06A817B8161157105B5
:101E600031F04E815F8185E593E00E94D706888539
:101E700080935B030E94690960934F037093500342
:101E80008093510390935203DF91CF911F910F9153
:101E9000FF90EF90DF90CF90BF90AF909F908F908A
:101EA0007F906F900895CF93DF9300D01F92CDB7AE
:101EB000DEB7789484B5826084BD84B5816084BDCA
:101EC00085B5826085BD85B5816085BD80916E00D8
:101ED000816080936E001092810080918100826009
:101EE0008093810080918100816080938100809146
:101EF00080008160809380008091B1008460809335
:101F0000B1008091B00081608093B00080917A0030
:101F1000846080937A0080917A00826080937A0056
:101F200080917A00816080937A0080917A00806845
:101F300080937A001092C1008AE00E94D90889E05B
:101F40000E94D90861E08AE00E94F80861E089E017
:101F50000E94F808E0915D04F0915E0482E08083C5
:101F6000E0915904F0915A041082E0915B04F091E1
:101F70005C048FEC808310926504E0916104F09121
:101F8000620486E08083E0915F04F09160048081C8
:101F900080618083E0915F04F091600480818860BB
:101FA0008083E0915F04F091600480818068808389
:101FB000E0915F04F091600480818F7D80836DEFFC
:101FC00072E08DE494E00E941E07E091A903F09175
:101FD000AA0323E0EC3EF20781F0309711F016A639
:101FE00015A685EA93E090931A04809319048CEE69
:101FF00093E09093AA038093A903E091A703F09143
:10200000A80363E0ED3AF60709F4ACC03097E9F1B4
:10201000A0ACB1AC20AD31AD44AD55ADCA01880F17
:10202000991F820F931FA816B90679F1D5018D91DA
:102030009C91835A934029F5C501821B930BBC01E7
:10204000759567959A01215031098C010E5F1F4FDC
:102050006217730788F4C0ACD1AC6F5F7F4F760115
:10206000E00EF11ED701ED90FC908C0D9D1DDC0162
:10207000ED92FC92C801E9CF2417350710F435AF73
:1020800024AFB2E0AB0EB11CC5CFE090E903F090F5
:10209000EA0387010F5F1F4FE016F10608F055C0F5
:1020A0008091E7039091E80380179107A0F59701CD
:1020B000275F3F4F8217930770F5C090E503D090DC
:1020C000E6033093E8032093E703C901880F991FC3
:1020D0000E9480129093E6038093E503D60140E0CE
:1020E00050E04E155F05A1F0E091E503F091E603A5
:1020F0009A01220F331FE20FF31F309729F08D91C1
:102100009C911197918380834F5F5F4F1296E9CF27
:10211000C6010E9415138091E9039091EA039C0186
:10212000220F331F43EA53E08017910788F4E091B0
:10213000E503F091E603E20FF31F309711F05183AE
:10214000408301962E5F3F4FEFCF0E151F0520F401
:102150001093EA030093E9038DEA93E09093A803B8
:102160008093A7038CE593E09093AC038093AB033B
:102170008091A7039091A803009719F002960E94FE
:10218000A7048091A9039091AA03009719F044969F
:102190000E94A7040091AB031091AC030115110537
:1021A00009F4AAC0F80180AD82FDA6C0846080AFAA
:1021B00087FD9CC0138A85819681928B818B108AC2
:1021C000178660E084810E94F808D801D9968D9125
:1021D0009C91DA9716969C938E93159752969C93A2
:1021E0008E935197892B09F481C053968C91539704
:1021F000823009F47BC0811108C050961C921E9257
:102200001F971A961C921E9219970E946909F8014D
:10221000638774878587968782E0838B0188F2893C
:10222000E02D309709F462C090819F3F29F461E06E
:10223000D80114968C9158C0911104C060E0F80147
:10224000848152C0D80114961C91812F9B830E94D7
:10225000D908E12FF0E0E859FF4FE4919B81E3308A
:1022600009F148F4E130C9F0E230C1F584B580628B
:1022700084BD98BD3BC0E73009F1E83039F1E43066
:1022800069F580918000806280938000892F90E0C2
:1022900090938B0080938A0029C084B5806884BDA8
:1022A00097BD24C080918000806880938000892F32
:1022B00090E0909389008093880018C08091B000CE
:1022C00080688093B0009093B30010C08091B000FC
:1022D00080628093B0009093B40008C0903810F4EE
:1022E00060E001C061E0812F0E94F80865E173E0C1
:1022F0008DE494E00E941E070E9444094B015C019A
:1023000084EFC82EDD24D394E12CF12C0E944409E3
:10231000DC01CB0188199909AA09BB09883E9340C1
:10232000A105B10558F0B1E0CB1AD108E108F108D8
:10233000E8EE8E0EE3E09E1EA11CB11CC114D10478
:10234000E104F10419F762E273E08DE494E00E9485
:102350001E0760E08AE00E94F80860E089E00E94C1
:10236000F8080E94690960934F03709350038093AB
:10237000510390935203EE24E3940E9469098DE483
:1023800094E00E948800892BE9F18DE494E00E949A
:102390001906F82E89831A820091590310915A0365
:1023A0000F5F1F4FB80185E593E00E944706882321
:1023B00099F02091550330915603809159039091E3
:1023C0005A03BE016F5F7F4F820F931F0E94271732
:1023D00010935A03009359032AE0F212D0CFE092EF
:1023E0005B0360915503709156038DE494E00E9465
:1023F000320740E050E06EEA72E085E593E00E942B
:10240000D706BDCF0E949400B8CF83E593E00E9429
:10241000BC028DEA93E00E94A7028CEE93E00E943A
:10242000C6008FE194E00E94F6028AEE94E00C94DC
:1024300044030F931F93CF93DF93009731F46115FB
:10244000710519F480E090E03AC08B01EC016EE078
:1024500070E081E090E00E946412FC01892B91F30E
:1024600080E883830115110571F01387028781E8E5
:1024700083838091140590911505892B21F4F093A5
:102480001505E09314052097C9F0D187C087838193
:10249000826083838091160590911705892B71F4D2
:1024A000F0931705E0931605809118059091190592
:1024B000892B21F4F0931905E0931805CF01DF91E2
:1024C000CF911F910F9108950F931F93CF93DF9397
:1024D000869F8001879F100D969F100D1124C801C3
:1024E0000E948012EC01009729F0A80160E070E0E2
:1024F0000E94AD13CE01DF91CF911F910F910895EE
:10250000CF93DF938230910510F482E090E0E09168
:102510001C05F0911D0520E030E0C0E0D0E03097D0
:1025200011F14081518148175907C0F048175907E8
:1025300061F482819381209719F09B838A832BC059
:1025400090931D0580931C0526C02115310519F0B7
:102550004217530718F49A01BE01DF01EF01028010
:10256000F381E02DDCCF2115310509F1281B390B52
:102570002430310590F412968D919C91139761153A
:10258000710521F0FB019383828304C090931D05A4
:1025900080931C05FD01329644C0FD01E20FF31F3C
:1025A00081939193225031092D933C933AC020910D
:1025B0001A0530911B05232B41F420910201309123
:1025C000030130931B0520931A05209100013091DF
:1025D00001012115310541F42DB73EB740910401A9
:1025E00050910501241B350BE0911A05F0911B0554
:1025F000E217F307A0F42E1B3F0B2817390778F0DA
:10260000AC014E5F5F4F2417350748F04E0F5F1F38
:1026100050931B0540931A058193919302C0E0E00B
:10262000F0E0CF01DF91CF9108950F931F93CF93E7
:10263000DF93009709F48CC0FC0132971382128259
:1026400000911C0510911D050115110581F42081D3
:102650003181820F931F20911A0530911B05281795
:10266000390779F5F0931B05E0931A0571C0D8017D
:1026700040E050E0AE17BF0750F412962D913C9108
:102680001397AD012115310509F1D901F3CF9D0152
:10269000DA013383228360817181860F971F82174D
:1026A000930769F4EC0128813981260F371F2E5FCB
:1026B0003F4F318320838A819B8193838283452B83
:1026C00029F4F0931D05E0931C0542C01396FC937A
:1026D000EE931297ED01499159919E01240F351FF8
:1026E000E217F30771F480819181840F951F0296A0
:1026F00011969C938E938281938113969C938E93D3
:102700001297E0E0F0E0D80112968D919C9113971A
:10271000009719F0F8018C01F6CF8D919C919801EA
:102720002E5F3F4F820F931F20911A0530911B059A
:102730002817390769F4309729F410921D05109273
:102740001C0502C01382128210931B0500931A0508
:10275000DF91CF911F910F910895DC0101C06D931E
:1027600041505040E0F708950E94F61308F481E0CC
:102770000895E89409C097FB3EF490958095709574
:1027800061957F4F8F4F9F4F9923A9F0F92F96E9BD
:10279000BB279395F695879577956795B795F11132
:1027A000F8CFFAF4BB0F11F460FF1BC06F5F7F4FCF
:1027B0008F4F9F4F16C0882311F096E911C07723E1
:1027C00021F09EE8872F762F05C0662371F096E8EA
:1027D000862F70E060E02AF09A95660F771F881FB9
:1027E000DAF7880F9695879597F90895990F00085D
:1027F000550FAA0BE0E8FEEF16161706E807F907D3
:10280000C0F012161306E407F50798F0621B730B6D
:10281000840B950B39F40A2661F0232B242B252BEE
:1028200021F408950A2609F4A140A6958FEF811D91
:10283000811D08950E942D140C949E140E949014E2
:1028400038F00E94971420F0952311F00C9487140F
:102850000C948D1411240C94D2140E94AF1470F3B4
:10286000959FC1F3950F50E0551F629FF001729F35
:10287000BB27F00DB11D639FAA27F00DB11DAA1F44
:10288000649F6627B00DA11D661F829F2227B00D91
:10289000A11D621F739FB00DA11D621F839FA00D1C
:1028A000611D221F749F3327A00D611D231F849F6C
:1028B000600D211D822F762F6A2F11249F575040C3
:1028C0009AF0F1F088234AF0EE0FFF1FBB1F661F3E
:1028D000771F881F91505040A9F79E3F510580F007
:1028E0000C9487140C94D2145F3FE4F3983ED4F315
:1028F000869577956795B795F795E7959F5FC1F7AB
:10290000FE2B880F911D9695879597F9089597F955
:102910009F6780E870E060E008959FEF80EC089585
:1029200000240A94161617061806090608950024AE
:102930000A9412161306140605060895092E039428
:10294000000C11F4882352F0BB0F40F4BF2B11F49C
:1029500060FF04C06F5F7F4F8F4F9F4F089557FDFB
:102960009058440F551F59F05F3F71F04795880FFD
:1029700097FB991F61F09F3F79F087950895121694
:1029800013061406551FF2CF4695F1DF08C0161640
:1029900017061806991FF1CF8695710561050894F1
:1029A0000895E894BB2766277727CB0197F9089508
:1029B0002F923F924F925F926F927F928F929F924F
:1029C000AF92BF92CF92DF92EF92FF920F931F933D
:1029D000CF93DF93CDB7DEB7CA1BDB0B0FB6F894EE
:1029E000DEBF0FBECDBF09942A88398848885F842E
:1029F0006E847D848C849B84AA84B984C884DF809F
:102A0000EE80FD800C811B81AA81B981CE0FD11D82
:102A10000FB6F894DEBF0FBECDBFED01089550583C
:102A2000BB27AA270E9427150C949E140E9490147D
:102A300038F00E94971420F039F49F3F19F426F4DF
:102A40000C948D140EF4E095E7FB0C948714E92F99
:102A50000E94AF1458F3BA176207730784079507EB
:102A600020F079F4A6F50C94D1140EF4E0950B2E19
:102A7000BA2FA02D0B01B90190010C01CA01A001D0
:102A80001124FF27591B99F0593F50F4503E68F12B
:102A90001A16F040A22F232F342F4427585FF3CF6C
:102AA000469537952795A795F0405395C9F77EF43D
:102AB0001F16BA0B620B730B840BBAF09150A1F086
:102AC000FF0FBB1F661F771F881FC2F70EC0BA0F0C
:102AD000621F731F841F48F4879577956795B79594
:102AE000F7959E3F08F0B0CF9395880F08F099278F
:102AF000EE0F9795879508950E9490150C949E145B
:102B00000E94971458F00E94901440F029F45F3FFF
:102B100029F00C94871451110C94D2140C948D1438
:102B20000E94AF1468F39923B1F3552391F3951BD9
:102B3000550BBB27AA2762177307840738F09F5FDE
:102B40005F4F220F331F441FAA1FA9F335D00E2E4B
:102B50003AF0E0E832D091505040E695001CCAF7B8
:102B60002BD0FE2F29D0660F771F881FBB1F26177B
:102B700037074807AB07B0E809F0BB0B802DBF0152
:102B8000FF2793585F4F3AF09E3F510578F00C9421
:102B900087140C94D2145F3FE4F3983ED4F38695E7
:102BA00077956795B795F7959F5FC9F7880F911D42
:102BB0009695879597F90895E1E0660F771F881F2E
:102BC000BB1F621773078407BA0720F0621B730BE1
:102BD000840BBA0BEE1F88F7E09508950E94B71496
:102BE00088F09F5798F0B92F9927B751B0F0E1F0CE
:102BF000660F771F881F991F1AF0BA95C9F714C07E
:102C0000B13091F00E94D114B1E008950C94D11428
:102C1000672F782F8827B85F39F0B93FCCF38695B6
:102C200077956795B395D9F73EF490958095709513
:102C300061957F4F8F4F9F4F08950E94F61308F4C0
:102C40008FEF08950E94F613880B990B0895A1E267
:102C50001A2EAA1BBB1BFD010DC0AA1FBB1FEE1F16
:102C6000FF1FA217B307E407F50720F0A21BB30B61
:102C7000E40BF50B661F771F881F991F1A9469F7DD
:102C800060957095809590959B01AC01BD01CF0139
:102C90000895EE0FFF1F0590F491E02D0994A0E038
:102CA000B0E0E5E5F6E10C94DC14EC01009721F4CA
:102CB000CB010E948012B8C0FC01E60FF71F9C01F7
:102CC00022503109E217F30708F4ACC0D9010D9185
:102CD0001C91119706171707B0F00530110508F47D
:102CE0009FC0C80104978617970708F499C002503F
:102CF0001109061B170B019311936D937C93CF0160
:102D00000E9415138DC05B01A01AB10A4C01800E00
:102D1000911EA0911C05B0911D0540E050E0E12CF2
:102D2000F12C109709F44AC0A815B905D1F56D909A
:102D30007C901197630182E0C80ED11CCA14DB0499
:102D400080F1A3014A195B096A0182E0C80ED11C17
:102D50001296BC9012971396AC91B5E0CB16D104A5
:102D600040F0B282A38351834083D9016D937C9359
:102D70000AC00E5F1F4FC301800F911FF90191839D
:102D80008083EB2DFA2FE114F10431F0D701139673
:102D9000FC93EE93129744C0F0931D05E0931C053D
:102DA0003FC08D919C9111974817590708F4AC01C9
:102DB0007D0112960D90BC91A02DB3CF80911A0584
:102DC00090911B0588159905E1F446175707C8F43B
:102DD0008091000190910101009741F48DB79EB759
:102DE0004091040150910501841B950BE817F907E8
:102DF000C8F4F0931B05E0931A05F9017183608311
:102E00000FC0CB010E9480127C01009759F0A801ED
:102E1000BE010E941E17CE010E941513C70104C0F7
:102E2000CE0102C080E090E0CDB7DEB7EEE00C94BA
:102E3000F81481E090E0F8940C942E17FB01DC016B
:102E400002C001900D9241505040D8F70895FB0107
:102E5000DC0101900D920020E1F7089510E0CDE52E
:102E6000D0E004C0FE010E9449162196CE35D1075C
:062E7000C9F7F894FFCF42
:102E760000001E05800000000000C400A50200003E
:102E86000000C300A10218000000000000000000BE
:102E9600E8FFE8FF0000000000001400000000004A
:102EA60000000000ECFFECFF000000000000000046
:102EB60000006E06DB050A06B506880019062D0613
:102EC600060000000000D502D702FAFFFAFF000054
:102ED600D602D902180000000000F6020D03E8FF32
:102EE600E8FF0000030317036A011C0126017401B1
:102EF60000000000D705D302FC01F901F601F30139
:102F0600F0016701630160014A016A01EE00EC000D
:102F160002000000000023032503FEFFFEFF000061
:102F26002403270300000000D9056F0300000000FA
:102F3600D8052103FC01F901F601F301F001E401D2
:102F46009E0185016C016A01920371031400000061
:102F5600000044035B03ECFFECFF00005103650334
:102F6600E20130013A01EC0100000000BC02C5029A
:102F760000000000A1049D02A0006F029E00000058
:102F86000000A702B002F70400000000A304A30299
:102F960000000000A2049F02A0009F0000000000A5
:102FA60000000000450600000000A404D102000055
:102FB6000000C600E809A0009F00BF09C500EEFF9B
:102FC6000000E609EA09E30900000000000000002D
:102FD600450645060000000000000000450600000A
:102FE6000000DA05ED090204E503F209FEFF000020
:102FF600E709EF09700A00000000A504BA02000004
:103006000000A604CF024261747465727920416C97
:1030160061726D2053746174653A20000D0A004296
:103026006174746572792056616C75653A2000206A
:10303600566F6C746167653A20005620506572635E
:10304600656E746167653A20002500485650726FB8
:1030560062652056616C75653A2000204D65617386
:103066007572656D656E743A20006B560054726118
:103076006E736D6974746572205374617274696ECF
:10308600672E2E2E005748495445206368616E67A7
:1030960065005472616E736D697474657220537441
:1030A600617274656421006E616E00696E66006F00
:0430B600766600003A
:00000001FF
