:100000000C942D010C944A050C9423050C94550175
:100010000C9455010C9455010C9489130C949C0577
:100020000C9455010C9455010C9455010C945501F8
:100030000C9455010C9455010C9455010C945501E8
:100040000C946C170C9455010C9425060C94FF0528
:100050000C9455010C9455010C9455010C945501C8
:100060000C9455010C94550107634236B79BD8A7F1
:100070001A39685618AEBAAB558C1D3CB7CC5763CD
:10008000BD6DEDFD753EF6177231BF000000803F7B
:100090000001020304051112131415160A0B0C0DAE
:1000A0000E0F404020467265652052414D203D2094
:1000B00000526164696F20506F776572446F776E8C
:1000C00000204D6561737572656D656E743A200030
:1000D00020566F6C746167653A2000485650726F05
:1000E0006265412056616C75653A2000204D65615E
:1000F000737572656D656E743A200020566F6C746E
:100100006167653A2000485650726F62654220561A
:10011000616C75653A20005246204D455353414766
:10012000452053454E44204552524F523A200052EA
:1001300046204D4553534147452053454E443A20B0
:1001400000524620524553504F4E53452053454E82
:10015000443A20005246204D4553534147452052D2
:10016000454345495645443A200020416C61726D33
:100170003A2000562050657263656E746167653A77
:1001800020004261747465727920566F6C74733A02
:1001900020004261747465727920416C61726D2037
:1001A00053746174653A2000524620434F4E4E45C9
:1001B0004354454400524620434F4E4E4543544914
:1001C0004E4700524620444953434F4E4E454354F8
:1001D000454400524620494E495449414C495A45EC
:1001E0004400524620494E4954204552524F520035
:1001F0005246204F46460002526164696F20506F9C
:1002000077657255700000000000240027002A0066
:1002100000000000250028002B000404040404044E
:1002200004040202020202020303030303030102A5
:100230000408102040800102040810200102040874
:100240001020000000080002010000030407000065
:10025000000000000000C71D5D2511241FBECFEF68
:10026000D8E0DEBFCDBF13E0A0E0B1E0E6EEFCE5F4
:1002700002C005900D92AC30B107D9F724E0ACE094
:10028000B3E001C01D92AE3DB207E1F711E0CCE250
:10029000D1E004C02197FE010E94482DCB32D10746
:1002A000C9F70E94B6170C94662E0C94000080913A
:1002B0000401813019F081E08093040108950895CC
:1002C000CF93DF936230B1F0EC01633038F46623F2
:1002D00071F0613059F582EE91E012C06B30B1F0EF
:1002E0006E31B9F06A3011F583EC91E009C080EF0E
:1002F00091E002C083ED91E0DF91CF910C94D11594
:100300000E94D115CF57DF4F61E00AC085EB91E025
:10031000F3CF88EA91E00E94D115CF57DF4F60E01C
:1003200088819981DF91CF910C940F10DF91CF914B
:100330000895FC01808191810C94FE251F93CF9339
:10034000DF93EC01142F82E991E00E94A514812F24
:1003500090E00E949E15CF57DF4F612F88819981D1
:10036000DF91CF911F910C9423108F929F92AF92A7
:10037000BF92CF92DF92EF92FF920F931F93CF9392
:10038000DF93CDB7DEB7E0970FB6F894DEBF0FBEB0
:10039000CDBF4C018B01FB016781708580E090E04F
:1003A0000E94AD2920E030E048EC52E40E94702B1E
:1003B0006B017C012DEC3CEC4CE250E40E94A8293E
:1003C000181614F52DEC3CEC44E850E4C701B601D6
:1003D0000E94792C87FF1AC02DEC3CEC4CE250E4D3
:1003E000C701B6010E94032B2AE939E949EB5FE313
:1003F0000E94702B20E030E048EC52E40E940E2A6C
:100400000E94232CB62E04C0B12C02C094E6B92E53
:10041000F801A7A082E891E00E94A51442E0C7017C
:10042000B6010E94C61483E791E00E94A5146B2DCB
:1004300070E080E090E04AE00E9464148EEA92E06E
:100440000E9452148AE691E00E94A5146A2D70E081
:1004500080E090E04AE00E94641480EB92E00E9409
:10046000521420E030E048EC52E4C701B6010E948B
:100470000E2A0E94232C7F936F9303EB12E01F93AD
:100480000F931F9288E0F82EFF92CE0101966C0127
:100490009F938F930E94362E1F92BF921F930F93AC
:1004A0001F92FF92CE0109969F938F930E94362E42
:1004B0001F92AF921F930F931F92FF92CE0141960E
:1004C0009F938F930E94362E960140E066EB72E078
:1004D000CE0149960E94C812F401E158FF4FBE01B7
:1004E000675E7F4F808191810E94530D0FB6F89413
:1004F000DEBF0FBECDBFE0960FB6F894DEBF0FBED5
:10050000CDBFDF91CF911F910F91FF90EF90DF90C2
:10051000CF90BF90AF909F908F900895FC01208165
:100520003181828193812817390719F0822F0C9429
:1005300020160895CF93DF93EC019CB59F7D9CBD61
:100540009CB5937F9CBD9CB59C7F9CBD9DB59160E7
:100550009DBD8A810E9420168C899D89DF91CF9153
:100560000C94BF1661E00C949A0260E00C949A021D
:100570008EBD00000DB407FEFDCF8EB50895EF923D
:10058000FF921F93CF93DF9300D0CDB7DEB77C01EE
:100590004A8369830E94B5026981862F8F718062C8
:1005A0000E94B802182F4A81842F0E94B802C70106
:1005B0000E94B202812F0F900F90DF91CF911F9177
:1005C000FF90EF900895CF92DF92EF92FF920F93FA
:1005D0001F93CF93DF9300D01F92CDB7DEB77C017E
:1005E000142F2A835B8369830E94B5026981862F59
:1005F0008F7180620E94B802082FC12E5B81D52EB8
:100600002A81120F1C1531F0F60181916F010E94B1
:10061000B802F8CFC7010E94B202802F0F900F904E
:100620000F90DF91CF911F910F91FF90EF90DF908E
:10063000CF900895EF92FF921F93CF93DF931F9275
:10064000CDB7DEB77C0169830E94B5026981862F30
:100650008F710E94B8028FEF0E94B802182FC70155
:100660000E94B202812F0F90DF91CF911F91FF90D6
:10067000EF9008950895CF92DF92EF92FF920F933B
:100680001F93CF93DF936C017A018B01C0E0D0E020
:10069000CE15DF0589F0D8016D918D01D601ED9160
:1006A000FC910190F081E02DC6010995892B11F490
:1006B0007E0102C02196ECCFC701DF91CF911F913F
:1006C0000F91FF90EF90DF90CF900895089580E014
:1006D00090E00895FC01538D448D252F30E0842F48
:1006E00090E0821B930B541710F0CF96089501975A
:1006F0000895FC01918D828D981761F0828DDF0144
:10070000A80FB11D5D968C91928D9F5F9F73928F04
:1007100090E008958FEF9FEF0895FC01918D828DF9
:10072000981731F0828DE80FF11D858D90E00895C6
:100730008FEF9FEF0895FC01918D228D892F90E01E
:10074000805C9F4F821B91098F73992708958DE0DC
:1007500094E00E949B0321E0892B09F420E0822F82
:100760000895FC01848DDF01A80FB11DA35ABF4F6E
:100770002C91848D90E001968F739927848FA689A0
:10078000B7892C93A089B1898C9180648C93938DC7
:10079000848D981306C00288F389E02D80818F7DB7
:1007A00080830895EF92FF920F931F93CF93DF936F
:1007B000EC0181E0888F9B8D8C8D981305C0E889B2
:1007C000F989808185FD24C0F62E0B8D10E00F5F26
:1007D0001F4F0F731127E02E8C8DE8120CC00FB63F
:1007E00007FCFACFE889F989808185FFF5CFCE0132
:1007F0000E94B103F1CF8B8DFE01E80FF11DE35A8A
:10080000FF4FF0820B8FEA89FB898081806207C0ED
:10081000EE89FF896083E889F9898081806480831B
:1008200081E090E0DF91CF911F910F91FF90EF90C9
:100830000895CF93DF93EC01888D8823C9F0EA896E
:10084000FB89808185FD05C0A889B9898C9186FDC9
:100850000FC00FB607FCF5CF808185FFF2CFA889C6
:10086000B9898C9185FFEDCFCE010E94B103E7CF0E
:10087000DF91CF91089580E090E0892B29F00E94CC
:10088000A70381110C9400000895CF93DF93EC012E
:10089000A8A5B9A5109761F0ED91FC91119706807C
:1008A000F781E02D4FA1BC01CD01DF91CF910994DB
:1008B000DF91CF9108950E94182E0C94FE250C9480
:1008C000FE250C94FE250C94FE250C94FE250F931A
:1008D0001F93CF93DF93EC0188819981009729F0D2
:1008E0002A813B812617370788F48B016F5F7F4F82
:1008F0000E944E2D009761F0998388831B830A83A1
:100900002C813D81232B11F4FC01108281E001C078
:1009100080E0DF91CF911F910F910895EF92FF92A8
:100920000F931F93CF93DF93FC01248135816115D1
:10093000710511F480E019C041155105A9F07B0142
:10094000EC018A01020F131FB8010E94670488237B
:1009500089F3288139818C819D81B701820F931F92
:100960000E942F2E1D830C8381E0DF91CF911F9178
:100970000F91FF90EF900895CF93DF9300D0CDB704
:10098000DEB769831A8241E050E0BE016F5F7F4F9E
:100990000E948E040F900F90DF91CF910895611502
:1009A000710551F0FB0101900020E9F73197AF018B
:1009B000461B570B0C948E0480E00895EF92FF9233
:1009C0000F931F93CF93DF93EC017B018A01BA0150
:1009D0000E9467042881398181110DC021153105DC
:1009E00019F0C9010E94FE25198218821D821C82FD
:1009F0001B821A8206C01D830C83B701C9010E94A5
:100A00002F2ECE01DF91CF911F910F91FF90EF908C
:100A10000895FC01808191810C94FE25FC011182D6
:100A2000108213821282158214826115710551F0B1
:100A3000FB0101900020E9F73197AF01461B570BEE
:100A40000C94DE0408951F920F920FB60F9211249A
:100A50002F933F934F935F936F937F938F939F93C6
:100A6000AF93BF93EF93FF93E0910201F0910301E5
:100A70000995FF91EF91BF91AF919F918F917F91D8
:100A80006F915F914F913F912F910F900FBE0F90FB
:100A90001F9018951F920F920FB60F9211242F934B
:100AA0003F934F935F936F937F938F939F93AF93F6
:100AB000BF93EF93FF93E0910001F091010109953D
:100AC000FF91EF91BF91AF919F918F917F916F9126
:100AD0005F914F913F912F910F900FBE0F901F90FC
:100AE000189590910501981324C0E7EFF1E0E49187
:100AF0009FEF90930501E130B9F098F0E230C9F42E
:100B0000909170009D7F9093700091E09093B00061
:100B10009091B100987F94609093B1001092B300CF
:100B200008C010926E0005C090916F009D7F909359
:100B30006F0060E00C9420161F920F920FB60F9278
:100B400011242F933F934F935F936F937F938F93D2
:100B50009F93AF93BF93EF93FF938091270390915F
:100B60002803A0912903B0912A03892B8A2B8B2B70
:100B700051F180912603E0912403F09125039081A7
:100B8000892780838091270390912803A0912903CE
:100B9000B0912A03181619061A061B06C4F4809190
:100BA000270390912803A0912903B0912A0301976C
:100BB000A109B1098093270390932803A0932903E7
:100BC000B0932A0304C0809105010E947105FF9132
:100BD000EF91BF91AF919F918F917F916F915F91B5
:100BE0004F913F912F910F900FBE0F901F9018952E
:100BF000DC01ED91FC910190F081E02D09941F92B0
:100C00000F920FB60F9211242F933F934F935F9340
:100C10006F937F938F939F93AF93BF93EF93FF93C4
:100C20008DE094E00E94B103FF91EF91BF91AF91ED
:100C30009F918F917F916F915F914F913F912F91F4
:100C40000F900FBE0F901F9018951F920F920FB626
:100C50000F9211242F938F939F93EF93FF93E09123
:100C60001D04F0911E048081E0912304F09124047E
:100C700082FD12C09081809126048F5F8F73209136
:100C80002704821751F0E0912604F0E0E35FFB4F68
:100C9000958F8093260401C08081FF91EF919F91F1
:100CA0008F912F910F900FBE0F901F901895089560
:100CB0004F925F926F927F928F929F92AF92BF926C
:100CC000CF92DF92EF92FF920F931F93CF93DF9318
:100CD000CDB7DEB728970FB6F894DEBF0FBECDBFF5
:100CE0008C016A017B010E94CA164B015C01F8016C
:100CF000828D938DA48DB58DA5019401281B390B90
:100D00004A0B5B0BCA01B9010E94AF299B01AC01E0
:100D1000D80156966D937D938D939C935997F801C6
:100D2000828E938EA48EB58E1A968D919D910D9084
:100D3000BC91A02D89839A83AB83BC8386879787D8
:100D4000A08BB18BC28AD38AE48AF58A8280938091
:100D5000A480B580C501B4010E94702B9B01AC0139
:100D6000F801668377838087918760E070E080E890
:100D70009FEB0E94702B0E94EA2B2B013C019B01F0
:100D8000AC0160E070E080E89FE30E94032BA701C4
:100D900096010E940E2A6D837E838F839887298116
:100DA0003A814B815C81C301B2010E940E2A9B01F2
:100DB000AC016D817E818F8198850E94042B2B016F
:100DC0003C01D8011A966D937D938D939C931D974A
:100DD0008D919C9181309105D1F14CF4892BA1F535
:100DE000A3019201C701B6010E94032B2AC08230E1
:100DF0009105C9F0039741F5A3019201C701B6011E
:100E00000E94032B6B017C0120E034E244E759E4AB
:100E1000C501B4010E94702B9B01AC01C701B60152
:100E20000E94702B0EC020E034E244E759E4C50173
:100E3000B4010E94702B9B01AC01C301B2010E945E
:100E40000E2A2B013C0103C0412C512C3201C3015D
:100E5000B20128960FB6F894DEBF0FBECDBFDF916A
:100E6000CF911F910F91FF90EF90DF90CF90BF90A7
:100E7000AF909F908F907F906F905F904F9008956C
:100E8000CF92DF92EF92FF920F931F93CF93DF9356
:100E900000D0CDB7DEB7DC019A962C91222309F45D
:100EA0004FC08C010E942917F801C5A0D6A0E7A069
:100EB000F0A4AB01BC014C195D096E097F0983A147
:100EC00094A1A0E0B0E0481759076A077B07C0F17A
:100ED00082810E94A816BC01990F880B990B0E9471
:100EE000AF29AB01BC01C80105960E9458060E94BB
:100EF000232CF8012381348126173707D1F0D8013C
:100F000014967C936E9313973A8329839B968D91C5
:100F10009C919C97009769F0DC01ED91FC91048015
:100F2000F581E02D9E012F5F3F4F40E050E0B8017A
:100F300009950E942917F80165A376A387A390A7B6
:100F40000F900F90DF91CF911F910F91FF90EF9035
:100F5000DF90CF9008952CE232E0DC0111963C93B3
:100F60002E9316968D919C911797009739F0DC017E
:100F7000ED91FC910280F381E02D09940895CF93C7
:100F8000DF93EC010E94AB07CE01DF91CF910C946F
:100F9000FE258F929F92AF92BF92CF92DF92EF92F7
:100FA000FF92CF936115710509F403C2FB01C28062
:100FB000D380FC018281C114D10409F49FC19091B6
:100FC0000501981721F09F3F09F0F3C104C0E7EF36
:100FD000F1E0C4917DC080930501E7EFF1E0C49199
:100FE000CF3F09F4E6C1C13029F1C23009F449C04C
:100FF000C1116EC014BC15BC94B5926094BD95B57A
:10100000916095BD282F30E0F901E65EFD4FE49137
:10101000F0E0EE0FFF1FE05FFD4F459154915093BC
:101020001B0340931A03F901E25DFD4FE491E09345
:10103000190350C01092800010928100909181009D
:1010400098609093810090918100916090938100CD
:10105000282F30E0F901E65EFD4FE491F0E0EE0F5D
:10106000FF1FE05FFD4F459154915093180340934B
:101070001703F901E25DFD4FE491E0931603C1E02F
:1010800029C01092B0001092B1009091B00092600F
:101090009093B0009091B10091609093B100282F8F
:1010A00030E0F901E65EFD4FE491F0E0EE0FFF1F46
:1010B000E05FFD4F459154915093250340932403E5
:1010C000F901E25DFD4FE491E0932603C2E002C026
:1010D000C7FD6FC161E00E946C16E12CF12C8C2FD2
:1010E0008D7F09F0A0C060E072E18AE790E0A7017F
:1010F00096010E94292D49015A01DA01C90101977F
:10110000A109B1098F3F9105A105B10509F00CF4C2
:1011100042C060E472E48FE090E0A70196010E9473
:10112000292DDA01C9010197A109B109C230E1F401
:101130008F3F9105A105B10509F00CF438C160E9B4
:1011400070ED83E090E0A70196010E94292DDA015D
:10115000C9010197A109B1098F3F9105A105B10509
:1011600009F08CF523E058C08F3F9105A105B1052A
:10117000A1F09CF068E478EE81E090E0A701960190
:101180000E94292DDA01C9010197A109B109CC23D7
:1011900009F4EFC0E6C021E001C022E0CC2371F0E9
:1011A0003BC0D501C4012AE0B595A79597958795D1
:1011B0002A95D1F70197A109B10925E035B5387F06
:1011C000232B25BD61C068E478EE81E090E0A701A3
:1011D00096010E94292DDA01C9010197A109B109DF
:1011E0008F3F9105A105B10509F00CF492C064E2AE
:1011F00074EF80E090E0A70196010E94292DDA01AA
:10120000C9010197A109B1098F3F9105A105B10558
:1012100011F008F080C025E03091B100387F232B19
:101220002093B1002BC060E072E18AE790E0A70153
:1012300096010E94292DDA01C9010197A109B1097E
:101240000097F1E0AF07B10514F431E00EC068E497
:1012500078EE81E090E0A70196010E94292DDA0145
:10126000C9010197A109B10933E0C13039F42091D6
:101270008100287F232B2093810018C0C130B1F05A
:10128000C23049F1C11195C087BD8FEF9FEFDC01DE
:101290008093200390932103A0932203B093230310
:1012A00080916E00826080936E0083C0909389006D
:1012B000809388008FEF9FEFDC0180931C03909355
:1012C0001D03A0931E03B0931F0380916F008260E3
:1012D00080936F006EC08093B3008FEF9FEFDC01AF
:1012E0008093270390932803A0932903B0932A03A4
:1012F000809170008260809370005BC0CF91FF90FE
:10130000EF90DF90CF90BF90AF909F908F900C9414
:10131000710524E081CF62E17AE780E090E0A701E7
:1013200096010E94292DDA01C9010197A109B1098D
:101330008F3F9105A105B10591F088F0D501C40159
:101340003AE0B595A795979587953A95D1F7019786
:10135000A109B109CC2309F430CF27E05DCF26E005
:101360001DCF8F3F9105A105B10509F0A4F624E03A
:1013700015CF8F3F9105A105B105B9F0B4F062E139
:101380007AE780E090E0A70196010E94292DDA011A
:10139000C9010197A109B1098F3F9105A105B105C7
:1013A00011F008F0FECE24E009CF23E007CF22E0C1
:1013B00033CFCF91FF90EF90DF90CF90BF90AF9061
:1013C0009F908F900895089508954F925F926F9225
:1013D0007F928F929F92AF92BF92CF92DF92FF92B5
:1013E0000F931F93CF93DF93CDB7DEB760970FB600
:1013F000F894DEBF0FBECDBF8C013B016630710596
:1014000008F46FC0DC0151968C915197813099F0AE
:1014100081E051968C93519715968D919C911697DA
:1014200014969C938E9313970E942917F801638B4F
:10143000748B858B968BD80115968D919C91169700
:101440008615970508F0A7C016967C926E921597A0
:101450000E9429174B015C01F801F2886801CF0C4A
:10146000D11CCF0CD11C83819481B301681B790BF3
:1014700080E090E00E94AD292B013C01F8018389B6
:101480009489A589B689A5019401281B390B4A0BBB
:101490005B0BCA01B9010E94AD2920E030E04AE7A8
:1014A00054E40E94702B9B01AC01C301B2010E9465
:1014B000702B20E030E040E251E40E940E2A0E94AE
:1014C000232CD60118967C936E93179781E08F0D8D
:1014D000853019F0F801828B5EC0D80152961C92BB
:1014E0005AC06330710508F056C0FC018189813013
:1014F00009F051C0828990E08530910509F448C017
:10150000D80112962C91129730E03C872B871596C4
:101510002D913C9116973E872D87880F991FF801D2
:10152000E80FF91F87819085988B8F87F80187894D
:10153000908D0097D9F0DC01ED91FC910480F5814C
:10154000E02D20E131E03A8329831C830B8324E1E1
:1015500030E03E832D8318861F829E01255F3F4F1A
:101560003A872987BE016F5F7F4F0995F801118A7D
:1015700016821582148213821086178212861186B3
:101580001486138616861586108A1786128A03C05B
:1015900080E090E0B5CF60960FB6F894DEBF0FBE46
:1015A000CDBFDF91CF911F910F91FF90DF90CF9032
:1015B000BF90AF909F908F907F906F905F904F9073
:1015C000089508952CE132E0DC012D933C93809145
:1015D0000E0390910F03009739F0DC01ED91FC911F
:1015E0000280F381E02D09940895CF93DF93EC01FD
:1015F0000E94E20ACE01DF91CF910C94FE25CF929A
:10160000DF92EF92FF9280E090E00E94AD292BECF8
:1016100031EA45E550E40E940E2A20E030EC4FE725
:1016200054E40E94702B24E43BE84CE45FE30E9406
:10163000702B6B017C0120E030E0A9010E94A829F9
:1016400087FF03C0C12CD12C760120E030E048ECAC
:1016500052E4C701B6010E940E2A0E941C2CCB0145
:10166000FF90EF90DF90CF900895CF93DF93EC0140
:10167000AB0188A599A5009741F0DC01ED91FC91A3
:101680000480F581E02DBE0109956F81788580E0A9
:1016900090E00E94AD2920E030E048EC52E40E9446
:1016A000702B0E94232C8FA1882329F063307105B1
:1016B00060F01FA205C06330710538F481E08FA38C
:1016C000CE01DF91CF910C944504DF91CF91089525
:1016D000CF92DF92EF92FF920F931F93CF93DF93FE
:1016E000EC011A820E9429176B837C838D839E8371
:1016F0008EE00E94A816BC01CE010E94FF0ABC0128
:1017000080E090E00E94AD296B017C010E94CA1626
:1017100021E030E03A8729870CEB1CE62BE13AE424
:101720000B871C872D873E87CB8ADC8AED8AFE8A51
:10173000CF8AD88EE98EFA8ECB8EDC8EED8EFE8E21
:101740006BA37CA38DA39EA3DF91CF911F910F91DB
:10175000FF90EF90DF90CF9008950895CF93DF939F
:101760006115710509F460C0FB01C081CF3F11F420
:1017700061E003C0C11104C060E0FC01828150C07F
:10178000FC01D28161E08D2F0E946C16ED2FF0E0FC
:10179000EE5BFD4FE491E33009F148F4E130C9F02C
:1017A000E230C1F584B5806284BDC8BD3DC0E7307C
:1017B00009F1E83039F1E43069F580918000806208
:1017C000809380008C2F90E090938B0080938A0010
:1017D0002BC084B5806884BDC7BD26C080918000C1
:1017E0008068809380008C2F90E090938900809394
:1017F00088001AC08091B00080688093B000C093C8
:10180000B30012C08091B00080628093B000C0939A
:10181000B4000AC0C03810F460E001C061E08D2F50
:10182000DF91CF910C942016DF91CF910895CF9343
:10183000DF93FC0183819481892BC9F081898230F7
:10184000B1F0811104C01686158610861782EF014B
:101850000E94291769877A878B879C8782E0898B0A
:101860006F857889CE01DF91CF910C94AE0BDF911B
:10187000CF9108950C94FE250C94FE250C94FE2522
:10188000FC01118A83819481908B87871686158647
:1018900060E082810C9420168F929F92AF92BF924B
:1018A000CF92DF92EF92FF920F931F93CF93DF932C
:1018B000EC010E9429172D853E856901E12CF12C50
:1018C00009851A852B853C8546015701801A910AA6
:1018D000A20AB30ADC01CB01880D991DAA1DBB1D0C
:1018E000EF85F8894181528160E070E084179507A7
:1018F000A607B707E8F11E861D860E94291769878B
:101900007A878B879C87EF85F8896381748161155D
:10191000710579F48F819885019698878F832D8141
:101920003E812115310519F0821793079CF46B81D4
:101930007C81788B6F87CE01DF91CF911F910F91C2
:10194000FF90EF90DF90CF90BF90AF909F908F90DF
:101950000C94AE0B188A1F86CE010E94400C2F817A
:1019600038858D819E812817390711F418861F82CA
:10197000DF91CF911F910F91FF90EF90DF90CF906B
:10198000BF90AF909F908F9008950895CF93DF936D
:10199000CDB7DEB72A970FB6F894DEBF0FBECDBF26
:1019A000FC0186A197A1009741F1DB01FC01208198
:1019B0003181F9014481558120E131E03A83298365
:1019C00012962D913C9113973C832B8314962D9165
:1019D0003C9115973E832D8316962D913C91179738
:1019E00038872F8318962D913C9119973A8729872C
:1019F000BE016F5F7F4FFA0109952A960FB6F894E2
:101A0000DEBF0FBECDBFDF91CF910895EF92FF9261
:101A10001F93CF93DF93FC012681223020F01781A2
:101A2000111103C039C010E037C07C01FC01C28134
:101A3000D38160E0CE010E948E02888999890E943C
:101A4000BF166DE1CE010E941A0381FF07C088898D
:101A500099890E94BF16CE010E94401460E0CE0119
:101A60000E941A03482F4E7F60E0CE010E94BF0201
:101A700062E0CE010E941A03E0E9F0E0E49141E067
:101A800050E001C0440FEA95EAF7482B62E0CE012E
:101A90000E94BF02F7011782812FDF91CF911F9122
:101AA000FF90EF9008956F927F929F92AF92BF92B6
:101AB000CF92DF92EF92FF920F931F93CF93DF931A
:101AC000CDB7DEB72A970FB6F894DEBF0FBECDBFF5
:101AD0007C015B01DC0114969C901497992009F419
:101AE000E3C015969C901597992009F4DDC01696D1
:101AF0008C91823010F4912CD7C0C7010E94060D42
:101B0000F50101900020E9F73197D70112960D9168
:101B10001C911397D80117969C91DE2EDA189D150B
:101B200008F4D92EF8018085811103C0C92ECD1883
:101B300001C0C12CC8010E94B50280EA0E94B8020F
:101B40003501DA0CD61431F0F30181913F010E9486
:101B5000B802F8CFDC2CDD2029F080E00E94B8022A
:101B6000DA94F9CFC8010E94B20261E0C8010E9474
:101B70008E02C8010E94B5028FEF0E94B802D82ED3
:101B8000C8010E94B2028D2D807399F360E0C801F4
:101B90000E948E0240E767E0C8010E94BF0284FFF6
:101BA00024C0C8010E94401480E191E09A83898397
:101BB000FC82EB828EE590E09E838D8318861F82E7
:101BC000BA86A986BE016F5F7F4FC7010E94C60C0F
:101BD000912CD70116968C911697823008F464C028
:101BE00017968C91811160C015C080E191E09A83B5
:101BF0008983FC82EB828DE590E09E838D8318863D
:101C00001F82BA86A986BE016F5F7F4FC7010E94FF
:101C1000C60CDFCFD70112960D911C911397C80106
:101C20000E94271460E0C8010E941A03482F4160F7
:101C300060E0C8010E94BF0240E767E0C8010E945F
:101C4000BF0261E0C8010E948E02F80181858823ED
:101C500051F0F8012685A801475F5F4F6AE0C8018F
:101C60000E94E30214C062E0C8010E941A03E0E986
:101C7000F0E0E49121E030E001C0220FEA95EAF7BC
:101C80002095422F482362E0C8010E94BF026DE107
:101C9000C8010E941A0381FF03C0C8010E944014BA
:101CA00081E0D70117968C93892D2A960FB6F89468
:101CB000DEBF0FBECDBFDF91CF911F910F91FF907F
:101CC000EF90DF90CF90BF90AF909F907F906F90FC
:101CD00008950F931F93CF93DF93CDB7DEB72A9765
:101CE0000FB6F894DEBF0FBECDBFFC0126812617CC
:101CF000C1F18C01668380E191E09A838983FC8342
:101D0000EB838AE590E09E838D8318861F82CF0146
:101D100006969A878987BE016F5F7F4FCF010E9429
:101D2000C60CF80186818E3171F095EF980F9330D3
:101D3000A0F4F8018585882331F0B801635F7F4FF7
:101D4000C8010E94530DF80110860E942917F8015E
:101D5000618772878387948702C08A30A1F381E00C
:101D600001C080E02A960FB6F894DEBF0FBECDBF4B
:101D7000DF91CF911F910F9108951F93CF93DF9320
:101D8000FC011481112399F08681823018F085813D
:101D9000882311F010E00BC0EF01828193810E9433
:101DA000271481E08D8388EF91E00E94D115812F67
:101DB000DF91CF911F91089508954F925F926F9296
:101DC0007F928F929F92AF92BF92CF92DF92EF92CB
:101DD000FF920F931F93CF93DF93DC0112962C9108
:101DE000222309F498C0EC018BAD823009F075C054
:101DF0000E9429177E01B2E4EB0EF11CF70120814D
:101E000031814901A12CB12C6E01FEE3CF0ED11C12
:101E1000D6010D911D912D913C9124013501401A5F
:101E2000510A620A730ADC01CB01840D951DA61DBF
:101E3000B71D8E010C5B1F4FF80120813181F90124
:101E40004481558160E070E084179507A607B707C5
:101E500008F443C05E01F4E3AF0EB11CD7011D923C
:101E60001C920E942917F6016083718382839383F9
:101E7000D801ED91FC91119766817781611571050B
:101E800019F06D937C9312C02CAD3DAD2F5F3F4F89
:101E90003DAF2CAF89AD9AAD6FA978AD009719F021
:101EA000281739073CF4F80171836083C5010E944B
:101EB000C90713C01BAED8016D937C93F701118243
:101EC00010828EA90E9471052CAD3DAD89AD9AADF1
:101ED0002817390711F41DAE1CAE89A1823021F4F8
:101EE000CE0140960E944C0C8BA98230A1F4CE0109
:101EF0008296DF91CF911F910F91FF90EF90DF902D
:101F0000CF90BF90AF909F908F907F906F905F9099
:101F10004F900C944C0CDF91CF911F910F91FF903B
:101F2000EF90DF90CF90BF90AF909F908F907F9079
:101F30006F905F904F900895EF92FF920F931F93D1
:101F4000CF93DF93EC018B818E010E5D1F4F9E01BD
:101F50002C5B3F4F790187FF23C08E819F812DA18C
:101F60003EA12817390721F09EA38DA39AAB89AB18
:101F700018A61FA2C8010E94170C8E859F8598AFD6
:101F80008FABF701918380831AAE19AECE014096D4
:101F9000DF91CF911F910F91FF90EF900C94400C27
:101FA0001BAE8FA998ADF90191838083FE01EE5B92
:101FB000FF4F118210828EA90E947105C8010E94F4
:101FC000400C8B8184FF03C08C859D8504C086FFF7
:101FD00012C0888599852DA13EA12817390721F0C7
:101FE0009EA38DA39AAB89AB81E090E098A78FA3C5
:101FF000C8010E94170C8B8182FF0AC0CE01409657
:10200000DF91CF911F910F91FF90EF900C94170CDF
:10201000DF91CF911F910F91FF90EF900895FC01F8
:102020008281882379F0938194FB882780F9861731
:1020300049F0662311F0906101C09F7E9383CF0128
:102040000C949C0F0895FC018281882379F0938180
:1020500096FB882780F9861749F0662311F0906473
:1020600001C09F7B9383CF010C949C0F0895FC01CA
:102070008281882381F09381892F881F8827881F78
:10208000861749F0662311F0906801C09F7793830B
:10209000CF010C949C0F08950895CB0108957F9271
:1020A0008F929F92AF92BF92CF92DF92EF92FF9268
:1020B0000F931F93CF93DF93EC0149015A018B01DA
:1020C000C12CD12C7601C814D904EA04FB0484F590
:1020D000F80171908F018F8580FF0BC0E881F98135
:1020E0000084F185E02D20E144E060E070E0CE0165
:1020F0000995EB85FC858D859E85E817F90738F4F1
:1021000070828B859C8501969C878B870BC0E881AC
:10211000F981672D70E0028CF38DE02DCE010995D9
:10212000019649F02FEFC21AD20AE20AF20ACBCF87
:10213000B401C50102C0B601C701DF91CF911F9163
:102140000F91FF90EF90DF90CF90BF90AF909F9056
:102150008F907F900895CF93DF93EC01E881F98110
:102160000288F389E02D09958F3F2FEF920731F018
:102170002D813E812F5F3F4F3E832D83DF91CF9195
:1021800008958FEF9FEF089560E070E0CB01089510
:1021900080E090E00895CB010895CF93DF93EC01A8
:1021A00088899989DC01ED91FC910084F185E02D0D
:1021B0000995892BA9F388899989DC01ED91FC9116
:1021C0000284F385E02DDF91CF910994CF93DF93C3
:1021D000EC0188899989DC01ED91FC910084F185FD
:1021E000E02D0995892BA9F388899989DC01ED9166
:1021F000FC910484F585E02DDF91CF910994AF9295
:10220000BF92CF92DF92EF92FF920F931F93CF93E3
:10221000DF9300D000D0CDB7DEB78C015B01C12CBD
:10222000D12C7601F80180899189DC01ED91FC9136
:102230000284F385E02D29833A834B835C830995DF
:1022400029813A814B815C818F3F71F0C216D306A0
:10225000E406F5064CF4D5018D935D01BFEFCB1A72
:10226000DB0AEB0AFB0ADECFC701B6010F900F9025
:102270000F900F90DF91CF911F910F91FF90EF90F2
:10228000DF90CF90BF90AF900895DC0150968D9174
:102290009C915197DC01ED91FC910084F185E02D3A
:1022A000099480E090E0089580E090E0089580E057
:1022B00090E0089580E090E008950895CF93DF9333
:1022C000C091DD03D091DE03E881F9810084F185BE
:1022D000E02DCE010995892BB9F3E881F9810284BB
:1022E000F385E02DCE01DF91CF9109941F93CF9319
:1022F000DF93182FC091DD03D091DE038A3041F4C3
:10230000E881F9810190F081E02D6DE0CE01099521
:10231000E881F9810190F081E02D612FCE010995CE
:1023200021E030E0019711F420E030E0C901DF91B5
:10233000CF911F9108950F931F93CF93DF938C013B
:10234000EB016F3F8FEF780719F480E090E00FC04A
:102350006A3031F46DE0F801808991890E94F805B6
:102360006C2FF801808991890E94F805CE01DF91D8
:10237000CF911F910F9108958F929F92BF92CF920C
:10238000DF92EF92FF920F931F93CF93DF9300D0D2
:1023900000D0CDB7DEB78C014B01C12CD12C76011A
:1023A000C216D306E406F50644F5F401B1904F01D8
:1023B000FAE0BF120EC06DE0F8018089918929838F
:1023C0003A834B835C830E94F8055C814B813A81A0
:1023D00029816B2DF8018089918929833A834B8368
:1023E0005C830E94F805FFEFCF1ADF0AEF0AFF0AAD
:1023F0005C814B813A812981D3CFCA01B9010F9009
:102400000F900F900F90DF91CF911F910F91FF9040
:10241000EF90DF90CF90BF909F908F9008950C9495
:10242000FE25089508950C94FE25DC01ED91FC91A4
:10243000369720813181820F931F0C941312FB0178
:1024400020813181FC0131832083FB014281538152
:10245000F901369720813181FC01E20FF31F51838E
:102460004083089528E631E0FC013183208322E790
:1024700031E0318F208F68E771E00C941F12DC018E
:10248000ED91FC91369720813181820F931F0C943E
:102490003212CF93DF93EC010E943212CE01DF9112
:1024A000CF910C94FE25DC01ED91FC9136972081B3
:1024B0003181820F931F0C9449120C94FE250895CC
:1024C00008950C94FE25DC01ED91FC913697208156
:1024D0003181820F931F0C946112FB0120813181A5
:1024E000FC0131832083FB0142815381F90136973E
:1024F00020813181FC01E20FF31F51834083089555
:1025000020EE31E0FC01318320832AEE31E0358B6F
:10251000248B60EF71E00C946D12DC01ED91FC9165
:10252000369720813181820F931F0C948012CF93B4
:10253000DF93EC010E948012CE01DF91CF910C94C9
:10254000FE25DC01ED91FC91369720813181820FCF
:10255000931F0C9497120C94FE25FC01DC010D9046
:102560000020E9F79F938F9380ED92E09F938F93E4
:10257000AE1B1F92AF937F936F930E94362E8DB741
:102580009EB708960FB6F8949EBF0FBE8DBF0895F4
:10259000CF92DF92EF92FF920F931F93CF93DF932F
:1025A000CDB7DEB761970FB6F894DEBF0FBECDBFD3
:1025B0006C017B01890167EB72E0CE010796498BC4
:1025C0000E940E056BE2CE0107960E94BC04B70183
:1025D000CE0107960E94CF044989442361F11F92DE
:1025E0004F9383EB92E09F938F931F9284E08F939E
:1025F0007E018DE0E80EF11CFF92EF920E94362ED4
:102600006BE2CE0107960E94BC04B701CE01019691
:102610000E940E054D815E8169817A81CE01079607
:102620000E948E04CE0101960E9409050FB6F8940F
:10263000DEBF0FBECDBF62EB72E0CE0101960E94FD
:102640000E050115110549F0F8018081882329F054
:10265000B801CE0101960E94CF047801F8E0EF0E98
:10266000F11CE114F10471F0F8018085882351F028
:102670006CE2CE0101960E94BC04B701CE01019626
:102680000E94CF047801F0E1EF0EF11CE114F10497
:1026900071F0F8018089882351F06CE2CE01019637
:1026A0000E94BC04B701CE0101960E94CF048D8127
:1026B0009E81892B69F06DE3CE0107960E94BC04D0
:1026C0004D815E8169817A81CE0107960E948E04D8
:1026D0004B85B6018F8198850E94AD12CE0101967F
:1026E0000E940905CE0107960E94090581E06196C6
:1026F0000FB6F894DEBF0FBECDBFDF91CF911F9113
:102700000F91FF90EF90DF90CF9008950895089576
:1027100008951F920F920FB60F9211248F930FB648
:10272000F894A89580916000886180936000109271
:1027300060000FBE8F910F900FBE0F901F901895E5
:102740004115510529F4EAE7F0E080818F77808315
:102750006A307105A9F063FD02C088E001C088E21B
:102760006770682B88E10FB6F894A8958093600095
:102770000FBE60936000E0E6F0E0808180648083BB
:10278000232BA1F483B7817F846083BFF89483B740
:10279000816083BF85B7806685BF8F7D85BF789454
:1027A000889583B78E7F83BF78940EC083B7817F6F
:1027B000846083BFF89483B7816083BF78948895E1
:1027C00083B78E7F83BF7894452B29F4EAE7F0E046
:1027D0008081806880830895EF92FF920F931F930A
:1027E000CF938C017B0166E00E941A03C82FC77D3E
:1027F00082E0E816F10431F4C0628BE990E0A0E0D9
:10280000B0E00DC0EA94EF2829F085E590E0A0E063
:10281000B0E005C0C86081E490E0A0E0B0E0F8015D
:10282000808B918BA28BB38B4C2F66E0C8010E94EA
:10283000BF0266E0C8010E941A0391E08C1390E089
:10284000892FCF911F910F91FF90EF900895CF9313
:10285000DF93EC0160E00E941A0381FD0EC0482F57
:10286000426060E0CE010E94BF0265E070E080E05F
:1028700090E0DF91CF910C94EF16DF91CF91089506
:102880001F93CF93DF93EC010E94B50281EE0E946B
:10289000B802182FCE010E94B202812FDF91CF9192
:1028A0001F910895009769F0FC0101900020E9F75D
:1028B0003197AF01481B590BBC018DE094E00C949B
:1028C0003B0380E090E008958F929F92AF92BF9279
:1028D0000F931F93CF93DF93CDB7DEB7A1970FB6BA
:1028E000F894DEBF0FBECDBF19A2423008F44AE013
:1028F0008E010F5D1F4F842E912CA12CB12CA501B0
:1029000094010E94072DE62FB901CA010150110957
:10291000EA3014F4E05D01C0E95CD801EC93232BAC
:10292000242B252B61F7C8010E945214A1960FB6E3
:10293000F894DEBF0FBECDBFDF91CF911F910F91F5
:10294000BF90AF909F908F9008950F931F93CF9358
:10295000DF938C01C0E0D0E0F801EC0FFD1F649123
:10296000662371F0E0910D04F0910E040190F08166
:10297000E02D8DE094E00995892B11F02196ECCFA4
:10298000CE01DF91CF911F910F9108954F925F92E9
:102990006F927F928F929F92AF92BF92CF92DF926F
:1029A000EF92FF926B017C01B42E9B01AC010E945F
:1029B000F42C882319F083ED92E027C0260137011B
:1029C000E89477F82FEF3FEF4FE75FE7C301B201DD
:1029D0000E94F42C81110DC02FEF3FEF4FE75FE70E
:1029E000C301B2010E94A82918161CF487ED92E0D9
:1029F0000CC02FEF3FEF4FE75FE4C701B6010E9425
:102A0000792C181684F48BED92E0FF90EF90DF9014
:102A1000CF90BF90AF909F908F907F906F905F907E
:102A20004F900C9452142FEF3FEF4FE75FECC7012C
:102A3000B6010E94A82987FDE6CF20E030E0A90179
:102A4000C701B6010E94A82987FF0BC06DE28DE087
:102A500094E00E94F8054C01F7FAF094F7F8F0942E
:102A600002C0812C912CA12C60E070E080E09FE3FB
:102A7000AB1441F020E030E040E251E40E94702BC2
:102A8000A394F6CF9B01AC01C701B6010E94042BB1
:102A90002B013C010E94232C6B017C010E94AD297B
:102AA0009B01AC01C301B2010E94032B2B013C012D
:102AB0004AE0C701B6010E9464147C01E80CF91CCD
:102AC000BB2039F06EE28DE094E00E94F805E80E3C
:102AD000F91EDB2CDD2021F120E030E040E251E462
:102AE000C301B2010E940E2A2B013C010E94232C3B
:102AF0004B01A12CB12C4AE0C501B4010E94641421
:102B0000E80EF91EC501B4010E94AD299B01AC017C
:102B1000C301B2010E94032B2B013C01DA94DACFEE
:102B2000C701FF90EF90DF90CF90BF90AF909F9044
:102B30008F907F906F905F904F900895CF92DF922B
:102B4000EF92FF92CF93DF936C01990FEE08FF088D
:102B5000F7FE14C06DE28DE094E00E94F805EC01F0
:102B600066277727CB016C197D098E099F094AE0FA
:102B70000E9464147C01EC0EFD1E06C04AE0C701F1
:102B8000B6010E9464147C0180EB92E00E94521412
:102B90008E0D9F1DDF91CF91FF90EF90DF90CF9032
:102BA0000895CF93DF930E94A514EC0180EB92E08F
:102BB0000E9452148C0F9D1FDF91CF910895FC014C
:102BC0002281222339F0238122FD04C02460238343
:102BD0000C949C0F0895CF93DF930E945214EC0144
:102BE00080EB92E00E9452148C0F9D1FDF91CF91D9
:102BF0000895EF92FF921F93CF93DF93EC011C8116
:102C00001123B9F08E81823098F0CB017E012DE046
:102C1000E20EF11C48E1B7010E94AD1281E08DA3E4
:102C2000C7010E94EB156BE0CE010E94690E01C046
:102C300010E0812FDF91CF911F91FF90EF900895C9
:102C400090E0FC01EE5BFD4F3491FC01E25DFD4F35
:102C50002491FC01E65EFD4FE491EE2309F43BC0B4
:102C6000332339F1333091F038F43130A9F0323078
:102C700001F584B58F7D12C0373091F03830A1F066
:102C80003430B9F4809180008F7D03C08091800042
:102C90008F77809380000DC084B58F7784BD09C085
:102CA0008091B0008F7703C08091B0008F7D8093BA
:102CB000B000F0E0EE0FFF1FE05FFD4FA591B49173
:102CC0008FB7F894EC91611103C020952E2301C0B9
:102CD0002E2B2C938FBF0895CF93DF9390E0FC01B0
:102CE000E25DFD4F2491FC01E65EFD4F8491882357
:102CF00061F190E0880F991FFC01EA5FFD4FC591DB
:102D0000D491FC01E05FFD4FA591B491611109C020
:102D10009FB7F8948881209582238883EC912E2395
:102D20000BC0623061F49FB7F8943881822F809590
:102D300083238883EC912E2B2C939FBF06C08FB7E3
:102D4000F894E8812E2B28838FBFDF91CF910895CF
:102D50008E3008F08E508770806480937C00809164
:102D60007A00806480937A0080917A0086FDFCCF9F
:102D7000809178002091790090E0922B0895823024
:102D8000910538F0880F991F880F991F05970197B3
:102D9000F1F708953FB7F894809130039091310393
:102DA000A0913203B091330326B5A89B05C02F3FF5
:102DB00019F00196A11DB11D3FBFBA2FA92F982F61
:102DC0008827820F911DA11DB11DBC01CD0142E0DC
:102DD000660F771F881F991F4A95D1F708958F9224
:102DE0009F92AF92BF92CF92DF92EF92FF926B01D0
:102DF0007C010E94CA164B015C01C114D104E1049C
:102E0000F104F1F00E94CA16DC01CB01881999097E
:102E1000AA09BB09883E9340A105B10570F321E0E2
:102E2000C21AD108E108F10888EE880E83E0981EE6
:102E3000A11CB11CC114D104E104F10419F7DDCFC8
:102E4000FF90EF90DF90CF90BF90AF909F908F90CA
:102E500008952FB7F89460912C0370912D03809101
:102E60002E0390912F032FBF0895CF93C82F80EB8F
:102E700092E00E945214C23019F48FED92E002C029
:102E800087EF92E00E94EB158091B7039091B80311
:102E90000E94BD0E65EA72E08091B7039091B8037D
:102EA0000E94F91580914003909141030E94680BA4
:102EB0008091B9039091BA030E949C0F1092BC03B9
:102EC0000E9429176093BD037093BE038093BF03D4
:102ED0009093C003CF9108951F920F920FB60F9257
:102EE00011242F933F938F939F93AF93BF93809120
:102EF0002C0390912D03A0912E03B0912F033091BC
:102F00002B0323E0230F2D3720F40196A11DB11DC3
:102F100005C026E8230F0296A11DB11D20932B03A7
:102F200080932C0390932D03A0932E03B0932F0333
:102F30008091300390913103A0913203B09133031B
:102F40000196A11DB11D8093300390933103A0938E
:102F50003203B0933303BF91AF919F918F913F9113
:102F60002F910F900FBE0F901F901895CF93DF9366
:102F7000CDB7DEB7C256D1090FB6F894DEBF0FBE8B
:102F8000CDBF789484B5826084BD84B5816084BDF2
:102F900085B5826085BD85B5816085BD80916E00F7
:102FA000816080936E001092810080918100826028
:102FB0008093810080918100816080938100809165
:102FC00080008160809380008091B1008460809354
:102FD000B1008091B00081608093B00080917A0050
:102FE000846080937A0080917A00826080937A0076
:102FF00080917A00816080937A0080917A00806865
:1030000080937A001092C1008CE393E09093B40314
:103010008093B303E0914003F0914103309721F096
:1030200088E393E091A780A78AE393E090936E03EF
:1030300080936D0390939B0380939A03E091B70371
:10304000F091B803309721F08CE393E097A386A327
:103050008091B9039091BA03009759F00E94DF154F
:10306000E091B903F091BA038281811102C081E03D
:103070008283E0911D04F0911E0482E08083E09140
:103080001904F0911A041082E0911B04F0911C04C1
:1030900080E1808310922504E0912104F0912204C4
:1030A00086E08083E0911F04F0912004808180619C
:1030B0008083E0911F04F0912004808188608083E8
:1030C000E0911F04F0912004808180688083E0916A
:1030D0001F04F091200480818F7D80838CEB9CE61F
:1030E000ABE9B6E48093490390934A03A0934B0362
:1030F000B0934C0321E020936C038093760390936C
:103100007703A0937803B093790310929903E0902A
:10311000B703F090B803D70112960D911C91139745
:10312000F80180819181228133818217930719F000
:1031300061E00E946C16D80112968D919C911397B4
:103140002D913C912817390719F061E00E946C1607
:10315000DFB6F89480910C03811127C0E4E2F2E01D
:103160008491E8E3F2E09491E82FF0E0EE0FFF1F86
:10317000EA5FFD4FA591B491EC91E92321F461E060
:103180008AE00E94201661E08AE00E946C168CB5ED
:1031900080618CBD8CB580648CBD61E08DE00E9447
:1031A0006C1661E08BE00E946C1680910C038F5FBF
:1031B00080930C03DFBE60E0C8010E948E0261E0D4
:1031C000C8010E949A0265E070E080E090E00E94F1
:1031D000EF164CE060E0C8010E94BF024FE564E0DA
:1031E000C8010E94BF0262E070E0C8010E94EC13B7
:1031F000882319F081E0F801868366E0C8010E9407
:103200001A03D82E60E070E0C8010E94EC13C801D8
:103210000E94B50280E50E94B80283E70E94B802CE
:10322000C8010E94B20240E06DE1C8010E94BF02E5
:1032300040E06CE1C8010E94BF02D80118961C92C0
:1032400040E767E0C8010E94BF024CE465E0C801A6
:103250000E94BF02C8010E94B50282EE0E94B8021D
:10326000C8010E94B202C8010E944014C8010E9415
:10327000271460E0C8010E941A03482F4E7F60E0C7
:10328000C8010E94BF028FEF8D0D8E3F08F0B2C0C3
:1032900043EA64E0F701828193810E94BF02D70173
:1032A00012960D911C91139740E06DE1C8010E94A8
:1032B000BF0240E06CE1C8010E94BF02F801108625
:1032C000D7011296ED91FC91139788E187831296AE
:1032D0000D911C91139782E02E968FAF2E972F960B
:1032E0001FAE2F9760961FAE609761961FAE6197D5
:1032F00062961FAE629763961FAE639764961FAE89
:10330000649765961FAE6597F8012685AE01435B0D
:103310005F4F6AE0C8010E94E302D8011E962C911B
:10332000AE01435B5F4F60E1C8010E94E302F80118
:10333000478161E1C8010E94BF02D70112960D9139
:103340001C91139781E026968FAF269727961FAE84
:10335000279728961FAE289729961FAE29972A9659
:103360001FAE2A972B961FAE2B972C961FAE2C972D
:103370002D961FAE2D97EDE9F0E06491F8012685BA
:10338000AE014B5B5F4FC8010E94E302E7E9F0E04A
:103390006491D80117964C91C8010E94BF0262E067
:1033A000C8010E941A03E1E9F0E0E49141E050E035
:1033B00001C0440FEA95EAF7482B62E0C8010E9479
:1033C000BF02F7010281138166E0C8010E941A035F
:1033D000887F482F436066E0C8010E94BF0262E018
:1033E00070E0D70112968D919C9113970E94EC1377
:1033F00062E001C061E0C7010E94690EE0914003F4
:10340000F091410367A18091B9039091BA030E94A2
:103410002310E091B703F091B80361E086818E310B
:1034200008F060E08091B9039091BA030E940F10F8
:103430008091B9039091BA030E94DF1582E892E06F
:103440000E94EB158091B7039091B803FC01248191
:10345000211102C021E024830E94BD0E89E0E5EA2B
:10346000F2E09E012F5F3F4F7901D90101900D924B
:103470008A95E1F7B9018091B7039091B8030E9452
:10348000F91580914003909141030E94680B80914F
:10349000B9039091BA03DC0112962C911297211175
:1034A00003C021E012962C930E949C0F60E082E002
:1034B0000E946C160E9429176093340370933503A1
:1034C000809336039093370382EA90E00E94A5141C
:1034D0008091D4049091D504F701E81BF90BCF013A
:1034E0000E949E155E01F9E1AF0EB11C0E942917E2
:1034F00087EB92E020E2280FA2962FAFA29780914F
:10350000BC0381116FC182E493E00E9440078FE603
:1035100093E00E94400700914003109141030E94F4
:103520002917D80113964D905D906D907C90169759
:10353000DC01CB0184199509A609B70984369105E8
:10354000A105B105C0F1F80182818230A0F58EE0BD
:103550000E94A816BC01C8010E94FF0ABC01990F75
:10356000880B990B0E94AF29AB01BC01C8010996D9
:103570000E945806D80112962C91213069F40E94BD
:10358000232CF801278130852617370729F070870B
:103590006783C8010E94350B0E942917D801139632
:1035A0006D937D938D939C93169712968C911297A1
:1035B0008F5F12968C930091B7031091B803F801B6
:1035C0008481882309F4C3C08681823008F4BFC097
:1035D00067E1828193810E941A0380FF98C17BC0BA
:1035E000C6010E94B20240E767E0C6010E94BF0226
:1035F00090E3D92ED9AA80E191E09CAF8BAF1EAFAA
:103600000DAF8BE590E021969FAF8EAF219723966B
:103610001FAE1EAE23972596BFAEAEAE2597BE0158
:10362000655C7F4FC8010E94C60CD80116968C912C
:10363000823008F450C062EB72E0CE01855A9F4F91
:103640000E940E0588E1F70111928A95E9F7DB8265
:1036500062EB72E0CE018B5A9F4F0E940E0562EB27
:1036600072E0CE01C1960E940E05698D4E01FAE10D
:103670008F0E911C87EBC82E82E0D82E20E06623A7
:1036800009F474C16A3009F471C1A2963FADA297E2
:103690003C1509F46BC1223009F484C108F072C1F1
:1036A00021116DC16B3209F4BBC1D6018C91681731
:1036B00009F4BBC1912CCE01C1960E940905CE012F
:1036C0008B5A9F4F0E9409057110D9C1CE01855AAE
:1036D0009F4F0E940905F80186818B508430B8F510
:1036E00080858130E9F40E942917D80119964D9000
:1036F0005D906D907C901C97DC01CB01841995093D
:10370000A609B70981389105A105B10500F1F801B5
:1037100086818E3010F06AE017C082E0808717C083
:103720008230A9F481E0F80180870E942917D8012E
:1037300019966D937D938D939C931C9716966C911F
:1037400016976F5F16966C93C8010E94690E809160
:10375000B9039091BA030E94DD0E0E9429171B0144
:103760002C016090BD037090BE038090BF039090C9
:10377000C0030E9429170091C1031091C203209138
:10378000C3033091C403DC01CB01801B910BA20B5E
:10379000B30B2091BB03211114C0B201A101461942
:1037A000570968097909483E53406105710548F099
:1037B000E091B703F091B80326812B50243008F034
:1037C000BFC184369105A105B10508F498CE0E94C9
:1037D00029176093C1037093C2038093C30390932E
:1037E000C40386CE87E992E00E94EB150091B703EF
:1037F0001091B803D80114968C911497882349F03E
:1038000016968C911697823020F015968C91811126
:103810009BC10E9429172B013C010E942917DC0142
:10382000CB0184199509A609B7090091B903109134
:10383000BA03CC97A105B10570F4C8010E94DD0E52
:103840000E9429176093BD037093BE038093BF034A
:103850009093C003E2CFC80140960E94400CC8017B
:1038600082960E94400CF80113AEEC5BFF4FD8012A
:10387000D7968D919C91D8979183808332971182AE
:103880001082F80186A90E947105E091B903F091B8
:10389000BA0382818111128264E170E080E090E0DD
:1038A0000E94EF161092040187E591E090930101C8
:1038B0008093000180916900836080936900E89A99
:1038C00020E030E040E050E068E070E08DE093E020
:1038D0000E94A013E8988AE393E0909301018093FB
:1038E000000180910401813039F482E00E94351793
:1038F00083E08093040108C0811106C083E08093B7
:10390000040181E00E9435170E943B04EFCDD801ED
:103910001296CD90DC901397F6019781983108F4B8
:103920000DC128E1522ED60118968C91811103C049
:10393000792E751801C0712CC6010E94B50281E66E
:103940000E94B80245015A94FFEF5F1639F08FEFDD
:103950000E94B802F40181934F01F5CF772009F45A
:103960003FCE8FEF0E94B8027A94F8CF6B968EAD5F
:103970009FAD6B97892B09F05FC0912C6AC02130F5
:1039800039F053C0243049F1A0F02530E1F14DC0A9
:103990006B3209F447C06D3309F446C0CE01855A35
:1039A0009F4F35C06D3309F43FC0CE018B5A9F4FF6
:1039B0002EC06C3251F54DA9442329F0B70189A9D5
:1039C0009AA90E94AD1240E050E062EB72E0CE0195
:1039D000C1960E94DE0424E028C06C32B1F44DA9E7
:1039E000442339F0BE01675F7F4F89A99AA90E94DD
:1039F000AD1240E050E062EB72E0CE01C1960E9451
:103A0000DE0425E012C06C3281F0CE01C196A3968F
:103A10002FAFA3970E94BC04A3962FADA39705C018
:103A200021E003C022E001C023E0F40161914F01D5
:103A3000FFEFCF1ADF0A23CE67968EAD9FAD679753
:103A4000A3962FAFA3970E949626982EA3962FADEC
:103A5000A3974DA9442381F089A99AA9233011F491
:103A6000B70108C0BE01243019F4675F7F4F02C060
:103A70006F5E7F4F0E94AD12772473941CCE6EE16F
:103A8000C8010E94690E63E972E0CE01C1960E94EE
:103A90000E056D968EAD9FAD6D9769A97AA90097B9
:103AA00019F061157105D1F46115710559F02DA951
:103AB0003EA9232B39F0DB01CC90D12CD194C194B9
:103AC000D10812C0009771F0A1962EAD3FADA1971D
:103AD000232B41F0FC01C080D12C06C00E94262E71
:103AE0006C0102C0C12CD12CCE01C1960E940905E7
:103AF000CD2809F4EBCD80E191E09AAB89AB1CAB0A
:103B00000BAB8CE590E09EAB8DAB18AE1FAABAAEA6
:103B1000A9AEBE016F5C7F4FC8010E94C60C992000
:103B200009F4D4CDD80195968C9195978911CECD75
:103B30001D961C921D9795961C92C8CD592EF3CEBA
:103B400021E02093BC033DCEC8010E94060D64E035
:103B500070E080E090E00E94EF16D8011296CD90C0
:103B6000DC90139760E0C6010E948E0260E0C601FF
:103B70000E941A03482F4D7F60E0C6010E94BF02D9
:103B8000F801158281EB90E00E94D11542CE2F9270
:103B90003F924F925F926F927F928F929F92AF92DD
:103BA000BF92CF92DF92EF92FF920F931F93CF932A
:103BB000DF938DE094E01092100410920F0448EE11
:103BC00053E060E070E0409311045093120460935E
:103BD00013047093140420E431E030930E04209316
:103BE0000D0425EC30E030931A042093190424ECE2
:103BF00030E030931C0420931B0420EC30E0309321
:103C00001E0420931D0421EC30E030932004209307
:103C10001F0422EC30E0309322042093210426EC90
:103C200030E0309324042093230410922604109251
:103C300027041092280410922904E1E2F0E0F093A6
:103C4000C204E093C1041092C3041092C404109201
:103C5000C50446E050E060E070E04093C604509335
:103C6000C7046093C8047093C9041092CA041092E8
:103C7000CB041092CC041092CD04C0E2C093CE04C9
:103C80001092D0041092CF041092D3042CEA34E0A6
:103C90003093D2042093D10420EE31E03093AB0472
:103CA0002093AA042AEE31E03093BF042093BE048F
:103CB0001092B0041092AF041092B2041092B104AA
:103CC0001092B4041092B3041092B6041092B5048A
:103CD0001092B8041092B7041092BA041092B9046A
:103CE0002EEB31E03093AD042093AC049093BD04EF
:103CF0008093BC04A0E1A093BB04F093FB03E0938A
:103D0000FA031092FC031092FD031092FE034093FD
:103D1000FF03509300046093010470930204109217
:103D20000304109204041092050410920604C09338
:103D30000704109209041092080410920C041092C7
:103D4000E1031092E2031092E3031092E40345EEC4
:103D500053E050930B0440930A0448E651E050931B
:103D6000E0034093DF0342E751E05093F8034093B0
:103D7000F7031092E9031092E8031092EB031092FC
:103D8000EA031092ED031092EC031092EF031092ED
:103D9000EE031092F1031092F0031092F3031092CD
:103DA000F2033093E6032093E5039093F6038093A8
:103DB000F50328E02093F4039093DE038093DD0362
:103DC0006EE571E186E791E10E94BC2689E090E012
:103DD0009093C6038093C5038AE090E09093C80354
:103DE0008093C7031092CB03C093CC031092CD03F2
:103DF00085E08093D30385E090E0A0E0B0E080937D
:103E0000D9039093DA03A093DB03B093DC03109201
:103E1000CE038CE492E090933903809338038CE5D1
:103E200092E090933B0380933A0386E692E090936E
:103E30003D0380933C0385EC93E090933F03809394
:103E40003E038091100390911103892B09F075C0F6
:103E50008AE290E00E946925EC0184E092E0998377
:103E600088831A821B821C821D821E8218861F82F2
:103E700001E010E01A870987ECEB8E2EECE69E2E0F
:103E8000EBE1AE2EEAE4BE2E8B869C86AD86BE8626
:103E900080E090ECAFE7B4E48B8B9C8BAD8BBE8B5A
:103EA0008F8B988FA98FBA8F8B8F9C8FAD8FBE8F82
:103EB0000E94CA166BA37CA38DA39EA31FA219A662
:103EC00018A68EE00E94A816BC01CE010E94FF0A2F
:103ED000BC0180E090E00E94AD296B017C010E9452
:103EE000CA161A8709878B869C86AD86BE86CB8AC2
:103EF000DC8AED8AFE8ACF8AD88EE98EFA8ECB8E46
:103F0000DC8EED8EFE8E6BA37CA38DA39EA3B701EA
:103F1000A601CE0109960E9458060E94232C2F81EB
:103F200038852617370729F078876F83CE010E94DE
:103F3000350BD0931103C09310038091100390911F
:103F4000110390934103809340035CE0852E52E07F
:103F5000952E90924303809242038FE08093440316
:103F60001092460310924503AA24A394B12CB09258
:103F70004803A092470374E9C72E71EFD72E76E469
:103F8000E72E75E4F72EC0924903D0924A03E092DF
:103F90004B03F0924C031092510310925203109273
:103FA000530310925403109255031092560310922B
:103FB0005703109258031092590310925A0310920B
:103FC0005B0310925C030E94CA16609361037093B6
:103FD0006203809363039093640300E410E0109302
:103FE00066030093650310926703109268031092B2
:103FF000690310926A03C1E0C0936B03C0936C0322
:1040000010926E0310926D039092700380926F0372
:1040100080E1809371031092730310927203B09247
:104020007503A0927403C0927603D0927703E09256
:104030007803F092790310927E0310927F0310921E
:1040400080031092810310928203109283031092D6
:1040500084031092850310928603109287031092B6
:104060008803109289030E94CA1660938E0370938E
:104070008F03809390039093910310939303009385
:10408000920310929403109295031092960310924B
:104090009703C0939803C093990310929B031092C7
:1040A0009A0384E192E090939D0380939C03109285
:1040B0009E031092A00310929F031092A2031092ED
:1040C000A1031092AD031092AE031092AF031092B1
:1040D000B0031092B1031092B2031092B403109285
:1040E000B3031092A4031092A3031092A60310929C
:1040F000A5031092A8031092A7031092AA0310928E
:10410000A9031092AC031092AB0380910E0390911F
:104110000F03892BD9F483E090E00E946925EC011C
:104120008CE192E09983888382E08A8361E084E075
:104130000E946C168A81882329F01A8260E084E04C
:104140000E942016D0930F03C0930E0380910E039C
:1041500090910F039093B6038093B503C0913E03F3
:10416000D0913F038091120390911303892BE1F4C6
:1041700088E290E00E946925FC0184E292E091834C
:104180008083D383C283148281E085831682178261
:104190001086118612861386148615A217A216A2FF
:1041A000F0931303E0931203809112039091130391
:1041B0009093B8038093B7038091140390911503F3
:1041C000892B09F078C186E490E00E946925EC0112
:1041D00084E492E0998388831A821B8285E090E0D0
:1041E0000E9469257C01FC011082128211821482D6
:1041F000138285E090E00E9469256C011FEFFC01AD
:10420000108384E190E092838183F482E38285E0ED
:1042100090E00E9469257C0183E0F70180838EE1B4
:1042200090E092838183D482C382FD82EC8285E018
:1042300090E00E9469255C01FC01108214821382C7
:104240008AEF282E312C3282218285E090E00E9474
:1042500069256C01FC01108392E3692E712C728236
:104260006182B482A38285E090E00E9469255C01AE
:10427000FC0110822BE4822E912C92828182D482C6
:10428000C38285E090E00E9469252C01FC01108327
:1042900039E1C32ED12CD282C182B482A38285E0BF
:1042A00090E00E9469255C01FC011082928281826B
:1042B0005482438285E090E00E946925FC011083CE
:1042C000D282C182B482A3829F838E8385E090E0F4
:1042D0000E9469255C01FC01108212821182148205
:1042E000138285E090E00E946925FC0110837282B0
:1042F0006182B482A3829987888785E090E00E94DA
:1043000069255C01FC0110821482138292828182F1
:1043100085E090E00E946925FC011083D282C18271
:10432000B482A3829B878A8785E090E00E946925FA
:104330004C01FC011082148213824EEE442E42E0A6
:10434000542E5282418285E090E00E9469255C01F2
:10435000FC011083728261829482838285E090E006
:104360000E9469254C01FC0110828FEA90E0928343
:104370008183B482A38285E090E00E946925FC01DC
:104380001083D282C182948283829D878C8788E049
:1043900090E00E9469256C010CE212E0FC0111839F
:1043A000008313821282178216825582448288E02B
:1043B00090E00E946925FC011183008380EC9DE060
:1043C0009383828335822482D782C682FF87EE87D9
:1043D00004E312E0198B088B88E08A8BFC8AEB8A55
:1043E00081E090E09E8B8D8B188E1F8A198E1A8E1D
:1043F0001B8E1C8E1E8E1D8EF8A2EF8E19A261E000
:1044000088E00E946C161BA30AA387E08CA31EA25F
:104410001DA218A61FA21AA619A61BA61CA61DA699
:104420001EA618AA1FA61AAA19AA1BAA61E00E9412
:104430006C168E859F852CE332E03DAB2CAB25E0DE
:104440002EAB98AF8FAB1AAE19AE1BAE1DAE1CAE25
:10445000FE01FE961082118212821382349611821E
:10446000108232969183808361E085E00E946C1611
:1044700061E086E00E946C1661E087E00E946C16A5
:1044800061E088E00E946C1661E085E00E946C1695
:104490008C819D812B893C892817390721F09C8BC1
:1044A0008B8B98A38F8F81E090E09E8B8D8BD09328
:1044B0001503C093140380911403909115039093F6
:1044C000BA038093B9031092BB031092BC030E94FD
:1044D00029176093BD037093BE038093BF0390932D
:1044E000C0030E9429176093C1037093C203809395
:1044F000C3039093C4030E942917609334037093FD
:1045000035038093360390933703DF91CF911F914A
:104510000F91FF90EF90DF90CF90BF90AF909F9062
:104520008F907F906F905F904F903F902F90089565
:10453000089508950C94FE2502970C949A220497EE
:104540000C949A22AF92BF92CF92DF92EF92FF9299
:104550000F931F93CF93DF93CDB7DEB7E2970FB6DC
:10456000F894DEBF0FBECDBF7C01FB018281938139
:10457000870101581F4FD8012D913C918217930755
:1045800009F0C0C0848195818C35910509F49EC0E5
:1045900040F48A35910509F4ADC08B35910561F081
:1045A00007C18E35910509F4A0C008F494C08F3579
:1045B000910509F49FC0FCC0C084D18484E591E0DA
:1045C0000E94A514C6010E94EB1588E090E09C8F24
:1045D0008B8F1E8E1D8E0E9469255C019A8F898F9C
:1045E000C114D104E1F488E090E09C838B831E82A7
:1045F0001D820E9469259A8389830E942917F701E9
:10460000EB57FF4F6083718382839383CE010196C2
:104610000E949901CE0149960E949901C9C0F601F4
:1046200001900020E9F731978F010C191D09B1F1B4
:104630000930110518F1C801089689309105F0F08C
:104640009C8F8B8F0E9469259A8F898F20E030E0A4
:104650008D8D9E8D2817390770F4E98DFA8DE20F44
:10466000F31F309729F0D501A20FB31F8C918083DF
:104670002F5F3F4FEDCFC5010E94FE258D8D9E8D92
:104680008017910748F4E98DFA8DE80FF91F3097EC
:1046900009F010820196F4CF1E8F0D8F298D3A8D6F
:1046A00080E090E0DC01A80160E070E084179507ED
:1046B000A607B70708F097CFF60111916F01F9012E
:1046C00011939F010196A11DB11DF0CF00851185A9
:1046D00081E491E004C0008511858FE291E00E94A1
:1046E000A514C8010E94EB1563C00085118587E100
:1046F00091E0F5CF0084F185E02D6081C7010E9433
:10470000600156C024E6E20EF11C8E159F0509F0EB
:104710004FC084819581449709F04AC00084F18597
:10472000E02D82819381D480C580E0809E012F5F3F
:104730003F4F48E1D9011D924A95E9F79F938F9326
:1047400083EB92E09F938F931F9288E0F82EFF9265
:104750003F932F9329AB3AAB0E94362ECF92DF9234
:104760008AEB92E09F938F931F92FF92CE0109965E
:104770009F938F930E94362E0FB6F894DEBF0FBE24
:10478000CDBF29A93AA9F1E041E0EF1203C06EEBD9
:1047900072E002C062EC72E0CE0149960E94C8123B
:1047A000BE01675E7F4FD8018D919C910E94530D91
:1047B000E2960FB6F894DEBF0FBECDBFDF91CF916A
:1047C0001F910F91FF90EF90DF90CF90BF90AF902F
:1047D000089504970C94A2222F923F924F925F92D9
:1047E0006F927F928F929F92AF92BF92CF92DF9201
:1047F000EF92FF920F931F93CF93DF93CDB7DEB766
:10480000E0970FB6F894DEBF0FBECDBF8C010A96BD
:10481000D801AD57BF4FA8014F575F4F98012C5992
:104820003F4F5901FE0131966F01255E3F4F19013F
:10483000F8016817790709F08DC0E584F684F5E082
:10484000EF16F10448F081E08C9361E0FA01808179
:1048500091810E94371010C01C9260E0FA018081A3
:1048600091810E9437100E942917F801EB57FF4FE2
:104870006083718382839383F5018281813011F09B
:1048800081E08283B701C5010E94E5094701A12C9F
:10489000B12CC501B4010E94AD292BEC31EA45E5EC
:1048A00050E40E940E2A2CE63CE741EC5DE30E94B6
:1048B000702B0E94232C2B013C0188E1F601119200
:1048C0008A95E9F75F924F9283EB92E09F938F93E3
:1048D0001F9288E08F93DF92CF920E94362E96012E
:1048E00040E066EC72E0CE0149960E94C812BE011B
:1048F000675E7F4FF101808191810E94530D8BEDA6
:1049000090E00E94A5144AE0C501B4010E9464141D
:1049100080ED90E00E94A514F8016585768580E021
:1049200090E00E94AD292BEC31EA45E550E40E946D
:104930000E2A20E030EC4FE754E40E94702B20E078
:1049400030E0A9010E94042B42E00E94C61481ECD1
:1049500090E086C0E2ACF3ACF5E0EF16F10448F06D
:1049600081E08C9361E0FA01808191810E9437108F
:1049700010C01C9260E0FA01808191810E94371082
:104980000E942917F801EB57FF4F608371838283E0
:104990009383F5018281823011F082E08283B70136
:1049A000C5010E94E5094701A12CB12CC501B40144
:1049B0000E94AD292BEC31EA45E550E40E940E2A15
:1049C0000E94232C2B013C0188E1F60111928A956B
:1049D000E9F75F924F9283EB92E09F938F931F9240
:1049E00088E08F93DF92CF920E94362E960140E0AE
:1049F0006CEC72E0CE0149960E94C812BE01675E5F
:104A00007F4FF101808191810E94530D86E091E0FA
:104A10000E94A5144AE0C501B4010E9464148BEF02
:104A200090E00E94A514F80162AD73AD80E090E0C3
:104A30000E94AD292BEC31EA45E550E40E940E2A94
:104A400020E030EC4FE754E40E94702B20E030E08F
:104A5000A9010E94042B42E00E94C6148CEE90E053
:104A60000E94A514B20180E090E04AE00E94641424
:104A70008AEC92E00E94EB150FB6F894DEBF0FBEF1
:104A8000CDBFE0960FB6F894DEBF0FBECDBFDF916D
:104A9000CF911F910F91FF90EF90DF90CF90BF903B
:104AA000AF909F908F907F906F905F904F903F90CE
:104AB0002F90089502970C94EC2388E393E00E94D2
:104AC0005F018FED93E00E9432128AEA94E00C9429
:104AD0008012CF93DF938230910510F482E090E052
:104AE000E091D604F091D70420E030E0C0E0D0E0BF
:104AF000309711F14081518148175907C0F048178C
:104B0000590761F482819381209719F09B838A83EE
:104B10002BC09093D7048093D60426C0211531056D
:104B200019F04217530718F49A01BE01DF01EF0193
:104B30000280F381E02DDCCF2115310509F1281B1E
:104B4000390B2430310590F412968D919C91139776
:104B50006115710521F0FB019383828304C090935A
:104B6000D7048093D604FD01329644C0FD01E20FC4
:104B7000F31F81939193225031092D933C933AC0B6
:104B80002091D4043091D504232B41F420910801C5
:104B9000309109013093D5042093D404209106016B
:104BA000309107012115310541F42DB73EB74091F1
:104BB0000A0150910B01241B350BE091D404F091B4
:104BC000D504E217F307A0F42E1B3F0B2817390773
:104BD00078F0AC014E5F5F4F2417350748F04E0F59
:104BE0005F1F5093D5044093D4048193919302C0E6
:104BF000E0E0F0E0CF01DF91CF9108950F931F9394
:104C0000CF93DF93009709F48CC0FC013297138295
:104C100012820091D6041091D7040115110581F478
:104C200020813181820F931F2091D4043091D504CB
:104C30002817390779F5F093D504E093D40471C0AF
:104C4000D80140E050E0AE17BF0750F412962D9106
:104C50003C911397AD012115310509F1D901F3CF2D
:104C60009D01DA013383228360817181860F971F52
:104C70008217930769F4EC0128813981260F371FC9
:104C80002E5F3F4F318320838A819B819383828370
:104C9000452B29F4F093D704E093D60442C0139631
:104CA000FC93EE931297ED01499159919E01240FC7
:104CB000351FE217F30771F480819181840F951FEE
:104CC000029611969C938E938281938113969C9366
:104CD0008E931297E0E0F0E0D80112968D919C91AE
:104CE0001397009719F0F8018C01F6CF8D919C91E4
:104CF00098012E5F3F4F820F931F2091D404309173
:104D0000D5042817390769F4309729F41092D7048D
:104D10001092D60402C0138212821093D50400931D
:104D2000D404DF91CF911F910F910895FC01882742
:104D30009927E89421912032E9F3293010F02E30A0
:104D4000C8F32B3241F02D3239F4689404C00E942C
:104D5000B426820F911D219120532A30C0F31EF4F6
:104D6000909581959F4F08957AE0979F902D879F0A
:104D7000802D910D112408950F931F93CF93DF93EE
:104D8000009731F46115710519F480E090E03AC0A4
:104D90008B01EC016EE070E081E090E00E94D92888
:104DA000FC01892B91F380E883830115110571F0D3
:104DB0001387028781E883838091D8049091D90476
:104DC000892B21F4F093D904E093D8042097C9F0FB
:104DD000D187C0878381826083838091DA04909138
:104DE000DB04892B71F4F093DB04E093DA04809107
:104DF000DC049091DD04892B21F4F093DD04E09331
:104E0000DC04CF01DF91CF911F910F910895ACE0A9
:104E1000B0E0EDE0F7E20C94CC2A7C016B018A0152
:104E2000FC0117821682838181FFBDC1CE010196EC
:104E30004C01F7019381F60193FD859193FF8191D8
:104E40006F01882309F4ABC1853239F493FD859154
:104E500093FF81916F01853229F4B70190E00E94A0
:104E60001229E7CF512C312C20E02032A0F48B32D4
:104E700069F030F4803259F0833269F420612CC03B
:104E80008D3239F0803339F4216026C022602460ED
:104E900023C0286021C027FD27C030ED380F3A30ED
:104EA00078F426FF06C0FAE05F9E300D1124532EE1
:104EB00013C08AE0389E300D1124332E20620CC0BE
:104EC0008E3221F426FD6BC1206406C08C3611F4AD
:104ED000206802C0883641F4F60193FD859193FF66
:104EE00081916F018111C1CF982F9F7D955493308F
:104EF00028F40C5F1F4FFFE3F9830DC0833631F0B8
:104F0000833771F0833509F05BC022C0F8018081DE
:104F100089830E5F1F4F44244394512C540115C0C4
:104F20003801F2E06F0E711CF801A080B18026FFFD
:104F300003C0652D70E002C06FEF7FEFC5012C87C5
:104F40000E9407292C0183012C852F77222E17C060
:104F50003801F2E06F0E711CF801A080B18026FFCD
:104F600003C0652D70E002C06FEF7FEFC5012C8795
:104F70000E94F5282C012C852068222E830123FC19
:104F80001BC0832D90E048165906B0F4B70180E2AB
:104F900090E00E9412293A94F4CFF50127FC859104
:104FA00027FE81915F01B70190E00E941229311024
:104FB0003A94F1E04F1A51084114510471F7E5C0D9
:104FC000843611F0893639F5F80127FF07C0608172
:104FD0007181828193810C5F1F4F08C06081718154
:104FE000072E000C880B990B0E5F1F4F2F76722E29
:104FF00097FF09C090958095709561957F4F8F4F71
:105000009F4F2068722E2AE030E0A4010E944A29B6
:10501000A82EA81844C0853729F42F7EB22E2AE086
:1050200030E025C0F22FF97FBF2E8F36C1F018F483
:10503000883579F0B4C0803719F0883721F0AFC0D7
:105040002F2F2061B22EB4FE0DC08B2D8460B82EA0
:1050500009C024FF0AC09F2F9660B92E06C028E021
:1050600030E005C020E130E002C020E132E0F8018C
:10507000B7FE07C060817181828193810C5F1F4FF1
:1050800006C06081718180E090E00E5F1F4FA40137
:105090000E944A29A82EA818FB2DFF777F2E76FEA6
:1050A0000BC0372D3E7FA51450F474FE0AC072FC6D
:1050B00008C0372D3E7E05C0BA2C372D03C0BA2C50
:1050C00001C0B52C34FF0DC0FE01EA0DF11D808139
:1050D000803311F4397E09C032FF06C0B394B39413
:1050E00004C0832F867809F0B39433FD13C030FFDA
:1050F00006C05A2CB31418F4530C5B18B32CB31419
:1051000068F4B70180E290E03C870E941229B394D2
:105110003C85F5CFB31410F43B1801C0312C34FF9B
:1051200012C0B70180E390E03C870E9412293C85C1
:1051300032FF17C031FD03C088E790E002C088E568
:1051400090E0B7010CC0832F867859F031FF02C080
:105150008BE201C080E237FD8DE2B70190E00E9452
:105160001229A51438F4B70180E390E00E941229B7
:105170005A94F7CFAA94F401EA0DF11D8081B7018A
:1051800090E00E941229A110F5CF332009F451CEEE
:10519000B70180E290E00E9412293A94F6CFF7011D
:1051A0008681978102C08FEF9FEF2C96E2E10C94ED
:1051B000E82A0F931F93CF93DF93869F8001879FE9
:1051C000100D969F100D1124C8010E946925EC0155
:1051D000009729F0A80160E070E00E940029CE014C
:1051E000DF91CF911F910F910895FC0105906150BF
:1051F00070400110D8F7809590958E0F9F1F0895ED
:10520000DC0101C06D9341505040E0F70895FC016E
:105210006150704001900110D8F7809590958E0FE5
:105220009F1F08950F931F93CF93DF93FB0123815B
:1052300021FD03C08FEF9FEF28C022FF16C04681DB
:105240005781248135814217530744F4A081B181ED
:105250009D012F5F3F4F318320838C9326813781BF
:105260002F5F3F4F3783268310C0EB01092F182F84
:105270000084F185E02D0995892BE1F68E819F81CF
:1052800001969F838E83812F902FDF91CF911F9165
:105290000F910895FA01AA27283051F1203181F1A8
:1052A000E8946F936E7F6E5F7F4F8F4F9F4FAF4F2E
:1052B000B1E03ED0B4E03CD0670F781F891F9A1F41
:1052C000A11D680F791F8A1F911DA11D6A0F711DF5
:1052D000811D911DA11D20D009F468943F912AE001
:1052E000269F11243019305D3193DEF6CF010895E9
:1052F000462F4770405D4193B3E00FD0C9F7F6CF1A
:10530000462F4F70405D4A3318F0495D31FD4052E1
:10531000419302D0A9F7EACFB4E0A6959795879577
:1053200077956795BA95C9F7009761057105089556
:105330009B01AC010A2E0694579547953795279502
:10534000BA95C9F7620F731F841F951FA01D08959A
:105350000E94EA2908F481E00895E89409C097FBC7
:105360003EF490958095709561957F4F8F4F9F4F3C
:105370009923A9F0F92F96E9BB279395F695879580
:1053800077956795B795F111F8CFFAF4BB0F11F443
:1053900060FF1BC06F5F7F4F8F4F9F4F16C08823EA
:1053A00011F096E911C0772321F09EE8872F762F20
:1053B00005C0662371F096E8862F70E060E02AF061
:1053C0009A95660F771F881FDAF7880F969587954D
:1053D00097F90895990F0008550FAA0BE0E8FEEF22
:1053E00016161706E807F907C0F012161306E407A9
:1053F000F50798F0621B730B840B950B39F40A26A2
:1054000061F0232B242B252B21F408950A2609F47F
:10541000A140A6958FEF811D811D08950E94212A2C
:105420000C94922A0E94842A38F00E948B2A20F041
:10543000952311F00C947B2A0C94812A11240C944E
:10544000C62A0E94A32A70F3959FC1F3950F50E0DE
:10545000551F629FF001729FBB27F00DB11D639F26
:10546000AA27F00DB11DAA1F649F6627B00DA11DCC
:10547000661F829F2227B00DA11D621F739FB00D72
:10548000A11D621F839FA00D611D221F749F3327E2
:10549000A00D611D231F849F600D211D822F762F7B
:1054A0006A2F11249F5750409AF0F1F088234AF058
:1054B000EE0FFF1FBB1F661F771F881F91505040C4
:1054C000A9F79E3F510580F00C947B2A0C94C62AC4
:1054D0005F3FE4F3983ED4F3869577956795B7954B
:1054E000F795E7959F5FC1F7FE2B880F911D969565
:1054F000879597F9089597F99F6780E870E060E0D5
:1055000008959FEF80EC089500240A94161617065C
:1055100018060906089500240A94121613061406A4
:1055200005060895092E0394000C11F4882352F007
:10553000BB0F40F4BF2B11F460FF04C06F5F7F4FBF
:105540008F4F9F4F089557FD9058440F551F59F0A6
:105550005F3F71F04795880F97FB991F61F09F3F60
:1055600079F087950895121613061406551FF2CF89
:105570004695F1DF08C0161617061806991FF1CFD9
:1055800086957105610508940895E894BB27662700
:105590007727CB0197F908952F923F924F925F9210
:1055A0006F927F928F929F92AF92BF92CF92DF9233
:1055B000EF92FF920F931F93CF93DF93CDB7DEB798
:1055C000CA1BDB0B0FB6F894DEBF0FBECDBF09942C
:1055D0002A88398848885F846E847D848C849B8483
:1055E000AA84B984C884DF80EE80FD800C811B8191
:1055F000AA81B981CE0FD11D0FB6F894DEBF0FBEC0
:10560000CDBFED0108955058BB27AA270E941B2B40
:105610000C94922A0E94842A38F00E948B2A20F04F
:1056200039F49F3F19F426F40C94812A0EF4E09586
:10563000E7FB0C947B2AE92F0E94A32A58F3BA17A0
:10564000620773078407950720F079F4A6F50C9498
:10565000C52A0EF4E0950B2EBA2FA02D0B01B9012F
:1056600090010C01CA01A0011124FF27591B99F0D8
:10567000593F50F4503E68F11A16F040A22F232FE4
:10568000342F4427585FF3CF469537952795A79534
:10569000F0405395C9F77EF41F16BA0B620B730BDB
:1056A000840BBAF09150A1F0FF0FBB1F661F771F4C
:1056B000881FC2F70EC0BA0F621F731F841F48F401
:1056C000879577956795B795F7959E3F08F0B0CF8A
:1056D0009395880F08F09927EE0F97958795089571
:1056E0000E94842B0C94922A0E948B2A58F00E94CC
:1056F000842A40F029F45F3F29F00C947B2A511151
:105700000C94C62A0C94812A0E94A32A68F3992338
:10571000B1F3552391F3951B550BBB27AA276217AD
:105720007307840738F09F5F5F4F220F331F441FBA
:10573000AA1FA9F335D00E2E3AF0E0E832D09150EE
:105740005040E695001CCAF72BD0FE2F29D0660FDB
:10575000771F881FBB1F261737074807AB07B0E81E
:1057600009F0BB0B802DBF01FF2793585F4F3AF024
:105770009E3F510578F00C947B2A0C94C62A5F3F1B
:10578000E4F3983ED4F3869577956795B795F795AA
:105790009F5FC9F7880F911D9695879597F9089592
:1057A000E1E0660F771F881FBB1F6217730784072E
:1057B000BA0720F0621B730B840BBA0BEE1F88F73D
:1057C000E095089529F416F00C947B2A0C94C52AD0
:1057D0000C94812A0E94AB2AA8F39638A0F707F808
:1057E0000F92E8942BE33AEA48EB5FE70E94242A01
:1057F0000F920F920F924DB75EB70F920E94C02C7E
:10580000E8E6F0E00E94522C4F915F91EF91FF91FA
:10581000E595EE1FFF1F49F0FE57E0684427EE0FA5
:10582000441FFA95E1F74195550B0E948A2C0F9081
:1058300007FE0C947E2C08950E94232C6894B111CD
:105840000C94C62A08950E94AB2A88F09F5798F0BE
:10585000B92F9927B751B0F0E1F0660F771F881F75
:10586000991F1AF0BA95C9F714C0B13091F00E948F
:10587000C52AB1E008950C94C52A672F782F882790
:10588000B85F39F0B93FCCF3869577956795B395B6
:10589000D9F73EF490958095709561957F4F8F4F25
:1058A0009F4F0895DF93CF931F930F93FF92EF9233
:1058B000DF927B018C01689406C0DA2EEF010E9412
:1058C000212AFE01E894A5912591359145915591A4
:1058D000A6F3EF010E941B2BFE019701A801DA94A9
:1058E00069F7DF90EF90FF900F911F91CF91DF91BB
:1058F00008950E94EA2908F48FEF08959B01AC01F6
:1059000060E070E080E89FE30C94702B0C947B2A9D
:105910000C94F92C0E94AB2AD8F39923C9F3940F65
:10592000511DA3F39150504094F059F0882332F068
:10593000660F771F881F91505040C1F79E3F510559
:105940002CF7880F911D9695879597F908955F3FDD
:10595000ACF0983E9CF0BB27869577956795B795F8
:1059600008F4B1609395C1F7BB0F58F711F460FFCD
:10597000E8CF6F5F7F4F8F4F9F4FE3CF0C94C62AC6
:10598000FA01DC01AA0FBB1F9B01AC01BF5728F431
:10599000222733274427507820C0B75190F4AB2FEB
:1059A0000024469537952795011CA395D2F3002036
:1059B00071F0220F331F441FB395DAF30ED00C940D
:1059C000032B61307105A0E88A07B94630F49B01CA
:1059D000AC016627772788279078309621F02083BE
:1059E00031834283538308950E94EA29880B990BDF
:1059F00008959F3F31F0915020F4879577956795F2
:105A0000B795880F911D9695879597F90895A1E20E
:105A10001A2EAA1BBB1BFD010DC0AA1FBB1FEE1F28
:105A2000FF1FA217B307E407F50720F0A21BB30B73
:105A3000E40BF50B661F771F881F991F1A9469F7EF
:105A400060957095809590959B01AC01BD01CF014B
:105A50000895052E97FB1EF400940E94402D57FDDB
:105A600007D00E94072D07FC03D04EF40C94402D64
:105A700050954095309521953F4F4F4F5F4F08957A
:105A800090958095709561957F4F8F4F9F4F0895AA
:105A9000EE0FFF1F0590F491E02D0994A0E0B0E017
:105AA000E4E5FDE20C94D02AEC01009721F4CB014F
:105AB0000E946925B8C0FC01E60FF71F9C01225027
:105AC0003109E217F30708F4ACC0D9010D911C911C
:105AD000119706171707B0F00530110508F49FC09D
