:100000000C94F2000C941A010C941A010C941A012D
:100010000C941A010C941A010C941A010C94550BAF
:100020000C941A010C941A010C941A010C941A01E4
:100030000C941A010C941A010C941A010C941A01D4
:100040000C9446140C941A010C94740C0C944E0CE1
:100050000C941A010C941A010C941A010C941A01B4
:100060000C941A010C941A0107634236B79BD8A767
:100070001A39685618AEBAAB558C1D3CB7CC5763CD
:10008000BD6DEDFD753EF6177231BF000000803F7B
:10009000204D6561737572656D656E743A20002040
:1000A000566F6C746167653A2000485650726F62F3
:1000B000652056616C75653A2000536C6176652049
:1000C0005246204D657373616765205265636569AB
:1000D0007665643A2000562050657263656E7461DF
:1000E00067653A200020566F6C746167653A20009E
:1000F000426174746572792056616C75653A2000AE
:100100004261747465727920416C61726D20537420
:100110006174653A200000010203040511121314F2
:1001200015160A0B0C0D0E0F526164696F204552B3
:10013000524F5200526164696F20426567696E00D8
:10014000404020467265652052414D203D200053BD
:100150004C415645204F4B00526164696F20506FEF
:10016000776572446F776E00404020467265652067
:1001700052414D203D200000000008000201000017
:10018000030407000000000000000000000000253C
:100190000028002B0000000000240027002A000493
:1001A000040404040404040202020202020303031E
:1001B0000303030102040810204080010204081018
:1001C000200102040810200252462053656E743A42
:1001D0002000526164696F20506F7765725570001E
:1001E000D71DE52011241FBECFEFD8E0DEBFCDBF65
:1001F00012E0A0E0B1E0E6E4F2E502C005900D9265
:10020000A03DB107D9F724E0A0EDB2E001C01D92F6
:10021000A33CB207E1F710E0C1EFD0E004C02197A2
:10022000FE010E94DA28C03FD107C9F70E942618B4
:100230000C9416290C94000008950F931F93CF93EC
:10024000DF93FC0104811581FB01C481D581AE01DE
:100250000C171D0708F4A801FB0160817181FC01E6
:10026000808191810E94E528009769F481E090E007
:10027000C017D10740F00C171D0710F080E090E088
:10028000919581959109DF91CF911F910F910895DB
:100290000F931F93CF938C01C42F60E071E08DE921
:1002A00093E00E94B80B6C2F70E08DE993E00E9400
:1002B00057056C2FF80182859385CF911F910F917F
:1002C0000C94F1134F925F926F927F92AF92BF9214
:1002D000CF92DF92EF92FF920F931F93CF93DF9312
:1002E000CDB7DEB764970FB6F894DEBF0FBECDBFB3
:1002F0005C01FB01078110852801612C712CC30171
:10030000B2010E94C7262DE73FE345E550E40E9475
:10031000192820E030EC4FE754E40E94E32520E068
:1003200030E0A9010E94722520E030E048EC52E460
:100330000E9419286B017C010C33F3E01F073CF08D
:100340000D3F83E018072CF00CEF13E002C00CE324
:1003500013E0B8016C537340072E000C880B990B07
:100360000E94C72620E030E048EC52E40E941928A1
:1003700020E030E040E453E40E94E32520E030E058
:10038000A9010E9472250E949626162F60EF70E048
:100390008DE993E00E94B80B2AE0B301A2018DE938
:1003A00093E00E94F10B65EE70E08DE993E00E940E
:1003B000B80B20E030E048EC52E4C701B6010E94DF
:1003C000E32542E00E945A0466ED70E08DE993E077
:1003D0000E94B80B412F50E060E070E02AE08DE908
:1003E00093E00E94F10B66E772E08DE993E00E94D2
:1003F0003A0C82E491E4A4E5B0E0898B9A8BAB8B54
:10040000BC8B1F921F93C701B6010E948F267F935A
:100410006F93CE0141969F938F9388E792E09F93CD
:100420008F938E010F5F1F4F1F930F930E94F3282E
:10043000B801F501848595850E9473120FB6F89472
:10044000DEBF0FBECDBF64960FB6F894DEBF0FBE01
:10045000CDBFDF91CF911F910F91FF90EF90DF9073
:10046000CF90BF90AF907F906F905F904F90089526
:10047000FC0120813181828193812817390719F08D
:10048000822F0C94CA050895CF93DF93EC019CB59D
:100490009F7D9CBD9CB5937F9CBD9CB59C7F9CBD66
:1004A0009DB591609DBD8A810E94CA058C899D89F8
:1004B000DF91CF910C942D0661E00C94440260E032
:1004C0000C9444028EBD00000DB407FEFDCF8EB526
:1004D00008951F93CF93DF93EC010E945F0281EE9A
:1004E0000E946202182FCE010E945C02812FDF91D0
:1004F000CF911F910895EF92FF921F93CF93DF93B7
:1005000000D0CDB7DEB77C014A8369830E945F02C9
:100510006981862F8F7180620E946202182F4A8142
:10052000842F0E946202C7010E945C02812F0F90FB
:100530000F90DF91CF911F91FF90EF900895CF9290
:10054000DF92EF92FF920F931F93CF93DF9300D030
:100550001F92CDB7DEB77C01142F2A835B8369839A
:100560000E945F026981862F8F7180620E94620201
:10057000082FC12E5B81D52E2A81120F1C1531F058
:10058000F60181916F010E946202F8CFC7010E94BB
:100590005C02802F0F900F900F90DF91CF911F91F1
:1005A0000F91FF90EF90DF90CF900895EF92FF9220
:1005B0001F93CF93DF931F92CDB7DEB77C01698382
:1005C0000E945F026981862F8F710E9462028FEF05
:1005D0000E946202182FC7010E945C02812F0F90B7
:1005E000DF91CF911F91FF90EF900895CF93DF930C
:1005F000EC0160E00E94D60281FD0AC0482F4260F3
:1006000060E0CE010E947B02DF91CF910C945D06E9
:10061000DF91CF910895CF93DF93EC0160E00E94CA
:100620003802888999890E942D066DE1CE010E94C9
:10063000D60281FF07C0888999890E942D06CE01C4
:100640000E94690260E0CE010E94D602482F4E7FD0
:1006500060E0CE010E947B0262E0CE010E94D602E1
:10066000E6E1F1E0E49141E050E001C0440FEA9599
:10067000EAF7482B62E0CE01DF91CF910C947B0228
:10068000CF93DF93EC010E94F60260E0CE010E945E
:10069000D602482F416060E0CE010E947B0240E715
:1006A00067E0CE010E947B0261E0CE010E94380229
:1006B0008985882349F02E85AE01475F5F4F6AE048
:1006C000CE010E949F0214C062E0CE010E94D602B9
:1006D000E6E1F1E0E49121E030E001C0220FEA958B
:1006E000EAF72095422F482362E0CE010E947B0268
:1006F0006DE1CE010E94D60281FF05C0CE01DF91DF
:10070000CF910C946902DF91CF910895CF92DF923F
:10071000EF92FF920F931F93CF93DF93EC018C81A5
:100720009D818617970708F03FC07A018B012A81C7
:100730003B812617370728F5CB010896281739077C
:1007400000F5C880D9809B838A830E9421219983E8
:10075000888320E030E08C819D812817390770F470
:10076000E881F981E20FF31F309729F0D601A20F3B
:10077000B31F8C9180832F5F3F4FEDCFC6010E9446
:10078000B6218C819D818017910758F4E881F98109
:10079000E80FF91F309719F0D7012C9120830196AB
:1007A000F2CF1D830C8305C06817790710F47D8391
:1007B0006C83DF91CF911F910F91FF90EF90DF90AD
:1007C000CF900895FC01808191810C94B621CF9245
:1007D000DF92EF92FF920F931F93FB01DC0100E089
:1007E00010E098016A01E12CF12C0C151D052E0575
:1007F0003F0538F461916D930F5F1F4F2F4F3F4FAF
:10080000F4CF840F951F1F910F91FF90EF90DF9011
:10081000CF900895CF92DF92EF92FF920F931F93A4
:10082000CF93DF931F92CDB7DEB77C016B0188E0D9
:1008300090E0F70193838283158214820E94212124
:10084000F70191838083C114D104B9F0F6010190BE
:100850000020E9F731978F010C191D091982AE01AB
:100860004F5F5F4FB801C7010E948603A801B60120
:10087000F701808191810E94E7030F90DF91CF9172
:100880001F910F91FF90EF90DF90CF900895CF933D
:10089000DF93BC018DE993E00E94B80BEC0161ECA1
:1008A00072E08DE993E00E94DC0B8C0F9D1FDF91BD
:1008B000CF9108954F925F926F927F928F929F9205
:1008C000AF92BF92CF92DF92EF92FF926B017C01C9
:1008D000B42E9B01AC010E948628882319F064EC99
:1008E00072E027C026013701E89477F82FEF3FEF39
:1008F0004FE75FE7C301B2010E94862881110DC056
:100900002FEF3FEF4FE75FE7C301B2010E94DE2503
:1009100018161CF468EC72E00CC02FEF3FEF4FE7A5
:100920005FE4C701B6010E949E27181694F46CEC90
:1009300072E08DE993E0FF90EF90DF90CF90BF9051
:10094000AF909F908F907F906F905F904F900C949E
:10095000DC0B2FEF3FEF4FE75FECC701B6010E94C2
:10096000DE2587FDE4CF20E030E0A901C701B60114
:100970000E94DE2587FF0BC06DE28DE993E00E94A7
:10098000B10B4C01F7FAF094F7F8F09402C0812C07
:10099000912CA12C60E070E080E09FE3AB1441F06B
:1009A00020E030E040E251E40E94E325A394F6CF3A
:1009B0009B01AC01C701B6010E9472252B013C01CD
:1009C0000E9496266B017C010E94C5269B01AC010A
:1009D000C301B2010E9471252B013C012AE0B7013D
:1009E000A6018DE993E00E94F10B7C01E80CF91C53
:1009F000BB2039F06EE28DE993E00E94B10BE80E66
:100A0000F91EDB2CDD2031F120E030E040E251E442
:100A1000C301B2010E9419282B013C010E949626B5
:100A20004B01A12CB12C2AE0B501A4018DE993E082
:100A30000E94F10BE80EF91EC501B4010E94C52603
:100A40009B01AC01C301B2010E9471252B013C0145
:100A5000DA94D8CFC701FF90EF90DF90CF90BF908E
:100A6000AF909F908F907F906F905F904F90089580
:100A700090E0FC01ED54FE4F2491FC01E156FE4F45
:100A80008491882399F090E0880F991FFC01EB5620
:100A9000FE4FA591B491FC01E557FE4F85919491CD
:100AA0008FB7F894EC91E22BEC938FBF0895CF921F
:100AB000DF92EF92FF920F931F93CF93DF938C01FE
:100AC0006B01770FEE08FF08F7FE12C06DE20E947F
:100AD000B10BEC0144275527BA014C195D096E0989
:100AE0007F092AE0C8010E94F10BC80FD91F06C078
:100AF0002AE0B701A6010E94F10BEC0161EC72E063
:100B0000C8010E94DC0B8C0F9D1FDF91CF911F91BC
:100B10000F91FF90EF90DF90CF9008950F931F9368
:100B2000CF938C0166E08EE093E00E94D602C82F3E
:100B3000C77D0230110531F4C0628BE990E0A0E07E
:100B4000B0E00DC00130110529F085E590E0A0E08E
:100B5000B0E005C0C86081E490E0A0E0B0E0809320
:100B60001E0390931F03A0932003B09321034C2FE7
:100B700066E08EE093E00E947B0266E08EE093E008
:100B80000E94D60291E08C1390E0892FCF911F91A3
:100B90000F91089590E0FC01E958FE4F3491FC015B
:100BA000ED54FE4F2491FC01E156FE4FE491EE23FB
:100BB00009F43BC0332339F1333091F038F431304C
:100BC000A9F0323001F584B58F7D12C0373091F035
:100BD0003830A1F03430B9F4809180008F7D03C0AB
:100BE000809180008F77809380000DC084B58F77CF
:100BF00084BD09C08091B0008F7703C08091B000A0
:100C00008F7D8093B000F0E0EE0FFF1FE557FE4FA1
:100C1000A591B4918FB7F894EC91611103C0209520
:100C20002E2301C02E2B2C938FBF08958E3008F0F9
:100C30008E508770806480937C0080917A008064FD
:100C400080937A0080917A0086FDFCCF80917800B5
:100C50002091790090E0922B08958230910538F030
:100C6000880F991F880F991F05970197F1F708952D
:100C70003FB7F8948091D5029091D602A091D70207
:100C8000B091D80226B5A89B05C02F3F19F0019658
:100C9000A11DB11D3FBFBA2FA92F982F8827820F02
:100CA000911DA11DB11DBC01CD0142E0660F771F52
:100CB000881F991F4A95D1F708958F929F92AF92FE
:100CC000BF92CF92DF92EF92FF920E9438064B01C3
:100CD0005C0185E0C82ED12CE12CF12C0E94380655
:100CE000DC01CB0188199909AA09BB09883E934008
:100CF000A105B10558F021E0C21AD108E108F108B8
:100D000088EE880E83E0981EA11CB11CC114D1048A
:100D1000E104F10419F7FF90EF90DF90CF90BF90BE
:100D2000AF909F908F9008952FB7F8946091D10263
:100D30007091D2028091D3029091D4022FBF089576
:100D40000895CB0108957F928F929F92AF92BF92A8
:100D5000CF92DF92EF92FF920F931F93CF93DF9387
:100D6000EC0149015A018B01C12CD12C7601C81428
:100D7000D904EA04FB0484F5F80171908F018F8592
:100D800080FF0BC0E881F9810084F185E02D20E12E
:100D900044E060E070E0CE010995EB85FC858D852F
:100DA0009E85E817F90738F470828B859C8501963B
:100DB0009C878B870BC0E881F981672D70E0028CDE
:100DC000F38DE02DCE010995019649F02FEFC21A5F
:100DD000D20AE20AF20ACBCFB401C50102C0B601C1
:100DE000C701DF91CF911F910F91FF90EF90DF909E
:100DF000CF90BF90AF909F908F907F900895CF93AA
:100E0000DF93EC01E881F9810288F389E02D0995EF
:100E10008F3F2FEF920731F02D813E812F5F3F4FA3
:100E20003E832D83DF91CF9108958FEF9FEF08953B
:100E300060E070E0CB01089580E090E00895CB0180
:100E40000895CF93DF93EC0188899989DC01ED91B6
:100E5000FC910084F185E02D0995892BA9F38889FF
:100E60009989DC01ED91FC910284F385E02DDF91FD
:100E7000CF910994CF93DF93EC0188899989DC01A4
:100E8000ED91FC910084F185E02D0995892BA9F362
:100E900088899989DC01ED91FC910484F585E02D28
:100EA000DF91CF910994AF92BF92CF92DF92EF92F0
:100EB000FF920F931F93CF93DF9300D000D0CDB755
:100EC000DEB78C015B01C12CD12C7601F801808941
:100ED0009189DC01ED91FC910284F385E02D298359
:100EE0003A834B835C83099529813A814B815C81EC
:100EF0008F3F71F0C216D306E406F5064CF4D50117
:100F00008D935D01BFEFCB1ADB0AEB0AFB0ADECF44
:100F1000C701B6010F900F900F900F90DF91CF9106
:100F20001F910F91FF90EF90DF90CF90BF90AF9007
:100F30000895DC0150968D919C915197DC01ED91C3
:100F4000FC910084F185E02D099480E090E0089503
:100F500080E090E0089580E090E0089580E090E0E7
:100F600008950895CF93DF93C0916B03D0916C03E4
:100F7000E881F9810084F185E02DCE010995892B66
:100F8000B9F3E881F9810284F385E02DCE01DF9188
:100F9000CF9109941F93CF93DF93182FC0916B03C8
:100FA000D0916C038A3041F4E881F9810190F0819D
:100FB000E02D6DE0CE010995E881F9810190F08185
:100FC000E02D612FCE01099521E030E0019711F469
:100FD00020E030E0C901DF91CF911F9108950C947A
:100FE000B6210C94B621089508950C94B621DC0125
:100FF000ED91FC91369720813181820F931F0C94E3
:10100000F507FB0120813181FC0131832083FB0145
:1010100042815381F901369720813181FC01E20F31
:10102000F31F51834083089524E631E0FC013183AE
:1010300020832EE631E0318F208F64E771E00C943D
:101040000108DC01ED91FC91369720813181820FFE
:10105000931F0C941408CF93DF93EC010E941408A3
:10106000CE01DF91CF910C94B621DC01ED91FC9182
:10107000369720813181820F931F0C942B080C949A
:10108000B621089508950C94B621DC01ED91FC91F0
:10109000369720813181820F931F0C944308FB0106
:1010A00020813181FC0131832083FB014281538106
:1010B000F901369720813181FC01E20FF31F518342
:1010C000408308952CED31E0FC013183208326EE2E
:1010D00031E0358B248B6CEE71E00C944F08DC0111
:1010E000ED91FC91369720813181820F931F0C94F2
:1010F0006208CF93DF93EC010E946208CE01DF917A
:10110000CF910C94B621DC01ED91FC9136972081B2
:101110003181820F931F0C9479080C94B6210F93A0
:101120001F93CF93DF938C01EB016F3F8FEF780715
:1011300019F480E090E00FC06A3031F46DE0F801FE
:10114000808991890E94B10B6C2FF8018089918967
:101150000E94B10BCE01DF91CF911F910F910895A5
:101160008F929F92BF92CF92DF92EF92FF920F9356
:101170001F93CF93DF9300D000D0CDB7DEB78C01A3
:101180004B01C12CD12C7601C216D306E406F5061C
:1011900044F5F401B1904F01FAE0BF120EC06DE0CA
:1011A000F8018089918929833A834B835C830E946B
:1011B000B10B5C814B813A8129816B2DF8018089CB
:1011C000918929833A834B835C830E94B10BFFEFA3
:1011D000CF1ADF0AEF0AFF0A5C814B813A8129812D
:1011E000D3CFCA01B9010F900F900F900F90DF91EC
:1011F000CF911F910F91FF90EF90DF90CF90BF9014
:101200009F908F900895CF92DF92FF920F931F933C
:10121000CF93DF938091DF029091E002892B09F058
:10122000F6C084E590E00E942121EC0182E592E085
:10123000998388831A821B8202E612E01D830C8345
:1012400086E08E8318861F821A8619861C861B8666
:101250001D861E861F86188A1A8A198A1C8A1B8A6E
:101260001D8A0E9438051F8B0E8B88E0888F1A8E8E
:10127000198E1C8E1B8E1E8E1D8E1F8E18A219A2FB
:101280001AA21CA21BA21EA21DA21FA20E94380508
:1012900019A708A787E08AA71CA61BA61EA61DA63D
:1012A00018AA1FA619AA1AAA1BAA1CAA1EAA1DAA16
:1012B00018AE1FAA19AE0E9438058AE692E09BAFCD
:1012C0008AAF85E08CAF1EAE1DAEFE01FF96118287
:1012D00010823296108231961182108232961082DC
:1012E00011821282138234961182108232961182F8
:1012F00010820E94380585E090E00E9421216C0157
:10130000FC0110821482138284E69FE09283818321
:1013100085E090E00E9421218C01FF24FA94FC01D9
:10132000F08284E190E092838183D482C38285E05D
:1013300090E00E942121FC0183E0808388E290E01C
:101340009283818314830383DE01A45BBF4FED93FB
:10135000FC9385E090E00E9421218C01FC01108229
:101360001482138288E690E09283818385E090E086
:101370000E942121FC01F08288E190E09283818328
:1013800014830383DE01A25BBF4FED93FC9385E0E2
:1013900090E00E9421218C01FC01108214821382B2
:1013A0008EE997E09283818385E090E00E9421217D
:1013B000FC01F08282E390E09283818314830383B3
:1013C000DE01A05BBF4FED93FC9385E090E00E94AF
:1013D00021218C01FC0110821482138284EF91E0A0
:1013E0009283818385E090E00E942121FC01F082BC
:1013F0008AEF90E09283818314830383DE01AE5AE7
:10140000BF4FED93FC93D093E002C093DF02809135
:10141000DF029091E002DF91CF911F910F91FF9039
:10142000DF90CF900895089508950895CF92DF92A8
:10143000EF92FF920F931F93CF93DF936C017A018A
:101440008B01C0E0D0E0CE15DF0589F0D8016D91A9
:101450008D01D601ED91FC910190F081E02DC60146
:101460000995892B11F47E0102C02196ECCFC701AA
:10147000DF91CF911F910F91FF90EF90DF90CF9070
:101480000895089580E090E00895FC01538D448D07
:10149000252F30E0842F90E0821B930B541710F01F
:1014A000CF96089501970895FC01918D828D98172C
:1014B00061F0828DDF01A80FB11D5D968C91928D38
:1014C0009F5F9F73928F90E008958FEF9FEF089535
:1014D000FC01918D828D981731F0828DE80FF11DFE
:1014E000858D90E008958FEF9FEF0895FC01918D19
:1014F000228D892F90E0805C9F4F821B91098F7312
:10150000992708958DE993E00E94760A21E0892BBE
:1015100009F420E0822F0895FC01848DDF01A80FDB
:10152000B11DA35ABF4F2C91848D90E001968F730B
:101530009927848FA689B7892C93A089B1898C912A
:1015400080648C93938D848D981306C00288F389F0
:10155000E02D80818F7D80830895EF92FF920F931D
:101560001F93CF93DF93EC0181E0888F9B8D8C8D4F
:10157000981305C0E889F989808185FD24C0F62E7D
:101580000B8D10E00F5F1F4F0F731127E02E8C8D16
:10159000E8120CC00FB607FCFACFE889F989808100
:1015A00085FFF5CFCE010E948C0AF1CF8B8DFE0115
:1015B000E80FF11DE35AFF4FF0820B8FEA89FB8998
:1015C0008081806207C0EE89FF896083E889F9899C
:1015D00080818064808381E090E0DF91CF911F91D2
:1015E0000F91FF90EF900895CF93DF93EC01888DDA
:1015F0008823C9F0EA89FB89808185FD05C0A88917
:10160000B9898C9186FD0FC00FB607FCF5CF80819C
:1016100085FFF2CFA889B9898C9185FFEDCFCE01E6
:101620000E948C0AE7CFDF91CF91089580E090E08F
:10163000892B29F00E94820A81110C9400000895E0
:101640000E94E0280C94B6210C94B6210C94B6218B
:101650000C94B62190910001981324C0E7ECF1E0BE
:10166000E4919FEF90930001E130B9F098F0E230FF
:10167000C9F4909170009D7F9093700091E09093D9
:10168000B0009091B100987F94609093B100109257
:10169000B30008C010926E0005C090916F009D7F4E
:1016A00090936F0060E00C94CA051F920F920FB6E2
:1016B0000F9211242F933F934F935F936F937F93D8
:1016C0008F939F93AF93BF93EF93FF938091F20219
:1016D0009091F302A091F402B091F502892B8A2B2C
:1016E0008B2B51F18091F102E091EF02F091F00229
:1016F0009081892780838091F2029091F302A091DA
:10170000F402B091F502181619061A061B06C4F465
:101710008091F2029091F302A091F402B091F5024F
:101720000197A109B1098093F2029093F302A0936B
:10173000F402B093F50204C0809100010E942A0BCC
:10174000FF91EF91BF91AF919F918F917F916F9199
:101750005F914F913F912F910F900FBE0F901F906F
:101760001895DC01ED91FC910190F081E02D099438
:10177000EF92FF920F931F93CF93DF938C017B0126
:10178000C0E0D0E0F701EC0FFD1F6491662361F02B
:10179000D801ED91FC910190F081E02DC8010995EF
:1017A000892B11F02196EECFCE01DF91CF911F91C1
:1017B0000F91FF90EF9008956115710579F0FB018D
:1017C00001900020E9F73197AF01461B570BDC0170
:1017D000ED91FC910280F381E02D099480E090E08E
:1017E00008954F925F926F927F92EF92FF920F93C4
:1017F0001F93CF93DF93CDB7DEB7A1970FB6F894C1
:10180000DEBF0FBECDBF7C01FA01CB0119A2223091
:1018100008F42AE08E010F5D1F4F422E512C612CDF
:10182000712CBF01A30192010E949928F901CA01FC
:10183000015011096A3014F4605D01C0695CD8017F
:101840006C93232B242B252B61F7B801C7010E9431
:10185000DC0BA1960FB6F894DEBF0FBECDBFDF91B3
:10186000CF911F910F91FF90EF907F906F905F90BD
:101870004F9008950F931F93CF93DF93EC010E9435
:10188000DC0B8C0161EC72E0CE010E94DC0B800F5E
:10189000911FDF91CF911F910F9108951F920F9289
:1018A0000FB60F9211242F933F934F935F936F9333
:1018B0007F938F939F93AF93BF93EF93FF938DE9A4
:1018C00093E00E948C0AFF91EF91BF91AF919F919D
:1018D0008F917F916F915F914F913F912F910F90D9
:1018E0000FBE0F901F9018951F920F920FB60F9278
:1018F00011242F938F939F93EF93FF93E091AD0368
:10190000F091AE038081E091B303F091B40382FDC6
:1019100012C090818091B6038F5F8F732091B703BF
:10192000821751F0E091B603F0E0E356FC4F958F3B
:101930008093B60301C08081FF91EF919F918F91B9
:101940002F910F900FBE0F901F90189508954F92F2
:101950005F926F927F928F929F92AF92BF92CF923F
:10196000DF92EF92FF920F931F93CF93DF93CDB748
:10197000DEB728970FB6F894DEBF0FBECDBF8C013F
:101980006A017B010E9438064B015C01F801828DDF
:10199000938DA48DB58DA5019401281B390B4A0B9D
:1019A0005B0BCA01B9010E94C7269B01AC01D8019B
:1019B00056966D937D938D939C935997F801828EE3
:1019C000938EA48EB58E1A968D919D910D90BC919B
:1019D000A02D89839A83AB83BC8386879787A08B4E
:1019E000B18BC28AD38AE48AF58A82809380A480EC
:1019F000B580C501B4010E94E3259B01AC01F8014B
:101A0000668377838087918760E070E080E89FEB52
:101A10000E94E3250E945D262B013C019B01AC0145
:101A200060E070E080E89FE30E947125A7019601C5
:101A30000E9419286D837E838F83988729813A813C
:101A40004B815C81C301B2010E9419289B01AC014A
:101A50006D817E818F8198850E9472252B013C01CA
:101A6000D8011A966D937D938D939C931D978D91BC
:101A70009C9181309105D1F14CF4892BA1F5A30102
:101A80009201C701B6010E9471252AC082309105DA
:101A9000C9F0039741F5A3019201C701B6010E9465
:101AA00071256B017C0120E034E244E759E4C50173
:101AB000B4010E94E3259B01AC01C701B6010E945D
:101AC000E3250EC020E034E244E759E4C501B40147
:101AD0000E94E3259B01AC01C301B2010E941928B9
:101AE0002B013C0103C0412C512C3201C301B20136
:101AF00028960FB6F894DEBF0FBECDBFDF91CF9111
:101B00001F910F91FF90EF90DF90CF90BF90AF901B
:101B10009F908F907F906F905F904F9008958F92DD
:101B20009F92AF92BF92CF92DF92EF92FF92CF93AC
:101B30006115710509F402C2FB01C280D380FC016A
:101B40008281C114D10409F49EC1909100019817BB
:101B500021F09F3F09F0F2C104C0E7ECF1E0C4912D
:101B60007DC080930001E7ECF1E0C491CF3F09F420
:101B7000E5C1C13029F1C23009F449C0C1116EC0BC
:101B800014BC15BC94B5926094BD95B5916095BD9B
:101B9000282F30E0F901E156FE4FE491F0E0EE0F1E
:101BA000FF1FE557FE4F459154915093E602409335
:101BB000E502F901ED54FE4FE491E093E40250C0D8
:101BC0001092800010928100909181009860909313
:101BD000810090918100916090938100282F30E0E6
:101BE000F901E156FE4FE491F0E0EE0FFF1FE557DB
:101BF000FE4F459154915093E3024093E202F90164
:101C0000ED54FE4FE491E093E102C1E029C010924F
:101C1000B0001092B1009091B00092609093B0002B
:101C20009091B10091609093B100282F30E0F901BC
:101C3000E156FE4FE491F0E0EE0FFF1FE557FE4F37
:101C4000459154915093F0024093EF02F901ED5405
:101C5000FE4FE491E093F102C2E002C0C7FD6EC105
:101C60000E943805E12CF12C8C2F8D7F09F0A0C04B
:101C700060E072E18AE790E0A70196010E94BB282C
:101C800049015A01DA01C9010197A109B1098F3F40
:101C90009105A105B10509F00CF442C060E472E4BD
:101CA0008FE090E0A70196010E94BB28DA01C901EC
:101CB0000197A109B109C230E1F48F3F9105A10557
:101CC000B10509F00CF438C160E970ED83E090E0F3
:101CD000A70196010E94BB28DA01C9010197A10959
:101CE000B1098F3F9105A105B10509F08CF523E0FD
:101CF00058C08F3F9105A105B105A1F09CF068E4A3
:101D000078EE81E090E0A70196010E94BB28DA01FD
:101D1000C9010197A109B109CC2309F4EFC0E6C0BC
:101D200021E001C022E0CC2371F03BC0D501C40109
:101D30002AE0B595A795979587952A95D1F70197AC
:101D4000A109B10925E035B5387F232B25BD61C038
:101D500068E478EE81E090E0A70196010E94BB283C
:101D6000DA01C9010197A109B1098F3F9105A105C8
:101D7000B10509F00CF492C064E274EF80E090E0E9
:101D8000A70196010E94BB28DA01C9010197A109A8
:101D9000B1098F3F9105A105B10511F008F080C090
:101DA00025E03091B100387F232B2093B1002BC068
:101DB00060E072E18AE790E0A70196010E94BB28EB
:101DC000DA01C9010197A109B1090097F1E0AF0754
:101DD000B10514F431E00EC068E478EE81E090E0E3
:101DE000A70196010E94BB28DA01C9010197A10948
:101DF000B10933E0C13039F420918100287F232BD1
:101E00002093810018C0C130B1F0C23049F1C11136
:101E100095C087BD8FEF9FEFDC018093EB0290931D
:101E2000EC02A093ED02B093EE0280916E0082600E
:101E300080936E0083C090938900809388008FEF19
:101E40009FEFDC018093E7029093E802A093E90200
:101E5000B093EA0280916F00826080936F006EC041
:101E60008093B3008FEF9FEFDC018093F202909399
:101E7000F302A093F402B093F502809170008260A7
:101E8000809370005BC0CF91FF90EF90DF90CF9078
:101E9000BF90AF909F908F900C942A0B24E081CF3D
:101EA00062E17AE780E090E0A70196010E94BB28FA
:101EB000DA01C9010197A109B1098F3F9105A10577
:101EC000B10591F088F0D501C4013AE0B595A79528
:101ED000979587953A95D1F70197A109B109CC2338
:101EE00009F430CF27E05DCF26E01DCF8F3F91056D
:101EF000A105B10509F0A4F624E015CF8F3F9105A7
:101F0000A105B105B9F0B4F062E17AE780E090E0B4
:101F1000A70196010E94BB28DA01C9010197A10916
:101F2000B1098F3F9105A105B10511F008F0FECE72
:101F300024E009CF23E007CF22E033CFCF91FF90F9
:101F4000EF90DF90CF90BF90AF909F908F900895CB
:101F500008954F925F926F927F928F929F92AF926D
:101F6000BF92CF92DF92EF92FF920F931F93CF9386
:101F7000DF931F92CDB7DEB77C012B01FC0184817A
:101F800095816C01FFEFCF1ADF0A8C159D0508F0D3
:101F90006EC0F701228133812C153D05F0F50996BD
:101FA00028173907D0F5808091809383828327E0BA
:101FB000AC01249FC001259F900D11240E94212176
:101FC000F701918380835401612C712CF701848186
:101FD000958168167906F0F4F70120813181C501F9
:101FE00088199909820F931F009751F08E010F5F96
:101FF0001F4F2FEF3FEF40E050E0B5010E949313D9
:10200000C5010E94E203FFEF6F1A7F0A27E0A20ECC
:10201000B11CDCCFC4010E94B621F701A480B580B9
:1020200087E08A9D30018B9D700C1124812C912CAE
:10203000F701AC14BD0408F040C020813181C40117
:10204000860D971D820F931F009751F08E010F5F31
:102050001F4F2FEF3FEF40E050E0B2010E9493137B
:10206000FFEFAF1ABF0A27E0820E911CE1CFC8161E
:10207000D90628F527E0289F3001299F700C1124EC
:102080005601812C912CF7E06F0E711CF7018481B1
:102090009581A816B90688F4C301880D991DF7012A
:1020A00020813181820F931F0E94E203FFEFAF1A5C
:1020B000BF0A27E0820E911CE9CFD582C4820F901F
:1020C000DF91CF911F910F91FF90EF90DF90CF9014
:1020D000BF90AF909F908F907F906F905F904F9048
:1020E0000895CF92DF92EF92FF920F931F93CF93B9
:1020F000DF931F92CDB7DEB78C01FB01E480F58042
:10210000E416F50610F40E94E028E41AF50A2E15EC
:102110003F0508F47901C080D180C40ED51E88E047
:1021200090E0F80193838283158214820E9421211A
:10213000F80191838083FFEFEF16FF0621F3F6018C
:102140008081181684F41982AE014F5F5F4FB7018A
:10215000C8010E948603F80144815581B60180813F
:1021600091810E94E703C8010F90DF91CF911F91E9
:102170000F91FF90EF90DF90CF900895089522E4A3
:1021800032E0DC012D933C938091D9029091DA02E8
:10219000009739F0DC01ED91FC910280F381E02D94
:1021A00009940895CF93DF93EC010E94BF10CE01F4
:1021B000DF91CF910C94B621CF93DF93EC01ADA5C5
:1021C000BEA5109761F0ED91FC9111970680F78103
:1021D000E02D4CA5BC01CD01DF91CF910994DF9199
:1021E000CF910895089508950895CF93DF936115D1
:1021F000710509F45FC0FB01C081CF3F11F461E0BC
:1022000003C0C11104C060E0FC0182814FC0FC0129
:10221000D2818D2F0E943805ED2FF0E0E958FE4F56
:10222000E491E33009F148F4E130C9F0E230C1F55E
:1022300084B5806284BDC8BD3DC0E73009F1E83097
:1022400039F1E43069F580918000806280938000EC
:102250008C2F90E090938B0080938A002BC084B5E4
:10226000806884BDC7BD26C080918000806880934F
:1022700080008C2F90E090938900809388001AC092
:102280008091B00080688093B000C093B30012C00A
:102290008091B00080628093B000C093B4000AC007
:1022A000C03810F460E001C061E08D2FDF91CF9164
:1022B0000C94CA05DF91CF9108950C94B6210C942B
:1022C000B621FC01118A83819481908B87871686C1
:1022D000158660E082810C94CA058F929F92AF921E
:1022E000BF92CF92DF92EF92FF920F931F93CF9303
:1022F000DF93FC012189223009F060C0EC010E94CB
:1023000094062D853E856901E12CF12C09851A85FD
:102310002B853C8546015701801A910AA20AB30A0F
:10232000DC01CB01880D991DAA1DBB1DEF85F88925
:102330004181528160E070E084179507A607B707D6
:10234000E8F11E861D860E94940669877A878B872E
:102350009C87EF85F889638174816115710579F433
:102360008F819885019698878F832D813E812115D5
:10237000310519F0821793079CF46B817C81788B6F
:102380006F87CE01DF91CF911F910F91FF90EF905A
:10239000DF90CF90BF90AF909F908F900C94F510EE
:1023A000188A1F86CE010E9461112F8138858D8188
:1023B0009E812817390711F418861F82DF91CF916B
:1023C0001F910F91FF90EF90DF90CF90BF90AF9053
:1023D0009F908F900895CF93DF93FC018381948128
:1023E000892BC9F081898230B1F0811104C0168631
:1023F000158610861782EF010E94940669877A87F6
:102400008B879C8782E0898B6F857889CE01DF91ED
:10241000CF910C94F510DF91CF910895CF93DF9376
:10242000EC018A819B810E94F6028A819B810E9435
:10243000400381E0888B0E94940669877A878B87A6
:102440009C8782ED91E0DF91CF910C944704CF936C
:10245000DF93CDB7DEB72A970FB6F894DEBF0FBE75
:10246000CDBFFC0181899289009741F1DB01FC011C
:1024700020813181F901448155812CE031E03A839A
:10248000298312962D913C9113973C832B831496AC
:102490002D913C9115973E832D8316962D913C915D
:1024A000179738872F8318962D913C9119973A8763
:1024B0002987BE016F5F7F4FFA0109952A960FB6F3
:1024C000F894DEBF0FBECDBFDF91CF910895CF93BB
:1024D000DF93EC010E9494066D837E838F8398873F
:1024E000DF91CF9108957F928F929F92AF92BF928A
:1024F000CF92DF92EF92FF920F931F93CF93DF93D0
:10250000CDB7DEB72A970FB6F894DEBF0FBECDBFAA
:10251000FC017684772009F488C0C72EB62E8C0182
:102520008089811103C0CF010E940E1268EC71E016
:102530008DE993E00E94B80B6B2D7C2D8DE993E023
:102540000E943A0CF801828193810E940B03F801EA
:10255000E280F380F7019781A92E913110F080E19C
:10256000A82EF7018085811103C0D92EDA1801C089
:10257000D12CC7010E945F0280EA0E9462028B2C6C
:102580009C2CAA94FFEFAF1631F0F40181914F011A
:102590000E946202F6CFDD2029F080E00E946202F4
:1025A000DA94F9CFC7010E945C0261E0C7010E9482
:1025B0003802C7010E945F028FEF0E946202D82E8C
:1025C000C7010E945C028D2D807399F360E0C70102
:1025D0000E94380240E767E0C7010E947B0284FF47
:1025E00004C0C7010E946902712C8CE091E09A83BB
:1025F00089831A8619861C830B838CE590E0988763
:102600008F83BD82CE82BE016F5F7F4FC8010E9463
:102610002712F801828193810E9440030E94940650
:10262000F8016187728783879487872D2A960FB672
:10263000F894DEBF0FBECDBFDF91CF911F910F91F8
:10264000FF90EF90DF90CF90BF90AF909F908F90D2
:102650007F900895EF92FF920F931F93CF93DF9394
:10266000CDB7DEB764970FB6F894DEBF0FBECDBF0F
:102670007C0181E493E4ABE4B0E0898B9A8BAB8B73
:10268000BC8B9E012F5E3F4F3F932F932DE832E08E
:102690003F932F938E010F5F1F4F1F930F930E9445
:1026A000F328B801C7010E9473120F900F900F908A
:1026B0000F900F900F9064960FB6F894DEBF0FBE88
:1026C000CDBFDF91CF911F910F91FF90EF900895B3
:1026D0008091F6029091F702892B01F583E190E059
:1026E0000E942121FC018AE592E09183808313827C
:1026F0001282148215821682178210861186128623
:102700001386148684E085871686178681E0808B81
:10271000128A118AF093F702E093F6028091F60292
:102720009091F7020895AF92BF92CF92DF92EF920D
:10273000FF920F931F93CF93DF931F92CDB7DEB716
:102740008C016B017A01590188E090E0F8019383D4
:102750008283158214820E942121F8019183808353
:10276000F601848195818E159F0510F40E94E02862
:102770001982BC016E197F09A616B70608F4B501C7
:10278000AE014F5F5F4FC8010E948603F80144818C
:102790005581F601608171816E0D7F1DF801808188
:1027A00091810E94E7030F90DF91CF911F910F91CC
:1027B000FF90EF90DF90CF90BF90AF90089526EFFD
:1027C00031E0FC0121933193CF010C94E203CF93CC
:1027D000DF93EC010E94DF13CE01DF91CF910C94C7
:1027E000B6210F931F93CF93DF93EC018A81882347
:1027F00009F447C09B8196FB882780F9861709F466
:1028000040C06623C9F090649B8397FD3AC08E0157
:102810000A5E1F4FC8010E946111FE01E05BFF4F7D
:1028200020813181898D9A8D8217930719F13A8F12
:10283000298F3EA32DA31EC09F7B9B8397FD21C0A4
:102840008E010A5E1F4FC8010E9461118B8185FFB6
:1028500018C0C8010E946111FE01EE5AFF4F80812D
:102860009181298D3A8D2817390721F09A8F898F08
:102870009EA38DA3C801DF91CF911F910F910C945E
:10288000EB11DF91CF911F910F9108951F920F923D
:102890000FB60F9211242F933F938F939F93AF9373
:1028A000BF938091D1029091D202A091D302B091B6
:1028B000D4023091B80423E0230F2D3720F4019681
:1028C000A11DB11D05C026E8230F0296A11DB11D53
:1028D0002093B8048093D1029093D202A093D302A4
:1028E000B093D4028091D5029091D602A091D702E4
:1028F000B091D8020196A11DB11D8093D50290938D
:10290000D602A093D702B093D802BF91AF919F9106
:102910008F913F912F910F900FBE0F901F901895A0
:10292000089508950C94B62102970C94921404977C
:102930000C9492144F925F926F927F928F929F921B
:10294000AF92BF92EF92FF920F931F93CF93DF93BB
:10295000CDB7DEB764970FB6F894DEBF0FBECDBF1C
:10296000DC0118962D913C9119976217730709F0B5
:102970003CC1FB017C01A380B480FC01028513856E
:10298000F6E0AF16B104E0F1D80112968C911297DF
:10299000882349F113968C91139787FD24C0806892
:1029A00013968C934801B6E18B0E911CC4010E94D2
:1029B0006111F801E25BFF4F20813181F801818DC7
:1029C000928D8217930721F0328F218F36A325A392
:1029D000C4010E94EB11C80188960E946111C801D0
:1029E00004960E946111D7011696ED91FC911797FC
:1029F00081E082831C96ED91FC911D97178674C02F
:102A0000F8018281882309F462C0838187FF5FC057
:102A10008F7783834801F6E18F0E911CC4010E94D9
:102A20006111D80113968C9182FF19C03801B4E06E
:102A30006B0E711CC3010E946111F801E45BFF4F32
:102A400020813181F801878190858217930721F0D9
:102A500030872783348B238BC3010E94EB11D8016D
:102A600013968C9184FF19C03801B8E26B0E711C6B
:102A7000C3010E946111F801EE5AFF4F208131819C
:102A8000F80183A594A58217930721F034A723A703
:102A900030AF27ABC3010E94EB11D80113968C9184
:102AA00086FF15C0C4010E946111F801E05BFF4F71
:102AB00080819181F801218D328D2817390721F00D
:102AC000928F818F96A385A3C4010E94EB11D70139
:102AD0001696ED91FC91179782E082831C96ED91FA
:102AE000FC911D9781E0878788E496E5A1E3B0E03B
:102AF000898B9A8BAB8BBC8B2501612C712CC3010C
:102B0000B2010E94C5262DE73FE345E550E40E944F
:102B1000192821ED3BEC48EE5DE30E94E3250E947D
:102B200096264B015C019F926F93CE0141969F9335
:102B30008F9384E892E09F938F938E010F5F1F4FD6
:102B40001F930F930E94F328B801F70184859585A0
:102B50000E9473126AEA70E08DE993E00E94B80B5C
:102B60002AE0B301A2018DE993E00E94F10B6FE925
:102B700070E08DE993E00E94B80BD7011896ED91B3
:102B8000FC9119976381748180E090E00E94C526D2
:102B90002DE73FE345E550E40E94192820E030ECA2
:102BA0004FE754E40E94E32520E030E0A9010E94B1
:102BB000722542E00E945A0460E970E08DE993E0DA
:102BC0000E94B80BA40160E070E02AE08DE993E078
:102BD0000E94F10B67E972E08DE993E00E943A0CE4
:102BE0000FB6F894DEBF0FBECDBF64960FB6F89453
:102BF000DEBF0FBECDBFDF91CF911F910F91FF9030
:102C0000EF90BF90AF909F908F907F906F905F906C
:102C10004F90089502970C949A148F929F92AF92BE
:102C2000BF92CF92DF92EF92FF920F931F93CF93B9
:102C3000DF93CDB7DEB7EC970FB6F894DEBF0FBECB
:102C4000CDBFFB0142815381FC01248535854217AC
:102C5000530709F0E5C1FB01DC01268137812A35E4
:102C6000310509F4DDC02B35310509F0D9C1E48007
:102C7000F5806AEB70E08DE993E00E94B80BB70134
:102C80008DE993E00E943A0C8E010F5F1F4FA8015F
:102C9000B701CE01C4960E940A0438E0E32EF12C5D
:102CA000F8AAEFA61AAA19AA88E090E00E942121AA
:102CB0009EA78DA7F9A6E8A61BA61AA688E390E012
:102CC0000E9421219FA38EA3C0906804D090690424
:102CD000E0916404F0916504ACA9BDA9CF018C0D0D
:102CE0009D1DE817F90709F4D2C031912D913217D3
:102CF000C1F34FC08CAF6BA17CA16F5F7F4FAE0162
:102D0000445C5F4FCE014F960E948603FFEFCF1ABF
:102D1000DF0A28AD39AD8CA99DA9820F931FE81653
:102D2000F90649F0F70181917F018D3319F7C1143C
:102D3000D10409F0B9C02BA13CA12115310529F11D
:102D40002150310941E050E0BE01615E7F4FC80172
:102D50000E947110E9A8FAA86D817E816E0D7F1D19
:102D6000188EAE01485E5F4FCE018D960E9486039D
:102D70004D815E8169817A818DA59EA58E0D9F1DF5
:102D80000E94E703C8010E94E203CE014F960E9411
:102D9000E20367E874E0CE018D960E941D01892B45
:102DA000F9F481E493E4A2E5B0E0898B9A8BAB8BD4
:102DB000BC8BCE0141969F938F938DE892E09F93B9
:102DC0008F931F930F930E94F3280E946813B801FA
:102DD0000E9473120F900F900F900F900F900F9012
:102DE000E12CF12C00E010E02AA53BA58EA19FA1CB
:102DF0000217130750F48E0D9F1D0E94E2030F5F10
:102E00001F4F27E0E20EF11CEFCF0E94B621CE014A
:102E10008D960E94E203CE01C4960E94E20300C197
:102E20000480F581E02D20811A960D911C911B974D
:102E3000F8018281882309F4F3C09381A801485DD9
:102E40005F4F7A0121111CC090619383CA010E94D7
:102E50006111F801EE5AFF4F80819181F80123A59D
:102E600034A52817390721F094A783A790AF87AB23
:102E7000F801838187FDD4C0C7010E94EB11D0C047
:102E80009F7EF8019383CA010E946111C9C0A80105
:102E900063EC72E0CE014F960E940A04ECA8FDA8F4
:102EA000F2E0EF0EF11C35CF4FEFC41AD40A2150D7
:102EB0003109A601BE016C5C7F4FCE0148960E948D
:102EC0007110AE01455C5F4F67E071E0CE01419645
:102ED0000E940A042D893E898C8D9D8D821793074F
:102EE00020F4EE24EA94FE2C21C001965C01A21A83
:102EF000B30AE12CF12CEA14FB0499F32D893E89E5
:102F0000A701BE01685E7F4FC8010E947110B80121
:102F1000CE0141960E941D014C01C8010E94E203AE
:102F2000892821F05FEFE51AF50AE5CFCE01419639
:102F30000E94E203EF20E09409F45AC08C8D9D8D2D
:102F4000E88DF98DE12CF12CE816F90651F021916C
:102F50002C3219F4C12CD12C18C02FEFE21AF20A2E
:102F6000F3CFEE24EA94FE2CF5CFEFEFEE1AFE0A33
:102F7000E216F30658F5FC01EE0DFF1D60816C3280
:102F8000A1F76FEFE616F60609F1FFEFEF16FF0661
:102F900009F441C097012C193D09A601BE01685EE4
:102FA0007F4FC8010E947110B801CE0186960E9421
:102FB000A90FC8010E94E203A7014F5F5F4F6A019A
:102FC0002C8D3D8D888D998D7A01D2CFBE01685EA2
:102FD0007F4FC8010E947110B801CE0186960E94F1
:102FE000A90FC8010E94E203EE24EA94FE2CCDCF83
:102FF00028AD39AD21503109A601BE016C5C7F4F6F
:10300000C8010E947110B801CE0186960E94A90FD6
:10301000C8010E94E203CE0148960E94E2038BCED3
:10302000EC960FB6F894DEBF0FBECDBFDF91CF9107
:103030001F910F91FF90EF90DF90CF90BF90AF90D6
:103040009F908F90089504970C940D16CF93DF9363
:10305000CDB7DEB7E2970FB6F894DEBF0FBECDBF97
:10306000789484B5826084BD84B5816084BD85B563
:10307000826085BD85B5816085BD80916E0081606F
:1030800080936E0010928100809181008260809315
:103090008100809181008160809381008091800017
:1030A0008160809380008091B10084608093B10042
:1030B0008091B00081608093B00080917A0084603C
:1030C00080937A0080917A00826080937A00809168
:1030D0007A00816080937A0080917A008068809382
:1030E0007A001092C10086E00E94380588E00E94B4
:1030F000380587E00E94380585E00E943805E09198
:10310000AD03F091AE0382E08083E091A903F091DA
:10311000AA031082E091AB03F091AC0380E18083BD
:103120001092B503E091B103F091B20386E0808381
:10313000E091AF03F091B003808180618083E091E2
:10314000AF03F091B003808188608083E091AF038A
:10315000F091B003808180688083E091AF03F091AB
:10316000B00380818F7D80838FE491E00E944704CB
:103170008CEB9CE6ABE1B7E480934303909344036C
:10318000A0934503B093460381E0809366030091CA
:103190002603109127038EE093E0D80113969C93A9
:1031A0008E93129780910E0390910F03209110033C
:1031B000309111038217930711F00E943805809116
:1031C00010039091110320910E0330910F032817E3
:1031D000390711F00E943805FFB6F8948091D002AB
:1031E000811124C0E9EAF1E08491EDEBF1E09491E2
:1031F000E82FF0E0EE0FFF1FEB56FE4FA591B491C4
:10320000EC91E92321F461E08AE00E94CA058AE09A
:103210000E9438058CB580618CBD8CB580648CBDF6
:103220008DE00E9438058BE00E9438058091D00225
:103230008F5F8093D002FFBE60E08EE093E00E943B
:10324000380261E08EE093E00E9444020E945D0635
:103250004CE060E08EE093E00E947B024FE564E08A
:103260008EE093E00E947B0282E090E00E948E0557
:10327000882319F081E08093140366E08EE093E0E8
:103280000E94D602F82E80E090E00E948E058EE02B
:1032900093E00E945F0280E50E94620283E70E9441
:1032A00062028EE093E00E945C0240E06DE18EE0FD
:1032B00093E00E947B0240E06CE18EE093E00E948C
:1032C0007B021092160340E767E08EE093E00E94D5
:1032D0007B024CE465E08EE093E00E947B028EE08E
:1032E00093E00E945F0282EE0E9462028EE093E011
:1032F0000E945C028EE093E00E9469028EE093E0FF
:103300000E94F60260E08EE093E00E94D602482F11
:103310004E7F60E08EE093E00E947B028FEF8F0D86
:103320008E3F08F08AC04FEF64E08EE093E00E9489
:103330007B0240E06DE18EE093E00E947B0240E082
:103340006CE18EE093E00E947B021092160380E114
:103350008093150382E08BA31CA21DA21EA21FA2B4
:1033600018A619A61AA620911C03AE014D5D5F4F49
:103370006AE08EE093E00E949F0220911C03AE0160
:103380004D5D5F4F60E18EE093E00E949F024091AF
:10339000150361E18EE093E00E947B02FF24F39429
:1033A000FB8E1C8E1D8E1E8E1F8E18A219A21AA2B5
:1033B000E3E2F1E0649120911C03AE01455E5F4FB2
:1033C0008EE093E00E949F02EDE1F1E06491409174
:1033D00015038EE093E00E947B0262E08EE093E0B2
:1033E0000E94D602E7E1F1E0E49141E050E001C043
:1033F000440FEA95EAF7482B62E08EE093E00E94E2
:103400007B0266E08EE093E00E94D602887F482F20
:10341000416066E08EE093E00E947B0282E090E0F3
:103420000E948E058EE093E00E944003F801F6862C
:1034300084E391E00E94470407C088E291E00E9483
:103440004704D8011E961C92C8010E946712E091A1
:103450002603F091270381E08787E0916903F091CB
:103460006A0382E08283F0933303E0933203A091F6
:103470003403B091350323E0AC33B20791F01097D9
:1034800021F09C961C921E929B978EE293E0909363
:103490006803809367038CE393E0909335038093F4
:1034A0003403309721F08CE293E096A785A7E09152
:1034B0003403F0913503309721F08EE293E094A726
:1034C00083A7E0913803F0913903309721F080E32E
:1034D00093E0928B818B0091360310913703011595
:1034E000110579F1D80112968C911297882319F160
:1034F00013968C91139782FD1EC0846013968C9353
:1035000087FD19C07801B4E0EB0EF11CC7010E94E1
:103510006111F801E45BFF4F20813181F80187815F
:1035200090858217930721F030872783348B238B74
:10353000C7010E94EB11E0913603F091370381E05F
:103540008283E0913203F091330364A580913603C6
:10355000909137030E94F1130E9494066093F80241
:103560007093F9028093FA029093FB0260E471E099
:103570008DE993E00E94B80B8091B9049091BA0450
:103580009E012F5F3F4F7901B901681B790B8DE9CF
:1035900093E00E9457057CE0272E71E0372EEAE584
:1035A0004E2E512C0E9494060091F8021091F902BF
:1035B0002091FA023091FB02DC01CB01801B910BC0
:1035C000A20BB30B883B9B40A105B105DCF00E9428
:1035D00094066093F8027093F9028093FA02909334
:1035E000FB0268E671E08DE993E00E94B80B8091E0
:1035F000B9049091BA04B701681B790B8DE993E087
:103600000E94570580916603882309F458C00E94E0
:10361000940600916103109162032091630330913D
:103620006403AB01BC01401B510B620B730B809117
:103630005F0390916003A0E0B0E0481759076A0764
:103640007B07E8F180913E030E941606BC01990FAA
:10365000880B990B0E94C726AB01BC0181E493E063
:103660000E94A70C0E94962620913F0330914003B0
:1036700026173707D1F07093400360933F033CA7B0
:103680002BA78091670390916803009771F0DC018C
:10369000ED91FC910480F581E02D9E01255D3F4F69
:1036A00040E050E06CE373E009950E94940660935B
:1036B00061037093620380936303909364030091AA
:1036C000690310916A03F8018281823009F064C0B5
:1036D0000E949406D80113968D909D90AD90BC9059
:1036E0001697DC01CB0188199909AA09BB09811534
:1036F0009440A105B10508F44FC08EE00E94160663
:1037000097FD0396BC017595679575956795072E8E
:10371000000C880B990B0E94C726AB01BC01C801A5
:103720000B960E94A70C0E948F26AB01440F551FD9
:10373000440F551FF801878190858417950719F16B
:10374000D80118965C934E9317979D968D919C91F6
:103750009E97009741F0DC01ED91FC910480F5818A
:10376000E02DB8010995F80124A5878190852223D1
:1037700009F4D1C18935934030F0D8019C961C9250
:10378000C8010E94DC100E949406D80113966D9324
:103790007D938D939C93169700912A0310912B0390
:1037A000F8018281882309F49AC098012F5B3F4F6A
:1037B0003AAB29ABD9018C91823009F084C00E94C8
:1037C00094069801285B3F4F38AB2FA7D9012D9164
:1037D0003C9140E050E05801B4E4AB0EB11CF5015F
:1037E00060807180828093802619370948095909C1
:1037F00039014A01660E771E881E991E68012AE467
:10380000C20ED11CD601ED91FC9184819581A0E07E
:10381000B0E0681679068A069B0608F454C03801A1
:10382000BAE36B0E711CEFA5F8A9118210820E94F9
:103830009406D5016D937D938D939C931397D60138
:10384000ED91FC9111976681778161157105D9F42D
:103850005801B2E4AB0EB11CF501208131812F5F1C
:103860003F4F318320834801FFE38F0E911CD40129
:103870008D919C91F80165AD76AD009719F02817F0
:1038800039073CF4D6016D937C93C3010E948F0DE0
:103890001AC0E9A9FAA91082D6016D937C93EFA50D
:1038A000F8A911821082D801DC968C910E942A0B13
:1038B000F50120813181D4018D919C912817390720
:1038C00011F411821082C80104960E946D11C80182
:1038D00046960E946D11C80188960E946D11009154
:1038E000260310912703F8018685882309F410C167
:1038F00067E1828193810E94D60280FF15C14DC08D
:10390000C6010E945C0240E767E0C6010E947B029C
:1039100050E3652E698AC8010E946712E4E0D8016D
:103920001D96EC931D9714968C911497811119C0D4
:10393000F1E01496FC93FEA73A8A298A1A8E198E12
:103940001C8B0B8B588E4F8A4EE2642E712C6C0EA2
:103950007D1E7E8A6D8ABE016F5E7F4FC8010E9408
:1039600027123A8A298A1A8E198E1C8B0B8B3BE5FB
:10397000832E912C988E8F8AFE8AED8ABE016F5E0F
:103980007F4FC8010E9427120E949406D801199601
:103990006D937D938D939C931C970E949406F801E0
:1039A00085809680A780B0842685222309F468C08C
:1039B0009B01AC01281939094A095B0949015A01DF
:1039C0008585811102C060E01CC0813091F4253FE3
:1039D00031404105510508F442C061E0C8010E9430
:1039E0002A13C8010E946712F80185858F5F8587B9
:1039F00036C0823051F4253F31404105510578F100
:103A000062E0C8010E942A1320C0833041F5253F9F
:103A100031404105510518F1F80184818823A9F04E
:103A200014821DA63A8229821A8619861C830B836A
:103A300058864F822DE2622E712C6C0E7D1E7E8286
:103A40006D82B701C8010E942712C8010E94671247
:103A5000D8011D968C911D978F5F1D968C93F80150
:103A60008585843069F4F9EF8F16FAE29F06A10488
:103A7000B10430F0D8011D961C92C8010E94671253
:103A8000F8018785882309F443C08685882309F4D3
:103A90003FC00E949406D80119968D909D90AD90DC
:103AA000BC901C979B01AC01281939094A095B0994
:103AB00049015A0150968C91882331F1F1EB8F1610
:103AC000F4E09F06A104B104F8F0D80112968D919C
:103AD0009C9113970E940B03F801C280D38060E091
:103AE000C6010E94380260E0C6010E94D602482F3B
:103AF0004D7F60E0C6010E947B02D80150961C9267
:103B000088E591E00E944704F80180898823E1F16B
:103B10000E94160B47CD8F34934008F034CE6624B4
:103B20006394F80164A62CCED8011296CD90DC9057
:103B30001397F6018781803128F160E1862ED60146
:103B400018969C91911103C0982E981801C0912C41
:103B5000C6010E945F0281E60E94620257018A94B8
:103B6000FFEF8F1639F08FEF0E946202F50181930B
:103B70005F01F5CF992009F4C3CE8FEF0E94620256
:103B80009A94F8CF882EDBCFFDE18F16F5E29F06E1
:103B9000A104B10408F4BCCFC8010E940E12D801E0
:103BA00012968D919C9113970E944003B1CF0F9371
:103BB0001F93CF93DF931F92CDB7DEB70DE913E0CC
:103BC0001092A00310929F0388EE93E0A0E0B0E073
:103BD0008093A1039093A203A093A303B093A403A3
:103BE0008CE391E090939E0380939D0385EC90E09D
:103BF0009093AA038093A90384EC90E09093AC0384
:103C00008093AB0380EC90E09093AE038093AD0380
:103C100081EC90E09093B0038093AF0382EC90E04E
:103C20009093B2038093B10386EC90E09093B40339
:103C30008093B3031092B6031092B7031092B803A7
:103C40001092B903AE014F5F5F4F63E972E081EB01
:103C500094E00E940A04AE014F5F5F4F66E972E094
:103C60008AEA94E00E940A04AE014F5F5F4F69E95F
:103C700072E083EA94E00E940A04AE014F5F5F4F56
:103C80006EE972E08CE994E00E940A04AE014F5F95
:103C90005F4F62EA72E085E994E00E940A04AE0197
:103CA0004F5F5F4F66EA72E08EE894E00E940A047C
:103CB000AE014F5F5F4F6AEA72E087E894E00E94CE
:103CC0000A04AE014F5F5F4F6EEA72E080E894E055
:103CD0000E940A04AE014F5F5F4F62EB72E089E71A
:103CE00094E00E940A04AE014F5F5F4F66EB72E002
:103CF00082E794E00E940A04AE014F5F5F4F6AEBD7
:103D000072E08BE694E00E940A04AE014F5F5F4FC1
:103D10006EEB72E084E694E00E940A04E1E2F0E0D7
:103D2000F0935204E09351041092530410925404FF
:103D30001092550446E050E060E070E04093560475
:103D400050935704609358047093590410925A0486
:103D500010925B0410925C0410925D0420E22093A8
:103D60005E041092600410925F04109263048CE36E
:103D700094E090936204809361048CED91E09093C1
:103D80003B0480933A0486EE91E090934F04809335
:103D90004E041092400410923F041092420410927C
:103DA000410410924404109243041092460410926D
:103DB0004504109248041092470410924A0410924D
:103DC00049048AEB91E090933D0480933C04109366
:103DD0004D0400934C0430E130934B04F0938B037B
:103DE000E0938A0310928C0310928D0310928E033D
:103DF00040938F03509390036093910370939203C9
:103E000010929303109294031092950310929603CC
:103E100020939703109299031092980310929C0399
:103E20001092710310927203109273031092740334
:103E300025E733E030939B0320939A0324E631E097
:103E40003093700320936F032EE631E030938803A4
:103E500020938703109279031092780310927B03CA
:103E600010927A0310927D0310927C0310927F03CC
:103E700010927E03109281031092800310928303AC
:103E800010928203909376038093750310938603B8
:103E90000093850388E08093840310926E03109250
:103EA0006D0310936C0300936B0362EB77E08AEC75
:103EB00097E00E944E2290936E0380936D03809151
:103EC000DD029091DE02892B09F040C08FE290E084
:103ED0000E9421218C018AE492E0F8019183808381
:103EE000128213821482158216821086178212861D
:103EF000118681E090E0948783878BEE97E4A2ECB3
:103F0000B9E485879687A787B08B80E090E0ACEC1A
:103F1000B2E4858B968BA78BB08F818F928FA38F06
:103F2000B48F858F968FA78FB0A30E943806F801B3
:103F300065A376A387A390A712A611A613A614A61D
:103F400016A615A61093DE020093DD028091DD0215
:103F50009091DE0290936A038093690382E792E076
:103F600090933D0380933C038FE080933E03109237
:103F7000400310923F0381E090E0909342038093CE
:103F8000410384E991EFA6E4B5E480934303909361
:103F90004403A0934503B093460310924B03109241
:103FA0004C0310924D0310924E0310924F03109247
:103FB0005003109251031092520310925303109227
:103FC000540310925503109256030E9438066093D2
:103FD0005B0370935C0380935D0390935E0380E8C2
:103FE00090E09093600380935F03109261031092BE
:103FF0006203109263031092640381E0809365036F
:104000008093660310926803109267038091D9022F
:104010009091DA02892BE1F483E090E00E94212163
:104020008C0182E492E0F8019183808382E08283B4
:1040300084E00E943805F8018281882329F01282E9
:1040400060E084E00E94CA051093DA020093D9026E
:104050008091D9029091DA0290933B0380933A03C6
:1040600088E092E090932D0380932C0388E192E006
:1040700090932F0380932E0382E292E0909331037A
:104080008093300310923303109232031092350361
:10409000109234030E9403099093370380933603F0
:1040A0000E94681390933903809338030E94030998
:1040B00090932B0380932A038091DB029091DC0282
:1040C000892BC9F489E090E00E9421218C0186EFC0
:1040D00091E0F8019183808388E090E09583848368
:1040E000178216820E942121F80193838283109304
:1040F000DC020093DB028091DB029091DC02909362
:104100002903809328030E946813909327038093C8
:10411000260389E090E090930F0380930E038AE0DA
:1041200090E090931103809310031092140380E2A7
:10413000809315031092160385E080931C0345E0DD
:1041400050E060E070E040932203509323036093BB
:10415000240370932503109217032AE632E030936C
:10416000FD022093FC028093FE0210920003109245
:10417000FF021092020310920103109203031092A7
:104180000503109204031092060310920703109285
:1041900008031092090310920B0310920A03109265
:1041A0000D0310920C030E9438050E949406609340
:1041B000F8027093F9028093FA029093FB020F9039
:1041C000DF91CF911F910F9108958CE293E00E94AF
:1041D0001C018FE693E00E9414088AE394E00E9499
:1041E000620884E694E00E94E2038BE694E00E9479
:1041F000E20382E794E00E94E20389E794E00E94F0
:10420000E20380E894E00E94E20387E894E00E94E1
:10421000E2038EE894E00E94E20385E994E00E94C4
:10422000E2038CE994E00E94E20383EA94E00E94B6
:10423000E2038AEA94E00E94E20381EB94E00C94AA
:10424000E203CF93DF938230910510F482E090E097
:10425000E091BB04F091BC0420E030E0C0E0D0E08D
:10426000309711F14081518148175907C0F0481724
:10427000590761F482819381209719F09B838A8387
:104280002BC09093BC048093BB0426C0211531053C
:1042900019F04217530718F49A01BE01DF01EF012C
:1042A0000280F381E02DDCCF2115310509F1281BB7
:1042B000390B2430310590F412968D919C9113970F
:1042C0006115710521F0FB019383828304C09093F3
:1042D000BC048093BB04FD01329644C0FD01E20F93
:1042E000F31F81939193225031092D933C933AC04F
:1042F0002091B9043091BA04232B41F42091030199
:10430000309104013093BA042093B9042091010143
:10431000309102012115310541F42DB73EB740918E
:10432000050150910601241B350BE091B904F09171
:10433000BA04E217F307A0F42E1B3F0B2817390726
:1043400078F0AC014E5F5F4F2417350748F04E0FF1
:104350005F1F5093BA044093B9048193919302C0B4
:10436000E0E0F0E0CF01DF91CF9108950F931F932C
:10437000CF93DF93009709F48CC0FC01329713822E
:1043800012820091BB041091BC040115110581F447
:1043900020813181820F931F2091B9043091BA049A
:1043A0002817390779F5F093BA04E093B90471C07E
:1043B000D80140E050E0AE17BF0750F412962D919F
:1043C0003C911397AD012115310509F1D901F3CFC6
:1043D0009D01DA013383228360817181860F971FEB
:1043E0008217930769F4EC0128813981260F371F62
:1043F0002E5F3F4F318320838A819B819383828309
:10440000452B29F4F093BC04E093BB0442C01396FF
:10441000FC93EE931297ED01499159919E01240F5F
:10442000351FE217F30771F480819181840F951F86
:10443000029611969C938E938281938113969C93FE
:104440008E931297E0E0F0E0D80112968D919C9146
:104450001397009719F0F8018C01F6CF8D919C917C
:1044600098012E5F3F4F820F931F2091B904309126
:10447000BA042817390769F4309729F41092BC045C
:104480001092BB0402C0138212821093BA040093EC
:10449000B904DF91CF911F910F9108950F931F934E
:1044A000CF93DF93009731F46115710519F480E023
:1044B00090E03AC08B01EC016EE070E081E090E0AA
:1044C0000E946B24FC01892B91F380E88383011502
:1044D000110571F01387028781E883838091BD0401
:1044E0009091BE04892B21F4F093BE04E093BD04A7
:1044F0002097C9F0D187C0878381826083838091B0
:10450000BF049091C004892B71F4F093C004E09330
:10451000BF048091C1049091C204892B21F4F093CF
:10452000C204E093C104CF01DF91CF911F910F919D
:104530000895ACE0B0E0EFE9F2E20C943A257C019A
:104540006B018A01FC0117821682838181FFBDC144
:10455000CE0101964C01F7019381F60193FD8591FF
:1045600093FF81916F01882309F4ABC1853239F43F
:1045700093FD859193FF81916F01853229F4B701F5
:1045800090E00E94A424E7CF512C312C20E020326F
:10459000A0F48B3269F030F4803259F0833269F440
:1045A00020612CC08D3239F0803339F4216026C06F
:1045B0002260246023C0286021C027FD27C030ED81
:1045C000380F3A3078F426FF06C0FAE05F9E300DCF
:1045D0001124532E13C08AE0389E300D1124332E3F
:1045E00020620CC08E3221F426FD6BC1206406C00F
:1045F0008C3611F4206802C0883641F4F60193FD30
:10460000859193FF81916F018111C1CF982F9F7D7B
:104610009554933028F40C5F1F4FFFE3F9830DC0CE
:10462000833631F0833771F0833509F05BC022C0E7
:10463000F801808189830E5F1F4F44244394512CDD
:10464000540115C03801F2E06F0E711CF801A08012
:10465000B18026FF03C0652D70E002C06FEF7FEFD1
:10466000C5012C870E9499242C0183012C852F776A
:10467000222E17C03801F2E06F0E711CF801A080E5
:10468000B18026FF03C0652D70E002C06FEF7FEFA1
:10469000C5012C870E9487242C012C852068222E9E
:1046A000830123FC1BC0832D90E048165906B0F40B
:1046B000B70180E290E00E94A4243A94F4CFF5017F
:1046C00027FC859127FE81915F01B70190E00E9450
:1046D000A42431103A94F1E04F1A510841145104C6
:1046E00071F7E5C0843611F0893639F5F80127FFF6
:1046F00007C060817181828193810C5F1F4F08C068
:1047000060817181072E000C880B990B0E5F1F4F83
:104710002F76722E97FF09C09095809570956195C0
:104720007F4F8F4F9F4F2068722E2AE030E0A40108
:104730000E94DC24A82EA81844C0853729F42F7EB7
:10474000B22E2AE030E025C0F22FF97FBF2E8F363F
:10475000C1F018F4883579F0B4C0803719F0883783
:1047600021F0AFC02F2F2061B22EB4FE0DC08B2DD3
:104770008460B82E09C024FF0AC09F2F9660B92E0E
:1047800006C028E030E005C020E130E002C020E1B2
:1047900032E0F801B7FE07C06081718182819381A8
:1047A0000C5F1F4F06C06081718180E090E00E5F5A
:1047B0001F4FA4010E94DC24A82EA818FB2DFF7710
:1047C0007F2E76FE0BC0372D3E7FA51450F474FE6D
:1047D0000AC072FC08C0372D3E7E05C0BA2C372DAA
:1047E00003C0BA2C01C0B52C34FF0DC0FE01EA0D88
:1047F000F11D8081803311F4397E09C032FF06C07B
:10480000B394B39404C0832F867809F0B39433FD36
:1048100013C030FF06C05A2CB31418F4530C5B18A5
:10482000B32CB31468F4B70180E290E03C870E9497
:10483000A424B3943C85F5CFB31410F43B1801C005
:10484000312C34FF12C0B70180E390E03C870E9416
:10485000A4243C8532FF17C031FD03C088E790E0F7
:1048600002C088E590E0B7010CC0832F867859F02C
:1048700031FF02C08BE201C080E237FD8DE2B7015B
:1048800090E00E94A424A51438F4B70180E390E0DE
:104890000E94A4245A94F7CFAA94F401EA0DF11DC2
:1048A0008081B70190E00E94A424A110F5CF3320AD
:1048B00009F451CEB70180E290E00E94A4243A941A
:1048C000F6CFF7018681978102C08FEF9FEF2C967C
:1048D000E2E10C9456250F931F93CF93DF93869FAD
:1048E0008001879F100D969F100D1124C8010E9412
:1048F0002121EC01009729F0A80160E070E00E94FE
:104900009224CE01DF91CF911F910F910895FC0168
:104910000590615070400110D8F7809590958E0FEA
:104920009F1F0895DC0101C06D9341505040E0F796
:104930000895FC016150704001900110D8F78095F6
:1049400090958E0F9F1F08950F931F93CF93DF9322
:10495000FB01238121FD03C08FEF9FEF28C022FFC1
:1049600016C046815781248135814217530744F48C
:10497000A081B1819D012F5F3F4F318320838C93B4
:10498000268137812F5F3F4F3783268310C0EB018D
:10499000092F182F0084F185E02D0995892BE1F668
:1049A0008E819F8101969F838E83812F902FDF912F
:1049B000CF911F910F910895FA01AA27283051F144
:1049C000203181F1E8946F936E7F6E5F7F4F8F4F40
:1049D0009F4FAF4FB1E03ED0B4E03CD0670F781F9F
:1049E000891F9A1FA11D680F791F8A1F911DA11D84
:1049F0006A0F711D811D911DA11D20D009F46894BD
:104A00003F912AE0269F11243019305D3193DEF664
:104A1000CF010895462F4770405D4193B3E00FD01A
:104A2000C9F7F6CF462F4F70405D4A3318F0495D05
:104A300031FD4052419302D0A9F7EACFB4E0A695E8
:104A40009795879577956795BA95C9F7009761050A
:104A5000710508959B01AC010A2E06945795479560
:104A600037952795BA95C9F7620F731F841F951F55
:104A7000A01D08952F923F924F925F926F927F9266
:104A80008F929F92AF92BF92CF92DF92EF92FF925E
:104A90000F931F93CF93DF93CDB7DEB7CA1BDB0B0A
:104AA0000FB6F894DEBF0FBECDBF09942A883988AF
:104AB00048885F846E847D848C849B84AA84B984B6
:104AC000C884DF80EE80FD800C811B81AA81B981C2
:104AD000CE0FD11D0FB6F894DEBF0FBECDBFED01D6
:104AE00008955058BB27AA270E9489250C94642753
:104AF0000E94562738F00E945D2720F039F49F3F2E
:104B000019F426F40C942C270EF4E095E7FB0C9492
:104B10002627E92F0E94752758F3BA1762077307F3
:104B20008407950720F079F4A6F50C9497270EF4E6
:104B3000E0950B2EBA2FA02D0B01B90190010C01AD
:104B4000CA01A0011124FF27591B99F0593F50F4C5
:104B5000503E68F11A16F040A22F232F342F44271D
:104B6000585FF3CF469537952795A795F040539515
:104B7000C9F77EF41F16BA0B620B730B840BBAF0E5
:104B80009150A1F0FF0FBB1F661F771F881FC2F750
:104B90000EC0BA0F621F731F841F48F48795779564
:104BA0006795B795F7959E3F08F0B0CF9395880F1E
:104BB00008F09927EE0F9795879508950E94022790
:104BC00008F481E008950E94F7250C9464270E9460
:104BD0005D2758F00E94562740F029F45F3F29F0E6
:104BE0000C94262751110C9498270C942C270E9482
:104BF000752768F39923B1F3552391F3951B550B52
:104C0000BB27AA2762177307840738F09F5F5F4F9F
:104C1000220F331F441FAA1FA9F335D00E2E3AF0DE
:104C2000E0E832D091505040E695001CCAF72BD0F6
:104C3000FE2F29D0660F771F881FBB1F2617370747
:104C40004807AB07B0E809F0BB0B802DBF01FF2779
:104C500093585F4F3AF09E3F510578F00C94262709
:104C60000C9498275F3FE4F3983ED4F386957795AC
:104C70006795B795F7959F5FC9F7880F911D969532
:104C8000879597F90895E1E0660F771F881FBB1F8E
:104C9000621773078407BA0720F0621B730B840B3B
:104CA000BA0BEE1F88F7E095089529F416F00C94DE
:104CB00026270C9497270C942C270E947D27A8F375
:104CC0009638A0F707F80F92E8942BE33AEA48EBFE
:104CD0005FE70E942F280F920F920F924DB75EB799
:104CE0000F920E94E527E8E6F0E00E942F274F91FF
:104CF0005F91EF91FF91E595EE1FFF1F49F0FE5781
:104D0000E0684427EE0F441FFA95E1F74195550BF3
:104D10000E94AF270F9007FE0C94A32708950E94CE
:104D200096266894B1110C94982708950E947D27C7
:104D300088F09F5798F0B92F9927B751B0F0E1F05C
:104D4000660F771F881F991F1AF0BA95C9F714C00C
:104D5000B13091F00E949727B1E008950C94972705
:104D6000672F782F8827B85F39F0B93FCCF3869545
:104D700077956795B395D9F73EF4909580957095A2
:104D800061957F4F8F4F9F4F0895E89409C097FB1F
:104D90003EF490958095709561957F4F8F4F9F4F12
:104DA0009923A9F0F92F96E9BB279395F695879556
:104DB00077956795B795F111F8CFFAF4BB0F11F419
:104DC00060FF1BC06F5F7F4F8F4F9F4F16C08823C0
:104DD00011F096E911C0772321F09EE8872F762FF6
:104DE00005C0662371F096E8862F70E060E02AF037
:104DF0009A95660F771F881FDAF7880F9695879523
:104E000097F90895990F0008550FAA0BE0E8FEEFF7
:104E100016161706E807F907C0F012161306E4077E
:104E2000F50798F0621B730B840B950B39F40A2677
:104E300061F0232B242B252B21F408950A2609F455
:104E4000A140A6958FEF811D811D089597F99F6759
:104E500080E870E060E008959FEF80EC0895DF93B4
:104E6000CF931F930F93FF92EF92DF927B018C0100
:104E7000689406C0DA2EEF010E942C28FE01E89407
:104E8000A5912591359145915591A6F3EF010E9489
:104E90008925FE019701A801DA9469F7DF90EF9068
:104EA000FF900F911F91CF91DF91089500240A94F4
:104EB0001616170618060906089500240A941216F5
:104EC0001306140605060895092E0394000C11F428
:104ED000882352F0BB0F40F4BF2B11F460FF04C0D5
:104EE0006F5F7F4F8F4F9F4F089557FD9058440F2E
:104EF000551F59F05F3F71F04795880F97FB991F39
:104F000061F09F3F79F087950895121613061406F5
:104F1000551FF2CF4695F1DF08C016161706180682
:104F2000991FF1CF86957105610508940895E8945D
:104F3000BB2766277727CB0197F908950E940227A0
:104F400008F48FEF08959B01AC0160E070E080E809
:104F50009FE30C94E3250C9426270C948B280E9445
:104F60007D27D8F39923C9F3940F511DA3F39150D2
:104F7000504094F059F0882332F0660F771F881F55
:104F800091505040C1F79E3F51052CF7880F911D5D
:104F90009695879597F908955F3FACF0983E9CF001
:104FA000BB27869577956795B79508F4B16093957B
:104FB000C1F7BB0F58F711F460FFE8CF6F5F7F4F69
:104FC0008F4F9F4FE3CF0C949827FA01DC01AA0F73
:104FD000BB1F9B01AC01BF5728F42227332744276E
:104FE000507820C0B75190F4AB2F002446953795E8
:104FF0002795011CA395D2F3002071F0220F331FD7
:10500000441FB395DAF30ED00C947125613071050D
:10501000A0E88A07B94630F49B01AC0166277727E0
:1050200088279078309621F0208331834283538300
:1050300008950E942C280C9464270E94562738F06B
:105040000E945D2720F0952311F00C9426270C94E4
:105050002C2711240C9498270E94752770F3959F94
:10506000C1F3950F50E0551F629FF001729FBB275F
:10507000F00DB11D639FAA27F00DB11DAA1F649FFB
:105080006627B00DA11D661F829F2227B00DA11DAE
:10509000621F739FB00DA11D621F839FA00D611D34
:1050A000221F749F3327A00D611D231F849F600D55
:1050B000211D822F762F6A2F11249F5750409AF07E
:1050C000F1F088234AF0EE0FFF1FBB1F661F771F0A
:1050D000881F91505040A9F79E3F510580F00C94D5
:1050E00026270C9498275F3FE4F3983ED4F38695E7
:1050F00077956795B795F795E7959F5FC1F7FE2B75
:10510000880F911D9695879597F908950E9402271B
:10511000880B990B08959F3F31F0915020F48795AB
:1051200077956795B795880F911D9695879597F90F
:105130000895A1E21A2EAA1BBB1BFD010DC0AA1FD8
:10514000BB1FEE1FFF1FA217B307E407F50720F0F0
:10515000A21BB30BE40BF50B661F771F881F991F6B
:105160001A9469F760957095809590959B01AC01B4
:10517000BD01CF010895052E97FB1EF400940E94F7
:10518000D22857FD07D00E94992807FC03D04EF47F
:105190000C94D22850954095309521953F4F4F4F14
:1051A0005F4F089590958095709561957F4F8F4FD3
:1051B0009F4F0895EE0FFF1F0590F491E02D099485
:1051C00081E090E0F8940C941629FB01DC01415039
:1051D000504030F08D910190801919F40020B9F7FA
:1051E000881B990B0895AEE0B0E0E9EFF8E20C946B
:1051F00048250D891E8986E08C831A8309838FEFE9
:105200009FE79E838D83AE01475E5F4F6F89788DE8
:10521000CE0101960E9499222F813885F801E20F74
:10522000F31F10822E96E4E00C94642510E0C1EF89
:10523000D0E004C0FE010E94DA282196C23FD107C7
:06524000C9F7F894FFCF4E
:10524600FF0000C30480002C00000000BE10260BE7
:1052560018000000000000000000E8FFE8FF000062
:105266000000000014000000000000000000ECFF39
:10527600ECFF00000000000000000000AD0A160A66
:10528600450AF40A760A540A680A06000000000075
:10529600F307F507FAFFFAFF0000F407F70718000F
:1052A6000000000014082B08E8FFE8FF00002108B2
:1052B60035086401160120016E0100000000130A82
:1052C600F107B107AE07AB07A807A5071C07180724
:1052D6001507FF061F07A306A1060200000000002F
:1052E60041084308FEFFFEFF000042084508000093
:1052F6000000150A8D0800000000140A3F08B107D7
:10530600AE07AB07A807A507990753073A07210772
:105316001F07B0088F081400000000006208790813
:10532600ECFFECFF00006F088308DC012A01340162
:10533600E60100000000DF13E71300000000000094
:105346000000200B000000001C01921462014801BD
:105356009A140D16FEFF0000901494140A16FCFF12
:1053660000009114971423180000000000000000AC
:10537600200B0000000000000000200B200B0000A6
:105386000000BF10D21000000000F210280B000031
:105396000000A006EF0700000000F4105F110000F7
:1053A6000000F3105D1100000000A80F240B0000A0
:1053B6000000A60C220B250041542B25733D2564C5
:1053C6002C25640041542B25733D25640041542B44
:1053D6002573004254004856005345545300534524
:1053E6005400544C530054425A0041434B00485613
:1053F6003100535231004856320053523200415464
:10540600000D0A006E616E00696E66006F766600BA
:00000001FF
