:100000000C94BB010C94E3010C94E3010C94E30108
:100010000C94E3010C94E3010C94E3010C9425137C
:100020000C94E3010C94E3010C94E3010C94E301C0
:100030000C94E3010C94E3010C94E3010C94E301B0
:100040000C9474160C94E3010C94E3140C94BD14FA
:100050000C94E3010C94E3010C94E3010C94E30190
:100060000C94E3010C94E30107634236B79BD8A7D5
:100070001A39685618AEBAAB558C1D3CB7CC5763CD
:10008000BD6DEDFD753EF6177231BF000000803F7B
:1000900050415F4D41580050415F4849474800502A
:1000A000415F4C4F570050415F4D494E0031362063
:1000B0006269747300382062697473004469736103
:1000C000626C6564006E524632344C30312B006EE7
:1000D000524632344C3031003235304B42505300AE
:1000E000324D42505300314D425053000001020343
:1000F00004051112131415160A0B0C0D0E0F526184
:1001000064696F204552524F5200526164696F20FA
:10011000426567696E00526164696F204552524FB3
:1001200052005354415455530909203D203078253D
:100130003032782052585F44523D25782054585F21
:1001400044533D2578204D41585F52543D25782039
:1001500052585F505F4E4F3D25782054585F4655AA
:100160004C4C3D25780D0A00504120506F77657248
:1001700009203D2025530D0A00A6009F00970090FE
:1001800000435243204C656E67746809203D20256A
:10019000530D0A00BC00B500AD004D6F64656C09DD
:1001A00009203D2025530D0A00CF00C5004461748D
:1001B00061205261746509203D2025530D0A00E637
:1001C00000E000D80044594E50442F464541545554
:1001D000524500434F4E464947090052465F53453A
:1001E0005455500052465F43480900454E5F5258EF
:1001F0004144445200454E5F4141090052585F500E
:10020000575F50302D360054585F41444452090026
:1002100052585F414444525F50322D350052585F6E
:10022000414444525F50302D31005D002C200020AD
:10023000706172616D733A5B0020736F75726365F4
:100240003A002069643A00434D44200046726565D7
:100250002052414D20616674657220434D44203D1B
:1002600020004578656375746520004672656520D9
:1002700052414D203D2000534C415645204F4B00EC
:1002800052656365697665643A2000536C617665F2
:10029000205246204D657373616765205265636522
:1002A000697665643A2000562050657263656E7405
:1002B0006167653A200020566F6C746167653A206B
:1002C00000426174746572792056616C75653A20DC
:1002D000004261747465727920416C61726D2053C3
:1002E000746174653A20000D0A00203078253032A0
:1002F0007800255309203D000D0A00253032780092
:1003000020307800255309203D000000000800023D
:1003100001000003040700000000000000000000CE
:100320000000250028002B0000000000240027000A
:100330002A00040404040404040402020202020267
:100340000303030303030102040810204080010299
:100350000408102001020408102052462053656E44
:10036000743A20005748495445206368616E6765B8
:1003700000026E22542511241FBECFEFD8E0DEBF4D
:10038000CDBF13E0A0E0B1E0E2E3FBE502C00590E1
:100390000D92A431B107D9F724E0A4E1B3E001C084
:1003A0001D92AA3FB207E1F711E0CAEBD1E004C009
:1003B0002197FE010E94502DC93BD107C9F70E9429
:1003C000BE160C948C2D0C94000008950F931F936F
:1003D000CF938C01C42F61ED72E08CEC93E00E940E
:1003E00088136C2F70E08CEC93E00E94DD0D6C2F75
:1003F000F80182859385CF911F910F910C9418116C
:100400002F923F924F925F926F927F928F929F9224
:10041000AF92BF92CF92DF92EF92FF920F931F9312
:10042000CF93DF93CDB7DEB768970FB6F894DEBFF2
:100430000FBECDBF1C017B01DB011796CD90DC9078
:1004400018972601612C712CC301B2010E945C2B0C
:100450002CE032E043E550E40E94AE2C20E030EC8A
:100460004FE754E40E94782A20E030E0A9010E947E
:10047000072A20E030E048EC52E40E94AE2C4B0109
:100480005C01B601BCE3CB16B3E0DB0644F0EDEF54
:10049000CE16E3E0DE062CF06CEF73E002C06CE3F6
:1004A00073E06C537340072E000C880B990B0E946D
:1004B0005C2B20E030E048EC52E40E94AE2C20E0BF
:1004C00030E040E453E40E94782A20E030E0A901C3
:1004D0000E94072A0E942B2B162FD7019C960C9165
:1004E00061EC72E08CEC93E00E9488132AE0B30187
:1004F000A2018CEC93E00E94C11366EB72E08CECDD
:1005000093E00E94881320E030E048EC52E4C501FB
:10051000B4010E94782A6B017C016D8B7E8B8F8BDE
:10052000988F9B01AC010E941B2D882319F063EB6F
:1005300072E01AC026013701E89477F82FEF3FEFF9
:100540004FE75FE7C301B2010E941B2D811111C06B
:100550002FEF3FEF4FE75FE7C301B2010E94732A1D
:1005600018163CF467EB72E08CEC93E00E94AC133D
:1005700082C02FEF3FEF4FE75FE4C701B6010E9453
:10058000332C18161CF46BEB72E0EECF2FEF3FEF1D
:100590004FE75FECC701B6010E94732A87FDF3CFD6
:1005A00020E030E0A901C701B6010E94732A87FF4D
:1005B0000CC06DE28CEC93E00E948113D701C60160
:1005C000B0588D8B9E8BAF8BB88F2AE037ED43EA06
:1005D0005BE36D897E898F89988D0E94072A2B01A4
:1005E0003C010E942B2B6B017C010E945A2B9B012A
:1005F000AC01C301B2010E94062A2B013C012AE092
:10060000B701A6018CEC93E00E94C1136EE28CEC62
:1006100093E00E94811320E030E040E251E4C30106
:10062000B2010E94AE2C6B017C010E942B2B2B018E
:10063000612C712C2AE0B301A2018CEC93E00E94A2
:10064000C113C301B2010E945A2B9B01AC01C70127
:10065000B6010E94062A20E030E040E251E40E9408
:10066000AE2C0E942B2BAB0160E070E02AE08CECFA
:1006700093E00E94C11367EA72E08CEC93E00E9461
:100680008813412F50E060E070E02AE08CEC93E0AA
:100690000E94C1136FEB72E08CEC93E00E940A148D
:1006A00082E491E4A4E5B0E0898B9A8BAB8BBC8BA0
:1006B0001F920F931F921F93C501B4010E94242B18
:1006C0007F936F93CE0141969F938F9381EC92E03D
:1006D0009F938F938E010F5F1F4F1F930F930E9465
:1006E000692DB801D1011C968D919C911D970E9496
:1006F000280F0FB6F894DEBF0FBECDBF68960FB6B9
:10070000F894DEBF0FBECDBFDF91CF911F910F9147
:10071000FF90EF90DF90CF90BF90AF909F908F9021
:100720007F906F905F904F903F902F900895CF9261
:10073000DF92EF92FF920F931F93FB01DC0100E029
:1007400010E098016A01E12CF12C0C151D052E0515
:100750003F0538F461916D930F5F1F4F2F4F3F4F4F
:10076000F4CF840F951F1F910F91FF90EF90DF90B2
:10077000CF900895CF92DF92EF92FF920F931F9345
:10078000CF93DF931F92CDB7DEB77C016B0188E07A
:1007900090E0F70193838283158214820E94902552
:1007A000F70191838083C114D104B9F0F60101905F
:1007B0000020E9F731978F010C191D091982AE014C
:1007C0004F5F5F4FB801C7010E949F08A801B601A3
:1007D000F701808191810E9497030F90DF91CF9163
:1007E0001F910F91FF90EF90DF90CF900895CB0174
:1007F00008957F928F929F92AF92BF92CF92DF9295
:10080000EF92FF920F931F93CF93DF93EC01490177
:100810005A018B01C12CD12C7601C814D904EA04E9
:10082000FB0484F5F80171908F018F8580FF0BC068
:10083000E881F9810084F185E02D20E144E060E069
:1008400070E0CE010995EB85FC858D859E85E817C6
:10085000F90738F470828B859C8501969C878B877D
:100860000BC0E881F981672D70E0028CF38DE02DDB
:10087000CE010995019649F02FEFC21AD20AE20A79
:10088000F20ACBCFB401C50102C0B601C701DF91A6
:10089000CF911F910F91FF90EF90DF90CF90BF907D
:1008A000AF909F908F907F900895CF93DF93EC014E
:1008B000E881F9810288F389E02D09958F3F2FEFB8
:1008C000920731F02D813E812F5F3F4F3E832D8374
:1008D000DF91CF9108958FEF9FEF089560E070E072
:1008E000CB01089580E090E00895CB010895CF9367
:1008F000DF93EC0188899989DC01ED91FC910084FA
:10090000F185E02D0995892BA9F388899989DC0166
:10091000ED91FC910284F385E02DDF91CF91099454
:10092000CF93DF93EC0188899989DC01ED91FC91EB
:100930000084F185E02D0995892BA9F3888999898F
:10094000DC01ED91FC910484F585E02DDF91CF91E0
:100950000994AF92BF92CF92DF92EF92FF920F93E2
:100960001F93CF93DF9300D000D0CDB7DEB78C01BB
:100970005B01C12CD12C7601F80180899189DC01C1
:10098000ED91FC910284F385E02D29833A834B831A
:100990005C83099529813A814B815C818F3F71F09D
:1009A000C216D306E406F5064CF4D5018D935D011D
:1009B000BFEFCB1ADB0AEB0AFB0ADECFC701B60199
:1009C0000F900F900F900F90DF91CF911F910F918B
:1009D000FF90EF90DF90CF90BF90AF900895DC0133
:1009E00050968D919C915197DC01ED91FC91008482
:1009F000F185E02D099480E090E0089580E090E09A
:100A0000089580E090E0089580E090E008950895D2
:100A1000CF93DF93C0919C03D0919D03E881F9812E
:100A20000084F185E02DCE010995892BB9F3E88189
:100A3000F9810284F385E02DCE01DF91CF910994F5
:100A40001F93CF93DF93182FC0919C03D0919D03E8
:100A50008A3041F4E881F9810190F081E02D6DE068
:100A6000CE010995E881F9810190F081E02D612F97
:100A7000CE01099521E030E0019711F420E030E04B
:100A8000C901DF91CF911F910895FB012081318130
:100A9000FC0131832083FB0142815381F9013697A8
:100AA00020813181FC01E20FF31F518340830895BF
:100AB0000C94252626EA31E0FC013183208320EBCB
:100AC00031E0318F208F66EB71E00C944505DC013D
:100AD000ED91FC91369720813181820F931F0C9408
:100AE0005A05CF93DF93EC010E945A05CE01DF91A6
:100AF000CF910C942526DC01ED91FC913697208155
:100B00003181820F931F0C9471050C942526089552
:100B100008950C942526DC01ED91FC9136972081F7
:100B20003181820F931F0C9489050C94252608951A
:100B300008950C942526DC01ED91FC9136972081D7
:100B40003181820F931F0C949905FB012081318123
:100B5000FC0131832083FB0142815381F9013697E7
:100B600020813181FC01E20FF31F518340830895FE
:100B70002EE132E0FC013183208328E232E0358B24
:100B8000248B6EE272E00C94A505DC01ED91FC91E2
:100B9000369720813181820F931F0C94B805CF9333
:100BA000DF93EC010E94B805CE01DF91CF910C9448
:100BB0002526DC01ED91FC91369720813181820F51
:100BC000931F0C94CF050C9425260F931F93CF935E
:100BD000DF938C01EB016F3F8FEF780719F480E012
:100BE00090E00FC06A3031F46DE0F801808991899E
:100BF0000E9481136C2FF801808991890E948113D2
:100C0000CE01DF91CF911F910F9108958F929F9206
:100C1000BF92CF92DF92EF92FF920F931F93CF93E9
:100C2000DF9300D000D0CDB7DEB78C014B01C12CD3
:100C3000D12C7601C216D306E406F50644F5F4017C
:100C4000B1904F01FAE0BF120EC06DE0F80180894B
:100C5000918929833A834B835C830E9481135C8151
:100C60004B813A8129816B2DF801808991892983F3
:100C70003A834B835C830E948113FFEFCF1ADF0A14
:100C8000EF0AFF0A5C814B813A812981D3CFCA01E7
:100C9000B9010F900F900F900F90DF91CF911F919E
:100CA0000F91FF90EF90DF90CF90BF909F908F902B
:100CB00008950895089508950895FC0120813181D3
:100CC000828193812817390719F0822F0C94500ED6
:100CD0000895CF93DF93EC019CB59F7D9CBD9CB59F
:100CE000937F9CBD9CB59C7F9CBD9DB591609DBD37
:100CF0008A810E94500E8C899D89DF91CF910C943E
:100D0000FE1561E00C94690660E00C9469068EBDE6
:100D100000000DB407FEFDCF8EB508952F923F92CF
:100D20004F925F926F927F928F929F92AF92BF92FB
:100D3000CF92DF92EF92FF920F931F93CF93DF93A7
:100D400000D01F92CDB7DEB73C01D42E2DB63EB6F3
:100D50007F936F9384E093E09F938F932B830E9404
:100D600008272B812D0D2A830F900F900F900F9045
:100D700080E0482E83E0582E9BEFA92E92E0B92EFA
:100D8000FA81DF1609F450C08DB69EB6F3012685B0
:100D9000022F10E08DB79EB7801B910B0FB6F89411
:100DA0009EBF0FBE8DBFEDB7FEB731967F01F1E05C
:100DB000FD0DF983C3012B830E9484068D2D8F7155
:100DC0000E94870667012B812E0D2C1549F08FEFAD
:100DD0002B830E948706F60181936F012B81F5CF4B
:100DE000C3010E9481065F924F920E9408270E0D58
:100DF0001F1D0F900F90015011090E151F0568F06F
:100E0000F80180811F928F93BF92AF920E940827B2
:100E10000F900F900F900F90EECF0FB6F8949EBEEC
:100E20000FBE8DBED980ACCF88EF92E09F938F9399
:100E30000E9408270F900F900FB6F8943EBE0FBE89
:100E40002DBE0F900F900F90DF91CF911F910F91BA
:100E5000FF90EF90DF90CF90BF90AF909F908F90DA
:100E60007F906F905F904F903F902F900895EF92FA
:100E7000FF921F93CF93DF931F92CDB7DEB77C0114
:100E800069830E9484066981862F0E948706182F35
:100E9000C7010E948106812F0F90DF91CF911F9192
:100EA000FF90EF90089561EE0C943707EF92FF9258
:100EB0001F93CF93DF9300D0CDB7DEB77C014A8379
:100EC00069830E9484066981862F8F7180620E94E7
:100ED0008706182F4A81842F0E948706C7010E9427
:100EE0008106812F0F900F90DF91CF911F91FF907E
:100EF000EF900895CF92DF92EF92FF920F931F939E
:100F0000CF93DF9300D01F92CDB7DEB77C01142FB3
:100F10002A835B8369830E9484066981862F8F718F
:100F200080620E948706082FC12E5B81D52E2A8100
:100F3000120F1C1531F0F60181916F010E94870696
:100F4000F8CFC7010E948106802F0F900F900F905D
:100F5000DF91CF911F910F91FF90EF90DF90CF9095
:100F60000895EF92FF921F93CF93DF931F92CDB717
:100F7000DEB77C0169830E9484066981862F8F71A8
:100F80000E9487068FEF0E948706182FC7010E94D4
:100F90008106812F0F90DF91CF911F91FF90EF90ED
:100FA0000895CF93DF93EC0160E00E94B10781FDCB
:100FB0000EC0482F426060E0CE010E94560765E0F7
:100FC00070E080E090E0DF91CF910C942E16DF91DD
:100FD000CF910895CF93DF93EC010E94D10760E099
:100FE000CE010E94B107482F416060E0CE010E940F
:100FF000560740E767E0CE010E94560761E0CE0148
:101000000E945D068985882349F02E85AE01475FE1
:101010005F4F6AE0CE010E947A0714C062E0CE0101
:101020000E94B107ECEEF0E0E49121E030E001C075
:10103000220FEA95EAF72095422F482362E0CE017D
:101040000E9456076DE1CE010E94B10781FF05C0E5
:10105000CE01DF91CF910C945307DF91CF9108958A
:10106000CF92DF92EF92FF920F931F93CF93DF9374
:101070001F92CDB7DEB77C01C22E7F936F9322EF14
:1010800032E03F932F9349830E9408274981C40E81
:101090000F900F900F900F900AEE12E04C1599F000
:1010A000DD24D394D40E642FC7010E94B1071F9290
:1010B0008F931F930F930E9408270F900F900F900C
:1010C0000F904D2DEBCF87EE92E09F938F930E9470
:1010D00008270F900F900F90DF91CF911F910F91E4
:1010E000FF90EF90DF90CF9008950F931F93CF93D1
:1010F000DF93EC01CB01088119817B836A830E9415
:1011000090259983888320E030E08C819D81281789
:10111000390770F4E881F981E20FF31F309729F065
:10112000D801A20FB31F8C9180832F5F3F4FEDCF6B
:10113000C801DF91CF911F910F910C942526EF925A
:10114000FF920F931F93CF93DF93EC018C819D81CE
:101150008617970710F57A018B018A819B81861784
:10116000970740F4685F7F4F8617970718F4CE0102
:101170000E9475088C819D818017910758F4E88141
:10118000F981E80FF91F309719F0D7012C912083CE
:101190000196F2CF1D830C8305C06817790710F400
:1011A0007D836C83DF91CF911F910F91FF90EF9022
:1011B0000895FC01808191810C9425260F931F9343
:1011C000CF93DF93FC0104811581FB01C481D5819C
:1011D000AE010C171D0708F4A801FB0160817181A5
:1011E000FC01808191810E945B2D009769F481E070
:1011F00090E0C017D10740F00C171D0710F080E0F9
:1012000090E0919581959109DF91CF911F910F9178
:101210000895EF92FF920F931F93CF93DF937C017A
:1012200000E010E0C0E0D0E0F7012481358180814A
:101230009181C217D30740F4800F911F0E94D908F3
:101240002196095F1F4FF0CFDF91CF911F910F9132
:10125000FF90EF900C942526089508950895FC01C1
:101260009285915081E0923008F080E00895DC0191
:101270001A962C91261759F0FC0162870190F08193
:10128000E02D0688F789E02D099581E0089580E03A
:101290000895039608950F931F93CF938C010E9496
:1012A0003910FC0111860E941C0F61E086E00E944B
:1012B000500E61E088E00E94500E61E087E00E94DD
:1012C000500E80910201853021F08F3F09F0D8C087
:1012D00004C0E1E7F3E0C49174C085E080930201AB
:1012E000E1E7F3E0E491EF3F09F4CAC0E13011F126
:1012F000E23009F442C0E11163C014BC15BC84B5EE
:10130000826084BD85B5816085BDE7E3F3E0E4914B
:10131000F0E0EE0FFF1FE25EFC4F859194919093F9
:101320001E0380931D03EBE4F3E0E491E0931C03C0
:10133000C0E049C01092800010928100809181002D
:10134000886080938100809181008160809381001A
:10135000E7E3F3E0E491F0E0EE0FFF1FE25EFC4F05
:101360008591949190931B0380931A03EBE4F3E02F
:10137000E491E0931903C1E026C01092B0001092EE
:10138000B1008091B00082608093B0008091B10084
:1013900081608093B100E7E3F3E0E491F0E0EE0FC9
:1013A000FF1FE25EFC4F85919491909332038093EE
:1013B0003103EBE4F3E0E491E0933303C2E003C0D4
:1013C000CE2FC7FD5DC085E00E94BE0DCC2351F03D
:1013D000C23001F58091B100887F82608093B100B6
:1013E00089EF3BC085B5887F826085BD89EF87BD69
:1013F00080ED97E0A0E0B0E0809323039093240376
:10140000A0932503B093260380916E0082608093A1
:101410006E0036C0C130F1F480918100887F816018
:10142000809381008FEC97E09093890080938800EF
:1014300080ED97E0A0E0B0E080931F03909320033D
:10144000A0932103B093220380916F008260809368
:101450006F0016C0C230A1F48FEC8093B30080ED12
:1014600097E0A0E0B0E08093340390933503A0931D
:101470003603B093370380917000826080937000D0
:101480000E946816F801658776878787908B82E0CF
:10149000CF911F910F9108950F931F93CF93DF93D7
:1014A0001F92CDB7DEB78C01AE014F5F5F4F6FED7E
:1014B00072E00E94BA03C8010F90DF91CF911F9193
:1014C0000F9108950F931F93CF93DF931F92CDB782
:1014D000DEB78C01AE014F5F5F4F63EE72E00E949A
:1014E000BA03C8010F90DF91CF911F910F9108951A
:1014F000CF93DF93EC018EE491E099838883809110
:10150000170390911803009739F0DC01ED91FC91DD
:101510000280F381E02D09958A819B81DF91CF9133
:101520000C942526CF93DF93EC010E94780ACE011C
:10153000DF91CF910C9425260C9425260C9425261A
:10154000AF92BF92CF92DF92EF92FF920F931F93D1
:10155000CF93DF93FC01248135816217730708F56F
:101560006B01EC0187E0869F5001879FB00C11242E
:101570008B01E12CF12C8C819D810817190778F4DF
:10158000C7018A0D9B1D28813981820F931F0E94FC
:10159000D9080F5F1F4FF7E0EF0EF11CECCFDD8293
:1015A000CC82DF91CF911F910F91FF90EF90DF9050
:1015B000CF90BF90AF9008952DE031E0FC013183D2
:1015C000208303960C940909CF93DF93EC010E94CA
:1015D000DC0ACE01DF91CF910C942526CF93DF93C7
:1015E0008091170390911803892BC9F489E090E04A
:1015F0000E949025EC018EE491E09983888388E035
:1016000090E09D838C831F821E8280E190E00E9487
:1016100090259B838A83D0931803C09317038091EE
:10162000170390911803DF91CF910895EF92FF92E5
:101630000F931F93CF93DF938C01DC01ED91FC910D
:101640000684F785E02D63E009950E94EE0AEC011F
:101650000115110509F441C0EA81FB814E815F81CA
:10166000CA01880F991F8E0F9F1FDF01A817B907A6
:1016700041F02D913D9120173107C1F32193319312
:10168000F5CF8A819B819F01281B390BB901759584
:101690006795AE1BBF0BCD0195958795FA01E81BA9
:1016A000F90BCF016817790798F4EA81FB817F0174
:1016B000E20EF31E87010A0F1B1FF8010081118142
:1016C000F701118300836F5F7F4F2E5F3F4FEACF9B
:1016D0008417950710F49F838E83DF91CF911F911C
:1016E0000F91FF90EF9008954F925F926F927F92CB
:1016F0008F929F92AF92BF92CF92DF92EF92FF9222
:101700000F931F93CF93DF931F92CDB7DEB77C016A
:101710002B01FC01848195816C01FFEFCF1ADF0A58
:101720008C159D0508F070C0F701228133812C15BE
:101730003D05F0F5099628173907D0F5808091808E
:101740009383828327E0AC01249FC001259F900DE5
:1017500011240E949025F701918380835401612C0C
:10176000712CF7018481958168167906F0F4F701F0
:1017700020813181C50188199909820F931F009733
:1017800051F08E010F5F1F4F2FEF3FEF40E050E011
:10179000B5010E947810C5010E94D908FFEF6F1AA9
:1017A0007F0A27E0A20EB11CDCCFC4010E942526CF
:1017B000F701A480B58087E08A9D30018B9D700C75
:1017C0001124812C912CF701AC14BD04D0F420819C
:1017D0003181C401860D971D820F931F009751F030
:1017E0008E010F5F1F4F2FEF3FEF40E050E0B2013F
:1017F0000E947810FFEFAF1ABF0A27E0820E911CFB
:10180000E2CFD582C48204C0B601C7010E94A00AFB
:101810000F90DF91CF911F910F91FF90EF90DF908C
:10182000CF90BF90AF909F908F907F906F905F9080
:101830004F900895DF92EF92FF920F931F93CF93F3
:10184000DF938B0103967C0160E070E00E94A00AA8
:10185000F801C081D18187E0D82EF801848195817B
:10186000D89E9001D99E300D112480819181280F3E
:10187000391FC217D30731F0BE01C7010E94740B94
:101880002796EBCFDF91CF911F910F91FF90EF90B3
:10189000DF900895CF92DF92EF92FF920F931F9304
:1018A000CF93DF931F92CDB7DEB78C01FB01E480AD
:1018B000F580E416F50610F40E94562DE41AF50A98
:1018C0002E153F0508F47901C080D180C40ED51EC5
:1018D00088E090E0F80193838283158214820E944D
:1018E0009025F80191838083FFEFEF16FF0621F327
:1018F000F6018081181684F41982AE014F5F5F4FA4
:10190000B701C8010E949F08F80144815581B601C2
:10191000808191810E949703C8010F90DF91CF9140
:101920001F910F91FF90EF90DF90CF900895089551
:1019300024E832E0DC012D933C93809127039091C1
:101940002803009739F0DC01ED91FC910280F381CE
:10195000E02D09940895CF93DF93EC010E94980C39
:10196000CE01DF91CF910C942526CF93DF93EC012C
:10197000ADA5BEA5109761F0ED91FC911197068081
:10198000F781E02D4CA5BC01CD01DF91CF910994E9
:10199000DF91CF9108950895CF93DF93611571057D
:1019A00009F45FC0FB01C081CF3F11F461E003C0C7
:1019B000C11104C060E0FC0182814FC0FC01D281F2
:1019C0008D2F0E94BE0DED2FF0E0E65FFC4FE491FD
:1019D000E33009F148F4E130C9F0E230C1F584B5F3
:1019E000806284BDC8BD3DC0E73009F1E83039F1FF
:1019F000E43069F5809180008062809380008C2FB4
:101A000090E090938B0080938A002BC084B580680F
:101A100084BDC7BD26C0809180008068809380000F
:101A20008C2F90E090938900809388001AC0809159
:101A3000B00080688093B000C093B30012C0809162
:101A4000B00080628093B000C093B4000AC0C03878
:101A500010F460E001C061E08D2FDF91CF910C9414
:101A6000500EDF91CF910895FC01118A83819481FA
:101A7000908B87871686158660E082810C94500EC5
:101A80008F929F92AF92BF92CF92DF92EF92FF928E
:101A90000F931F93CF93DF93FC012189223009F02C
:101AA00060C0EC010E9468162D853E856901E12C1D
:101AB000F12C09851A852B853C8546015701801A32
:101AC000910AA20AB30ADC01CB01880D991DAA1D57
:101AD000BB1DEF85F8894181528160E070E0841779
:101AE0009507A607B707E8F11E861D860E946816AF
:101AF00069877A878B879C87EF85F88963817481F2
:101B00006115710579F48F819885019698878F8387
:101B10002D813E812115310519F0821793079CF420
:101B20006B817C81788B6F87CE01DF91CF911F9184
:101B30000F91FF90EF90DF90CF90BF90AF909F906C
:101B40008F900C94CC0C188A1F86CE010E94340D05
:101B50002F8138858D819E812817390711F41886C9
:101B60001F82DF91CF911F910F91FF90EF90DF9037
:101B7000CF90BF90AF909F908F90089590E0FC0120
:101B8000EA5BFC4F2491FC01EE5CFC4F84918823BE
:101B900099F090E0880F991FFC01E85DFC4FA5913A
:101BA000B491FC01E25EFC4F859194918FB7F8945B
:101BB000EC91E22BEC938FBF0895CF92DF92EF92DE
:101BC000FF920F931F93CF93DF938C016B01770FDD
:101BD000EE08FF08F7FE12C06DE20E948113EC01CF
:101BE00044275527BA014C195D096E097F092AE07F
:101BF000C8010E94C113C80FD91F06C02AE0B7014F
:101C0000A6010E94C113EC0160EB72E0C8010E94C2
:101C1000AC138C0F9D1FDF91CF911F910F91FF90FF
:101C2000EF90DF90CF9008950F931F93CF938C0187
:101C300066E08CE393E00E94B107C82FC77D0230B5
:101C4000110531F4C0628BE990E0A0E0B0E00DC076
:101C50000130110529F085E590E0A0E0B0E005C075
:101C6000C86081E490E0A0E0B0E080934C039093E2
:101C70004D03A0934E03B0934F034C2F66E08CE3CB
:101C800093E00E94560766E08CE393E00E94B10760
:101C900091E08C1390E0892FCF911F910F910895BF
:101CA00090E0FC01E65FFC4F3491FC01EA5BFC4FE5
:101CB0002491FC01EE5CFC4FE491EE2309F43BC05F
:101CC000332339F1333091F038F43130A9F0323028
:101CD00001F584B58F7D12C0373091F03830A1F016
:101CE0003430B9F4809180008F7D03C080918000F2
:101CF0008F77809380000DC084B58F7784BD09C035
:101D00008091B0008F7703C08091B0008F7D809369
:101D1000B000F0E0EE0FFF1FE25EFC4FA591B49122
:101D20008FB7F894EC91611103C020952E2301C068
:101D30002E2B2C938FBF08958E3008F08E50877015
:101D4000806480937C0080917A00806480937A0024
:101D500080917A0086FDFCCF8091780020917900F7
:101D600090E0922B0895089508950C9425260C94E4
:101D70002526CF93DF93FC0183819481892BC9F0C1
:101D800081898230B1F0811104C0168615861086D3
:101D90001782EF010E94681669877A878B879C8774
:101DA00082E0898B6F857889CE01DF91CF910C9489
:101DB000CC0CDF91CF910895CF93DF93CDB7DEB7F1
:101DC0002A970FB6F894DEBF0FBECDBFFC01838506
:101DD0009485009741F1DB01FC0120813181F901FB
:101DE0004481558125E431E03A83298312962D916F
:101DF0003C9113973C832B8314962D913C9115971E
:101E00003E832D8316962D913C91179738872F830B
:101E100018962D913C9119973A872987BE016F5FDB
:101E20007F4FFA0109952A960FB6F894DEBF0FBED0
:101E3000CDBFDF91CF910895CF93DF93EC010E9446
:101E400068166D837E838F839887DF91CF91089585
:101E50006F927F929F92AF92BF92CF92DF92EF925A
:101E6000FF920F931F93CF93DF93CDB7DEB72A97DF
:101E70000FB6F894DEBF0FBECDBFFC01928499204F
:101E800009F4A4C0072FB62E6C016AE573E08CEC50
:101E900093E00E9488136B2D702F8CEC93E00E94CE
:101EA0000A14F601E280F38060E0C7010E945D063B
:101EB000F701808991890E94FE156DE1C7010E949A
:101EC000B10781FF08C0F701808991890E94FE1542
:101ED000C7010E94530760E0C7010E94B107482F65
:101EE0004E7F60E0C7010E94560762E0C7010E9472
:101EF000B107ECEEF0E0E49141E050E001C0440FA6
:101F0000EA95EAF7482B62E0C7010E945607F601FE
:101F1000E280F380F7011781A12E113110F080E1EA
:101F2000A82EF7018085811102C01A1901C010E0A6
:101F3000C7010E94840680EA0E9487066B2C702EDF
:101F4000AA94FFEFAF1631F0F30181913F010E9497
:101F50008706F6CF112329F080E00E9487061150F2
:101F6000F9CFC7010E94810661E0C7010E945D06AA
:101F70006FEFC7010E9437078073D1F360E0C7019C
:101F80000E945D0640E767E0C7010E94560784FF94
:101F900004C0C7010E945307912C85E491E09A8305
:101FA00089831A861986DC82CB828CE590E098873B
:101FB0008F83BD820E83BE016F5F7F4FC6010E947B
:101FC000DC0EF601828193810E94EA07892D2A9610
:101FD0000FB6F894DEBF0FBECDBFDF91CF911F913A
:101FE0000F91FF90EF90DF90CF90BF90AF909F90B8
:101FF0007F906F900895EF92FF920F931F93CF936E
:10200000DF93CDB7DEB764970FB6F894DEBF0FBE8F
:10201000CDBF7C0181E493E4ABE4B0E0898B9A8B83
:10202000AB8BBC8B9E012F5E3F4F3F932F9329EDCF
:1020300032E03F932F938E010F5F1F4F1F930F933B
:102040000E94692DB801C7010E94280F0F900F90C0
:102050000F900F900F900F9064960FB6F894DEBF1C
:102060000FBECDBFDF91CF911F910F91FF90EF90E9
:10207000089580912F0390913003892BC9F48DE04E
:1020800090E00E949025FC018CE992E0918380838E
:10209000138212821482158216821782108684E0BF
:1020A0008187128614861386F0933003E0932F0302
:1020B00080912F03909130030895CF93DF93EC012B
:1020C0006C817D816F5F7F4F8A819B818617970727
:1020D00018F4CE010E947508E881F9818C819D81F8
:1020E000E80FF91F108288819981DF91CF910895BF
:1020F000AF92BF92CF92DF92EF92FF920F931F9316
:10210000CF93DF931F92CDB7DEB78C016B017A01BD
:10211000590188E090E0F80193838283158214824C
:102120000E949025F80191838083F6018481958136
:102130008E159F0510F40E94562D1982BC016E1950
:102140007F09A616B70608F4B501AE014F5F5F4FD1
:10215000C8010E949F08F80144815581F601608101
:1021600071816E0D7F1DF801808191810E9497031E
:102170000F90DF91CF911F910F91FF90EF90DF9023
:10218000CF90BF90AF90089528E332E0FC012193F7
:102190003193CF010C94D908CF93DF93EC010E94C7
:1021A000C410CE01DF91CF910C942526EF92FF92BF
:1021B0000F931F93CF93DF93EC018A8180618A8311
:1021C0007E0187E2E80EF11CC7010E94340D85E014
:1021D00090E00E9490258C01FC01108214821382F1
:1021E00084EF91E09283818385E090E00E949025C6
:1021F000FC018FEF80838AEF90E0928381831483C8
:102200000383FBA7EAA7FFABEEAB8A8187FD09C07A
:10221000C701DF91CF911F910F91FF90EF900C9428
:10222000B90EDF91CF911F910F91FF90EF9008951C
:10223000EF92FF920F931F93CF93DF93EC019A815C
:1022400096FB882780F9861709F45CC0662311F194
:1022500090649A8397FD56C07E0185E1E80EF11CDB
:10226000C7010E94340D85E090E00E9490258C010A
:10227000FC011082148213828EE997E0928381839D
:1022800085E090E00E949025FC018FEF808382E33F
:1022900090E027C09F7B9A8397FD34C07E01F5E1D3
:1022A000EF0EF11CC7010E94340D8A8185FF2AC000
:1022B000C7010E94340D85E090E00E9490258C01BA
:1022C000FC0110821482138284EF91E09283818357
:1022D00085E090E00E949025FC018FEF80838AEFDB
:1022E00090E09283818314830383F98FE88FFDA3A9
:1022F000ECA3C701DF91CF911F910F91FF90EF9059
:102300000C94B90EDF91CF911F910F91FF90EF9038
:1023100008950F931F93CF93DF9380912D03909196
:102320002E03892B09F04FC089E390E00E9490258D
:10233000EC0184E992E0998388831A8204EA12E02E
:102340001C830B8386E08D831F821E82198618866C
:102350001B861A861C861D861E861F86198A188A69
:102360001B8A1A8A1C8A0E94BE0D1E8B0D8B88E068
:102370008F8B198E188E1B8E1A8E1D8E1C8E1E8EA4
:102380001F8E18A219A21BA21AA21DA21CA21EA275
:102390000E94BE0D18A70FA387E089A71BA61AA647
:1023A0001DA61CA61FA61EA618AA19AA1AAA1BAA11
:1023B0001DAA1CAA1FAA1EAA18AE0E94BE0DD09369
:1023C0002E03C0932D0380912D0390912E03DF9156
:1023D000CF911F910F910895CF92DF92EF92FF92CC
:1023E0000F931F93CF93DF936C017A018B01C0E0B1
:1023F000D0E0CE15DF0589F0D8016D918D01D601B1
:10240000ED91FC910190F081E02DC6010995892B99
:1024100011F47E0102C02196ECCFC701DF91CF916C
:102420001F910F91FF90EF90DF90CF900895089546
:1024300080E090E00895FC01538D448D252F30E01D
:10244000842F90E0821B930B541710F0CF960895C1
:1024500001970895FC01918D828D981761F0828D0E
:10246000DF01A80FB11D5D968C91928D9F5F9F73C8
:10247000928F90E008958FEF9FEF0895FC01918D6A
:10248000828D981731F0828DE80FF11D858D90E0D7
:1024900008958FEF9FEF0895FC01918D228D892F74
:1024A00090E0805C9F4F821B91098F73992708955C
:1024B0008CEC93E00E944C1221E0892B09F420E07F
:1024C000822F0895FC01848DDF01A80FB11DA35A4E
:1024D000BF4F2C91848D90E001968F739927848F44
:1024E000A689B7892C93A089B1898C9180648C933B
:1024F000938D848D981306C00288F389E02D808126
:102500008F7D80830895EF92FF920F931F93CF9357
:10251000DF93EC0181E0888F9B8D8C8D981305C033
:10252000E889F989808185FD24C0F62E0B8D10E0A5
:102530000F5F1F4F0F731127E02E8C8DE8120CC018
:102540000FB607FCFACFE889F989808185FFF5CFBE
:10255000CE010E946212F1CF8B8DFE01E80FF11DBA
:10256000E35AFF4FF0820B8FEA89FB8980818062FA
:1025700007C0EE89FF896083E889F98980818064DA
:10258000808381E090E0DF91CF911F910F91FF90C8
:10259000EF900895CF93DF93EC01888D8823C9F0E5
:1025A000EA89FB89808185FD05C0A889B9898C915C
:1025B00086FD0FC00FB607FCF5CF808185FFF2CFF7
:1025C000A889B9898C9185FFEDCFCE010E94621256
:1025D000E7CFDF91CF91089580E090E0892B29F03B
:1025E0000E94581281110C94000008950E94562DEB
:1025F00090910201981324C0E1E7F3E0E4919FEF8A
:1026000090930201E130B9F098F0E230C9F4909172
:1026100070009D7F9093700091E09093B000909136
:10262000B100987F94609093B1001092B30008C0FD
:1026300010926E0005C090916F009D7F90936F0087
:1026400060E00C94500E0C9425261F920F920FB64A
:102650000F9211242F933F934F935F936F937F9328
:102660008F939F93AF93BF93EF93FF938091340326
:1026700090913503A0913603B0913703892B8A2BB3
:102680008B2B51F180913303E0913103F0913203B0
:102690009081892780838091340390913503A091A4
:1026A0003603B0913703181619061A061B06C4F430
:1026B0008091340390913503A0913603B091370394
:1026C0000197A109B1098093340390933503A09336
:1026D0003603B093370304C0809102010E94F812C0
:1026E000FF91EF91BF91AF919F918F917F916F91EA
:1026F0005F914F913F912F910F900FBE0F901F90C0
:102700001895DC01ED91FC910190F081E02D099488
:10271000EF92FF920F931F93CF93DF938C017B0176
:10272000C0E0D0E0F701EC0FFD1F6491662361F07B
:10273000D801ED91FC910190F081E02DC80109953F
:10274000892B11F02196EECFCE01DF91CF911F9111
:102750000F91FF90EF9008956115710579F0FB01DD
:1027600001900020E9F73197AF01461B570BDC01C0
:10277000ED91FC910280F381E02D099480E090E0DE
:1027800008954F925F926F927F92EF92FF920F9314
:102790001F93CF93DF93CDB7DEB7A1970FB6F89411
:1027A000DEBF0FBECDBF7C01FA01CB0119A22230E2
:1027B00008F42AE08E010F5D1F4F422E512C612C30
:1027C000712CBF01A30192010E942E2DF901CA01B3
:1027D000015011096A3014F4605D01C0695CD801D0
:1027E0006C93232B242B252B61F7B801C7010E9482
:1027F000AC13A1960FB6F894DEBF0FBECDBFDF912C
:10280000CF911F910F91FF90EF907F906F905F900D
:102810004F9008950F931F93CF93DF93EC010E9485
:10282000AC138C0160EB72E0CE010E94AC13800F00
:10283000911FDF91CF911F910F9108950F931F93D7
:10284000CF93DF93EC010E9488138C0160EB72E060
:10285000CE010E94AC13800F911FDF91CF911F9189
:102860000F910895AF92BF92CF92DF92EF92FF92B5
:102870000F931F93CF93DF937C010E946816F7019B
:102880000585168527853089DC01CB01801B910BDE
:10289000A20BB30B853F9140A105B10508F462C0BE
:1028A00060E086E00E94500E60E088E00E94500EDA
:1028B00060E087E00E94500E85E00E94F8120E94BE
:1028C0008911EC019A8192FD40C094609A8397FD32
:1028D00036C05E0123E0A20EB11CC5010E94340D7A
:1028E00085E090E00E9490256C01FC01108214822A
:1028F00013828CE79BE09283818385E090E00E94C5
:1029000090258C018FEFF801808384E190E0928321
:102910008183D482C38285E090E00E949025FC01EF
:1029200083E0808388E290E0928381831483038331
:10293000FF83EE83FB8BEA8BC5010E94B90E64E630
:1029400073E08CEC93E00E941E14C701DF91CF91DD
:102950001F910F91FF90EF90DF90CF90BF90AF90BD
:102960000C94160BDF91CF911F910F91FF90EF9078
:10297000DF90CF90BF90AF9008951F920F920FB647
:102980000F9211242F933F934F935F936F937F93F5
:102990008F939F93AF93BF93EF93FF938CEC93E050
:1029A0000E946212FF91EF91BF91AF919F918F9121
:1029B0007F916F915F914F913F912F910F900FBE3B
:1029C0000F901F9018951F920F920FB60F9211241F
:1029D0002F938F939F93EF93FF93E091DC03F091FC
:1029E000DD038081E091E203F091E30382FD12C0F8
:1029F00090818091E5038F5F8F732091E6038217AA
:102A000051F0E091E503F0E0E453FC4F958F8093A3
:102A1000E50301C08081FF91EF919F918F912F91EC
:102A20000F900FBE0F901F90189508954F925F92D0
:102A30006F927F928F929F92AF92BF92CF92DF92CE
:102A4000EF92FF920F931F93CF93DF93CDB7DEB733
:102A500028970FB6F894DEBF0FBECDBF8C016A0178
:102A60007B010E9409164B015C01F801828D938D58
:102A7000A48DB58DA5019401281B390B4A0B5B0B66
:102A8000CA01B9010E945C2B9B01AC01D80156968A
:102A90006D937D938D939C935997F801828E938EBD
:102AA000A48EB58E1A968D919D910D90BC91A02DFE
:102AB00089839A83AB83BC8386879787A08BB18BEE
:102AC000C28AD38AE48AF58A82809380A480B58002
:102AD000C501B4010E94782A9B01AC01F80166830C
:102AE00077838087918760E070E080E89FEB0E94A9
:102AF000782A0E94F22A2B013C019B01AC0160E084
:102B000070E080E89FE30E94062AA70196010E94D8
:102B1000AE2C6D837E838F83988729813A814B8188
:102B20005C81C301B2010E94AE2C9B01AC016D819E
:102B30007E818F8198850E94072A2B013C01D80154
:102B40001A966D937D938D939C931D978D919C9177
:102B500081309105D1F14CF4892BA1F5A3019201AB
:102B6000C701B6010E94062A2AC082309105C9F029
:102B7000039741F5A3019201C701B6010E94062AFD
:102B80006B017C0120E034E244E759E4C501B40163
:102B90000E94782A9B01AC01C701B6010E94782AE5
:102BA0000EC020E034E244E759E4C501B4010E94BC
:102BB000782A9B01AC01C301B2010E94AE2C2B010B
:102BC0003C0103C0412C512C3201C301B2012896B3
:102BD0000FB6F894DEBF0FBECDBFDF91CF911F912E
:102BE0000F91FF90EF90DF90CF90BF90AF909F90AC
:102BF0008F907F906F905F904F90089582309105F5
:102C000038F0880F991F880F991F05970197F1F7E2
:102C100008953FB7F8948091EC049091ED04A09151
:102C2000EE04B091EF0426B5A89B05C02F3F19F024
:102C30000196A11DB11D3FBFBA2FA92F982F88273C
:102C4000820F911DA11DB11DBC01CD0142E0660F97
:102C5000771F881F991F4A95D1F708958F929F92E9
:102C6000AF92BF92CF92DF92EF92FF926B017C0105
:102C70000E9409164B015C01C114D104E104F10466
:102C8000F1F00E940916DC01CB0188199909AA0903
:102C9000BB09883E9340A105B10570F321E0C21A3B
:102CA000D108E108F10888EE880E83E0981EA11C87
:102CB000B11CC114D104E104F10419F7DDCFFF9078
:102CC000EF90DF90CF90BF90AF909F908F9008953E
:102CD0002FB7F8946091E8047091E9048091EA04B8
:102CE0009091EB042FBF08951F920F920FB60F9291
:102CF00011242F933F938F939F93AF93BF93809112
:102D0000E8049091E904A091EA04B091EB043091B9
:102D1000E70423E0230F2D3720F40196A11DB11DF8
:102D200005C026E8230F0296A11DB11D2093E704DC
:102D30008093E8049093E904A093EA04B093EB0431
:102D40008091EC049091ED04A091EE04B091EF0419
:102D50000196A11DB11D8093EC049093ED04A09306
:102D6000EE04B093EF04BF91AF919F918F913F918B
:102D70002F910F900FBE0F901F901895CF93DF9358
:102D8000CDB7DEB7E0970FB6F894DEBF0FBECDBF6C
:102D9000789484B5826084BD84B5816084BD85B536
:102DA000826085BD85B5816085BD80916E00816042
:102DB00080936E00109281008091810082608093E8
:102DC00081008091810081608093810080918000EA
:102DD0008160809380008091B10084608093B10015
:102DE0008091B00081608093B00080917A0084600F
:102DF00080937A0080917A00826080937A0080913B
:102E00007A00816080937A0080917A008068809354
:102E10007A001092C10086E00E94BE0D88E00E94F8
:102E2000BE0D87E00E94BE0D85E00E94BE0DE091C0
:102E3000DC03F091DD0382E08083E091D803F09120
:102E4000D9031082E091DA03F091DB0380E1808303
:102E50001092E403E091E003F091E10386E08083C7
:102E6000E091DE03F091DF03808180618083E09157
:102E7000DE03F091DF03808188608083E091DE03D0
:102E8000F091DF03808180688083E091DE03F09120
:102E9000DF0380818F7D808367E772E08CEC93E0B5
:102EA0000E941E148CEB9CE6ABE1B7E480937303A5
:102EB00090937403A0937503B093760381E080939D
:102EC000960300915603109157038CE393E0D801C9
:102ED00013969C938E93129780913C0390913D039F
:102EE00020913E0330913F038217930711F00E9417
:102EF000BE0D80913E0390913F0320913C033091A1
:102F00003D032817390711F00E94BE0DFFB6F89453
:102F100080911403811124C0ECE3F3E08491E0E597
:102F2000F3E09491E82FF0E0EE0FFF1FE85DFC4F17
:102F3000A591B491EC91E92321F461E08AE00E942B
:102F4000500E8AE00E94BE0D8CB580618CBD8CB5A0
:102F500080648CBD8DE00E94BE0D8BE00E94BE0D92
:102F6000809114038F5F80931403FFBE60E08CE3B5
:102F700093E00E945D0661E08CE393E00E946906A5
:102F800065E070E080E090E00E942E164CE060E08A
:102F90008CE393E00E9456074FE564E08CE393E0F6
:102FA0000E94560782E090E00E94140E882319F0D8
:102FB00081E08093420366E08CE393E00E94B107D6
:102FC000F82E80E090E00E94140E8CE393E00E94C3
:102FD000840680E50E94870683E70E9487068CE3CB
:102FE00093E00E94810640E06DE18CE393E00E9453
:102FF000560740E06CE18CE393E00E945607109284
:10300000440340E767E08CE393E00E9456074CE4FA
:1030100065E08CE393E00E94560762EE8CE393E058
:103020000E9437078CE393E00E9453078CE393E000
:103030000E94D10760E08CE393E00E94B107482F23
:103040004E7F60E08CE393E00E9456078FEF8F0D78
:103050008E3F08F08CC04FEF64E08CE393E00E9459
:10306000560740E06DE18CE393E00E94560740E094
:103070006CE18CE393E00E9456071092440380E1D8
:103080008093430382E08BA31CA21DA21EA21FA259
:1030900018A619A61AA620914A03AE014D5D5F4FEE
:1030A0006AE08CE393E00E947A0720914A03AE0124
:1030B0004D5D5F4F60E18CE393E00E947A074091A1
:1030C000430361E18CE393E00E945607FF24F394ED
:1030D000FB8E1C8E1D8E1E8E1F8E18A219A21AA288
:1030E000E9EFF0E0649120914A03AE01455E5F4F45
:1030F0008CE393E00E947A07E3EFF0E06491409163
:1031000043038CE393E00E94560762E08CE393E074
:103110000E94B107EDEEF0E0E49141E050E001C023
:10312000440FEA95EAF7482B62E08CE393E00E94B3
:10313000560766E08CE393E00E94B107887F482F32
:10314000416066E08CE393E00E94560780E090E0E7
:103150000E94140E8CE393E00E94EA07F801F286C5
:103160006AE071E08CEC93E00E941E1409C06EEFDF
:1031700070E08CEC93E00E941E14D8011A961C9209
:10318000C8010E941C0FE0915603F09157038285FD
:10319000811107C066E171E08CEC93E00E941E147F
:1031A000E7C0028113816FEFC8010E943707282F03
:1031B00030E0982F91701F929F9335952795277037
:1031C00033273F932F9384FB992790F91F929F9366
:1031D00085FB992790F91F929F9386FB992790F979
:1031E0001F929F931F928F9382E291E09F938F9300
:1031F0000E94082722E04AE06DE172E0C8010E94C7
:103200008E0624E04CE060E172E0C8010E943008C4
:1032100021E040E167E072E0C8010E948E0626E0EE
:1032200041E16CEF71E0C8010E94300821E041E00B
:1032300065EF71E0C8010E94300821E042E06BEECA
:1032400071E0C8010E94300821E045E064EE71E0C1
:10325000C8010E94300821E046E06BED71E0C80132
:103260000E94300821E040E063ED71E0C8010E9457
:10327000300822E04CE165EC71E0C8010E943008A2
:1032800066E0C8010E94B10788720FB6F894DEBFED
:103290000FBECDBF803241F021E090E0883009F0D0
:1032A00020E0E22FF92F02C0E2E0F0E0EE0FFF1F76
:1032B000E154FE4F859194919F938F938DEA91E015
:1032C0009F938F930E940827D8011696EC91F0E007
:1032D000EE0FFF1FE755FE4F859194919F938F93BB
:1032E0008AE991E09F938F930E94082760E0C801CC
:1032F0000E94B107F82E61E0C8010E94B1070FB625
:10330000F894DEBF0FBECDBFF3FC02C0882329F0C6
:10331000F2FC06C0E1E0F0E005C0E0E0F0E002C051
:10332000E2E0F0E0EE0FFF1FEC56FE4F8591949126
:103330009F938F9381E891E09F938F930E9408273A
:1033400066E0C8010E94B1078670E82FF0E0E758F8
:10335000FE4F859194919F938F9388E691E09F9380
:103360008F930E9408270FB6F894DEBF0FBECDBF23
:10337000E0919A03F0919B0382E08283F0936303D0
:10338000E0936203A0916403B091650333E0AC362F
:10339000B30791F0109721F09D961C921E929C9776
:1033A0008EE593E090939903809398038CE693E0E5
:1033B0009093650380936403309721F08CE593E04C
:1033C00096A785A7A0916403B0916503109731F08B
:1033D0008EE593E09D969C938E939C97A0916803B5
:1033E000B0916903109731F080E693E01C969C93AE
:1033F0008E931B9764A580916603909167030E944A
:1034000018118091660390916703E0916803F09131
:1034100069032481211103C00E94D6100AC0DC0177
:1034200012962C9112972F7E12962C9387960E94BB
:10343000340D0E94681660933803709339038093AB
:103440003A0390933B0381E190E00E9490257C0138
:10345000FC01128288E090E09683858310861782B3
:1034600088E390E00E949025D70114969C938E9358
:1034700013971A961C921A97809115039091160330
:10348000019690931603809315031C969C938E933C
:103490001B9789E291E08D939C93F7011586168620
:1034A0001786108A62E672E08CEC93E00E94881323
:1034B00067E472E08CEC93E00E948813D701ED91F1
:1034C000FC910480F581E02DB7019E012F5F3F4FF5
:1034D0006901C9010995C6010E945D10BC018CEC0F
:1034E00093E00E94AC13C6010E94D90862E472E026
:1034F0008CEC93E00E948813D7011B964D915C9150
:103500001C9760E070E02AE08CEC93E00E94C1130D
:1035100069E372E08CEC93E00E948813F70142812A
:1035200050E060E070E02AE08CEC93E00E94C11370
:103530006FE272E08CEC93E00E948813D701ED916A
:10354000FC910084F185E02DC70109955C01FC0127
:10355000248135813E8B2D8B285F3F4F3C8B2B8BFD
:1035600087E0F82FF29FC001F39F900D11240E9475
:1035700090259A8B898B812C912C612C712C8D89B3
:103580009E8968167906C8F4D5016D917C91680D05
:10359000791D89899A89880D991D009739F08601CE
:1035A0002FEF3FEF40E050E00E947810BFEF6B1A22
:1035B0007B0AE7E08E0E911CE2CFA988BA88E7E08B
:1035C0009E2E2D893E89929EC001939E900D1124BE
:1035D00029893A89820F931FA816B90679F18E01BD
:1035E000055D1F4F2FEF3FEF40E050E0B501C601F2
:1035F0000E947810C6010E945D10BC018CEC93E023
:103600000E94AC13C6010E94D9082D893E89929E62
:10361000C001939E900D1124079729893A89820F42
:10362000931FA816B90631F06CE272E08CEC93E0BF
:103630000E948813F7E0AF0EB11CC3CF6AE272E0BC
:103640008CEC93E00E941E14CE0141960E94090961
:10365000D701ED91FC910684F785E02D61E0C7016B
:103660000995D701ED91FC910088F189E02DC70102
:103670000995823009F074C00E94EE0A8C01E114B1
:10368000F10409F47EC0FC01868097805401FFEFAD
:10369000AF1ABF0A8A149B0408F059C0DC011496C3
:1036A0002D913C9115972A153B0598F5C401099673
:1036B0002817390770F512966C90129713967C9024
:1036C000139715969C938E931497880F991F0E94B9
:1036D0009025F80193838283D30140E050E04815A0
:1036E0005905A1F0F801828193819A01220F331FBD
:1036F000FC01E20FF31F309729F08D919C911197F7
:10370000918380834F5F5F4F1296E9CFC3010E9480
:103710002526D80116968D919C9117979C01220F12
:10372000331F8A159B0578F4D8011296ED91FC9110
:103730001397E20FF31F309711F0F182E0820196A8
:103740002E5F3F4FEECFF801B782A6821AC0A814B1
:10375000B904B8F4DC011796BC92AE92169711C06A
:10376000D701ED91FC91813031F40288F389E02D8D
:10377000C701099506C00488F589E02D63E0C701FB
:1037800009956CE472E08CEC93E00E9488138091C0
:10379000F0049091F104B601681B790B8CEC93E076
:1037A0000E94DD0D6BE672E08CEC93E00E948813C2
:1037B0008091F0049091F104B601681B790B8CECB8
:1037C00093E00E94DD0D35E4A32E31E0B32E4AE5EF
:1037D000842E912C1E01BEE22B0E311C0E94681615
:1037E000009138031091390320913A0330913B0343
:1037F000DC01CB01801B910BA20BB30B883B9B40E0
:10380000A105B1059CF08091000190910101019604
:1038100090930101809300010E9468166093380321
:103820007093390380933A0390933B0300919A037A
:1038300010919B03D80112968C91823009F062C0DE
:103840000E946816F8014380548065807680DC0110
:10385000CB0184199509A609B70981159440A105E2
:10386000B10508F44FC08EE00E949C0E97FD0396B0
:10387000BC017595679575956795072E000C880BAB
:10388000990B0E945C2BAB01BC01C8010B960E94F6
:1038900016150E94242BAB01440F551F440F551FD2
:1038A000F801878190858417950719F1D80118963A
:1038B0005C934E9317979D968D919C919E97009740
:1038C00041F0DC01ED91FC910480F581E02DB8011F
:1038D0000995F80124A587819085222309F4B4C1B4
:1038E0008935934030F0D8019C961C92C8010E9403
:1038F000B50C0E946816D80113966D937D938D9335
:103900009C93169700915A0310915B03C80103968C
:103910000E94400DC80145960E94400DC80187963F
:103920000E94400DE0905803F09059038CEC93E016
:103930000E944C12181619060CF062C08CEC93E031
:103940000E942A12F701668177818A3019F08D3042
:1039500009F041C0672B09F448C08E010F5E1F4F6C
:103960002FEF3FEF40E050E0B7016E5F7F4FC601A1
:103970000E94781060E872E08CEC93E00E9488135B
:10398000C6010E945D108C01BC018CEC93E00E948A
:103990000A140E943910B8010E94280FC6010E9423
:1039A000D908D70116964D915C91179760E070E0A9
:1039B0002AE08CEC93E00E94C11360EB72E08CEC87
:1039C00093E00E94AC13F70186819781892B69F0FF
:1039D000178216820AC08FA76F5F7F4FAE01415DCD
:1039E0005F4FC70102960E949F08D70116968D91DE
:1039F0009C911797419720F017961C921E9216974C
:103A00006AE070E080E090E00E942E16009156037C
:103A100010915703F8018285882309F4BAC067E141
:103A2000828193810E94B10780FF16C13BC0C7010C
:103A30000E94810640E767E0C7010E945607C8015F
:103A40000E941C0FE4E0D8011996EC931997149684
:103A50008C911497811114C0F1E01496FC93FEA789
:103A6000BA8AA98A1A8E198E1C8B0B8B988E8F8A14
:103A70003E8A2D8ABE016F5E7F4FC8010E94DC0E18
:103A8000BA8AA98A1A8E198E1C8B0B8B2BE530E013
:103A9000388F2F8BDE8ACD8ABE016F5E7F4FC801C3
:103AA0000E94DC0E0E946816D80115964D905D901C
:103AB0006D907C9018971A962C911A97222309F4EE
:103AC00068C09B01AC012419350946095709290131
:103AD0003A0119968C91811102C060E01CC08130BE
:103AE00091F4293E33404105510508F441C061E09D
:103AF000C8010E94FB0FC8010E941C0FF8018185BC
:103B00008F5F818735C0823051F4293E33404105B3
:103B1000510570F162E0C8010E94FB0F1FC08330A5
:103B200039F5293E33404105510510F1F8018481F2
:103B30008823A1F014821DA6BA82A9821A8619864A
:103B40001C830B8398868F822DE230E02C0F3D1F63
:103B50003E832D83B601C8010E94DC0EC8010E947D
:103B60001C0FD80119968C9119978F5F19968C9319
:103B7000F8018185843069F4F1EE4F16FEE25F06AC
:103B80006104710430F0D80119961C92C8010E949A
:103B90001C0FE0915403F0915503E280F3800681FD
:103BA0001781000F111F0E0D1F1DE016F10661F0A9
:103BB000F701819191917F01DC01ED91FC910484E9
:103BC000F585E02D0995F1CF809196038823C9F101
:103BD0000E946816E091970300919103109192035F
:103BE0002091930330919403AB01BC01401B510B16
:103BF000620B730B20918F0330919003E29FC00101
:103C0000E39F900D1124A0E0B0E0481759076A0720
:103C10007B07B8F0E11151C080916E030E949C0EA9
:103C2000BC01990F880B990B0E945C2BAB01BC0166
:103C300081E793E00E941615809197038F5F809330
:103C400097030E94EC12CACD8F34934008F051CEF6
:103C500021E0F80124A74ACED8011296ED90FC90FD
:103C60001397F7018781803130F120E1D701189651
:103C70009C91911103C0582E521A01C0512CC701BA
:103C800028AB0E94840681E60E948706360128A997
:103C9000215040F08FEF28AB0E948706F3018193FB
:103CA0003F01F5CF752C772009F4C1CE8FEF0E942C
:103CB00087067A94F8CF282FD9CF80916E030E947F
:103CC0009C0EBC01990F880B990B0E945C2BAB01D9
:103CD000BC0181E793E00E9416150E942B2B2091D6
:103CE0006F033091700326173707D1F0709370037C
:103CF00060936F033CA72BA7809198039091990341
:103D0000009771F0DC01ED91FC910480F581E02DCC
:103D10009E01255D3F4F40E050E06CE673E0099561
:103D2000109297030E946816609391037093920318
:103D3000809393039093940384CF089508952F92D2
:103D40003F924F925F926F927F928F929F92AF922B
:103D5000BF92DF92EF92FF920F931F93CF93DF9367
:103D6000CDB7DEB766970FB6F894DEBF0FBECDBFF6
:103D7000DC0118962D913C9119976217730709F091
:103D8000A6C1FB019E8B8D8B83809480FC010285F4
:103D90001385F6E08F16910408F4AAC0D801129694
:103DA0008C91129787FD5BC1806812968C931801E5
:103DB000B5E12B0E311CC1010E94340D85E090E06D
:103DC0000E9490253C01FC0110821482138289E13B
:103DD000E82EF12CF282E18285E090E00E949025AD
:103DE0002C01DD24DA94DC01DC929BE4A92EB12CB9
:103DF0001296BC92AE92119714967C926E92139783
:103E000085E090E00E9490253C01FC011082B28286
:103E1000A1825482438285E090E00E9490252C018B
:103E2000DC01DC921296FC92EE92119714967C9231
:103E30006E92139785E090E00E9490253C01FC0172
:103E40001082B282A1825482438285E090E00E9477
:103E500090252C01DC01DC921296FC92EE921197D7
:103E600014967C926E92139785E090E00E949025C4
:103E70003C01FC011082B282A1825482438285E01F
:103E800090E00E9490252C01DC01DC921296FC92BD
:103E9000EE92119714967C926E92139785E090E0C3
:103EA0000E9490253C01FC011082B282A1825482C2
:103EB000438285E090E00E949025FC01D082F2824E
:103EC000E18274826382D80159969C938E935897AD
:103ED00095969C938E939497C1010E94B90EC80148
:103EE00087960E94340DC80103960E94340DB7C016
:103EF000F801828187FFB3C08F7782837801F5E173
:103F0000EF0EF11CC7010E94340DD80112968C915E
:103F100082FF3FC03801B3E06B0E711CC3010E94E9
:103F2000340D85E090E00E9490252C01FC01108268
:103F3000148213828CE79BE09283818385E090E07A
:103F40000E9490255C018FEFD5018C9384E190E075
:103F500012969C938E93119714965C924E9213979F
:103F600085E090E00E949025FC0183E0808388E258
:103F700090E092838183B482A382D8011796FC9348
:103F8000EE9316975396FC93EE935297C3010E94BB
:103F9000B90EF801828184FF31C03801F7E26F0E5B
:103FA000711CC3010E94340D85E090E00E949025B1
:103FB0005C01DC011C9214961C921E92139784EFF4
:103FC00091E012969C938E93119785E090E00E9469
:103FD0009025FC018FEF80838AEF90E092838183AC
:103FE000B482A382D8019B96FC93EE939A97D796BE
:103FF000FC93EE93D697C3010E94B90EF80182811B
:1040000086FF2DC0C7010E94340D85E090E00E941C
:1040100090255C01DC011C9214961C921E92139751
:104020008EE997E012969C938E93119785E090E02D
:104030000E949025FC018FEF808382E390E09283C1
:104040008183B482A382D8015996FC93EE9358974A
:104050009596FC93EE939497C7010E94B90E88E45D
:1040600096E5A1E3B0E0898B9A8BAB8BBC8BB40156
:1040700080E090E00E945A2B2CE032E043E550E4CF
:104080000E94AE2C21ED3BEC48EE5DE30E94782AC5
:104090000E942B2B7F936F93CE0141969F938F931A
:1040A00080ED92E09F938F938E010F5F1F4F1F93C0
:1040B0000F930E94692DB801ED89FE89848595854D
:1040C0000E94280F0FB6F894DEBF0FBECDBF6696D4
:1040D0000FB6F894DEBF0FBECDBFDF91CF911F9119
:1040E0000F91FF90EF90DF90BF90AF909F908F90D7
:1040F0007F906F905F904F903F902F900895029720
:104100000C949F1E0C94252602970C9482200497F1
:104110000C9482208F929F92AF92BF92CF92DF92A7
:10412000EF92FF920F931F93CF93DF93CDB7DEB73C
:10413000EC970FB6F894DEBF0FBECDBFFB014281F6
:104140005381FC01248535854217530709F0B0C11E
:10415000FB01DC01268137812A35310509F4CAC00B
:104160002B35310509F0A4C1E480F5806BE872E0DD
:104170008CEC93E00E948813B7018CEC93E00E94D2
:104180000A148E010F5F1F4FA801B701CE01C4961C
:104190000E94BA0338E0E32EF12CF8AAEFA61AAA7F
:1041A00019AA88E090E00E9490259EA78DA7F9A605
:1041B000E8A61BA61AA688E390E00E9490259FA37C
:1041C0008EA3C0909704D0909804E0919304F0914E
:1041D0009404ACA9BDA9CF018C0D9D1DE817F9076A
:1041E00009F49DC031912D913217C1F34FC08CAFAE
:1041F0006BA17CA16F5F7F4FAE01445C5F4FCE012E
:104200004F960E949F08FFEFCF1ADF0A28AD39AD05
:104210008CA99DA9820F931FE816F90649F0F701B2
:1042200081917F018D3319F7C114D10409F084C045
:104230002BA13CA12115310529F12150310941E083
:1042400050E0BE01615E7F4FC8010E944A0CE9A8A0
:10425000FAA86D817E816E0D7F1D188EAE01485EBD
:104260005F4FCE018D960E949F084D815E816981CE
:104270007A818DA59EA58E0D9F1D0E949703C80172
:104280000E94D908CE014F960E94D90866EB74E0CF
:10429000CE018D960E94DE08892BF9F481E493E427
:1042A000A2E5B0E0898B9A8BAB8BBC8BCE0141969B
:1042B0009F938F9389ED92E09F938F931F930F931A
:1042C0000E94692D0E943910B8010E94280F0F909A
:1042D0000F900F900F900F900F90CE0186960E9436
:1042E0000909CE018D960E94D908CE01C4960E947C
:1042F000D908DEC01A968D919C911B970480F58198
:10430000E02D2081211103C00E94D610D1C0FC01F4
:1043100022812F7E228387960E94340DC9C0A80176
:1043200062EB72E0CE014F960E94BA03ECA8FDA8A2
:10433000F2E0EF0EF11C6ACF6FEFC61AD60A2150D9
:104340003109A601BE016C5C7F4FCE0148960E94E8
:104350004A0CAE01455C5F4F69E471E0CE014196C5
:104360000E94BA032D893E898C8D9D8D82179307FB
:1043700020F4EE24EA94FE2C21C001965C01A21ADE
:10438000B30AE12CF12CEA14FB0499F32D893E8940
:10439000A701BE01685E7F4FC8010E944A0CB801A8
:1043A000CE0141960E94DE084C01C8010E94D90846
:1043B000892821F08FEFE81AF80AE5CFCE0141965F
:1043C0000E94D908EF20E09409F45AC08C8D9D8D8D
:1043D000E88DF98DE12CF12CE816F90651F02191C8
:1043E0002C3219F4C12CD12C18C02FEFE21AF20A8A
:1043F000F3CFEE24EA94FE2CF5CFEFEFEE1AFE0A8F
:10440000E216F30658F5FC01EE0DFF1D60816C32DB
:10441000A1F76FEFE616F60609F1FFEFEF16FF06BC
:1044200009F441C097012C193D09A601BE01685E3F
:104430007F4FC8010E944A0CB801CE0186960E94A7
:10444000740BC8010E94D908A7014F5F5F4F6A0132
:104450002C8D3D8D888D998D7A01D2CFBE01685EFD
:104460007F4FC8010E944A0CB801CE0186960E9477
:10447000740BC8010E94D908EE24EA94FE2CCDCF1B
:1044800028AD39AD21503109A601BE016C5C7F4FCA
:10449000C8010E944A0CB801CE0186960E94740B96
:1044A000C8010E94D908CE0148960E94D908C0CE02
:1044B000EC960FB6F894DEBF0FBECDBFDF91CF9163
:1044C0001F910F91FF90EF90DF90CF90BF90AF9032
:1044D0009F908F90089504970C948A200F931F93B8
:1044E000CF93DF931F92CDB7DEB70CEC13E01092A1
:1044F000CF031092CE0388EE93E0A0E0B0E080936B
:10450000D0039093D103A093D203B093D3038EE74B
:1045100091E09093CD038093CC0385EC90E0909351
:10452000D9038093D80384EC90E09093DB038093CD
:10453000DA0380EC90E09093DD038093DC0381EC60
:1045400090E09093DF038093DE0382EC90E0909301
:10455000E1038093E00386EC90E09093E303809383
:10456000E2031092E5031092E6031092E703109223
:10457000E803AE014F5F5F4F65EE72E080EE94E0BE
:104580000E94BA03AE014F5F5F4F68EE72E089EDA3
:1045900094E00E94BA03AE014F5F5F4F6BEE72E092
:1045A00082ED94E00E94BA03AE014F5F5F4F60EF6F
:1045B00072E08BEC94E00E94BA03AE014F5F5F4F54
:1045C00064EF72E084EC94E00E94BA03AE014F5FA6
:1045D0005F4F68EF72E08DEB94E00E94BA03AE018A
:1045E0004F5F5F4F6CEF72E086EB94E00E94BA037E
:1045F000AE014F5F5F4F60E073E08FEA94E00E948E
:10460000BA03AE014F5F5F4F64E073E088EA94E065
:104610000E94BA03AE014F5F5F4F68E073E081EA2A
:1046200094E00E94BA03AE014F5F5F4F6CE073E00D
:104630008AE994E00E94BA03AE014F5F5F4F60E1E8
:1046400073E083E994E00E94BA03E1E2F0E0F093C2
:104650008104E093800410928204109283041092EB
:10466000840446E050E060E070E04093850450939D
:1046700086046093870470938804109289041092D2
:104680008A0410928B0410928C0420E220938D04F3
:1046900010928F0410928E04109292048BE694E094
:1046A00090939104809390048EE192E090936A0439
:1046B0008093690488E292E090937E0480937D0465
:1046C00010926F0410926E04109271041092700494
:1046D0001092730410927204109275041092740474
:1046E0001092770410927604109279041092780454
:1046F0008CEF91E090936C0480936B0410937C0496
:1047000000937B0430E130937A04F093BA03E09392
:10471000B9031092BB031092BC031092BD034093E7
:10472000BE035093BF036093C0037093C103109204
:10473000C2031092C3031092C4031092C5032093C6
:10474000C6031092C8031092C7031092CB031092B5
:10475000A0031092A1031092A2031092A30324EAD3
:1047600033E03093CA032093C90326EA31E0309343
:104770009F0320939E0320EB31E03093B7032093F7
:10478000B6031092A8031092A7031092AA031092E6
:10479000A9031092AC031092AB031092AE031092D7
:1047A000AD031092B0031092AF031092B2031092B7
:1047B000B1039093A5038093A4031093B5030093D2
:1047C000B40388E08093B30310939D0300939C038C
:1047D00068E075E080E295E00E94BD2680912B03A1
:1047E00090912C03892B09F040C08FE290E00E9449
:1047F00090258C018CE892E0F801918380831282ED
:1048000013821482158216821086178212861186F0
:1048100081E090E0948783878BEE97E4A2ECB9E483
:1048200085879687A787B08B80E090E0ACECB2E4F8
:10483000858B968BA78BB08F818F928FA38FB48F30
:10484000858F968FA78FB0A30E940916F80165A3E4
:1048500076A387A390A712A611A613A614A616A640
:1048600015A610932C0300932B0380912B0390919A
:104870002C0390939B0380939A038CEA92E090938D
:104880006D0380936C038FE080936E03109270032E
:1048900010926F0381E090E0909372038093710314
:1048A00084E991EFA6E4B5E48093730390937403D5
:1048B000A0937503B093760310927B0310927C0350
:1048C00010927D0310927E0310927F03109280035A
:1048D000109281031092820310928303109284033A
:1048E00010928503109286030E94091660938B0331
:1048F00070938C0380938D0390938E0380E690E0F9
:104900009093900380938F031092910310929203DF
:10491000109293031092940381E080939503809307
:104920009603109297031092990310929803809126
:10493000270390912803892BE1F483E090E00E9403
:1049400090258C0184E892E0F8019183808382E0D5
:10495000828384E00E94BE0DF8018281882329F0C1
:10496000128260E084E00E94500E109328030093AE
:104970002703809127039091280390936B038093E2
:104980006A038AE492E090935D0380935C038AE576
:1049900092E090935F0380935E0384E692E09093AD
:1049A000610380936003109263031092620310927C
:1049B0006503109264030E948911909367038093AA
:1049C00066030E94391090936903809368030E94E4
:1049D000891190935B0380935A03809129039091EE
:1049E0002A03892BC9F489E090E00E9490258C016C
:1049F00088E392E0F8019183808388E090E09583DA
:104A00008483178216820E949025F8019383828303
:104A100010932A03009329038091290390912A037C
:104A200090935903809358030E9439109093570331
:104A3000809356030E94EE0A90935503809354038B
:104A400089E090E090933D0380933C038AE090E0FE
:104A500090933F0380933E031092420380E2809341
:104A600043031092440385E080934A0385E090E07D
:104A7000A0E0B0E08093500390935103A0935203C1
:104A8000B0935303109245030E9468166093380355
:104A90007093390380933A0390933B030F90DF9117
:104AA000CF911F910F9108958CE593E00E94E5014D
:104AB0008EE993E00E945A0589E694E00E94B805C9
:104AC00083E994E00E94D9088AE994E00E94D90819
:104AD00081EA94E00E94D90888EA94E00E94D9080B
:104AE0008FEA94E00E94D90886EB94E00E94D908EE
:104AF0008DEB94E00E94D90884EC94E00E94D908E0
:104B00008BEC94E00E94D90882ED94E00E94D908D1
:104B100089ED94E00E94D90880EE94E00C94D908C5
:104B2000CF93DF938230910510F482E090E0E09122
:104B3000F204F091F30420E030E0C0E0D0E03097E0
:104B400011F14081518148175907C0F048175907A2
:104B500061F482819381209719F09B838A832BC013
:104B60009093F3048093F20426C02115310519F0C7
:104B70004217530718F49A01BE01DF01EF010280CA
:104B8000F381E02DDCCF2115310509F1281B390B0C
:104B90002430310590F412968D919C9113976115F4
:104BA000710521F0FB019383828304C09093F30489
:104BB0008093F204FD01329644C0FD01E20FF31F21
:104BC00081939193225031092D933C933AC02091C7
:104BD000F0043091F104232B41F420910501309130
:104BE00006013093F1042093F004209103013091E9
:104BF00004012115310541F42DB73EB7409107015D
:104C000050910801241B350BE091F004F091F10460
:104C1000E217F307A0F42E1B3F0B2817390778F093
:104C2000AC014E5F5F4F2417350748F04E0F5F1FF2
:104C30005093F1044093F0048193919302C0E0E01B
:104C4000F0E0CF01DF91CF9108950F931F93CF93A1
:104C5000DF93009709F48CC0FC0132971382128213
:104C60000091F2041091F3040115110581F42081E3
:104C70003181820F931F2091F0043091F1042817A5
:104C8000390779F5F093F104E093F00471C0D8018D
:104C900040E050E0AE17BF0750F412962D913C91C2
:104CA0001397AD012115310509F1D901F3CF9D010C
:104CB000DA013383228360817181860F971F821707
:104CC000930769F4EC0128813981260F371F2E5F85
:104CD0003F4F318320838A819B8193838283452B3D
:104CE00029F4F093F304E093F20442C01396FC938A
:104CF000EE931297ED01499159919E01240F351FB2
:104D0000E217F30771F480819181840F951F029659
:104D100011969C938E938281938113969C938E938C
:104D20001297E0E0F0E0D80112968D919C911397D4
:104D3000009719F0F8018C01F6CF8D919C919801A4
:104D40002E5F3F4F820F931F2091F0043091F104AA
:104D50002817390769F4309729F41092F304109258
:104D6000F20402C0138212821093F1040093F00443
:104D7000DF91CF911F910F9108950F931F93CF93C0
:104D8000DF93009731F46115710519F480E090E02C
:104D90003AC08B01EC016EE070E081E090E00E948F
:104DA0000029FC01892B91F380E88383011511050B
:104DB00071F01387028781E883838091F4049091D6
:104DC000F504892B21F4F093F504E093F404209783
:104DD000C9F0D187C0878381826083838091F60484
:104DE0009091F704892B71F4F093F704E093F604A3
:104DF0008091F8049091F904892B21F4F093F9043F
:104E0000E093F804CF01DF91CF911F910F910895A6
:104E1000A0E0B0E0EEE0F7E20C94DD29AE01495FDE
:104E20005F4FDA016D917D91AD0104EF14E0F8015F
:104E300082819381DC0113962C911397286013963D
:104E40002C930E942E27D8011296ED91FC91139776
:104E50002381277F2383E4E00C94F929ACE0B0E0C0
:104E6000E4E3F7E20C94CF297C016B018A01FC0199
:104E700017821682838181FFBDC1CE0101964C014C
:104E8000F7019381F60193FD859193FF81916F0165
:104E9000882309F4ABC1853239F493FD859193FFE2
:104EA00081916F01853229F4B70190E00E94392980
:104EB000E7CF512C312C20E02032A0F48B3269F066
:104EC00030F4803259F0833269F420612CC08D3285
:104ED00039F0803339F4216026C02260246023C079
:104EE000286021C027FD27C030ED380F3A3078F414
:104EF00026FF06C0FAE05F9E300D1124532E13C02A
:104F00008AE0389E300D1124332E20620CC08E3280
:104F100021F426FD6BC1206406C08C3611F4206894
:104F200002C0883641F4F60193FD859193FF81918B
:104F30006F018111C1CF982F9F7D9554933028F434
:104F40000C5F1F4FFFE3F9830DC0833631F08337C9
:104F500071F0833509F05BC022C0F801808189833C
:104F60000E5F1F4F44244394512C540115C0380147
:104F7000F2E06F0E711CF801A080B18026FF03C023
:104F8000652D70E002C06FEF7FEFC5012C870E9496
:104F90002E292C0183012C852F77222E17C0380152
:104FA000F2E06F0E711CF801A080B18026FF03C0F3
:104FB000652D70E002C06FEF7FEFC5012C870E9466
:104FC0001C292C012C852068222E830123FC1BC068
:104FD000832D90E048165906B0F4B70180E290E0C6
:104FE0000E9439293A94F4CFF50127FC859127FED8
:104FF00081915F01B70190E00E94392931103A9404
:10500000F1E04F1A51084114510471F7E5C084369C
:1050100011F0893639F5F80127FF07C060817181E9
:10502000828193810C5F1F4F08C060817181072EC0
:10503000000C880B990B0E5F1F4F2F76722E97FF77
:1050400009C090958095709561957F4F8F4F9F4FC8
:105050002068722E2AE030E0A4010E947129A82E57
:10506000A81844C0853729F42F7EB22E2AE030E0FC
:1050700025C0F22FF97FBF2E8F36C1F018F4883586
:1050800079F0B4C0803719F0883721F0AFC02F2FE6
:105090002061B22EB4FE0DC08B2D8460B82E09C0E5
:1050A00024FF0AC09F2F9660B92E06C028E030E08A
:1050B00005C020E130E002C020E132E0F801B7FE97
:1050C00007C060817181828193810C5F1F4F06C090
:1050D0006081718180E090E00E5F1F4FA4010E940B
:1050E0007129A82EA818FB2DFF777F2E76FE0BC006
:1050F000372D3E7FA51450F474FE0AC072FC08C020
:10510000372D3E7E05C0BA2C372D03C0BA2C01C006
:10511000B52C34FF0DC0FE01EA0DF11D80818033F6
:1051200011F4397E09C032FF06C0B394B39404C0B1
:10513000832F867809F0B39433FD13C030FF06C087
:105140005A2CB31418F4530C5B18B32CB31468F432
:10515000B70180E290E03C870E943929B3943C85F6
:10516000F5CFB31410F43B1801C0312C34FF12C03A
:10517000B70180E390E03C870E9439293C8532FFEB
:1051800017C031FD03C088E790E002C088E590E0D9
:10519000B7010CC0832F867859F031FF02C08BE233
:1051A00001C080E237FD8DE2B70190E00E9439290D
:1051B000A51438F4B70180E390E00E9439295A948D
:1051C000F7CFAA94F401EA0DF11D8081B70190E0B8
:1051D0000E943929A110F5CF332009F451CEB7012F
:1051E00080E290E00E9439293A94F6CFF701868157
:1051F000978102C08FEF9FEF2C96E2E10C94EB2990
:105200000F931F93CF93DF93869F8001879F100D8D
:10521000969F100D1124C8010E949025EC01009763
:1052200029F0A80160E070E00E942729CE01DF91FB
:10523000CF911F910F910895FC010590615070402E
:105240000110D8F7809590958E0F9F1F0895DC016F
:1052500001C06D9341505040E0F70895FC0161504A
:10526000704001900110D8F7809590958E0F9F1F88
:1052700008950F931F93CF93DF93FB01238121FDAB
:1052800003C08FEF9FEF28C022FF16C046815781D1
:10529000248135814217530744F4A081B1819D01D7
:1052A0002F5F3F4F318320838C93268137812F5F7F
:1052B0003F4F3783268310C0EB01092F182F00843E
:1052C000F185E02D0995892BE1F68E819F8101966C
:1052D0009F838E83812F902FDF91CF911F910F910C
:1052E0000895FA01AA27283051F1203181F1E8947C
:1052F0006F936E7F6E5F7F4F8F4F9F4FAF4FB1E0C9
:105300003ED0B4E03CD0670F781F891F9A1FA11DC3
:10531000680F791F8A1F911DA11D6A0F711D811DC4
:10532000911DA11D20D009F468943F912AE0269F89
:1053300011243019305D3193DEF6CF010895462FE8
:105340004770405D4193B3E00FD0C9F7F6CF462FC9
:105350004F70405D4A3318F0495D31FD4052419332
:1053600002D0A9F7EACFB4E0A695979587957795EF
:105370006795BA95C9F700976105710508959B0176
:10538000AC010A2E06945795479537952795BA95FF
:10539000C9F7620F731F841F951FA01D08952F92D8
:1053A0003F924F925F926F927F928F929F92AF92B5
:1053B000BF92CF92DF92EF92FF920F931F93CF9302
:1053C000DF93CDB7DEB7CA1BDB0B0FB6F894DEBF99
:1053D0000FBECDBF09942A88398848885F846E84BF
:1053E0007D848C849B84AA84B984C884DF80EE8009
:1053F000FD800C811B81AA81B981CE0FD11D0FB612
:10540000F894DEBF0FBECDBFED0108955058BB2705
:10541000AA270E941E2A0C94F92B0E94EB2B38F02D
:105420000E94F22B20F039F49F3F19F426F40C94DB
:10543000C12B0EF4E095E7FB0C94BB2BE92F0E94E7
:105440000A2C58F3BA17620773078407950720F0F0
:1054500079F4A6F50C942C2C0EF4E0950B2EBA2FB3
:10546000A02D0B01B90190010C01CA01A00111246A
:10547000FF27591B99F0593F50F4503E68F11A1616
:10548000F040A22F232F342F4427585FF3CF4695A7
:1054900037952795A795F0405395C9F77EF41F16C9
:1054A000BA0B620B730B840BBAF09150A1F0FF0F93
:1054B000BB1F661F771F881FC2F70EC0BA0F621F7F
:1054C000731F841F48F4879577956795B795F7956F
:1054D0009E3F08F0B0CF9395880F08F09927EE0F04
:1054E0009795879508950E94972B08F481E0089579
:1054F0000E948C2A0C94F92B0E94F22B58F00E94E7
:10550000EB2B40F029F45F3F29F00C94BB2B511199
:105510000C942D2C0C94C12B0E940A2C68F3992317
:10552000B1F3552391F3951B550BBB27AA2762179F
:105530007307840738F09F5F5F4F220F331F441FAC
:10554000AA1FA9F335D00E2E3AF0E0E832D09150E0
:105550005040E695001CCAF72BD0FE2F29D0660FCD
:10556000771F881FBB1F261737074807AB07B0E810
:1055700009F0BB0B802DBF01FF2793585F4F3AF016
:105580009E3F510578F00C94BB2B0C942D2C5F3F63
:10559000E4F3983ED4F3869577956795B795F7959C
:1055A0009F5FC9F7880F911D9695879597F9089584
:1055B000E1E0660F771F881FBB1F62177307840720
:1055C000BA0720F0621B730B840BBA0BEE1F88F72F
:1055D000E095089529F416F00C94BB2B0C942C2C18
:1055E0000C94C12B0E94122CA8F39638A0F707F850
:1055F0000F92E8942BE33AEA48EB5FE70E94C42C51
:105600000F920F920F924DB75EB70F920E947A2CB5
:10561000E8E6F0E00E94C42B4F915F91EF91FF917B
:10562000E595EE1FFF1F49F0FE57E0684427EE0F97
:10563000441FFA95E1F74195550B0E94442C0F90B9
:1056400007FE0C94382C08950E942B2B6894B111FE
:105650000C942D2C08950E94122C88F09F5798F0DE
:10566000B92F9927B751B0F0E1F0660F771F881F67
:10567000991F1AF0BA95C9F714C0B13091F00E9481
:105680002C2CB1E008950C942C2C672F782F8827B0
:10569000B85F39F0B93FCCF3869577956795B395A8
:1056A000D9F73EF490958095709561957F4F8F4F17
:1056B0009F4F0895E89409C097FB3EF4909580951C
:1056C000709561957F4F8F4F9F4F9923A9F0F92FC8
:1056D00096E9BB279395F695879577956795B79546
:1056E000F111F8CFFAF4BB0F11F460FF1BC06F5F2C
:1056F0007F4F8F4F9F4F16C0882311F096E911C03E
:10570000772321F09EE8872F762F05C0662371F05E
:1057100096E8862F70E060E02AF09A95660F771F72
:10572000881FDAF7880F9695879597F90895990F4E
:105730000008550FAA0BE0E8FEEF16161706E8075B
:10574000F907C0F012161306E407F50798F0621B7C
:10575000730B840B950B39F40A2661F0232B242B51
:10576000252B21F408950A2609F4A140A6958FEF70
:10577000811D811D089597F99F6780E870E060E0C2
:1057800008959FEF80EC0895DF93CF931F930F93BD
:10579000FF92EF92DF927B018C01689406C0DA2EB3
:1057A000EF010E94C12CFE01E894A591259135914D
:1057B00045915591A6F3EF010E941E2AFE01970123
:1057C000A801DA9469F7DF90EF90FF900F911F9195
:1057D000CF91DF91089500240A9416161706180633
:1057E0000906089500240A941216130614060506E5
:1057F0000895092E0394000C11F4882352F0BB0F76
:1058000040F4BF2B11F460FF04C06F5F7F4F8F4FD8
:105810009F4F089557FD9058440F551F59F05F3F13
:1058200071F04795880F97FB991F61F09F3F79F0C2
:1058300087950895121613061406551FF2CF469544
:10584000F1DF08C0161617061806991FF1CF8695C6
:105850007105610508940895E894BB2766277727AA
:10586000CB0197F908950E94972B08F48FEF0895C4
:105870009B01AC0160E070E080E89FE30C94782A23
:105880000C94BB2B0C94202D0E94122CD8F399233E
:10589000C9F3940F511DA3F39150504094F059F067
:1058A000882332F0660F771F881F91505040C1F750
:1058B0009E3F51052CF7880F911D9695879597F976
:1058C00008955F3FACF0983E9CF0BB278695779596
:1058D0006795B79508F4B1609395C1F7BB0F58F77A
:1058E00011F460FFE8CF6F5F7F4F8F4F9F4FE3CF83
:1058F0000C942D2CFA01DC01AA0FBB1F9B01AC01FB
:10590000BF5728F4222733274427507820C0B751A7
:1059100090F4AB2F0024469537952795011CA3954D
:10592000D2F3002071F0220F331F441FB395DAF336
:105930000ED00C94062A61307105A0E88A07B9469A
:1059400030F49B01AC016627772788279078309642
:1059500021F0208331834283538308950E94C12C18
:105960000C94F92B0E94EB2B38F00E94F22B20F0C4
:10597000952311F00C94BB2B0C94C12B11240C9487
:105980002D2C0E940A2C70F3959FC1F3950F50E0C7
:10599000551F629FF001729FBB27F00DB11D639FE1
:1059A000AA27F00DB11DAA1F649F6627B00DA11D87
:1059B000661F829F2227B00DA11D621F739FB00D2D
:1059C000A11D621F839FA00D611D221F749F33279D
:1059D000A00D611D231F849F600D211D822F762F36
:1059E0006A2F11249F5750409AF0F1F088234AF013
:1059F000EE0FFF1FBB1F661F771F881F915050407F
:105A0000A9F79E3F510580F00C94BB2B0C942D2CD4
:105A10005F3FE4F3983ED4F3869577956795B79505
:105A2000F795E7959F5FC1F7FE2B880F911D96951F
:105A3000879597F908950E94972B880B990B0895E5
:105A40009F3F31F0915020F4879577956795B795F2
:105A5000880F911D9695879597F90895A1E21A2EC2
:105A6000AA1BBB1BFD010DC0AA1FBB1FEE1FFF1F02
:105A7000A217B307E407F50720F0A21BB30BE40B52
:105A8000F50B661F771F881F991F1A9469F7609599
:105A90007095809590959B01AC01BD01CF01089553
:105AA000EE0FFF1F0590F491E02D099481E090E046
:105AB000F8940C948C2DFB01DC014150504030F0E7
:105AC0008D910190801919F40020B9F7881B990B6A
:105AD0000895AEE0B0E0EFE6FDE20C94DD290D891B
