:100000000C9482000C94AA000C94AA000C94AA00F0
:100010000C94AA000C94AA000C94AA000C94AA00B8
:100020000C94AA000C94AA000C94AA000C94AA00A8
:100030000C94AA000C94AA000C94AA000C94AA0098
:100040000C9420090C94AA000C9441050C941B05F7
:100050000C94AA000C94AA000C94AA000C94AA0078
:100060000C94AA000C94AA005D002C200020706162
:1000700072616D733A5B002069643A00434D44201D
:100080000045786563757465200046726565205289
:10009000414D203D20004F4B004672656520524186
:1000A0004D203D200052656365697665643A200005
:1000B0000000000800020100000304070000000027
:1000C0000000000000000000250028002B000000B8
:1000D0000000240027002A0004040404040404048B
:1000E00002020202020203030303030301020408E3
:1000F0001020408001020408102001020408102092
:10010000190EED0D11241FBECFEFD8E0DEBFCDBF1D
:1001100012E0A0E0B1E0ECEAF3E202C005900D923B
:10012000A838B107D9F723E0A8E8B2E001C01D92D2
:10013000A13EB207E1F710E0C1E8D0E004C021978A
:10014000FE010E94BE11C038D107C9F70E94910A72
:100150000C94C9110C940000CF92DF92EF92FF92A1
:100160000F931F93CF93DF936C017A018B01C0E053
:10017000D0E0CE15DF0589F0D8016D918D01D60153
:10018000ED91FC910190F081E02DC6010995892B3C
:1001900011F47E0102C02196ECCFC701DF91CF910F
:1001A0001F910F91FF90EF90DF90CF9008950895E9
:1001B00080E090E00895FC01538D448D252F30E0C0
:1001C000842F90E0821B930B541710F0CF96089564
:1001D00001970895FC01918D828D981761F0828DB1
:1001E000DF01A80FB11D5D968C91928D9F5F9F736B
:1001F000928F90E008958FEF9FEF0895FC01918D0D
:10020000828D981731F0828DE80FF11D858D90E079
:1002100008958FEF9FEF0895FC01918D228D892F16
:1002200090E0805C9F4F821B91098F7399270895FE
:100230008FEA92E00E940C0121E0892B09F420E072
:10024000822F0895FC01848DDF01A80FB11DA35AF0
:10025000BF4F2C91848D90E001968F739927848FE6
:10026000A689B7892C93A089B1898C9180648C93DD
:10027000938D848D981306C00288F389E02D8081C8
:100280008F7D80830895EF92FF920F931F93CF93FA
:10029000DF93EC0181E0888F9B8D8C8D981305C0D6
:1002A000E889F989808185FD24C0F62E0B8D10E048
:1002B0000F5F1F4F0F731127E02E8C8DE8120CC0BB
:1002C0000FB607FCFACFE889F989808185FFF5CF61
:1002D000CE010E942201F1CF8B8DFE01E80FF11DAE
:1002E000E35AFF4FF0820B8FEA89FB89808180629D
:1002F00007C0EE89FF896083E889F989808180647D
:10030000808381E090E0DF91CF911F910F91FF906A
:10031000EF900895CF93DF93EC01888D8823C9F087
:10032000EA89FB89808185FD05C0A889B9898C91FE
:1003300086FD0FC00FB607FCF5CF808185FFF2CF99
:10034000A889B9898C9185FFEDCFCE010E94220149
:10035000E7CFDF91CF91089580E090E0892B29F0DD
:100360000E94180181110C940000089508950895C9
:10037000089581E0089508950895FC0192859150B3
:1003800081E0923008F080E00895DC011A962C910B
:10039000261759F0FC0162870190F081E02D068854
:1003A000F789E02D099581E0089580E0089503968E
:1003B0000895CB0108957F928F929F92AF92BF9242
:1003C000CF92DF92EF92FF920F931F93CF93DF9321
:1003D000EC0149015A018B01C12CD12C7601C814C2
:1003E000D904EA04FB0484F5F80171908F018F852C
:1003F00080FF0BC0E881F9810084F185E02D20E1C8
:1004000044E060E070E0CE010995EB85FC858D85C8
:100410009E85E817F90738F470828B859C850196D4
:100420009C878B870BC0E881F981672D70E0028C77
:10043000F38DE02DCE010995019649F02FEFC21AF8
:10044000D20AE20AF20ACBCFB401C50102C0B6015A
:10045000C701DF91CF911F910F91FF90EF90DF9037
:10046000CF90BF90AF909F908F907F900895CF9343
:10047000DF93EC01E881F9810288F389E02D099589
:100480008F3F2FEF920731F02D813E812F5F3F4F3D
:100490003E832D83DF91CF9108958FEF9FEF0895D5
:1004A00060E070E0CB01089580E090E00895CB011A
:1004B0000895CF93DF93EC0188899989DC01ED9150
:1004C000FC910084F185E02D0995892BA9F3888999
:1004D0009989DC01ED91FC910284F385E02DDF9197
:1004E000CF910994CF93DF93EC0188899989DC013E
:1004F000ED91FC910084F185E02D0995892BA9F3FC
:1005000088899989DC01ED91FC910484F585E02DC1
:10051000DF91CF910994AF92BF92CF92DF92EF9289
:10052000FF920F931F93CF93DF9300D000D0CDB7EE
:10053000DEB78C015B01C12CD12C7601F8018089DA
:100540009189DC01ED91FC910284F385E02D2983F2
:100550003A834B835C83099529813A814B815C8185
:100560008F3F71F0C216D306E406F5064CF4D501B0
:100570008D935D01BFEFCB1ADB0AEB0AFB0ADECFDE
:10058000C701B6010F900F900F900F90DF91CF91A0
:100590001F910F91FF90EF90DF90CF90BF90AF90A1
:1005A0000895DC0150968D919C915197DC01ED915D
:1005B000FC910084F185E02D099480E090E008959D
:1005C00080E090E0089580E090E0089580E090E081
:1005D00008950895CF93DF93C091AB02D091AC0200
:1005E000E881F9810084F185E02DCE010995892B00
:1005F000B9F3E881F9810284F385E02DCE01DF9122
:10060000CF9109941F93CF93DF93182FC091AB0222
:10061000D091AC028A3041F4E881F9810190F081F7
:10062000E02D6DE0CE010995E881F9810190F0811E
:10063000E02D612FCE01099521E030E0019711F402
:1006400020E030E0C901DF91CF911F9108950F9311
:100650001F93CF93DF93CDB7DEB72C970FB6F894E7
:10066000DEBF0FBECDBF8C0161E086E00E940B0AA9
:1006700061E088E00E940B0A61E087E00E940B0ABB
:10068000D80151968C9151978230E9F1811104C0C3
:1006900093961C921E9292972FB7F8948091910294
:1006A00090919202A0919302B09194022FBFF80111
:1006B000808F918FA28FB38F82E0818B81E090E059
:1006C0009C878B87878590890097E9F022893389F9
:1006D000DC01ED91FC910480F581E02D46E251E0D2
:1006E0005A834983035F1F4F1C830B83AE01455F11
:1006F0005F4F5E834D8338872F831A861986BE012C
:100700006F5F7F4F099582E02C960FB6F894DEBF9D
:100710000FBECDBFDF91CF911F910F91089528E5B6
:1007200032E0FC0131832083828193810C94961006
:10073000CF93DF93EC010E948F03CE01DF91CF9125
:100740000C9496100C9496100C9496100C94961091
:10075000089508950C949610DC01ED91FC91369764
:1007600020813181820F931F0C94AA03FB01208109
:100770003181FC0131832083FB0142815381F901E6
:10078000369720813181FC01E20FF31F51834083B2
:1007900008952EEB31E0FC013183208328EC31E019
:1007A000318F208F6EEC71E00C94B603DC01ED917B
:1007B000FC91369720813181820F931F0C94C903DD
:1007C000CF93DF93EC010E94C903CE01DF91CF915B
:1007D0000C949610DC01ED91FC91369720813181CB
:1007E000820F931F0C94E0030C94961008950895C3
:1007F0000C949610DC01ED91FC91369720813181AB
:10080000820F931F0C94F803FB0120813181FC01BE
:1008100031832083FB0142815381F9013697208186
:100820003181FC01E20FF31F51834083089526E3D9
:1008300032E0FC013183208320E432E0358B248BCD
:1008400066E472E00C940404DC01ED91FC913697AF
:1008500020813181820F931F0C941704CF93DF9373
:10086000EC010E941704CE01DF91CF910C949610F9
:10087000DC01ED91FC91369720813181820F931F2D
:100880000C942E040C9496100F931F93CF93DF9328
:10089000EC01CB01088119817B836A830E940110DE
:1008A0009983888320E030E08C819D812817390767
:1008B00070F4E881F981E20FF31F309729F0D80135
:1008C000A20FB31F8C9180832F5F3F4FEDCFC801E4
:1008D000DF91CF911F910F910C9496100F931F935E
:1008E000CF93DF938C01EB016F3F8FEF780719F403
:1008F00080E090E00FC06A3031F46DE0F80180894B
:1009000091890E94B3096C2FF801808991890E9416
:10091000B309CE01DF91CF911F910F9108958F926E
:100920009F92BF92CF92DF92EF92FF920F931F930D
:10093000CF93DF9300D000D0CDB7DEB78C014B0151
:10094000C12CD12C7601C216D306E406F50644F577
:10095000F401B1904F01FAE0BF120EC06DE0F80152
:100960008089918929833A834B835C830E94B309F0
:100970005C814B813A8129816B2DF80180899189B5
:1009800029833A834B835C830E94B309FFEFCF1A1C
:10099000DF0AEF0AFF0A5C814B813A812981D3CFBC
:1009A000CA01B9010F900F900F900F90DF91CF9176
:1009B0001F910F91FF90EF90DF90CF90BF909F908D
:1009C0008F900895EF92FF920F931F93CF93DF9331
:1009D0008C017B01C0E0D0E0F701EC0FFD1F6491BA
:1009E000662361F0D801ED91FC910190F081E02D3A
:1009F000C8010995892B11F02196EECFCE01DF9128
:100A0000CF911F910F91FF90EF900895611571059F
:100A100079F0FB0101900020E9F73197AF01461B07
:100A2000570BDC01ED91FC910280F381E02D0994DC
:100A300080E090E008951F920F920FB60F9211245C
:100A40002F933F934F935F936F937F938F939F93D6
:100A5000AF93BF93EF93FF938FEA92E00E9422013E
:100A6000FF91EF91BF91AF919F918F917F916F9186
:100A70005F914F913F912F910F900FBE0F901F905C
:100A800018951F920F920FB60F9211242F938F93E8
:100A90009F93EF93FF93E091BF02F091C00280819A
:100AA000E091C502F091C60282FD12C09081809152
:100AB000C8028F5F8F732091C902821751F0E091B5
:100AC000C802F0E0E155FD4F958F8093C80201C048
:100AD0008081FF91EF919F918F912F910F900FBE89
:100AE0000F901F9018950895CF93DF9380918A02FD
:100AF00090918B02892BC9F489E090E00E9401104B
:100B0000EC0188E592E09983888388E090E09D83FA
:100B10008C831F821E8280E190E00E9401109B83E3
:100B20008A83D0938B02C0938A0280918A0290912B
:100B30008B02DF91CF910895EF92FF920F931F9355
:100B4000CF93DF93EC01E881F9810684F785E02DEE
:100B500063E009950E947405DC0112968D919C91C9
:100B6000139716962D913C911797A901440F551F85
:100B7000480F591FBC01FB016417750741F06E5FF8
:100B80007F4F008111810C171D07A9F702C0E0E01B
:100B9000F0E0CD2B31F1E81BF90BAF0155954795EE
:100BA000C9010197BF016E5F7F4F4817590790F445
:100BB0001296ED90FC9013974F5F5F4F8701060FE1
:100BC000171FE80108811981EE0DFF1D11830083B5
:100BD000FB01E8CF8217930720F417969C938E931E
:100BE0001697DF91CF911F910F91FF90EF9008958D
:100BF000CF93DF93FC012189223091F4EC0160E076
:100C000086E00E940B0A60E088E00E940B0A60E028
:100C100087E00E940B0ACE01DF91CF910C949C05D6
:100C2000DF91CF910895CF93DF93EC018AE091E0BB
:100C3000998388831A8288E090E09E838D8318864A
:100C40001F8288E390E00E9401109C838B831A86A8
:100C500080918802909189020196909389028093F5
:100C600088029C878B87DF91CF910895FC0180815A
:100C700091810C949610AF92BF92CF92DF92EF9237
:100C8000FF920F931F93CF93DF93FC012481358153
:100C90006217730708F56B01EC0187E0869F50012E
:100CA000879FB00C11248B01E12CF12C8C819D814C
:100CB0000817190778F4C7018A0D9B1D288139810F
:100CC000820F931F0E9436060F5F1F4FF7E0EF0E53
:100CD000F11CECCFDD82CC82DF91CF911F910F917F
:100CE000FF90EF90DF90CF90BF90AF900895EF927C
:100CF000FF920F931F93CF93DF937C0100E010E0EE
:100D0000C0E0D0E0F7012481358180819181C21754
:100D1000D30740F4800F911F0E9436062196095F89
:100D20001F4FF0CFDF91CF911F910F91FF90EF9068
:100D30000C949610CF93DF93EC0182E591E09983B8
:100D40008883CE010D960E9436068AE091E0998351
:100D50008883CE010396DF91CF910C947706CF93D1
:100D6000DF93EC010E949A06CE01DF91CF910C94A3
:100D700096102AE031E0FC013183208303960C9425
:100D80007706CF93DF93EC010E94B906CE01DF9185
:100D9000CF910C94961020E532E0FC012193319321
:100DA000CF010C943606CF93DF93EC010E94CB0663
:100DB000CE01DF91CF910C949610CF93DF93EC018D
:100DC0006C817D816F5F7F4F8A819B81861797073A
:100DD00018F4CE010E944404E881F9818C819D8140
:100DE000E80FF91F108288819981DF91CF910895D2
:100DF000089508950895EF92FF920F931F93CF9354
:100E0000DF93EC018C819D818617970710F57A019D
:100E10008B018A819B818617970740F4685F7F4F1B
:100E20008617970718F4CE010E9444048C819D8197
:100E30008017910758F4E881F981E80FF91F30977E
:100E400019F0D7012C9120830196F2CF1D830C83DA
:100E500005C06817790710F47D836C83DF91CF910B
:100E60001F910F91FF90EF900895CF92DF92EF9234
:100E7000FF920F931F93CF93DF931F92CDB7DEB7EF
:100E80008C016B0188E090E0D80113969C938E93BF
:100E9000129715961C921E9214970E940110F80149
:100EA00091838083C114D10449F1F601019000209F
:100EB000E9F731977F01EC18FD081982AE014F5F09
:100EC0005F4FB701C8010E94FB06D8012D913C91EC
:100ED00040E050E0BA01C701A0E0B0E04817590770
:100EE0006A077B0758F4F60111916F01F90111931C
:100EF0009F014F5F5F4F6F4F7F4FF0CF0F90DF919C
:100F0000CF911F910F91FF90EF90DF90CF900895B8
:100F10000F931F93CF93DF931F92CDB7DEB78C0152
:100F2000AE014F5F5F4F6CE572E00E943507C8016C
:100F30000F90DF91CF911F910F9108950F931F9301
:100F4000CF93DF931F92CDB7DEB78C01AE014F5F19
:100F50005F4F6FE572E00E943507C8010F90DF9187
:100F6000CF911F910F910895AF92BF92CF92DF92D0
:100F7000EF92FF920F931F93CF93DF931F92CDB702
:100F8000DEB78C016B017A01590188E090E0D8014D
:100F900013969C938E93129715961C921E921497FB
:100FA0000E940110F80191838083D60114968D91DF
:100FB0009C9115978E159F0510F40E94C4111982FB
:100FC000BC016E197F09A616B70608F4B501AE017B
:100FD0004F5F5F4FC8010E94FB06F8018481958135
:100FE000D601ED91FC91EE0EFF1EF80120813181BA
:100FF00040E050E0BA01A0E0B0E0481759076A07A6
:101000007B0758F4F70111917F01F90111939F01BA
:101010004F5F5F4F6F4F7F4FF0CF0F90DF91CF91BA
:101020001F910F91FF90EF90DF90CF90BF90AF9006
:1010300008954F925F926F927F928F929F92AF929C
:10104000BF92CF92DF92EF92FF920F931F93CF93B5
:10105000DF931F92CDB7DEB77C016B012A01FC0143
:10106000848195818617970708F071C022813381AA
:101070002617370708F03FC0CB0108962817390715
:10108000D0F5808091809383828327E0AC01249FF8
:10109000C001259F900D11240E940110F70191833A
:1010A00080835401612C712CF7018481958168162D
:1010B0007906F0F4F70120813181C5018819990979
:1010C000820F931F009751F08E010F5F1F4F2FEF7C
:1010D0003FEF40E050E0B5010E94B407C5010E9417
:1010E0003606FFEF6F1A7F0A47E0A40EB11CDCCF73
:1010F000C4010E949610F701A480B58087E08A9D04
:1011000030018B9D700C1124812C912CF701AC14B3
:10111000BD04D0F420813181C401860D971D820F5A
:10112000931F009751F08E010F5F1F4F2FEF3FEF7E
:1011300040E050E0B2010E94B407FFEFAF1ABF0ACF
:1011400047E0840E911CE2CFD582C48203C0C70160
:101150000E943B060F90DF91CF911F910F91FF905E
:10116000EF90DF90CF90BF90AF909F908F907F9047
:101170006F905F904F900895BF92CF92DF92EF9261
:10118000FF920F931F93CF93DF936C018B017C0130
:1011900083E0E80EF11C60E070E0C7010E943B06AE
:1011A000F801C081D18187E0B82EF8018481958152
:1011B000B89E9001B99E300D112480819181280F35
:1011C000391FC217D30759F0F601678170856F5F29
:1011D0007F4FAE01C7010E9419082796E6CFDF9125
:1011E000CF911F910F91FF90EF90DF90CF90BF9024
:1011F00008950E94C4113FB7F89480918D02909198
:101200008E02A0918F02B091900226B5A89B05C0D6
:101210002F3F19F00196A11DB11D3FBFBA2FA92F75
:10122000982F8827820F911DA11DB11DBC01CD01F2
:1012300042E0660F771F881F991F4A95D1F70895DE
:101240001F920F920FB60F9211242F933F938F93FB
:101250009F93AF93BF938091910290919202A0913E
:101260009302B091940230918C0223E0230F2D372A
:1012700020F40196A11DB11D05C026E8230F02969A
:10128000A11DB11D20938C02809391029093920234
:10129000A0939302B093940280918D0290918E025C
:1012A000A0918F02B09190020196A11DB11D809373
:1012B0008D0290938E02A0938F02B0939002BF9103
:1012C000AF919F918F913F912F910F900FBE0F90F3
:1012D0001F9018954F925F926F927F92EF92FF92BC
:1012E0000F931F93CF93DF93CDB7DEB7A1970FB6C0
:1012F000F894DEBF0FBECDBF7C01FA01CB0119A26D
:10130000223008F42AE08E010F5D1F4F422E512C2F
:10131000612C712CBF01A30192010E949C11F90163
:10132000CA01015011096A3014F4605D01C0695CA2
:10133000D8016C93232B242B252B61F7B801C7010F
:101340000E940605A1960FB6F894DEBF0FBECDBF72
:10135000DF91CF911F910F91FF90EF907F906F9051
:101360005F904F900895DC01ED91FC910190F08128
:10137000E02D0994CF92DF92EF92FF920F931F938B
:10138000CF93DF9377FF1DC06A017B01EC016DE213
:101390000E94B3098C0144275527BA014C195D09F5
:1013A0006E097F092AE0CE010E946A09800F911F11
:1013B000DF91CF911F910F91FF90EF90DF90CF9031
:1013C00008952AE0DF91CF911F910F91FF90EF9048
:1013D000DF90CF900C946A0990E0FC01E451FF4F3C
:1013E0002491FC01E852FF4F8491882399F090E00A
:1013F000880F991FFC01E253FF4FA591B491FC01A6
:10140000EC53FF4F859194918FB7F894EC91E22BB8
:10141000EC938FBF089590E0FC01E055FF4F3491AD
:10142000FC01E451FF4F2491FC01E852FF4FE4918D
:10143000EE2309F43BC0332339F1333091F038F413
:101440003130A9F0323001F584B58F7D12C03730CC
:1014500091F03830A1F03430B9F4809180008F7D64
:1014600003C0809180008F77809380000DC084B589
:101470008F7784BD09C08091B0008F7703C08091C1
:10148000B0008F7D8093B000F0E0EE0FFF1FEC53B3
:10149000FF4FA591B4918FB7F894EC91611103C0FF
:1014A00020952E2301C02E2B2C938FBF08958F9251
:1014B0009F92AF92BF92CF92DF92EF92FF926B0119
:1014C0007C010E94FB084B015C01C114D104E104C2
:1014D000F104F1F00E94FB08DC01CB0188199909A5
:1014E000AA09BB09883E9340A105B10570F321E02C
:1014F000C21AD108E108F10888EE880E83E0981E30
:10150000A11CB11CC114D104E104F10419F7DDCF11
:10151000FF90EF90DF90CF90BF90AF909F908F9013
:101520000895CF93DF93CDB7DEB761970FB6F894E8
:10153000DEBF0FBECDBF789484B5826084BD84B514
:10154000816084BD85B5826085BD85B5816085BDBE
:1015500080916E00816080936E0010928100809176
:1015600081008260809381008091810081608093FE
:101570008100809180008160809380008091B10023
:1015800084608093B1008091B00081608093B0004E
:1015900080917A00846080937A0080917A008260E2
:1015A00080937A0080917A00816080937A008091A4
:1015B0007A00806880937A001092C10086E00E94D1
:1015C000EC0988E00E94EC0987E00E94EC0961E0E8
:1015D00086E00E940B0A61E088E00E940B0A61E04D
:1015E00087E00E940B0AE091BF02F091C00282E006
:1015F0008083E091BB02F091BC021082E091BD02B9
:10160000F091BE028FEC80831092C702E091C3027A
:10161000F091C40286E08083E091C102F091C202A1
:10162000808180618083E091C102F091C20280815B
:1016300088608083E091C102F091C202808180685D
:101640008083E091C102F091C20280818F7D80830E
:1016500066E970E08FEA92E00E94E2046BE672E0D5
:101660008FEA92E00E94060564EF71E080E090E06E
:101670000E94570A60E086E00E940B0A60E088E062
:101680000E940B0A60E087E00E940B0A2FB7F894D3
:101690008091910290919202A0919302B091940254
:1016A0002FBF8093950290939602A0939702B093D8
:1016B000980284E290E00E9401107C010E941306CF
:1016C00086E391E0D70111969C938E938EE291E090
:1016D0001E969C938E931D9750961C921E921F9758
:1016E00051961C92519753961C921E925297F70155
:1016F000108E118E128E138E5C961D921D921D926D
:101700001C925F9781E090E091969C938E939097C6
:1017100093961C921E92929788EE93E0A0E0B0E020
:10172000848B958BA68BB78B61E870E08FEA92E093
:101730000E94E2046CE770E08FEA92E00E94E2040B
:10174000D701ED91FC910480F581E02DB701CE0128
:1017500001966C010995C6010E94DD06BC018FEA65
:1017600092E00E940605C6010E94360667E770E017
:101770008FEA92E00E94E204D7011B964D915C91A2
:101780001C9760E070E02AE08FEA92E00E946A090C
:101790006DE670E08FEA92E00E94E204D701ED91DD
:1017A000FC910084F185E02DC70109955C01FC01E5
:1017B000248135813D872C87285F3F4F3B872A87CF
:1017C00087E0F82FF29FC001F39F900D11240E9433
:1017D000011099878887812C912C612C712C8C8524
:1017E0009D8568167906C8F4D5016D917C91680DC8
:1017F000791D88859985880D991D009739F0860196
:101800002FEF3FEF40E050E00E94B407BFEF6B1AAC
:101810007B0AE7E08E0E911CE2CFA884B984A7E092
:101820009A2E2C853D85929EC001939E900D112489
:1018300028853985820F931FA816B90679F18E0184
:10184000015F1F4F2FEF3FEF40E050E0B501C601B1
:101850000E94B407C6010E94DD06BC018FEA92E037
:101860000E940605C6010E9436062C853D85929E83
:10187000C001939E900D1124079728853985820F0A
:10188000931FA816B90631F06AE670E08FEA92E07D
:101890000E94E204F7E0AF0EB11CC3CF68E670E02F
:1018A0008FEA92E00E94E2046BE672E08FEA92E037
:1018B0000E940605CE0108960E947706D701ED9199
:1018C000FC910684F785E02D61E0C7010995D701F9
:1018D000ED91FC910088F189E02DC70109950E94E6
:1018E00074058C01E114F10409F46CC0FC018680DC
:1018F00097805401FFEFAF1ABF0A8A149B0408F0C7
:1019000059C0DC0114962D913C9115972A153B0581
:1019100098F5C40109962817390770F512966C904E
:10192000129713967C90139715969C938E93149709
:10193000880F991F0E940110F80193838283D301BD
:1019400040E050E048155905A1F0F80182819381EB
:101950009A01220F331FFC01E20FF31F309729F089
:101960008D919C911197918380834F5F5F4F129669
:10197000E9CFC3010E949610D80116968D919C91D3
:1019800017979C01220F331F8A159B0578F4D80105
:101990001296ED91FC911397E20FF31F309711F01F
:1019A000F182E08201962E5F3F4FEECFF801B782C1
:1019B000A68208C0A814B90428F4DC011796BC92CA
:1019C000AE9216976AE870E08FEA92E00E94E20415
:1019D0008091D7039091D803A601481B590B052E7F
:1019E000000C660B770B8FEA92E00E94BA096BE657
:1019F00072E08FEA92E00E9406053DE0732E42E518
:101A0000A42E41E0B42E58E0E52EF12C60E3662EC2
:101A10000091A4021091A5028091A8029091A902C0
:101A2000880F991F2091A4023091A502820F931F65
:101A30000817190761F0F801819191918F01DC017C
:101A4000ED91FC910484F585E02D0995E5CF8FEAB1
:101A500092E00E940C01181619060CF0B5C08FEA2E
:101A600092E00E94EA00898B60919F027091A0022F
:101A70008A3019F08D3009F09EC06115710509F4A6
:101A8000A3C079826F5F7F4FA6018BE992E00E942D
:101A9000FB068E01005F1F4F2FEF3FEF40E050E04D
:101AA0006BE972E0CE0108960E94B40765EA70E027
:101AB0008FEA92E00E94E204CE0108960E94DD06C1
:101AC0004C01BC018FEA92E00E9406056BE672E0D1
:101AD0008FEA92E00E94060584E190E00E940110E6
:101AE0008C010E941306F801B182A082F08AE78679
:101AF000128A118A88E090E00E940110D8011E9697
:101B00009C938E931D976F86FC82EB821E821D82B2
:101B100088E090E00E9401109A838983AE01415FC2
:101B20005F4F61E070E0C6010E94FB06F80167812B
:101B300070856F5F7F4FA601C80103960E94190848
:101B4000C6010E94360680919F029091A002892BC7
:101B500021F01092A00210929F0269E970E08FEAD2
:101B600092E00E94E2048091D7039091D803A601ED
:101B7000481B590B052E000C660B770B8FEA92E081
:101B80000E94BA096BE672E08FEA92E00E940605B5
:101B90000115110541F0D801ED91FC910280F3810E
:101BA000E02DC8010995C4010E949610CE01089647
:101BB0000E94360609C06F5F7F4FAE014F5E5F4FD8
:101BC0008BE992E00E94FB066AE070E080E090E022
:101BD0000E94570A0E94AC011BCF89E992E00E9443
:101BE000CB0682EA92E00E948F038EE493E00E948B
:101BF000C9038CE793E00E94170486EA93E00E94F1
:101C000036068DEA93E00E94360684EB93E00E944C
:101C100036068BEB93E00E94360682EC93E00E943E
:101C2000360689EC93E00E94360680ED93E00C9432
:101C30003606EF92FF920F931F93CF93DF931F927D
:101C4000CDB7DEB70FEA12E01092B2021092B102E5
:101C500088EE93E0A0E0B0E08093B3029093B402EA
:101C6000A093B502B093B60286E991E09093B002DA
:101C70008093AF0285EC90E09093BC028093BB020E
:101C800084EC90E09093BE028093BD0280EC90E0E3
:101C90009093C0028093BF0281EC90E09093C202C7
:101CA0008093C10282EC90E09093C4028093C302BF
:101CB00086EC90E09093C6028093C5021092C80211
:101CC0001092C9021092CA021092CB02AE014F5F6D
:101CD0005F4F6EE672E080ED93E00E943507AE0143
:101CE0004F5F5F4F61E772E089EC93E00E94350738
:101CF000AE014F5F5F4F64E772E082EC93E00E94B9
:101D00003507AE014F5F5F4F69E772E08BEB93E001
:101D10000E943507AE014F5F5F4F6DE772E084EBC5
:101D200093E00E943507AE014F5F5F4F61E872E0BC
:101D30008DEA93E00E943507AE014F5F5F4F65E883
:101D400072E086EA93E00E943507E1E2F0E0F0936A
:101D50009403E093930310929503109296031092CC
:101D6000970346E050E060E070E0409398035093A2
:101D7000990360939A0370939B0310929C031092B3
:101D80009D0310929E0310929F0320E22093A003D4
:101D90001092A2031092A1031092A5038EE793E084
:101DA0009093A4038093A30386E392E090937D0332
:101DB00080937C0380E492E090939103809390035E
:101DC0001092820310928103109284031092830375
:101DD0001092860310928503109288031092870355
:101DE00010928A031092890310928C0310928B0335
:101DF00084E192E090937F0380937E0310938F039E
:101E000000938E0330E130938D03F0936A03E093E7
:101E1000690310926B0310926C0310926D03409350
:101E20006E0350936F03609370037093710310926D
:101E3000720310927303109274031092750320932F
:101E40007603109278031092770310927B0310921E
:101E5000500310925103109252031092530324E541
:101E600033E030937A03209379032EEB31E0309303
:101E70004F0320934E0328EC31E030936703209307
:101E80006603109258031092570310925A0310924F
:101E9000590310925C0310925B0310925E03109240
:101EA0005D031092600310925F0310926203109220
:101EB000610390935503809354031093650300933B
:101EC000640388E0809363031092AE021092AD0227
:101ED0001093AC020093AB026AEE72E082E093E0F2
:101EE0000E942E119093AE028093AD020E94740561
:101EF0007C0188E592E09093A3028093A202F7010F
:101F0000068117811093A9020093A802C8010896C0
:101F10009093A7028093A602880F991F0E94011038
:101F20009093A5028093A40240E050E0401751072F
:101F3000B9F0F701A281B3819A01220F331FA20FDA
:101F4000B31FE091A402F091A502E20FF31F3097B6
:101F500021F08D919C91918380834F5F5F4FE6CFFD
:101F600080914C0390914D03892BC9F489E090E056
:101F70000E9401108C0180E592E0F801918380833A
:101F800088E090E095838483178216820E94011076
:101F9000F8019383828310934D0300934C03609167
:101FA0004C0370914D0380E592E090939A028093E8
:101FB00099026E5F7F4F8E010F5F1F4F2FEF3FEF34
:101FC00040E050E08BE992E00E94B4072FB7F8940C
:101FD0008091910290919202A0919302B09194020B
:101FE0002FBF8093950290939602A0939702B0938F
:101FF00098020F90DF91CF911F910F91FF90EF907A
:102000000895CF93DF938230910510F482E090E041
:10201000E091D903F091DA0320E030E0C0E0D0E0B5
:10202000309711F14081518148175907C0F0481786
:10203000590761F482819381209719F09B838A83E9
:102040002BC09093DA038093D90326C02115310564
:1020500019F04217530718F49A01BE01DF01EF018E
:102060000280F381E02DDCCF2115310509F1281B19
:10207000390B2430310590F412968D919C91139771
:102080006115710521F0FB019383828304C0909355
:10209000DA038093D903FD01329644C0FD01E20FBB
:1020A000F31F81939193225031092D933C933AC0B1
:1020B0002091D7033091D803232B41F420910201C2
:1020C000309103013093D8032093D703209100016E
:1020D000309101012115310541F42DB73EB74091F2
:1020E000040150910501241B350BE091D703F091B9
:1020F000D803E217F307A0F42E1B3F0B281739076C
:1021000078F0AC014E5F5F4F2417350748F04E0F53
:102110005F1F5093D8034093D7038193919302C0DC
:10212000E0E0F0E0CF01DF91CF9108950F931F938E
:10213000CF93DF93009709F48CC0FC013297138290
:1021400012820091D9031091DA030115110581F46F
:1021500020813181820F931F2091D7033091D803C2
:102160002817390779F5F093D803E093D70371C0A6
:10217000D80140E050E0AE17BF0750F412962D9101
:102180003C911397AD012115310509F1D901F3CF28
:102190009D01DA013383228360817181860F971F4D
:1021A0008217930769F4EC0128813981260F371FC4
:1021B0002E5F3F4F318320838A819B81938382836B
:1021C000452B29F4F093DA03E093D90342C0139628
:1021D000FC93EE931297ED01499159919E01240FC2
:1021E000351FE217F30771F480819181840F951FE9
:1021F000029611969C938E938281938113969C9361
:102200008E931297E0E0F0E0D80112968D919C91A8
:102210001397009719F0F8018C01F6CF8D919C91DE
:1022200098012E5F3F4F820F931F2091D70330916B
:10223000D8032817390769F4309729F41092DA0384
:102240001092D90302C0138212821093D803009314
:10225000D703DF91CF911F910F9108950F931F9393
:10226000CF93DF93009731F46115710519F480E085
:1022700090E03AC08B01EC016EE070E081E090E00C
:102280000E947911FC01892B91F380E88383011569
:10229000110571F01387028781E883838091DB0346
:1022A0009091DC03892B21F4F093DC03E093DB03B2
:1022B0002097C9F0D187C087838182608383809112
:1022C000DD039091DE03892B71F4F093DE03E0933C
:1022D000DD038091DF039091E003892B21F4F093DB
:1022E000E003E093DF03CF01DF91CF911F910F91C6
:1022F00008950F931F93CF93DF93869F8001879F4D
:10230000100D969F100D1124C8010E940110EC01C0
:10231000009729F0A80160E070E00E949511CE01BD
:10232000DF91CF911F910F910895DC0101C06D9352
:1023300041505040E0F70895A1E21A2EAA1BBB1BA2
:10234000FD010DC0AA1FBB1FEE1FFF1FA217B30781
:10235000E407F50720F0A21BB30BE40BF50B661F97
:10236000771F881F991F1A9469F76095709580955B
:1023700090959B01AC01BD01CF010895EE0FFF1FA9
:102380000590F491E02D099481E090E0F8940C948C
:10239000C91110E0C1E8D0E004C0FE010E94BE11E6
:0C23A0002196C238D107C9F7F894FFCF8E
:1023AC000000E103800000000000000000009E0718
:1023BC00BC08D701BD01B701C501F9089C05BC01DA
:1023CC00BB0100000000B601A20300000000730571
:1023DC00A40300000000B906C1069E07BC08D70183
:1023EC00BD01F805C50127039C05BC01BB0100001C
:1023FC0000009A06AF068807BC08D701BD01B801DA
:10240C00C501B9019C05BC01BB011800000000000E
:10241C0000000000E8FFE8FF0000000000001400CE
:10242C000000000000000000ECFFECFF00000000CA
:10243C000000000000004301AC00DB008A010C012D
:10244C00EA00FE00060000000000A803AA03FAFF41
:10245C00FAFF0000A903AC03180000000000C90338
:10246C00E003E8FFE8FF0000D603EA03BE017001B9
:10247C007A01C80100000000F806A603E902E60292
:10248C00E302E002DD02540250024D023702570211
:10249C00DB01D901020000000000F603F803FEFF87
:1024AC00FEFF0000F703FA0300000000FA064204E6
:1024BC0000000000F906F403E902E602E302E00280
:1024CC00DD02D1028B027202590257028F046E0494
:1024DC0014000000000017042E04ECFFECFF0000B9
:1024EC0024043804360284018E01400200000000EE
:1024FC00CB06D306000000008F039803455200550D
:10250C006E6B6E6F776E20434D44000D0A00425483
:10251C0000485600534554530053455400544C53F3
:08252C000054425A0041540022
:00000001FF
