:100000000C94BB010C94E3010C94E3010C94E30108
:100010000C94E3010C94E3010C94E3010C9425137C
:100020000C94E3010C94E3010C94E3010C94E301C0
:100030000C94E3010C94E3010C94E3010C94E301B0
:100040000C9474160C94E3010C94E3140C94BD14FA
:100050000C94E3010C94E3010C94E3010C94E30190
:100060000C94E3010C94E30107634236B79BD8A7D5
:100070001A39685618AEBAAB558C1D3CB7CC5763CD
:10008000BD6DEDFD753EF6177231BF000000803F7B
:1000900050415F4D41580050415F4849474800502A
:1000A000415F4C4F570050415F4D494E0031362063
:1000B0006269747300382062697473004469736103
:1000C000626C6564006E524632344C30312B006EE7
:1000D000524632344C3031003235304B42505300AE
:1000E000324D42505300314D425053000001020343
:1000F00004051112131415160A0B0C0D0E0F526184
:1001000064696F204552524F5200526164696F20FA
:10011000426567696E00526164696F204552524FB3
:1001200052005354415455530909203D203078253D
:100130003032782052585F44523D25782054585F21
:1001400044533D2578204D41585F52543D25782039
:1001500052585F505F4E4F3D25782054585F4655AA
:100160004C4C3D25780D0A00504120506F77657248
:1001700009203D2025530D0A00A6009F00970090FE
:1001800000435243204C656E67746809203D20256A
:10019000530D0A00BC00B500AD004D6F64656C09DD
:1001A00009203D2025530D0A00CF00C5004461748D
:1001B00061205261746509203D2025530D0A00E637
:1001C00000E000D80044594E50442F464541545554
:1001D000524500434F4E464947090052465F53453A
:1001E0005455500052465F43480900454E5F5258EF
:1001F0004144445200454E5F4141090052585F500E
:10020000575F50302D360054585F41444452090026
:1002100052585F414444525F50322D350052585F6E
:10022000414444525F50302D31005D002C200020AD
:10023000706172616D733A5B0020736F75726365F4
:100240003A002069643A00434D44200046726565D7
:100250002052414D20616674657220434D44203D1B
:1002600020004578656375746520004672656520D9
:1002700052414D203D2000534C415645204F4B00EC
:1002800052656365697665643A2000536C617665F2
:10029000205246204D657373616765205265636522
:1002A000697665643A2000562050657263656E7405
:1002B0006167653A200020566F6C746167653A206B
:1002C00000426174746572792056616C75653A20DC
:1002D000004261747465727920416C61726D2053C3
:1002E000746174653A20000D0A00203078253032A0
:1002F0007800255309203D000D0A00253032780092
:1003000020307800255309203D000000000800023D
:1003100001000003040700000000000000000000CE
:100320000000250028002B0000000000240027000A
:100330002A00040404040404040402020202020267
:100340000303030303030102040810204080010299
:100350000408102001020408102052462053656E44
:10036000743A20005748495445206368616E6765B8
:1003700000026E22382511241FBECFEFD8E0DEBF69
:10038000CDBF13E0A0E0B1E0EAEDFAE502C00590D0
:100390000D92A430B107D9F724E0A4E0B3E001C086
:1003A0001D92A03DB207E1F711E0CAEBD1E004C015
:1003B0002197FE010E94242DC93BD107C9F70E9455
:1003C000BE160C94602D0C9400000895CF92DF921D
:1003D000EF92FF920F931F93FB01DC0100E010E00E
:1003E00098016A01E12CF12C0C151D052E053F0525
:1003F00038F461916D930F5F1F4F2F4F3F4FF4CF34
:10040000840F951F1F910F91FF90EF90DF90CF9079
:100410000895089508950895FC019285915081E012
:10042000923008F080E00895DC011A962C9126178E
:1004300059F0FC0162870190F081E02D0688F78970
:10044000E02D099581E0089580E0089503960895D0
:100450000F931F93CF938C010E943910FC011186DA
:100460000E941C0F61E086E00E94500E61E088E06F
:100470000E94500E61E087E00E94500E80910201C0
:10048000853021F08F3F09F0D8C004C0E1E7F3E0E8
:10049000C49174C085E080930201E1E7F3E0E49148
:1004A000EF3F09F4CAC0E13011F1E23009F442C073
:1004B000E11163C014BC15BC84B5826084BD85B5F0
:1004C000816085BDE7E3F3E0E491F0E0EE0FFF1F0C
:1004D000E25EFC4F8591949190930E0380930D03FF
:1004E000EBE4F3E0E491E0930C03C0E049C0109228
:1004F000800010928100809181008860809381004B
:1005000080918100816080938100E7E3F3E0E491D2
:10051000F0E0EE0FFF1FE25EFC4F85919491909307
:100520000B0380930A03EBE4F3E0E491E093090307
:10053000C1E026C01092B0001092B1008091B000CE
:1005400082608093B0008091B10081608093B1009F
:10055000E7E3F3E0E491F0E0EE0FFF1FE25EFC4F13
:10056000859194919093220380932103EBE4F3E02F
:10057000E491E0932303C2E003C0CE2FC7FD5DC02A
:1005800085E00E94BE0DCC2351F0C23001F5809170
:10059000B100887F82608093B10089EF3BC085B550
:1005A000887F826085BD89EF87BD80ED97E0A0E000
:1005B000B0E08093130390931403A0931503B093BA
:1005C000160380916E00826080936E0036C0C13049
:1005D000F1F480918100887F8160809381008FECAD
:1005E00097E0909389008093880080ED97E0A0E0E9
:1005F000B0E080930F0390931003A0931103B09386
:10060000120380916F00826080936F0016C0C23029
:10061000A1F48FEC8093B30080ED97E0A0E0B0E010
:100620008093240390932503A0932603B09327037C
:10063000809170008260809370000E946816F801BB
:10064000658776878787908B82E0CF911F910F9186
:1006500008950F931F93CF93DF931F92CDB7DEB70B
:100660008C01AE014F5F5F4F6CEB72E00E942E0970
:10067000C8010F90DF91CF911F910F9108950F93B3
:100680001F93CF93DF931F92CDB7DEB78C01AE01DE
:100690004F5F5F4F60EC72E00E942E09C8010F901F
:1006A000DF91CF911F910F910895CF93DF93EC01CC
:1006B0008DE491E0998388838091070390910803EA
:1006C000009739F0DC01ED91FC910280F381E02D7F
:1006D00009958A819B81DF91CF910C94F925CF9365
:1006E000DF93EC010E945503CE01DF91CF910C9472
:1006F000F9250C94F9250C94F925AF92BF92CF926D
:10070000DF92EF92FF920F931F93CF93DF93FC0141
:10071000248135816217730708F56B01EC0187E0CE
:10072000869F5001879FB00C11248B01E12CF12C86
:100730008C819D810817190778F4C7018A0D9B1DCC
:1007400028813981820F931F0E9406090F5F1F4F76
:10075000F7E0EF0EF11CECCFDD82CC82DF91CF9180
:100760001F910F91FF90EF90DF90CF90BF90AF90CF
:1007700008952DE031E0FC013183208303960C9431
:100780000B09CF93DF93EC010E94B903CE01DF91F7
:10079000CF910C94F925CF93DF938091070390912B
:1007A0000803892BC9F489E090E00E946425EC01DC
:1007B0008DE491E09983888388E090E09D838C8329
:1007C0001F821E8280E190E00E9464259B838A83C1
:1007D000D0930803C0930703809107039091080307
:1007E000DF91CF910895EF92FF920F931F93CF93D4
:1007F000DF938C01DC01ED91FC910684F785E02DFF
:1008000063E009950E94CB03EC010115110509F481
:1008100041C0EA81FB814E815F81CA01880F991F27
:100820008E0F9F1FDF01A817B90741F02D913D9151
:1008300020173107C1F321933193F5CF8A819B8132
:100840009F01281B390BB90175956795AE1BBF0B2E
:10085000CD0195958795FA01E81BF90BCF01681733
:10086000790798F4EA81FB817F01E20EF31E87018C
:100870000A0F1B1FF80100811181F701118300830A
:100880006F5F7F4F2E5F3F4FEACF8417950710F4BD
:100890009F838E83DF91CF911F910F91FF90EF90F7
:1008A00008954F925F926F927F928F929F92AF9234
:1008B000BF92CF92DF92EF92FF920F931F93CF934D
:1008C000DF931F92CDB7DEB77C012B01FC01848141
:1008D00095816C01FFEFCF1ADF0A8C159D0508F09A
:1008E00070C0F701228133812C153D05F0F5099682
:1008F00028173907D0F5808091809383828327E081
:10090000AC01249FC001259F900D11240E946425F5
:10091000F701918380835401612C712CF70184814C
:10092000958168167906F0F4F70120813181C501BF
:1009300088199909820F931F009751F08E010F5F5C
:100940001F4F2FEF3FEF40E050E0B5010E947810BD
:10095000C5010E940609FFEF6F1A7F0A27E0A20E69
:10096000B11CDCCFC4010E94F925F701A480B58039
:1009700087E08A9D30018B9D700C1124812C912C75
:10098000F701AC14BD04D0F420813181C401860D7F
:10099000971D820F931F009751F08E010F5F1F4F1D
:1009A0002FEF3FEF40E050E0B2010E947810FFEFE0
:1009B000AF1ABF0A27E0820E911CE2CFD582C48213
:1009C00004C0B601C7010E947D030F90DF91CF9153
:1009D0001F910F91FF90EF90DF90CF90BF90AF905D
:1009E0009F908F907F906F905F904F900895DF92CF
:1009F000EF92FF920F931F93CF93DF938B01039698
:100A00007C0160E070E00E947D03F801C081D1812B
:100A100087E0D82EF80184819581D89E9001D99ED7
:100A2000300D112480819181280F391FC217D307FF
:100A300031F0BE01C7010E9451042796EBCFDF9130
:100A4000CF911F910F91FF90EF90DF900895CF927B
:100A5000DF92EF92FF920F931F93CF93DF931F923A
:100A6000CDB7DEB78C01FB01E480F580E416F50616
:100A700010F40E942A2DE41AF50A2E153F0508F4F9
:100A80007901C080D180C40ED51E88E090E0F801C5
:100A900093838283158214820E946425F8019183D6
:100AA0008083FFEFEF16FF0621F3F6018081181611
:100AB00084F41982AE014F5F5F4FB701C8010E94F5
:100AC000CC08F80144815581B601808191810E9452
:100AD000E601C8010F90DF91CF911F910F91FF9018
:100AE000EF90DF90CF900895089524E832E0DC0184
:100AF0002D933C938091170390911803009739F040
:100B0000DC01ED91FC910280F381E02D09940895C0
:100B1000CF93DF93EC010E947505CE01DF91CF9159
:100B20000C94F925CF93DF93EC01ADA5BEA51097EA
:100B300061F0ED91FC9111970680F781E02D4CA5B5
:100B4000BC01CD01DF91CF910994DF91CF91089540
:100B50000895CF93DF936115710509F45FC0FB0120
:100B6000C081CF3F11F461E003C0C11104C060E057
:100B7000FC0182814FC0FC01D2818D2F0E94BE0DED
:100B8000ED2FF0E0E65FFC4FE491E33009F148F42B
:100B9000E130C9F0E230C1F584B5806284BDC8BDE2
:100BA0003DC0E73009F1E83039F1E43069F5809172
:100BB00080008062809380008C2F90E090938B0067
:100BC00080938A002BC084B5806884BDC7BD26C0D1
:100BD000809180008068809380008C2F90E09093BB
:100BE0008900809388001AC08091B000806880934B
:100BF000B000C093B30012C08091B00080628093B7
:100C0000B000C093B4000AC0C03810F460E001C066
:100C100061E08D2FDF91CF910C94500EDF91CF9139
:100C20000895FC01118A83819481908B87871686B1
:100C3000158660E082810C94500E8F929F92AF9245
:100C4000BF92CF92DF92EF92FF920F931F93CF93B9
:100C5000DF93FC012189223009F060C0EC010E9481
:100C600068162D853E856901E12CF12C09851A85D0
:100C70002B853C8546015701801A910AA20AB30AC6
:100C8000DC01CB01880D991DAA1DBB1DEF85F889DC
:100C90004181528160E070E084179507A607B7078D
:100CA000E8F11E861D860E94681669877A878B8701
:100CB0009C87EF85F889638174816115710579F4EA
:100CC0008F819885019698878F832D813E8121158C
:100CD000310519F0821793079CF46B817C81788B26
:100CE0006F87CE01DF91CF911F910F91FF90EF9011
:100CF000DF90CF90BF90AF909F908F900C94A905FC
:100D0000188A1F86CE010E9411062F8138858D8199
:100D10009E812817390711F418861F82DF91CF9121
:100D20001F910F91FF90EF90DF90CF90BF90AF9009
:100D30009F908F9008950F931F93CF93DF93FC01A3
:100D400004811581FB01C481D581AE010C171D07FB
:100D500008F4A801FB0160817181FC01808191810F
:100D60000E942F2D009769F481E090E0C017D10711
:100D700040F00C171D0710F080E090E091958195F0
:100D80009109DF91CF911F910F9108950F931F93B8
:100D9000CF938C01C42F61ED72E08EEB93E00E9443
:100DA00088136C2F70E08EEB93E00E94DD0D6C2FAA
:100DB000F80182859385CF911F910F910C941811A2
:100DC0002F923F924F925F926F927F928F929F925B
:100DD000AF92BF92CF92DF92EF92FF920F931F9349
:100DE000CF93DF93CDB7DEB768970FB6F894DEBF29
:100DF0000FBECDBF1C017B01DB011796CD90DC90AF
:100E000018972601612C712CC301B2010E94302B6E
:100E10002CE032E043E550E40E94822C20E030ECEC
:100E20004FE754E40E944C2A20E030E0A9010E94E0
:100E3000DB2920E030E048EC52E40E94822C4B0198
:100E40005C01B601BCE3CB16B3E0DB0644F0EDEF8A
:100E5000CE16E3E0DE062CF06CEF73E002C06CE32C
:100E600073E06C537340072E000C880B990B0E94A3
:100E7000302B20E030E048EC52E40E94822C20E04D
:100E800030E040E453E40E944C2A20E030E0A90125
:100E90000E94DB290E94FF2A162FD7019C960C91F5
:100EA00061EC72E08EEB93E00E9488132AE0B301BC
:100EB000A2018EEB93E00E94C11366EB72E08EEB11
:100EC00093E00E94881320E030E048EC52E4C50132
:100ED000B4010E944C2A6B017C016D8B7E8B8F8B41
:100EE000988F9B01AC010E94EF2C882319F062ECD3
:100EF00072E01AC026013701E89477F82FEF3FEF30
:100F00004FE75FE7C301B2010E94EF2C811111C0CE
:100F10002FEF3FEF4FE75FE7C301B2010E94472A7F
:100F200018163CF466EC72E08EEB93E00E94AC1372
:100F300082C02FEF3FEF4FE75FE4C701B6010E9489
:100F4000072C18161CF46AEC72E0EECF2FEF3FEF7F
:100F50004FE75FECC701B6010E94472A87FDF3CF38
:100F600020E030E0A901C701B6010E94472A87FFAF
:100F70000CC06DE28EEB93E00E948113D701C60195
:100F8000B0588D8B9E8BAF8BB88F2AE037ED43EA3C
:100F90005BE36D897E898F89988D0E94DB292B0107
:100FA0003C010E94FF2A6B017C010E942E2B9B01B9
:100FB000AC01C301B2010E94DA292B013C012AE0F5
:100FC000B701A6018EEB93E00E94C1136EE28EEB97
:100FD00093E00E94811320E030E040E251E4C3013D
:100FE000B2010E94822C6B017C010E94FF2A2B011E
:100FF000612C712C2AE0B301A2018EEB93E00E94D8
:10100000C113C301B2010E942E2B9B01AC01C70189
:10101000B6010E94DA2920E030E040E251E40E946B
:10102000822C0E94FF2AAB0160E070E02AE08EEB88
:1010300093E00E94C11367EA72E08EEB93E00E9496
:101040008813412F50E060E070E02AE08EEB93E0DF
:101050000E94C1136EEC72E08EEB93E00E940A14C2
:1010600082E491E4A4E5B0E0898B9A8BAB8BBC8BD6
:101070001F920F931F921F93C501B4010E94F82A7B
:101080007F936F93CE0141969F938F9380ED92E073
:101090009F938F938E010F5F1F4F1F930F930E949B
:1010A0003D2DB801D1011C968D919C911D970E94F8
:1010B000280F0FB6F894DEBF0FBECDBF68960FB6EF
:1010C000F894DEBF0FBECDBFDF91CF911F910F917E
:1010D000FF90EF90DF90CF90BF90AF909F908F9058
:1010E0007F906F905F904F903F902F900895FC01FC
:1010F00020813181828193812817390719F0822F4D
:101100000C94500E0895CF93DF93EC019CB59F7D16
:101110009CBD9CB5937F9CBD9CB59C7F9CBD9DB5A3
:1011200091609DBD8A810E94500E8C899D89DF91BE
:10113000CF910C94FE158EBD00000DB407FEFDCFBF
:101140008EB508950F931F93CF93DF93EC01CB01DE
:10115000088119817B836A830E946425998388832F
:1011600020E030E08C819D812817390770F4E881F8
:10117000F981E20FF31F309729F0D801A20FB31FB6
:101180008C9180832F5F3F4FEDCFC801DF91CF91CE
:101190001F910F910C94F925EF92FF920F931F93DB
:1011A000CF93DF93EC018C819D818617970710F513
:1011B0007A018B018A819B818617970740F4685FCB
:1011C0007F4F8617970718F4CE010E94A2088C81E2
:1011D0009D818017910758F4E881F981E80FF91F84
:1011E000309719F0D7012C9120830196F2CF1D83FF
:1011F0000C8305C06817790710F47D836C83DF9139
:10120000CF911F910F91FF90EF900895FC01808185
:1012100091810C94F925EF92FF920F931F93CF9336
:10122000DF937C0100E010E0C0E0D0E0F701248112
:10123000358180819181C217D30740F4800F911FBF
:101240000E9406092196095F1F4FF0CFDF91CF91D1
:101250001F910F91FF90EF900C94F925CF92DF92A0
:10126000EF92FF920F931F93CF93DF931F92CDB70F
:10127000DEB77C016B0188E090E0F7019383828305
:10128000158214820E946425F70191838083C11422
:10129000D104B9F0F60101900020E9F731978F01F0
:1012A0000C191D091982AE014F5F5F4FB801C701CC
:1012B0000E94CC08A801B601F701808191810E94AB
:1012C000E6010F90DF91CF911F910F91FF90EF906A
:1012D000DF90CF900895CB0108957F928F929F92D7
:1012E000AF92BF92CF92DF92EF92FF920F931F9334
:1012F000CF93DF93EC0149015A018B01C12CD12C12
:101300007601C814D904EA04FB0484F5F80171904D
:101310008F018F8580FF0BC0E881F9810084F18502
:10132000E02D20E144E060E070E0CE010995EB851E
:10133000FC858D859E85E817F90738F470828B85CA
:101340009C8501969C878B870BC0E881F981672D6E
:1013500070E0028CF38DE02DCE010995019649F0E5
:101360002FEFC21AD20AE20AF20ACBCFB401C501AA
:1013700002C0B601C701DF91CF911F910F91FF907D
:10138000EF90DF90CF90BF90AF909F908F907F9025
:101390000895CF93DF93EC01E881F9810288F38906
:1013A000E02D09958F3F2FEF920731F02D813E817F
:1013B0002F5F3F4F3E832D83DF91CF9108958FEFB5
:1013C0009FEF089560E070E0CB01089580E090E029
:1013D0000895CB010895CF93DF93EC018889998913
:1013E000DC01ED91FC910084F185E02D0995892BBC
:1013F000A9F388899989DC01ED91FC910284F38538
:10140000E02DDF91CF910994CF93DF93EC01888990
:101410009989DC01ED91FC910084F185E02D09951D
:10142000892BA9F388899989DC01ED91FC910484C9
:10143000F585E02DDF91CF910994AF92BF92CF92C5
:10144000DF92EF92FF920F931F93CF93DF9300D021
:1014500000D0CDB7DEB78C015B01C12CD12C760159
:10146000F80180899189DC01ED91FC910284F3857A
:10147000E02D29833A834B835C83099529813A8146
:101480004B815C818F3F71F0C216D306E406F506EE
:101490004CF4D5018D935D01BFEFCB1ADB0AEB0A4B
:1014A000FB0ADECFC701B6010F900F900F900F908F
:1014B000DF91CF911F910F91FF90EF90DF90CF9030
:1014C000BF90AF900895DC0150968D919C915197FB
:1014D000DC01ED91FC910084F185E02D099480E020
:1014E00090E0089580E090E0089580E090E0089515
:1014F00080E090E008950895CF93DF93C0918C032E
:10150000D0918D03E881F9810084F185E02DCE0131
:101510000995892BB9F3E881F9810284F385E02DDF
:10152000CE01DF91CF9109941F93CF93DF93182FB2
:10153000C0918C03D0918D038A3041F4E881F98108
:101540000190F081E02D6DE0CE010995E881F981EF
:101550000190F081E02D612FCE01099521E030E06E
:10156000019711F420E030E0C901DF91CF911F9184
:1015700008950C94F9250C94F925089508950C9478
:10158000F925DC01ED91FC91369720813181820FA4
:10159000931F0C94BF0AFB0120813181FC01318330
:1015A0002083FB0142815381F901369720813181EB
:1015B000FC01E20FF31F51834083089526EA31E0D6
:1015C000FC013183208320EB31E0318F208F66EBEB
:1015D00071E00C94CB0ADC01ED91FC9136972081EF
:1015E0003181820F931F0C94DE0ACF93DF93EC01BD
:1015F0000E94DE0ACE01DF91CF910C94F925DC0127
:10160000ED91FC91369720813181820F931F0C94CC
:10161000F50A0C94F925089508950C94F925DC0138
:10162000ED91FC91369720813181820F931F0C94AC
:101630000D0BFB0120813181FC0131832083FB01F3
:1016400042815381F901369720813181FC01E20FFB
:10165000F31F5183408308952EE132E0FC01318372
:10166000208328E232E0358B248B6EE272E00C940A
:10167000190BDC01ED91FC91369720813181820FAD
:10168000931F0C942C0BCF93DF93EC010E942C0B37
:10169000CE01DF91CF910C94F925DC01ED91FC9105
:1016A000369720813181820F931F0C94430B0C9449
:1016B000F9250F931F93CF93DF938C01EB016F3FBD
:1016C0008FEF780719F480E090E00FC06A3031F4B2
:1016D0006DE0F801808991890E9481136C2FF801D7
:1016E000808991890E948113CE01DF91CF911F9152
:1016F0000F9108958F929F92BF92CF92DF92EF92B7
:10170000FF920F931F93CF93DF9300D000D0CDB7FC
:10171000DEB78C014B01C12CD12C7601C216D30649
:10172000E406F50644F5F401B1904F01FAE0BF126A
:101730000EC06DE0F8018089918929833A834B833B
:101740005C830E9481135C814B813A8129816B2DDE
:10175000F8018089918929833A834B835C830E94B5
:101760008113FFEFCF1ADF0AEF0AFF0A5C814B817A
:101770003A812981D3CFCA01B9010F900F900F9000
:101780000F90DF91CF911F910F91FF90EF90DF901D
:10179000CF90BF909F908F900895089508950895D9
:1017A000089561E00C94830860E00C9483082F9204
:1017B0003F924F925F926F927F928F929F92AF92E1
:1017C000BF92CF92DF92EF92FF920F931F93CF932E
:1017D000DF9300D01F92CDB7DEB73C01D42E2DB6DB
:1017E0003EB67F936F9384E093E09F938F932B8318
:1017F0000E94DC262B812D0D2A830F900F900F90D5
:101800000F9080E0482E83E0582E9BEFA92E92E0A7
:10181000B92EFA81DF1609F450C08DB69EB6F301D9
:101820002685022F10E08DB79EB7801B910B0FB657
:10183000F8949EBF0FBE8DBFEDB7FEB731967F0106
:10184000F1E0FD0DF983C3012B830E94D40B8D2D94
:101850008F710E949B0867012B812E0D2C1549F07A
:101860008FEF2B830E949B08F60181936F012B81E0
:10187000F5CFC3010E94D10B5F924F920E94DC26EC
:101880000E0D1F1D0F900F90015011090E151F0511
:1018900068F0F80180811F928F93BF92AF920E94EF
:1018A000DC260F900F900F900F90EECF0FB6F894AC
:1018B0009EBE0FBE8DBED980ACCF88EF92E09F93C5
:1018C0008F930E94DC260F900F900FB6F8943EBEC7
:1018D0000FBE2DBE0F900F900F90DF91CF911F91F3
:1018E0000F91FF90EF90DF90CF90BF90AF909F90BF
:1018F0008F907F906F905F904F903F902F900895C2
:10190000EF92FF921F93CF93DF931F92CDB7DEB775
:101910007C0169830E94D40B6981862F0E949B08F9
:10192000182FC7010E94D10B812F0F90DF91CF910B
:101930001F91FF90EF90089561EE0C94800CEF9250
:10194000FF921F93CF93DF9300D0CDB7DEB77C011A
:101950004A8369830E94D40B6981862F8F718062CC
:101960000E949B08182F4A81842F0E949B08C70160
:101970000E94D10B812F0F900F90DF91CF911F917B
:10198000FF90EF900895CF92DF92EF92FF920F9326
:101990001F93CF93DF9300D01F92CDB7DEB77C01AA
:1019A000142F2A835B8369830E94D40B6981862F5D
:1019B0008F7180620E949B08082FC12E5B81D52EFB
:1019C0002A81120F1C1531F0F60181916F010E94DE
:1019D0009B08F8CFC7010E94D10B802F0F900F906A
:1019E0000F90DF91CF911F910F91FF90EF90DF90BB
:1019F000CF900895EF92FF921F93CF93DF931F92A2
:101A0000CDB7DEB77C0169830E94D40B6981862F34
:101A10008F710E949B088FEF0E949B08182FC701AF
:101A20000E94D10B812F0F90DF91CF911F91FF90DA
:101A3000EF900895CF93DF93EC0160E00E94FA0CE1
:101A400081FD0EC0482F426060E0CE010E949F0CD5
:101A500065E070E080E090E0DF91CF910C942E166D
:101A6000DF91CF910895CF93DF93EC010E941A0D7F
:101A700060E0CE010E94FA0C482F416060E0CE0188
:101A80000E949F0C40E767E0CE010E949F0C61E03E
:101A9000CE010E9477088985882349F02E85AE0102
:101AA000475F5F4F6AE0CE010E94C30C14C062E042
:101AB000CE010E94FA0CECEEF0E0E49121E030E07F
:101AC00001C0220FEA95EAF72095422F482362E0F1
:101AD000CE010E949F0C6DE1CE010E94FA0C81FFA5
:101AE00005C0CE01DF91CF910C949C0CDF91CF917A
:101AF0000895CF92DF92EF92FF920F931F93CF93AF
:101B0000DF931F92CDB7DEB77C01C22E7F936F9318
:101B100022EF32E03F932F9349830E94DC264981D4
:101B2000C40E0F900F900F900F900AEE12E04C151C
:101B300099F0DD24D394D40E642FC7010E94FA0CCF
:101B40001F928F931F930F930E94DC260F900F908C
:101B50000F900F904D2DEBCF87EE92E09F938F93D8
:101B60000E94DC260F900F900F90DF91CF911F9174
:101B70000F91FF90EF90DF90CF90089590E0FC01DF
:101B8000EA5BFC4F2491FC01EE5CFC4F84918823BE
:101B900099F090E0880F991FFC01E85DFC4FA5913A
:101BA000B491FC01E25EFC4F859194918FB7F8945B
:101BB000EC91E22BEC938FBF0895CF92DF92EF92DE
:101BC000FF920F931F93CF93DF938C016B01770FDD
:101BD000EE08FF08F7FE12C06DE20E948113EC01CF
:101BE00044275527BA014C195D096E097F092AE07F
:101BF000C8010E94C113C80FD91F06C02AE0B7014F
:101C0000A6010E94C113EC0160EB72E0C8010E94C2
:101C1000AC138C0F9D1FDF91CF911F910F91FF90FF
:101C2000EF90DF90CF9008950F931F93CF938C0187
:101C300066E08CE293E00E94FA0CC82FC77D023068
:101C4000110531F4C0628BE990E0A0E0B0E00DC076
:101C50000130110529F085E590E0A0E0B0E005C075
:101C6000C86081E490E0A0E0B0E080933C039093F2
:101C70003D03A0933E03B0933F034C2F66E08CE2FC
:101C800093E00E949F0C66E08CE293E00E94FA0CC5
:101C900091E08C1390E0892FCF911F910F910895BF
:101CA00090E0FC01E65FFC4F3491FC01EA5BFC4FE5
:101CB0002491FC01EE5CFC4FE491EE2309F43BC05F
:101CC000332339F1333091F038F43130A9F0323028
:101CD00001F584B58F7D12C0373091F03830A1F016
:101CE0003430B9F4809180008F7D03C080918000F2
:101CF0008F77809380000DC084B58F7784BD09C035
:101D00008091B0008F7703C08091B0008F7D809369
:101D1000B000F0E0EE0FFF1FE25EFC4FA591B49122
:101D20008FB7F894EC91611103C020952E2301C068
:101D30002E2B2C938FBF08958E3008F08E50877015
:101D4000806480937C0080917A00806480937A0024
:101D500080917A0086FDFCCF8091780020917900F7
:101D600090E0922B0895089508950C94F9250C9411
:101D7000F925CF93DF93FC0183819481892BC9F0EE
:101D800081898230B1F0811104C0168615861086D3
:101D90001782EF010E94681669877A878B879C8774
:101DA00082E0898B6F857889CE01DF91CF910C9489
:101DB000A905DF91CF910895CF93DF93CDB7DEB71B
:101DC0002A970FB6F894DEBF0FBECDBFFC01838506
:101DD0009485009741F1DB01FC0120813181F901FB
:101DE0004481558125E431E03A83298312962D916F
:101DF0003C9113973C832B8314962D913C9115971E
:101E00003E832D8316962D913C91179738872F830B
:101E100018962D913C9119973A872987BE016F5FDB
:101E20007F4FFA0109952A960FB6F894DEBF0FBED0
:101E3000CDBFDF91CF910895CF93DF93EC010E9446
:101E400068166D837E838F839887DF91CF91089585
:101E50006F927F929F92AF92BF92CF92DF92EF925A
:101E6000FF920F931F93CF93DF93CDB7DEB72A97DF
:101E70000FB6F894DEBF0FBECDBFFC01928499204F
:101E800009F4A4C0072FB62E6C016AE573E08EEB4F
:101E900093E00E9488136B2D702F8EEB93E00E94CD
:101EA0000A14F601E280F38060E0C7010E9477081F
:101EB000F701808991890E94FE156DE1C7010E949A
:101EC000FA0C81FF08C0F701808991890E94FE15F4
:101ED000C7010E949C0C60E0C7010E94FA0C482FC9
:101EE0004E7F60E0C7010E949F0C62E0C7010E9424
:101EF000FA0CECEEF0E0E49141E050E001C0440F58
:101F0000EA95EAF7482B62E0C7010E949F0CF601B0
:101F1000E280F380F7011781A12E113110F080E1EA
:101F2000A82EF7018085811102C01A1901C010E0A6
:101F3000C7010E94D40B80EA0E949B086B2C702E74
:101F4000AA94FFEFAF1631F0F30181913F010E9497
:101F50009B08F6CF112329F080E00E949B081150C6
:101F6000F9CFC7010E94D10B61E0C7010E94770839
:101F70006FEFC7010E94800C8073D1F360E0C7014E
:101F80000E94770840E767E0C7010E949F0C84FF2A
:101F900004C0C7010E949C0C912C85E491E09A83B7
:101FA00089831A861986DC82CB828CE590E098873B
:101FB0008F83BD820E83BE016F5F7F4FC6010E947B
:101FC000DC0EF601828193810E94330D892D2A96C1
:101FD0000FB6F894DEBF0FBECDBFDF91CF911F913A
:101FE0000F91FF90EF90DF90CF90BF90AF909F90B8
:101FF0007F906F900895EF92FF920F931F93CF936E
:10200000DF93CDB7DEB764970FB6F894DEBF0FBE8F
:10201000CDBF7C0181E493E4ABE4B0E0898B9A8B83
:10202000AB8BBC8B9E012F5E3F4F3F932F932FEDC9
:1020300032E03F932F938E010F5F1F4F1F930F933B
:102040000E943D2DB801C7010E94280F0F900F90EC
:102050000F900F900F900F9064960FB6F894DEBF1C
:102060000FBECDBFDF91CF911F910F91FF90EF90E9
:10207000089580911F0390912003892BC9F48DE06E
:1020800090E00E946425FC018CE992E091838083BA
:10209000138212821482158216821782108684E0BF
:1020A0008187128614861386F0932003E0931F0322
:1020B00080911F03909120030895CF93DF93EC014B
:1020C0006C817D816F5F7F4F8A819B818617970727
:1020D00018F4CE010E94A208E881F9818C819D81CB
:1020E000E80FF91F108288819981DF91CF910895BF
:1020F000AF92BF92CF92DF92EF92FF920F931F9316
:10210000CF93DF931F92CDB7DEB78C016B017A01BD
:10211000590188E090E0F80193838283158214824C
:102120000E946425F80191838083F6018481958162
:102130008E159F0510F40E942A2D1982BC016E197C
:102140007F09A616B70608F4B501AE014F5F5F4FD1
:10215000C8010E94CC08F80144815581F6016081D4
:1021600071816E0D7F1DF801808191810E94E601D1
:102170000F90DF91CF911F910F91FF90EF90DF9023
:10218000CF90BF90AF90089528E332E0FC012193F7
:102190003193CF010C940609CF93DF93EC010E9499
:1021A000C410CE01DF91CF910C94F925EF92FF92EC
:1021B0000F931F93CF93DF93EC018A8180618A8311
:1021C0007E0187E2E80EF11CC7010E94110685E03E
:1021D00090E00E9464258C01FC011082148213821D
:1021E00084EF91E09283818385E090E00E946425F2
:1021F000FC018FEF80838AEF90E0928381831483C8
:102200000383FBA7EAA7FFABEEAB8A8187FD09C07A
:10221000C701DF91CF911F910F91FF90EF900C9428
:10222000B90EDF91CF911F910F91FF90EF9008951C
:10223000EF92FF920F931F93CF93DF93EC019A815C
:1022400096FB882780F9861709F45CC0662311F194
:1022500090649A8397FD56C07E0185E1E80EF11CDB
:10226000C7010E94110685E090E00E9464258C0160
:10227000FC011082148213828EE997E0928381839D
:1022800085E090E00E946425FC018FEF808382E36B
:1022900090E027C09F7B9A8397FD34C07E01F5E1D3
:1022A000EF0EF11CC7010E9411068A8185FF2AC02A
:1022B000C7010E94110685E090E00E9464258C0110
:1022C000FC0110821482138284EF91E09283818357
:1022D00085E090E00E946425FC018FEF80838AEF07
:1022E00090E09283818314830383F98FE88FFDA3A9
:1022F000ECA3C701DF91CF911F910F91FF90EF9059
:102300000C94B90EDF91CF911F910F91FF90EF9038
:1023100008950F931F93CF93DF9380911D039091A6
:102320001E03892B09F04FC089E390E00E946425C9
:10233000EC0184E992E0998388831A8204EA12E02E
:102340001C830B8386E08D831F821E82198618866C
:102350001B861A861C861D861E861F86198A188A69
:102360001B8A1A8A1C8A0E94BE0D1E8B0D8B88E068
:102370008F8B198E188E1B8E1A8E1D8E1C8E1E8EA4
:102380001F8E18A219A21BA21AA21DA21CA21EA275
:102390000E94BE0D18A70FA387E089A71BA61AA647
:1023A0001DA61CA61FA61EA618AA19AA1AAA1BAA11
:1023B0001DAA1CAA1FAA1EAA18AE0E94BE0DD09369
:1023C0001E03C0931D0380911D0390911E03DF9196
:1023D000CF911F910F910895CF92DF92EF92FF92CC
:1023E0000F931F93CF93DF936C017A018B01C0E0B1
:1023F000D0E0CE15DF0589F0D8016D918D01D601B1
:10240000ED91FC910190F081E02DC6010995892B99
:1024100011F47E0102C02196ECCFC701DF91CF916C
:102420001F910F91FF90EF90DF90CF900895089546
:1024300080E090E00895FC01538D448D252F30E01D
:10244000842F90E0821B930B541710F0CF960895C1
:1024500001970895FC01918D828D981761F0828D0E
:10246000DF01A80FB11D5D968C91928D9F5F9F73C8
:10247000928F90E008958FEF9FEF0895FC01918D6A
:10248000828D981731F0828DE80FF11D858D90E0D7
:1024900008958FEF9FEF0895FC01918D228D892F74
:1024A00090E0805C9F4F821B91098F73992708955C
:1024B0008EEB93E00E944C1221E0892B09F420E07E
:1024C000822F0895FC01848DDF01A80FB11DA35A4E
:1024D000BF4F2C91848D90E001968F739927848F44
:1024E000A689B7892C93A089B1898C9180648C933B
:1024F000938D848D981306C00288F389E02D808126
:102500008F7D80830895EF92FF920F931F93CF9357
:10251000DF93EC0181E0888F9B8D8C8D981305C033
:10252000E889F989808185FD24C0F62E0B8D10E0A5
:102530000F5F1F4F0F731127E02E8C8DE8120CC018
:102540000FB607FCFACFE889F989808185FFF5CFBE
:10255000CE010E946212F1CF8B8DFE01E80FF11DBA
:10256000E35AFF4FF0820B8FEA89FB8980818062FA
:1025700007C0EE89FF896083E889F98980818064DA
:10258000808381E090E0DF91CF911F910F91FF90C8
:10259000EF900895CF93DF93EC01888D8823C9F0E5
:1025A000EA89FB89808185FD05C0A889B9898C915C
:1025B00086FD0FC00FB607FCF5CF808185FFF2CFF7
:1025C000A889B9898C9185FFEDCFCE010E94621256
:1025D000E7CFDF91CF91089580E090E0892B29F03B
:1025E0000E94581281110C94000008950E942A2D17
:1025F00090910201981324C0E1E7F3E0E4919FEF8A
:1026000090930201E130B9F098F0E230C9F4909172
:1026100070009D7F9093700091E09093B000909136
:10262000B100987F94609093B1001092B30008C0FD
:1026300010926E0005C090916F009D7F90936F0087
:1026400060E00C94500E0C94F9251F920F920FB677
:102650000F9211242F933F934F935F936F937F9328
:102660008F939F93AF93BF93EF93FF938091240336
:1026700090912503A0912603B0912703892B8A2BE3
:102680008B2B51F180912303E0912103F0912203E0
:102690009081892780838091240390912503A091C4
:1026A0002603B0912703181619061A061B06C4F450
:1026B0008091240390912503A0912603B0912703D4
:1026C0000197A109B1098093240390932503A09356
:1026D0002603B093270304C0809102010E94F812E0
:1026E000FF91EF91BF91AF919F918F917F916F91EA
:1026F0005F914F913F912F910F900FBE0F901F90C0
:102700001895DC01ED91FC910190F081E02D099488
:10271000EF92FF920F931F93CF93DF938C017B0176
:10272000C0E0D0E0F701EC0FFD1F6491662361F07B
:10273000D801ED91FC910190F081E02DC80109953F
:10274000892B11F02196EECFCE01DF91CF911F9111
:102750000F91FF90EF9008956115710579F0FB01DD
:1027600001900020E9F73197AF01461B570BDC01C0
:10277000ED91FC910280F381E02D099480E090E0DE
:1027800008954F925F926F927F92EF92FF920F9314
:102790001F93CF93DF93CDB7DEB7A1970FB6F89411
:1027A000DEBF0FBECDBF7C01FA01CB0119A22230E2
:1027B00008F42AE08E010F5D1F4F422E512C612C30
:1027C000712CBF01A30192010E94022DF901CA01DF
:1027D000015011096A3014F4605D01C0695CD801D0
:1027E0006C93232B242B252B61F7B801C7010E9482
:1027F000AC13A1960FB6F894DEBF0FBECDBFDF912C
:10280000CF911F910F91FF90EF907F906F905F900D
:102810004F9008950F931F93CF93DF93EC010E9485
:10282000AC138C0160EB72E0CE010E94AC13800F00
:10283000911FDF91CF911F910F9108950F931F93D7
:10284000CF93DF93EC010E9488138C0160EB72E060
:10285000CE010E94AC13800F911FDF91CF911F9189
:102860000F910895AF92BF92CF92DF92EF92FF92B5
:102870000F931F93CF93DF937C010E946816F7019B
:102880000585168527853089DC01CB01801B910BDE
:10289000A20BB30B853F9140A105B10508F462C0BE
:1028A00060E086E00E94500E60E088E00E94500EDA
:1028B00060E087E00E94500E85E00E94F8120E94BE
:1028C0008911EC019A8192FD40C094609A8397FD32
:1028D00036C05E0123E0A20EB11CC5010E941106A4
:1028E00085E090E00E9464256C01FC011082148256
:1028F00013828CE79BE09283818385E090E00E94C5
:1029000064258C018FEFF801808384E190E092834D
:102910008183D482C38285E090E00E946425FC011B
:1029200083E0808388E290E0928381831483038331
:10293000FF83EE83FB8BEA8BC5010E94B90E64E630
:1029400073E08EEB93E00E941E14C701DF91CF91DC
:102950001F910F91FF90EF90DF90CF90BF90AF90BD
:102960000C94F303DF91CF911F910F91FF90EF90A3
:10297000DF90CF90BF90AF9008951F920F920FB647
:102980000F9211242F933F934F935F936F937F93F5
:102990008F939F93AF93BF93EF93FF938EEB93E04F
:1029A0000E946212FF91EF91BF91AF919F918F9121
:1029B0007F916F915F914F913F912F910F900FBE3B
:1029C0000F901F9018951F920F920FB60F9211241F
:1029D0002F938F939F93EF93FF93E091CE03F0910A
:1029E000CF038081E091D403F091D50382FD12C022
:1029F00090818091D7038F5F8F732091D8038217C6
:102A000051F0E091D703F0E0E254FC4F958F8093B2
:102A1000D70301C08081FF91EF919F918F912F91FA
:102A20000F900FBE0F901F90189508954F925F92D0
:102A30006F927F928F929F92AF92BF92CF92DF92CE
:102A4000EF92FF920F931F93CF93DF93CDB7DEB733
:102A500028970FB6F894DEBF0FBECDBF8C016A0178
:102A60007B010E9409164B015C01F801828D938D58
:102A7000A48DB58DA5019401281B390B4A0B5B0B66
:102A8000CA01B9010E94302B9B01AC01D8015696B6
:102A90006D937D938D939C935997F801828E938EBD
:102AA000A48EB58E1A968D919D910D90BC91A02DFE
:102AB00089839A83AB83BC8386879787A08BB18BEE
:102AC000C28AD38AE48AF58A82809380A480B58002
:102AD000C501B4010E944C2A9B01AC01F801668338
:102AE00077838087918760E070E080E89FEB0E94A9
:102AF0004C2A0E94C62A2B013C019B01AC0160E0DC
:102B000070E080E89FE30E94DA29A70196010E9405
:102B1000822C6D837E838F83988729813A814B81B4
:102B20005C81C301B2010E94822C9B01AC016D81CA
:102B30007E818F8198850E94DB292B013C01D80181
:102B40001A966D937D938D939C931D978D919C9177
:102B500081309105D1F14CF4892BA1F5A3019201AB
:102B6000C701B6010E94DA292AC082309105C9F056
:102B7000039741F5A3019201C701B6010E94DA292A
:102B80006B017C0120E034E244E759E4C501B40163
:102B90000E944C2A9B01AC01C701B6010E944C2A3D
:102BA0000EC020E034E244E759E4C501B4010E94BC
:102BB0004C2A9B01AC01C301B2010E94822C2B0163
:102BC0003C0103C0412C512C3201C301B2012896B3
:102BD0000FB6F894DEBF0FBECDBFDF91CF911F912E
:102BE0000F91FF90EF90DF90CF90BF90AF909F90AC
:102BF0008F907F906F905F904F90089582309105F5
:102C000038F0880F991F880F991F05970197F1F7E2
:102C100008953FB7F8948091C2049091C304A091A5
:102C2000C404B091C50426B5A89B05C02F3F19F078
:102C30000196A11DB11D3FBFBA2FA92F982F88273C
:102C4000820F911DA11DB11DBC01CD0142E0660F97
:102C5000771F881F991F4A95D1F708958F929F92E9
:102C6000AF92BF92CF92DF92EF92FF926B017C0105
:102C70000E9409164B015C01C114D104E104F10466
:102C8000F1F00E940916DC01CB0188199909AA0903
:102C9000BB09883E9340A105B10570F321E0C21A3B
:102CA000D108E108F10888EE880E83E0981EA11C87
:102CB000B11CC114D104E104F10419F7DDCFFF9078
:102CC000EF90DF90CF90BF90AF909F908F9008953E
:102CD0002FB7F8946091BE047091BF048091C00436
:102CE0009091C1042FBF08951F920F920FB60F92BB
:102CF00011242F933F938F939F93AF93BF93809112
:102D0000BE049091BF04A091C004B091C104309161
:102D1000BD0423E0230F2D3720F40196A11DB11D22
:102D200005C026E8230F0296A11DB11D2093BD0406
:102D30008093BE049093BF04A093C004B093C104D9
:102D40008091C2049091C304A091C404B091C504C1
:102D50000196A11DB11D8093C2049093C304A0935A
:102D6000C404B093C504BF91AF919F918F913F91DF
:102D70002F910F900FBE0F901F901895CF93DF9358
:102D8000CDB7DEB7E0970FB6F894DEBF0FBECDBF6C
:102D9000789484B5826084BD84B5816084BD85B536
:102DA000826085BD85B5816085BD80916E00816042
:102DB00080936E00109281008091810082608093E8
:102DC00081008091810081608093810080918000EA
:102DD0008160809380008091B10084608093B10015
:102DE0008091B00081608093B00080917A0084600F
:102DF00080937A0080917A00826080937A0080913B
:102E00007A00816080937A0080917A008068809354
:102E10007A001092C10086E00E94BE0D88E00E94F8
:102E2000BE0D87E00E94BE0D85E00E94BE0DE091C0
:102E3000CE03F091CF0382E08083E091CA03F0914A
:102E4000CB031082E091CC03F091CD038FEC808313
:102E50001092D603E091D203F091D30386E08083F1
:102E6000E091D003F091D103808180618083E09173
:102E7000D003F091D103808188608083E091D003FA
:102E8000F091D103808180688083E091D003F0913C
:102E9000D10380818F7D808367E772E08EEB93E0C2
:102EA0000E941E148CEB9CE6ABE1B7E480936303B5
:102EB00090936403A0936503B093660381E08093CD
:102EC000860300914603109147038CE293E0D801FA
:102ED00013969C938E93129780912C0390912D03BF
:102EE00020912E0330912F038217930711F00E9437
:102EF000BE0D80912E0390912F0320912C033091D1
:102F00002D032817390711F00E94BE0DFFB6F89463
:102F100080910403811124C0ECE3F3E08491E0E5A7
:102F2000F3E09491E82FF0E0EE0FFF1FE85DFC4F17
:102F3000A591B491EC91E92321F461E08AE00E942B
:102F4000500E8AE00E94BE0D8CB580618CBD8CB5A0
:102F500080648CBD8DE00E94BE0D8BE00E94BE0D92
:102F6000809104038F5F80930403FFBE60E08CE2D6
:102F700093E00E94770861E08CE293E00E9483086E
:102F800065E070E080E090E00E942E164CE060E08A
:102F90008CE293E00E949F0C4FE564E08CE293E0AA
:102FA0000E949F0C82E090E00E94140E882319F08A
:102FB00081E08093320366E08CE293E00E94FA0C99
:102FC000F82E80E090E00E94140E8CE293E00E94C4
:102FD000D40B80E50E949B0883E70E949B088CE24B
:102FE00093E00E94D10B40E06DE18CE293E00E94FF
:102FF0009F0C40E06CE18CE293E00E949F0C1092E9
:10300000340340E767E08CE293E00E949F0C4CE4BD
:1030100065E08CE293E00E949F0C62EE8CE293E00C
:103020000E94800C8CE293E00E949C0C8CE293E066
:103030000E941A0D60E08CE293E00E94FA0C482F87
:103040004E7F60E08CE293E00E949F0C8FEF8F0D2B
:103050008E3F08F08CC04FEF64E08CE293E00E945A
:103060009F0C40E06DE18CE293E00E949F0C40E0F9
:103070006CE18CE293E00E949F0C1092340380E19B
:103080008093330382E08BA31CA21DA21EA21FA269
:1030900018A619A61AA620913A03AE014D5D5F4FFE
:1030A0006AE08CE293E00E94C30C20913A03AE01E7
:1030B0004D5D5F4F60E18CE293E00E94C30C409154
:1030C000330361E18CE293E00E949F0CFF24F394B0
:1030D000FB8E1C8E1D8E1E8E1F8E18A219A21AA288
:1030E000E9EFF0E0649120913A03AE01455E5F4F55
:1030F0008CE293E00E94C30CE3EFF0E06491409116
:1031000033038CE293E00E949F0C62E08CE293E038
:103110000E94FA0CEDEEF0E0E49141E050E001C0D5
:10312000440FEA95EAF7482B62E08CE293E00E94B4
:103130009F0C66E08CE293E00E94FA0C887F482F97
:10314000416066E08CE293E00E949F0C80E090E09A
:103150000E94140E8CE293E00E94330DF801F28677
:103160006AE071E08EEB93E00E941E1409C06EEFDE
:1031700070E08EEB93E00E941E14D8011A961C9208
:10318000C8010E941C0FE0914603F091470382851D
:10319000811107C066E171E08EEB93E00E941E147E
:1031A000E7C0028113816FEFC8010E94800C282FB5
:1031B00030E0982F91701F929F9335952795277037
:1031C00033273F932F9384FB992790F91F929F9366
:1031D00085FB992790F91F929F9386FB992790F979
:1031E0001F929F931F928F9382E291E09F938F9300
:1031F0000E94DC2622E04AE06DE172E0C8010E94F4
:10320000D70B24E04CE060E172E0C8010E94790D28
:1032100021E040E167E072E0C8010E94D70B26E0A0
:1032200041E16CEF71E0C8010E94790D21E041E0BD
:1032300065EF71E0C8010E94790D21E042E06BEE7C
:1032400071E0C8010E94790D21E045E064EE71E073
:10325000C8010E94790D21E046E06BED71E0C801E4
:103260000E94790D21E040E063ED71E0C8010E9409
:10327000790D22E04CE165EC71E0C8010E94790D06
:1032800066E0C8010E94FA0C88720FB6F894DEBF9F
:103290000FBECDBF803241F021E090E0883009F0D0
:1032A00020E0E22FF92F02C0E2E0F0E0EE0FFF1F76
:1032B000E154FE4F859194919F938F938DEA91E015
:1032C0009F938F930E94DC26D8011696EC91F0E034
:1032D000EE0FFF1FE755FE4F859194919F938F93BB
:1032E0008AE991E09F938F930E94DC2660E0C801F9
:1032F0000E94FA0CF82E61E0C8010E94FA0C0FB689
:10330000F894DEBF0FBECDBFF3FC02C0882329F0C6
:10331000F2FC06C0E1E0F0E005C0E0E0F0E002C051
:10332000E2E0F0E0EE0FFF1FEC56FE4F8591949126
:103330009F938F9381E891E09F938F930E94DC2667
:1033400066E0C8010E94FA0C8670E82FF0E0E758AA
:10335000FE4F859194919F938F9388E691E09F9380
:103360008F930E94DC260FB6F894DEBF0FBECDBF50
:10337000E0918A03F0918B0382E08283F093530300
:10338000E0935203A0915403B091550333E0AC3560
:10339000B30791F0109721F09D961C921E929C9776
:1033A0008EE493E090938903809388038CE593E007
:1033B0009093550380935403309721F08CE493E06D
:1033C00096A785A7A0915403B0915503109731F0AB
:1033D0008EE493E09D969C938E939C97A0915803C6
:1033E000B0915903109731F080E593E01C969C93BF
:1033F0008E931B9764A580915603909157030E946A
:1034000018118091560390915703E0915803F09161
:1034100059032481211103C00E94D6100AC0DC0187
:1034200012962C9112972F7E12962C9387960E94BB
:1034300011060E94681660932803709329038093F5
:103440002A0390932B0381E190E00E9464257C0184
:10345000FC01128288E090E09683858310861782B3
:1034600088E390E00E946425D70114969C938E9384
:1034700013971A961C921A97809105039091060350
:10348000019690930603809305031C969C938E935C
:103490001B9789E291E08D939C93F7011586168620
:1034A0001786108A62E672E08EEB93E00E94881322
:1034B00067E472E08EEB93E00E948813D701ED91F0
:1034C000FC910480F581E02DB7019E012F5F3F4FF5
:1034D0006901C9010995C6010E945D10BC018EEB0E
:1034E00093E00E94AC13C6010E94060962E472E0F8
:1034F0008EEB93E00E948813D7011B964D915C914F
:103500001C9760E070E02AE08EEB93E00E94C1130C
:1035100069E372E08EEB93E00E948813F701428129
:1035200050E060E070E02AE08EEB93E00E94C1136F
:103530006FE272E08EEB93E00E948813D701ED9169
:10354000FC910084F185E02DC70109955C01FC0127
:10355000248135813E8B2D8B285F3F4F3C8B2B8BFD
:1035600087E0F82FF29FC001F39F900D11240E9475
:1035700064259A8B898B812C912C612C712C8D89DF
:103580009E8968167906C8F4D5016D917C91680D05
:10359000791D89899A89880D991D009739F08601CE
:1035A0002FEF3FEF40E050E00E947810BFEF6B1A22
:1035B0007B0AE7E08E0E911CE2CFA988BA88E7E08B
:1035C0009E2E2D893E89929EC001939E900D1124BE
:1035D00029893A89820F931FA816B90679F18E01BD
:1035E000055D1F4F2FEF3FEF40E050E0B501C601F2
:1035F0000E947810C6010E945D10BC018EEB93E022
:103600000E94AC13C6010E9406092D893E89929E34
:10361000C001939E900D1124079729893A89820F42
:10362000931FA816B90631F06CE272E08EEB93E0BE
:103630000E948813F7E0AF0EB11CC3CF6AE272E0BC
:103640008EEB93E00E941E14CE0141960E940B095E
:10365000D701ED91FC910684F785E02D61E0C7016B
:103660000995D701ED91FC910088F189E02DC70102
:103670000995823009F074C00E94CB038C01E114DB
:10368000F10409F47EC0FC01868097805401FFEFAD
:10369000AF1ABF0A8A149B0408F059C0DC011496C3
:1036A0002D913C9115972A153B0598F5C401099673
:1036B0002817390770F512966C90129713967C9024
:1036C000139715969C938E931497880F991F0E94B9
:1036D0006425F80193838283D30140E050E04815CC
:1036E0005905A1F0F801828193819A01220F331FBD
:1036F000FC01E20FF31F309729F08D919C911197F7
:10370000918380834F5F5F4F1296E9CFC3010E9480
:10371000F925D80116968D919C9117979C01220F3F
:10372000331F8A159B0578F4D8011296ED91FC9110
:103730001397E20FF31F309711F0F182E0820196A8
:103740002E5F3F4FEECFF801B782A6821AC0A814B1
:10375000B904B8F4DC011796BC92AE92169711C06A
:10376000D701ED91FC91813031F40288F389E02D8D
:10377000C701099506C00488F589E02D63E0C701FB
:1037800009956CE472E08EEB93E00E9488138091BF
:10379000C6049091C704B601681B790B8EEB93E0C9
:1037A0000E94DD0D6BE672E08EEB93E00E948813C1
:1037B0008091C6049091C704B601681B790B8EEB0B
:1037C00093E00E94DD0D35E4A32E31E0B32E4AE5EF
:1037D000842E912C1E01BEE22B0E311C0E94681615
:1037E000009128031091290320912A0330912B0383
:1037F000DC01CB01801B910BA20BB30B883B9B40E0
:10380000A105B1059CF08091000190910101019604
:1038100090930101809300010E9468166093280331
:103820007093290380932A0390932B0300918A03BA
:1038300010918B03D80112968C91823009F062C0EE
:103840000E946816F8014380548065807680DC0110
:10385000CB0184199509A609B70981159440A105E2
:10386000B10508F44FC08EE00E949C0E97FD0396B0
:10387000BC017595679575956795072E000C880BAB
:10388000990B0E94302BAB01BC01C8010B960E9422
:1038900016150E94F82AAB01440F551F440F551FFF
:1038A000F801878190858417950719F1D80118963A
:1038B0005C934E9317979D968D919C919E97009740
:1038C00041F0DC01ED91FC910480F581E02DB8011F
:1038D0000995F80124A587819085222309F4B4C1B4
:1038E0008935934030F0D8019C961C92C8010E9403
:1038F00092050E946816D80113966D937D938D935F
:103900009C93169700914A0310914B03C8010396AC
:103910000E941D06C80145960E941D06C801879693
:103920000E941D06E0904803F09049038EEB93E05F
:103930000E944C12181619060CF062C08EEB93E030
:103940000E942A12F701668177818A3019F08D3042
:1039500009F041C0672B09F448C08E010F5E1F4F6C
:103960002FEF3FEF40E050E0B7016E5F7F4FC601A1
:103970000E94781060E872E08EEB93E00E9488135A
:10398000C6010E945D108C01BC018EEB93E00E9489
:103990000A140E943910B8010E94280FC6010E9423
:1039A0000609D70116964D915C91179760E070E07B
:1039B0002AE08EEB93E00E94C11360EB72E08EEB85
:1039C00093E00E94AC13F70186819781892B69F0FF
:1039D000178216820AC08FA76F5F7F4FAE01415DCD
:1039E0005F4FC70102960E94CC08D70116968D91B1
:1039F0009C911797419720F017961C921E9216974C
:103A00006AE070E080E090E00E942E16009146038C
:103A100010914703F8018285882309F4BAC067E151
:103A2000828193810E94FA0C80FF16C13BC0C701BE
:103A30000E94D10B40E767E0C7010E949F0CC801BC
:103A40000E941C0FE4E0D8011996EC931997149684
:103A50008C911497811114C0F1E01496FC93FEA789
:103A6000BA8AA98A1A8E198E1C8B0B8B988E8F8A14
:103A70003E8A2D8ABE016F5E7F4FC8010E94DC0E18
:103A8000BA8AA98A1A8E198E1C8B0B8B2BE530E013
:103A9000388F2F8BDE8ACD8ABE016F5E7F4FC801C3
:103AA0000E94DC0E0E946816D80115964D905D901C
:103AB0006D907C9018971A962C911A97222309F4EE
:103AC00068C09B01AC012419350946095709290131
:103AD0003A0119968C91811102C060E01CC08130BE
:103AE00091F4293E33404105510508F441C061E09D
:103AF000C8010E94FB0FC8010E941C0FF8018185BC
:103B00008F5F818735C0823051F4293E33404105B3
:103B1000510570F162E0C8010E94FB0F1FC08330A5
:103B200039F5293E33404105510510F1F8018481F2
:103B30008823A1F014821DA6BA82A9821A8619864A
:103B40001C830B8398868F822DE230E02C0F3D1F63
:103B50003E832D83B601C8010E94DC0EC8010E947D
:103B60001C0FD80119968C9119978F5F19968C9319
:103B7000F8018185843069F4F1EE4F16FEE25F06AC
:103B80006104710430F0D80119961C92C8010E949A
:103B90001C0FE0914403F0914503E280F38006811D
:103BA0001781000F111F0E0D1F1DE016F10661F0A9
:103BB000F701819191917F01DC01ED91FC910484E9
:103BC000F585E02D0995F1CF809186038823C9F111
:103BD0000E946816E091870300918103109182038F
:103BE0002091830330918403AB01BC01401B510B36
:103BF000620B730B20917F0330918003E29FC00121
:103C0000E39F900D1124A0E0B0E0481759076A0720
:103C10007B07B8F0E11151C080915E030E949C0EB9
:103C2000BC01990F880B990B0E94302BAB01BC0192
:103C300081E693E00E941615809187038F5F809341
:103C400087030E94EC12CACD8F34934008F051CE06
:103C500021E0F80124A74ACED8011296ED90FC90FD
:103C60001397F7018781803130F120E1D701189651
:103C70009C91911103C0582E521A01C0512CC701BA
:103C800028AB0E94D40B81E60E949B08360128A92C
:103C9000215040F08FEF28AB0E949B08F3018193E5
:103CA0003F01F5CF752C772009F4C1CE8FEF0E942C
:103CB0009B087A94F8CF282FD9CF80915E030E9479
:103CC0009C0EBC01990F880B990B0E94302BAB0105
:103CD000BC0181E693E00E9416150E94FF2A209104
:103CE0005F033091600326173707D1F070936003AC
:103CF00060935F033CA72BA7809188039091890371
:103D0000009771F0DC01ED91FC910480F581E02DCC
:103D10009E01255D3F4F40E050E06CE573E0099562
:103D2000109287030E946816609381037093820348
:103D3000809383039093840384CF089508952F92F2
:103D40003F924F925F926F927F928F929F92AF922B
:103D5000BF92DF92EF92FF920F931F93CF93DF9367
:103D6000CDB7DEB766970FB6F894DEBF0FBECDBFF6
:103D7000DC0118962D913C9119976217730709F091
:103D8000A6C1FB019E8B8D8B83809480FC010285F4
:103D90001385F6E08F16910408F4AAC0D801129694
:103DA0008C91129787FD5BC1806812968C931801E5
:103DB000B5E12B0E311CC1010E94110685E090E097
:103DC0000E9464253C01FC0110821482138289E167
:103DD000E82EF12CF282E18285E090E00E946425D9
:103DE0002C01DD24DA94DC01DC929BE4A92EB12CB9
:103DF0001296BC92AE92119714967C926E92139783
:103E000085E090E00E9464253C01FC011082B282B2
:103E1000A1825482438285E090E00E9464252C01B7
:103E2000DC01DC921296FC92EE92119714967C9231
:103E30006E92139785E090E00E9464253C01FC019E
:103E40001082B282A1825482438285E090E00E9477
:103E500064252C01DC01DC921296FC92EE92119703
:103E600014967C926E92139785E090E00E946425F0
:103E70003C01FC011082B282A1825482438285E01F
:103E800090E00E9464252C01DC01DC921296FC92E9
:103E9000EE92119714967C926E92139785E090E0C3
:103EA0000E9464253C01FC011082B282A1825482EE
:103EB000438285E090E00E946425FC01D082F2827A
:103EC000E18274826382D80159969C938E935897AD
:103ED00095969C938E939497C1010E94B90EC80148
:103EE00087960E941106C80103960E941106B7C06A
:103EF000F801828187FFB3C08F7782837801F5E173
:103F0000EF0EF11CC7010E941106D80112968C9188
:103F100082FF3FC03801B3E06B0E711CC3010E94E9
:103F2000110685E090E00E9464252C01FC011082BE
:103F3000148213828CE79BE09283818385E090E07A
:103F40000E9464255C018FEFD5018C9384E190E0A1
:103F500012969C938E93119714965C924E9213979F
:103F600085E090E00E946425FC0183E0808388E284
:103F700090E092838183B482A382D8011796FC9348
:103F8000EE9316975396FC93EE935297C3010E94BB
:103F9000B90EF801828184FF31C03801F7E26F0E5B
:103FA000711CC3010E94110685E090E00E94642507
:103FB0005C01DC011C9214961C921E92139784EFF4
:103FC00091E012969C938E93119785E090E00E9469
:103FD0006425FC018FEF80838AEF90E092838183D8
:103FE000B482A382D8019B96FC93EE939A97D796BE
:103FF000FC93EE93D697C3010E94B90EF80182811B
:1040000086FF2DC0C7010E94110685E090E00E9446
:1040100064255C01DC011C9214961C921E9213977D
:104020008EE997E012969C938E93119785E090E02D
:104030000E946425FC018FEF808382E390E09283ED
:104040008183B482A382D8015996FC93EE9358974A
:104050009596FC93EE939497C7010E94B90E88E45D
:1040600096E5A1E3B0E0898B9A8BAB8BBC8BB40156
:1040700080E090E00E942E2B2CE032E043E550E4FB
:104080000E94822C21ED3BEC48EE5DE30E944C2A1D
:104090000E94FF2A7F936F93CE0141969F938F9347
:1040A00083EB92E09F938F938E010F5F1F4F1F93BF
:1040B0000F930E943D2DB801ED89FE898485958579
:1040C0000E94280F0FB6F894DEBF0FBECDBF6696D4
:1040D0000FB6F894DEBF0FBECDBFDF91CF911F9119
:1040E0000F91FF90EF90DF90BF90AF909F908F90D7
:1040F0007F906F905F904F903F902F900895029720
:104100000C949F1E0C94F92502970C94822004971E
:104110000C9482208F929F92AF92BF92CF92DF92A7
:10412000EF92FF920F931F93CF93DF93CDB7DEB73C
:10413000EC970FB6F894DEBF0FBECDBFFB014281F6
:104140005381FC01248535854217530709F0B0C11E
:10415000FB01DC01268137812A35310509F4CAC00B
:104160002B35310509F0A4C1E480F5806BE872E0DD
:104170008EEB93E00E948813B7018EEB93E00E94D0
:104180000A148E010F5F1F4FA801B701CE01C4961C
:104190000E942E0938E0E32EF12CF8AAEFA61AAA05
:1041A00019AA88E090E00E9464259EA78DA7F9A631
:1041B000E8A61BA61AA688E390E00E9464259FA3A8
:1041C0008EA3C0908904D0908A04E0918504F09178
:1041D0008604ACA9BDA9CF018C0D9D1DE817F90778
:1041E00009F49DC031912D913217C1F34FC08CAFAE
:1041F0006BA17CA16F5F7F4FAE01445C5F4FCE012E
:104200004F960E94CC08FFEFCF1ADF0A28AD39ADD8
:104210008CA99DA9820F931FE816F90649F0F701B2
:1042200081917F018D3319F7C114D10409F084C045
:104230002BA13CA12115310529F12150310941E083
:1042400050E0BE01615E7F4FC8010E942705E9A8CA
:10425000FAA86D817E816E0D7F1D188EAE01485EBD
:104260005F4FCE018D960E94CC084D815E816981A1
:104270007A818DA59EA58E0D9F1D0E94E601C80125
:104280000E940609CE014F960E9406096CE874E070
:10429000CE018D960E949B06892BF9F481E493E46C
:1042A000A2E5B0E0898B9A8BAB8BBC8BCE0141969B
:1042B0009F938F938FED92E09F938F931F930F9314
:1042C0000E943D2D0E943910B8010E94280F0F90C6
:1042D0000F900F900F900F900F90CE0186960E9436
:1042E0000B09CE018D960E940609CE01C4960E944C
:1042F0000609DEC01A968D919C911B970480F5816A
:10430000E02D2081211103C00E94D610D1C0FC01F4
:1043100022812F7E228387960E941106C9C0A801A0
:1043200062EB72E0CE014F960E942E09ECA8FDA828
:10433000F2E0EF0EF11C6ACF6FEFC61AD60A2150D9
:104340003109A601BE016C5C7F4FCE0148960E94E8
:104350002705AE01455C5F4F61E571E0CE014196F6
:104360000E942E092D893E898C8D9D8D8217930781
:1043700020F4EE24EA94FE2C21C001965C01A21ADE
:10438000B30AE12CF12CEA14FB0499F32D893E8940
:10439000A701BE01685E7F4FC8010E942705B801D2
:1043A000CE0141960E949B064C01C8010E9406095D
:1043B000892821F08FEFE81AF80AE5CFCE0141965F
:1043C0000E940609EF20E09409F45AC08C8D9D8D5F
:1043D000E88DF98DE12CF12CE816F90651F02191C8
:1043E0002C3219F4C12CD12C18C02FEFE21AF20A8A
:1043F000F3CFEE24EA94FE2CF5CFEFEFEE1AFE0A8F
:10440000E216F30658F5FC01EE0DFF1D60816C32DB
:10441000A1F76FEFE616F60609F1FFEFEF16FF06BC
:1044200009F441C097012C193D09A601BE01685E3F
:104430007F4FC8010E942705B801CE0186960E94D1
:104440005104C8010E940609A7014F5F5F4F6A012E
:104450002C8D3D8D888D998D7A01D2CFBE01685EFD
:104460007F4FC8010E942705B801CE0186960E94A1
:104470005104C8010E940609EE24EA94FE2CCDCF17
:1044800028AD39AD21503109A601BE016C5C7F4FCA
:10449000C8010E942705B801CE0186960E945104EA
:1044A000C8010E940609CE0148960E940609C0CEA6
:1044B000EC960FB6F894DEBF0FBECDBFDF91CF9163
:1044C0001F910F91FF90EF90DF90CF90BF90AF9032
:1044D0009F908F90089504970C948A200F931F93B8
:1044E000CF93DF931F92CDB7DEB70EEB13E01092A0
:1044F000C1031092C00388EE93E0A0E0B0E0809387
:10450000C2039093C303A093C403B093C5038EE783
:1045100091E09093BF038093BE0385EC90E090936D
:10452000CB038093CA0384EC90E09093CD038093F7
:10453000CC0380EC90E09093CF038093CE0381EC8A
:1045400090E09093D1038093D00382EC90E090931D
:10455000D3038093D20386EC90E09093D5038093AD
:10456000D4031092D7031092D8031092D90310925B
:10457000DA03AE014F5F5F4F65EE72E086EB94E0C9
:104580000E942E09AE014F5F5F4F68EE72E08FEA26
:1045900094E00E942E09AE014F5F5F4F6BEE72E018
:1045A00088EA94E00E942E09AE014F5F5F4F60EFF2
:1045B00072E081EA94E00E942E09AE014F5F5F4FE6
:1045C00064EF72E08AE994E00E942E09AE014F5F29
:1045D0005F4F68EF72E083E994E00E942E09AE011C
:1045E0004F5F5F4F6CEF72E08CE894E00E942E0901
:1045F000AE014F5F5F4F60E073E085E894E00E949A
:104600002E09E1E2F0E0F0937304E093720410925B
:104610007404109275041092760446E050E060E055
:1046200070E040937704509378046093790470931A
:104630007A0410927B0410927C0410927D041092F4
:104640007E0420E220937F04109281041092800463
:10465000109284048DE594E0909383048093820407
:104660008EE192E090935C0480935B0488E292E098
:104670009093700480936F04109261041092600410
:104680001092630410926204109265041092640404
:1046900010926704109266041092690410926804E4
:1046A00010926B0410926A048CEF91E090935E0478
:1046B00080935D0410936E0400936D0430E1309399
:1046C0006C04F093AC03E093AB031092AD03109233
:1046D000AE031092AF034093B0035093B1036093C5
:1046E000B2037093B3031092B4031092B503109207
:1046F000B6031092B7032093B8031092BA03109236
:10470000B9031092BD03109292031092930310927A
:1047100094031092950326E933E03093BC03209371
:10472000BB0326EA31E0309391032093900320EB02
:1047300031E03093A9032093A80310929A031092BA
:10474000990310929C0310929B0310929E03109267
:104750009D031092A00310929F031092A203109247
:10476000A1031092A4031092A30390939703809344
:1047700096031093A7030093A60388E08093A503F4
:1047800010928F0310928E0310938D0300938C036D
:104790006CE77AE084E99AE00E94912690938F0377
:1047A00080938E0380911B0390911C03892B09F049
:1047B00040C08FE290E00E9464258C018CE892E07A
:1047C000F8019183808312821382148215821682EB
:1047D000108617821286118681E090E09487838785
:1047E0008BEE97E4A2ECB9E485879687A787B08B18
:1047F00080E090E0ACECB2E4858B968BA78BB08F19
:10480000818F928FA38FB48F858F968FA78FB0A340
:104810000E940916F80165A376A387A390A712A6A4
:1048200011A613A614A616A615A610931C03009392
:104830001B0380911B0390911C0390938B03809327
:104840008A038CEA92E090935D0380935C038FE08F
:1048500080935E031092600310925F0381E090E00A
:10486000909362038093610384E991EFA6E4B5E439
:104870008093630390936403A0936503B0936603EE
:1048800010926B0310926C0310926D0310926E03E2
:1048900010926F03109270031092710310927203C2
:1048A00010927303109274031092750310927603A2
:1048B0000E94091660937B0370937C0380937D03B1
:1048C00090937E0380E690E09093800380937F0333
:1048D000109281031092820310928303109284033A
:1048E00081E0809385038093860310928703109262
:1048F0008903109288038091170390911803892BE4
:10490000E1F483E090E00E9464258C0184E892E069
:10491000F8019183808382E0828384E00E94BE0D4F
:10492000F8018281882329F0128260E084E00E94ED
:10493000500E109318030093170380911703909162
:10494000180390935B0380935A038AE492E0909358
:104950004D0380934C038AE592E090934F0380933C
:104960004E0384E692E0909351038093500310929B
:1049700053031092520310925503109254030E9455
:10498000891190935703809356030E943910909396
:104990005903809358030E94891190934B0380938D
:1049A0004A038091190390911A03892BC9F489E075
:1049B00090E00E9464258C0188E392E0F8019183E5
:1049C000808388E090E095838483178216820E941A
:1049D0006425F8019383828310931A0300931903CB
:1049E0008091190390911A0390934903809348038F
:1049F0000E94391090934703809346030E94CB0393
:104A0000909345038093440389E090E090932D03B5
:104A100080932C038AE090E090932F0380932E03E1
:104A20001092320380E2809333031092340385E0C6
:104A300080933A0385E090E0A0E0B0E080934003EB
:104A400090934103A0934203B09343031092350324
:104A50000E946816609328037093290380932A03A9
:104A600090932B030F90DF91CF911F910F91089599
:104A70008CE493E00E94E50180E993E00E94DE0A65
:104A80008BE594E00E942C0B85E894E00E940609D7
:104A90008CE894E00E94060983E994E00E940609EC
:104AA0008AE994E00E94060981EA94E00E940609DE
:104AB00088EA94E00E9406098FEA94E00E940609C1
:104AC00086EB94E00C940609CF93DF938230910536
:104AD00010F482E090E0E091C804F091C90420E075
:104AE00030E0C0E0D0E0309711F1408151814817AB
:104AF0005907C0F04817590761F4828193812097C4
:104B000019F09B838A832BC09093C9048093C804B7
:104B100026C02115310519F04217530718F49A01E0
:104B2000BE01DF01EF010280F381E02DDCCF211512
:104B3000310509F1281B390B2430310590F4129608
:104B40008D919C9113976115710521F0FB01938361
:104B5000828304C09093C9048093C804FD013296F7
:104B600044C0FD01E20FF31F81939193225031095C
:104B70002D933C933AC02091C6043091C704232B57
:104B800041F420910501309106013093C704209330
:104B9000C60420910301309104012115310541F42F
:104BA0002DB73EB74091070150910801241B350BEA
:104BB000E091C604F091C704E217F307A0F42E1B9E
:104BC0003F0B2817390778F0AC014E5F5F4F241771
:104BD000350748F04E0F5F1F5093C7044093C6043B
:104BE0008193919302C0E0E0F0E0CF01DF91CF919B
:104BF00008950F931F93CF93DF93009709F48CC010
:104C0000FC013297138212820091C8041091C904EA
:104C10000115110581F420813181820F931F2091AC
:104C2000C6043091C7042817390779F5F093C704F3
:104C3000E093C60471C0D80140E050E0AE17BF0752
:104C400050F412962D913C911397AD012115310529
:104C500009F1D901F3CF9D01DA0133832283608109
:104C60007181860F971F8217930769F4EC012881E1
:104C70003981260F371F2E5F3F4F318320838A8172
:104C80009B8193838283452B29F4F093C904E0939D
:104C9000C80442C01396FC93EE931297ED0149911C
:104CA00059919E01240F351FE217F30771F480819B
:104CB0009181840F951F029611969C938E93828109
:104CC000938113969C938E931297E0E0F0E0D801C5
:104CD00012968D919C911397009719F0F8018C0111
:104CE000F6CF8D919C9198012E5F3F4F820F931FBD
:104CF0002091C6043091C7042817390769F430970A
:104D000029F41092C9041092C80402C013821282BE
:104D10001093C7040093C604DF91CF911F910F91A8
:104D200008950F931F93CF93DF93009731F461158C
:104D3000710519F480E090E03AC08B01EC016EE05F
:104D400070E081E090E00E94D428FC01892B91F36F
:104D500080E883830115110571F01387028781E8CC
:104D600083838091CA049091CB04892B21F4F09322
:104D7000CB04E093CA042097C9F0D187C087838110
:104D8000826083838091CC049091CD04892B71F44F
:104D9000F093CD04E093CC048091CE049091CF04A5
:104DA000892B21F4F093CF04E093CE04CF01DF915F
:104DB000CF911F910F910895A0E0B0E0E2EEF6E2EE
:104DC0000C94B129AE01495F5F4FDA016D917D917D
:104DD000AD010AEC14E0F80182819381DC011396A5
:104DE0002C911397286013962C930E940227D801C8
:104DF0001296ED91FC9113972381277F2383E4E0A2
:104E00000C94CD29ACE0B0E0E8E0F7E20C94A329E3
:104E10007C016B018A01FC0117821682838181FF6C
:104E2000BDC1CE0101964C01F7019381F60193FDBE
:104E3000859193FF81916F01882309F4ABC185327D
:104E400039F493FD859193FF81916F01853229F4A7
:104E5000B70190E00E940D29E7CF512C312C20E0C2
:104E60002032A0F48B3269F030F4803259F0833272
:104E700069F420612CC08D3239F0803339F421601F
:104E800026C02260246023C0286021C027FD27C0DF
:104E900030ED380F3A3078F426FF06C0FAE05F9E16
:104EA000300D1124532E13C08AE0389E300D11248A
:104EB000332E20620CC08E3221F426FD6BC120649B
:104EC00006C08C3611F4206802C0883641F4F60121
:104ED00093FD859193FF81916F018111C1CF982F2F
:104EE0009F7D9554933028F40C5F1F4FFFE3F983A7
:104EF0000DC0833631F0833771F0833509F05BC024
:104F000022C0F801808189830E5F1F4F442443949F
:104F1000512C540115C03801F2E06F0E711CF801DC
:104F2000A080B18026FF03C0652D70E002C06FEF46
:104F30007FEFC5012C870E9402292C0183012C855B
:104F40002F77222E17C03801F2E06F0E711CF80186
:104F5000A080B18026FF03C0652D70E002C06FEF16
:104F60007FEFC5012C870E94F0282C012C8520683A
:104F7000222E830123FC1BC0832D90E04816590686
:104F8000B0F4B70180E290E00E940D293A94F4CF8A
:104F9000F50127FC859127FE81915F01B70190E023
:104FA0000E940D2931103A94F1E04F1A5108411432
:104FB000510471F7E5C0843611F0893639F5F801EE
:104FC00027FF07C060817181828193810C5F1F4F31
:104FD00008C060817181072E000C880B990B0E5F51
:104FE0001F4F2F76722E97FF09C090958095709570
:104FF00061957F4F8F4F9F4F2068722E2AE030E0DF
:10500000A4010E944529A82EA81844C0853729F478
:105010002F7EB22E2AE030E025C0F22FF97FBF2E7E
:105020008F36C1F018F4883579F0B4C0803719F0A4
:10503000883721F0AFC02F2F2061B22EB4FE0DC0F3
:105040008B2D8460B82E09C024FF0AC09F2F966064
:10505000B92E06C028E030E005C020E130E002C0F3
:1050600020E132E0F801B7FE07C0608171818281E2
:1050700093810C5F1F4F06C06081718180E090E0DA
:105080000E5F1F4FA4010E944529A82EA818FB2DD2
:10509000FF777F2E76FE0BC0372D3E7FA51450F490
:1050A00074FE0AC072FC08C0372D3E7E05C0BA2CC3
:1050B000372D03C0BA2C01C0B52C34FF0DC0FE0142
:1050C000EA0DF11D8081803311F4397E09C032FF71
:1050D00006C0B394B39404C0832F867809F0B394C8
:1050E00033FD13C030FF06C05A2CB31418F4530C10
:1050F0005B18B32CB31468F4B70180E290E03C87EE
:105100000E940D29B3943C85F5CFB31410F43B18DD
:1051100001C0312C34FF12C0B70180E390E03C871E
:105120000E940D293C8532FF17C031FD03C088E77E
:1051300090E002C088E590E0B7010CC0832F86782C
:1051400059F031FF02C08BE201C080E237FD8DE2F1
:10515000B70190E00E940D29A51438F4B70180E34F
:1051600090E00E940D295A94F7CFAA94F401EA0D19
:10517000F11D8081B70190E00E940D29A110F5CFAB
:10518000332009F451CEB70180E290E00E940D294E
:105190003A94F6CFF7018681978102C08FEF9FEF97
:1051A0002C96E2E10C94BF290F931F93CF93DF93CA
:1051B000869F8001879F100D969F100D1124C801B6
:1051C0000E946425EC01009729F0A80160E070E0DE
:1051D0000E94FB28CE01DF91CF911F910F9108957E
:1051E000FC010590615070400110D8F780959095B2
:1051F0008E0F9F1F0895DC0101C06D9341505040F8
:10520000E0F70895FC016150704001900110D8F75B
:10521000809590958E0F9F1F08950F931F93CF93A6
:10522000DF93FB01238121FD03C08FEF9FEF28C097
:1052300022FF16C0468157812481358142175307CA
:1052400044F4A081B1819D012F5F3F4F31832083C2
:105250008C93268137812F5F3F4F3783268310C081
:10526000EB01092F182F0084F185E02D0995892B7A
:10527000E1F68E819F8101969F838E83812F902FEF
:10528000DF91CF911F910F910895FA01AA2728303D
:1052900051F1203181F1E8946F936E7F6E5F7F4F03
:1052A0008F4F9F4FAF4FB1E03ED0B4E03CD0670F7F
:1052B000781F891F9A1FA11D680F791F8A1F911DD2
:1052C000A11D6A0F711D811D911DA11D20D009F422
:1052D00068943F912AE0269F11243019305D319364
:1052E000DEF6CF010895462F4770405D4193B3E04D
:1052F0000FD0C9F7F6CF462F4F70405D4A3318F0F4
:10530000495D31FD4052419302D0A9F7EACFB4E0A4
:10531000A6959795879577956795BA95C9F700975C
:105320006105710508959B01AC010A2E06945795FD
:10533000479537952795BA95C9F7620F731F841F54
:10534000951FA01D08952F923F924F925F926F92EA
:105350007F928F929F92AF92BF92CF92DF92EF9205
:10536000FF920F931F93CF93DF93CDB7DEB7CA1B86
:10537000DB0B0FB6F894DEBF0FBECDBF09942A88B1
:10538000398848885F846E847D848C849B84AA8459
:10539000B984C884DF80EE80FD800C811B81AA81E6
:1053A000B981CE0FD11D0FB6F894DEBF0FBECDBFB1
:1053B000ED0108955058BB27AA270E94F2290C94AA
:1053C000CD2B0E94BF2B38F00E94C62B20F039F461
:1053D0009F3F19F426F40C94952B0EF4E095E7FB0F
:1053E0000C948F2BE92F0E94DE2B58F3BA1762071B
:1053F00073078407950720F079F4A6F50C94002C28
:105400000EF4E0950B2EBA2FA02D0B01B9019001DF
:105410000C01CA01A0011124FF27591B99F0593F23
:1054200050F4503E68F11A16F040A22F232F342F6B
:105430004427585FF3CF469537952795A795F040B9
:105440005395C9F77EF41F16BA0B620B730B840BCE
:10545000BAF09150A1F0FF0FBB1F661F771F881F86
:10546000C2F70EC0BA0F621F731F841F48F48795DE
:1054700077956795B795F7959E3F08F0B0CF9395D0
:10548000880F08F09927EE0F9795879508950E9449
:105490006B2B08F481E008950E94602A0C94CD2BB8
:1054A0000E94C62B58F00E94BF2B40F029F45F3FAA
:1054B00029F00C948F2B51110C94012C0C94952BEA
:1054C0000E94DE2B68F39923B1F3552391F3951BCA
:1054D000550BBB27AA2762177307840738F09F5F15
:1054E0005F4F220F331F441FAA1FA9F335D00E2E82
:1054F0003AF0E0E832D091505040E695001CCAF7EF
:105500002BD0FE2F29D0660F771F881FBB1F2617B1
:1055100037074807AB07B0E809F0BB0B802DBF0188
:10552000FF2793585F4F3AF09E3F510578F00C9457
:105530008F2B0C94012C5F3FE4F3983ED4F38695B7
:1055400077956795B795F7959F5FC9F7880F911D78
:105550009695879597F90895E1E0660F771F881F64
:10556000BB1F621773078407BA0720F0621B730B17
:10557000840BBA0BEE1F88F7E095089529F416F016
:105580000C948F2B0C94002C0C94952B0E94E62BE2
:10559000A8F39638A0F707F80F92E8942BE33AEABD
:1055A00048EB5FE70E94982C0F920F920F924DB735
:1055B0005EB70F920E944E2CE8E6F0E00E94982B16
:1055C0004F915F91EF91FF91E595EE1FFF1F49F01D
:1055D000FE57E0684427EE0F441FFA95E1F7419526
:1055E000550B0E94182C0F9007FE0C940C2C08955C
:1055F0000E94FF2A6894B1110C94012C08950E9416
:10560000E62B88F09F5798F0B92F9927B751B0F043
:10561000E1F0660F771F881F991F1AF0BA95C9F736
:1056200014C0B13091F00E94002CB1E008950C94A8
:10563000002C672F782F8827B85F39F0B93FCCF35B
:10564000869577956795B395D9F73EF490958095B3
:10565000709561957F4F8F4F9F4F0895E89409C0D3
:1056600097FB3EF490958095709561957F4F8F4F95
:105670009F4F9923A9F0F92F96E9BB279395F695AB
:10568000879577956795B795F111F8CFFAF4BB0F29
:1056900011F460FF1BC06F5F7F4F8F4F9F4F16C08D
:1056A000882311F096E911C0772321F09EE8872F17
:1056B000762F05C0662371F096E8862F70E060E0D3
:1056C0002AF09A95660F771F881FDAF7880F96954C
:1056D000879597F90895990F0008550FAA0BE0E8F0
:1056E000FEEF16161706E807F907C0F012161306A4
:1056F000E407F50798F0621B730B840B950B39F4E4
:105700000A2661F0232B242B252B21F408950A2649
:1057100009F4A140A6958FEF811D811D089597F989
:105720009F6780E870E060E008959FEF80EC089547
:10573000DF93CF931F930F93FF92EF92DF927B0142
:105740008C01689406C0DA2EEF010E94952CFE01B0
:10575000E894A5912591359145915591A6F3EF01D6
:105760000E94F229FE019701A801DA9469F7DF90FF
:10577000EF90FF900F911F91CF91DF91089500243A
:105780000A941616170618060906089500240A94A6
:1057900012161306140605060895092E0394000C2C
:1057A00011F4882352F0BB0F40F4BF2B11F460FFBB
:1057B00004C06F5F7F4F8F4F9F4F089557FD9058E4
:1057C000440F551F59F05F3F71F04795880F97FBC5
:1057D000991F61F09F3F79F087950895121613067F
:1057E0001406551FF2CF4695F1DF08C016161706AE
:1057F0001806991FF1CF86957105610508940895E3
:10580000E894BB2766277727CB0197F908950E9474
:105810006B2B08F48FEF08959B01AC0160E070E002
:1058200080E89FE30C944C2A0C948F2B0C94F42C5E
:105830000E94E62BD8F39923C9F3940F511DA3F3CB
:105840009150504094F059F0882332F0660F771F42
:10585000881F91505040C1F79E3F51052CF7880F8B
:10586000911D9695879597F908955F3FACF0983E06
:105870009CF0BB27869577956795B79508F4B1603E
:105880009395C1F7BB0F58F711F460FFE8CF6F5F36
:105890007F4F8F4F9F4FE3CF0C94012CFA01DC0117
:1058A000AA0FBB1F9B01AC01BF5728F42227332747
:1058B0004427507820C0B75190F4AB2F0024469570
:1058C00037952795011CA395D2F3002071F0220F84
:1058D000331F441FB395DAF30ED00C94DA296130EC
:1058E0007105A0E88A07B94630F49B01AC01662730
:1058F000772788279078309621F020833183428360
:10590000538308950E94952C0C94CD2B0E94BF2B9D
:1059100038F00E94C62B20F0952311F00C948F2BA9
:105920000C94952B11240C94012C0E94DE2B70F307
:10593000959FC1F3950F50E0551F629FF001729F34
:10594000BB27F00DB11D639FAA27F00DB11DAA1F43
:10595000649F6627B00DA11D661F829F2227B00D90
:10596000A11D621F739FB00DA11D621F839FA00D1B
:10597000611D221F749F3327A00D611D231F849F6B
:10598000600D211D822F762F6A2F11249F575040C2
:105990009AF0F1F088234AF0EE0FFF1FBB1F661F3D
:1059A000771F881F91505040A9F79E3F510580F006
:1059B0000C948F2B0C94012C5F3FE4F3983ED4F3AE
:1059C000869577956795B795F795E7959F5FC1F7AA
:1059D000FE2B880F911D9695879597F908950E9443
:1059E0006B2B880B990B08959F3F31F0915020F459
:1059F000879577956795B795880F911D96958795AB
:105A000097F90895A1E21A2EAA1BBB1BFD010DC038
:105A1000AA1FBB1FEE1FFF1FA217B307E407F5075E
:105A200020F0A21BB30BE40BF50B661F771F881F3A
:105A3000991F1A9469F760957095809590959B01D0
:105A4000AC01BD01CF010895EE0FFF1F0590F49149
:105A5000E02D099481E090E0F8940C94602DFB0116
:105A6000DC014150504030F08D910190801919F4C3
:105A70000020B9F7881B990B0895AEE0B0E0E3E48D
:105A8000FDE20C94B1290D891E8986E08C831A836E
:105A900009838FEF9FE79E838D83AE01475E5F4F43
:105AA0006F89788DCE0101960E9402272F8138855B
:105AB000F801E20FF31F10822E96E4E00C94CD293A
:105AC00011E0CAEBD1E004C0FE010E94242D219612
:0A5AD000CB3BD107C9F7F894FFCFD4
