:100000000C9454000C947C000C947C000C947C00A8
:100010000C947C000C947C000C947C000C947C0070
:100020000C947C000C947C000C947C000C947C0060
:100030000C947C000C947C000C947C000C947C0050
:100040000C94F4030C947C000C9464040C943E0413
:100050000C947C000C947C000C947C000C947C0030
:100060000C947C000C947C0000000000250028000B
:100070002B0000000000240027002A0004040404D0
:100080000404040402020202020203030303030342
:10009000010204081020408001020408102001021F
:1000A000040810209604B90511241FBECFEFD8E034
:1000B000DEBFCDBF11E0A0E0B1E0E8EEFEE002C09F
:1000C00005900D92A839B107D9F722E0A8E9B1E06F
:1000D00001C01D92A23AB207E1F710E0C3E5D0E0FB
:1000E00004C02197FE010E945C07C235D107C9F701
:1000F0000E9458050C9467070C9400001F93CF933F
:10010000DF93182FC091A101D091A2018A3041F450
:10011000E881F9810190F081E02D6DE0CE01099533
:10012000E881F9810190F081E02D612FCE010995E0
:1001300021E030E0019711F420E030E0C901DF91C7
:10014000CF911F910895CF93DF93C091A101D091DA
:10015000A201E881F9810084F185E02DCE010995A5
:10016000892BB9F3E881F9810284F385E02DCE0172
:10017000DF91CF910994FC01538D448D252F30E000
:10018000842F90E0821B930B541710F0CF960895A4
:1001900001970895FC01918D828D981761F0828DF1
:1001A000DF01A80FB11D5D968C91928D9F5F9F73AB
:1001B000928F90E008958FEF9FEF0895FC01918D4D
:1001C000828D981731F0828DE80FF11D858D90E0BA
:1001D00008958FEF9FEF0895FC01918D228D892F57
:1001E00090E0805C9F4F821B91098F73992708953F
:1001F000FC01848DDF01A80FB11DA35ABF4F2C91C4
:10020000848D90E001968F739927848FA689B78992
:100210002C93A089B1898C9180648C93938D848D6B
:10022000981306C00288F389E02D80818F7D80833A
:100230000895EF92FF920F931F93CF93DF93EC01FA
:1002400081E0888F9B8D8C8D981305C0E889F98992
:10025000808185FD24C0F62E0B8D10E00F5F1F4FAF
:100260000F731127E02E8C8DE8120CC00FB607FC1F
:10027000FACFE889F989808185FFF5CFCE010E9408
:10028000F800F1CF8B8DFE01E80FF11DE35AFF4F0F
:10029000F0820B8FEA89FB898081806207C0EE893A
:1002A000FF896083E889F98980818064808381E0A7
:1002B00090E0DF91CF911F910F91FF90EF90089503
:1002C000CF93DF93EC01888D8823C9F0EA89FB89FD
:1002D000808185FD05C0A889B9898C9186FD0FC0F4
:1002E0000FB607FCF5CF808185FFF2CFA889B989C9
:1002F0008C9185FFEDCFCE010E94F800E7CFDF9112
:10030000CF91089581ED91E00E94EC0021E0892BCE
:1003100009F420E0822F089580E090E0892B29F0F5
:100320000E94820181110C9400000895DC01ED917E
:10033000FC910190F081E02D0994CF92DF92EF9231
:10034000FF920F931F93CF93DF936C017A018B0180
:10035000C0E0D0E0CE15DF0589F0D8016D918D01A8
:10036000D601ED91FC910190F081E02DC601099537
:10037000892B11F47E0102C02196ECCFC701DF91D9
:10038000CF911F910F91FF90EF90DF90CF90089544
:10039000089580E090E00895CB0108957F928F92B8
:1003A0009F92AF92BF92CF92DF92EF92FF920F9304
:1003B0001F93CF93DF93EC0149015A018B01C12CAC
:1003C000D12C7601C814D904EA04FB0484F5F801A1
:1003D00071908F018F8580FF0BC0E881F9810084C7
:1003E000F185E02D20E144E060E070E0CE01099568
:1003F000EB85FC858D859E85E817F90738F47082BA
:100400008B859C8501969C878B870BC0E881F98141
:10041000672D70E0028CF38DE02DCE0109950196D9
:1004200049F02FEFC21AD20AE20AF20ACBCFB40186
:10043000C50102C0B601C701DF91CF911F910F9195
:10044000FF90EF90DF90CF90BF90AF909F908F90F4
:100450007F900895CF93DF93EC01E881F9810288C2
:10046000F389E02D09958F3F2FEF920731F02D8111
:100470003E812F5F3F4F3E832D83DF91CF910895C3
:100480008FEF9FEF089560E070E0CB01089580E06A
:1004900090E008950F931F93CF93DF938C01EB01AE
:1004A0006F3F8FEF780719F480E090E00FC06A305B
:1004B00031F46DE0F801808991890E9496016C2FDA
:1004C000F801808991890E949601CE01DF91CF9138
:1004D0001F910F9108958F929F92BF92CF92DF92BA
:1004E000EF92FF920F931F93CF93DF9300D000D032
:1004F000CDB7DEB78C014B01C12CD12C7601C216D1
:10050000D306E406F50644F5F401B1904F01FAE094
:10051000BF120EC06DE0F8018089918929833A836A
:100520004B835C830E9496015C814B813A812981D7
:100530006B2DF8018089918929833A834B835C83F1
:100540000E949601FFEFCF1ADF0AEF0AFF0A5C81D3
:100550004B813A812981D3CFCA01B9010F900F9005
:100560000F900F90DF91CF911F910F91FF90EF901F
:10057000DF90CF90BF909F908F900895CB0108950A
:10058000CF93DF93EC0188899989DC01ED91FC918F
:100590000084F185E02D0995892BA9F38889998933
:1005A000DC01ED91FC910284F385E02DDF91CF9188
:1005B0000994CF93DF93EC0188899989DC01ED914F
:1005C000FC910084F185E02D0995892BA9F3888998
:1005D0009989DC01ED91FC910484F585E02DDF9192
:1005E000CF910994AF92BF92CF92DF92EF92FF9298
:1005F0000F931F93CF93DF9300D000D0CDB7DEB71A
:100600008C015B01C12CD12C7601F8018089918984
:10061000DC01ED91FC910284F385E02D29833A837E
:100620004B835C83099529813A814B815C818F3FA3
:1006300071F0C216D306E406F5064CF4D5018D938D
:100640005D01BFEFCB1ADB0AEB0AFB0ADECFC70165
:10065000B6010F900F900F900F90DF91CF911F91E7
:100660000F91FF90EF90DF90CF90BF90AF900895E3
:10067000DC0150968D919C915197DC01ED91FC919C
:100680000084F185E02D099480E090E0089580E0F9
:1006900090E0089580E090E0089580E090E0089573
:1006A00008950895089508950E9462070C94BD0668
:1006B000089508950C94BD06DC01ED91FC913697E8
:1006C00020813181820F931F0C945A03FB012081FA
:1006D0003181FC0131832083FB0142815381F90187
:1006E000369720813181FC01E20FF31F5183408353
:1006F000089526E431E0FC013183208320E531E0D8
:10070000318F208F66E571E00C946603DC01ED917A
:10071000FC91369720813181820F931F0C947903CD
:10072000CF93DF93EC010E947903CE01DF91CF914B
:100730000C94BD06DC01ED91FC913697208131814E
:10074000820F931F0C9490030C94BD060895089596
:100750000C94BD06DC01ED91FC913697208131812E
:10076000820F931F0C94A803FB0120813181FC01AF
:1007700031832083FB0142815381F9013697208127
:100780003181FC01E20FF31F51834083089522E879
:1007900031E0FC01318320832CE831E0358B248B60
:1007A00062E971E00C94B403DC01ED91FC913697A1
:1007B00020813181820F931F0C94C703CF93DF9365
:1007C000EC010E94C703CE01DF91CF910C94BD06CE
:1007D000DC01ED91FC91369720813181820F931FCE
:1007E0000C94DE030C94BD061F920F920FB60F926D
:1007F00011242F933F938F939F93AF93BF93809137
:100800009D0190919E01A0919F01B091A001309116
:100810009C0123E0230F2D3720F40196A11DB11D6B
:1008200005C026E8230F0296A11DB11D20939C014F
:1008300080939D0190939E01A0939F01B093A0018E
:100840008091980190919901A0919A01B0919B019A
:100850000196A11DB11D8093980190939901A093D9
:100860009A01B0939B01BF91AF919F918F913F915E
:100870002F910F900FBE0F901F9018951F920F92FF
:100880000FB60F9211242F933F934F935F936F9363
:100890007F938F939F93AF93BF93EF93FF9381EDDC
:1008A00091E00E94F800FF91EF91BF91AF919F916D
:1008B0008F917F916F915F914F913F912F910F9009
:1008C0000FBE0F901F9018951F920F920FB60F92A8
:1008D00011242F938F939F93EF93FF93E091E10166
:1008E000F091E2018081E091E701F091E80182FD61
:1008F00012C090818091EA018F5F8F732091EB018C
:10090000821751F0E091EA01F0E0EF52FE4F958F2F
:100910008093EA0101C08081FF91EF919F918F91B7
:100920002F910F900FBE0F901F901895CF93DF93CC
:10093000A1EDB1E013961C921E92129748EE53E07F
:1009400060E070E014964D935D936D937C931797E0
:1009500082E391E011969C938E9385EC90E01D9636
:100960009C938E931C9784EC90E01F969C938E939F
:100970001E9780EC90E051969C938E93509781EC5B
:1009800090E053969C938E93529782EC90E055960C
:100990009C938E93549786EC90E057969C938E93FD
:1009A000569759961C9259975A961C925A975B964D
:1009B0001C925B975C961C925C97EEE6F2E0C1E2BB
:1009C000D0E0D08FC78B118E128E138E46E050E090
:1009D00060E070E0448F558F668F778F10A211A270
:1009E00012A213A220E224A316A215A211A680E748
:1009F00092E090A787A382E891E0918380838CE8BE
:100A000091E0958B848B1682158210861782128650
:100A100011861486138616861586108A178680E638
:100A200091E093838283B38BA28B30E1318BE3EA35
:100A3000F1E0D48FC38F158E168E178E40A351A36D
:100A400062A373A314A215A216A217A220A712A62E
:100A500011A615A6128213821482158229EA31E0AA
:100A600034A723A726E431E03183208320E531E059
:100A7000318F208F1286118614861386168615866E
:100A8000108A1786128A118A148A138A978386839A
:100A9000B78BA68B88E0858BB093A201A093A101B0
:100AA00063EA70E08EE790E0DF91CF910C94C1058E
:100AB000789484B5826084BD84B5816084BD85B539
:100AC000826085BD85B5816085BD80916E00816045
:100AD00080936E00109281008091810082608093EB
:100AE00081008091810081608093810080918000ED
:100AF0008160809380008091B10084608093B10018
:100B00008091B00081608093B00080917A00846011
:100B100080937A0080917A00826080937A0080913D
:100B20007A00816080937A0080917A008068809357
:100B30007A001092C100EFE9F0E02491EBE8F0E0D8
:100B40008491882399F090E0880F991FFC01EE585A
:100B5000FF4FA591B491FC01E859FF4F8591949105
:100B60008FB7F894EC91E22BEC938FBF0E948C012D
:100B7000FDCF83EA91E00E9479038EE692E00C9427
:100B8000C7030F931F93CF93DF93009731F4611541
:100B9000710519F480E090E03AC08B01EC016EE041
:100BA00070E081E090E00E940C06FC01892B91F33B
:100BB00080E883830115110571F01387028781E8AE
:100BC00083838091980290919902892B21F4F0936C
:100BD0009902E09398022097C9F0D187C08783815A
:100BE0008260838380919A0290919B02892B71F499
:100BF000F0939B02E0939A0280919C0290919D0257
:100C0000892B21F4F0939D02E0939C02CF01DF91A8
:100C1000CF911F910F9108950F931F93CF93DF935F
:100C2000869F8001879F100D969F100D1124C8018B
:100C30000E942806EC01009729F0A80160E070E00E
:100C40000E945507CE01DF91CF911F910F9108951A
:100C5000CF93DF938230910510F482E090E0E09131
:100C6000A002F091A10220E030E0C0E0D0E0309797
:100C700011F14081518148175907C0F048175907B1
:100C800061F482819381209719F09B838A832BC022
:100C90009093A1028093A00226C02115310519F07E
:100CA0004217530718F49A01BE01DF01EF010280D9
:100CB000F381E02DDCCF2115310509F1281B390B1B
:100CC0002430310590F412968D919C911397611503
:100CD000710521F0FB019383828304C09093A102EC
:100CE0008093A002FD01329644C0FD01E20FF31F84
:100CF00081939193225031092D933C933AC02091D6
:100D00009E0230919F02232B41F4209102013091E9
:100D1000030130939F0220939E02209100013091A5
:100D200001012115310541F42DB73EB74091040171
:100D300050910501241B350BE0919E02F0919F021A
:100D4000E217F307A0F42E1B3F0B2817390778F0A2
:100D5000AC014E5F5F4F2417350748F04E0F5F1F01
:100D600050939F0240939E028193919302C0E0E0D2
:100D7000F0E0CF01DF91CF9108950F931F93CF93B0
:100D8000DF93009709F48CC0FC0132971382128222
:100D90000091A0021091A1020115110581F420819A
:100DA0003181820F931F20919E0230919F0228175C
:100DB000390779F5F0939F02E0939E0271C0D80144
:100DC00040E050E0AE17BF0750F412962D913C91D1
:100DD0001397AD012115310509F1D901F3CF9D011B
:100DE000DA013383228360817181860F971F821716
:100DF000930769F4EC0128813981260F371F2E5F94
:100E00003F4F318320838A819B8193838283452B4B
:100E100029F4F093A102E093A00242C01396FC9340
:100E2000EE931297ED01499159919E01240F351FC0
:100E3000E217F30771F480819181840F951F029668
:100E400011969C938E938281938113969C938E939B
:100E50001297E0E0F0E0D80112968D919C911397E3
:100E6000009719F0F8018C01F6CF8D919C919801B3
:100E70002E5F3F4F820F931F20919E0230919F0261
:100E80002817390769F4309729F41092A1021092BB
:100E9000A00202C01382128210939F0200939E024E
:100EA000DF91CF911F910F910895DC0101C06D93E7
:100EB00041505040E0F70895EE0FFF1F0590F49168
:100EC000E02D099481E090E0F8940C94670710E01D
:100ED000C3E5D0E004C0FE010E945C072196C43542
:080EE000D107C9F7F894FFCF18
:100EE8000000A202800018000000000000000000BE
:100EF800E8FFE8FF00000000000014000000000008
:100F080000000000ECFFECFF000000000000000003
:100F1800000019019D01BB006001EC00CA00DE0061
:100F280018000000000079039003E8FFE8FF0000C4
:100F380086039A0346010C011601500100000000C7
:100F48005203A40350034D034A03470344033803E1
:100F5800F202D902C002BE026B024A02140000006B
:100F68000000C703DE03ECFFECFF0000D403E80336
:080F7800820120012A018C0115
:00000001FF
