:100000000C945E000C9486000C9486000C94860080
:100010000C9486000C9486000C9486000C94860048
:100020000C9486000C9486000C9486000C94860038
:100030000C9486000C9486000C9486000C94860028
:100040000C943B0D0C9486000C9423090C94FD0831
:100050000C9486000C9486000C9486000C94860008
:100060000C9486000C948600000000080002010039
:100070000003040700000000000000000000000072
:10008000250028002B0000000000240027002A0083
:10009000040404040404040402020202020203032E
:1000A0000303030301020408102040800102040836
:1000B00010200102040810200C0EBE1711241FBED0
:1000C000CFEFD8E0DEBFCDBF13E0A0E0B1E0EAE1C2
:1000D000F8E302C005900D92A83DB107D9F725E0DD
:1000E000A8EDB3E001C01D92A33EB207E1F710E016
:1000F000CDE5D0E004C02197FE010E94E71BCC357E
:10010000D107C9F70E9424130C94001C0C94000022
:1001100008950F931F93CF93DF93EC0108AD19ADB2
:100120002CAD3DAD220F331F88AD99AD280F391F7F
:100130000217130771F0D8018D919D918D01DC019B
:10014000ED91FC910680F781E02D4FA9BE01099544
:10015000E7CFDF91CF911F910F910895CB010895C3
:100160007F928F929F92AF92BF92CF92DF92EF9247
:10017000FF920F931F93CF93DF93EC0149015A0134
:100180008B01C12CD12C7601C814D904EA04FB04DC
:1001900084F5F80171908F018F8580FF0BC0E88195
:1001A000F9810084F185E02D20E144E060E070E019
:1001B000CE010995EB85FC858D859E85E817F907AD
:1001C00038F470828B859C8501969C878B870BC049
:1001D000E881F981672D70E0028CF38DE02DCE016E
:1001E0000995019649F02FEFC21AD20AE20AF20AE3
:1001F000CBCFB401C50102C0B601C701DF91CF91D9
:100200001F910F91FF90EF90DF90CF90BF90AF9034
:100210009F908F907F900895CF93DF93EC01E881BA
:10022000F9810288F389E02D09958F3F2FEF92071E
:1002300031F02D813E812F5F3F4F3E832D83DF9133
:10024000CF9108958FEF9FEF089560E070E0CB01AC
:10025000089580E090E00895CB010895CF93DF9357
:10026000EC0188899989DC01ED91FC910084F1858C
:10027000E02D0995892BA9F388899989DC01ED91F5
:10028000FC910284F385E02DDF91CF910994CF9307
:10029000DF93EC0188899989DC01ED91FC91008460
:1002A000F185E02D0995892BA9F388899989DC01CD
:1002B000ED91FC910484F585E02DDF91CF910994B7
:1002C000AF92BF92CF92DF92EF92FF920F931F9364
:1002D000CF93DF9300D000D0CDB7DEB78C015B01A8
:1002E000C12CD12C7601F80180899189DC01ED9136
:1002F000FC910284F385E02D29833A834B835C8350
:10030000099529813A814B815C818F3F71F0C2163A
:10031000D306E406F5064CF4D5018D935D01BFEFDD
:10032000CB1ADB0AEB0AFB0ADECFC701B6010F903E
:100330000F900F900F90DF91CF911F910F91FF9031
:10034000EF90DF90CF90BF90AF900895DC01509672
:100350008D919C915197DC01ED91FC910084F18588
:10036000E02D099480E090E0089580E090E0089509
:1003700080E090E0089580E090E008950895CF93A4
:10038000DF93C091AF04D091B004E881F98100847B
:10039000F185E02DCE010995892BB9F3E881F9812A
:1003A0000284F385E02DCE01DF91CF9109941F9354
:1003B000CF93DF93182FC091AF04D091B0048A304F
:1003C00041F4E881F9810190F081E02D6DE0CE01EA
:1003D0000995E881F9810190F081E02D612FCE012E
:1003E000099521E030E0019711F420E030E0C901E7
:1003F000DF91CF911F91089522E032E0FC0131831B
:10040000208380AD91AD0C94EA18CF93DF93EC017B
:100410000E94FC01CE01DF91CF910C94EA180C945C
:10042000EA180C94EA180C94EA180C94EA18089547
:1004300008950C94EA18DC01ED91FC913697208127
:100440003181820F931F0C941902FB0120813181AD
:10045000FC0131832083FB0142815381F9013697EE
:1004600020813181FC01E20FF31F51834083089505
:100470002AE531E0FC013183208324E631E0318F2D
:10048000208F6AE671E00C942502DC01ED91FC916D
:10049000369720813181820F931F0C943802CF93BD
:1004A000DF93EC010E943802CE01DF91CF910C94D2
:1004B000EA18DC01ED91FC91369720813181820FA1
:1004C000931F0C944F020C94EA18089508950C940D
:1004D000EA18DC01ED91FC91369720813181820F81
:1004E000931F0C946702FB0120813181FC01318351
:1004F0002083FB0142815381F901369720813181AC
:10050000FC01E20FF31F51834083089522ED31E097
:10051000FC01318320832CED31E0358B248B62EE9E
:1005200071E00C947302DC01ED91FC91369720810F
:100530003181820F931F0C948602CF93DF93EC01DD
:100540000E948602CE01DF91CF910C94EA18DC0163
:10055000ED91FC91369720813181820F931F0C948D
:100560009D020C94EA180F931F93CF93DF938C0195
:10057000EB016F3F8FEF780719F480E090E00FC038
:100580006A3031F46DE0F801808991890E942B0670
:100590006C2FF801808991890E942B06CE01DF9192
:1005A000CF911F910F9108958F929F92BF92CF92FA
:1005B000DF92EF92FF920F931F93CF93DF9300D0C0
:1005C00000D0CDB7DEB78C014B01C12CD12C760108
:1005D000C216D306E406F50644F5F401B1904F01C6
:1005E000FAE0BF120EC06DE0F8018089918929837D
:1005F0003A834B835C830E942B065C814B813A815A
:1006000029816B2DF8018089918929833A834B8355
:100610005C830E942B06FFEFCF1ADF0AEF0AFF0A66
:100620005C814B813A812981D3CFCA01B9010F90F6
:100630000F900F900F90DF91CF911F910F91FF902E
:10064000EF90DF90CF90BF909F908F9008950F9381
:100650001F93CF93DF93EC01CB01088119817B833A
:100660006A830E9455189983888320E030E08C814A
:100670009D812817390770F4E881F981E20FF31F93
:10068000309729F0D801A20FB31F8C9180832F5F80
:100690003F4FEDCFC801DF91CF911F910F910C9487
:1006A000EA18CF93DF931F92CDB7DEB767EE72E003
:1006B00081EE94E049830E945B064981642F70E0DB
:1006C00080E090E04AE00E943D0B6DEF72E081EE29
:1006D00094E00F90DF91CF910C943206CF92DF928D
:1006E000EF92FF920F931F93CF93DF93FB01E5A04F
:1006F000F6A0C58DD68D038D148D68010E151F05CE
:100700000CF4670160E073E081EE94E00E945B0608
:10071000C7010E94800B60E173E081EE94E00E94CB
:100720005B06B70180E090E00E949E1A25EE30ED56
:1007300042E750E40E94531B20E030EC4FE754E4C2
:100740000E94FB1920E030E0A9010E948A1942E0D2
:100750000E94B00B6BE173E081EE94E00E945B06B7
:10076000B601CC15DD050CF4BE01601B710B072E24
:10077000000C880B990B0E949E1A20E030E048EC98
:1007800052E40E94531B6B017C01C01BD10BBE01C4
:10079000DD0F880B990B0E949E1A9B01AC01C701CB
:1007A000B6010E94FB1920E030E0A9010E948A19DD
:1007B0000E946D1A862F90E00E94800B6AE273E01F
:1007C00081EE94E0DF91CF911F910F91FF90EF9018
:1007D000DF90CF900C94470608950895FC01808126
:1007E00091810C94EA182CEE31E0FC0121933193B5
:1007F000CF010C94EE03CF93DF93EC010E94F3033F
:10080000CE01DF91CF910C94EA18CF93DF93EC01E6
:100810006C817D816F5F7F4F8A819B8186179707EF
:1008200018F4CE010E942703E881F9818C819D8113
:10083000E80FF91F108288819981DF91CF91089587
:1008400008950F931F93CF93DF93CDB7DEB72C9707
:100850000FB6F894DEBF0FBECDBFDC0114962C910D
:100860001497223099F1211104C056961C921E92C1
:1008700055978C010E942F0DF80163877487858737
:10088000968782E0848381E090E09C878B878281D9
:1008900093810097D9F025813681DC01ED91FC919F
:1008A0000480F581E02D4DE952E05A8349831C8391
:1008B0000B83AE01455F5F4F5E834D8338872F8387
:1008C0001A861986BE016F5F7F4F09952C960FB669
:1008D000F894DEBF0FBECDBFDF91CF911F910F9176
:1008E0000895CF92DF92EF92FF920F931F93CF93D1
:1008F000DF93EC01DB011496ED91FC91159780815B
:1009000091818430910509F078C0E8A9F9A9EE0F2A
:10091000FF1F8EA59FA5E80FF91F208131818AA5B1
:100920009BA5ACA5BDA5821B930BA109B1098AA704
:100930009BA7ACA7BDA789A58E3008F08E50877005
:10094000806480937C0080917A00806480937A0038
:1009500080917A0086FDFCCF80917800209179000B
:1009600090E0922B9183808348A959A99A01220F84
:10097000331FEEA5FFA5E20FF31F20813181CAA42A
:10098000DBA4ECA4FDA4C701B601620F731F811D97
:10099000911D6AA77BA78CA79DA7FA013196F9AB99
:1009A000E8AB2AA94FA158A5213011F09F0101C041
:1009B0009A01E417F50720F019AA18AA41E04AABFA
:1009C000032E000C440B550B0E94C51B8DA19EA14C
:1009D0008217930709F45CC03EA32DA3AC0160E02D
:1009E00070E0CE018396DF91CF911F910F91FF9020
:1009F000EF90DF90CF900C943E07029709F048C02B
:100A00000DA11EA18DA99EA908171907A9F12FA94B
:100A10008F8D98A121110AC029A13AA1820F931F9D
:100A20008017910750F481E08FAB04C080179107C5
:100A300020F01FAACE010E948900EDA8FEA8C8AC34
:100A4000D9AC8CAD9DAD880F991F28AD39AD820F03
:100A5000931FC816D90671F0F601819191916F012B
:100A6000DC01ED91FC910480F581E02DA701BE0130
:100A70000995E7CF1EAB0DABCE010296DF91CF916A
:100A80001F910F91FF90EF90DF90CF900C94210475
:100A9000DF91CF911F910F91FF90EF90DF90CF905A
:100AA0000895089508950895EF92FF920F931F936C
:100AB000CF93DF93EC018C819D818617970710F50A
:100AC0007A018B018A819B818617970740F4685FC2
:100AD0007F4F8617970718F4CE010E9427038C8159
:100AE0009D818017910758F4E881F981E80FF91F7B
:100AF000309719F0D7012C9120830196F2CF1D83F6
:100B00000C8305C06817790710F47D836C83DF912F
:100B1000CF911F910F91FF90EF900895CF92DF92A8
:100B2000EF92FF920F931F93FB01DC0100E010E0B6
:100B300098016A01E12CF12C0C151D052E053F05CD
:100B400038F461916D930F5F1F4F2F4F3F4FF4CFDC
:100B5000840F951F1F910F91FF90EF90DF90CF9022
:100B60000895AF92BF92CF92DF92EF92FF920F93D0
:100B70001F93CF93DF931F92CDB7DEB78C016B012C
:100B80007A01590188E090E0F8019383828315820D
:100B900014820E945518F80191838083F6018481A4
:100BA00095818E159F0510F40E94ED1B1982BC01E2
:100BB0006E197F09A616B70608F4B501AE014F5F9E
:100BC0005F4FC8010E945405F80144815581F60128
:100BD000608171816E0D7F1DF801808191810E947D
:100BE0008E050F90DF91CF911F910F91FF90EF90A5
:100BF000DF90CF90BF90AF9008950895CF92DF928D
:100C0000EF92FF920F931F93CF93DF936C017A01C2
:100C10008B01C0E0D0E0CE15DF0589F0D8016D91E1
:100C20008D01D601ED91FC910190F081E02DC6017E
:100C30000995892B11F47E0102C02196ECCFC701E2
:100C4000DF91CF911F910F91FF90EF90DF90CF90A8
:100C500008950E94ED1BDC01ED91FC910190F08163
:100C6000E02D09946115710579F0FB0101900020D8
:100C7000E9F73197AF01461B570BDC01ED91FC9171
:100C80000280F381E02D099480E090E008950F93B5
:100C90001F93CF93DF93EC010E9432068C016DEF1E
:100CA00072E0CE010E943206800F911FDF91CF913A
:100CB0001F910F9108950C943206089580E090E002
:100CC0000895FC01538D448D252F30E0842F90E052
:100CD000821B930B541710F0CF9608950197089537
:100CE000FC01918D828D981761F0828DDF01A80F34
:100CF000B11D5D968C91928D9F5F9F73928F90E056
:100D000008958FEF9FEF0895FC01918D828D9817C4
:100D100031F0828DE80FF11D858D90E008958FEF01
:100D20009FEF0895FC01918D228D892F90E0805CCA
:100D30009F4F821B91098F739927089581EE94E04C
:100D40000E94920621E0892B09F420E0822F089569
:100D5000FC01848DDF01A80FB11DA35ABF4F2C9158
:100D6000848D90E001968F739927848FA689B78927
:100D70002C93A089B1898C9180648C93938D848D00
:100D8000981306C00288F389E02D80818F7D8083CF
:100D90000895EF92FF920F931F93CF93DF93EC018F
:100DA00081E0888F9B8D8C8D981305C0E889F98927
:100DB000808185FD24C0F62E0B8D10E00F5F1F4F44
:100DC0000F731127E02E8C8DE8120CC00FB607FCB4
:100DD000FACFE889F989808185FFF5CFCE010E949D
:100DE000A806F1CF8B8DFE01E80FF11DE35AFF4FEE
:100DF000F0820B8FEA89FB898081806207C0EE89CF
:100E0000FF896083E889F98980818064808381E03B
:100E100090E0DF91CF911F910F91FF90EF90089597
:100E2000CF93DF93EC01888D8823C9F0EA89FB8991
:100E3000808185FD05C0A889B9898C9186FD0FC088
:100E40000FB607FCF5CF808185FFF2CFA889B9895D
:100E50008C9185FFEDCFCE010E94A806E7CFDF91F0
:100E6000CF91089580E090E0892B29F00E949E06A2
:100E700081110C940000089508950895CF93DF9395
:100E800000D000D0CDB7DEB7FC0149835A836B8315
:100E90007C8380899189009769F0BF01DC01ED9125
:100EA000FC910480F581E02D9E012F5F3F4F44E1CE
:100EB00050E009950F900F900F900F90DF91CF9118
:100EC000089580E090E0089581E090E0089581E049
:100ED00090E00895FC0181850895FC0161870895E3
:100EE00002960895089508950895FF920F931F9311
:100EF000CF93DF93EC010F89188D0115110521F1B6
:100F0000FE8087E090E00E945518DC0185EA92E0BF
:100F100011969C938E9316961C921E92159713967B
:100F2000DC93CE9312971496FC921497E801E88113
:100F3000F9810480F581E02DBD01C801DF91CF91D9
:100F40001F910F91FF900994DF91CF911F910F9105
:100F5000FF900895CF93DF93EC014A898B899C8998
:100F60002A813B81411110C04D895E89840F951FF4
:100F700028173907D0F081E08A8BE881F981008455
:100F8000F185E02D61E00AC08217930770F01A8A9C
:100F9000E881F9810084F185E02D60E0CE010995BA
:100FA000CE01DF91CF910C947507DF91CF91089519
:100FB0000C94EA180C94EA180C94EA180C94EA18A9
:100FC0000C94EA184F925F926F927F928F929F9249
:100FD000AF92BF92CF92DF92EF92FF920F931F9347
:100FE000CF93DF9300D0CDB7DEB79C012E5F3F4F8C
:100FF0006217730709F4EEC06B017C01FB01848169
:101000009581F7012481358128173907D0F5828031
:1010100093809583848327E0AC01249FC001259FA2
:10102000900D11240E945518F70193838283540177
:10103000612C712CF7018681978168167906F0F48E
:10104000F70122813381C50188199909820F931F05
:10105000009751F08E010F5F1F4F2FEF3FEF40E0E1
:1010600050E0B5010E94B105C5010E94EE03FFEFFB
:101070006F1A7F0A47E0A40EB11CDCCFC4010E94A6
:10108000EA18F70186819781F6018480958088159A
:10109000990508F44C01A12CB12C612C712C681419
:1010A000790479F1F601408051804A0C5B1CF7010C
:1010B000028113810A0D1B1D40165106D9F0F8015B
:1010C00084819581892B11F015821482F20164814B
:1010D00075811A82AE014E5F5F4FC8010E945405B0
:1010E000F2014481558160817181F8018081918193
:1010F0000E948E05FFEF6F1A7F0A47E0A40EB11C15
:10110000CECFF701A680B780F60184819581A8161D
:10111000B906A0F0F60104811581F7018681978157
:101120000817190708F056C087E0809F4001819F8B
:10113000900C11246801A12CB12C33C087E08A9D4A
:1011400030018B9D700C1124812C912CF60184812F
:101150009581A816B906F0F6F60160817181C40187
:10116000860D971D680F791FF70122813381820F49
:10117000931F009749F08E010F5F1F4F2FEF3FEF36
:1011800040E050E00E94B105F70186819781019609
:1011900097838683FFEFAF1ABF0A47E0840E911C46
:1011A000D5CFF70186819781C816D90688F4C50185
:1011B000880D991DF70122813381820F931F0E94B0
:1011C000EE03FFEFCF1ADF0A47E0A40EB11CE9CF10
:1011D000178306830F900F90DF91CF911F910F918E
:1011E000FF90EF90DF90CF90BF90AF909F908F9047
:1011F0007F906F905F904F9008951F920F920FB65F
:101200000F9211242F933F934F935F936F937F938C
:101210008F939F93AF93BF93EF93FF9381EE94E0EF
:101220000E94A806FF91EF91BF91AF919F918F917E
:101230007F916F915F914F913F912F910F900FBED2
:101240000F901F9018951F920F920FB60F921124B6
:101250002F938F939F93EF93FF93E091F104F0917D
:10126000F2048081E091F704F091F80482FD12C04D
:1012700090818091FA048F5F8F732091FB04821715
:1012800051F0E091FA04F0E0EF51FB4F958F80931D
:10129000FA0401C08081FF91EF919F918F912F916E
:1012A0000F900FBE0F901F90189508950895089500
:1012B0008F929F92AF92BF92CF92DF92EF92FF9266
:1012C0000F931F93CF93DF931F92CDB7DEB77C01AF
:1012D0005B01FB0184819581F701958384830896E6
:1012E0009383828327E0AC01249FC001259F900D4A
:1012F00011240E945518F70191838083C12CD12CB1
:10130000812C912CF7018481958188169906E0F44F
:10131000F501608171816C0D7D1DF70180819181E6
:101320008C0D9D1D009749F08E010F5F1F4F2FEF11
:101330003FEF40E050E00E94B105FFEF8F1A9F0A97
:1013400047E0C40ED11CDECF0F90DF91CF911F91EB
:101350000F91FF90EF90DF90CF90BF90AF909F9054
:101360008F9008950F931F93CF93DF93FC01048117
:101370001581FB01C481D581AE010C171D0708F44E
:10138000A801FB0160817181FC01808191810E9433
:10139000F21B009769F481E090E0C017D10740F09C
:1013A0000C171D0710F080E090E091958195910950
:1013B000DF91CF911F910F910895EF92FF920F93BC
:1013C0001F93CF93DF937C0100E010E0C0E0D0E0FA
:1013D000F7012481358180819181C217D30740F4C0
:1013E000800F911F0E94EE032196095F1F4FF0CFDF
:1013F000DF91CF911F910F91FF90EF900C94EA181D
:1014000025E732E0FC0121933193CF010C94DD09F3
:10141000CF93DF93EC010E94000ACE01DF91CF91C0
:101420000C94EA1825E732E0FC0121933193CF01B7
:101430000C94DD09CF93DF93EC010E94120ACE01D8
:10144000DF91CF910C94EA1825E732E0FC0121935B
:101450003193CF010C94DD09CF93DF93EC010E940F
:10146000240ACE01DF91CF910C94EA18CF92DF923B
:10147000EF92FF920F931F93CF93DF931F92CDB7FD
:10148000DEB78C01FB01E480F580E416F50610F46C
:101490000E94ED1BE41AF50A2E153F0508F47901A8
:1014A000C080D180C40ED51E88E090E0F8019383FF
:1014B0008283158214820E945518F80191838083DB
:1014C000FFEFEF16FF0621F3F6018081181684F472
:1014D0001982AE014F5F5F4FB701C8010E945405EA
:1014E000F80144815581B601808191810E948E0569
:1014F000C8010F90DF91CF911F910F91FF90EF9056
:10150000DF90CF900895CF92DF92EF92FF920F93EA
:101510001F93CF93DF931F92CDB7DEB77C016B0192
:1015200088E090E0F70193838283158214820E9401
:101530005518F70191838083C114D104B9F0F601E5
:1015400001900020E9F731978F010C191D091982CC
:10155000AE014F5F5F4FB801C7010E945405A8015B
:10156000B601F701808191810E948E050F90DF9175
:10157000CF911F910F91FF90EF90DF90CF90089542
:101580000F931F93CF93DF931F92CDB7DEB78C01DC
:10159000AE014F5F5F4F69EB73E00E94830AC801A1
:1015A0000F90DF91CF911F910F9108950F931F938B
:1015B000CF93DF931F92CDB7DEB78C01AE014F5FA3
:1015C0005F4F6CEB73E00E94830AC8010F90DF91BC
:1015D000CF911F910F9108950F931F93CF93DF9396
:1015E0001F92CDB7DEB78C01AE014F5F5F4F6EE447
:1015F00073E00E94830AC8010F90DF91CF911F9181
:101600000F9108950F931F93CF93DF931F92CDB740
:10161000DEB78C01AE014F5F5F4F6FEB73E00E944E
:10162000830AC8010F90DF91CF911F910F91089508
:101630003FB7F8948091DF039091E003A091E1031C
:10164000B091E20326B5A89B05C02F3F19F0019683
:10165000A11DB11D3FBFBA2FA92F982F8827820F38
:10166000911DA11DB11DBC01CD0142E0660F771F88
:10167000881F991F4A95D1F708958F929F92AF9234
:10168000BF920F931F93CF93DF93CDB7DEB7A19790
:101690000FB6F894DEBF0FBECDBF19A2423008F4DA
:1016A0004AE08E010F5D1F4F842E912CA12CB12C8E
:1016B000A50194010E94C51BE62FB901CA01015082
:1016C0001109EA3014F4E05D01C0E95CD801EC9343
:1016D000232B242B252B61F7B80181EE94E00E9487
:1016E0003206A1960FB6F894DEBF0FBECDBFDF91D4
:1016F000CF911F910F91BF90AF909F908F900895C1
:10170000CF92DF92EF92FF92CF93DF936C01990F0C
:10171000EE08FF08F7FE19C06DE281EE94E00E942A
:101720002B06EC0166277727CB016C197D098E0902
:101730009F094AE00E943D0B8C0F9D1FDF91CF91C6
:10174000FF90EF90DF90CF9008954AE0C701B60177
:10175000DF91CF91FF90EF90DF90CF900C943D0BF5
:101760004F925F926F927F928F929F92AF92BF92B1
:10177000CF92DF92EF92FF926B017C01B42E9B011E
:10178000AC010E94C01B882319F06BEC73E027C0EA
:1017900026013701E89477F82FEF3FEF4FE75FE737
:1017A000C301B2010E94C01B81110DC02FEF3FEF9A
:1017B0004FE75FE7C301B2010E94F61918161CF447
:1017C0006FEC73E00CC02FEF3FEF4FE75FE4C70112
:1017D000B6010E944E1B181694F463ED73E081EE7F
:1017E00094E0FF90EF90DF90CF90BF90AF909F90EC
:1017F0008F907F906F905F904F900C9432062FEFF8
:101800003FEF4FE75FECC701B6010E94F61987FD75
:10181000E4CF20E030E0A901C701B6010E94F6192B
:1018200087FF0BC06DE281EE94E00E942B064C0115
:10183000F7FAF094F7F8F09402C0812C912CA12CC7
:1018400060E070E080E09FE3AB1441F020E030E026
:1018500040E251E40E94FB19A394F6CF9B01AC0136
:10186000C701B6010E948A192B013C010E946D1A22
:101870006B017C010E949C1A9B01AC01C301B20167
:101880000E9489192B013C014AE0C701B6010E9460
:101890003D0B7C01E80CF91CBB2039F06EE281EEB7
:1018A00094E00E942B06E80EF91EDB2CDD2021F1CE
:1018B00020E030E040E251E4C301B2010E94531B3A
:1018C0002B013C010E946D1A4B01A12CB12C4AE066
:1018D000C501B4010E943D0BE80EF91EC501B4011B
:1018E0000E949C1A9B01AC01C301B2010E9489199C
:1018F0002B013C01DA94DACFC701FF90EF90DF9023
:10190000CF90BF90AF909F908F907F906F905F909F
:101910004F90089590E0FC01EC55FF4F2491FC019D
:10192000E057FF4F8491882399F090E0880F991F2A
:10193000FC01EA57FF4FA591B491FC01E458FF4F19
:10194000859194918FB7F894EC91E22BEC938FBF33
:10195000089590E0FC01E859FF4F3491FC01EC55EB
:10196000FF4F2491FC01E057FF4FE491EE2309F46F
:101970003BC0332339F1333091F038F43130A9F0E2
:10198000323001F584B58F7D12C0373091F0383098
:10199000A1F03430B9F4809180008F7D03C0809134
:1019A00080008F77809380000DC084B58F7784BDD1
:1019B00009C08091B0008F7703C08091B0008F7D07
:1019C0008093B000F0E0EE0FFF1FE458FF4FA591A9
:1019D000B4918FB7F894EC91611103C020952E2338
:1019E00001C02E2B2C938FBF08958F929F92AF92A0
:1019F000BF92CF92DF92EF92FF926B017C010E9427
:101A0000180B4B015C01C114D104E104F104F1F0A5
:101A10000E94180BDC01CB0188199909AA09BB099E
:101A2000883E9340A105B10570F321E0C21AD108A8
:101A3000E108F10888EE880E83E0981EA11CB11C15
:101A4000C114D104E104F10419F7DDCFFF90EF9048
:101A5000DF90CF90BF90AF909F908F9008952FB759
:101A6000F8946091DB037091DC038091DD03909129
:101A7000DE032FBF08951F920F920FB60F9211240D
:101A80002F933F938F939F93AF93BF938091DB03EB
:101A90009091DC03A091DD03B091DE033091DA0375
:101AA00023E0230F2D3720F40196A11DB11D05C0A1
:101AB00026E8230F0296A11DB11D2093DA0380931F
:101AC000DB039093DC03A093DD03B093DE038091EE
:101AD000DF039091E003A091E103B091E20301964E
:101AE000A11DB11D8093DF039093E003A093E10358
:101AF000B093E203BF91AF919F918F913F912F914E
:101B00000F900FBE0F901F90189508950C94EA182F
:101B100002970C94860DCF92DF92EF92FF92CF93B3
:101B2000DF93FC01868197816817790709F06AC005
:101B30004A30510509F066C0FB01C280D380E6013E
:101B4000D7FC07C0C114F4E0DF062CF0CFEFD3E0E0
:101B500002C0C0E0D0E06CE273E081EE94E00E944D
:101B60005B06E12CF12C4AE0C701B6010E943D0B57
:101B700060E173E081EE94E00E945B06C701B6016C
:101B80000E949E1A25EE30ED42E750E40E94531B5E
:101B900020E030EC4FE754E40E94FB1920E030E0F5
:101BA000A9010E948A1942E00E94B00B6CE373E025
:101BB00081EE94E00E945B06BE01DD0F880B990B5D
:101BC0000E949E1A20E030E044E352E40E94531B3E
:101BD00020E030EC4FE754E40E94FB1920E030E0B5
:101BE000A9010E948A1942E00E94B00B6BE473E0E5
:101BF00081EE94E0DF91CF91FF90EF90DF90CF9056
:101C00000C944706DF91CF91FF90EF90DF90CF903B
:101C1000089502970C948B0D2F923F924F925F92F2
:101C20006F927F928F929F92AF92BF92CF92DF92EC
:101C3000EF92FF920F931F93CF93DF931F92CDB735
:101C4000DEB701EE14E01092E4041092E30488EE93
:101C500093E0A0E0B0E08093E5049093E604A093C5
:101C6000E704B093E80482E391E09093E204809368
:101C7000E10485EC90E09093EE048093ED0484EC15
:101C800090E09093F0048093EF0480EC90E09093C8
:101C9000F2048093F10481EC90E09093F40480933B
:101CA000F30482EC90E09093F6048093F50486ECC4
:101CB00090E09093F8048093F7041092FA04109245
:101CC000FB041092FC041092FD04AE014F5F5F4FC5
:101CD0006EE473E082ED95E00E94830AAE014F5FEF
:101CE0005F4F61E573E08BEC95E00E94830AAE01E3
:101CF0004F5F5F4F64E573E084EC95E00E94830AD8
:101D0000AE014F5F5F4F69E573E08DEB95E00E9498
:101D1000830AAE014F5F5F4F6DE573E086EB95E0A0
:101D20000E94830AAE014F5F5F4F61E673E08FEA66
:101D300095E00E94830AAE014F5F5F4F65E673E056
:101D400088EA95E00E94830AE1E2F0E0F0939605CC
:101D5000E0939505109297051092980510929905B9
:101D600046E050E060E070E040939A0550939B0598
:101D700060939C0570939D0510929E0510929F059F
:101D80001092A0051092A10520E22093A2051092C6
:101D9000A4051092A3051092A70580E895E0909302
:101DA000A6058093A50582ED91E090937F05809331
:101DB0007E058CED91E090939305809392051092AF
:101DC0008405109283051092860510928505109265
:101DD00088051092870510928A0510928905109245
:101DE0008C0510928B0510928E0510928D0580EB5C
:101DF00091E0909381058093800510939105009365
:101E0000900530E130938F05F093CF04E093CE043A
:101E10001092D0041092D1041092D2044093D304B3
:101E20005093D4046093D5047093D6041092D704D1
:101E30001092D8041092D9041092DA042093DB0493
:101E40001092DD041092DC041092E0041092B504AC
:101E50001092B6041092B7041092B80429EB34E043
:101E60003093DF042093DE042AE531E03093B4049C
:101E70002093B30424E631E03093CC042093CB04C8
:101E80001092BD041092BC041092BF041092BE04C4
:101E90001092C1041092C0041092C3041092C204A4
:101EA0001092C5041092C4041092C7041092C60484
:101EB0009093BA048093B9041093CA040093C904A0
:101EC00088E08093C8041092B2041092B104109379
:101ED000B0040093AF046FEB71E087ED91E00E94D6
:101EE000EE179093B2048093B10484E192E0909352
:101EF00081048093800410928304109282048FE006
:101F000080938604109287041092880410928904AA
:101F100010928A0410928E0410928D0410928F04F5
:101F2000109291041092900480E490E00E94551861
:101F300080938B0490938C0420E230E030938504EE
:101F400020938404FC01805C9F4FE817F90719F087
:101F500011921192FACF82E392E0909381048093E0
:101F6000800482E492E090939304809392048AE246
:101F700092E09093950480939404109298041092A8
:101F80009A041092990410929F041092A004109247
:101F9000A1041092A2041092A3041092A40410921F
:101FA000A5041092A6041092AA041092A9041092FB
:101FB000A8041092A70440E850E060E070E040936D
:101FC0009B0450939C0460939D0470939E04109214
:101FD000AC041092AB041092AE041092AD0422E94E
:101FE00034E0309397042093960422E032E030935B
:101FF000420420934104909344048093430410923C
:102000004704109249041092480410924E04109212
:102010004F041092500410925104109252041092E6
:1020200053041092540410925504109259041092C3
:10203000580480E094E090935B0480935A048EE20D
:1020400093E090935D0480935C0481ED93E0909322
:102050005F0480935E0486E493E090936104809330
:10206000600483E090E0909363048093620480E2D4
:1020700090E00E945518FC019C01205E3F4F119298
:102080001192E217F307D9F724E132E030936504A7
:1020900020936404109267041092660420E130E0FB
:1020A00030936904209368042EE020936A04109210
:1020B0006B0410926C0410926D0410926E04909355
:1020C000700480936F041092720410927104109245
:1020D000730410927504109274048FEF9FEF909325
:1020E0007704809376041092780488E0882E912CEF
:1020F00090927C0480927B0410927E0410927D0466
:1021000080E190E00E94551890937A0480937904BE
:102110008FE090E0A0E0B0E080934A0490934B04FD
:10212000A0934C04B0934D0480E490E09093570446
:102130008093560481E494E0909346048093450490
:1021400083EC92E0909338048093370481ED92E021
:1021500090933A048093390410923C0410923B040B
:1021600010923E0410923D041092400410923F04DD
:1021700083EE92E09093F1038093F0030BED12E075
:102180001093F3030093F2038AE08093F403109218
:10219000F6031092F5031092F8031092F7031092D1
:1021A000FA031092F9031092FB031092FC031092B1
:1021B000FD031092FE03109200041092FF03109290
:1021C000020410920104109203040E948A0C1093DE
:1021D00005040093040489E0809306041092080427
:1021E0001092070410920A041092090410920C0431
:1021F00010920B0410920D0410920E0410920F0412
:1022000010921004109212041092110410921404EF
:1022100010921304109215040E948A0C1093170454
:102220000093160486E08093180410921A0410920A
:10223000190410921C0410921B0410921E04109298
:102240001D0410921F041092200410922104109279
:102250002204109224041092230410922604109257
:102260002504109227040E948A0C1092280485E00D
:1022700090E00E9455187C01FC01108214821382A8
:102280008FE99BE09283818385E090E00E9455185E
:10229000FC011FEF108399E1C92ED12CD282C1829B
:1022A000F482E382F0932A04E093290485E090E02D
:1022B0000E9455187C01FC011082148213828FEA5F
:1022C00090E09283818385E090E00E9455185C0144
:1022D000FC011083D282C182F482E38285E090E027
:1022E0000E9455187C01FC01108283EA92E09283DF
:1022F0008183B482A38285E090E00E9455185C013E
:10230000FC011083D282C182F482E38285E090E0F6
:102310000E9455187C01FC0110822BE4622E712C66
:1023200072826182B482A38285E090E00E94551897
:10233000FC011083D282C182F482E38290932C0448
:1023400080932B0485E090E00E9455185C01FC010D
:102350001082148213828CEC91E09283818385E059
:1023600090E00E9455181C01FC01108338E2E32E16
:10237000F12CF282E182B482A38285E090E00E9497
:1023800055182C01FC0110824CE3A42EB12CB28212
:10239000A1823482238285E090E00E9455181C01BE
:1023A000FC011083F282E1825482438285E090E056
:1023B0000E9455182C01FC011082B282A182348245
:1023C000238285E090E00E9455181C01FC011083D7
:1023D000F282E1825482438285E090E00E945518A7
:1023E0002C01FC011082B282A1823482238285E01A
:1023F00090E00E9455181C01FC011083F282E182DA
:102400005482438285E090E00E9455182C01FC0123
:102410001082B282A1823482238285E090E00E9401
:1024200055181C01FC011083F282E1825482438220
:1024300085E090E00E9455182C01FC011082B282C8
:10244000A1823482238285E090E00E945518FC012D
:102450001083F282E1825482438290932E0480930F
:102460002D0485E090E00E9455182C01FC0110829B
:102470001482138288E097E09283818385E090E064
:102480000E9455181C0180EAF101808384E690E0E7
:10249000928381835482438285E090E00E945518A4
:1024A0002C01FC011082B282A1823482238285E059
:1024B00090E00E945518FC011083F282E182548260
:1024C00043829093300480932F0485E090E00E9433
:1024D00055187C01FC011082148213825EEEA52E39
:1024E00052E0B52EB282A18285E090E00E9455189C
:1024F000FC011083B282A182F482E38290933204C1
:102500008093310485E090E00E9455187C01FC0125
:1025100010821482138286EB93E09283818385E09C
:1025200090E00E945518FC01108382E390E09283B2
:102530008183F482E382F0933404E093330485E0F2
:1025400090E00E9455187C01FC01108214821382D5
:1025500087ED9AE09283818385E090E00E94551890
:102560005C01FC011083D282C182F482E38285E0A7
:1025700090E00E9455187C01FC01108272826182F9
:10258000B482A38285E090E00E945518FC0110837C
:10259000D282C182F482E382909336048093350420
:1025A0008091D8039091D903892BC9F489E090E0F8
:1025B0000E9455187C018CEE91E0F7019183808395
:1025C000958284821782168288E090E00E945518D6
:1025D000F70193838283F092D903E092D80360914C
:1025E000D8037091D9038CEE91E09093E803809327
:1025F000E7036E5F7F4F8E010F5F1F4F2FEF3FEF9F
:1026000040E050E089EE93E00E94B1050E942F0D5A
:102610006093E3037093E4038093E5039093E603F0
:102620000F90DF91CF911F910F91FF90EF90DF906E
:10263000CF90BF90AF909F908F907F906F905F9062
:102640004F903F902F900895CF93DF93CDB7DEB793
:10265000A8970FB6F894DEBF0FBECDBF789484B5AF
:10266000826084BD84B5816084BD85B5826085BD8E
:1026700085B5816085BD80916E00816080936E001C
:10268000109281008091810082608093810080910E
:1026900081008160809381008091800081608093BF
:1026A00080008091B10084608093B1008091B0007F
:1026B00081608093B00080917A00846080937A007A
:1026C00080917A00826080937A0080917A008160A4
:1026D00080937A0080917A00806880937A001092CB
:1026E000C1008AE00E948A0C89E00E948A0C61E0A5
:1026F0008AE00E94A90C61E089E00E94A90CE091A7
:10270000F104F091F20482E08083E091ED04F09115
:10271000EE041082E091EF04F091F0048FEC8083DE
:102720001092F904E091F504F091F60486E08083BC
:10273000E091F304F091F404808180618083E09162
:10274000F304F091F404808188608083E091F304C5
:10275000F091F404808180688083E091F304F0912B
:10276000F40480818F7D808368E673E081EE94E0DD
:102770000E944706E0913D04F0913E0464E0E03899
:10278000F60781F0309711F016A615A689E394E0BC
:102790009093AE048093AD0480E894E090933E045F
:1027A00080933D04E0913B04F0913C0484E0E134EB
:1027B000F80709F4ACC03097E9F1A0ACB1AC20AD9A
:1027C00031AD44AD55ADCA01880F991F820F931FDB
:1027D000A816B90679F1D5018D919C918753944043
:1027E00029F5C501821B930BBC01759567959A016C
:1027F000215031098C010E5F1F4F6217730788F457
:10280000C0ACD1AC6F5F7F4F7601E00EF11ED701F7
:10281000ED90FC908C0D9D1DDC01ED92FC92C801A9
:10282000E9CF2417350710F435AF24AFB2E0AB0E73
:10283000B11CC5CFE0907D04F0907E0487010F5F4E
:102840001F4FE016F10608F055C080917B0490916F
:102850007C0480179107A0F59701275F3F4F8217EF
:10286000930770F5C0907904D0907A0430937C047B
:1028700020937B04C901880F991F0E9455189093DB
:102880007A0480937904D60140E050E04E155F054C
:10289000A1F0E0917904F0917A049A01220F331F9C
:1028A000E20FF31F309729F08D919C91119791833E
:1028B00080834F5F5F4F1296E9CFC6010E94EA18EE
:1028C00080917D0490917E049C01220F331F47E389
:1028D00054E08017910788F4E0917904F0917A042C
:1028E000E20FF31F309711F05183408301962E5F62
:1028F0003F4FEFCF0E151F0520F410937E04009379
:102900007D0481E494E090933C0480933B0480EF49
:1029100093E09093400480933F0480913B04909116
:102920003C04009719F002960E94210480913D0416
:1029300090913E04009719F044960E942104009162
:102940003F04109140040115110509F4AAC0F801D3
:1029500080AD82FDA6C0846080AF87FD9CC0138AD5
:1029600085819681928B818B108A178660E08481A5
:102970000E94A90CD801D9968D919C91DA97169650
:102980009C938E93159752969C938E935197892B77
:1029900009F481C053968C915397823009F47BC01F
:1029A000811108C050961C921E921F971A961C9275
:1029B0001E9219970E942F0DF801638774878587EF
:1029C000968782E0838B0188F289E02D309709F4A5
:1029D00062C090819F3F29F461E0D80114968C91E8
:1029E00058C0911104C060E0F801848152C0D80140
:1029F00014961C91812F98A70E948A0CE12FF0E079
:102A0000E859FF4FE49198A5E33009F148F4E1302B
:102A1000C9F0E230C1F584B5806284BD98BD3BC089
:102A2000E73009F1E83039F1E43069F58091800050
:102A3000806280938000892F90E090938B00809338
:102A40008A0029C084B5806884BD97BD24C0809168
:102A50008000806880938000892F90E090938900A7
:102A60008093880018C08091B00080688093B00087
:102A70009093B30010C08091B00080628093B0004A
:102A80009093B40008C0903810F460E001C061E099
:102A9000812F0E94A90C60E873E081EE94E00E940F
:102AA000470664EF71E080E090E00E94F50C6DE86D
:102AB00073E081EE94E00E94470660E08AE00E94A5
:102AC000A90C60E089E00E94A90C0E942F0D609380
:102AD000E3037093E4038093E5039093E60398E0A7
:102AE000C92ED12C29E8222E22E0322E3CE4432E9E
:102AF00032E0532E45E7A42E42E0B42E0E942F0D63
:102B000081EE94E00E949206181619060CF088C116
:102B100081EE94E00E947006182F8FA36091ED0360
:102B20007091EE036F5F7F4FAE01495D5F4F89EE9D
:102B300093E00E9454051A3009F072C162EA73E012
:102B400081EE94E00E945B0689EE93E00E9405040A
:102B5000BC0181EE94E00E944706AE014F5F5F4FDB
:102B60006FEF72E0CE014D960E94830AD98EC88E17
:102B70001B8E1A8E88E390E00E9455189F8B8E8BD7
:102B80008AE090E00E9455187C01FC01D582C48245
:102B90001782168288E390E00E945518D701139699
:102BA0009C938E93129719961C9219972D923C9292
:102BB0000091E9031091EA036090AC057090AD05B7
:102BC000E091A805F091A905D801CF01860D971DC8
:102BD000E817F90709F42DC131912D913217C1F38E
:102BE00070C069A17AA16F5F7F4FA801CE014D9699
:102BF0000E945405FFEF6F1A7F0A0F5F1F4FD40129
:102C00006C9181EE94E00E942B066DEF72E081EEF4
:102C100094E00E94320648012091ED033091EE03CA
:102C20008091E9039091EA03820F931F0817190717
:102C300041F0F80180818D33A1F66114710409F02F
:102C4000FBC0CE014D960E940504BC0181EE94E0CC
:102C50000E9447068DE08EA369A17AA16F5F7F4F26
:102C6000AE014A5D5F4FCE014D960E94540562ED64
:102C700075E0CE014D960E94B209892B09F025C15D
:102C80008AE090E00E9455187C01FC01A192B1926B
:102C9000CF01BE016A5E7F4F0E945809D701199685
:102CA0001C92199780E692E08D939C93D701ED9149
:102CB000FC910680F781E02DBE016A5E7F4FC7015F
:102CC0000995CE0146960E94DD09CE014D960E94DF
:102CD000EE036DEA73E081EE94E00E945B06D7019B
:102CE000ED91FC910480F581E02DB701CE010196B4
:102CF0000995CE0101960E940504BC0181EE94E085
:102D00000E945B06CE0101960E94EE0362EB73E027
:102D100081EE94E00E945B06D701ED91FC91008466
:102D2000F185E02DC7010995BC01CE0108960E94EE
:102D300058098884998487E0782E2C853D85729E79
:102D4000C001739E900D112428853985820F931F31
:102D50008816990691F18E01015F1F4F2FEF3FEF0B
:102D600040E050E0B401CE0101960E94B105CE01D1
:102D700001960E940504BC0181EE94E00E945B066E
:102D8000CE0101960E94EE032C853D85729EC00106
:102D9000739E900D1124079728853985820F931F04
:102DA0008816990631F064EB73E081EE94E00E949E
:102DB0005B06B7E08B0E911CC0CF67EB73E081EE32
:102DC00094E00E944706CE0108960E94DD09E114B6
:102DD000F10441F0D701ED91FC910280F381E02DE7
:102DE000C70109958091ED039091EE03892B21F0A5
:102DF0001092EE031092ED031CA2AE014C5D5F4FEA
:102E000060E070E089EE93E00E94540540E050E0FD
:102E10006FEF72E08091E9039091EA030E948E05C2
:102E200061E070E080E090E00E94F50C0E943207C3
:102E300065CE0D5F1F4FEFCE21503109A3014F5FCB
:102E40005F4F69EE73E0CE010F960E94360AAE0125
:102E50004B5D5F4F60E772E0CE0108960E94830AE7
:102E60008C859D850B891C890817190748F4CE01AC
:102E700008960E94EE03CE010F960E94EE03E1CE6B
:102E80000F5F1F4F081B190B812C912C8016910688
:102E900071F32C853D85A401BE01615F7F4FCE019A
:102EA00001960E94360ABE016F5F7F4FCE010896E1
:102EB0000E94B2093C01CE0101960E94EE036728F0
:102EC000B1F2BFEF8B1A9B0AE1CF6DEB75E0CE013B
:102ED0004D960E94B209892B09F0E8CE8AE090E075
:102EE0000E9455187C01FC01D582C482178216828B
:102EF00088E390E00E945518D70113969C938E9317
:102F0000129719961C9219974D925C92CFCE0F93FF
:102F10001F93CF93DF93EC010A811B818BA59CA5A6
:102F20000817190799F08DA59EA5009769F0DC0197
:102F3000ED91FC910480F581E02D9E01255D3F4FD0
:102F40004AE050E0BE0109951CA70BA7DF91CF9185
:102F50001F910F91089542970C948717CF93DF9399
:102F6000EC010E948800CE01DF91CF910C94EA1809
:102F700042970C94AE1742970C94880087EE93E02A
:102F80000E94F30381E494E00E94FC0180E894E055
:102F90000E94880083EB94E00E9438028EE795E05F
:102FA0000E94860288EA95E00E94EE038FEA95E08F
:102FB0000E94EE0386EB95E00E94EE038DEB95E018
:102FC0000E94EE0384EC95E00E94EE038BEC95E00A
:102FD0000E94EE0382ED95E00C94EE030F931F9395
:102FE000CF93DF93009731F46115710519F480E0F8
:102FF00090E03AC08B01EC016EE070E081E090E07F
:103000000E943918FC01892B91F380E88383011514
:10301000110571F01387028781E883838091D905B8
:103020009091DA05892B21F4F093DA05E093D90524
:103030002097C9F0D187C087838182608383809184
:10304000DB059091DC05892B71F4F093DC05E093AE
:10305000DB058091DD059091DE05892B21F4F0934D
:10306000DE05E093DD05CF01DF91CF911F910F9138
:1030700008950F931F93CF93DF93869F8001879FBF
:10308000100D969F100D1124C8010E945518EC01D7
:10309000009729F0A80160E070E00E948219CE013B
:1030A000DF91CF911F910F910895CF93DF938230DD
:1030B000910510F482E090E0E091E105F091E205E5
:1030C00020E030E0C0E0D0E0309711F14081518144
:1030D00048175907C0F04817590761F48281938156
:1030E000209719F09B838A832BC09093E2058093ED
:1030F000E10526C02115310519F04217530718F4D0
:103100009A01BE01DF01EF010280F381E02DDCCFE7
:103110002115310509F1281B390B2430310590F4B4
:1031200012968D919C9113976115710521F0FB0109
:103130009383828304C09093E2058093E105FD01AF
:10314000329644C0FD01E20FF31F81939193225008
:1031500031092D933C933AC02091DF053091E00571
:10316000232B41F420910201309103013093E005BB
:103170002093DF05209100013091010121153105D7
:1031800041F42DB73EB74091040150910501241B35
:10319000350BE091DF05F091E005E217F307A0F4AD
:1031A0002E1B3F0B2817390778F0AC014E5F5F4F9D
:1031B0002417350748F04E0F5F1F5093E0054093EA
:1031C000DF058193919302C0E0E0F0E0CF01DF9151
:1031D000CF9108950F931F93CF93DF93009709F436
:1031E0008CC0FC013297138212820091E10510918C
:1031F000E2050115110581F420813181820F931FB1
:103200002091DF053091E0052817390779F5F09313
:10321000E005E093DF0571C0D80140E050E0AE1753
:10322000BF0750F412962D913C911397AD012115D3
:10323000310509F1D901F3CF9D01DA0133832283EE
:1032400060817181860F971F8217930769F4EC01E3
:1032500028813981260F371F2E5F3F4F318320830E
:103260008A819B8193838283452B29F4F093E20525
:10327000E093E10542C01396FC93EE931297ED01A3
:10328000499159919E01240F351FE217F30771F4FC
:1032900080819181840F951F029611969C938E9345
:1032A0008281938113969C938E931297E0E0F0E0D5
:1032B000D80112968D919C911397009719F0F801FF
:1032C0008C01F6CF8D919C9198012E5F3F4F820F1C
:1032D000931F2091DF053091E0052817390769F425
:1032E000309729F41092E2051092E10502C0138292
:1032F00012821093E0050093DF05DF91CF911F91BB
:103300000F910895DC0101C06D9341505040E0F7EA
:1033100008955058BB27AA270E94A1190C94141B8A
:103320000E94061B38F00E940D1B20F039F49F3FCD
:1033300019F426F40C94031B0EF4E095E7FB0C94AF
:10334000FD1AE92F0E94251B58F3BA17620773076D
:103350008407950720F079F4A6F50C94471B0EF42A
:10336000E0950B2EBA2FA02D0B01B90190010C0195
:10337000CA01A0011124FF27591B99F0593F50F4AD
:10338000503E68F11A16F040A22F232F342F442705
:10339000585FF3CF469537952795A795F0405395FD
:1033A000C9F77EF41F16BA0B620B730B840BBAF0CD
:1033B0009150A1F0FF0FBB1F661F771F881FC2F738
:1033C0000EC0BA0F621F731F841F48F4879577954C
:1033D0006795B795F7959E3F08F0B0CF9395880F06
:1033E00008F09927EE0F9795879508950E94D91AAE
:1033F00008F481E008950E940F1A0C94141B0E9497
:103400000D1B58F00E94061B40F029F45F3F29F085
:103410000C94FD1A51110C94481B0C94031B0E9430
:10342000251B68F39923B1F3552391F3951B550B95
:10343000BB27AA2762177307840738F09F5F5F4F87
:10344000220F331F441FAA1FA9F335D00E2E3AF0C6
:10345000E0E832D091505040E695001CCAF72BD0DE
:10346000FE2F29D0660F771F881FBB1F261737072F
:103470004807AB07B0E809F0BB0B802DBF01FF2761
:1034800093585F4F3AF09E3F510578F00C94FD1A27
:103490000C94481B5F3FE4F3983ED4F386957795F0
:1034A0006795B795F7959F5FC9F7880F911D96951A
:1034B000879597F90895E1E0660F771F881FBB1F76
:1034C000621773078407BA0720F0621B730B840B23
:1034D000BA0BEE1F88F7E09508950E942D1B88F027
:1034E0009F5798F0B92F9927B751B0F0E1F0660FC8
:1034F000771F881F991F1AF0BA95C9F714C0B13009
:1035000091F00E94471BB1E008950C94471B672F70
:10351000782F8827B85F39F0B93FCCF38695779537
:103520006795B395D9F73EF4909580957095619520
:103530007F4F8F4F9F4F0895E89409C097FB3EF44B
:1035400090958095709561957F4F8F4F9F4F9923F0
:10355000A9F0F92F96E9BB279395F695879577956E
:103560006795B795F111F8CFFAF4BB0F11F460FF2E
:103570001BC06F5F7F4F8F4F9F4F16C0882311F086
:1035800096E911C0772321F09EE8872F762F05C09A
:10359000662371F096E8862F70E060E02AF09A9535
:1035A000660F771F881FDAF7880F9695879597F92A
:1035B0000895990F0008550FAA0BE0E8FEEF1616C4
:1035C0001706E807F907C0F012161306E407F50717
:1035D00098F0621B730B840B950B39F40A2661F08B
:1035E000232B242B252B21F408950A2609F4A1402E
:1035F000A6958FEF811D811D089597F99F6780E83B
:1036000070E060E008959FEF80EC089500240A9434
:103610001616170618060906089500240A941216AD
:103620001306140605060895092E0394000C11F4E0
:10363000882352F0BB0F40F4BF2B11F460FF04C08D
:103640006F5F7F4F8F4F9F4F089557FD9058440FE6
:10365000551F59F05F3F71F04795880F97FB991FF1
:1036600061F09F3F79F087950895121613061406AE
:10367000551FF2CF4695F1DF08C01616170618063B
:10368000991FF1CF86957105610508940895E89416
:10369000BB2766277727CB0197F908950E94D91A8F
:1036A00008F48FEF08950E94661B0C94141B0E946F
:1036B000061B38F00E940D1B20F0952311F00C948E
:1036C000FD1A0C94031B11240C94481B0E94251B0B
:1036D00070F3959FC1F3950F50E0551F629FF00165
:1036E000729FBB27F00DB11D639FAA27F00DB11D7E
:1036F000AA1F649F6627B00DA11D661F829F222707
:10370000B00DA11D621F739FB00DA11D621F839F8D
:10371000A00D611D221F749F3327A00D611D231F63
:10372000849F600D211D822F762F6A2F11249F57B1
:1037300050409AF0F1F088234AF0EE0FFF1FBB1FB4
:10374000661F771F881F91505040A9F79E3F510573
:1037500080F00C94FD1A0C94481B5F3FE4F3983EF4
:10376000D4F3869577956795B795F795E7959F5F1D
:10377000C1F7FE2B880F911D9695879597F90895AF
:103780000E94D91A880B990B0895A1E21A2EAA1B40
:10379000BB1BFD010DC0AA1FBB1FEE1FFF1FA21701
:1037A000B307E407F50720F0A21BB30BE40BF50BFE
:1037B000661F771F881F991F1A9469F76095709587
:1037C000809590959B01AC01BD01CF010895EE0F4E
:1037D000FF1F0590F491E02D099481E090E0F894AA
:1037E0000C94001CFB01DC014150504030F08D91E5
:1037F0000190801919F40020B9F7881B990B0895DE
:1038000010E0CDE5D0E004C0FE010E94E71B219648
:0A381000CE35D107C9F7F894FFCFB9
:10381A000000E3058000180000000000000000001E
:10382A00E8FFE8FF000000000000140000000000AC
:10383A0000000000ECFFECFF0000000000000000A8
:10384A000000C906FE056106100792067006840686
:10385A0006000000000017021902FAFFFAFF000032
:10386A0018021B0218000000000038024F02E8FF8D
:10387A00E8FF0000450259025A010C0116016401D1
:10388A000000000051051502BE01BB01B801B501D7
:10389A00B2012901250122010C012C01B000AE0060
:1038AA0002000000000065026702FEFFFEFF000042
:1038BA0066026902000000005305B1020000000020
:1038CA0052056302BE01BB01B801B501B201A601EE
:1038DA00600147012E012C01D402B302140000003A
:1038EA00000086029D02ECFFECFF00009302A70293
:1038FA00D20120012A01DC0100000000F303FB03CE
:10390A00000000005509D8073E07AA073C07000037
:10391A000000FC0105027104000000005709DE07DF
:10392A00000000005609DA073E073D0700000000C4
:10393A0000000000290600000000EC03130200004A
:10394A0000008800AE173E073D0787177407EEFF91
:10395A000000BB17B817AB1700000000120A1A0ABA
:10396A00C00AE20770076D076A07610700000000D6
:10397A00000A080AEC0AE20770076D076A07670778
:10398A002C0000000000000000020BE20770076D27
:10399A00076A07290600000000240A2C0AD60AE250
:1039AA000770076D076A076407000000007307E0E5
:1039BA0007000000007207DC07000000000000009A
:1039CA000029062906000000000000000029060060
:1039DA00000000FD05860D6E0351038B0DFEFF00EE
:1039EA0000850D880D090E00000000ED030F02008E
:1039FA00000000200411024261747465727920414A
:103A0A006C61726D2053746174653A20000D0A006E
:103A1A00426174746572792056616C75653A20004A
:103A2A0020566F6C746167653A20005620506572A3
:103A3A0063656E746167653A2000250048565072C6
:103A4A006F62652056616C75653A2000204D65618C
:103A5A00737572656D656E743A20006B5600425438
:103A6A0000485600534554530053455400544C5390
:103A7A000054425A004154005472616E736D697465
:103A8A00746572205374617274696E672E2E2E00EB
:103A9A005748495445206368616E676500547261EE
:103AAA006E736D697474657220537461727465649F
:103ABA00210052656365697665643A2000434D4486
:103ACA0020005B002C20005D005345004552005544
:103ADA006E6B6E6F776E20434D44006E616E0069A7
:083AEA006E66006F76660000B5
:00000001FF
