:100000000C945E000C9486000C9486000C94860080
:100010000C9486000C9486000C9486000C94860048
:100020000C9486000C9486000C9486000C94860038
:100030000C9486000C9486000C9486000C94860028
:100040000C94B80A0C9486000C94BF010C9499018E
:100050000C9486000C9486000C9486000C94860008
:100060000C9486000C948600000000080002010039
:100070000003040700000000000000000000000072
:10008000250028002B0000000000240027002A0083
:10009000040404040404040402020202020203032E
:1000A0000303030301020408102040800102040836
:1000B0001020010204081020020BD41211241FBECC
:1000C000CFEFD8E0DEBFCDBF13E0A0E0B1E0EAEEB5
:1000D000FDE202C005900D92AC3BB107D9F725E0D7
:1000E000ACEBB3E001C01D92A738B207E1F710E016
:1000F000CDE5D0E004C02197FE010E94DD16CC358D
:10010000D107C9F70E94390F0C94E8160C9400002F
:10011000CF92DF92EF92FF920F931F93CF93DF93D3
:100120006C017A018B01C0E0D0E0CE15DF0589F0CB
:10013000D8016D918D01D601ED91FC910190F08176
:10014000E02DC6010995892B11F47E0102C021968C
:10015000ECCFC701DF91CF911F910F91FF90EF90EE
:10016000DF90CF900895089580E090E00895FC011D
:10017000538D448D252F30E0842F90E0821B930B0C
:10018000541710F0CF96089501970895FC01918DB2
:10019000828D981761F0828DDF01A80FB11D5D96E9
:1001A0008C91928D9F5F9F73928F90E008958FEF57
:1001B0009FEF0895FC01918D828D981731F0828D0B
:1001C000E80FF11D858D90E008958FEF9FEF089562
:1001D000FC01918D228D892F90E0805C9F4F821BC6
:1001E00091098F739927089586EB94E00E94E800A7
:1001F00021E0892B09F420E0822F08950E94E31664
:10020000EF92FF920F931F93CF93DF93EC0181E066
:10021000888F9B8D8C8D981305C0E889F989808122
:1002200085FD24C0F62E0B8D10E00F5F1F4F0F735E
:100230001127E02E8C8DE8120CC00FB607FCFACF08
:10024000E889F989808185FFF5CFCE010E94880376
:10025000F1CF8B8DFE01E80FF11DE35AFF4FF082C5
:100260000B8FEA89FB898081806207C0EE89FF8954
:100270006083E889F98980818064808381E090E0EF
:10028000DF91CF911F910F91FF90EF900895CF9341
:10029000DF93EC01888D8823C9F0EA89FB8980818E
:1002A00085FD05C0A889B9898C9186FD0FC00FB660
:1002B00007FCF5CF808185FFF2CFA889B9898C91A1
:1002C00085FFEDCFCE010E948803E7CFDF91CF916C
:1002D0000895DC01ED91FC910190F081E02D0994ED
:1002E0006115710579F0FB0101900020E9F7319764
:1002F000AF01461B570BDC01ED91FC910280F381AD
:10030000E02D099480E090E008950F931F93CF9320
:10031000DF93EC010E9470018C0160E972E0CE0174
:100320000E947001800F911FDF91CF911F910F915B
:1003300008951F920F920FB60F9211242F933F939F
:100340004F935F936F937F938F939F93AF93BF93DD
:10035000EF93FF9386EB94E00E948803FF91EF9167
:10036000BF91AF919F918F917F916F915F914F91CD
:100370003F912F910F900FBE0F901F9018951F92D5
:100380000F920FB60F9211242F938F939F93EF9399
:10039000FF93E091C604F091C7048081E091CC0402
:1003A000F091CD0482FD12C090818091CF048F5FC7
:1003B0008F732091D004821751F0E091CF04F0E0C8
:1003C000EA54FB4F958F8093CF0401C08081FF9149
:1003D000EF919F918F912F910F900FBE0F901F90D3
:1003E000189580E090E0892B29F00E94F40081119B
:1003F0000C940000089508950895CF93DF9300D0E2
:1004000000D0CDB7DEB7FC0149835A836B837C8370
:1004100080899189009769F0BF01DC01ED91FC9121
:100420000480F581E02D9E012F5F3F4F44E150E0B5
:1004300009950F900F900F900F90DF91CF91089535
:1004400008950895089508950F931F93CF93DF9310
:10045000EC0108AD19AD2CAD3DAD220F331F88ADB9
:1004600099AD280F391F0217130771F0D8018D912C
:100470009D918D01DC01ED91FC910680F781E02DCD
:100480004FA9BE010995E7CFDF91CF911F910F9141
:1004900008950F931F93CF93DF93CDB7DEB72C97BB
:1004A0000FB6F894DEBF0FBECDBFFC017C876B8713
:1004B000828193810097E9F0DF0125813681FC017B
:1004C00040815181FA010481158146E452E05A834A
:1004D0004983BC83AB83AE01455F5F4F5E834D8331
:1004E00038872F831A861986BE016F5F7F4FF80108
:1004F00009952C960FB6F894DEBF0FBECDBFDF91E5
:10050000CF911F910F910895CB0108957F928F9203
:100510009F92AF92BF92CF92DF92EF92FF920F9392
:100520001F93CF93DF93EC0149015A018B01C12C3A
:10053000D12C7601C814D904EA04FB0484F5F8012F
:1005400071908F018F8580FF0BC0E881F981008455
:10055000F185E02D20E144E060E070E0CE010995F6
:10056000EB85FC858D859E85E817F90738F4708248
:100570008B859C8501969C878B870BC0E881F981D0
:10058000672D70E0028CF38DE02DCE010995019668
:1005900049F02FEFC21AD20AE20AF20ACBCFB40115
:1005A000C50102C0B601C701DF91CF911F910F9124
:1005B000FF90EF90DF90CF90BF90AF909F908F9083
:1005C0007F900895CF93DF93EC01E881F981028851
:1005D000F389E02D09958F3F2FEF920731F02D81A0
:1005E0003E812F5F3F4F3E832D83DF91CF91089552
:1005F0008FEF9FEF089560E070E0CB01089580E0F9
:1006000090E00895FF920F931F93CF93DF93EC0137
:100610000F89188D0115110521F1FE8087E090E00A
:100620000E944B13DC018EE492E011969C938E9312
:1006300016961C921E9215971396DC93CE931297E2
:100640001496FC921497E801E881F9810480F58101
:10065000E02DBD01C801DF91CF911F910F91FF9057
:100660000994DF91CF911F910F91FF900895CF933F
:10067000DF93EC014A898B899C892A813B81411156
:1006800010C04D895E89840F951F28173907D0F057
:1006900081E08A8BE881F9810084F185E02D61E0B9
:1006A0000AC08217930770F01A8AE881F9810084E2
:1006B000F185E02D60E0CE010995CE01DF91CF916B
:1006C0000C940203DF91CF9108950C94E0130C94E5
:1006D000E0130C94E0130C94E0130C94E0132CEF53
:1006E00031E0FC013183208380AD91AD0C94E013A7
:1006F000CF93DF93EC010E946F03CE01DF91CF9186
:100700000C94E0130C94E0130C94E0130C94E0139D
:10071000FC01848DDF01A80FB11DA35ABF4F2C919E
:10072000848D90E001968F739927848FA689B7896D
:100730002C93A089B1898C9180648C93938D848D46
:10074000981306C00288F389E02D80818F7D808315
:100750000895089508950895CF92DF92EF92FF9241
:100760000F931F93CF93DF93EC01ED85FE85EE0F82
:10077000FF1F8B859C85E80FF91F208131818F81B8
:100780009885A985BA85821B930BA109B1098F832E
:100790009887A987BA878E818E3008F08E5087702F
:1007A000806480937C0080917A00806480937A00DA
:1007B00080917A0086FDFCCF8091780020917900AD
:1007C00090E0922B918380834D855E859A01220F64
:1007D000331FEB85FC85E20FF31F20813181CF8031
:1007E000D884E984FA84C701B601620F731F811DA2
:1007F000911D6F83788789879A87FA013196FE87E2
:10080000ED872F854C815D81213011F09F0101C062
:100810009A01E417F50720F01E861D8641E04F87F8
:10082000032E000C440B550B0E94BB160A811B8142
:1008300002171307E9F03B832A83E881F9810680D8
:10084000F781E02DA901B801CE010995E881F98170
:10085000A80160E070E00480F581E02DCE01DF9119
:10086000CF911F910F91FF90EF90DF90CF9009945F
:10087000DF91CF911F910F91FF90EF90DF90CF907C
:1008800008950895FC01118A83819481908B878754
:100890001686158660E082810C94AF098F929F9234
:1008A000AF92BF92CF92DF92EF92FF920F931F937E
:1008B000CF93DF93FC012189223009F068C0EC015D
:1008C0000E947E0A2D853E856901E12CF12C098567
:1008D0001A852B853C8546015701801A910AA20A88
:1008E000B30ADC01CB01880D991DAA1DBB1DEF8544
:1008F000F8894181528160E070E084179507A6076E
:10090000B70708F444C01E861D860E947E0A6987C8
:100910007A878B879C87EF85F8890380F481E02DA7
:10092000309719F0F88BEF8713C08F819885019667
:1009300098878F832D813E812115310519F082170B
:100940009307BCF4EB81FC81F88BEF873097F9F0CB
:10095000608170E08A81DF91CF911F910F91FF90AC
:10096000EF90DF90CF90BF90AF909F908F900C94BE
:10097000FB09188A1F86CE010E9442042F81388508
:100980008D819E812817390711F418861F82DF9107
:10099000CF911F910F91FF90EF90DF90CF90BF907C
:1009A000AF909F908F90089508950895CF92DF9211
:1009B000EF92FF920F931F93CF93DF93FC0124815B
:1009C000223009F047C0EC010E947E0A0F85188989
:1009D00029893A89CB84DC84ED84FE840C191D09B5
:1009E0002E093F09DC01CB01800F911FA21FB31F0D
:1009F0000F81188529853A8580179107A207B307CB
:100A000048F18D899E8901969E8B8D8B64E070E004
:100A1000CE010E9449028B899C89009789F02D891B
:100A20003E898217930761F41C821F86188A198AEF
:100A30001A8A1E8A1D8A62E070E0CE010E94490275
:100A40000E947E0A6B877C878D879E871F86188A07
:100A5000198A1A8ADF91CF911F910F91FF90EF9021
:100A6000DF90CF900895CF93DF93EC018C8182309B
:100A700099F0811102C01E8A1D8A0E947E0A6B872E
:100A80007C878D879E8782E08C8361E070E0CE0159
:100A9000DF91CF910C944902DF91CF910895CF92CD
:100AA000DF92EF92FF920F931F93CF93DF93DB01BF
:100AB0001496ED91FC9115972081318124303105F8
:100AC00059F48396DF91CF911F910F91FF90EF9092
:100AD000DF90CF900C94AC032230310509F049C06F
:100AE000EC010DA11EA18DA99EA908171907A9F156
:100AF0002FA98F8D98A121110AC029A13AA1820F97
:100B0000931F8017910750F481E08FAB04C08017CA
:100B1000910720F01FAACE010E942402EDA8FEA892
:100B2000C8ACD9AC8CAD9DAD880F991F28AD39AD3F
:100B3000820F931FC816D90671F0F6018191919129
:100B40006F01DC01ED91FC910480F581E02DA7019E
:100B5000BE010995E7CF1EAB0DABCE010296DF912A
:100B6000CF911F910F91FF90EF90DF90CF900C9459
:100B70003305DF91CF911F910F91FF90EF90DF90A0
:100B8000CF900895CB010895CF93DF93EC0188892E
:100B90009989DC01ED91FC910084F185E02D0995A6
:100BA000892BA9F388899989DC01ED91FC91028454
:100BB000F385E02DDF91CF910994CF93DF93EC0182
:100BC00088899989DC01ED91FC910084F185E02D03
:100BD0000995892BA9F388899989DC01ED91FC910C
:100BE0000484F585E02DDF91CF910994AF92BF92F7
:100BF000CF92DF92EF92FF920F931F93CF93DF93E9
:100C000000D000D0CDB7DEB78C015B01C12CD12C58
:100C10007601F80180899189DC01ED91FC910284D3
:100C2000F385E02D29833A834B835C8309952981E1
:100C30003A814B815C818F3F71F0C216D306E40686
:100C4000F5064CF4D5018D935D01BFEFCB1ADB0A9D
:100C5000EB0AFB0ADECFC701B6010F900F900F9091
:100C60000F90DF91CF911F910F91FF90EF90DF9048
:100C7000CF90BF90AF900895DC0150968D919C91DC
:100C80005197DC01ED91FC910084F185E02D0994F0
:100C900080E090E0089580E090E0089580E090E0AA
:100CA000089580E090E008950895CF93DF93C09178
:100CB0008604D0918704E881F9810084F185E02DD4
:100CC000CE010995892BB9F3E881F9810284F38576
:100CD000E02DCE01DF91CF9109941F93CF93DF9345
:100CE000182FC0918604D09187048A3041F4E8819E
:100CF000F9810190F081E02D6DE0CE010995E88148
:100D0000F9810190F081E02D612FCE01099521E05C
:100D100030E0019711F420E030E0C901DF91CF917C
:100D20001F9108950F931F93CF93DF938C01EB01D5
:100D30006F3F8FEF780719F480E090E00FC06A30C2
:100D400031F46DE0F801808991890E9469016C2F6E
:100D5000F801808991890E946901CE01DF91CF91CC
:100D60001F910F9108958F929F92BF92CF92DF9221
:100D7000EF92FF920F931F93CF93DF9300D000D099
:100D8000CDB7DEB78C014B01C12CD12C7601C21638
:100D9000D306E406F50644F5F401B1904F01FAE0FC
:100DA000BF120EC06DE0F8018089918929833A83D2
:100DB0004B835C830E9469015C814B813A8129816C
:100DC0006B2DF8018089918929833A834B835C8359
:100DD0000E946901FFEFCF1ADF0AEF0AFF0A5C8168
:100DE0004B813A812981D3CFCA01B9010F900F906D
:100DF0000F900F90DF91CF911F910F91FF90EF9087
:100E0000DF90CF90BF909F908F9008950C94E01347
:100E1000089508950C94E013DC01ED91FC91369750
:100E200020813181820F931F0C940A07FB012081DE
:100E30003181FC0131832083FB0142815381F9011F
:100E4000369720813181FC01E20FF31F51834083EB
:100E500008952CE531E0FC013183208326E631E062
:100E6000318F208F6CE671E00C941607DC01ED9158
:100E7000FC91369720813181820F931F0C942907B2
:100E8000CF93DF93EC010E942907CE01DF91CF9130
:100E90000C94E013DC01ED91FC91369720813181B7
:100EA000820F931F0C9440070C94E013089508954B
:100EB0000C94E013DC01ED91FC9136972081318197
:100EC000820F931F0C945807FB0120813181FC0194
:100ED00031832083FB0142815381F90136972081C0
:100EE0003181FC01E20FF31F51834083089524ED0B
:100EF00031E0FC01318320832EED31E0358B248BF2
:100F000064EE71E00C946407DC01ED91FC9136977E
:100F100020813181820F931F0C947707CF93DF9349
:100F2000EC010E947707CE01DF91CF910C94E01382
:100F3000DC01ED91FC91369720813181820F931F66
:100F40000C948E070C94E013CF93DF931F92CDB7D0
:100F5000DEB76BE473E086EB94E049830E94700196
:100F60004981642F70E080E090E04AE00E944308ED
:100F700060E972E086EB94E00F90DF91CF910C94E2
:100F80007001CF92DF92EF92FF920F931F93CF9356
:100F9000DF93FB01E5A0F6A0C58DD68D038D148DE2
:100FA00068010E151F050CF4670161E673E086EB1E
:100FB00094E00E947001C7010E94860861E773E017
:100FC00086EB94E00E947001B70180E090E00E94FF
:100FD000941525EE30ED42E750E40E94491620E0DA
:100FE00030EC4FE754E40E94F11420E030E0A90116
:100FF0000E94801442E00E94B6086CE773E086EB22
:1010000094E00E947001B601CC15DD050CF4BE0120
:10101000601B710B072E000C880B990B0E94941516
:1010200020E030E048EC52E40E9449166B017C015C
:10103000C01BD10BBE01DD0F880B990B0E949415CC
:101040009B01AC01C701B6010E94F11420E030E021
:10105000A9010E9480140E946315862F90E00E94CF
:1010600086086BE873E086EB94E0DF91CF911F91E7
:101070000F91FF90EF90DF90CF900C948501089531
:101080000895089508958F929F92AF92BF920F9303
:101090001F93CF93DF93CDB7DEB7A1970FB6F89428
:1010A000DEBF0FBECDBF19A2423008F44AE08E0168
:1010B0000F5D1F4F842E912CA12CB12CA501940102
:1010C0000E94BB16E62FB901CA0101501109EA308E
:1010D00014F4E05D01C0E95CD801EC93232B242BD0
:1010E000252B61F7B80186EB94E00E947001A19670
:1010F0000FB6F894DEBF0FBECDBFDF91CF911F9129
:101100000F91BF90AF909F908F900895CF92DF92F4
:10111000EF92FF92CF93DF936C01990FEE08FF08D7
:10112000F7FE19C06DE286EB94E00E946901EC01C4
:1011300066277727CB016C197D098E099F094AE044
:101140000E9443088C0F9D1FDF91CF91FF90EF907D
:10115000DF90CF9008954AE0C701B601DF91CF91AB
:10116000FF90EF90DF90CF900C9443084F925F92E6
:101170006F927F928F929F92AF92BF92CF92DF92A7
:10118000EF92FF926B017C01B42E9B01AC010E9497
:10119000B616882319F06FEA73E027C026013701DD
:1011A000E89477F82FEF3FEF4FE75FE7C301B20115
:1011B0000E94B61681110DC02FEF3FEF4FE75FE79A
:1011C000C301B2010E94EC1418161CF463EB73E027
:1011D0000CC02FEF3FEF4FE75FE4C701B6010E945D
:1011E0004416181694F467EB73E086EB94E0FF90D6
:1011F000EF90DF90CF90BF90AF909F908F907F90B7
:101200006F905F904F900C9470012FEF3FEF4FE77E
:101210005FECC701B6010E94EC1487FDE4CF20E02B
:1012200030E0A901C701B6010E94EC1487FF0BC092
:101230006DE286EB94E00E9469014C01F7FAF094AC
:10124000F7F8F09402C0812C912CA12C60E070E0A2
:1012500080E09FE3AB1441F020E030E040E251E455
:101260000E94F114A394F6CF9B01AC01C701B60113
:101270000E9480142B013C010E9463156B017C01CC
:101280000E9492159B01AC01C301B2010E947F1420
:101290002B013C014AE0C701B6010E9443087C01D2
:1012A000E80CF91CBB2039F06EE286EB94E00E945A
:1012B0006901E80EF91EDB2CDD2021F120E030E091
:1012C00040E251E4C301B2010E9449162B013C01E6
:1012D0000E9463154B01A12CB12C4AE0C501B40159
:1012E0000E944308E80EF91EC501B4010E94921540
:1012F0009B01AC01C301B2010E947F142B013C0190
:10130000DA94DACFC701FF90EF90DF90CF90BF90D3
:10131000AF909F908F907F906F905F904F900895C7
:1013200090E0FC01EC55FF4F2491FC01E057FF4F8A
:101330008491882399F090E0880F991FFC01EA5767
:10134000FF4FA591B491FC01E458FF4F8591949112
:101350008FB7F894EC91E22BEC938FBF089590E057
:10136000FC01E859FF4F3491FC01EC55FF4F2491EB
:10137000FC01E057FF4FE491EE2309F43BC0332317
:1013800039F1333091F038F43130A9F0323001F5D1
:1013900084B58F7D12C0373091F03830A1F03430F1
:1013A000B9F4809180008F7D03C0809180008F7799
:1013B000809380000DC084B58F7784BD09C0809173
:1013C000B0008F7703C08091B0008F7D8093B00014
:1013D000F0E0EE0FFF1FE458FF4FA591B4918FB7D7
:1013E000F894EC91611103C020952E2301C02E2B9F
:1013F0002C938FBF08951F93CF93DF93182FEB018A
:101400000E949009209711F460E004C0CF3FD105FD
:1014100039F461E0812FDF91CF911F910C94AF09D6
:10142000E12FF0E0E859FF4FE491E330F9F048F4A0
:10143000E130B9F0E230A1F584B5806284BDC8BD69
:1014400034C0E730E9F0E83019F1E43049F5809133
:101450008000806280938000D0938B00C0938A00CC
:1014600024C084B5806884BDC7BD1FC08091800042
:10147000806880938000D0938900C093880015C055
:101480008091B00080688093B000C093B3000DC01D
:101490008091B00080628093B000C093B40005C01A
:1014A000C038D1050CF0B5CFAFCFDF91CF911F91F0
:1014B00008953FB7F8948091C1039091C203A09121
:1014C000C303B091C40326B5A89B05C02F3F19F0F4
:1014D0000196A11DB11D3FBFBA2FA92F982F8827B4
:1014E000820F911DA11DB11DBC01CD0142E0660F0F
:1014F000771F881F991F4A95D1F708952FB7F89441
:101500006091BD037091BE038091BF039091C003B1
:101510002FBF08958091E0039091E103892B39F169
:101520008091EE03823019F1811108C01092EB0313
:101530001092EA031092E5031092E4030E947E0ADF
:101540006093E6037093E7038093E8039093E903C5
:1015500082E08093EE03E091EC03F091ED0330978D
:1015600031F0608170E08091DF030C94FB090895F5
:101570001F920F920FB60F9211242F933F938F93C8
:101580009F93AF93BF938091BD039091BE03A091B1
:10159000BF03B091C0033091BC0323E0230F2D376C
:1015A00020F40196A11DB11D05C026E8230F029667
:1015B000A11DB11D2093BC038093BD039093BE0376
:1015C000A093BF03B093C0038091C1039091C20365
:1015D000A091C303B091C4030196A11DB11D8093D6
:1015E000C1039093C203A093C303B093C403BF91FC
:1015F000AF919F918F913F912F910F900FBE0F90C0
:101600001F9018958F929F92AF92BF92CF92DF92C8
:10161000EF92FF920F931F93CF9386EB94E010927B
:10162000B9041092B80448EE53E060E070E04093D3
:10163000BA045093BB046093BC047093BD0424E3CC
:1016400031E03093B7042093B60425EC30E03093BA
:10165000C3042093C20424EC30E03093C5042093EB
:10166000C40420EC30E03093C7042093C60421EC7E
:1016700030E03093C9042093C80422EC30E030936A
:10168000CB042093CA0426EC30E03093CD042093A1
:10169000CC041092CF041092D0041092D104109276
:1016A000D20461E270E070936B0560936A0510925A
:1016B0006C0510926D0510926E0536E0C32ED12C8C
:1016C000E12CF12CC0926F05D0927005E09271056B
:1016D000F0927205109273051092740510927505C0
:1016E0001092760540E240937705109279051092AA
:1016F000780510927C0525E535E030937B05209335
:101700007A0524ED31E030935405209353052EEDF6
:1017100031E03093680520936705109259051092C7
:10172000580510925B0510925A0510925D051092B3
:101730005C0510925F0510925E0510926105109293
:101740006005109263051092620522EB31E0309340
:10175000560520935505909366058093650550E1E5
:10176000509364057093A4046093A3041092A5049D
:101770001092A6041092A704C092A804D092A904C3
:10178000E092AA04F092AB041092AC041092AD0463
:101790001092AE041092AF044093B0041092B204C1
:1017A0001092B1041092B50410928A0410928B0426
:1017B00010928C0410928D044EE854E05093B404BF
:1017C0004093B3044CE551E050938904409388045E
:1017D00046E651E05093A1044093A0041092920475
:1017E0001092910410929404109293041092960413
:1017F00010929504109298041092970410929A04F3
:101800001092990410929C0410929B0430938F04C0
:1018100020938E0490939F0480939E0428E020934D
:101820009D04909387048093860465E576E08DE6B9
:1018300096E00E94E4128EE092E090935804809328
:10184000570410925A04109259048FE080935D045B
:1018500010925E0410925F04109260041092610472
:101860001092650410926404109266041092680449
:101870001092670480E490E00E944B13809362040E
:101880009093630420E230E030935C0420935B0487
:10189000FC01805C9F4FE817F90719F01192119233
:1018A000FACF8CE292E090935804809357048CE333
:1018B00092E090936A048093690484E292E09093AA
:1018C0006C0480936B0410926F0410927104109258
:1018D000700410927604109277041092780410929B
:1018E000790410927A0410927B0410927C04109276
:1018F0007D04109281041092800410927F04109253
:101900007E0440E850E060E070E040937204509341
:10191000730460937404709375041092830410929E
:101920008204109285041092840429E634E03093F6
:101930006E0420936D042CEF31E030931904209352
:10194000180490931B0480931A0410921E041092A2
:10195000200410921F041092250410922604109265
:101960002704109228041092290410922A0410923D
:101970002B0410922C041092300410922F0480E05B
:1019800094E090933204809331048EE293E090933C
:1019900034048093330481ED93E090933604809374
:1019A000350486E493E0909338048093370483E011
:1019B00090E090933A048093390480E290E00E9492
:1019C0004B13FC019C01205E3F4F11921192E217D4
:1019D000F307D9F72EE032E030933C0420933B0428
:1019E00010923E0410923D0420E130E03093400418
:1019F00020933F042EE02093410410924204109261
:101A00004304109244041092450490934704809339
:101A10004604109249041092480410924A0410920D
:101A20004C0410924B048FEF9FEF90934E048093E1
:101A30004D0410924F0488E090E0909353048093FB
:101A40005204109255041092540480E190E00E94D8
:101A50004B1390935104809350048FE090E0A0E0EA
:101A6000B0E08093210490932204A0932304B093C8
:101A7000240480E490E090932E0480932D0488E168
:101A800094E090931D0480931C048CE692E0909364
:101A90000F0480930E048AE792E0909311048093E0
:101AA0001004109213041092120410921504109254
:101AB000140410921704109216048CE892E090938C
:101AC000CA038093C90304E812E01093CC03009387
:101AD000CB038AE08093CD031092CF031092CE0304
:101AE0001092D1031092D0031092D3031092D2031C
:101AF0001092D4031092D5031092D6031092D703FC
:101B00001092D9031092D8031092DB031092DA03DB
:101B10001092DC030E9490091093DE030093DD0312
:101B200089E08093DF031092E1031092E0031092AA
:101B3000E3031092E2031092E5031092E403109283
:101B4000E6031092E7031092E8031092E903109263
:101B5000EB031092EA031092ED031092EC03109243
:101B6000EE030E9490091093F0030093EF0386E0C8
:101B70008093F1031092F3031092F2031092F50395
:101B80001092F4031092F7031092F6031092F803E8
:101B90001092F9031092FA031092FB031092FD03C6
:101BA0001092FC031092FF031092FE0310920004A7
:101BB0000E9490091092010485E090E00E944B136E
:101BC0007C01FC011082148213828FE99BE09283D6
:101BD000818385E090E00E944B13FC01CFEFC0832E
:101BE00009E110E012830183F482E38290930304FD
:101BF0008093020485E090E00E944B137C01FC017D
:101C00001082148213828AE397E09283818385E0B5
:101C100090E00E944B134C01FC01C08382E3A82E8C
:101C2000B12CB282A182F482E38285E090E00E942E
:101C30004B136C01FC0110829BE4E92EF12CF28223
:101C4000E1829482838285E090E00E944B13FC0144
:101C5000C08312830183D482C3829093050480934E
:101C6000040485E090E00E944B136C01FC0110829B
:101C70001482138286EB93E09283818385E090E067
:101C80000E944B13FC01C083B282A182D482C38222
:101C9000909307048093060485E090E00E944B1324
:101CA0006C01FC0110821482138287ED9AE092830A
:101CB000818385E090E00E944B135C01FC01C083AE
:101CC00012830183D482C38285E090E00E944B138B
:101CD0006C01FC011082F282E182B482A38285E071
:101CE00090E00E944B13FC01C08312830183D482D5
:101CF000C382909309048093080485E090E00E94D9
:101D00004B136C01FC0110821482138280E991E074
:101D10009283818385E090E00E944B135C01FC017B
:101D2000C08312830183D482C38285E090E00E9445
:101D30004B136C01FC011082F282E182B482A38217
:101D400085E090E00E944B135C01FC01C08312838C
:101D50000183D482C38285E090E00E944B136C0122
:101D6000FC011082F282E182B482A38285E090E0DD
:101D70000E944B135C01FC01C08312830183D48257
:101D8000C38285E090E00E944B136C01FC0110823D
:101D900012830183B482A38285E090E00E944B13FA
:101DA0005C01FC01C083F282E182D482C38285E0BF
:101DB00090E00E944B136C01FC011082128301839E
:101DC000B482A38285E090E00E944B135C01FC0189
:101DD000C083F282E182D482C38285E090E00E94D7
:101DE0004B136C01FC01108212830183B482A38225
:101DF00085E090E00E944B13FC01C083F282E182F7
:101E0000D482C38290930B0480930A0485E090E00F
:101E10000E944B138C01FC011082148213822EEE5F
:101E2000E22E22E0F22EF282E18285E090E00E9432
:101E30004B13FC01C083F282E182148303839093ED
:101E40000D0480930C040E947E0A6093C503709376
:101E5000C6038093C7039093C803CF911F910F913E
:101E6000FF90EF90DF90CF90BF90AF909F908F90BA
:101E70000895789484B5826084BD84B5816084BD02
:101E800085B5826085BD85B5816085BD80916E0018
:101E9000816080936E001092810080918100826049
:101EA0008093810080918100816080938100809186
:101EB00080008160809380008091B1008460809375
:101EC000B1008091B00081608093B00080917A0071
:101ED000846080937A0080917A00826080937A0097
:101EE00080917A00816080937A0080917A00806886
:101EF00080937A001092C1008AE00E94900989E0E4
:101F00000E94900961E08AE00E94AF0961E089E0E7
:101F10000E94AF09E091C604F091C70482E080837B
:101F2000E091C204F091C3041082E091C404F091E6
:101F3000C5048FEC80831092CE04E091CA04F09126
:101F4000CB0486E08083E091C804F091C9048081CD
:101F500080618083E091C804F091C9048081886029
:101F60008083E091C804F091C904808180688083F7
:101F7000E091C804F091C90480818F7D808363E97A
:101F800072E086EB94E00E948501E0911404F091E8
:101F9000150424E0E735F20781F0309711F016A61A
:101FA00015A680E194E0909385048093840487E5EE
:101FB00094E09093150480931404E0911204F0913E
:101FC000130464E0E831F60709F4ABC03097D9F1A7
:101FD000A0ADB1AD40AD51AD24AD35ADC901880F57
:101FE000991F840F951FA817B90769F18D919C91CE
:101FF00011978E50944029F5CD01841B950BBC019F
:1020000075956795A901415051097C01C2E0EC0E1C
:10201000F11C6417750780F4C0ACD1AC6F5F7F4FC3
:10202000E601CE0DDF1DA880B980E601C80FD91FDB
:10203000B982A882C701E9CF4217530710F455AF00
:1020400044AF1296C7CFC0905404D0905504760187
:102050002FEFE21AF20ACE14DF0408F055C0809187
:102060005204909153048E159F05A0F59601275FA9
:102070003F4F8217930770F5A0905004B090510421
:102080003093530420935204C901880F991F0E9472
:102090004B139093510480935004D50140E050E0DD
:1020A0004C155D05A1F0E0915004F09151049A01A6
:1020B000220F331FE20FF31F309729F08D919C916F
:1020C0001197918380834F5F5F4F1296E9CFC501CF
:1020D0000E94E01380915404909155049C01220FBA
:1020E000331F4EE054E08E159F0588F4E0915004B4
:1020F000F0915104E20FF31F309711F051834083A8
:1021000001962E5F3F4FEFCFEC14FD0420F4F092C8
:102110005504E092540488E194E090931304809372
:10212000120489EC93E09093170480931604809135
:10213000120490911304009719F002960E9433053F
:102140008091140490911504009719F044960E9410
:102150003305E0911604F0911704309759F080ADE3
:1021600082FD08C0846080AF6BEA72E086EB94E089
:102170000E9485010E94590A4B015C0184EFC82E20
:10218000DD24D394E12CF12C0E94590ADC01CB010F
:1021900088199909AA09BB09883E9340A105B10590
:1021A00058F061E0C61AD108E108F10888EE880EFF
:1021B00083E0981EA11CB11CC114D104E104F104F8
:1021C00019F768EB72E086EB94E00E94850160E00D
:1021D0008AE00E94AF0960E089E00E94AF090E9496
:1021E0007E0A6093C5037093C6038093C7039093E0
:1021F000C8030E947E0AC090C503D090C603E09039
:10220000C703F090C803DC01CB018C199D09AE090E
:10221000BF0988389341A105B1059CF08091000168
:1022200090910101019690930101809300010E9419
:102230007E0A6093C5037093C6038093C70390938F
:10224000C80380910001909101018330910509F448
:1022500041C034F48130910569F0029749F1D5C04D
:102260008530910509F481C00CF449C0069709F442
:10227000AAC0CBC08091010487FDC7C06DEC72E09D
:1022800086EB94E00E948501809101048068809330
:10229000010463EE72E086EB94E00E9485018DED0F
:1022A00093E00E94420480910A0490910B0452C072
:1022B0008091010486FDA9C061EF72E086EB94E095
:1022C0000E9485018091010480648093010487FD50
:1022D0009CC032C08091010485FD97C06AE173E023
:1022E00086EB94E00E94850180910104982F906212
:1022F0009093010497FD89C086FD87C055C08091E9
:10230000010487FF82C06DEC72E086EB94E00E94CE
:102310008501809101048F77809301046CE373E061
:1023200086EB94E00E9485018DED93E00E944204CB
:102330008091010486FF69C068E073E086EB94E059
:102340000E9485018DED93E00E9442048091040477
:10235000909105049093E1038093E0039093ED0343
:102360008093EC030E948A0A50C08091010486FF8A
:102370004CC061EF72E086EB94E00E948501809191
:1023800001048F7B8093010487FD3FC06CE373E001
:1023900086EB94E00E9485018DED93E00E9442045B
:1023A0008091010485FF31C06CE273E086EB94E01C
:1023B0000E9485018DED93E00E94420480910C04FF
:1023C00090910D04C7CF8091010485FF1AC06AE186
:1023D00073E086EB94E00E94850180910104982FC0
:1023E0009F7D9093010497FD0CC086FD0AC06CE3AD
:1023F00073E086EB94E00E9485018DED93E00E94EE
:10240000420410920101109200018BE694E00E94B8
:10241000D60487E594E00E94AC038AE194E00E9430
:10242000D6048BEC93E00E944E048DED93E00E9465
:102430004E048FEE93E00E944E040E94F101D9CE2B
:102440000F931F93CF93DF93EC010A811B818BA520
:102450009CA50817190799F08DA59EA5009769F00E
:10246000DC01ED91FC910480F581E02D9E01255D5C
:102470003F4F4AE050E0BE0109951CA70BA7DF9132
:10248000CF911F910F91089542970C9420120895B7
:102490000C94E01342970C94481208950C94E013A6
:1024A00002970C944E12CF92DF92EF92FF92CF934D
:1024B000DF93FC01868197816817790709F06AC06C
:1024C0004A30510509F066C0FB01C280D380E601A5
:1024D000D7FC07C0C114F4E0DF062CF0CFEFD3E047
:1024E00002C0C0E0D0E06DE873E086EB94E00E94AB
:1024F0007001E12CF12C4AE0C701B6010E944308AB
:1025000061E773E086EB94E00E947001C701B601B9
:102510000E94941525EE30ED42E750E40E944916E2
:1025200020E030EC4FE754E40E94F11420E030E06A
:10253000A9010E94801442E00E94B6086DE973E090
:1025400086EB94E00E947001BE01DD0F880B990BB1
:102550000E94941520E030E044E352E40E944916C2
:1025600020E030EC4FE754E40E94F11420E030E02A
:10257000A9010E94801442E00E94B6086CEA73E050
:1025800086EB94E0DF91CF91FF90EF90DF90CF90BA
:102590000C948501DF91CF91FF90EF90DF90CF9069
:1025A000089502970C94531288E194E00E946F03FF
:1025B00087E594E00E94230288E894E00E942907BE
:1025C00083E595E00C9477070F931F93CF93DF93E8
:1025D000009731F46115710519F480E090E03AC07C
:1025E0008B01EC016EE070E081E090E00E942F131F
:1025F000FC01892B91F380E883830115110571F0AB
:102600001387028781E8838380917D0590917E0501
:10261000892B21F4F0937E05E0937D052097C9F086
:10262000D187C08783818260838380917F05909169
:102630008005892B71F4F0938005E0937F058091EC
:10264000810590918205892B21F4F0938205E09316
:102650008105CF01DF91CF911F910F9108950F93C5
:102660001F93CF93DF93869F8001879F100D969FC6
:10267000100D1124C8010E944B13EC01009729F0A2
:10268000A80160E070E00E947814CE01DF91CF9144
:102690001F910F910895CF93DF938230910510F42D
:1026A00082E090E0E0918505F091860520E030E041
:1026B000C0E0D0E0309711F14081518148175907AF
:1026C000C0F04817590761F482819381209719F06F
:1026D0009B838A832BC0909386058093850526C0B3
:1026E0002115310519F04217530718F49A01BE015C
:1026F000DF01EF010280F381E02DDCCF21153105F0
:1027000009F1281B390B2430310590F412968D9174
:102710009C9113976115710521F0FB0193838283CE
:1027200004C09093860580938505FD01329644C0D0
:10273000FD01E20FF31F81939193225031092D93F4
:102740003C933AC02091830530918405232B41F4BA
:102750002091040130910501309384052093830575
:1027600020910201309103012115310541F42DB76B
:102770003EB74091060150910701241B350BE091B3
:102780008305F0918405E217F307A0F42E1B3F0B9D
:102790002817390778F0AC014E5F5F4F24173507D3
:1027A00048F04E0F5F1F509384054093830581933B
:1027B000919302C0E0E0F0E0CF01DF91CF91089566
:1027C0000F931F93CF93DF93009709F48CC0FC0104
:1027D00032971382128200918505109186050115AA
:1027E000110581F420813181820F931F209183058F
:1027F000309184052817390779F5F0938405E09323
:10280000830571C0D80140E050E0AE17BF0750F417
:1028100012962D913C911397AD012115310509F1C7
:10282000D901F3CF9D01DA01338322836081718165
:10283000860F971F8217930769F4EC01288139816D
:10284000260F371F2E5F3F4F318320838A819B8164
:1028500093838283452B29F4F0938605E0938505C5
:1028600042C01396FC93EE931297ED014991599152
:102870009E01240F351FE217F30771F480819181C7
:10288000840F951F029611969C938E93828193815B
:1028900013969C938E931297E0E0F0E0D801129685
:1028A0008D919C911397009719F0F8018C01F6CF48
:1028B0008D919C9198012E5F3F4F820F931F209125
:1028C0008305309184052817390769F4309729F476
:1028D000109286051092850502C013821282109311
:1028E000840500938305DF91CF911F910F91089587
:1028F000DC0101C06D9341505040E0F708955058FD
:10290000BB27AA270E9497140C940A160E94FC1554
:1029100038F00E94031620F039F49F3F19F426F492
:102920000C94F9150EF4E095E7FB0C94F315E92FE0
:102930000E941B1658F3BA1762077307840795079E
:1029400020F079F4A6F50C943D160EF4E0950B2ECC
:10295000BA2FA02D0B01B90190010C01CA01A001F1
:102960001124FF27591B99F0593F50F4503E68F14C
:102970001A16F040A22F232F342F4427585FF3CF8D
:10298000469537952795A795F0405395C9F77EF45E
:102990001F16BA0B620B730B840BBAF09150A1F0A7
:1029A000FF0FBB1F661F771F881FC2F70EC0BA0F2D
:1029B000621F731F841F48F4879577956795B795B5
:1029C000F7959E3F08F0B0CF9395880F08F09927B0
:1029D000EE0F9795879508950E94CF1508F481E032
:1029E00008950E9405150C940A160E94031658F0CB
:1029F0000E94FC1540F029F45F3F29F00C94F31578
:102A000051110C943E160C94F9150E941B1668F394
:102A10009923B1F3552391F3951B550BBB27AA2797
:102A200062177307840738F09F5F5F4F220F331FD1
:102A3000441FAA1FA9F335D00E2E3AF0E0E832D099
:102A400091505040E695001CCAF72BD0FE2F29D09C
:102A5000660F771F881FBB1F261737074807AB076E
:102A6000B0E809F0BB0B802DBF01FF2793585F4FE3
:102A70003AF09E3F510578F00C94F3150C943E16F5
:102A80005F3FE4F3983ED4F3869577956795B795C5
:102A9000F7959F5FC9F7880F911D9695879597F9D0
:102AA0000895E1E0660F771F881FBB1F6217730749
:102AB0008407BA0720F0621B730B840BBA0BEE1F5E
:102AC00088F7E09508950E94231688F09F5798F0A4
:102AD000B92F9927B751B0F0E1F0660F771F881F23
:102AE000991F1AF0BA95C9F714C0B13091F00E943D
:102AF0003D16B1E008950C943D16672F782F882776
:102B0000B85F39F0B93FCCF3869577956795B39563
:102B1000D9F73EF490958095709561957F4F8F4FD2
:102B20009F4F0895E89409C097FB3EF490958095D7
:102B3000709561957F4F8F4F9F4F9923A9F0F92F83
:102B400096E9BB279395F695879577956795B79501
:102B5000F111F8CFFAF4BB0F11F460FF1BC06F5FE7
:102B60007F4F8F4F9F4F16C0882311F096E911C0F9
:102B7000772321F09EE8872F762F05C0662371F01A
:102B800096E8862F70E060E02AF09A95660F771F2E
:102B9000881FDAF7880F9695879597F90895990F0A
:102BA0000008550FAA0BE0E8FEEF16161706E80717
:102BB000F907C0F012161306E407F50798F0621B38
:102BC000730B840B950B39F40A2661F0232B242B0D
:102BD000252B21F408950A2609F4A140A6958FEF2C
:102BE000811D811D089597F99F6780E870E060E07E
:102BF00008959FEF80EC089500240A941616170696
:102C000018060906089500240A94121613061406DD
:102C100005060895092E0394000C11F4882352F040
:102C2000BB0F40F4BF2B11F460FF04C06F5F7F4FF8
:102C30008F4F9F4F089557FD9058440F551F59F0DF
:102C40005F3F71F04795880F97FB991F61F09F3F99
:102C500079F087950895121613061406551FF2CFC2
:102C60004695F1DF08C0161617061806991FF1CF12
:102C700086957105610508940895E894BB27662739
:102C80007727CB0197F908950E94CF1508F48FEFAD
:102C900008950E945C160C940A160E94FC1538F0E8
:102CA0000E94031620F0952311F00C94F3150C9458
:102CB000F91511240C943E160E941B1670F3959F73
:102CC000C1F3950F50E0551F629FF001729FBB2723
:102CD000F00DB11D639FAA27F00DB11DAA1F649FBF
:102CE0006627B00DA11D661F829F2227B00DA11D72
:102CF000621F739FB00DA11D621F839FA00D611DF8
:102D0000221F749F3327A00D611D231F849F600D18
:102D1000211D822F762F6A2F11249F5750409AF041
:102D2000F1F088234AF0EE0FFF1FBB1F661F771FCD
:102D3000881F91505040A9F79E3F510580F00C9498
:102D4000F3150C943E165F3FE4F3983ED4F386955A
:102D500077956795B795F795E7959F5FC1F7FE2B38
:102D6000880F911D9695879597F908950E94CF1524
:102D7000880B990B0895A1E21A2EAA1BBB1BFD011B
:102D80000DC0AA1FBB1FEE1FFF1FA217B307E4074A
:102D9000F50720F0A21BB30BE40BF50B661F771FA2
:102DA000881F991F1A9469F7609570958095909582
:102DB0009B01AC01BD01CF010895EE0FFF1F0590EF
:102DC000F491E02D099481E090E0F8940C94E816D9
:102DD00010E0CDE5D0E004C0FE010E94DD16219692
:0A2DE000CE35D107C9F7F894FFCFF4
:102DEA0001000000870580001800000000000000B4
:102DFA000000E8FFE8FF00000000000014000000E7
:102E0A00000000000000ECFFECFF000000000000E2
:102E1A000000000000018800B7004701E800C60072
:102E2A00DA0006000000000008070A07FAFFFAFFA6
:102E3A00000009070C0718000000000029074007D6
:102E4A00E8FFE8FF000036074A075C010E01180197
:102E5A006601000000003F080607540651064E06A8
:102E6A004B064806FF02FB02F802E202C20586028E
:102E7A00840202000000000056075807FEFFFEFF0A
:102E8A00000057075A07000000004108A207000087
:102E9A00000040085407540651064E064B064806E1
:102EAA003C06F605DD05C405C205B3069206140004
:102EBA000000000077078E07ECFFECFF0000840794
:102ECA009807D40122012C01DE0100000000A903A9
:102EDA006503FD013703FB01000000006F0378035F
:102EEA004F0500000000AB036B0300000000AA03BB
:102EFA006703FD01FC010000000000000000FE0065
:102F0A00000000004104860300000000230248126A
:102F1A00FD01FC0120122202EEFF000047124A12B4
:102F2A0044120000000021026D030000000020028C
:102F3A0069030000000000000000FE00FE0000001F
:102F4A00000000000000FE000000000042084E12CF
:102F5A00C107A4075312FEFF00004D125012D112EE
:102F6A0000000000D404820300000000D50484039A
:102F7A000D0A005472616E736D6974746572205320
:102F8A0074617274696E672E2E2E00574849544533
:102F9A00206368616E6765005472616E736D69744F
:102FAA0074657220537461727465642100207365BC
:102FBA007448565761726E696E67456E61626C65D8
:102FCA00642000202D20456E61626C65642048569D
:102FDA000020736574426174746572794C6F774529
:102FEA006E61626C65642000202D20456E61626C02
:102FFA006520426174746572790020736574457244
:10300A00726F72456E61626C65642000202D2045E6
:10301A006E61626C65204572726F7200202D2044C9
:10302A00697361626C65205245440042617474653B
:10303A00727920416C61726D2053746174653A2013
:10304A0000426174746572792056616C75653A2024
:10305A000020566F6C746167653A200056205065EF
:10306A007263656E746167653A20002500485650A0
:10307A00726F62652056616C75653A2000204D6555
:10308A0061737572656D656E743A20006B56006ED9
:0C309A00616E00696E66006F76660000D3
:00000001FF
