:100000000C94D5000C94FD000C94FD000C94FD00A4
:100010000C94FD000C94FD000C94FD000C94CA0798
:100020000C94FD000C94FD000C94FD000C94FD005C
:100030000C94FD000C94FD000C94FD000C94FD004C
:100040000C94070F0C94FD000C940A0E0C94E40D14
:100050000C94FD000C94FD000C94FD000C94FD002C
:100060000C94FD000C94FD00204D65617375726564
:100070006D656E743A200020566F6C746167653A46
:100080002000485650726F62652056616C75653A63
:100090002000562050657263656E746167653A2072
:1000A0000020566F6C746167653A20004261747479
:1000B0006572792056616C75653A200042617474EE
:1000C00065727920416C61726D2053746174653A78
:1000D0002000202D20456E61626C65204572726F94
:1000E0007200202D2044697361626C652052454482
:1000F00000202D20456E61626C652042617474653C
:10010000727900025D002C200020706172616D73B5
:100110003A5B0020736F757263653A002069643A38
:1001200000434D44200045786563757465200046A2
:100130007265652052414D203D20004F4B005265B5
:100140006365697665643A200000000008000201DA
:1001500000000304070000000000000000574849A9
:100160005445206368616E6765000000000025004B
:1001700028002B0000000000240027002A000404AF
:10018000040404040404020202020202030303033F
:10019000030301020408102040800102040810201B
:1001A0000102040810202815001511241FBECFEFEE
:1001B000D8E0DEBFCDBF12E0A0E0B1E0EEEEF6E3A6
:1001C00002C005900D92AA3CB107D9F724E0AAEC31
:1001D000B2E001C01D92A637B207E1F710E0C4ED0E
:1001E000D0E004C02197FE010E945F1BC33DD107F0
:1001F000C9F70E94E20F0C946A1B0C94000008954A
:100200000895CB0108957F928F929F92AF92BF92F3
:10021000CF92DF92EF92FF920F931F93CF93DF93D2
:10022000EC0149015A018B01C12CD12C7601C81473
:10023000D904EA04FB0484F5F80171908F018F85DD
:1002400080FF0BC0E881F9810084F185E02D20E179
:1002500044E060E070E0CE010995EB85FC858D857A
:100260009E85E817F90738F470828B859C85019686
:100270009C878B870BC0E881F981672D70E0028C29
:10028000F38DE02DCE010995019649F02FEFC21AAA
:10029000D20AE20AF20ACBCFB401C50102C0B6010C
:1002A000C701DF91CF911F910F91FF90EF90DF90E9
:1002B000CF90BF90AF909F908F907F900895CF93F5
:1002C000DF93EC01E881F9810288F389E02D09953B
:1002D0008F3F2FEF920731F02D813E812F5F3F4FEF
:1002E0003E832D83DF91CF9108958FEF9FEF089587
:1002F00060E070E0CB01089580E090E00895CB01CC
:100300000895CF93DF93EC0188899989DC01ED9101
:10031000FC910084F185E02D0995892BA9F388894A
:100320009989DC01ED91FC910284F385E02DDF9148
:10033000CF910994CF93DF93EC0188899989DC01EF
:10034000ED91FC910084F185E02D0995892BA9F3AD
:1003500088899989DC01ED91FC910484F585E02D73
:10036000DF91CF910994AF92BF92CF92DF92EF923B
:10037000FF920F931F93CF93DF9300D000D0CDB7A0
:10038000DEB78C015B01C12CD12C7601F80180898C
:100390009189DC01ED91FC910284F385E02D2983A4
:1003A0003A834B835C83099529813A814B815C8137
:1003B0008F3F71F0C216D306E406F5064CF4D50162
:1003C0008D935D01BFEFCB1ADB0AEB0AFB0ADECF90
:1003D000C701B6010F900F900F900F90DF91CF9152
:1003E0001F910F91FF90EF90DF90CF90BF90AF9053
:1003F0000895DC0150968D919C915197DC01ED910F
:10040000FC910084F185E02D099480E090E008954E
:1004100080E090E0089580E090E0089580E090E032
:1004200008950895CF93DF93C0913D03D0913E038B
:10043000E881F9810084F185E02DCE010995892BB1
:10044000B9F3E881F9810284F385E02DCE01DF91D3
:10045000CF9109941F93CF93DF93182FC0913D0341
:10046000D0913E038A3041F4E881F9810190F08116
:10047000E02D6DE0CE010995E881F9810190F081D0
:10048000E02D612FCE01099521E030E0019711F4B4
:1004900020E030E0C901DF91CF911F91089525E45C
:1004A00032E0FC013183208383AD94AD0C94D317EB
:1004B0000C94D317CF93DF93EC010E944F02CE012F
:1004C000DF91CF910C94D3170C94D3170C94D317BE
:1004D0000C94D317089508950C94D317DC01ED9173
:1004E000FC91369720813181820F931F0C946C020E
:1004F000FB0120813181FC0131832083FB0142819A
:100500005381F901369720813181FC01E20FF31FFD
:100510005183408308952BEA31E0FC01318320832D
:1005200025EB31E0318F208F6BEB71E00C9478027A
:10053000DC01ED91FC91369720813181820F931F70
:100540000C948B02CF93DF93EC010E948B02CE01BF
:10055000DF91CF910C94D317DC01ED91FC9136978C
:1005600020813181820F931F0C94A2020C94D31727
:10057000089508950C94D317DC01ED91FC91369702
:1005800020813181820F931F0C94BA02FB012081DC
:100590003181FC0131832083FB0142815381F901C8
:1005A000369720813181FC01E20FF31F5183408394
:1005B000089523E232E0FC01318320832DE232E012
:1005C000358B248B63E372E00C94C602DC01ED9161
:1005D000FC91369720813181820F931F0C94D902B0
:1005E000CF93DF93EC010E94D902CE01DF91CF912E
:1005F0000C94D317DC01ED91FC9136972081318169
:10060000820F931F0C94F0020C94D3170F931F9337
:10061000CF93DF93EC01CB01088119817B836A833F
:100620000E943E179983888320E030E08C819D8171
:100630002817390770F4E881F981E20FF31F30972A
:1006400029F0D801A20FB31F8C9180832F5F3F4FF9
:10065000EDCFC801DF91CF911F910F910C94D3176B
:10066000CF93DF936115710509F45FC0FB01C08171
:10067000CF3F11F461E003C0C11104C060E0FC0190
:1006800082814FC0FC01D2818D2F0E945A08ED2F2C
:10069000F0E0E75BFE4FE491E33009F148F4E1302C
:1006A000C9F0E230C1F584B5806284BDC8BD3DC0EB
:1006B000E73009F1E83039F1E43069F580918000E4
:1006C0008062809380008C2F90E090938B008093C9
:1006D0008A002BC084B5806884BDC7BD26C08091C8
:1006E00080008068809380008C2F90E09093890038
:1006F000809388001AC08091B00080688093B00019
:10070000C093B30012C08091B00080628093B000AB
:10071000C093B4000AC0C03810F460E001C061E0CA
:100720008D2FDF91CF910C943309DF91CF910895F4
:100730000F931F93CF93DF938C01EB016F3F8FEFEC
:10074000780719F480E090E00FC06A3031F46DE072
:10075000F801808991890E94510C6C2FF8018089E1
:1007600091890E94510CCE01DF91CF911F910F9181
:1007700008958F929F92BF92CF92DF92EF92FF9255
:100780000F931F93CF93DF9300D000D0CDB7DEB788
:100790008C014B01C12CD12C7601C216D306E40684
:1007A000F50644F5F401B1904F01FAE0BF120EC016
:1007B0006DE0F8018089918929833A834B835C83BA
:1007C0000E94510C5C814B813A8129816B2DF8018B
:1007D0008089918929833A834B835C830E94510CE1
:1007E000FFEFCF1ADF0AEF0AFF0A5C814B813A81E3
:1007F0002981D3CFCA01B9010F900F900F900F90AC
:10080000DF91CF911F910F91FF90EF90DF90CF90EC
:10081000BF909F908F900895CF92DF92EF92FF92BA
:100820000F931F93CF93DF93FB01E488F588C08576
:10083000D1850681178168010E151F050CF467012B
:100840006CEA70E081E493E00E94580CC7010E94BA
:10085000260861EA70E081E493E00E94580CB70139
:1008600080E090E00E94EE192AE534E643E550E48A
:100870000E94A31A20E030EC4FE754E40E944B1989
:1008800020E030E0A9010E94DA18AB01BC0122E0AF
:1008900081E493E00E94DA0C62E970E081E493E085
:1008A0000E94580CB601CC15DD050CF4BE01601B8E
:1008B000710B072E000C880B990B0E94EE1920E09B
:1008C00030E048EC52E40E94A31A6B017C01C01B8B
:1008D000D10BBE01DD0F880B990B0E94EE199B0115
:1008E000AC01C701B6010E944B1920E030E0A9011C
:1008F0000E94DA180E94BD19862F90E00E942608F7
:100900006FE772E081E493E0DF91CF911F910F9147
:10091000FF90EF90DF90CF900C94BC0D0895FC01F8
:10092000118A83819481908B87871686158660E073
:1009300082810C9433098F929F92AF92BF92CF9293
:10094000DF92EF92FF920F931F93CF93DF93FC01FF
:100950002189223009F060C0EC010E94A4092D8594
:100960003E856901E12CF12C09851A852B853C8592
:1009700046015701801A910AA20AB30ADC01CB0191
:10098000880D991DAA1DBB1DEF85F88941815281F3
:1009900060E070E084179507A607B707E8F11E86A8
:1009A0001D860E94A40969877A878B879C87EF85BB
:1009B000F889638174816115710579F48F81988557
:1009C000019698878F832D813E812115310519F07D
:1009D000821793079CF46B817C81788B6F87CE01A3
:1009E000DF91CF911F910F91FF90EF90DF90CF900B
:1009F000BF90AF909F908F900C943003188A1F8601
:100A0000CE010E948F042F8138858D819E81281709
:100A1000390711F418861F82DF91CF911F910F9132
:100A2000FF90EF90DF90CF90BF90AF909F908F900E
:100A30000895CF93DF93FC0183819481892BC9F0C2
:100A400081898230B1F0811104C016861586108626
:100A50001782EF010E94A40969877A878B879C8798
:100A600082E0898B6F857889CE01DF91CF910C94DC
:100A70003003DF91CF910895EF92FF920F931F9370
:100A8000CF93DF93EC018C819D818617970710F53A
:100A90007A018B018A819B818617970740F4685FF2
:100AA0007F4F8617970718F4CE010E9406038C81AA
:100AB0009D818017910758F4E881F981E80FF91FAB
:100AC000309719F0D7012C9120830196F2CF1D8326
:100AD0000C8305C06817790710F47D836C83DF9160
:100AE000CF911F910F91FF90EF900895CF92DF92D9
:100AF000EF92FF920F931F93CF93DF931F92CDB787
:100B0000DEB78C016B0188E090E0D80113969C93CE
:100B10008E93129715961C921E9214970E943E1760
:100B2000F80191838083C114D10449F1F601019049
:100B30000020E9F731977F01EC18FD081982AE011A
:100B40004F5F5F4FB701C8010E943C05D8012D914E
:100B50003C9140E050E0BA01C701A0E0B0E0481786
:100B600059076A077B0758F4F60111916F01F901E3
:100B700011939F014F5F5F4F6F4F7F4FF0CF0F90EB
:100B8000DF91CF911F910F91FF90EF90DF90CF9069
:100B90000895FC01808191810C94D317EF92FF920C
:100BA0000F931F93CF93DF937C0100E010E0C0E030
:100BB000D0E0F7012481358180819181C217D3076C
:100BC00040F4800F911F0E94C9052196095F1F4FB5
:100BD000F0CFDF91CF911F910F91FF90EF900C9488
:100BE000D317CF93DF93EC016C817D816F5F7F4FD3
:100BF0008A819B818617970718F4CE010E9406030D
:100C0000E881F9818C819D81E80FF91F108288812C
:100C10009981DF91CF910895AF92BF92CF92DF92E9
:100C2000EF92FF920F931F93CF93DF931F92CDB755
:100C3000DEB78C016B017A01590188E090E0D801A0
:100C400013969C938E93129715961C921E9214974E
:100C50000E943E17F80191838083D60114968D91EE
:100C60009C9115978E159F0510F40E94651B1982A3
:100C7000BC016E197F09A616B70608F4B501AE01CE
:100C80004F5F5F4FC8010E943C05F8018481958148
:100C9000D601ED91FC91EE0EFF1EF801208131810D
:100CA00040E050E0BA01A0E0B0E0481759076A07F9
:100CB0007B0758F4F70111917F01F90111939F010E
:100CC0004F5F5F4F6F4F7F4FF0CF0F90DF91CF910E
:100CD0001F910F91FF90EF90DF90CF90BF90AF905A
:100CE00008952DE332E0FC0121933193CF010C9460
:100CF000C905CF93DF93EC010E947106CE01DF910D
:100D0000CF910C94D317CF92DF92EF92FF920F9373
:100D10001F93CF93DF93EC01162F64E872E081E418
:100D200093E00E94BC0D8A81112351F180648A8373
:100D300087FD6CC061EF70E081E493E00E94D00D0C
:100D40007E0185E1E80EF11CC7010E948F0485E059
:100D500090E00E943E178C01FC01108214821382E5
:100D600089EA9BE09283818385E090E00E943E17B0
:100D7000FC018FEF808389E190E09283818335C00D
:100D80008F7B8A8387FD42C062EE70E081E493E04E
:100D90000E94D00D7E01F5E1EF0EF11CC7010E940B
:100DA0008F048A8185FF32C062ED70E081E493E0B8
:100DB0000E94D00DC7010E948F0485E090E00E9440
:100DC0003E178C01FC011082148213828EEEC82E15
:100DD00082E0D82ED282C18285E090E00E943E1748
:100DE000FC018FEF8083D282C18214830383F98F49
:100DF000E88FFDA3ECA3C701DF91CF911F910F9165
:100E0000FF90EF90DF90CF900C941905DF91CF9178
:100E10001F910F91FF90EF90DF90CF9008950F9367
:100E20001F93CF938C01C42F6CEB70E081E493E0AF
:100E30000E94580C6C2F70E081E493E00E947908C6
:100E4000D8011896ED91FC911997928196FB9927FC
:100E500090F99C1739F06C2FCF01CF911F910F9112
:100E60000C948306CF911F910F9108950F931F93B8
:100E7000CF93DF938091D4029091D502892B09F012
:100E80004FC089E390E00E943E17EC018BE091E0B7
:100E9000998388831A8203E111E01C830B8386E027
:100EA0008D831F821E82198618861B861A861C86D1
:100EB0001D861E861F86198A188A1B8A1A8A1C8A12
:100EC0000E945A081E8B0D8B88E08F8B198E188E0E
:100ED0001B8E1A8E1D8E1C8E1E8E1F8E18A219A29E
:100EE0001BA21AA21DA21CA21EA20E945A0818A789
:100EF0000FA387E089A71BA61AA61DA61CA61FA6DE
:100F00001EA618AA19AA1AAA1BAA1DAA1CAA1FAAB9
:100F10001EAA18AE0E945A08D093D502C093D402DC
:100F20008091D4029091D502DF91CF911F910F91C2
:100F3000089508950895089508950E94651B90915D
:100F40000001981324C0E3E0F1E0E4919FEF909357
:100F50000001E130B9F098F0E230C9F490917000EE
:100F60009D7F9093700091E09093B0009091B100BC
:100F7000987F94609093B1001092B30008C01092D3
:100F80006E0005C090916F009D7F90936F0060E0B0
:100F90000C9433091F920F920FB60F9211242F93C6
:100FA0003F934F935F936F937F938F939F93AF93F1
:100FB000BF93EF93FF938091D9029091DA02A091B1
:100FC000DB02B091DC02892B8A2B8B2B51F18091B3
:100FD000D802E091D602F091D702908189278083D0
:100FE0008091D9029091DA02A091DB02B091DC02EB
:100FF000181619061A061B06C4F48091D90290919E
:10100000DA02A091DB02B091DC020197A109B109DB
:101010008093D9029093DA02A093DB02B093DC02B2
:1010200004C0809100010E949F07FF91EF91BF9142
:10103000AF919F918F917F916F915F914F913F9170
:101040002F910F900FBE0F901F901895CF92DF92A7
:10105000EF92FF92CF93DF936C01990FEE08FF0898
:10106000F7FE1BC06DE281E493E00E94510CEC019D
:1010700044275527BA014C195D096E097F092AE0FA
:1010800081E493E00E94910C8C0F9D1FDF91CF9122
:10109000FF90EF90DF90CF9008952AE0B701A6016E
:1010A00081E493E0DF91CF91FF90EF90DF90CF90BC
:1010B0000C94910C90E0FC01EE56FE4F2491FC0143
:1010C000E258FE4F8491882399F090E0880F991F91
:1010D000FC01EC58FE4FA591B491FC01E659FE4F7E
:1010E000859194918FB7F894EC91E22BEC938FBF9C
:1010F0000895CF92DF92EF92FF920F931F93CF93B9
:10110000DF938C016B01770FEE08FF08F7FE12C02A
:101110006DE20E94510CEC0144275527BA014C198D
:101120005D096E097F092AE0C8010E94910CC80F71
:10113000D91F06C02AE0B701A6010E94910CEC015C
:101140006BE972E0C8010E947C0C8C0F9D1FDF913F
:10115000CF911F910F91FF90EF90DF90CF90089566
:10116000CF92DF92EF92FF920F931F93CF93DF9373
:10117000EC019A8192FD48C094609A8397FD36C035
:101180006E0183E0C80ED11CC6010E948F0485E069
:1011900090E00E943E177C01FC01108214821382B1
:1011A0008CE79BE09283818385E090E00E943E176C
:1011B0008C018FEFF801808384E190E0928381833A
:1011C000F482E38285E090E00E943E17FC0183E018
:1011D000808388E290E09283818314830383FF837A
:1011E000EE83FB8BEA8BC6010E9419056DE571E069
:1011F00081E493E0DF91CF911F910F91FF90EF90E9
:10120000DF90CF900C94D00DDF91CF911F910F9173
:10121000FF90EF90DF90CF900895CF93DF93C09130
:101220003603D091370380913A0390913B03880FA6
:10123000991F2091360330913703820F931FC817EF
:10124000D90771F089919991DC01ED91FC910680AB
:10125000F781E02D40910E036BEF72E00995E3CF2B
:10126000DF91CF91089590E0FC01E75BFE4F349150
:10127000FC01EE56FE4F2491FC01E258FE4FE49132
:10128000EE2309F43BC0332339F1333091F038F4C5
:101290003130A9F0323001F584B58F7D12C037307E
:1012A00091F03830A1F03430B9F4809180008F7D16
:1012B00003C0809180008F77809380000DC084B53B
:1012C0008F7784BD09C08091B0008F7703C0809173
:1012D000B0008F7D8093B000F0E0EE0FFF1FE65965
:1012E000FE4FA591B4918FB7F894EC91611103C0B2
:1012F00020952E2301C02E2B2C938FBF08953FB72E
:10130000F8948091E3029091E402A091E502B091FB
:10131000E60226B5A89B05C02F3F19F00196A11D36
:10132000B11D3FBFBA2FA92F982F8827820F911D7B
:10133000A11DB11DBC01CD0142E0660F771F881FC2
:10134000991F4A95D1F708952FB7F8946091DF025D
:101350007091E0028091E1029091E2022FBF089526
:10136000CF92DF92EF92FF920F931F93CF93DF9371
:101370006C017A018B01C0E0D0E0CE15DF0589F069
:10138000D8016D918D01D601ED91FC910190F08114
:10139000E02DC6010995892B11F47E0102C021962A
:1013A000ECCFC701DF91CF911F910F91FF90EF908C
:1013B000DF90CF900895089580E090E00895FC01BB
:1013C000538D448D252F30E0842F90E0821B930BAA
:1013D000541710F0CF96089501970895FC01918D50
:1013E000828D981761F0828DDF01A80FB11D5D9687
:1013F0008C91928D9F5F9F73928F90E008958FEFF5
:101400009FEF0895FC01918D828D981731F0828DA8
:10141000E80FF11D858D90E008958FEF9FEF0895FF
:10142000FC01918D228D892F90E0805C9F4F821B63
:1014300091098F739927089581E493E00E94100A1F
:1014400021E0892B09F420E0822F0895FC01848D8E
:10145000DF01A80FB11DA35ABF4F2C91848D90E0DE
:1014600001968F739927848FA689B7892C93A089B9
:10147000B1898C9180648C93938D848D981306C070
:101480000288F389E02D80818F7D80830895EF921B
:10149000FF920F931F93CF93DF93EC0181E0888F2E
:1014A0009B8D8C8D981305C0E889F989808185FD15
:1014B00024C0F62E0B8D10E00F5F1F4F0F73112706
:1014C000E02E8C8DE8120CC00FB607FCFACFE8892D
:1014D000F989808185FFF5CFCE010E94260AF1CFE0
:1014E0008B8DFE01E80FF11DE35AFF4FF0820B8F49
:1014F000EA89FB898081806207C0EE89FF89608369
:10150000E889F98980818064808381E090E0DF91BF
:10151000CF911F910F91FF90EF900895CF93DF939C
:10152000EC01888D8823C9F0EA89FB89808185FDDB
:1015300005C0A889B9898C9186FD0FC00FB607FC3C
:10154000F5CF808185FFF2CFA889B9898C9185FF7D
:10155000EDCFCE010E94260AE7CFDF91CF9108950B
:1015600080E090E0892B29F00E941C0A81110C94E4
:1015700000000895089508950895FC019285915002
:1015800081E0923008F080E00895DC011A962C91F9
:10159000261759F0FC0162870190F081E02D068842
:1015A000F789E02D099581E0089580E0089503967C
:1015B0000895CF93DF93EC0161E086E00E94330948
:1015C00061E088E00E94330961E087E00E9433090E
:1015D0000E94A4096D877E878F87988B82E0DF91B8
:1015E000CF9108950F931F93CF93DF931F92CDB7A1
:1015F000DEB78C01AE014F5F5F4F68EB72E00E9477
:101600007605C8010F90DF91CF911F910F9108953A
:101610000F931F93CF93DF931F92CDB7DEB78C014B
:10162000AE014F5F5F4F6CEB72E00E947605C80120
:101630000F90DF91CF911F910F910895CF93DF937A
:10164000EC018BE792E09983888380916904909103
:101650006A04009739F0DC01ED91FC910280F3817E
:10166000E02D09958A819B81DF91CF910C94D3174E
:10167000CF93DF93EC010E941E0BCE01DF91CF913F
:101680000C94D317AF92BF92CF92DF92EF92FF925A
:101690000F931F93CF93DF93FC0124813581621751
:1016A000730708F56B01EC0187E0869F5001879F67
:1016B000B00C11248B01E12CF12C8C819D81081739
:1016C000190778F4C7018A0D9B1D28813981820F83
:1016D000931F0E94C9050F5F1F4FF7E0EF0EF11C2B
:1016E000ECCFDD82CC82DF91CF911F910F91FF90E3
:1016F000EF90DF90CF90BF90AF9008952F923F92E0
:101700004F925F926F927F928F929F92AF92BF9211
:10171000CF92DF92EF92FF920F931F93CF93DF93BD
:1017200000D01F92CDB7DEB77C017B836A831C019A
:1017300023E0220E311C60E070E0C1010E94420BE8
:10174000EA81FB8180809180EA81FB81248135815F
:10175000F7E0F29FC001F39F900D1124EA81FB8115
:1017600020813181820F931F8816990609F483C066
:10177000F701878190856C01FFEFCF1ADF0A8C1586
:101780009D0508F070C0F701258136812C153D05B7
:10179000F0F5099628173907D0F563807480968391
:1017A000858347E09C01429FC001439F900D112417
:1017B0000E943E17F701948383835301412C512CDF
:1017C000F7018781908548165906F0F4F7012381C7
:1017D0003481C50186199709820F931F009751F034
:1017E0008E010F5F1F4F2FEF3FEF40E050E0B5013C
:1017F0000E940C06C5010E94C905FFEF4F1A5F0A3F
:1018000027E0A20EB11CDCCFC3010E94D317F70161
:10181000A780B084F7E0FA9D2001FB9D500C1124B5
:10182000612C712CF701AC14BD04D0F423813481F8
:10183000C301840D951D820F931F009751F08E01F7
:101840000F5F1F4F2FEF3FEF40E050E0B4010E94C9
:101850000C06FFEFAF1ABF0A27E0620E711CE2CF41
:10186000D086C78204C0B601C1010E94420BF7E0D6
:101870008F0E911C69CF0F900F900F90DF91CF9139
:101880001F910F91FF90EF90DF90CF90BF90AF909E
:101890009F908F907F906F905F904F903F902F9090
:1018A0000895DC01ED91FC910190F081E02D099407
:1018B000EF92FF920F931F93CF93DF938C017B01E5
:1018C000C0E0D0E0F701EC0FFD1F6491662361F0EA
:1018D000D801ED91FC910190F081E02DC8010995AE
:1018E000892B11F02196EECFCE01DF91CF911F9180
:1018F0000F91FF90EF9008956115710579F0FB014C
:1019000001900020E9F73197AF01461B570BDC012E
:10191000ED91FC910280F381E02D099480E090E04C
:1019200008954F925F926F927F92EF92FF920F9382
:101930001F93CF93DF93CDB7DEB7A1970FB6F8947F
:10194000DEBF0FBECDBF7C01FA01CB0119A2223050
:1019500008F42AE08E010F5D1F4F422E512C612C9E
:10196000712CBF01A30192010E94291BF901CA0138
:10197000015011096A3014F4605D01C0695CD8013E
:101980006C93232B242B252B61F7B801C7010E94F0
:101990007C0CA1960FB6F894DEBF0FBECDBFDF91D1
:1019A000CF911F910F91FF90EF907F906F905F907C
:1019B0004F9008954F925F926F927F928F929F9275
:1019C000AF92BF92CF92DF92EF92FF92CF93DF93CD
:1019D000EC016A017B01B22E9A01AB01C701B6018D
:1019E0000E94101B882319F06EEB72E027C02601BD
:1019F0003701E89477F82FEF3FEF4FE75FE7C30138
:101A0000B2010E94101B81110DC02FEF3FEF4FE775
:101A10005FE7C301B2010E94461918161CF462EC7C
:101A200072E00CC02FEF3FEF4FE75FE4C701B60154
:101A30000E949E1A18169CF466EC72E0CE01DF91AB
:101A4000CF91FF90EF90DF90CF90BF90AF909F909D
:101A50008F907F906F905F904F900C947C0C2FEF45
:101A60003FEF4FE75FECC701B6010E94461987FDC3
:101A7000E3CF20E030E0A901C701B6010E9446197A
:101A800087FF0AC06DE2CE010E94510C4C01F7FAAB
:101A9000F094F7F8F09402C0812C912CA12C60E016
:101AA00070E080E09FE3AB1441F020E030E040E2E2
:101AB00051E40E944B19A394F6CF9B01AC01C701DE
:101AC000B6010E94DA182B013C010E94BD196B017E
:101AD0007C010E94EC199B01AC01C301B2010E9480
:101AE000D9182B013C012AE0B701A601CE010E94C2
:101AF000910C7C01E80CF91CBB2031F06EE2CE01A8
:101B00000E94510CE80EF91EDB2CDD2029F120E0AB
:101B100030E040E251E4C301B2010E94A31A2B015C
:101B20003C010E94BD194B01A12CB12C2AE0B5014A
:101B3000A401CE010E94910CE80EF91EC501B4016A
:101B40000E94EC199B01AC01C301B2010E94D9189B
:101B50002B013C01DA94D9CFC701DF91CF91FF90DF
:101B6000EF90DF90CF90BF90AF909F908F907F903D
:101B70006F905F904F9008950F931F93CF93DF93D3
:101B8000EC010E947C0C8C016BE972E0CE010E949A
:101B90007C0C800F911FDF91CF911F910F910895C1
:101BA0000F931F93CF93DF93EC010E94580C8C018D
:101BB0006BE972E0CE010E947C0C800F911FDF91D7
:101BC000CF911F910F9108951F920F920FB60F9210
:101BD00011242F933F934F935F936F937F938F9332
:101BE0009F93AF93BF93EF93FF9381E493E00E94A1
:101BF000260AFF91EF91BF91AF919F918F917F91B5
:101C00006F915F914F913F912F910F900FBE0F9069
:101C10001F9018951F920F920FB60F9211242F93B9
:101C20008F939F93EF93FF93E0915103F0915203B1
:101C30008081E0915703F091580382FD12C090819A
:101C400080915A038F5F8F7320915B03821751F04D
:101C5000E0915A03F0E0EF5BFC4F958F80935A03BD
:101C600001C08081FF91EF919F918F912F910F90F3
:101C70000FBE0F901F90189523E231E0FC013183D5
:101C8000208303960C94CE05CF93DF93EC010E9442
:101C90003C0ECE01DF91CF910C94D317CF93DF93FD
:101CA0008091690490916A04892BC9F489E090E0DD
:101CB0000E943E17EC018BE792E09983888388E0CD
:101CC00090E09D838C831F821E8280E190E00E94C1
:101CD0003E179B838A83D0936A04C09369048091E2
:101CE000690490916A04DF91CF910895EF92FF9279
:101CF0000F931F93CF93DF93EC01E881F981068462
:101D0000F785E02D63E009950E944E0EDC011296E6
:101D10008D919C91139716962D913C911797A9013F
:101D2000440F551F480F591FBC01FB01641775076D
:101D300041F06E5F7F4F008111810C171D07A9F7DD
:101D400002C0E0E0F0E0CD2B31F1E81BF90BAF0170
:101D500055954795C9010197BF016E5F7F4F4817A1
:101D6000590790F41296ED90FC9013974F5F5F4FD8
:101D70008701060F171FE80108811981EE0DFF1D6D
:101D800011830083FB01E8CF8217930720F4179695
:101D90009C938E931697DF91CF911F910F91FF9097
:101DA000EF9008950F931F93CF93DF93EC010E9460
:101DB000A4090D851E852F853889DC01CB01801B88
:101DC000910BA20BB30B853F9140A105B105D0F05B
:101DD00060E086E00E94330960E088E00E943309F9
:101DE00060E087E00E94330985E00E949F070E941F
:101DF00036070E94B008CE01DF91CF911F910F915D
:101E00000C94760EDF91CF911F910F9108951F9240
:101E10000F920FB60F9211242F933F938F939F939E
:101E2000AF93BF938091DF029091E002A091E10215
:101E3000B091E20230916B0423E0230F2D3720F4A0
:101E40000196A11DB11D05C026E8230F0296A11D14
:101E5000B11D20936B048093DF029093E002A09366
:101E6000E102B093E2028091E3029091E402A0913A
:101E7000E502B091E6020196A11DB11D8093E30237
:101E80009093E402A093E502B093E602BF91AF9174
:101E90009F918F913F912F910F900FBE0F901F90A8
:101EA000189508950C94D31702970C94520FCF9263
:101EB000DF92EF92FF92CF93DF93FC0186819781AF
:101EC0006817790709F074C04A30510509F070C0ED
:101ED000FB01C280D380E601D7FC07C0C114F4E047
:101EE000DF062CF0CFEFD3E002C0C0E0D0E062E824
:101EF00070E081E493E00E94580CE12CF12C2AE080
:101F0000B701A60181E493E00E94910C67E770E0BD
:101F100081E493E00E94580CC701B6010E94EE19BB
:101F20002AE534E643E550E40E94A31A20E030ECB1
:101F30004FE754E40E944B1920E030E0A9010E94D1
:101F4000DA18AB01BC0122E081E493E00E94DA0CD4
:101F500068E670E081E493E00E94580CBE01DD0F5A
:101F6000880B990B0E94EE1920E030E044E352E424
:101F70000E94A31A20E030EC4FE754E40E944B1972
:101F800020E030E0A9010E94DA18AB01BC0122E098
:101F900081E493E00E94DA0C61E872E081E493E06E
:101FA000DF91CF91FF90EF90DF90CF900C94BC0D1C
:101FB000DF91CF91FF90EF90DF90CF90089502973F
:101FC0000C94570FCF93DF93CDB7DEB764970FB65E
:101FD000F894DEBF0FBECDBF789484B5826084BD17
:101FE00084B5816084BD85B5826085BD85B581601D
:101FF00085BD80916E00816080936E00109281009B
:102000008091810082608093810080918100816055
:102010008093810080918000816080938000809116
:10202000B10084608093B1008091B00081608093A2
:10203000B00080917A00846080937A0080917A0069
:10204000826080937A0080917A00816080937A0028
:1020500080917A00806880937A001092C10086E0B7
:102060000E945A0888E00E945A0887E00E945A0895
:1020700085E00E945A08E0915103F091520382E0FA
:102080008083E0914D03F0914E031082E0914F0365
:10209000F09150038FEC808310925903E091550327
:1020A000F091560386E08083E0915303F09154034E
:1020B000808180618083E0915303F091540380819B
:1020C00088608083E0915303F0915403808180689D
:1020D0008083E0915303F091540380818F7D80834E
:1020E0006BE371E081E493E00E94D00DE091F50292
:1020F000F091F60222E0EB3FF20709F4B4C030970A
:1021000009F444C083AC94AC5F014FE3A40EB11C4E
:1021100023AD34ADD5014D915C91CA01880F991F53
:10212000820F931F8816990689F1D4018D919C9195
:10213000815F924039F5C401821B930B8C01159588
:102140000795BA01615071097C01B2E0EB0EF11CF8
:102150000617170788F423AD34AD0F5F1F4F6901D1
:10216000CE0CDF1CD601CD90DC90820F931FDC01DA
:10217000CD92DC92C701E8CF6417750718F4D5013A
:102180006D937C93B2E08B0E911CC2CFE0903A032A
:10219000F0903B0387010F5F1F4FE016F10608F038
:1021A00055C0809138039091390380179107A0F5AD
:1021B0009701275F3F4F8217930770F5C090360352
:1021C000D09037033093390320933803C901880F27
:1021D000991F0E943E179093370380933603D601D0
:1021E00040E050E04E155F05A1F0E0913603F0911C
:1021F00037039A01220F331FE20FF31F309729F0A4
:102200008D919C911197918380834F5F5F4F1296C0
:10221000E9CFC6010E94D31780913A0390913B0306
:102220009C01220F331F41EF52E08017910788F481
:10223000E0913603F0913703E20FF31F309711F06E
:102240005183408301962E5F3F4FEFCF0E151F0540
:1022500020F410933B0300933A038BEF92E09093AA
:10226000F6028093F5028091EF029091F002909334
:10227000FA028093F902E091F502F091F6023097AC
:1022800011F082E086870091F7021091F802FE01BA
:1022900031966F0101151105D1F17801F4E1EF0ECE
:1022A000F11CD80158968C915897823081F1811198
:1022B00004C09A961C921E9299970E94A409F80154
:1022C000678F70A381A392A382E0808F81E090E06A
:1022D0009B8B8A8B868997890097C9F0218D328DD7
:1022E000DC01ED91FC910480F581E02D4BE151E0A2
:1022F0005A834983FC82EB82AE014E5E5F4F5E8360
:102300004D8338872F831A861986B60109958091E7
:10231000F9029091FA02009711F00E94B008E09142
:10232000F502F091F6026389E091F902F091FA0268
:10233000928196FB992790F9961719F0CF010E9488
:10234000830682E0809309030E94A4096093E70258
:102350007093E8028093E9029093EA0281E190E0B1
:102360000E943E177C01FC01128288E090E0968377
:1023700085831086178288E390E00E943E17D7017C
:1023800014969C938E9313971A961C921A97809189
:10239000DD029091DE0201969093DE028093DD02D1
:1023A0001C969C938E931B978FE391E08D939C9347
:1023B000F701158616861786108A66E271E081E4B9
:1023C00093E00E94580C61E271E081E493E00E9486
:1023D000580CD701ED91FC910480F581E02DB701F7
:1023E000C6010995C6010E94F105BC0181E493E094
:1023F0000E947C0CC6010E94C9056CE171E081E479
:1024000093E00E94580CF7014385548560E070E02A
:102410002AE081E493E00E94910C63E171E081E4A1
:1024200093E00E94580CD70112964C9150E060E066
:1024300070E02AE081E493E00E94910C69E071E091
:1024400081E493E00E94580CD701ED91FC91008447
:10245000F185E02DC70109955C01FC0124813581DE
:10246000388B2F87285F3F4F3E872D8787E0F82FD7
:10247000F29FC001F39F900D11240E943E179C878C
:102480008B87812C912C612C712C8F8598896816F3
:102490007906C8F4D5016D917C91680D791D8B8505
:1024A0009C85880D991D009739F086012FEF3FEF2D
:1024B00040E050E00E940C06BFEF6B1A7B0AE7E099
:1024C0008E0E911CE2CFAB84BC84A7E09A2E2F85A0
:1024D0003889929EC001939E900D11242B853C85D6
:1024E000820F931FA816B90679F18E010C5E1F4F5B
:1024F0002FEF3FEF40E050E0B501C6010E940C060F
:10250000C6010E94F105BC0181E493E00E947C0CAD
:10251000C6010E94C9052F853889929EC001939EED
:10252000900D112407972B853C85820F931FA816C9
:10253000B90631F066E071E081E493E00E94580C46
:10254000F7E0AF0EB11CC3CF64E071E081E493E02B
:102550000E94D00DCE010B960E94CE05D701ED91C1
:10256000FC910684F785E02D61E0C7010995D7014C
:10257000ED91FC910088F189E02DC7010995823029
:1025800009F074C00E944E0E8C01E114F10409F4AC
:102590007EC0FC01868097805401FFEFAF1ABF0A0E
:1025A0008A149B0408F059C0DC0114962D913C91CB
:1025B00015972A153B0598F5C40109962817390780
:1025C00070F512966C90129713967C90139715964F
:1025D0009C938E931497880F991F0E943E17F801C1
:1025E00093838283D30140E050E048155905A1F060
:1025F000F801828193819A01220F331FFC01E20FBF
:10260000F31F309729F08D919C91119791838083CE
:102610004F5F5F4F1296E9CFC3010E94D317D801D5
:1026200016968D919C9117979C01220F331F8A1546
:102630009B0578F4D8011296ED91FC911397E20F67
:10264000F31F309711F0F182E08201962E5F3F4F29
:10265000EECFF801B782A6821AC0A814B904B8F464
:10266000DC011796BC92AE92169711C0D701ED917E
:10267000FC91813031F40288F389E02DC70109957E
:1026800006C00488F589E02D63E0C70109956FE273
:1026900071E081E493E00E94580C80916C04909169
:1026A0006D04B601681B790B81E493E00E94790800
:1026B0003324339480910903823009F078C00E945A
:1026C000A40900910A0310910B0320910C0330918F
:1026D0000D03AB01BC01401B510B620B730B8091CE
:1026E000FF0290910003A0E0B0E0481759076A0785
:1026F0007B0708F45CC02091330330913403F90167
:10270000EE0FFF1FED5EFC4F8091110390911203BD
:1027100040815181841B950B909312038093110388
:102720008091FD028E3008F08E5087708064809317
:102730007C0080917A00806480937A0080917A0096
:1027400086FDFCCF8091780040917900220F331FE5
:10275000F901ED5EFC4F90E0942B918380832091F2
:10276000330330913403F901EE0FFF1FED5EFC4F90
:10277000408151818091110390911203840F951F24
:1027800090931203809311032F5F3F4F30933403D4
:1027900020933303509135034091FE02513009F4E8
:1027A000C2C0B90150E02417350708F0BFC000913E
:1027B000EF021091F002C80103960E949B04C80129
:1027C00045960E949B04C80187960E949B04E09056
:1027D000ED02F090EE0281E493E00E94100A1816D8
:1027E00019060CF05CC081E493E00E94EE098A3087
:1027F00011F08D30F1F5F70186819781892B09F46D
:1028000047C08E01055F1F4F2FEF3FEF40E050E0C4
:10281000B7016E5F7F4FC6010E940C066EE371E048
:1028200081E493E00E94580CC6010E94F105BC01AE
:1028300081E493E00E94BC0DC6010E94C905D70146
:1028400016964D915C91179760E070E02AE081E464
:1028500093E00E94910C6BE972E081E493E00E94A6
:102860007C0CF70186819781892B91F01782168263
:102870000FC08C8BD70116966D917C9117976F5F67
:102880007F4FAE014C5E5F4FC70102960E943C0530
:10289000F70186819781419710F0178216820E9476
:1028A0007F094B015C012AE0422E512C612C712CD6
:1028B0000E947F09DC01CB0188199909AA09BB098B
:1028C000883E9340A105B10558F0F1E04F1A510838
:1028D0006108710828EE820E23E0921EA11CB11C33
:1028E000411451046104710419F7E091EB02F09175
:1028F000EC02E280F38006811781000F111F0E0D9C
:102900001F1DE016F10661F0D7018D919D917D01AB
:10291000DC01ED91FC910484F585E02D0995F1CF62
:102920000E94B00AC7CE642F70E03CCF0E94151BF6
:102930008B01005F1F4F10923403109233033092CB
:1029400035030E94A40960930A0370930B038093DC
:102950000C0390930D03E0900F03F09010030E15FD
:102960001F0509F424CF1093100300930F03009167
:1029700036031091370380913A0390913B03880FFF
:10298000991F2091360330913703820F931F081748
:10299000190779F0F801819191918F01DC01ED9196
:1029A000FC910480F581E02DA7016BEF72E00995A1
:1029B000E2CF40910E0320910F03309110038091DC
:1029C000050390910603442361F040910703509161
:1029D0000803840F951F8217930750F410920E037B
:1029E00005C08217930720F030920E030E940D0954
:1029F00060910E0370E081E493E00E947908D7CEE5
:102A00008BEF92E00E944F0280EE93E00E948B02D7
:102A10008EE094E00E94D90288E394E00E94C90508
:102A20008FE394E00E94C90586E494E00E94C90502
:102A30008DE494E00E94C90584E594E00E94C905F4
:102A40008BE594E00E94C90582E694E00C94C905E8
:102A5000FF920F931F93CF93DF931F92CDB7DEB7F3
:102A600001E413E0109244031092430388EE93E0D4
:102A7000A0E0B0E08093450390934603A093470302
:102A8000B093480383E891E090934203809341031D
:102A900085EC90E090934E0380934D0384EC90E09E
:102AA0009093500380934F0380EC90E090935203F7
:102AB0008093510381EC90E09093540380935303EF
:102AC00082EC90E0909356038093550386EC90E05F
:102AD000909358038093570310925A0310925B030C
:102AE00010925C0310925D03AE014F5F5F4F6EE981
:102AF00072E082E694E00E947605AE014F5F5F4F80
:102B000061EA72E08BE594E00E947605AE014F5FCA
:102B10005F4F64EA72E084E594E00E947605AE01BE
:102B20004F5F5F4F69EA72E08DE494E00E947605A2
:102B3000AE014F5F5F4F6DEA72E086E494E00E9461
:102B40007605AE014F5F5F4F61EB72E08FE394E07B
:102B50000E947605AE014F5F5F4F65EB72E088E340
:102B600094E00E947605E1E2F0E0F0932604E09321
:102B7000250410922704109228041092290446E09C
:102B800050E060E070E040932A0450932B0460937F
:102B90002C0470932D0410922E0410922F04109286
:102BA00030041092310420E2209332041092340455
:102BB000109233041092370480E194E0909336042D
:102BC0008093350483E292E090930F0480930E0487
:102BD0008DE292E0909323048093220410921404D7
:102BE00010921304109216041092150410921804F7
:102BF0001092170410921A041092190410921C04D7
:102C000010921B0410921E0410921D0481E092E0A9
:102C100090931104809310041093210400932004D6
:102C200030E1F32EF0921F04F093FC03E093FB03DA
:102C30001092FD031092FE031092FF0340930004D4
:102C400050930104609302047093030410920404EF
:102C500010920504109206041092070420930804B1
:102C600010920A041092090410920D041092E203CB
:102C70001092E3031092E4031092E50326EE33E092
:102C800030930C0420930B042BEA31E03093E103E2
:102C90002093E00325EB31E03093F9032093F80310
:102CA0001092EA031092E9031092EC031092EB03E6
:102CB0001092EE031092ED031092F0031092EF03C6
:102CC0001092F2031092F1031092F4031092F303A6
:102CD0009093E7038093E6031093F7030093F603C2
:102CE00088E08093F5031092400310923F03109305
:102CF0003E0300933D0362E172E08AE292E00E94AB
:102D00006B189093400380933F0385E492E0909387
:102D1000FC028093FB028EE08093FD02F092FE02A3
:102D200080E094E0909300038093FF028FE493E0AF
:102D300090930203809301038FEF93E09093040339
:102D40008093030386E493E0909306038093050346
:102D500083E090E0909308038093070310920903A7
:102D600010920A0310920B0310920C0310920D03A1
:102D700010920E031092100310920F031092120380
:102D80001092110310923403109233031092350302
:102D900088E090E0909339038093380310923B03CE
:102DA00010923A0380E190E00E943E17909337031F
:102DB00080933603E3E1F3E01192119283E0E33371
:102DC000F807D1F783E692E09093F2028093F10244
:102DD00081E792E09093F4028093F3021092F6025E
:102DE0001092F5021092F8021092F7021092FA0275
:102DF0001092F9020E9436079093F0028093EF023E
:102E00008091DE039091DF03892BC9F489E090E083
:102E10000E943E178C018DE392E0F801918380833C
:102E200088E090E095838483178216820E943E1783
:102E3000F801938382831093DF030093DE03809174
:102E4000DE039091DF039093EE028093ED020E94E7
:102E50004E0E9093EC028093EB020E94A4096093C3
:102E6000E7027093E8028093E9029093EA020F90E0
:102E7000DF91CF911F910F91FF900895CF93DF9332
:102E80008230910510F482E090E0E0916E04F091C0
:102E90006F0420E030E0C0E0D0E0309711F14081D5
:102EA000518148175907C0F04817590761F48281CA
:102EB0009381209719F09B838A832BC090936F0492
:102EC00080936E0426C02115310519F0421753076F
:102ED00018F49A01BE01DF01EF010280F381E02DB9
:102EE000DCCF2115310509F1281B390B24303105C0
:102EF00090F412968D919C9113976115710521F0B4
:102F0000FB019383828304C090936F0480936E04CB
:102F1000FD01329644C0FD01E20FF31F81939193AE
:102F2000225031092D933C933AC020916C0430918A
:102F30006D04232B41F4209103013091040130935F
:102F40006D0420936C042091010130910201211540
:102F5000310541F42DB73EB740910501509106016E
:102F6000241B350BE0916C04F0916D04E217F3071C
:102F7000A0F42E1B3F0B2817390778F0AC014E5FE9
:102F80005F4F2417350748F04E0F5F1F50936D04B5
:102F900040936C048193919302C0E0E0F0E0CF0194
:102FA000DF91CF9108950F931F93CF93DF930097F5
:102FB00009F48CC0FC0132971382128200916E04D6
:102FC00010916F040115110581F420813181820F68
:102FD000931F20916C0430916D042817390779F5FF
:102FE000F0936D04E0936C0471C0D80140E050E0B0
:102FF000AE17BF0750F412962D913C911397AD0177
:103000002115310509F1D901F3CF9D01DA0133838F
:10301000228360817181860F971F8217930769F45D
:10302000EC0128813981260F371F2E5F3F4F3183F6
:1030300020838A819B8193838283452B29F4F0939B
:103040006F04E0936E0442C01396FC93EE931297C4
:10305000ED01499159919E01240F351FE217F307A5
:1030600071F480819181840F951F029611969C9333
:103070008E938281938113969C938E931297E0E0B6
:10308000F0E0D80112968D919C911397009719F05A
:10309000F8018C01F6CF8D919C9198012E5F3F4FE6
:1030A000820F931F20916C0430916D04281739070B
:1030B00069F4309729F410926F0410926E0402C0E4
:1030C0001382128210936D0400936C04DF91CF91F0
:1030D0001F910F9108950F931F93CF93DF93009744
:1030E00031F46115710519F480E090E03AC08B016C
:1030F000EC016EE070E081E090E00E94B618FC0107
:10310000892B91F380E883830115110571F01387F2
:10311000028781E883838091700490917104892BE8
:1031200021F4F0937104E09370042097C9F0D187E3
:10313000C08783818260838380917204909173043D
:10314000892B71F4F0937304E093720480917404FA
:1031500090917504892B21F4F0937504E093740425
:10316000CF01DF91CF911F910F9108950F931F937E
:10317000CF93DF93869F8001879F100D969F100D40
:103180001124C8010E943E17EC01009729F0A80104
:1031900060E070E00E94D218CE01DF91CF911F91C4
:1031A0000F910895DC0101C06D9341505040E0F74C
:1031B00008955058BB27AA270E94F1180C94641A4E
:1031C0000E94561A38F00E945D1A20F039F49F3F91
:1031D00019F426F40C94531A0EF4E095E7FB0C94C2
:1031E0004D1AE92F0E94751A58F3BA176207730730
:1031F0008407950720F079F4A6F50C94971A0EF43D
:10320000E0950B2EBA2FA02D0B01B90190010C01F6
:10321000CA01A0011124FF27591B99F0593F50F40E
:10322000503E68F11A16F040A22F232F342F442766
:10323000585FF3CF469537952795A795F04053955E
:10324000C9F77EF41F16BA0B620B730B840BBAF02E
:103250009150A1F0FF0FBB1F661F771F881FC2F799
:103260000EC0BA0F621F731F841F48F487957795AD
:103270006795B795F7959E3F08F0B0CF9395880F67
:1032800008F09927EE0F9795879508950E94291ABF
:1032900008F481E008950E945F190C94641A0E945A
:1032A0005D1A58F00E94561A40F029F45F3F29F049
:1032B0000C944D1A51110C94981A0C94531A0E94A4
:1032C000751A68F39923B1F3552391F3951B550BA8
:1032D000BB27AA2762177307840738F09F5F5F4FE9
:1032E000220F331F441FAA1FA9F335D00E2E3AF028
:1032F000E0E832D091505040E695001CCAF72BD040
:10330000FE2F29D0660F771F881FBB1F2617370790
:103310004807AB07B0E809F0BB0B802DBF01FF27C2
:1033200093585F4F3AF09E3F510578F00C944D1A38
:103330000C94981A5F3FE4F3983ED4F38695779502
:103340006795B795F7959F5FC9F7880F911D96957B
:10335000879597F90895E1E0660F771F881FBB1FD7
:10336000621773078407BA0720F0621B730B840B84
:10337000BA0BEE1F88F7E09508950E947D1A88F039
:103380009F5798F0B92F9927B751B0F0E1F0660F29
:10339000771F881F991F1AF0BA95C9F714C0B1306A
:1033A00091F00E94971AB1E008950C94971A672F34
:1033B000782F8827B85F39F0B93FCCF38695779599
:1033C0006795B395D9F73EF4909580957095619582
:1033D0007F4F8F4F9F4F0895E89409C097FB3EF4AD
:1033E00090958095709561957F4F8F4F9F4F992352
:1033F000A9F0F92F96E9BB279395F69587957795D0
:103400006795B795F111F8CFFAF4BB0F11F460FF8F
:103410001BC06F5F7F4F8F4F9F4F16C0882311F0E7
:1034200096E911C0772321F09EE8872F762F05C0FB
:10343000662371F096E8862F70E060E02AF09A9596
:10344000660F771F881FDAF7880F9695879597F98B
:103450000895990F0008550FAA0BE0E8FEEF161625
:103460001706E807F907C0F012161306E407F50778
:1034700098F0621B730B840B950B39F40A2661F0EC
:10348000232B242B252B21F408950A2609F4A1408F
:10349000A6958FEF811D811D089597F99F6780E89C
:1034A00070E060E008959FEF80EC089500240A9496
:1034B0001616170618060906089500240A9412160F
:1034C0001306140605060895092E0394000C11F442
:1034D000882352F0BB0F40F4BF2B11F460FF04C0EF
:1034E0006F5F7F4F8F4F9F4F089557FD9058440F48
:1034F000551F59F05F3F71F04795880F97FB991F53
:1035000061F09F3F79F0879508951216130614060F
:10351000551FF2CF4695F1DF08C01616170618069C
:10352000991FF1CF86957105610508940895E89477
:10353000BB2766277727CB0197F908950E94291AA0
:1035400008F48FEF08950E94B61A0C94641A0E9432
:10355000561A38F00E945D1A20F0952311F00C9451
:103560004D1A0C94531A11240C94981A0E94751A2F
:1035700070F3959FC1F3950F50E0551F629FF001C6
:10358000729FBB27F00DB11D639FAA27F00DB11DDF
:10359000AA1F649F6627B00DA11D661F829F222768
:1035A000B00DA11D621F739FB00DA11D621F839FEF
:1035B000A00D611D221F749F3327A00D611D231FC5
:1035C000849F600D211D822F762F6A2F11249F5713
:1035D00050409AF0F1F088234AF0EE0FFF1FBB1F16
:1035E000661F771F881F91505040A9F79E3F5105D5
:1035F00080F00C944D1A0C94981A5F3FE4F3983EB7
:10360000D4F3869577956795B795F795E7959F5F7E
:10361000C1F7FE2B880F911D9695879597F9089510
:103620000E94291A880B990B089597FB072E16F410
:10363000009407D077FD09D00E944B1B07FC05D0F2
:103640003EF4909581959F4F0895709561957F4FB9
:103650000895A1E21A2EAA1BBB1BFD010DC0AA1FD3
:10366000BB1FEE1FFF1FA217B307E407F50720F0EB
:10367000A21BB30BE40BF50B661F771F881F991F66
:103680001A9469F760957095809590959B01AC01AF
:10369000BD01CF010895AA1BBB1B51E107C0AA1FA2
:1036A000BB1FA617B70710F0A61BB70B881F991FE3
:1036B0005A95A9F780959095BC01CD010895EE0F1C
:1036C000FF1F0590F491E02D099481E090E0F894BB
:1036D0000C946A1B10E0C4EDD0E004C0FE010E940F
:0E36E0005F1B2196C53DD107C9F7F894FFCFB7
:1036EE00FF0000760480000000000000016602006A
:1036FE00000000FF006402000000008E045802006B
:10370E0000000000000000080B7E0BD70ABD0ABCAB
:10371E000AC50A9D07760EBB0ABA0A000000003CD5
:10372E000E440EF20A7E0BD70ABD0AD20EC50AD976
:10373E000A760EBB0ABA0A1800000000000000004C
:10374E0000E8FFE8FF000000000000140000000089
:10375E000000000000ECFFECFF0000000000000085
:10376E00000000470AB009DF098E0A100AEE0902AE
:10377E000A0600000000006A026C02FAFFFAFF005F
:10378E00006B026E021800000000008B02A202E81D
:10379E00FFE8FF00009802AC02AB015D016701B5C6
:1037AE0001000000009907680211020E020B0208C8
:1037BE000205027C01780175015F017F01030101A1
:1037CE0001020000000000B802BA02FEFFFEFF0078
:1037DE0000B902BC02000000009B070403000000B9
:1037EE00009A07B60211020E020B0208020502F938
:1037FE0001B3019A0181017F01B9039803140000FE
:10380E00000000D902F002ECFFECFF0000E602FA25
:10381E0002230271017B012D020000000071067966
:10382E0006000000004F025A0200000000000000D7
:10383E00009D079D0700000000000000009D07008E
:10384E000000009C07520F0C040F07570FFEFF00DD
:10385E0000510F540FDF0F000000001E0B380B2518
:10386E00006B560020736574426174746572794CF6
:10387E006F77456E61626C656420000D0A004254DC
:10388E0000485600534554530053455400544C536E
:10389E000054425A00415400535550003F006E618F
:0A38AE006E00696E66006F7666001A
:00000001FF
