:100000000C945F000C9487000C9487000C9487007C
:100010000C9487000C9487000C9487000C94520871
:100020000C9487000C9487000C9487000C94870034
:100030000C9487000C9487000C94A2050C94870004
:100040000C94DD070C9487000C9404090C94DE08D2
:100050000C9487000C9487000C9487000C94870004
:100060000C9487000C948700020000000800020135
:100070000000030407000000000000000000000072
:1000800000250028002B0000000000240027002A83
:100090000004040404040404040202020202020331
:1000A000030303030301020408102040800102043B
:1000B00008102001020408102000F20D1011112474
:1000C0001FBECFEFD8E0DEBFCDBF13E0A0E0B1E0B0
:1000D000E2E6FAE202C005900D92A033B107D9F72B
:1000E00024E0A0E3B3E001C01D92AF3DB207E1F709
:1000F00010E0CEE5D0E004C02197FE010E94191562
:10010000CD35D107C9F70E943A0C0C9424150C94F4
:10011000000008950F931F93CF93DF93EC0108AD78
:1001200019AD2CAD3DAD220F331F88AD99AD280F11
:10013000391F0217130771F0D8018D919D918D0120
:10014000DC01ED91FC910680F781E02D4FA9BE0105
:100150000995E7CFDF91CF911F910F9108950F93EC
:100160001F93CF93DF93CDB7DEB72C970FB6F894DC
:10017000DEBF0FBECDBFFC017C876B878281938180
:100180000097E9F0DF0125813681FC014081518132
:10019000FA01048115814BE051E05A834983BC8305
:1001A000AB83AE01455F5F4F5E834D8338872F83FE
:1001B0001A861986BE016F5F7F4FF80109952C964C
:1001C0000FB6F894DEBF0FBECDBFDF91CF911F9168
:1001D0000F910895CB0108957F928F929F92AF92D5
:1001E000BF92CF92DF92EF92FF920F931F93CF9324
:1001F000DF93EC0149015A018B01C12CD12C76010E
:10020000C814D904EA04FB0484F5F80171908F0145
:100210008F8580FF0BC0E881F9810084F185E02D96
:1002200020E144E060E070E0CE010995EB85FC85BB
:100230008D859E85E817F90738F470828B859C853B
:1002400001969C878B870BC0E881F981672D70E050
:10025000028CF38DE02DCE010995019649F02FEF28
:10026000C21AD20AE20AF20ACBCFB401C50102C017
:10027000B601C701DF91CF911F910F91FF90EF90D1
:10028000DF90CF90BF90AF909F908F907F90089518
:10029000CF93DF93EC01E881F9810288F389E02DA7
:1002A00009958F3F2FEF920731F02D813E812F5F0F
:1002B0003F4F3E832D83DF91CF9108958FEF9FEFC6
:1002C000089560E070E0CB01089580E090E008952B
:1002D000CB010895CF93DF93EC0188899989DC01E4
:1002E000ED91FC910084F185E02D0995892BA9F30E
:1002F00088899989DC01ED91FC910284F385E02DD8
:10030000DF91CF910994CF93DF93EC01888999898C
:10031000DC01ED91FC910084F185E02D0995892B9C
:10032000A9F388899989DC01ED91FC910484F58514
:10033000E02DDF91CF910994AF92BF92CF92DF92DF
:10034000EF92FF920F931F93CF93DF9300D000D0D3
:10035000CDB7DEB78C015B01C12CD12C7601F80141
:1003600080899189DC01ED91FC910284F385E02D77
:1003700029833A834B835C83099529813A814B8198
:100380005C818F3F71F0C216D306E406F5064CF48B
:10039000D5018D935D01BFEFCB1ADB0AEB0AFB0A97
:1003A000DECFC701B6010F900F900F900F90DF9135
:1003B000CF911F910F91FF90EF90DF90CF90BF9062
:1003C000AF900895DC0150968D919C915197DC017E
:1003D000ED91FC910084F185E02D099480E090E09E
:1003E000089580E090E0089580E090E0089580E036
:1003F00090E008950895CF93DF93C091DE03D091EC
:10040000DF03E881F9810084F185E02DCE010995B3
:10041000892BB9F3E881F9810284F385E02DCE01BF
:10042000DF91CF9109941F93CF93DF93182FC09141
:10043000DE03D091DF038A3041F4E881F981019035
:10044000F081E02D6DE0CE010995E881F981019000
:10045000F081E02D612FCE01099521E030E0019778
:1004600011F420E030E0C901DF91CF911F91089590
:100470002BE032E0FC013183208380AD91AD0C9400
:100480001C12CF93DF93EC010E943802CE01DF9162
:10049000CF910C941C120C941C120C941C120C94F2
:1004A0001C120C941C12089508950C941C12DC016B
:1004B000ED91FC91369720813181820F931F0C942E
:1004C0005502FB0120813181FC0131832083FB0136
:1004D00042815381F901369720813181FC01E20F7D
:1004E000F31F5183408308952BE631E0FC013183F3
:1004F000208325E731E0318F208F6BE771E00C948A
:100500006102DC01ED91FC91369720813181820FEF
:10051000931F0C947402CF93DF93EC010E9474023A
:10052000CE01DF91CF910C941C12DC01ED91FC9176
:10053000369720813181820F931F0C948B020C948B
:100540001C12089508950C941C12DC01ED91FC918D
:10055000369720813181820F931F0C94A302FB01F7
:1005600020813181FC0131832083FB014281538151
:10057000F901369720813181FC01E20FF31F51838D
:100580004083089523EE31E0FC01318320832DEE7A
:1005900031E0358B248B63EF71E00C94AF02DC010A
:1005A000ED91FC91369720813181820F931F0C943D
:1005B000C202CF93DF93EC010E94C202CE01DF9111
:1005C000CF910C941C12DC01ED91FC9136972081A7
:1005D0003181820F931F0C94D9020C941C120F933B
:1005E0001F93CF93DF938C01EB016F3F8FEF780761
:1005F00019F480E090E00FC06A3031F46DE0F8014A
:10060000808991890E94AE086C2FF80180899189B8
:100610000E94AE08CE01DF91CF911F910F910895F6
:100620008F929F92BF92CF92DF92EF92FF920F93A1
:100630001F93CF93DF9300D000D0CDB7DEB78C01EE
:100640004B01C12CD12C7601C216D306E406F50667
:1006500044F5F401B1904F01FAE0BF120EC06DE015
:10066000F8018089918929833A834B835C830E94B6
:10067000AE085C814B813A8129816B2DF80180891C
:10068000918929833A834B835C830E94AE08FFEFF4
:10069000CF1ADF0AEF0AFF0A5C814B813A81298178
:1006A000D3CFCA01B9010F900F900F900F90DF9137
:1006B000CF911F910F91FF90EF90DF90CF90BF905F
:1006C0009F908F900895CF92DF92EF92FF920F93B9
:1006D0001F93CF93DF93FB01E5A0F6A0C58DD68DC8
:1006E000038D148D68010E151F050CF467016FE86A
:1006F00072E08EE094E00E94B508C7010E94110AE2
:100700006FE972E08EE094E00E94B508B70180E0E6
:1007100090E00E94D01325EE30ED42E750E40E94B5
:10072000851420E030EC4FE754E40E942D1320E0C4
:1007300030E0A9010E94BC1242E00E94410A6AEA2C
:1007400072E08EE094E00E94B508B601CC15DD059C
:100750000CF4BE01601B710B072E000C880B990B6B
:100760000E94D01320E030E048EC52E40E9485144F
:100770006B017C01C01BD10BBE01DD0F880B990BF7
:100780000E94D0139B01AC01C701B6010E942D133A
:1007900020E030E0A9010E94BC120E949F13862F26
:1007A00090E00E94110A69EB72E08EE094E0DF9124
:1007B000CF911F910F91FF90EF90DF90CF900C940D
:1007C000CA0808958F929F92AF92BF92CF92DF9204
:1007D000EF92FF920F931F93CF93DF93EC010E9450
:1007E000D1072C853D856901E12CF12C08851985FF
:1007F0002A853B8546015701801A910AA20AB30A4D
:10080000DC01CB01880D991DAA1DBB1DE889F98962
:100810004181528160E070E084179507A607B70711
:1008200008F44BC01D861C860E94D1076887798713
:100830008A879B87E889F9890380F481E02D3097C6
:1008400019F0F98BE88B14C08E819F8101969F83EC
:100850008E83EE85FF858F3F2FEF920729F02C8145
:100860003D8182179307ACF4F98BE88B309729F11F
:10087000608170E08A81DF91CF911F910F91FF908D
:10088000EF90DF90CF90BF90AF909F908F900C949F
:1008900073071B82F98BE88B1D861C868A81DF918A
:1008A000CF911F910F91FF90EF90DF90CF90BF906D
:1008B000AF909F908F900C942708DF91CF911F915C
:1008C0000F91FF90EF90DF90CF90BF90AF909F90EF
:1008D0008F900895CF93DF93EC018E859F85892BB0
:1008E00039F08B81811104C01D861C861F821E82F7
:1008F0000E94D107688779878A879B8782E08B83EC
:10090000E889F989309739F0608170E08A81DF9158
:10091000CF910C947307DF91CF9108950F931F939C
:10092000CF93DF931F92CDB7DEB78C016DED72E0F0
:100930008EE094E049830E94B5084981642F70E0FD
:1009400080E090E04AE00E94CE0963EF72E08EE022
:1009500094E00E94B508F8018085918544960F9037
:10096000DF91CF911F910F910C946A04089508951F
:10097000CF92DF92EF92FF920F931F93CF93DF936B
:10098000EC010E94D1070F85188929893A89CB8407
:10099000DC84ED84FE840C191D092E093F09DC015D
:1009A000CB01800F911FA21FB31F0F8118852985CE
:1009B0003A8580179107A207B30748F18D899E8970
:1009C00001969E8B8D8B64E070E0CE010E94AF009B
:1009D0008B899C89009789F02D893E89821793071E
:1009E00061F41C821F86188A198A1A8A1E8A1D8A37
:1009F00062E070E0CE010E94AF000E94D1076B87D9
:100A00007C878D879E871F86188A198A1A8ADF91AC
:100A1000CF911F910F91FF90EF90DF90CF900895AD
:100A2000CF93DF93EC018C81823099F0811102C069
:100A30001E8A1D8A0E94D1076B877C878D879E87BF
:100A400082E08C8361E070E0CE01DF91CF910C9465
:100A5000AF00DF91CF910895CF92DF92EF92FF9296
:100A60000F931F93CF93DF93DB011496ED91FC91CD
:100A70001597208131812430310559F48396DF9117
:100A8000CF911F910F91FF90EF90DF90CF900C943A
:100A900039092230310509F049C0EC010DA11EA130
:100AA0008DA99EA908171907A9F12FA98F8D98A1C3
:100AB00021110AC029A13AA1820F931F8017910723
:100AC00050F481E08FAB04C08017910720F01FAA7B
:100AD000CE010E948A00EDA8FEA8C8ACD9AC8CADAE
:100AE0009DAD880F991F28AD39AD820F931FC81691
:100AF000D90671F0F601819191916F01DC01ED91C0
:100B0000FC910480F581E02DA701BE010995E7CF96
:100B10001EAB0DABCE010296DF91CF911F910F91CD
:100B2000FF90EF90DF90CF900C941005DF91CF9164
:100B30001F910F91FF90EF90DF90CF90089508954F
:100B4000089508951F920F920FB60F9211240F90DF
:100B50000FBE0F901F90189508953FB7F89480919D
:100B60003C0390913D03A0913E03B0913F0326B515
:100B7000A89B05C02F3F19F00196A11DB11D3FBFD5
:100B8000BA2FA92F982F8827820F911DA11DB11D63
:100B9000BC01CD0142E0660F771F881F991F4A955F
:100BA000D1F70895CF92DF92EF92FF920F931F93A8
:100BB000CF93DF936C017A018B01C0E0D0E0CE15BA
:100BC000DF0589F0D8016D918D01D601ED91FC9181
:100BD0000190F081E02DC6010995892B11F47E0169
:100BE00002C02196ECCFC701DF91CF911F910F91E9
:100BF000FF90EF90DF90CF900895089580E090E00F
:100C00000895FC01538D448D252F30E0842F90E012
:100C1000821B930B541710F0CF96089501970895F7
:100C2000FC01918D828D981761F0828DDF01A80FF4
:100C3000B11D5D968C91928D9F5F9F73928F90E016
:100C400008958FEF9FEF0895FC01918D828D981785
:100C500031F0828DE80FF11D858D90E008958FEFC2
:100C60009FEF0895FC01918D228D892F90E0805C8B
:100C70009F4F821B91098F73992708958EE094E00E
:100C80000E94320621E0892B09F420E0822F08958A
:100C9000FC01848DDF01A80FB11DA35ABF4F2C9119
:100CA000848D90E001968F739927848FA689B789E8
:100CB0002C93A089B1898C9180648C93938D848DC1
:100CC000981306C00288F389E02D80818F7D808390
:100CD0000895EF92FF920F931F93CF93DF93EC0150
:100CE00081E0888F9B8D8C8D981305C0E889F989E8
:100CF000808185FD24C0F62E0B8D10E00F5F1F4F05
:100D00000F731127E02E8C8DE8120CC00FB607FC74
:100D1000FACFE889F989808185FFF5CFCE010E945D
:100D20004806F1CF8B8DFE01E80FF11DE35AFF4F0E
:100D3000F0820B8FEA89FB898081806207C0EE898F
:100D4000FF896083E889F98980818064808381E0FC
:100D500090E0DF91CF911F910F91FF90EF90089558
:100D6000CF93DF93EC01888D8823C9F0EA89FB8952
:100D7000808185FD05C0A889B9898C9186FD0FC049
:100D80000FB607FCF5CF808185FFF2CFA889B9891E
:100D90008C9185FFEDCFCE010E944806E7CFDF9111
:100DA000CF91089580E090E0892B29F00E943E06C3
:100DB00081110C940000089508950895CF93DF9356
:100DC00000D000D0CDB7DEB7FC0149835A836B83D6
:100DD0007C8380899189009769F0BF01DC01ED91E6
:100DE000FC910480F581E02D9E012F5F3F4F44E18F
:100DF00050E009950F900F900F900F90DF91CF91D9
:100E000008950895089508950C941C120C941C12D2
:100E10000C941C120C941C120C941C12FF920F9335
:100E20001F93CF93DF93EC010F89188D01151105E6
:100E300021F1FE8087E090E00E948711DC0183E1D0
:100E400091E011969C938E9316961C921E92159784
:100E50001396DC93CE9312971496FC921497E801A4
:100E6000E881F9810480F581E02DBD01C801DF91A1
:100E7000CF911F910F91FF900994DF91CF911F9116
:100E80000F91FF900895CF93DF93EC014A898B89EE
:100E90009C892A813B81411110C04D895E89840F54
:100EA000951F28173907D0F081E08A8BE881F981F6
:100EB0000084F185E02D61E00AC08217930770F08D
:100EC0001A8AE881F9810084F185E02D60E0CE0185
:100ED0000995CE01DF91CF910C940E07DF91CF9150
:100EE00008950E941F151F93CF93DF93182FEB01D6
:100EF0000E941B0B209711F460E004C0CF3FD10586
:100F000039F461E0812FDF91CF911F910C943A0B5E
:100F1000E12FF0E0E759FF4FE491E330F9F048F4B6
:100F2000E130B9F0E230A1F584B5806284BDC8BD7E
:100F300034C0E730E9F0E83019F1E43049F5809148
:100F40008000806280938000D0938B00C0938A00E1
:100F500024C084B5806884BDC7BD1FC08091800057
:100F6000806880938000D0938900C093880015C06A
:100F70008091B00080688093B000C093B3000DC032
:100F80008091B00080628093B000C093B40005C02F
:100F9000C038D1050CF0B5CFAFCFDF91CF911F9105
:100FA00008952FB7F89460913803709139038091B8
:100FB0003A0390913B032FBF08951F920F920FB6F3
:100FC0000F9211242F933F938F939F93AF93BF93CF
:100FD0008091380390913903A0913A03B0913B037B
:100FE0003091370323E0230F2D3720F40196A11D04
:100FF000B11D05C026E8230F0296A11DB11D209347
:1010000037038093380390933903A0933A03B09346
:101010003B0380913C0390913D03A0913E03B0912E
:101020003F030196A11DB11D80933C0390933D03A6
:10103000A0933E03B0933F03BF91AF919F918F91D7
:101040003F912F910F900FBE0F901F901895909188
:101050000001981324C0E8E6F0E0E4919FEF90933C
:101060000001E130B9F098F0E230C9F490917000DD
:101070009D7F9093700091E09093B0009091B100AB
:10108000987F94609093B1001092B30008C01092C2
:101090006E0005C090916F009D7F90936F0060E09F
:1010A0000C943A0B1F920F920FB60F9211242F93AC
:1010B0003F934F935F936F937F938F939F93AF93E0
:1010C000BF93EF93FF938091330390913403A091EA
:1010D0003503B0913603892B8A2B8B2B51F18091EC
:1010E0003203E0913003F0913103908189278083AE
:1010F0008091330390913403A0913503B09136036E
:10110000181619061A061B06C4F480913303909131
:101110003403A0913503B09136030197A109B109B9
:101120008093330390933403A0933503B093360335
:1011300004C0809100010E942708FF91EF91BF91A8
:10114000AF919F918F917F916F915F914F913F915F
:101150002F910F900FBE0F901F901895DC01ED910D
:10116000FC910190F081E02D09946115710579F0F1
:10117000FB0101900020E9F73197AF01461B570BA7
:10118000DC01ED91FC910280F381E02D099480E077
:1011900090E008950F931F93CF93DF93EC010E948B
:1011A000B5088C0163EF72E0CE010E94B508800F94
:1011B000911FDF91CF911F910F9108951F920F9270
:1011C0000FB60F9211242F933F934F935F936F931A
:1011D0007F938F939F93AF93BF93EF93FF938EE093
:1011E00094E00E944806FF91EF91BF91AF919F91CB
:1011F0008F917F916F915F914F913F912F910F90C0
:101200000FBE0F901F9018951F920F920FB60F925E
:1012100011242F938F939F93EF93FF93E0911E04DC
:10122000F0911F048081E0912404F091250482FD57
:1012300012C09081809127048F5F8F7320912804C2
:10124000821751F0E0912704F0E0E25FFB4F958FA9
:101250008093270401C08081FF91EF919F918F912E
:101260002F910F900FBE0F901F901895089508951D
:101270000895CF92DF92EF92FF920F931F93CF9337
:10128000DF93EC01ED85FE85EE0FFF1F8B859C85BE
:10129000E80FF91F208131818F819885A985BA8552
:1012A000821B930BA109B1098F839887A987BA87FD
:1012B0008E818E3008F08E508770806480937C0021
:1012C00080917A00806480937A0080917A0086FD14
:1012D000FCCF809178002091790090E0922B91834F
:1012E00080834D855E859A01220F331FEB85FC8537
:1012F000E20FF31F20813181CF80D884E984FA8402
:10130000C701B601620F731F811D911D6F8378871E
:1013100089879A87FA013196FE87ED872F854C8160
:101320005D81213011F09F0101C09A01E417F5079A
:1013300020F01E861D8641E04F87032E000C440BD3
:10134000550B0E94F7140A811B8102171307E9F05D
:101350003B832A83E881F9810680F781E02DA9018A
:10136000B801CE010995E881F981A80160E070E03B
:101370000480F581E02DCE01DF91CF911F910F9177
:10138000FF90EF90DF90CF900994DF91CF911F9164
:101390000F91FF90EF90DF90CF9008958F929F92E2
:1013A000AF92BF920F931F93CF93DF93CDB7DEB76A
:1013B000A1970FB6F894DEBF0FBECDBF19A2423081
:1013C00008F44AE08E010F5D1F4F842E912CA12C52
:1013D000B12CA50194010E94F714E62FB901CA01AE
:1013E00001501109EA3014F4E05D01C0E95CD80154
:1013F000EC93232B242B252B61F7B8018EE094E08E
:101400000E94B508A1960FB6F894DEBF0FBECDBFFF
:10141000DF91CF911F910F91BF90AF909F908F90D0
:101420000895CF92DF92EF92FF92CF93DF936C01FA
:10143000990FEE08FF08F7FE19C06DE28EE094E008
:101440000E94AE08EC0166277727CB016C197D0955
:101450008E099F094AE00E94CE098C0F9D1FDF91E3
:10146000CF91FF90EF90DF90CF9008954AE0C701B1
:10147000B601DF91CF91FF90EF90DF90CF900C9469
:10148000CE094F925F926F927F928F929F92AF920E
:10149000BF92CF92DF92EF92FF926B017C01B42E4C
:1014A0009B01AC010E94F214882319F063E273E0FF
:1014B00027C026013701E89477F82FEF3FEF4FE779
:1014C0005FE7C301B2010E94F21481110DC02FEF3A
:1014D0003FEF4FE75FE7C301B2010E9428131816E0
:1014E0001CF467E273E00CC02FEF3FEF4FE75FE4BF
:1014F000C701B6010E948014181694F46BE273E0E1
:101500008EE094E0FF90EF90DF90CF90BF90AF908F
:101510009F908F907F906F905F904F900C94B50844
:101520002FEF3FEF4FE75FECC701B6010E94281392
:1015300087FDE4CF20E030E0A901C701B6010E9499
:10154000281387FF0BC06DE28EE094E00E94AE0886
:101550004C01F7FAF094F7F8F09402C0812C912C2A
:10156000A12C60E070E080E09FE3AB1441F020E04C
:1015700030E040E251E40E942D13A394F6CF9B018A
:10158000AC01C701B6010E94BC122B013C010E94B4
:101590009F136B017C010E94CE139B01AC01C30120
:1015A000B2010E94BB122B013C014AE0C701B60107
:1015B0000E94CE097C01E80CF91CBB2039F06EE2D8
:1015C0008EE094E00E94AE08E80EF91EDB2CDD20D0
:1015D00021F120E030E040E251E4C301B2010E9479
:1015E00085142B013C010E949F134B01A12CB12CAF
:1015F0004AE0C501B4010E94CE09E80EF91EC501FA
:10160000B4010E94CE139B01AC01C301B2010E9440
:10161000BB122B013C01DA94DACFC701FF90EF90A7
:10162000DF90CF90BF90AF909F908F907F906F9002
:101630005F904F90089590E0FC01EB55FF4F24918F
:10164000FC01EF56FF4F8491882399F090E0880FBA
:10165000991FFC01E957FF4FA591B491FC01E35894
:10166000FF4F859194918FB7F894EC91E22BEC9316
:101670008FBF089590E0FC01E759FF4F3491FC01C2
:10168000EB55FF4F2491FC01EF56FF4FE491EE2301
:1016900009F43BC0332339F1333091F038F4313061
:1016A000A9F0323001F584B58F7D12C0373091F04A
:1016B0003830A1F03430B9F4809180008F7D03C0C0
:1016C000809180008F77809380000DC084B58F77E4
:1016D00084BD09C08091B0008F7703C08091B000B5
:1016E0008F7D8093B000F0E0EE0FFF1FE358FF4FB7
:1016F000A591B4918FB7F894EC91611103C0209536
:101700002E2301C02E2B2C938FBF08950F931F9370
:10171000CF93DF93EC010A811B818BA59CA5081751
:10172000190799F08DA59EA5009769F0DC01ED9150
:10173000FC910480F581E02D9E01255D3F4F4AE03C
:1017400050E0BE0109951CA70BA7DF91CF911F9117
:101750000F910895089508950C941C1202970C940B
:10176000AC0B0C941C1242970C94B10BCF92DF92ED
:10177000EF92FF92CF93DF93FC01868197816817E8
:10178000790709F06AC04A30510509F066C0FB01CB
:10179000C280D380E601D7FC07C0C114F4E0DF06A5
:1017A0002CF0CFEFD3E002C0C0E0D0E06BEB72E0F2
:1017B0008EE094E00E94B508E12CF12C4AE0C701CC
:1017C000B6010E94CE096FE972E08EE094E00E94BB
:1017D000B508C701B6010E94D01325EE30ED42E7EF
:1017E00050E40E94851420E030EC4FE754E40E945E
:1017F0002D1320E030E0A9010E94BC1242E00E94BB
:10180000410A6BEC72E08EE094E00E94B508BE01E4
:10181000DD0F880B990B0E94D01320E030E044E3E9
:1018200052E40E94851420E030EC4FE754E40E941B
:101830002D1320E030E0A9010E94BC1242E00E947A
:10184000410A6AED72E08EE094E0DF91CF91FF9063
:10185000EF90DF90CF900C94CA08DF91CF91FF906A
:10186000EF90DF90CF90089502970C94B60B4297BB
:101870000C94860B789484B5826084BD84B58160B5
:1018800084BD85B5826085BD85B5816085BD80914B
:101890006E00816080936E001092810080918100C3
:1018A00082608093810080918100816080938100BB
:1018B000809180008160809380008091B10084607D
:1018C0008093B1008091B00081608093B0008091DE
:1018D0007A00846080937A0080917A00826080939D
:1018E0007A0080917A00816080937A0080917A00FA
:1018F000806880937A001092C100E0911E04F091FC
:101900001F0482E08083E0911A04F0911B0410828E
:10191000E0911C04F0911D048FEC8083109226044A
:10192000E0912204F091230486E08083E09120047A
:10193000F0912104808180618083E0912004F09106
:101940002104808188608083E0912004F09121044B
:10195000808180688083E0912004F091210480815F
:101960008F7D808366EF72E08EE094E00E94CA086B
:10197000E0916C03F0916D0323E0EF3AF20781F000
:10198000309711F016A615A688E693E09093DD0334
:101990008093DC038FEA93E090936D0380936C0354
:1019A000E0916A03F0916B0363E0E037F60709F416
:1019B000AAC03097E1F1A0ADB1AD40AD51AD24ADBD
:1019C00035ADC901880F991F840F951FA817B90756
:1019D00071F18D919C9111978656934031F5CD010F
:1019E000841B950BBC0175956795A9014150510960
:1019F0006C01D2E0CD0ED11C6417750788F400ADE0
:101A000011AD6F5F7F4F7801EC0CFD1CE701E880A2
:101A1000F980800F911FEC01F982E882C601E8CFBE
:101A20004217530710F455AF44AF1296C6CF00913A
:101A3000AC031091AD03E80121960C171D0708F0C7
:101A400055C08091AA039091AB038C179D07A0F518
:101A50009801275F3F4F8217930770F5E090A80326
:101A6000F090A9033093AB032093AA03C901880F18
:101A7000991F0E9487119093A9038093A803D7010F
:101A800040E050E040175107A1F0E091A803F09129
:101A9000A9039A01220F331FE20FF31F309729F099
:101AA0008D919C911197918380834F5F5F4F129628
:101AB000E9CFC7010E941C128091AC039091AD0345
:101AC0009C01220F331F46E653E08C179D0788F4D4
:101AD000E091A803F091A903E20FF31F309711F0F2
:101AE0005183408301962E5F3F4FEFCFC017D10740
:101AF00020F4D093AD03C093AC0380E793E09093C0
:101B00006B0380936A0380E493E090936F03809368
:101B10006E0380916A0390916B03009719F002960F
:101B20000E94100580916C0390916D03009719F04D
:101B300044960E94100580916E0390916F03009768
:101B400019F002960E946A048AE00E941B0B89E049
:101B50000E941B0B64E670E08AE00E94730760E855
:101B600070E089E00E9473076EE073E08EE094E01D
:101B70000E94CA088091C703823021F483EC93E06D
:101B80000E94B8048FEA93E00E943909809176039D
:101B9000823021F482E793E00E94B80480914503EB
:101BA000823021F482E493E00E94E20380915703A3
:101BB000823021F484E593E00E94E2030E94AD05A7
:101BC0006B017C010E94AD05DC01CB018C199D09E4
:101BD000AE09BF09883E9340A105B10598F30E9464
:101BE000D206C8CF7F928F929F92AF92BF92CF9230
:101BF000DF92EF92FF920F931F93CF93DF938EE0CC
:101C000094E0109211041092100448EE53E060E04A
:101C100070E0409312045093130460931404709383
:101C2000150423E431E030930F0420930E0425ECD7
:101C300030E030931B0420931A0424EC30E03093FE
:101C40001D0420931C0420EC30E030931F042093EB
:101C50001E0421EC30E0309321042093200422EC78
:101C600030E0309323042093220426EC30E03093BC
:101C70002504209324041092270410922804109223
:101C8000290410922A0461E270E07093C304609307
:101C9000C2041092C4041092C5041092C60426E037
:101CA000C22ED12CE12CF12CC092C704D092C804D2
:101CB000E092C904F092CA041092CB041092CC04B2
:101CC0001092CD041092CE0440E24093CF041092C3
:101CD000D1041092D0041092D4042DEA34E0309351
:101CE000D3042093D20423EE31E03093AC0420934C
:101CF000AB042DEE31E03093C0042093BF0410926A
:101D0000B1041092B0041092B3041092B204109275
:101D1000B5041092B4041092B7041092B604109255
:101D2000B9041092B8041092BB041092BA0421ECCA
:101D300031E03093AE042093AD049093BE048093C1
:101D4000BD0450E15093BC047093FC036093FB030B
:101D50001092FD031092FE031092FF03C092000444
:101D6000D0920104E0920204F09203041092040461
:101D70001092050410920604109207044093080480
:101D800010920A041092090410920D041092E203BA
:101D90001092E3031092E4031092E50346EE53E041
:101DA00050930C0440930B044BE651E05093E10335
:101DB0004093E00345E751E05093F9034093F80363
:101DC0001092EA031092E9031092EC031092EB03D5
:101DD0001092EE031092ED031092F0031092EF03B5
:101DE0001092F2031092F1031092F4031092F30395
:101DF0003093E7032093E6039093F7038093F60371
:101E000028E02093F5039093DF038093DE036BEFCC
:101E100071E083E192E00E9420118DE192E09093C5
:101E2000B0038093AF031092B2031092B1038FE01E
:101E30008093B5031092B6031092B7031092B803C3
:101E40001092B9031092BD031092BC031092BE030E
:101E50001092C0031092BF0380E490E00E948711AB
:101E60008093BA039093BB0320E230E03093B40335
:101E70002093B303FC01805C9F4FE817F90719F02A
:101E800011921192FACF8BE392E09093B00380937A
:101E9000AF038BE492E09093C2038093C10383E38A
:101EA00092E09093C4038093C3031092C7031092EF
:101EB000C9031092C8031092CE031092CF03109260
:101EC000D0031092D1031092D2031092D303109238
:101ED000D4031092D5031092D9031092D803109214
:101EE000D7031092D60340E850E060E070E04093E2
:101EF000CA035093CB036093CC037093CD0310922D
:101F0000DB031092DA031092DD031092DC0321EC64
:101F100033E03093C6032093C5032BE032E03093C7
:101F20007103209370039093730380937203109254
:101F30007603109278031092770310927D0310922B
:101F40007E0310927F0310928003109281031092FF
:101F500082031092830310928403109288031092DC
:101F6000870380E094E090938A03809389038EE254
:101F700093E090938C0380938B0381ED93E0909397
:101F80008E0380938D0386E493E090939003809377
:101F90008F0383E090E0909392038093910380E21B
:101FA00090E00E948711FC019C01205E3F4F11923E
:101FB0001192E217F307D9F72DE132E03093940341
:101FC00020939303109296031092950320E130E042
:101FD00030939803209397032EE020939903109257
:101FE0009A0310929B0310929C0310929D0390936E
:101FF0009F0380939E031092A1031092A00310925E
:10200000A2031092A4031092A3038FEF9FEF90936B
:10201000A6038093A5031092A70388E090E0909315
:10202000AB038093AA031092AD031092AC0380E13E
:1020300090E00E9487119093A9038093A8038FE0FA
:1020400090E0A0E0B0E08093790390937A03A093AE
:102050007B03B0937C0380E490E0909386038093AD
:10206000850380E793E090937503809374038BE678
:1020700092E0909367038093660389E792E09093E0
:1020800069038093680310926B0310926A031092A5
:102090006D0310926C0310926F0310926E038BE825
:1020A00092E09093410380934003C3E8D2E0D09341
:1020B0004303C09342038AE0809344031092450394
:1020C000109249031092480310924A0310924B0356
:1020D00010924C0310924D0310924F0310924E0336
:1020E0001092510310925003109253031092520316
:1020F00010924703109246030E941B0BD093550386
:10210000C093540389E080935603109257031092B2
:102110005B0310925A0310925C0310925D031092BD
:102120005E0310925F03109261031092600310929D
:10213000630310926203109265031092640310927D
:102140005903109258030E941B0B85E090E00E94F7
:102150008711EC0177247A94788289E1882E912C7A
:102160009A82898285E090E00E9487115C01DC01FF
:102170001C920BE410E012961C930E93119785E0CD
:1021800090E00E9487116C01FC0170829282818232
:1021900085E090E00E9487117C01DC011C92129680
:1021A0001C930E93119785E090E00E9487118C019B
:1021B000FC0170829282818285E090E00E9487110A
:1021C000FC0110821482138287ED9AE0928381834E
:1021D000BC82AB82D5011496DC92CE921397D601C5
:1021E0001496FC92EE921397D70114961C930E93BB
:1021F0001397D8011496FC93EE931397D093510341
:10220000C0935003DF91CF911F910F91FF90EF90FA
:10221000DF90CF90BF90AF909F908F907F90089568
:1022200080E793E00E9438028FEA93E00E948900E1
:1022300080EE93E00E9474028BEA94E00C94C20258
:102240000F931F93CF93DF93009731F461157105BE
:1022500019F480E090E03AC08B01EC016EE070E090
:1022600081E090E00E946B11FC01892B91F380E8E2
:1022700083830115110571F01387028781E8838339
:102280008091D5049091D604892B21F4F093D60443
:10229000E093D5042097C9F0D187C08783818260FD
:1022A00083838091D7049091D804892B71F4F093A3
:1022B000D804E093D7048091D9049091DA04892B53
:1022C00021F4F093DA04E093D904CF01DF91CF91A8
:1022D0001F910F9108950F931F93CF93DF93869FC4
:1022E0008001879F100D969F100D1124C8010E9438
:1022F0008711EC01009729F0A80160E070E00E94CE
:10230000B412CE01DF91CF911F910F910895CF9319
:10231000DF938230910510F482E090E0E091DD04DB
:10232000F091DE0420E030E0C0E0D0E0309711F121
:102330004081518148175907C0F04817590761F487
:1023400082819381209719F09B838A832BC090937D
:10235000DE048093DD0426C02115310519F04217F3
:10236000530718F49A01BE01DF01EF010280F381E7
:10237000E02DDCCF2115310509F1281B390B243064
:10238000310590F412968D919C911397611571050A
:1023900021F0FB019383828304C09093DE04809339
:1023A000DD04FD01329644C0FD01E20FF31F81936D
:1023B0009193225031092D933C933AC02091DB0434
:1023C0003091DC04232B41F420910301309104016E
:1023D0003093DC042093DB04209101013091020151
:1023E0002115310541F42DB73EB7409105015091BB
:1023F0000601241B350BE091DB04F091DC04E217AD
:10240000F307A0F42E1B3F0B2817390778F0AC0117
:102410004E5F5F4F2417350748F04E0F5F1F5093F4
:10242000DC044093DB048193919302C0E0E0F0E090
:10243000CF01DF91CF9108950F931F93CF93DF9337
:10244000009709F48CC0FC0132971382128200912C
:10245000DD041091DE040115110581F42081318124
:10246000820F931F2091DB043091DC042817390779
:1024700079F5F093DC04E093DB0471C0D80140E00F
:1024800050E0AE17BF0750F412962D913C91139770
:10249000AD012115310509F1D901F3CF9D01DA0113
:1024A0003383228360817181860F971F8217930780
:1024B00069F4EC0128813981260F371F2E5F3F4FC9
:1024C000318320838A819B8193838283452B29F4E6
:1024D000F093DE04E093DD0442C01396FC93EE9388
:1024E0001297ED01499159919E01240F351FE21772
:1024F000F30771F480819181840F951F02961196E4
:102500009C938E938281938113969C938E931297C2
:10251000E0E0F0E0D80112968D919C91139700971E
:1025200019F0F8018C01F6CF8D919C9198012E5FE6
:102530003F4F820F931F2091DB043091DC0428175A
:10254000390769F4309729F41092DE041092DD0403
:1025500002C0138212821093DC040093DB04DF912B
:10256000CF911F910F910895DC0101C06D934150EF
:102570005040E0F708955058BB27AA270E94D31275
:102580000C9446140E94381438F00E943F1420F036
:1025900039F49F3F19F426F40C9435140EF4E095A9
:1025A000E7FB0C942F14E92F0E94571458F3BA1725
:1025B000620773078407950720F079F4A6F50C9459
:1025C00079140EF4E0950B2EBA2FA02D0B01B90152
:1025D00090010C01CA01A0011124FF27591B99F099
:1025E000593F50F4503E68F11A16F040A22F232FA5
:1025F000342F4427585FF3CF469537952795A795F5
:10260000F0405395C9F77EF41F16BA0B620B730B9B
:10261000840BBAF09150A1F0FF0FBB1F661F771F0C
:10262000881FC2F70EC0BA0F621F731F841F48F4C1
:10263000879577956795B795F7959E3F08F0B0CF4A
:102640009395880F08F09927EE0F97958795089531
:102650000E940B1408F481E008950E9441130C9429
:1026600046140E943F1458F00E94381440F029F498
:102670005F3F29F00C942F1451110C947A140C9490
:1026800035140E94571468F39923B1F3552391F33D
:10269000951B550BBB27AA2762177307840738F0D1
:1026A0009F5F5F4F220F331F441FAA1FA9F335D02E
:1026B0000E2E3AF0E0E832D091505040E695001CE2
:1026C000CAF72BD0FE2F29D0660F771F881FBB1F9C
:1026D000261737074807AB07B0E809F0BB0B802D7A
:1026E000BF01FF2793585F4F3AF09E3F510578F0A6
:1026F0000C942F140C947A145F3FE4F3983ED4F3B7
:10270000869577956795B795F7959F5FC9F7880F79
:10271000911D9695879597F90895E1E0660F771FCB
:10272000881FBB1F621773078407BA0720F0621B5C
:10273000730B840BBA0BEE1F88F7E09508950E9487
:102740005F1488F09F5798F0B92F9927B751B0F0D0
:10275000E1F0660F771F881F991F1AF0BA95C9F725
:1027600014C0B13091F00E947914B1E008950C9436
:102770007914672F782F8827B85F39F0B93FCCF3E9
:10278000869577956795B395D9F73EF490958095A2
:10279000709561957F4F8F4F9F4F0895E89409C0C2
:1027A00097FB3EF490958095709561957F4F8F4F84
:1027B0009F4F9923A9F0F92F96E9BB279395F6959A
:1027C000879577956795B795F111F8CFFAF4BB0F18
:1027D00011F460FF1BC06F5F7F4F8F4F9F4F16C07C
:1027E000882311F096E911C0772321F09EE8872F06
:1027F000762F05C0662371F096E8862F70E060E0C2
:102800002AF09A95660F771F881FDAF7880F96953A
:10281000879597F90895990F0008550FAA0BE0E8DE
:10282000FEEF16161706E807F907C0F01216130692
:10283000E407F50798F0621B730B840B950B39F4D2
:102840000A2661F0232B242B252B21F408950A2638
:1028500009F4A140A6958FEF811D811D089597F978
:102860009F6780E870E060E008959FEF80EC089536
:1028700000240A941616170618060906089500245F
:102880000A9412161306140605060895092E0394D9
:10289000000C11F4882352F0BB0F40F4BF2B11F44D
:1028A00060FF04C06F5F7F4F8F4F9F4F089557FDAC
:1028B0009058440F551F59F05F3F71F04795880FAE
:1028C00097FB991F61F09F3F79F087950895121645
:1028D00013061406551FF2CF4695F1DF08C01616F1
:1028E00017061806991FF1CF8695710561050894A2
:1028F0000895E894BB2766277727CB0197F90895B9
:102900000E940B1408F48FEF08950E9498140C9401
:1029100046140E94381438F00E943F1420F095238A
:1029200011F00C942F140C94351411240C947A1477
:102930000E94571470F3959FC1F3950F50E0551FF7
:10294000629FF001729FBB27F00DB11D639FAA2704
:10295000F00DB11DAA1F649F6627B00DA11D661F53
:10296000829F2227B00DA11D621F739FB00DA11D74
:10297000621F839FA00D611D221F749F3327A00D2E
:10298000611D231F849F600D211D822F762F6A2FCA
:1029900011249F5750409AF0F1F088234AF0EE0F2F
:1029A000FF1FBB1F661F771F881F91505040A9F75C
:1029B0009E3F510580F00C942F140C947A145F3FC5
:1029C000E4F3983ED4F3869577956795B795F79598
:1029D000E7959F5FC1F7FE2B880F911D9695879510
:1029E00097F908950E940B14880B990B0895A1E2A2
:1029F0001A2EAA1BBB1BFD010DC0AA1FBB1FEE1F79
:102A0000FF1FA217B307E407F50720F0A21BB30BC3
:102A1000E40BF50B661F771F881F991F1A9469F73F
:102A200060957095809590959B01AC01BD01CF019B
:102A30000895EE0FFF1F0590F491E02D099481E0B9
:102A400090E0F8940C94241510E0CEE5D0E004C09A
:102A5000FE010E9419152196CF35D107C9F7F894C8
:022A6000FFCFA6
:102A6200FF0000DF0480000000000002070C0700E6
:102A72000000000107080718000000000000000025
:102A820000E8FFE8FF000000000000140000000062
:102A92000000000000ECFFECFF000000000000005E
:102AA2000000006906D2050106B0063206100624AF
:102AB2000606000000000053025502FAFFFAFF006A
:102AC200005402570218000000000074028B02E852
:102AD200FFE8FF0000810295026B011D01270175CD
:102AE20001000000009F055102FA01F701F401F113
:102AF20001EE01650161015E0148016801EC00EA35
:102B020000020000000000A102A302FEFFFEFF007F
:102B120000A202A50200000000A105ED02000000D3
:102B220000A0059F02FA01F701F401F101EE01E2B2
:102B3200019C0183016A0168011003EF0214000085
:102B4200000000C202D902ECFFECFF0000CF02E35A
:102B520002E30131013B01ED0100000000360904EE
:102B620007DE064307DC0600000000380241022CA3
:102B7200050000000038090A0700000000370906B6
:102B820007DE06DD060000000000000000710700FD
:102B9200000000E1034F02000000008900B10BDEDB
:102BA20006DD06860B0307EEFF0000AA0BB30B3708
:102BB2000C00000000000000007107710700000017
:102BC2000000000000710700000000AC05AC0B63C0
:102BD200038E04B60BFEFF0000AB0BAE0B340C00F1
:102BE200000000B6044B0200000000B7044D024290
:102BF2006174746572792056616C75653A200020A3
:102C0200566F6C746167653A200056205065726396
:102C1200656E746167653A20002500485650726FF0
:102C220062652056616C75653A2000204D656173BE
:102C32007572656D656E743A20006B560042617460
:102C42007465727920416C61726D20537461746590
:102C52003A20000D0A005472616E736D69747465D6
:102C620072205374617274696E672E2E2E00547234
:102C7200616E736D697474657220537461727465E8
:102C82006421006E616E00696E66006F76660000F8
:00000001FF
