:100000000C94F4000C94A3020C947C020C941C013C
:100010000C941C010C941C010C942C100C94F502F3
:100020000C941C010C941C010C941C010C941C01DC
:100030000C941C010C941C010C941C010C941C01CC
:100040000C94A6170C941C010C94E5040C94BF04AA
:100050000C941C010C941C010C941C010C941C01AC
:100060000C941C010C941C0107634236B79BD8A763
:100070001A39685618AEBAAB558C1D3CB7CC5763CD
:10008000BD6DEDFD753EF6177231BF000000803F7B
:100090000001020304051112131415160A0B0C0DAE
:1000A0000E0F526164696F204552524F52005261E7
:1000B00064696F20426567696E0040402046726542
:1000C000652052414D203D2000534C415645204F64
:1000D0004B0002204D6561737572656D656E743AF3
:1000E000200020566F6C746167653A2000485650B6
:1000F000726F62652056616C75653A2000536C61C1
:100100007665205246204D657373616765205265A0
:100110006365697665643A20002320436F6E6E65DF
:100120006374696F6E2053746174653A20002041D6
:100130006C61726D3A2000562050657263656E7472
:100140006167653A20004261747465727920566F68
:100150006C74733A20004261747465727920416C4A
:1001600061726D2053746174653A20005261646954
:100170006F20506F776572446F776E0052616469CB
:100180006F20506F77657255700052462053656E30
:10019000743A200000000000240027002A0000001C
:1001A0000000250028002B000404040404040404B7
:1001B0000202020202020303030303030102040812
:1001C00010204080010204081020010204081020C1
:1001D0000000000800020100000304070000000006
:1001E000000000009322902511241FBECFEFD8E01D
:1001F000DEBFCDBF13E0A0E0B1E0ECE9FBE502C05B
:1002000005900D92A039B107D9F725E0A0E9B3E038
:1002100001C01D92A13AB207E1F710E0C3EFD0E0B0
:1002200004C02197FE010E94852DC23FD107C9F766
:100230000E94F0170C94C12D0C9400000895CF92E9
:10024000DF92EF92FF920F931F93CF93DF936C0196
:100250007A018B01C0E0D0E0CE15DF0589F0D8012E
:100260006D918D01D601ED91FC910190F081E02D11
:10027000C6010995892B11F47E0102C02196ECCFAD
:10028000C701DF91CF911F910F91FF90EF90DF9009
:10029000CF900895089580E090E00895FC01538D7B
:1002A000448D252F30E0842F90E0821B930B541750
:1002B00010F0CF96089501970895FC01918D828DDD
:1002C000981761F0828DDF01A80FB11D5D968C91AA
:1002D000928D9F5F9F73928F90E008958FEF9FEFB5
:1002E0000895FC01918D828D981731F0828DE80F71
:1002F000F11D858D90E008958FEF9FEF0895FC012B
:10030000918D228D892F90E0805C9F4F821B9109F7
:100310008F73992708958CE794E00E947F0121E074
:10032000892B09F420E0822F0895FC01848DDF01E0
:10033000A80FB11DA35ABF4F2C91848D90E0019658
:100340008F739927848FA689B7892C93A089B18947
:100350008C9180648C93938D848D981306C0028851
:10036000F389E02D80818F7D80830895EF92FF9245
:100370000F931F93CF93DF93EC0181E0888F9B8DC8
:100380008C8D981305C0E889F989808185FD24C08A
:10039000F62E0B8D10E00F5F1F4F0F731127E02E0D
:1003A0008C8DE8120CC00FB607FCFACFE889F989EA
:1003B000808185FFF5CFCE010E949501F1CF8B8D15
:1003C000FE01E80FF11DE35AFF4FF0820B8FEA891F
:1003D000FB898081806207C0EE89FF896083E8899C
:1003E000F98980818064808381E090E0DF91CF9102
:1003F0001F910F91FF90EF900895CF93DF93EC0141
:10040000888D8823C9F0EA89FB89808185FD05C034
:10041000A889B9898C9186FD0FC00FB607FCF5CF6E
:10042000808185FFF2CFA889B9898C9185FFEDCFB6
:10043000CE010E949501E7CFDF91CF91089580E032
:1004400090E0892B29F00E948B0181110C9400000F
:10045000089520E231E0DC0111963C932E9316962C
:100460008D919C911797009739F0DC01ED91FC91EB
:100470000280F381E02D09940895CF93DF93EC017E
:10048000A8A5B9A5109761F0ED91FC911197068090
:10049000F781E02D4FA1BC01CD01DF91CF910994EF
:1004A000DF91CF9108950E948B2D6115710579F030
:1004B000FB0101900020E9F73197AF01461B570B74
:1004C000DC01ED91FC910280F381E02D099480E044
:1004D00090E008950C946126CF93DF93EC010E9485
:1004E0002902CE01DF91CF910C9461260C946126F4
:1004F0000C9461260C9461261F920F920FB60F92F6
:1005000011242F933F934F935F936F937F938F9318
:100510009F93AF93BF93EF93FF93E0910201F0910C
:1005200003010995FF91EF91BF91AF919F918F9139
:100530007F916F915F914F913F912F910F900FBEDF
:100540000F901F9018951F920F920FB60F921124C3
:100550002F933F934F935F936F937F938F939F93CB
:10056000AF93BF93EF93FF93E0910001F0910101EE
:100570000995FF91EF91BF91AF919F918F917F91DD
:100580006F915F914F913F912F910F900FBE0F9000
:100590001F90189590910501981324C0E2EDF0E0AA
:1005A000E4919FEF90930501E130B9F098F0E230CB
:1005B000C9F4909170009D7F9093700091E09093AA
:1005C000B0009091B100987F94609093B100109228
:1005D000B30008C010926E0005C090916F009D7F1F
:1005E00090936F0060E00C9458161F920F920FB614
:1005F0000F9211242F933F934F935F936F937F93A9
:100600008F939F93AF93BF93EF93FF938091A70333
:100610009091A803A091A903B091AA03892B8A2BDA
:100620008B2B51F18091A603E091A403F091A503D7
:100630009081892780838091A7039091A803A0913E
:10064000A903B091AA03181619061A061B06C4F4CA
:100650008091A7039091A803A091A903B091AA0348
:100660000197A109B1098093A7039093A803A093D0
:10067000A903B093AA0304C0809105010E94CA0295
:10068000FF91EF91BF91AF919F918F917F916F916A
:100690005F914F913F912F910F900FBE0F901F9040
:1006A00018954F925F926F927F92EF92FF920F9305
:1006B0001F93CF93DF93CDB7DEB7A1970FB6F89412
:1006C000DEBF0FBECDBF7C01FA01CB0119A22230E3
:1006D00008F42AE08E010F5D1F4F422E512C612C31
:1006E000712CBF01A30192010E94442DF901CA019E
:1006F000015011096A3014F4605D01C0695CD801D1
:100700006C93232B242B252B61F7B801C7010E9482
:100710005502A1960FB6F894DEBF0FBECDBFDF9194
:10072000CF911F910F91FF90EF907F906F905F900E
:100730004F90089560EB72E00C9455020F931F9355
:10074000CF93DF93EC010E9455028C01CE010E94F1
:100750009A03800F911FDF91CF911F910F91089500
:10076000DC01ED91FC910190F081E02D09944F9214
:100770005F926F927F928F929F92AF92BF92CF9231
:10078000DF92EF92FF92CF93DF93EC016A017B013E
:10079000B22E9A01AB01C701B6010E94312D882308
:1007A00019F063EB72E027C026013701E89477F86F
:1007B0002FEF3FEF4FE75FE7C301B2010E94312DFA
:1007C00081110DC02FEF3FEF4FE75FE7C301B2018B
:1007D0000E94892A18161CF467EB72E00CC02FEFF8
:1007E0003FEF4FE75FE4C701B6010E94492C18169E
:1007F0009CF46BEB72E0CE01DF91CF91FF90EF9014
:10080000DF90CF90BF90AF909F908F907F906F9030
:100810005F904F900C9455022FEF3FEF4FE75FEC46
:10082000C701B6010E94892A87FDE3CF20E030E0AE
:10083000A901C701B6010E94892A87FF0AC06DE29B
:10084000CE010E94B0034C01F7FAF094F7F8F0944F
:1008500002C0812C912CA12C60E070E080E09FE32D
:10086000AB1441F020E030E040E251E40E948E2AD7
:10087000A394F6CF9B01AC01C701B6010E941D2ACB
:100880002B013C010E94412B6B017C010E94702BCB
:100890009B01AC01C301B2010E941C2A2B013C0147
:1008A0002AE0B701A601CE010E9451037C01E80CA9
:1008B000F91CBB2031F06EE2CE010E94B003E80EBD
:1008C000F91EDB2CDD2029F120E030E040E251E48C
:1008D000C301B2010E94C42C2B013C010E94412B98
:1008E0004B01A12CB12C2AE0B501A401CE010E943C
:1008F0005103E80EF91EC501B4010E94702B9B0143
:10090000AC01C301B2010E941C2A2B013C01DA9404
:10091000D9CFC701DF91CF91FF90EF90DF90CF90BB
:10092000BF90AF909F908F907F906F905F904F900F
:1009300008950C945502EF92FF920F931F93CF935B
:10094000DF938C017B01C0E0D0E0F701EC0FFD1FCD
:100950006491662361F0D801ED91FC910190F081E2
:10096000E02DC8010995892B11F02196EECFCE011B
:10097000DF91CF911F910F91FF90EF9008951F92FB
:100980000F920FB60F9211242F933F934F935F93C3
:100990006F937F938F939F93AF93BF93EF93FF9347
:1009A0008CE794E00E949501FF91EF91BF91AF9188
:1009B0009F918F917F916F915F914F913F912F9177
:1009C0000F900FBE0F901F9018951F920F920FB6A9
:1009D0000F9211242F938F939F93EF93FF93E091A6
:1009E0008C04F0918D048081E0919204F091930445
:1009F00082FD12C09081809195048F5F8F7320914A
:100A00009604821751F0E0919504F0E0E458FB4F12
:100A1000958F8093950401C08081FF91EF919F9104
:100A20008F912F910F900FBE0F901F9018950895E2
:100A30004F925F926F927F928F929F92AF92BF92EE
:100A4000CF92DF92EF92FF920F931F93CF93DF939A
:100A5000CDB7DEB728970FB6F894DEBF0FBECDBF77
:100A60008C016A017B010E9402174B015C01F801B5
:100A7000828D938DA48DB58DA5019401281B390B12
:100A80004A0B5B0BCA01B9010E94722B9B01AC019E
:100A9000D80156966D937D938D939C935997F80149
:100AA000828E938EA48EB58E1A968D919D910D9007
:100AB000BC91A02D89839A83AB83BC83868797875B
:100AC000A08BB18BC28AD38AE48AF58A8280938014
:100AD000A480B580C501B4010E948E2A9B01AC019F
:100AE000F801668377838087918760E070E080E813
:100AF0009FEB0E948E2A0E94082B2B013C019B0138
:100B0000AC0160E070E080E89FE30E941C2AA7012E
:100B100096010E94C42C6D837E838F8398872981E0
:100B20003A814B815C81C301B2010E94C42C9B01BC
:100B3000AC016D817E818F8198850E941D2A2B01D9
:100B40003C01D8011A966D937D938D939C931D97CC
:100B50008D919C9181309105D1F14CF4892BA1F5B7
:100B6000A3019201C701B6010E941C2A2AC082304B
:100B70009105C9F0039741F5A3019201C701B601A0
:100B80000E941C2A6B017C0120E034E244E759E416
:100B9000C501B4010E948E2A9B01AC01C701B601B8
:100BA0000E948E2A0EC020E034E244E759E4C501D9
:100BB000B4010E948E2A9B01AC01C301B2010E94C4
:100BC000C42C2B013C0103C0412C512C3201C30128
:100BD000B20128960FB6F894DEBF0FBECDBFDF91ED
:100BE000CF911F910F91FF90EF90DF90CF90BF902A
:100BF000AF909F908F907F906F905F904F900895EF
:100C00008F929F92AF92BF92CF92DF92EF92FF921C
:100C1000CF936115710509F403C2FB01C280D38033
:100C2000FC018281C114D10409F49FC19091050196
:100C3000981721F09F3F09F0F3C104C0E2EDF0E006
:100C4000C4917DC080930501E2EDF0E0C491CF3FF7
:100C500009F4E6C1C13029F1C23009F449C0C1111B
:100C60006EC014BC15BC94B5926094BD95B59160EE
:100C700095BD282F30E0F901E855FE4FE491F0E0F2
:100C8000EE0FFF1FE256FE4F4591549150939B0388
:100C900040939A03F901E454FE4FE491E0939903E1
:100CA00050C0109280001092810090918100986055
:100CB0009093810090918100916090938100282F02
:100CC00030E0F901E855FE4FE491F0E0EE0FFF1F30
:100CD000E256FE4F459154915093980340939703E9
:100CE000F901E454FE4FE491E0939603C1E029C07A
:100CF0001092B0001092B1009091B0009260909369
:100D0000B0009091B10091609093B100282F30E035
:100D1000F901E855FE4FE491F0E0EE0FFF1FE256B7
:100D2000FE4F459154915093A5034093A403F901BC
:100D3000E454FE4FE491E093A603C2E002C0C7FD75
:100D40006FC161E00E94A416E12CF12C8C2F8D7FE5
:100D500009F0A0C060E072E18AE790E0A701960187
:100D60000E94662D49015A01DA01C9010197A109C2
:100D7000B1098F3F9105A105B10509F00CF442C0FE
:100D800060E472E48FE090E0A70196010E94662D76
:100D9000DA01C9010197A109B109C230E1F48F3F1D
:100DA0009105A105B10509F00CF438C160E970EDB9
:100DB00083E090E0A70196010E94662DDA01C90147
:100DC0000197A109B1098F3F9105A105B10509F06E
:100DD0008CF523E058C08F3F9105A105B105A1F026
:100DE0009CF068E478EE81E090E0A70196010E9413
:100DF000662DDA01C9010197A109B109CC2309F4D3
:100E0000EFC0E6C021E001C022E0CC2371F03BC07E
:100E1000D501C4012AE0B595A795979587952A95A0
:100E2000D1F70197A109B10925E035B5387F232B0A
:100E300025BD61C068E478EE81E090E0A7019601ED
:100E40000E94662DDA01C9010197A109B1098F3FFE
:100E50009105A105B10509F00CF492C064E274EFAC
:100E600080E090E0A70196010E94662DDA01C90199
:100E70000197A109B1098F3F9105A105B10511F0B5
:100E800008F080C025E03091B100387F232B2093FB
:100E9000B1002BC060E072E18AE790E0A701960103
:100EA0000E94662DDA01C9010197A109B1090097D5
:100EB000F1E0AF07B10514F431E00EC068E478EE5C
:100EC00081E090E0A70196010E94662DDA01C90138
:100ED0000197A109B10933E0C13039F420918100B3
:100EE000287F232B2093810018C0C130B1F0C2307D
:100EF00049F1C11195C087BD8FEF9FEFDC01809351
:100F0000A0039093A103A093A203B093A3038091A5
:100F10006E00826080936E0083C0909389008093FE
:100F200088008FEF9FEFDC0180939C0390939D03DB
:100F3000A0939E03B0939F0380916F008260809383
:100F40006F006EC08093B3008FEF9FEFDC01809342
:100F5000A7039093A803A093A903B093AA03809139
:100F600070008260809370005BC0CF91FF90EF9023
:100F7000DF90CF90BF90AF909F908F900C94CA025B
:100F800024E081CF62E17AE780E090E0A70196015A
:100F90000E94662DDA01C9010197A109B1098F3FAD
:100FA0009105A105B10591F088F0D501C4013AE0A1
:100FB000B595A795979587953A95D1F70197A1098A
:100FC000B109CC2309F430CF27E05DCF26E01DCF57
:100FD0008F3F9105A105B10509F0A4F624E015CFD6
:100FE0008F3F9105A105B105B9F0B4F062E17AE750
:100FF00080E090E0A70196010E94662DDA01C90108
:101000000197A109B1098F3F9105A105B10511F023
:1010100008F0FECE24E009CF23E007CF22E033CF53
:10102000CF91FF90EF90DF90CF90BF90AF909F90C7
:101030008F90089508954F925F926F927F928F9252
:101040009F92AF92BF92CF92DF92EF92FF920F9357
:101050001F93CF93DF931F92CDB7DEB77C012B0197
:10106000FC01848195816C01FFEFCF1ADF0A8C159A
:101070009D0508F06EC0F701228133812C153D05D6
:10108000F0F5099628173907D0F580809180938371
:10109000828327E0AC01249FC001259F900D11247D
:1010A0000E94CC25F701918380835401612C712C1F
:1010B000F7018481958168167906F0F4F7012081A3
:1010C0003181C50188199909820F931F009751F04A
:1010D0008E010F5F1F4F2FEF3FEF40E050E0B50153
:1010E0000E948E0DC5010E943D12FFEF6F1A7F0A0C
:1010F00027E0A20EB11CDCCFC4010E946126F701DB
:10110000A480B58087E08A9D30018B9D700C1124EE
:10111000812C912CF701AC14BD0408F040C0208153
:101120003181C401860D971D820F931F009751F0E6
:101130008E010F5F1F4F2FEF3FEF40E050E0B201F5
:101140000E948E0DFFEFAF1ABF0A27E0820E911C9E
:10115000E1CFC816D90628F527E0289F3001299F3E
:10116000700C11245601812C912CF7E06F0E711C2C
:10117000F70184819581A816B90688F4C301880D0A
:10118000991DF70120813181820F931F0E943D122A
:10119000FFEFAF1ABF0A27E0820E911CE9CFD5827C
:1011A000C4820F90DF91CF911F910F91FF90EF902C
:1011B000DF90CF90BF90AF909F908F907F906F9077
:1011C0005F904F900895CF92DF92EF92FF920F932E
:1011D0001F93CF93DF931F92CDB7DEB78C01FB0136
:1011E000E480F580E416F50610F40E948B2DE41AD5
:1011F000F50A2E153F0508F47901C080D180C40E90
:10120000D51E88E090E0F8019383828315821482D2
:101210000E94CC25F80191838083FFEFEF16FF0633
:1012200021F3F6018081181684F41982AE014F5F14
:101230005F4FB701C8010E94E111F8014481558157
:10124000B601808191810E94710AC8010F90DF91DF
:10125000CF911F910F91FF90EF90DF90CF90089565
:101260000895089527E732E0DC012D933C938091A7
:10127000AF039091B003009739F0DC01ED91FC9140
:101280000280F381E02D09940895CF93DF93EC0160
:101290000E943209CE01DF91CF910C946126CF9349
:1012A000DF93EC01AB0188A599A5009741F0DC0123
:1012B000ED91FC910480F581E02DBE0109956F81CF
:1012C000788580E090E00E94702B20E030E048ECD0
:1012D00052E40E948E2A2FA1222351F023EE35EAF8
:1012E0004BE350E40E94492C18168CF41FA20AC04C
:1012F00022E538EB4AE350E40E94892A18163CF0B4
:1013000081E08FA3CE01DF91CF910C943D02DF915C
:10131000CF91089508950F931F93CF938C01C42FFD
:1013200066E571E08CE794E00E949B046C2F70E00E
:101330008CE794E00E94DB156C2FF8018285938581
:10134000CF911F910F910C94320F8F929F92AF9279
:10135000BF92CF92DF92EF92FF920F931F93CF93A2
:10136000DF93CDB7DEB764970FB6F894DEBF0FBE3C
:10137000CDBF5C014B01FB016781708580E090E08F
:101380000E94702B20E030E048EC52E40E948E2A4C
:101390006B017C012DEC3CEC4CE250E40E94892A6C
:1013A000181614F52DEC3CEC44E850E4C701B601E6
:1013B0000E94492C87FF1AC02DEC3CEC4CE250E413
:1013C000C701B6010E941C2A2AE939E949EB5FE30B
:1013D0000E948E2A20E030E048EC52E40E94C42CA7
:1013E0000E94412B162F03C010E001C014E6F40147
:1013F00007A166E471E08CE794E00E949B0422E080
:10140000B701A6018CE794E00E94B70367E371E09F
:101410008CE794E00E949B04412F50E060E070E074
:101420002AE08CE794E00E9451036FEB72E08CE7B6
:1014300094E00E9499046EE271E08CE794E00E94CF
:101440009B04402F50E060E070E02AE08CE794E0DD
:101450000E9451038CE794E00E949A0382E491E495
:10146000A4E5B0E0898B9A8BAB8BBC8B1F921F934A
:10147000C701B6010E943A2B24E6269FA001279FB0
:10148000500D11245F934F93CE0141969F938F93FC
:1014900081EC92E09F938F938E010F5F1F4F1F93FC
:1014A0000F930E949E2DB801F501848595850E94B9
:1014B0007F0C0FB6F894DEBF0FBECDBF64960FB69B
:1014C000F894DEBF0FBECDBFDF91CF911F910F917A
:1014D000FF90EF90DF90CF90BF90AF909F908F9054
:1014E0000895CF92DF92EF92FF920F931F93FB012B
:1014F000DC0100E010E098016A01E12CF12C0C15F0
:101500001D052E053F0538F461916D930F5F1F4F48
:101510002F4F3F4FF4CF840F951F1F910F91FF90D6
:10152000EF90DF90CF900895089508950C94612670
:101530000C9461260C946126FC01118A83819481AC
:10154000908B87871686158660E082810C945816EA
:10155000CF93DF936115710509F460C0FB01C08171
:10156000CF3F11F461E003C0C11104C060E0FC0191
:10157000828150C0FC01D28161E08D2F0E94A416AF
:10158000ED2FF0E0E053FE4FE491E33009F148F431
:10159000E130C9F0E230C1F584B5806284BDC8BDD8
:1015A0003DC0E73009F1E83039F1E43069F5809168
:1015B00080008062809380008C2F90E090938B005D
:1015C00080938A002BC084B5806884BDC7BD26C0C7
:1015D000809180008068809380008C2F90E09093B1
:1015E0008900809388001AC08091B0008068809341
:1015F000B000C093B30012C08091B00080628093AD
:10160000B000C093B4000AC0C03810F460E001C05C
:1016100061E08D2FDF91CF910C945816DF91CF911F
:1016200008958F929F92AF92BF92CF92DF92EF92E6
:10163000FF920F931F93CF93DF93EC010E946117EA
:101640002D853E856901E12CF12C09851A852B85B4
:101650003C8546015701801A910AA20AB30ADC01AF
:10166000CB01880D991DAA1DBB1DEF85F88941810D
:10167000528160E070E084179507A607B707E8F18C
:101680001E861D860E94611769877A878B879C87D3
:10169000EF85F889638174816115710579F48F8113
:1016A0009885019698878F832D813E81211531057C
:1016B00019F0821793079CF46B817C81788B6F877C
:1016C000CE01DF91CF911F910F91FF90EF90DF90AE
:1016D000CF90BF90AF909F908F900C94A80A188ADB
:1016E0001F86CE010E949C0A2F8138858D819E81A4
:1016F0002817390711F418861F82DF91CF911F91A7
:101700000F91FF90EF90DF90CF90BF90AF909F90A0
:101710008F900895CF93DF93FC0183819481892B6F
:10172000C9F081898230B1F0811104C01686158616
:1017300010861782EF010E94611769877A878B876D
:101740009C8782E0898B6F857889CE01DF91CF916C
:101750000C94A80ADF91CF910895CF92DF92EF9277
:10176000FF920F931F93CF93DF93EC011A820E9495
:1017700061176B837C838D839E838EE00E94E016CD
:10178000BC0180E090E00E94702B2FED3FE445E526
:1017900050E40E94C42C20E030EC4FE754E40E9457
:1017A0008E2A26E933E44BE45FE30E948E2A2FE879
:1017B00032EC45EF5CE30E941C2A20E030E048EC6C
:1017C00052E40E94C42C0E943A2B80E090E00E94D8
:1017D000702B6B017C010E94021721E030E03A87F8
:1017E00029870FE218EC27E939E40B871C872D873E
:1017F0003E87CB8ADC8AED8AFE8ACF8AD88EE98E34
:10180000FA8ECB8EDC8EED8EFE8E6BA37CA38DA329
:101810009EA3DF91CF911F910F91FF90EF90DF90EA
:10182000CF9008950895CF93DF93CDB7DEB72A9771
:101830000FB6F894DEBF0FBECDBFFC01818992893F
:10184000009741F1DB01FC0120813181F9014481E4
:10185000558128E131E03A83298312962D913C91FC
:1018600013973C832B8314962D913C9115973E83BF
:101870002D8316962D913C91179738872F831896B4
:101880002D913C9119973A872987BE016F5F7F4F51
:10189000FA0109952A960FB6F894DEBF0FBECDBFA8
:1018A000DF91CF910895CF93DF93EC010E946117F0
:1018B0006D837E838F839887DF91CF910895CF9337
:1018C000DF93FC012089211117C0EC0182819381F3
:1018D0000E944D118A819B810E949B1181E0888B1F
:1018E0000E94611769877A878B879C878CE791E0D4
:1018F000DF91CF910C94CA15DF91CF9108957F921B
:101900008F929F92AF92BF92CF92DF92EF92FF920F
:101910000F931F93CF93DF93CDB7DEB72A970FB600
:10192000F894DEBF0FBECDBFFC017684772009F4AA
:1019300084C0C72EB62E8C010E945F0C6AE871E04D
:101940008CE794E00E949B046B2D7C2D8CE794E047
:101950000E949E03F801828193810E946611F80122
:10196000E280F380F7019781A92E913110F080E198
:10197000A82EF7018085811103C0D92EDA1801C085
:10198000D12CC7010E94B61080EA0E94B9108B2C9E
:101990009C2CAA94FFEFAF1631F0F40181914F0116
:1019A0000E94B910F6CFDD2029F080E00E94B91026
:1019B000DA94F9CFC7010E94B31061E0C7010E9419
:1019C0008F10C7010E94B6108FEF0E94B910D82E59
:1019D000C7010E94B3108D2D807399F360E0C70199
:1019E0000E948F1040E767E0C7010E94D21084FF79
:1019F00004C0C7010E94C010712C88E191E09A8355
:101A000089831A8619861C830B838CE590E098875E
:101A10008F83BD82CE82BE016F5F7F4FC8010E945F
:101A2000130CF801828193810E949B110E9461171F
:101A3000F8016187728783879487872D2A960FB66E
:101A4000F894DEBF0FBECDBFDF91CF911F910F91F4
:101A5000FF90EF90DF90CF90BF90AF909F908F90CE
:101A60007F9008950F931F93CF93DF93FC012089FC
:101A7000222321F1EC01828193810E94661162E0B0
:101A800070E080E090E00E9427170A811B8160E0EF
:101A9000C8010E948F1060E0C8010E942D11482FDC
:101AA0004D7F60E0C8010E94D210188A8CE691E058
:101AB000DF91CF911F910F910C94CA15DF91CF91B7
:101AC0001F910F9108958091AB039091AC03892BE6
:101AD00001F583E190E00E94CC25FC0189E291E0D0
:101AE000918380831382128281E08483158216821F
:101AF00017821086118612861386148694E09587C5
:101B000016861786808B128A118AF093AC03E093B5
:101B1000AB038091AB039091AC030895AF92BF9259
:101B2000CF92DF92EF92FF920F931F93CF93DF93A9
:101B30001F92CDB7DEB78C016B017A01590188E0A5
:101B400090E0F80193838283158214820E94CC2551
:101B5000F80191838083F601848195818E159F051C
:101B600010F40E948B2D1982BC016E197F09A616F4
:101B7000B70608F4B501AE014F5F5F4FC8010E9480
:101B8000E111F80144815581F601608171816E0D8A
:101B90007F1DF801808191810E94710A0F90DF9171
:101BA000CF911F910F91FF90EF90DF90CF90BF905A
:101BB000AF90089523E232E0FC0121933193CF01ED
:101BC0000C943D12CF93DF93EC010E94DA0DCE010D
:101BD000DF91CF910C9461264F925F926F927F922A
:101BE0008F929F92AF92BF92CF92DF92EF92FF922D
:101BF0000F931F93CF93DF93DC0112962C91222336
:101C000009F498C0EC018BAD823009F075C00E94D8
:101C100061177E01B2E4EB0EF11CF70120813181E6
:101C20004901A12CB12C6E01FEE3CF0ED11CD601CF
:101C30000D911D912D913C9124013501401A510ABD
:101C4000620A730ADC01CB01840D951DA61DB71D28
:101C50008E010C5B1F4FF80120813181F901448115
:101C6000558160E070E084179507A607B70708F470
:101C700043C05E01F4E3AF0EB11CD7011D921C926C
:101C80000E946117F6016083718382839383D80178
:101C9000ED91FC911197668177816115710519F0BD
:101CA0006D937C9312C02CAD3DAD2F5F3F4F3DAF88
:101CB0002CAF89AD9AAD6FA978AD009719F02817B0
:101CC00039073CF4F80171836083C5010E94000666
:101CD00013C01BAED8016D937C93F7011182108263
:101CE0008EA90E94CA022CAD3DAD89AD9AAD2817D0
:101CF000390711F41DAE1CAE89A1823021F4CE014A
:101D000040960E94110B8BA98230A1F4CE018296DD
:101D1000DF91CF911F910F91FF90EF90DF90CF90C7
:101D2000BF90AF909F908F907F906F905F904F90FB
:101D30000C94110BDF91CF911F910F91FF90EF90B9
:101D4000DF90CF90BF90AF909F908F907F906F90DB
:101D50005F904F900895EF92FF920F931F93CF9350
:101D6000DF93EC018B818E010E5D1F4F9E012C5B7A
:101D70003F4F790187FF23C08E819F812DA13EA116
:101D80002817390721F09EA38DA39AAB89AB18A61B
:101D90001FA2C8010E948A0B8E859F8598AF8FABCA
:101DA000F701918380831AAE19AECE014096DF9180
:101DB000CF911F910F91FF90EF900C949C0A1BAE56
:101DC0008FA998ADF90191838083FE01EE5BFF4FEF
:101DD000118210828EA90E94CA02C8010E949C0A28
:101DE0008B8184FF03C08C859D8504C086FF12C053
:101DF000888599852DA13EA12817390721F09EA33A
:101E00008DA39AAB89AB81E090E098A78FA3C8011E
:101E10000E948A0B8B8182FF0AC0CE014096DF911F
:101E2000CF911F910F91FF90EF900C948A0BDF914F
:101E3000CF911F910F91FF90EF900895FC01828147
:101E4000882379F0938194FB882780F9861749F0DD
:101E5000662311F0906101C09F7E9383CF010C94A3
:101E6000AB0E0895FC018281882379F0938196FB63
:101E7000882780F9861749F0662311F0906401C025
:101E80009F7B9383CF010C94AB0E0895CF93DF9388
:101E9000C0914C04D0914D04E881F9810084F18512
:101EA000E02DCE010995892BB9F3E881F9810284EF
:101EB000F385E02DCE01DF91CF9109941F93CF934D
:101EC000DF93182FC0914C04D0914D048A3041F417
:101ED000E881F9810190F081E02D6DE0CE01099556
:101EE000E881F9810190F081E02D612FCE01099503
:101EF00021E030E0019711F420E030E0C901DF91EA
:101F0000CF911F91089580910401813019F081E0F3
:101F10008093040108950C946126089508950C940B
:101F20006126DC01ED91FC91369720813181820F91
:101F3000931F0C948F0FFB0120813181FC013183B1
:101F40002083FB0142815381F90136972081318141
:101F5000FC01E20FF31F51834083089521E931E032
:101F6000FC01318320832BE931E0318F208F61EA3E
:101F700071E00C949B0FDC01ED91FC913697208170
:101F80003181820F931F0C94AE0FCF93DF93EC013E
:101F90000E94AE0FCE01DF91CF910C946126DC013F
:101FA000ED91FC91369720813181820F931F0C9423
:101FB000C50F0C946126089508950C946126DC01E8
:101FC000ED91FC91369720813181820F931F0C9403
:101FD000DD0FFB0120813181FC0131832083FB0176
:101FE00042815381F901369720813181FC01E20F52
:101FF000F31F51834083089529E032E0FC013183CF
:10200000208323E132E0358B248B69E172E00C946C
:10201000E90FDC01ED91FC91369720813181820F2F
:10202000931F0C94FC0FCF93DF93EC010E94FC0FE5
:10203000CE01DF91CF910C946126DC01ED91FC91F2
:10204000369720813181820F931F0C9413100C94CA
:1020500061260895089508951F920F920FB60F926A
:1020600011248F930FB6F894A89580916000886131
:1020700080936000109260000FBE8F910F900FBE92
:102080000F901F9018954115510529F4EAE7F0E0EB
:1020900080818F7780836A307105A9F063FD02C06B
:1020A00088E001C088E26770682B88E10FB6F89479
:1020B000A895809360000FBE60936000E0E6F0E0BA
:1020C000808180648083232BA1F483B7817F846027
:1020D00083BFF89483B7816083BF85B7806685BF6F
:1020E0008F7D85BF7894889583B78E7F83BF7894E2
:1020F0000EC083B7817F846083BFF89483B781600B
:1021000083BF7894889583B78E7F83BF7894452B5F
:1021100029F4EAE7F0E08081806880830895FC017B
:1021200020813181828193812817390719F0822F0C
:102130000C9458160895CF93DF93EC019CB59F7DC6
:102140009CBD9CB5937F9CBD9CB59C7F9CBD9DB563
:1021500091609DBD8A810E9458168C899D89DF916E
:10216000CF910C94F71661E00C949B1060E00C94F6
:102170009B108EBD00000DB407FEFDCF8EB50895F7
:102180001F93CF93DF93EC010E94B61081EE0E9463
:10219000B910182FCE010E94B310812FDF91CF917B
:1021A0001F910895EF92FF921F93CF93DF9300D07A
:1021B000CDB7DEB77C014A8369830E94B61069817E
:1021C000862F8F7180620E94B910182F4A81842F48
:1021D0000E94B910C7010E94B310812F0F900F9079
:1021E000DF91CF911F91FF90EF900895CF92DF92F2
:1021F000EF92FF920F931F93CF93DF9300D01F9224
:10220000CDB7DEB77C01142F2A835B8369830E94DC
:10221000B6106981862F8F7180620E94B910082FD5
:10222000C12E5B81D52E2A81120F1C1531F0F601CB
:1022300081916F010E94B910F8CFC7010E94B310BD
:10224000802F0F900F900F90DF91CF911F910F91E2
:10225000FF90EF90DF90CF900895EF92FF921F9341
:10226000CF93DF931F92CDB7DEB77C0169830E94C5
:10227000B6106981862F8F710E94B9108FEF0E946E
:10228000B910182FC7010E94B310812F0F90DF9152
:10229000CF911F91FF90EF900895CF93DF93EC01C2
:1022A00060E00E942D1181FD0EC0482F426060E069
:1022B000CE010E94D21065E070E080E090E0DF91F6
:1022C000CF910C942717DF91CF910895CF93DF938F
:1022D000EC0160E00E948F10888999890E94F716AE
:1022E0006DE1CE010E942D1181FF07C08889998977
:1022F0000E94F716CE010E94C01060E0CE010E943D
:102300002D11482F4E7F60E0CE010E94D21062E076
:10231000CE010E942D11E0E9F0E0E49141E050E0AF
:1023200001C0440FEA95EAF7482B62E0CE01DF9145
:10233000CF910C94D210CF93DF93EC010E944D11FA
:1023400060E0CE010E942D11482F416060E0CE0177
:102350000E94D21040E767E0CE010E94D21061E0F7
:10236000CE010E948F108985882349F02E85AE0109
:10237000475F5F4F6AE0CE010E94F61014C062E032
:10238000CE010E942D11E0E9F0E0E49121E030E07F
:1023900001C0220FEA95EAF72095422F482362E018
:1023A000CE010E94D2106DE1CE010E942D1181FF5D
:1023B00005C0CE01DF91CF910C94C010DF91CF9179
:1023C0000895CF92DF92EF92FF920F931F93CF93D6
:1023D000DF93EC018C819D818617970708F03FC041
:1023E0007A018B012A813B812617370728F5CB011B
:1023F00008962817390700F5C880D9809B838A83FF
:102400000E94CC259983888320E030E08C819D81D7
:102410002817390770F4E881F981E20FF31F30972C
:1024200029F0D601A20FB31F8C9180832F5F3F4FFD
:10243000EDCFC6010E9461268C819D818017910796
:1024400058F4E881F981E80FF91F309719F0D701A6
:102450002C9120830196F2CF1D830C8305C0681751
:10246000790710F47D836C83DF91CF911F910F91D9
:10247000FF90EF90DF90CF900895FC0180819181D3
:102480000C9461260F931F93CF93DF93FC0104817B
:102490001581FB01C481D581AE010C171D0708F41D
:1024A000A801FB0160817181FC01808191810E9402
:1024B000902D009769F481E090E0C017D10740F0BB
:1024C0000C171D0710F080E090E09195819591091F
:1024D000DF91CF911F910F910895CF92DF92EF92EC
:1024E000FF920F931F93CF93DF931F92CDB7DEB769
:1024F0007C016B0188E090E0F70193838283158271
:1025000014820E94CC25F70191838083C114D104E9
:10251000B9F0F60101900020E9F731978F010C190D
:102520001D091982AE014F5F5F4FB801C7010E94BC
:10253000E111A801B601F701808191810E94710A21
:102540000F90DF91CF911F910F91FF90EF90DF904F
:10255000CF9008950895CB0108957F928F929F9216
:10256000AF92BF92CF92DF92EF92FF920F931F93A1
:10257000CF93DF93EC0149015A018B01C12CD12C7F
:102580007601C814D904EA04FB0484F5F8017190BB
:102590008F018F8580FF0BC0E881F9810084F18570
:1025A000E02D20E144E060E070E0CE010995EB858C
:1025B000FC858D859E85E817F90738F470828B8538
:1025C0009C8501969C878B870BC0E881F981672DDC
:1025D00070E0028CF38DE02DCE010995019649F053
:1025E0002FEFC21AD20AE20AF20ACBCFB401C50118
:1025F00002C0B601C701DF91CF911F910F91FF90EB
:10260000EF90DF90CF90BF90AF909F908F907F9092
:102610000895CF93DF93EC01E881F9810288F38973
:10262000E02D09958F3F2FEF920731F02D813E81EC
:102630002F5F3F4F3E832D83DF91CF9108958FEF22
:102640009FEF089560E070E0CB01089580E090E096
:102650000895CB010895CF93DF93EC018889998980
:10266000DC01ED91FC910084F185E02D0995892B29
:10267000A9F388899989DC01ED91FC910284F385A5
:10268000E02DDF91CF910994CF93DF93EC018889FE
:102690009989DC01ED91FC910084F185E02D09958B
:1026A000892BA9F388899989DC01ED91FC91048437
:1026B000F585E02DDF91CF910994AF92BF92CF9233
:1026C000DF92EF92FF920F931F93CF93DF9300D08F
:1026D00000D0CDB7DEB78C015B01C12CD12C7601C7
:1026E000F80180899189DC01ED91FC910284F385E8
:1026F000E02D29833A834B835C83099529813A81B4
:102700004B815C818F3F71F0C216D306E406F5065B
:102710004CF4D5018D935D01BFEFCB1ADB0AEB0AB8
:10272000FB0ADECFC701B6010F900F900F900F90FC
:10273000DF91CF911F910F91FF90EF90DF90CF909D
:10274000BF90AF900895DC0150968D919C91519768
:10275000DC01ED91FC910084F185E02D099480E08D
:1027600090E0089580E090E0089580E090E0089582
:1027700080E090E0089508950C9461260F931F93D4
:10278000CF93DF938C01EB016F3F8FEF780719F444
:1027900080E090E00FC06A3031F46DE0F80180898C
:1027A00091890E94B0036C2FF801808991890E9461
:1027B000B003CE01DF91CF911F910F9108958F92B9
:1027C0009F92BF92CF92DF92EF92FF920F931F934F
:1027D000CF93DF9300D000D0CDB7DEB78C014B0193
:1027E000C12CD12C7601C216D306E406F50644F5B9
:1027F000F401B1904F01FAE0BF120EC06DE0F80194
:102800008089918929833A834B835C830E94B0033A
:102810005C814B813A8129816B2DF80180899189F6
:1028200029833A834B835C830E94B003FFEFCF1A66
:10283000DF0AEF0AFF0A5C814B813A812981D3CFFD
:10284000CA01B9010F900F900F900F90DF91CF91B7
:102850001F910F91FF90EF90DF90CF90BF909F90CE
:102860008F9008952F923F924F925F926F927F9236
:102870008F929F92AF92BF92CF92DF92EF92FF9290
:102880000F931F93CF93DF938091AD039091AE038D
:10289000892B09F068C186E490E00E94CC25EC0108
:1028A00089E391E0998388831A821B8285E090E016
:1028B0000E94CC257C01FC011082128211821482BC
:1028C000138285E090E00E94CC256C011FEFFC0193
:1028D000108384E190E092838183F482E38285E037
:1028E00090E00E94CC257C0183E0F70180838EE19B
:1028F00090E092838183D482C382FD82EC8285E062
:1029000090E00E94CC255C01FC01108214821382AD
:102910008AEF282E312C3282218285E090E00E94BD
:10292000CC256C01FC01108392E3692E712C72821C
:102930006182B482A38285E090E00E94CC255C0194
:10294000FC0110822BE4822E912C92828182D4820F
:10295000C38285E090E00E94CC252C01FC0110830D
:1029600039E1C32ED12CD282C182B482A38285E008
:1029700090E00E94CC255C01FC0110829282818251
:102980005482438285E090E00E94CC25FC011083B4
:10299000D282C182B482A3829F838E8385E090E03D
:1029A0000E94CC255C01FC011082128211821482EB
:1029B000138285E090E00E94CC25FC011083728296
:1029C0006182B482A3829987888785E090E00E9423
:1029D000CC255C01FC0110821482138292828182D8
:1029E00085E090E00E94CC25FC011083D282C18258
:1029F000B482A3829B878A8785E090E00E94CC25E1
:102A00004C01FC011082148213824EEE442E42E0EF
:102A1000542E5282418285E090E00E94CC255C01D8
:102A2000FC011083728261829482838285E090E04F
:102A30000E94CC254C01FC0110828FEA90E0928329
:102A40008183B482A38285E090E00E94CC25FC01C2
:102A50001083D282C182948283829D878C8788E092
:102A600090E00E94CC256C0100E211E0FC01118392
:102A7000008313821282178216825582448288E074
:102A800090E00E94CC25FC011183008380EC9DE046
:102A90009383828335822482D782C682FF87EE8722
:102AA00001E311E0198B088B86E08A8BFC8AEB8AA4
:102AB00081E090E09E8B8D8B188E1F8A198E1A8E66
:102AC0001B8E1C8E1E8E1D8EF8A2EF8E19A261E049
:102AD00086E00E94A4161BA30AA387E08CA31EA273
:102AE0001DA218A61FA21AA619A61BA61CA61DA6E3
:102AF0001EA618AA1FA61AAA19AA1BAA61E00E945C
:102B0000A4168E859F852FE732E03DAB2CAB25E0E8
:102B10002EAB98AF8FAB1AAE19AE1BAE1DAE1CAE6E
:102B2000FE01FE9610821182128213823496118267
:102B3000108232969183808361E085E00E94A41622
:102B40008C819D812B893C892817390721F09C8B2A
:102B50008B8B98A38F8F81E090E09E8B8D8BD09391
:102B6000AE03C093AD038091AD039091AE03DF91AE
:102B7000CF911F910F91FF90EF90DF90CF90BF907A
:102B8000AF909F908F907F906F905F904F903F900D
:102B90002F900895CF93DF93BC018CE794E00E94BF
:102BA0009B04EC018CE794E00E949A038C0F9D1F1C
:102BB000DF91CF910895CF92DF92EF92FF920F9322
:102BC0001F93CF93DF938C016B01770FEE08FF0803
:102BD000F7FE12C06DE20E94B003EC0144275527B6
:102BE000BA014C195D096E097F092AE0C8010E94EB
:102BF0005103C80FD91F06C02AE0B701A6010E94E1
:102C00005103EC01C8010E949A038C0F9D1FDF91B4
:102C1000CF911F910F91FF90EF90DF90CF9008958B
:102C2000FC012281222339F0238122FD04C024608B
:102C300023830C94AB0E08950F931F93CF938C01B5
:102C400066E082ED93E00E942D11C82FC77D02300F
:102C5000110531F4C0628BE990E0A0E0B0E00DC056
:102C60000130110529F085E590E0A0E0B0E005C055
:102C7000C86081E490E0A0E0B0E08093E20390932C
:102C8000E303A093E403B093E5034C2F66E082EDE9
:102C900093E00E94D21066E082ED93E00E942D1135
:102CA00091E08C1390E0892FCF911F910F9108959F
:102CB00090E0FC01E053FE4F3491FC01E454FE4FE0
:102CC0002491FC01E855FE4FE491EE2309F43BC04A
:102CD000332339F1333091F038F43130A9F0323008
:102CE00001F584B58F7D12C0373091F03830A1F0F6
:102CF0003430B9F4809180008F7D03C080918000D2
:102D00008F77809380000DC084B58F7784BD09C014
:102D10008091B0008F7703C08091B0008F7D809349
:102D2000B000F0E0EE0FFF1FE256FE4FA591B49108
:102D30008FB7F894EC91611103C020952E2301C048
:102D40002E2B2C938FBF0895CF93DF9390E0FC013F
:102D5000E454FE4F2491FC01E855FE4F84918823F2
:102D600061F190E0880F991FFC01EC56FE4FC59170
:102D7000D491FC01E256FE4FA591B491611109C0B6
:102D80009FB7F8948881209582238883EC912E2325
:102D90000BC0623061F49FB7F8943881822F809520
:102DA00083238883EC912E2B2C939FBF06C08FB773
:102DB000F894E8812E2B28838FBFDF91CF9108955F
:102DC0008E3008F08E508770806480937C008091F4
:102DD0007A00806480937A0080917A0086FDFCCF2F
:102DE000809178002091790090E0922B08958230B4
:102DF000910538F0880F991F880F991F0597019743
:102E0000F1F708953FB7F8948091B8039091B90312
:102E1000A091BA03B091BB0326B5A89B05C02F3F74
:102E200019F00196A11DB11D3FBFBA2FA92F982FF0
:102E30008827820F911DA11DB11DBC01CD0142E06B
:102E4000660F771F881F991F4A95D1F708958F92B3
:102E50009F92AF92BF92CF92DF92EF92FF926B015F
:102E60007C010E9402174B015C01C114D104E104F2
:102E7000F104F1F00E940217DC01CB0188199909D5
:102E8000AA09BB09883E9340A105B10570F321E072
:102E9000C21AD108E108F10888EE880E83E0981E76
:102EA000A11CB11CC114D104E104F10419F7DDCF58
:102EB000FF90EF90DF90CF90BF90AF909F908F905A
:102EC00008952FB7F8946091B4037091B503809181
:102ED000B6039091B7032FBF0895CF93C82F8CE707
:102EE00094E00E949A03C23019F464E673E002C0D1
:102EF0006CE773E08CE794E00E949E038091FC03F2
:102F00009091FD030E945F0C8091FC039091FD0362
:102F1000FC0115860E94530C8091F6039091F703F3
:102F20000E94AD0B8091FA039091FB030E94AB0EBF
:102F30001092FF030E9461176093000470930104D4
:102F40008093020490930304CF9108951F920F92EF
:102F50000FB60F9211242F933F938F939F93AF93AC
:102F6000BF938091B4039091B503A091B603B09143
:102F7000B7033091B30323E0230F2D3720F40196DC
:102F8000A11DB11D05C026E8230F0296A11DB11D8C
:102F90002093B3038093B4039093B503A093B60337
:102FA000B093B7038091B8039091B903A091BA038D
:102FB000B091BB030196A11DB11D8093B8039093FE
:102FC000B903A093BA03B093BB03BF91AF919F9194
:102FD0008F913F912F910F900FBE0F901F901895DA
:102FE000CF93DF93CDB7DEB7E2970FB6F894DEBF8D
:102FF0000FBECDBF789484B5826084BD84B58160F6
:1030000084BD85B5826085BD85B5816085BD8091B3
:103010006E00816080936E0010928100809181002B
:103020008260809381008091810081608093810023
:10303000809180008160809380008091B1008460E5
:103040008093B1008091B00081608093B000809146
:103050007A00846080937A0080917A008260809305
:103060007A0080917A00816080937A0080917A0062
:10307000806880937A001092C10061E088E00E942D
:10308000A41661E087E00E94A41661E086E00E9439
:10309000A41661E085E00E94A416E0918C04F091F2
:1030A0008D0482E08083E0918804F091890410828D
:1030B000E0918A04F0918B0480E180831092940463
:1030C000E0919004F091910486E08083E0918E0479
:1030D000F0918F04808180618083E0918E04F09173
:1030E0008F04808188608083E0918E04F0918F044A
:1030F000808180688083E0918E04F0918F048081CC
:103100008F7D808389EC90E00E94CA158CEB9CE651
:10311000ABE9B6E48093260490932704A093280497
:10312000B093290481E0809349040091EA0310914F
:10313000EB0382ED93E0D80113969C938E93129744
:103140008091D2039091D3032091D4033091D50381
:103150008217930719F061E00E94A4168091D403AE
:103160009091D5032091D2033091D30328173907CA
:1031700019F061E00E94A416FFB6F89480919003C4
:10318000811127C0E2EBF1E08491E6ECF1E094914B
:10319000E82FF0E0EE0FFF1FEC56FE4FA591B49123
:1031A000EC91E92321F461E08AE00E94581661E085
:1031B0008AE00E94A4168CB580618CBD8CB58064B9
:1031C0008CBD61E08DE00E94A41661E08BE00E945E
:1031D000A416809190038F5F80939003FFBE60E000
:1031E00082ED93E00E948F1061E082ED93E00E94F7
:1031F0009B1065E070E080E090E00E9427174CE0B3
:1032000060E082ED93E00E94D2104FE564E082ED31
:1032100093E00E94D21082E090E00E941C16882366
:1032200019F081E08093D80366E082ED93E00E947C
:103230002D11F82E80E090E00E941C1682ED93E0A4
:103240000E94B61080E50E94B91083E70E94B91071
:1032500082ED93E00E94B31040E06DE182ED93E0D7
:103260000E94D21040E06CE182ED93E00E94D21007
:103270001092DA0340E767E082ED93E00E94D210FB
:103280004CE465E082ED93E00E94D21082ED93E081
:103290000E94B61082EE0E94B91082ED93E00E9467
:1032A000B31082ED93E00E94C01082ED93E00E9483
:1032B0004D1160E082ED93E00E942D11482F4E7F6A
:1032C00060E082ED93E00E94D2108FEF8F0D8E3F71
:1032D00008F08AC044E864E082ED93E00E94D210D6
:1032E00040E06DE182ED93E00E94D21040E06CE19D
:1032F00082ED93E00E94D2101092DA0380E1809375
:10330000D90382E08BA31CA21DA21EA21FA218A695
:1033100019A61AA62091E003AE014D5D5F4F6AE049
:1033200082ED93E00E94F6102091E003AE014D5D26
:103330005F4F60E182ED93E00E94F6104091D90367
:1033400061E182ED93E00E94D210FF24F394FB8EA2
:103350001C8E1D8E1E8E1F8E18A219A21AA2EDE9B8
:10336000F0E064912091E003AE01455E5F4F82ED95
:1033700093E00E94F610E7E9F0E064914091D903F0
:1033800082ED93E00E94D21062E082ED93E00E9411
:103390002D11E1E9F0E0E49141E050E001C0440F7B
:1033A000EA95EAF7482B62E082ED93E00E94D210A2
:1033B00066E082ED93E00E942D11887F482F4360E4
:1033C00066E082ED93E00E94D21082E090E00E94DD
:1033D0001C1682ED93E00E949B11F801F6868EEA9E
:1033E00090E00E94CA1507C082EA90E00E94CA15C8
:1033F000D8011E961C92C8010E94530C0091EA034A
:103400001091EB03F80117860E946117D8011996F5
:103410006D937D938D939C931C97809191039091D4
:103420009203892B09F0A0C08AE290E00E94CC258B
:103430008C0180E191E0F8019183808312821382F4
:1034400014821582168210861782AA24A394B12CA6
:10345000B286A1864FE2442E48EC542E47E9642EF2
:1034600049E4742E438654866586768680E090EC27
:10347000AFE7B4E4838B948BA58BB68B878B908F4F
:10348000A18FB28F838F948FA58FB68F0E94021762
:10349000D80193966D937D938D939C939697979671
:1034A0001C92979799961C921E9298978EE00E9474
:1034B000E016BC0180E090E00E94702B2FED3FE40D
:1034C00045E550E40E94C42C20E030EC4FE754E482
:1034D0000E948E2A26E933E44BE45FE30E948E2AA1
:1034E0002FE832EC45EF5CE30E941C2A20E030E03C
:1034F00048EC52E40E94C42C0E943A2B80E090E0F9
:103500000E94702B6B017C010E940217F801B286A9
:10351000A1864386548665867686C38AD48AE58AE0
:10352000F68AC78AD08EE18EF28EC38ED48EE58E57
:10353000F68E63A374A385A396A3B701A601C80161
:1035400009960E9418050E94412BF80127813085B9
:103550002617370729F070876783C8010E944F0933
:103560001093920300939103E0919103F0919203E1
:10357000F0939403E0939303F093F703E093F6033F
:10358000A091F803B091F90324E0AF31B20791F0B4
:10359000109721F09C961C921E929B9782EF93E0CD
:1035A00090934B0480934A048FE194E09093F90345
:1035B0008093F803309721F080EF93E091A780A7E4
:1035C000E091F803F091F903309721F082EF93E056
:1035D00094A783A7E091FC03F091FD03309721F0BD
:1035E00084EF93E0928B818B8091FA039091FB039F
:1035F000009759F00E941016E091FA03F091FB0336
:103600008281811102C081E08283E091F603F09112
:10361000F70367A18091FA039091FB030E94320F98
:10362000E091FC03F091FD03648111E0612780913A
:10363000FA039091FB030E941E0F8091FA03909170
:10364000FB030E941016E091FA03F091FB038281C4
:10365000811101C012836BE872E08CE794E00E9454
:103660009E038091FC039091FD030E945F0C80916A
:10367000FC039091FD03DC011D961C920E94530CEB
:103680008091F6039091F7030E94AD0B8091FA03AD
:103690009091FB030E94AB0E60E082E00E94A416B2
:1036A0000E9461176093BC037093BD038093BE03B7
:1036B0009093BF036AEB70E08CE794E00E949B0458
:1036C0008091970590919805FE0131967F01BF0189
:1036D000681B790B8CE794E00E94DB159E012F5E3E
:1036E0003F4F190121E4422E23E4522E2BE4622E97
:1036F000712C0E9461178091FF0381112EC20091ED
:10370000F8031091F903D8019A968C91882309F453
:103710004EC00E946117F80185A096A0A7A0B0A492
:10372000AB01BC01481959096A097B0983A194A11D
:10373000A0E0B0E0481759076A077B07C0F1828113
:103740000E94E016BC01990F880B990B0E94722B06
:10375000AB01BC01C80105960E9418050E94412BCF
:10376000F8012381348126173707D1F0D801149648
:103770007C936E9313973CA72BA79B968D919C915E
:103780009C97009769F0DC01ED91FC910480F58134
:10379000E02D9E01255D3F4F40E050E0B8010995C6
:1037A0000E946117F80165A376A387A390A70091F3
:1037B000F6031091F7030E946117D80113968D90BC
:1037C0009D90AD90BC901697DC01CB0188199909AA
:1037D000AA09BB0984369105A105B10508F45AC0B0
:1037E000F8018281823008F055C08EE00E94E01618
:1037F000BC0180E090E00E94702B2FED3FE445E596
:1038000050E40E94C42C20E030EC4FE754E40E94C6
:103810008E2A26E933E44BE45FE30E948E2A2FE8E8
:1038200032EC45EF5CE30E941C2A20E030E048ECDB
:1038300052E40E94C42C0E943A2B072E000C880BE5
:10384000990B0E94722BAB01BC01C80109960E9422
:103850001805D80112962C91213069F40E94412B51
:10386000F801278130852617370729F0708767838D
:10387000C8010E944F090E946117D80113966D93E9
:103880007D938D939C93169712968C9112978F5FD0
:1038900012968C930091FC031091FD03F80186852C
:1038A000882309F411C167E1828193810E942D115F
:1038B00080FFB5C14CC0C6010E94B31040E767E06D
:1038C000C6010E94D21020E3298BC8010E94530C2C
:1038D000E4E0D8011D96EC931D9714968C911497F3
:1038E00081111AC0F1E01496FC93FEA728E131E0A3
:1038F0003A8B298B1A8E198E1C8B0B8B4AE550E064
:10390000588F4F8B8EE290E08C0F9D1F9E8B8D8B7E
:10391000B101C8010E94130CA8E1B1E0BA8BA98BD8
:103920001A8E198E1C8B0B8BEBE5F0E0F88FEF8B6A
:10393000FE8AED8AB101C8010E94130C0E94611732
:10394000D80119966D937D938D939C931C970E943B
:103950006117F80185809680A780B0842685222390
:1039600009F486C09B01AC01281939094A095B0991
:1039700049015A018585882341F0813049F5293C68
:1039800031054105510508F462C0498A5A8A6B8A9B
:103990007C8A3F922F92ACE9B2E0BF93AF93FF9243
:1039A000EF920E949E2DB701C8010E947F0CC801B2
:1039B0000E94530CD8011D968C911D978F5F1D9608
:1039C0008C930F900F900F900F900F900F903FC01F
:1039D000823069F4293C310541055105C0F1C80127
:1039E0000E94530CF80185858F5F858730C0833036
:1039F00071F5293C31054105510548F1D80114966E
:103A00008C9114978823C9F014961C921DA6E8E1A6
:103A1000F1E0FA83E9831A8619861C830B832AE571
:103A200030E038872F834DE250E04C0F5D1F5E83FE
:103A30004D83B701C8010E94130CC8010E94530CAA
:103A4000D8011D968C911D978F5F1D968C93F80160
:103A50008585843069F4F9EF8F16FAE29F06A10498
:103A6000B10430F0D8011D961C92C8010E94530C7D
:103A7000F8018785882341F18685882329F10E94F2
:103A80006117D80119968D909D90AD90BC901C97B0
:103A90009B01AC01281939094A095B0949015A01FE
:103AA00050968C91882351F0F1EB8F16F4E09F062D
:103AB000A104B10418F0C8010E94320DD80150963B
:103AC0008C91882309F4DBC08091FA039091FB0369
:103AD0000E94EC0D0E9461176FA778AB89AB9AAB7F
:103AE0008090000490900104A0900204B090030420
:103AF0000E946117009104041091050420910604AE
:103B000030910704DC01CB01801B910BA20BB30B9E
:103B10002091FE03211110C00FA518A929A93AA9C7
:103B2000081919092A093B09083E134021053105E6
:103B300018F021E02093FF0384369105A105B1051B
:103B400008F4D9CD0E9461176093040470930504B2
:103B50008093060490930704CECD62EA72E08CE76E
:103B600094E00E949E038091FC039091FD030E94CB
:103B7000320D0E9461174B015C010E946117DC014C
:103B8000CB0188199909AA09BB09CC97A105B105F0
:103B900088F48091FA039091FB030E94EC0D0E943F
:103BA0006117609300047093010480930204909362
:103BB0000304E3CF1092040183E89FE09093010196
:103BC0008093000180916900836080936900E89A86
:103BD00020E030E040E050E068E070E085E993E00C
:103BE0000E944310E8988EE191E090930101809348
:103BF000000180910401813039F482E00E946D1748
:103C000083E08093040108C0811106C083E08093A3
:103C1000040181E00E946D170E941F026ACDD80145
:103C20001296CD90DC901397F6018781803128F1B0
:103C300090E1B92ED60118969C91911103C0A82E3F
:103C4000AB1801C0A12CC6010E94B61081E60E94EB
:103C5000B9104701BA94FFEFBF1639F08FEF0E94F9
:103C6000B910F40181934F01F5CFAA2009F423CEB6
:103C70008FEF0E94B910AA94F8CFB82EDBCFBDE128
:103C80008B16B5E29B06A104B10408F41DCFC80150
:103C90000E945F0CF801828193810E949B1114CFD6
:103CA000089508950C94612602970C94521E04976F
:103CB0000C94521E4F925F926F927F92AF92BF927E
:103CC000CF92DF92EF92FF920F931F93CF93DF93E8
:103CD000CDB7DEB764970FB6F894DEBF0FBECDBF89
:103CE000DC0118962D913C9119976217730709F022
:103CF000FCC1FB018C01E380F4801A96ED91FC91EC
:103D00001B97B5E0EB16F104E8F081E0D8011E96B0
:103D10008C938281882341F0838187FD05C0806870
:103D20008383CF010E94AB0EF801C484D584D601F1
:103D30001F961C920E946117F60161877287838724
:103D4000948725C0DC011E961C928281882341F055
:103D5000838187FF05C08F778383CF010E94AB0EDD
:103D6000F801C484D58481E0D6011F968C930E940B
:103D70006117F60161877287838794870E946117B4
:103D8000D80150966D937D938D939C935397F80132
:103D9000828D813011F081E0828FF6E0EF16F10420
:103DA00008F4A6C0D80197968C919797813081F03E
:103DB00081E097968C930E946117F80161A772A722
:103DC00083A794A76DEC72E08CE794E00E949E03B9
:103DD000D8015B968D919C915C978E159F0508F09C
:103DE000F9C05C96FC92EE925B970E946117F80115
:103DF00041A452A463A474A464197509860997099F
:103E00000E94702B20E030E04AE754E40E948E2AA2
:103E10002B013C01D80198968C916801C80ED11CE9
:103E2000C80ED11CB7016550710980E090E00E9476
:103E3000702BA30192010E948E2A20E030E048EC12
:103E400052E40E94C42C0E94412BF601768F658FAC
:103E50006DED72E08CE794E00E949904D8015B96C6
:103E60004D915C915C9760E070E02AE08CE794E013
:103E70000E9451036DEE72E08CE794E00E94990479
:103E800022E0B301A2018CE794E00E94B703F8019D
:103E9000C0A4D12CFFEFCF1ADF0A85E0C816D104E9
:103EA00011F4C12CD12C65EF72E08CE794E00E94F4
:103EB0009904D80198964C9150E060E070E02AE0B7
:103EC0008CE794E00E9451036AEF72E08CE794E083
:103ED0000E949904B6018CE794E00E94DB15F8017A
:103EE00080A58F5F853011F080A774C010A672C0C6
:103EF000B3E0EB16F10408F06DC0F80187A1813042
:103F000009F068C017A2148E138E64E273E08CE788
:103F100094E00E949E03F80180A590E08530910511
:103F200009F4E0C0880F991FF801E80FF91F658DAB
:103F3000768D80E090E00E94702B20E030E048EC2D
:103F400052E40E948E2A2B013C0160E073E08CE772
:103F500094E00E9499046801FDE1CF0ED11C580144
:103F600087E2A80EB11CD6014D915D916D0160E014
:103F700070E02AE08CE794E00E9451036AE073E06D
:103F80008CE794E00E949904CA14DB0461F76DE0A9
:103F900073E08CE794E00E94990422E0B301A2014F
:103FA0008CE794E00E94B70366E173E08CE794E04D
:103FB0000E9499048CE794E00E949A03F801168EFF
:103FC000158E10A2178E12A211A214A213A216A26D
:103FD00015A210A688E496E5A1E3B0E0898B9A8B40
:103FE000AB8BBC8B2701612C712CC301B2010E94E9
:103FF000702B2FED3FE445E550E40E94C42C2CE6E5
:104000003CE741EC5DE30E948E2A0E94412B6B014C
:104010007C01DF926F93CE0141969F938F938BE14A
:1040200093E09F938F93CE0101965C019F938F93B2
:104030000E949E2DB501D8011C968D919C911D97D3
:104040000E947F0C6DEE70E08CE794E00E949B0470
:104050002AE0B301A2018CE794E00E94510362EED2
:1040600070E08CE794E00E949B04D8011896ED91D3
:10407000FC9119976381748180E090E00E94702B1D
:104080002FED3FE445E550E40E94C42C20E030ECE5
:104090004FE754E40E948E2A20E030E0A9010E94FC
:1040A0001D2AAB01BC0122E08CE794E00E94B7031B
:1040B00063ED70E08CE794E00E949B04A60160E051
:1040C00070E02AE08CE794E00E9451036AE373E019
:1040D0008CE794E00E949E030FB6F894DEBF0FBEFB
:1040E000CDBF03C080E090E01DCF64960FB6F8947A
:1040F000DEBF0FBECDBFDF91CF911F910F91FF901B
:10410000EF90DF90CF90BF90AF907F906F905F90D7
:104110004F90089502970C945A1E6F927F928F923F
:104120009F92AF92BF92CF92DF92EF92FF920F9346
:104130001F93CF93DF93CDB7DEB7EC970FB6F8940C
:10414000DEBF0FBECDBFFB0142815381FC01248540
:1041500035854217530709F0CEC1FB015C0186810A
:1041600097818A35910509F4E4C08B35910509F0F2
:10417000C2C1E480F5806DEF70E08CE794E00E94AE
:104180009B04B7018CE794E00E949E038E010F5FB1
:104190001F4FA801B701CE01C4960E946D1238E0EE
:1041A000E32EF12CF8AAEFA61AAA19AA88E090E04B
:1041B0000E94CC259EA78DA7F9A6E8A61BA61AA645
:1041C00088E390E00E94CC259FA38EA3E090470552
:1041D000F0904805E0914305F0914405ACA9BDA9D4
:1041E000CF018E0D9F1DE817F90709F4BBC031916F
:1041F0002D913217C1F34FC08CAF6BA17CA16F5FC3
:104200007F4FAE01445C5F4FCE014F960E94E1119B
:10421000FFEFEF1AFF0A28AD39AD8CA99DA9820FD7
:10422000931FC816D90649F0F60181916F018D33AD
:1042300019F7E114F10409F0A2C02BA13CA121154A
:10424000310529F12150310941E050E0BE01615EA4
:104250007F4FC8010E94E308E9A8FAA86D817E811A
:104260006E0D7F1D188EAE01485E5F4FCE018D969C
:104270000E94E1114D815E8169817A818DA59EA5A3
:104280008E0D9F1D0E94710AC8010E943D12CE0131
:104290004F960E943D1266E675E0CE018D960E9413
:1042A0004212892BF9F481E493E4A2E5B0E0898B12
:1042B0009A8BAB8BBC8BCE0141969F938F938CE9ED
:1042C00092E09F938F931F930F930E949E2D0E94C5
:1042D000630DB8010E947F0C0F900F900F900F900C
:1042E0000F900F900E946117F501608B718B828B8C
:1042F000938BE12CF12C00E010E02AA53BA58EA1C8
:104300009FA10217130750F48E0D9F1D0E943D12AE
:104310000F5F1F4FF7E0EF0EF11CEFCF0E946126F9
:10432000CE018D960E943D12CE01C4960E943D1290
:10433000E2C00480F581E02D108169E171E08CE735
:1043400094E00E949B04612F70E08CE794E00E944F
:10435000DB1581E0612F6827F501828593850E9436
:104360001E0FC9C0A80162EB72E0CE014F960E94F9
:104370006D12CCA8DDA8F2E0CF0ED11C4CCF6FEFB0
:10438000E61AF60A21503109A701BE016C5C7F4F85
:10439000CE0148960E94E308AE01455C5F4F64E29F
:1043A00071E0CE0141960E946D122D893E898C8D5F
:1043B0009D8D8217930720F4CC24CA94DC2C21C055
:1043C00001964C01821A930AC12CD12CC814D9042D
:1043D00099F32D893E89A601BE01685E7F4FC80111
:1043E0000E94E308B801CE0141960E9442123C01AE
:1043F000C8010E943D12672821F08FEFC81AD80A21
:10440000E5CFCE0141960E943D12CD20C09409F423
:104410005AC08C8D9D8DE88DF98DE12CF12CE8161C
:10442000F90651F021912C3219F4C12CD12C18C06D
:104430002FEFE21AF20AF3CFEE24EA94FE2CF5CF26
:10444000EFEFEE1AFE0AE216F30658F5FC01EE0D48
:10445000FF1D60816C32A1F76FEFE616F60609F1D9
:10446000FFEFEF16FF0609F441C097012C193D0933
:10447000A601BE01685E7F4FC8010E94E308B80133
:10448000CE0186960E941B08C8010E943D12A7011A
:104490004F5F5F4F6A012C8D3D8D888D998D7A011C
:1044A000D2CFBE01685E7F4FC8010E94E308B80109
:1044B000CE0186960E941B08C8010E943D12EE2480
:1044C000EA94FE2CCDCF28AD39AD21503109A7019A
:1044D000BE016C5C7F4FC8010E94E308B801CE01A9
:1044E00086960E941B08C8010E943D12CE01489684
:1044F0000E943D12A2CEEC960FB6F894DEBF0FBE1E
:10450000CDBFDF91CF911F910F91FF90EF90DF9082
:10451000CF90BF90AF909F908F907F906F900895B5
:1045200004970C948D200F931F93CF93DF931F92CA
:10453000CDB7DEB70CE714E010927F0410927E0432
:1045400088EE93E0A0E0B0E0809380049093810433
:10455000A0938204B093830489E691E090937D0454
:1045600080937C0485EC90E0909389048093880488
:1045700084EC90E090938B0480938A0480EC90E02C
:1045800090938D0480938C0481EC90E090938F0441
:1045900080938E0482EC90E0909391048093900439
:1045A00086EC90E09093930480939204109295048B
:1045B000109296041092970410929804AE014F5FE7
:1045C0005F4F66E373E080E995E00E946D12AE01F3
:1045D0004F5F5F4F69E373E089E895E00E946D12D9
:1045E000AE014F5F5F4F6CE373E082E895E00E949D
:1045F0006D12AE014F5F5F4F61E473E08BE795E0B2
:104600000E946D12AE014F5F5F4F65E473E084E777
:1046100095E00E946D12AE014F5F5F4F69E473E059
:104620008DE695E00E946D12AE014F5F5F4F6DE425
:1046300073E086E695E00E946D12AE014F5F5F4F1A
:1046400061E573E08FE595E00E946D12AE014F5F6A
:104650005F4F65E573E088E595E00E946D12AE015D
:104660004F5F5F4F69E573E081E595E00E946D1251
:10467000AE014F5F5F4F6DE573E08AE495E00E9405
:104680006D12AE014F5F5F4F61E673E083E495E02A
:104690000E946D12E1E2F0E0F0933105E093300505
:1046A00010923205109233051092340546E050E026
:1046B00060E070E040933505509336056093370510
:1046C000709338051092390510923A0510923B0507
:1046D00010923C0520E220933D0510923F05109278
:1046E0003E05109242058BE195E090934105809341
:1046F000400589E092E090931A058093190583E1C3
:1047000092E090932E0580932D0510921F05109234
:104710001E0510922105109220051092230510927B
:10472000220510922505109224051092270510925B
:104730002605109229051092280587EE91E09093A6
:104740001C0580931B0510932C0500932B0530E16D
:1047500030932A05F0936A04E093690410926B0485
:1047600010926C0410926D0440936E0450936F0489
:104770006093700470937104109272041092730429
:1047800010927404109275042093760410927804A9
:104790001092770410927B041092500410925104EE
:1047A000109252041092530424E534E030937A04BA
:1047B0002093790421E931E030934F0420934E0493
:1047C0002BE931E03093670420936604109258047B
:1047D0001092570410925A041092590410925C04DB
:1047E00010925B0410925E0410925D0410926004BB
:1047F00010925F0410926204109261049093550429
:1048000080935404109365040093640488E08093BB
:10481000630410934D0400934C0466E47FE08EE53E
:104820009FE00E94F92687E892E09093200480930D
:104830001F048FE08093210410922304109222041D
:1048400081E090E0909325048093240484E991EF23
:10485000A6E4B5E48093260490932704A09328044B
:10486000B093290410922E0410922F041092300459
:1048700010923104109232041092330410923404D6
:1048800010923504109236041092370410923804B6
:10489000109239040E94021760933E0470933F0403
:1048A000809340049093410480E490E0909343040B
:1048B00080934204109244041092450410924604DE
:1048C0001092470481E08093480480934904109239
:1048D0004B0410924A048091AF039091B003892B4E
:1048E000E9F483E090E00E94CC258C0187E792E018
:1048F000F8019183808382E0828361E084E00E94FA
:10490000A416F8018281882329F0128260E084E0F5
:104910000E9458161093B0030093AF038091AF0329
:104920009091B00390931E0480931D048DE392E058
:104930009093F1038093F0038DE492E09093F3035E
:104940008093F20387E592E09093F5038093F4035C
:104950001092F7031092F6031092F9031092F803E5
:104960000E9432149093FB038093FA030E94630D1C
:104970009093FD038093FC031092FE031092FF03BB
:104980000E946117609300047093010480930204F5
:10499000909303040E9461176093040470930504CC
:1049A000809306049093070485E392E090930904B2
:1049B0008093080410920A0410920C0410920B04C5
:1049C00010921704109218041092190410921A04ED
:1049D00010921B0410921C0410920E0410920D04ED
:1049E0001092100410920F041092120410921104ED
:1049F00010921404109213041092160410921504CD
:104A00000E9432149093EF038093EE038091B103E0
:104A10009091B203892BC9F489E090E00E94CC25E3
:104A20008C0183E292E0F8019183808388E090E03A
:104A300095838483178216820E94CC25F801938384
:104A400082831093B2030093B1038091B1039091DC
:104A5000B2039093ED038093EC030E94630D909357
:104A6000EB038093EA0389E090E09093D303809373
:104A7000D2038AE090E09093D5038093D403109200
:104A8000D80380E28093D9031092DA0385E0809303
:104A9000E00345E050E060E070E04093E6035093AF
:104AA000E7036093E8037093E9031092DB032FE7B9
:104AB00032E03093C1032093C0038093C20310926D
:104AC000C4031092C3031092C6031092C503109240
:104AD000C7031092C9031092C8031092CA03109220
:104AE000CB031092CC031092CD031092CF031092FF
:104AF000CE031092D1031092D00361E00E94A4165D
:104B00000E9461176093BC037093BD038093BE0342
:104B10009093BF030F90DF91CF911F910F91089554
:104B200080EF93E00E948A098EE494E00E94AE0F29
:104B300089E195E00E94FC0F83E495E00E943D121C
:104B40008AE495E00E943D1281E595E00E943D12C5
:104B500088E595E00E943D128FE595E00E943D12A8
:104B600086E695E00E943D128DE695E00E943D129A
:104B700084E795E00E943D128BE795E00E943D128C
:104B800082E895E00E943D1289E895E00E943D127E
:104B900080E995E00C943D12CF93DF93823091052C
:104BA00010F482E090E0E0919905F0919A0520E000
:104BB00030E0C0E0D0E0309711F1408151814817DA
:104BC0005907C0F04817590761F4828193812097F3
:104BD00019F09B838A832BC090939A058093990543
:104BE00026C02115310519F04217530718F49A0110
:104BF000BE01DF01EF010280F381E02DDCCF211542
:104C0000310509F1281B390B2430310590F4129637
:104C10008D919C9113976115710521F0FB01938390
:104C2000828304C090939A0580939905FD01329682
:104C300044C0FD01E20FF31F81939193225031098B
:104C40002D933C933AC02091970530919805232BE2
:104C500041F4209108013091090130939805209387
:104C6000970520910601309107012115310541F486
:104C70002DB73EB740910A0150910B01241B350B13
:104C8000E0919705F0919805E217F307A0F42E1B29
:104C90003F0B2817390778F0AC014E5F5F4F2417A0
:104CA000350748F04E0F5F1F5093980540939705C6
:104CB0008193919302C0E0E0F0E0CF01DF91CF91CA
:104CC00008950F931F93CF93DF93009709F48CC03F
:104CD000FC013297138212820091990510919A0576
:104CE0000115110581F420813181820F931F2091DC
:104CF0009705309198052817390779F5F0939805AD
:104D0000E093970571C0D80140E050E0AE17BF07AF
:104D100050F412962D913C911397AD012115310558
:104D200009F1D901F3CF9D01DA0133832283608138
:104D30007181860F971F8217930769F4EC01288110
:104D40003981260F371F2E5F3F4F318320838A81A1
:104D50009B8193838283452B29F4F0939A05E093FA
:104D6000990542C01396FC93EE931297ED01499179
:104D700059919E01240F351FE217F30771F48081CA
:104D80009181840F951F029611969C938E93828138
:104D9000938113969C938E931297E0E0F0E0D801F4
:104DA00012968D919C911397009719F0F8018C0140
:104DB000F6CF8D919C9198012E5F3F4F820F931FEC
:104DC00020919705309198052817390769F4309795
:104DD00029F410929A051092990502C0138212824A
:104DE0001093980500939705DF91CF911F910F9134
:104DF00008950F931F93CF93DF93009731F46115BC
:104E0000710519F480E090E03AC08B01EC016EE08E
:104E100070E081E090E00E941629FC01892B91F35B
:104E200080E883830115110571F01387028781E8FB
:104E3000838380919B0590919C05892B21F4F093AD
:104E40009C05E0939B052097C9F0D187C08783819B
:104E50008260838380919D0590919E05892B71F4DA
:104E6000F0939E05E0939D0580919F059091A0058C
:104E7000892B21F4F093A005E0939F05CF01DF91EA
:104E8000CF911F910F910895ACE0B0E0EAE4F7E212
:104E90000C94E5297C016B018A01FC0117821682C2
:104EA000838181FFBDC1CE0101964C01F701938141
:104EB000F60193FD859193FF81916F01882309F499
:104EC000ABC1853239F493FD859193FF81916F01D8
:104ED000853229F4B70190E00E944F29E7CF512C89
:104EE000312C20E02032A0F48B3269F030F4803293
:104EF00059F0833269F420612CC08D3239F080334F
:104F000039F4216026C02260246023C0286021C0BB
:104F100027FD27C030ED380F3A3078F426FF06C061
:104F2000FAE05F9E300D1124532E13C08AE0389EA4
:104F3000300D1124332E20620CC08E3221F426FD58
:104F40006BC1206406C08C3611F4206802C088361C
:104F500041F4F60193FD859193FF81916F018111D9
:104F6000C1CF982F9F7D9554933028F40C5F1F4F2D
:104F7000FFE3F9830DC0833631F0833771F0833559
:104F800009F05BC022C0F801808189830E5F1F4F4A
:104F900044244394512C540115C03801F2E06F0EA3
:104FA000711CF801A080B18026FF03C0652D70E060
:104FB00002C06FEF7FEFC5012C870E9444292C01AE
:104FC00083012C852F77222E17C03801F2E06F0E57
:104FD000711CF801A080B18026FF03C0652D70E030
:104FE00002C06FEF7FEFC5012C870E9432292C0190
:104FF0002C852068222E830123FC1BC0832D90E08A
:1050000048165906B0F4B70180E290E00E944F299B
:105010003A94F4CFF50127FC859127FE81915F0139
:10502000B70190E00E944F2931103A94F1E04F1AF5
:1050300051084114510471F7E5C0843611F08936E6
:1050400039F5F80127FF07C0608171818281938162
:105050000C5F1F4F08C060817181072E000C880B08
:10506000990B0E5F1F4F2F76722E97FF09C09095F8
:105070008095709561957F4F8F4F9F4F2068722E5E
:105080002AE030E0A4010E948729A82EA81844C075
:10509000853729F42F7EB22E2AE030E025C0F22F8A
:1050A000F97FBF2E8F36C1F018F4883579F0B4C07F
:1050B000803719F0883721F0AFC02F2F2061B22E32
:1050C000B4FE0DC08B2D8460B82E09C024FF0AC029
:1050D0009F2F9660B92E06C028E030E005C020E181
:1050E00030E002C020E132E0F801B7FE07C0608185
:1050F0007181828193810C5F1F4F06C06081718135
:1051000080E090E00E5F1F4FA4010E948729A82E27
:10511000A818FB2DFF777F2E76FE0BC0372D3E7F24
:10512000A51450F474FE0AC072FC08C0372D3E7EF0
:1051300005C0BA2C372D03C0BA2C01C0B52C34FFE2
:105140000DC0FE01EA0DF11D8081803311F4397E1E
:1051500009C032FF06C0B394B39404C0832F86788D
:1051600009F0B39433FD13C030FF06C05A2CB314BA
:1051700018F4530C5B18B32CB31468F4B70180E235
:1051800090E03C870E944F29B3943C85F5CFB3143F
:1051900010F43B1801C0312C34FF12C0B70180E37A
:1051A00090E03C870E944F293C8532FF17C031FDBB
:1051B00003C088E790E002C088E590E0B7010CC02A
:1051C000832F867859F031FF02C08BE201C080E264
:1051D00037FD8DE2B70190E00E944F29A51438F405
:1051E000B70180E390E00E944F295A94F7CFAA9428
:1051F000F401EA0DF11D8081B70190E00E944F2972
:10520000A110F5CF332009F451CEB70180E290E030
:105210000E944F293A94F6CFF7018681978102C008
:105220008FEF9FEF2C96E2E10C94012A0F931F93CE
:10523000CF93DF93869F8001879F100D969F100D5F
:105240001124C8010E94CC25EC01009729F0A80187
:1052500060E070E00E943D29CE01DF91CF911F9167
:105260000F910895FC010590615070400110D8F72E
:10527000809590958E0F9F1F0895DC0101C06D935E
:1052800041505040E0F70895FC016150704001909A
:105290000110D8F7809590958E0F9F1F08950F935A
:1052A0001F93CF93DF93FB01238121FD03C08FEF79
:1052B0009FEF28C022FF16C0468157812481358187
:1052C0004217530744F4A081B1819D012F5F3F4FE6
:1052D000318320838C93268137812F5F3F4F378323
:1052E000268310C0EB01092F182F0084F185E02DD3
:1052F0000995892BE1F68E819F8101969F838E838C
:10530000812F902FDF91CF911F910F910895FA0176
:10531000AA27283051F1203181F1E8946F936E7FF4
:105320006E5F7F4F8F4F9F4FAF4FB1E03ED0B4E0E5
:105330003CD0670F781F891F9A1FA11D680F791F26
:105340008A1F911DA11D6A0F711D811D911DA11D37
:1053500020D009F468943F912AE0269F1124301947
:10536000305D3193DEF6CF010895462F4770405DE2
:105370004193B3E00FD0C9F7F6CF462F4F70405D91
:105380004A3318F0495D31FD4052419302D0A9F7EC
:10539000EACFB4E0A6959795879577956795BA95E6
:1053A000C9F700976105710508959B01AC010A2EAC
:1053B00006945795479537952795BA95C9F7620F83
:1053C000731F841F951FA01D08952F923F924F9227
:1053D0005F926F927F928F929F92AF92BF92CF9285
:1053E000DF92EF92FF920F931F93CF93DF93CDB78E
:1053F000DEB7CA1BDB0B0FB6F894DEBF0FBECDBF06
:1054000009942A88398848885F846E847D848C84D6
:105410009B84AA84B984C884DF80EE80FD800C81DF
:105420001B81AA81B981CE0FD11D0FB6F894DEBFC2
:105430000FBECDBFED0108955058BB27AA270E948B
:10544000342A0C940F2C0E94012C38F00E94082C56
:1054500020F039F49F3F19F426F40C94D72B0EF466
:10546000E095E7FB0C94D12BE92F0E94202C58F3F8
:10547000BA17620773078407950720F079F4A6F539
:105480000C94422C0EF4E0950B2EBA2FA02D0B019C
:10549000B90190010C01CA01A0011124FF27591B79
:1054A00099F0593F50F4503E68F11A16F040A22F7F
:1054B000232F342F4427585FF3CF469537952795F0
:1054C000A795F0405395C9F77EF41F16BA0B620BEF
:1054D000730B840BBAF09150A1F0FF0FBB1F661F36
:1054E000771F881FC2F70EC0BA0F621F731F841F79
:1054F00048F4879577956795B795F7959E3F08F09F
:10550000B0CF9395880F08F09927EE0F9795879560
:1055100008950E94AD2B08F481E008950E94A22A0C
:105520000C940F2C0E94082C58F00E94012C40F083
:1055300029F45F3F29F00C94D12B51110C94432C8A
:105540000C94D72B0E94202C68F39923B1F3552398
:1055500091F3951B550BBB27AA2762177307840786
:1055600038F09F5F5F4F220F331F441FAA1FA9F31C
:1055700035D00E2E3AF0E0E832D091505040E6950A
:10558000001CCAF72BD0FE2F29D0660F771F881F6B
:10559000BB1F261737074807AB07B0E809F0BB0B5E
:1055A000802DBF01FF2793585F4F3AF09E3F510572
:1055B00078F00C94D12B0C94432C5F3FE4F3983E8D
:1055C000D4F3869577956795B795F7959F5FC9F75B
:1055D000880F911D9695879597F90895E1E0660FDC
:1055E000771F881FBB1F621773078407BA0720F055
:1055F000621B730B840BBA0BEE1F88F7E0950895BE
:1056000029F416F00C94D12B0C94422C0C94D72B2B
:105610000E94282CA8F39638A0F707F80F92E89478
:105620002BE33AEA48EB5FE70E94DA2C0F920F92E5
:105630000F924DB75EB70F920E94902CE8E6F0E013
:105640000E94DA2B4F915F91EF91FF91E595EE1F4C
:10565000FF1F49F0FE57E0684427EE0F441FFA95FC
:10566000E1F74195550B0E945A2C0F9007FE0C94C0
:105670004E2C08950E94412B6894B1110C94432C38
:1056800008950E94282C88F09F5798F0B92F9927E9
:10569000B751B0F0E1F0660F771F881F991F1AF01D
:1056A000BA95C9F714C0B13091F00E94422CB1E014
:1056B00008950C94422C672F782F8827B85F39F013
:1056C000B93FCCF3869577956795B395D9F73EF4B6
:1056D00090958095709561957F4F8F4F9F4F08955E
:1056E000E89409C097FB3EF490958095709561957C
:1056F0007F4F8F4F9F4F9923A9F0F92F96E9BB2732
:105700009395F695879577956795B795F111F8CFAD
:10571000FAF4BB0F11F460FF1BC06F5F7F4F8F4F18
:105720009F4F16C0882311F096E911C0772321F00E
:105730009EE8872F762F05C0662371F096E8862FA6
:1057400070E060E02AF09A95660F771F881FDAF7FD
:10575000880F9695879597F90895990F0008550F2A
:10576000AA0BE0E8FEEF16161706E807F907C0F0E7
:1057700012161306E407F50798F0621B730B840BEF
:10578000950B39F40A2661F0232B242B252B21F4C9
:1057900008950A2609F4A140A6958FEF811D811D69
:1057A000089597F99F6780E870E060E008959FEFA3
:1057B00080EC0895DF93CF931F930F93FF92EF92A6
:1057C000DF927B018C01689406C0DA2EEF010E9403
:1057D000D72CFE01E894A5912591359145915591DD
:1057E000A6F3EF010E94342AFE019701A801DA9482
:1057F00069F7DF90EF90FF900F911F91CF91DF91AC
:10580000089500240A941616170618060906089526
:1058100000240A9412161306140605060895092E8C
:105820000394000C11F4882352F0BB0F40F4BF2BFB
:1058300011F460FF04C06F5F7F4F8F4F9F4F08953B
:1058400057FD9058440F551F59F05F3F71F0479531
:10585000880F97FB991F61F09F3F79F08795089516
:10586000121613061406551FF2CF4695F1DF08C035
:10587000161617061806991FF1CF86957105610552
:1058800008940895E894BB2766277727CB0197F9FA
:1058900008950E94AD2B08F48FEF08959B01AC0191
:1058A00060E070E080E89FE30C948E2A0C94D12B8A
:1058B0000C94362D0E94282CD8F39923C9F3940F09
:1058C000511DA3F39150504094F059F0882332F0C9
:1058D000660F771F881F91505040C1F79E3F5105BA
:1058E0002CF7880F911D9695879597F908955F3F3E
:1058F000ACF0983E9CF0BB27869577956795B79559
:1059000008F4B1609395C1F7BB0F58F711F460FF2D
:10591000E8CF6F5F7F4F8F4F9F4FE3CF0C94432CA7
:10592000FA01DC01AA0FBB1F9B01AC01BF5728F491
:10593000222733274427507820C0B75190F4AB2F4B
:105940000024469537952795011CA395D2F3002096
:1059500071F0220F331F441FB395DAF30ED00C946D
:105960001C2A61307105A0E88A07B94630F49B0112
:10597000AC016627772788279078309621F020831E
:1059800031834283538308950E94D72C0C940F2CAB
:105990000E94012C38F00E94082C20F0952311F071
:1059A0000C94D12B0C94D72B11240C94432C0E94D3
:1059B000202C70F3959FC1F3950F50E0551F629F07
:1059C000F001729FBB27F00DB11D639FAA27F00D58
:1059D000B11DAA1F649F6627B00DA11D661F829F7F
:1059E0002227B00DA11D621F739FB00DA11D621F64
:1059F000839FA00D611D221F749F3327A00D611D81
:105A0000231F849F600D211D822F762F6A2F112462
:105A10009F5750409AF0F1F088234AF0EE0FFF1F95
:105A2000BB1F661F771F881F91505040A9F79E3FEC
:105A3000510580F00C94D12B0C94432C5F3FE4F380
:105A4000983ED4F3869577956795B795F795E79542
:105A50009F5FC1F7FE2B880F911D9695879597F94B
:105A600008950E94AD2B880B990B08959F3F31F04C
:105A7000915020F4879577956795B795880F911D7C
:105A80009695879597F90895A1E21A2EAA1BBB1B3C
:105A9000FD010DC0AA1FBB1FEE1FFF1FA217B307FA
:105AA000E407F50720F0A21BB30BE40BF50B661F10
:105AB000771F881F991F1A9469F7609570958095D4
:105AC00090959B01AC01BD01CF010895052E97FB78
:105AD0001EF400940E947D2D57FD07D00E94442D96
