:100000000C94E0000C9451120C942A120C940801E8
:100010000C9408010C9408010C94290E0C94A31262
:100020000C9408010C9408010C9408010C9408012C
:100030000C9408010C9408010C9408010C9408011C
:100040000C9450170C9408010C94A4140C947E1476
:100050000C9408010C9408010C9408010C940801FC
:100060000C9408010C94080107634236B79BD8A78B
:100070001A39685618AEBAAB558C1D3CB7CC5763CD
:10008000BD6DEDFD753EF6177231BF000000803F7B
:100090000001020304051112131415160A0B0C0DAE
:1000A0000E0F526164696F204552524F52005261E7
:1000B00064696F20426567696E0040402046726542
:1000C000652052414D203D2000534C415645204F64
:1000D0004B00526164696F20506F776572446F778F
:1000E0006E00526164696F20506F776572557000C1
:1000F00052462053656E743A2000204D6561737539
:1001000072656D656E743A200020566F6C7461677D
:10011000653A2000485650726F62652056616C75D2
:10012000653A2000536C617665205246204D657318
:10013000736167652052656365697665643A20007E
:100140002320436F6E6E656374696F6E2053746114
:1001500074653A20004261747465727920416C6163
:10016000726D2053746174653A2000020000000033
:10017000240027002A0000000000250028002B0092
:10018000040404040404040402020202020203033D
:100190000303030301020408102040800102040845
:1001A00010200102040810200000000800020100D5
:1001B0000003040700000000000000002F222C258F
:1001C00011241FBECFEFD8E0DEBFCDBF13E0A0E00B
:1001D000B1E0E4EDFAE502C005900D92AE38B1074A
:1001E000D9F725E0AEE8B3E001C01D92AF39B20700
:1001F000E1F710E0CFEDD0E004C02197FE010E94AE
:10020000212DCE3DD107C9F70E949A170C945D2D80
:100210000C94000008950895CB0108957F928F9269
:100220009F92AF92BF92CF92DF92EF92FF920F9385
:100230001F93CF93DF93EC0149015A018B01C12C2D
:10024000D12C7601C814D904EA04FB0484F5F80122
:1002500071908F018F8580FF0BC0E881F981008448
:10026000F185E02D20E144E060E070E0CE010995E9
:10027000EB85FC858D859E85E817F90738F470823B
:100280008B859C8501969C878B870BC0E881F981C3
:10029000672D70E0028CF38DE02DCE01099501965B
:1002A00049F02FEFC21AD20AE20AF20ACBCFB40108
:1002B000C50102C0B601C701DF91CF911F910F9117
:1002C000FF90EF90DF90CF90BF90AF909F908F9076
:1002D0007F900895CF93DF93EC01E881F981028844
:1002E000F389E02D09958F3F2FEF920731F02D8193
:1002F0003E812F5F3F4F3E832D83DF91CF91089545
:100300008FEF9FEF089560E070E0CB01089580E0EB
:1003100090E00895CB0108950C94FD250C94FD25E3
:100320000F931F93CF93DF938C01EB016F3F8FEF00
:10033000780719F480E090E00FC06A3031F46DE086
:10034000F801808991890E94FF126C2FF801808941
:1003500091890E94FF12CE01DF91CF911F910F91E1
:1003600008958F929F92BF92CF92DF92EF92FF9269
:100370000F931F93CF93DF9300D000D0CDB7DEB79C
:100380008C014B01C12CD12C7601C216D306E40698
:10039000F50644F5F401B1904F01FAE0BF120EC02A
:1003A0006DE0F8018089918929833A834B835C83CE
:1003B0000E94FF125C814B813A8129816B2DF801EB
:1003C0008089918929833A834B835C830E94FF1241
:1003D000FFEFCF1ADF0AEF0AFF0A5C814B813A81F7
:1003E0002981D3CFCA01B9010F900F900F900F90C0
:1003F000DF91CF911F910F91FF90EF90DF90CF9001
:10040000BF909F908F900895CF93DF93FC01208938
:10041000211117C0EC01828193810E944A0F8A81C9
:100420009B810E94980F81E0888B0E940917698741
:100430007A878B879C8782EE90E0DF91CF910C9436
:10044000A710DF91CF9108950F931F93CF93DF9360
:10045000FC012089222321F1EC01828193810E94F9
:10046000630F62E070E080E090E00E94CF160A81A6
:100470001B8160E0C8010E948C0E60E0C8010E94F0
:100480002A0F482F4D7F60E0C8010E94CF0E188AC6
:1004900082ED90E0DF91CF911F910F910C94A71006
:1004A000DF91CF911F910F910895809196039091C4
:1004B0009703892B01F583E190E00E946825FC01F8
:1004C00088E291E0918380831382128281E08483A9
:1004D000158216821782108611861286138614865C
:1004E00094E0958716861786808B128A118AF0937E
:1004F0009703E09396038091960390919703089554
:10050000AF92BF92CF92DF92EF92FF920F931F9321
:10051000CF93DF931F92CDB7DEB78C016B017A01C9
:10052000590188E090E0F801938382831582148258
:100530000E946825F80191838083F601848195816A
:100540008E159F0510F40E94272D1982BC016E198B
:100550007F09A616B70608F4B501AE014F5F5F4FDD
:10056000C8010E94DE0FF80144815581F6016081C7
:1005700071816E0D7F1DF801808191810E948F0C29
:100580000F90DF91CF911F910F91FF90EF90DF902F
:10059000CF90BF90AF9008952BE132E0FC01219302
:1005A0003193CF010C943A10CF93DF93EC010E946A
:1005B000CC02CE01DF91CF910C94FD254F925F923A
:1005C0006F927F928F929F92AF92BF92CF92DF9263
:1005D000EF92FF920F931F93CF93DF93DC0112965C
:1005E0002C91222309F498C0EC018BAD823009F0E4
:1005F00075C00E9409177E01B2E4EB0EF11CF701F1
:10060000208131814901A12CB12C6E01FEE3CF0E76
:10061000D11CD6010D911D912D913C9124013501E4
:10062000401A510A620A730ADC01CB01840D951D40
:10063000A61DB71D8E010C5B1F4FF8012081318173
:10064000F9014481558160E070E084179507A607A1
:10065000B70708F443C05E01F4E3AF0EB11CD70145
:100660001D921C920E940917F60160837183828398
:100670009383D801ED91FC91119766817781611583
:10068000710519F06D937C9312C02CAD3DAD2F5FB9
:100690003F4F3DAF2CAF89AD9AAD6FA978AD0097B4
:1006A00019F0281739073CF4F80171836083C501FC
:1006B0000E945A0613C01BAED8016D937C93F701BC
:1006C000118210828EA90E9478122CAD3DAD89ADA9
:1006D0009AAD2817390711F41DAE1CAE89A18230DE
:1006E00021F4CE0140960E944E0A8BA98230A1F4DB
:1006F000CE018296DF91CF911F910F91FF90EF90E5
:10070000DF90CF90BF90AF909F908F907F906F9031
:100710005F904F900C944E0ADF91CF911F910F91F3
:10072000FF90EF90DF90CF90BF90AF909F908F9011
:100730007F906F905F904F900895EF92FF920F938C
:100740001F93CF93DF93EC018B818E010E5D1F4FC2
:100750009E012C5B3F4F790187FF23C08E819F81D3
:100760002DA13EA12817390721F09EA38DA39AAB96
:1007700089AB18A61FA2C8010E94C70A8E859F8553
:1007800098AF8FABF701918380831AAE19AECE017B
:100790004096DF91CF911F910F91FF90EF900C94B5
:1007A000420A1BAE8FA998ADF90191838083FE01A7
:1007B000EE5BFF4F118210828EA90E947812C80151
:1007C0000E94420A8B8184FF03C08C859D8504C0F2
:1007D00086FF12C0888599852DA13EA1281739076B
:1007E00021F09EA38DA39AAB89AB81E090E098A7FE
:1007F0008FA3C8010E94C70A8B8182FF0AC0CE0165
:100800004096DF91CF911F910F91FF90EF900C9444
:10081000C70ADF91CF911F910F91FF90EF9008953C
:10082000FC018281882379F0938194FB882780F9E9
:10083000861749F0662311F0906101C09F7E938373
:10084000CF010C949D030895FC018281882379F0E7
:10085000938196FB882780F9861749F0662311F06B
:10086000906401C09F7B9383CF010C949D030895F6
:100870002F923F924F925F926F927F928F929F92B0
:10088000AF92BF92CF92DF92EF92FF920F931F939E
:10089000CF93DF938091940390919503892B09F076
:1008A00068C186E490E00E946825EC0180E291E056
:1008B000998388831A821B8285E090E00E946825D4
:1008C0007C01FC011082128211821482138285E065
:1008D00090E00E9468256C011FEFFC01108384E109
:1008E00090E092838183F482E38285E090E00E942D
:1008F00068257C0183E0F70180838EE190E092839C
:100900008183D482C382FD82EC8285E090E00E94E4
:1009100068255C01FC011082148213828AEF282E64
:10092000312C3282218285E090E00E9468256C01A2
:10093000FC01108392E3692E712C72826182B48271
:10094000A38285E090E00E9468255C01FC01108292
:100950002BE4822E912C92828182D482C38285E004
:1009600090E00E9468252C01FC01108339E1C32E20
:10097000D12CD282C182B482A38285E090E00E9411
:1009800068255C01FC01108292828182548243823C
:1009900085E090E00E946825FC011083D282C1822C
:1009A000B482A3829F838E8385E090E00E946825B5
:1009B0005C01FC011082128211821482138285E094
:1009C00090E00E946825FC01108372826182B482EB
:1009D000A3829987888785E090E00E9468255C0162
:1009E000FC011082148213829282818285E090E061
:1009F0000E946825FC011083D282C182B482A38246
:100A00009B878A8785E090E00E9468254C01FC0165
:100A10001082148213824EEE442E42E0542E5282F3
:100A2000418285E090E00E9468255C01FC01108312
:100A3000728261829482838285E090E00E946825C0
:100A40004C01FC0110828FEA90E092838183B48292
:100A5000A38285E090E00E946825FC011083D28289
:100A6000C182948283829D878C8788E090E00E9477
:100A700068256C0107E712E0FC01118300831382F3
:100A80001282178216825582448288E090E00E948A
:100A90006825FC011183008380EC9DE093838283B1
:100AA00035822482D782C682FF87EE8700E311E079
:100AB000198B088B87E08A8BFC8AEB8A81E090E0B7
:100AC0009E8B8D8B188E1F8A198E1A8E1B8E1C8EF4
:100AD0001E8E1D8EF8A2EF8E19A261E087E00E94A3
:100AE0004C161BA30AA388E08CA31EA21DA218A665
:100AF0001FA21AA619A61BA61CA61DA61EA618AAEA
:100B00001FA61AAA19AA1BAA61E00E944C168E857C
:100B10009F852FE732E03DAB2CAB25E02EAB98AFA5
:100B20008FAB1AAE19AE1BAE1DAE1CAEFE01FE960B
:100B300010821182128213823496118210823296B0
:100B40009183808361E085E00E944C168C819D81B9
:100B50002B893C892817390721F09C8B8B8B98A314
:100B60008F8F81E090E09E8B8D8BD0939503C09307
:100B700094038091940390919503DF91CF911F91FD
:100B80000F91FF90EF90DF90CF90BF90AF909F902C
:100B90008F907F906F905F904F903F902F9008952F
:100BA000CF93DF93EC01A8A5B9A5109761F0ED9163
:100BB000FC9111970680F781E02D4FA1BC01CD017A
:100BC000DF91CF910994DF91CF91089508950C940E
:100BD000FD250C94FD250C94FD250C94FD250C940D
:100BE000FD25CF93DF936115710509F460C0FB010A
:100BF000C081CF3F11F461E003C0C11104C060E0C7
:100C0000FC01828150C0FC01D28161E08D2F0E94E5
:100C10004C16ED2FF0E0E855FE4FE491E33009F17A
:100C200048F4E130C9F0E230C1F584B5806284BD9A
:100C3000C8BD3DC0E73009F1E83039F1E43069F56D
:100C4000809180008062809380008C2F90E0909350
:100C50008B0080938A002BC084B5806884BDC7BD9B
:100C600026C0809180008068809380008C2F90E067
:100C700090938900809388001AC08091B0008068AA
:100C80008093B000C093B30012C08091B000806226
:100C90008093B000C093B4000AC0C03810F460E084
:100CA00001C061E08D2FDF91CF910C940016DF9190
:100CB000CF9108958F929F92AF92BF92CF92DF9281
:100CC000EF92FF92CF936115710509F403C2FB0106
:100CD000C280D380FC018281C114D10409F49FC178
:100CE00090910501981721F09F3F09F0F3C104C0CE
:100CF000EBE6F1E0C4917DC080930501EBE6F1E005
:100D0000C491CF3F09F4E6C1C13029F1C23009F4E2
:100D100049C0C1116EC014BC15BC94B5926094BD9D
:100D200095B5916095BD282F30E0F901E058FE4F50
:100D3000E491F0E0EE0FFF1FEA58FE4F4591549109
:100D400050939D0340939C03F901EC56FE4FE491B0
:100D5000E0939B0350C0109280001092810090910C
:100D600081009860909381009091810091609093B0
:100D70008100282F30E0F901E058FE4FE491F0E0C7
:100D8000EE0FFF1FEA58FE4F4591549150939A037E
:100D900040939903F901EC56FE4FE491E0939803D8
:100DA000C1E029C01092B0001092B1009091B00043
:100DB00092609093B0009091B10091609093B100D7
:100DC000282F30E0F901E058FE4FE491F0E0EE0FFB
:100DD000FF1FEA58FE4F459154915093AB03409347
:100DE000AA03F901EC56FE4FE491E093AC03C2E094
:100DF00002C0C7FD6FC161E00E944C16E12CF12CCE
:100E00008C2F8D7F09F0A0C060E072E18AE790E04E
:100E1000A70196010E94022D49015A01DA01C90178
:100E20000197A109B1098F3F9105A105B10509F00D
:100E30000CF442C060E472E48FE090E0A7019601F8
:100E40000E94022DDA01C9010197A109B109C2303E
:100E5000E1F48F3F9105A105B10509F00CF438C10B
:100E600060E970ED83E090E0A70196010E94022DF9
:100E7000DA01C9010197A109B1098F3F9105A105C7
:100E8000B10509F08CF523E058C08F3F9105A1050D
:100E9000B105A1F09CF068E478EE81E090E0A70154
:100EA00096010E94022DDA01C9010197A109B10939
:100EB000CC2309F4EFC0E6C021E001C022E0CC233E
:100EC00071F03BC0D501C4012AE0B595A79597956F
:100ED00087952A95D1F70197A109B10925E035B584
:100EE000387F232B25BD61C068E478EE81E090E077
:100EF000A70196010E94022DDA01C9010197A109FB
:100F0000B1098F3F9105A105B10509F00CF492C01C
:100F100064E274EF80E090E0A70196010E94022D48
:100F2000DA01C9010197A109B1098F3F9105A10516
:100F3000B10511F008F080C025E03091B100387F94
:100F4000232B2093B1002BC060E072E18AE790E090
:100F5000A70196010E94022DDA01C9010197A1099A
:100F6000B1090097F1E0AF07B10514F431E00EC00C
:100F700068E478EE81E090E0A70196010E94022DDE
:100F8000DA01C9010197A109B10933E0C13039F48F
:100F900020918100287F232B2093810018C0C1302D
:100FA000B1F0C23049F1C11195C087BD8FEF9FEFFD
:100FB000DC018093A2039093A303A093A403B093B6
:100FC000A50380916E00826080936E0083C0909331
:100FD0008900809388008FEF9FEFDC0180939E0350
:100FE00090939F03A093A003B093A10380916F00FF
:100FF000826080936F006EC08093B3008FEF9FEF8D
:10100000DC018093AD039093AE03A093AF03B09344
:10101000B003809170008260809370005BC0CF91BC
:10102000FF90EF90DF90CF90BF90AF909F908F9008
:101030000C94781224E081CF62E17AE780E090E0BE
:10104000A70196010E94022DDA01C9010197A109A9
:10105000B1098F3F9105A105B10591F088F0D50147
:10106000C4013AE0B595A795979587953A95D1F73C
:101070000197A109B109CC2309F430CF27E05DCF56
:1010800026E01DCF8F3F9105A105B10509F0A4F61B
:1010900024E015CF8F3F9105A105B105B9F0B4F05B
:1010A00062E17AE780E090E0A70196010E94022DBC
:1010B000DA01C9010197A109B1098F3F9105A10585
:1010C000B10511F008F0FECE24E009CF23E007CFF0
:1010D00022E033CFCF91FF90EF90DF90CF90BF9081
:1010E000AF909F908F90089508954F925F926F9266
:1010F0007F928F929F92AF92BF92CF92DF92EF92A8
:10110000FF920F931F93CF93DF931F92CDB7DEB75C
:101110007C012B01FC01848195816C01FFEFCF1ACA
:10112000DF0A8C159D0508F06EC0F701228133811E
:101130002C153D05F0F5099628173907D0F5808064
:1011400091809383828327E0AC01249FC001259F77
:10115000900D11240E946825F7019183808354012A
:10116000612C712CF7018481958168167906F0F461
:10117000F70120813181C50188199909820F931FD8
:10118000009751F08E010F5F1F4F2FEF3FEF40E0B0
:1011900050E0B5010E948002C5010E943A10FFEFA5
:1011A0006F1A7F0A27E0A20EB11CDCCFC4010E9497
:1011B000FD25F701A480B58087E08A9D30018B9DD5
:1011C000700C1124812C912CF701AC14BD0408F093
:1011D00040C020813181C401860D971D820F931F6D
:1011E000009751F08E010F5F1F4F2FEF3FEF40E050
:1011F00050E0B2010E948002FFEFAF1ABF0A27E061
:10120000820E911CE1CFC816D90628F527E0289F49
:101210003001299F700C11245601812C912CF7E08C
:101220006F0E711CF70184819581A816B90688F4A8
:10123000C301880D991DF70120813181820F931F11
:101240000E943A10FFEFAF1ABF0A27E0820E911CEE
:10125000E9CFD582C4820F90DF91CF911F910F917A
:10126000FF90EF90DF90CF90BF90AF909F908F90C6
:101270007F906F905F904F900895CF92DF92EF92A2
:10128000FF920F931F93CF93DF931F92CDB7DEB7DB
:101290008C01FB01E480F580E416F50610F40E9451
:1012A000272DE41AF50A2E153F0508F47901C080B0
:1012B000D180C40ED51E88E090E0F801938382832C
:1012C000158214820E946825F80191838083FFEFC4
:1012D000EF16FF0621F3F6018081181684F41982B7
:1012E000AE014F5F5F4FB701C8010E94DE0FF801EA
:1012F00044815581B601808191810E948F0CC80183
:101300000F90DF91CF911F910F91FF90EF90DF90A1
:10131000CF900895089508952FE632E0DC012D93D3
:101320003C938091A6039091A703009739F0DC01CC
:10133000ED91FC910280F381E02D09940895CF9303
:10134000DF93EC010E948C09CE01DF91CF910C94C8
:10135000FD25CF93DF93EC01AB0188A599A50097FC
:1013600041F0DC01ED91FC910480F581E02DBE019E
:1013700009956F81788580E090E00E940C2B20E039
:1013800030E048EC52E40E942A2A0E94DD2A8FA114
:10139000882329F06330710560F01FA205C0633017
:1013A000710538F481E08FA3CE01DF91CF910C94C9
:1013B000D005DF91CF910895CF92DF92EF92FF9207
:1013C0000F931F93CF93DF93EC011A820E940917AA
:1013D0006B837C838D839E838EE00E948816BC0184
:1013E00080E090E00E940C2B20E138E545E550E4D8
:1013F0000E94602C20E030EC4FE754E40E942A2A3F
:1014000027EE3BEF49E45FE30E942A2A2FE832EC03
:1014100045EF5CE30E94B82920E030E048EC52E45C
:101420000E94602C0E94D62A80E090E00E940C2B43
:101430006B017C010E94AA1621E030E03A872987DF
:101440000FE218EC27E939E40B871C872D873E87CC
:10145000CB8ADC8AED8AFE8ACF8AD88EE98EFA8E14
:10146000CB8EDC8EED8EFE8E6BA37CA38DA39EA314
:10147000DF91CF911F910F91FF90EF90DF90CF9070
:1014800008950895FC01118A83819481908B878748
:101490001686158660E082810C9400168F929F92CA
:1014A000AF92BF92CF92DF92EF92FF920F931F9372
:1014B000CF93DF93EC010E9409172D853E856901CA
:1014C000E12CF12C09851A852B853C8546015701B5
:1014D000801A910AA20AB30ADC01CB01880D991D7A
:1014E000AA1DBB1DEF85F8894181528160E070E043
:1014F00084179507A607B707E8F11E861D860E9488
:10150000091769877A878B879C87EF85F8896381BC
:1015100074816115710579F48F819885019698879A
:101520008F832D813E812115310519F08217930794
:101530009CF46B817C81788B6F87CE01DF91CF919A
:101540001F910F91FF90EF90DF90CF90BF90AF90E1
:101550009F908F900C94F105188A1F86CE010E94EF
:10156000420A2F8138858D819E812817390711F411
:1015700018861F82DF91CF911F910F91FF90EF90FE
:10158000DF90CF90BF90AF909F908F900895CF93B2
:10159000DF93FC0183819481892BC9F0818982309A
:1015A000B1F0811104C01686158610861782EF01EE
:1015B0000E94091769877A878B879C8782E0898BCD
:1015C0006F857889CE01DF91CF910C94F105DF9181
:1015D000CF910895CF93DF93CDB7DEB72A970FB69B
:1015E000F894DEBF0FBECDBFFC01818992890097C0
:1015F00041F1DB01FC0120813181F90144815581F8
:1016000028E131E03A83298312962D913C9113977A
:101610003C832B8314962D913C9115973E832D830B
:1016200016962D913C91179738872F8318962D91F8
:101630003C9119973A872987BE016F5F7F4FFA0166
:1016400009952A960FB6F894DEBF0FBECDBFDF9185
:10165000CF910895CF93DF93EC010E9409176D831A
:101660007E838F839887DF91CF9108957F928F92A9
:101670009F92AF92BF92CF92DF92EF92FF920F9321
:101680001F93CF93DF93CDB7DEB72A970FB6F894A9
:10169000DEBF0FBECDBFFC017684772009F484C085
:1016A000C72EB62E8C010E94040260EF70E08AE71C
:1016B00094E00E9406136B2D7C2D8AE794E00E9433
:1016C0006A14F801828193810E94630FF801E2801D
:1016D000F380F7019781A92E913110F080E1A82EB7
:1016E000F7018085811103C0D92EDA1801C0D12CF1
:1016F000C7010E94B30E80EA0E94B60E8B2C9C2C70
:10170000AA94FFEFAF1631F0F40181914F010E94CE
:10171000B60EF6CFDD2029F080E00E94B60EDA94F6
:10172000F9CFC7010E94B00E61E0C7010E948C0E84
:10173000C7010E94B30E8FEF0E94B60ED82EC701CC
:101740000E94B00E8D2D807399F360E0C7010E9456
:101750008C0E40E767E0C7010E94CF0E84FF04C0F3
:10176000C7010E94BD0E712C88E191E09A838983A4
:101770001A8619861C830B838CE590E098878F83EB
:10178000BD82CE82BE016F5F7F4FC8010E94EA0A10
:10179000F801828193810E94980F0E940917F80135
:1017A0006187728783879487872D2A960FB6F8946E
:1017B000DEBF0FBECDBFDF91CF911F910F91FF9084
:1017C000EF90DF90CF90BF90AF909F908F907F90E1
:1017D000089508950F931F93CF938C01C42F65E54F
:1017E00071E08AE794E00E9406136C2F70E08AE7AC
:1017F00094E00E94BA106C2FF80182859385CF91F6
:101800001F910F910C942404CF92DF92EF92FF92DC
:101810000F931F93CF93DF93CDB7DEB764970FB6C7
:10182000F894DEBF0FBECDBF8C01FB0167817085D0
:1018300080E090E00E940C2B20E030E048EC52E485
:101840000E942A2A6B017C012DEC3CEC4CE250E416
:101850000E94252A18160CF52DEC3CEC44E850E4C7
:10186000C701B6010E94E52B87FF19C02DEC3CECA7
:101870004CE250E4C701B6010E94B8292AE939E9CF
:1018800049EB5FE30E942A2A20E030E048EC52E472
:101890000E94602C0E94DD2A03C060E001C064E663
:1018A00082E491E4A4E5B0E0898B9A8BAB8BBC8B8E
:1018B0001F926F93C701B6010E94D62A24E6269F85
:1018C000A001279F500D11245F934F93CE014196A5
:1018D0009F938F9380EB92E09F938F93CE0101961D
:1018E0007C019F938F930E943A2DB701F801848564
:1018F00095850E94360B0FB6F894DEBF0FBECDBFA4
:1019000064960FB6F894DEBF0FBECDBFDF91CF91C6
:101910001F910F91FF90EF90DF90CF900895CF929D
:10192000DF92EF92FF920F931F93FB01DC0100E027
:1019300010E098016A01E12CF12C0C151D052E0513
:101940003F0538F461916D930F5F1F4F2F4F3F4F4D
:10195000F4CF840F951F1F910F91FF90EF90DF90B0
:10196000CF900895CF93DF93EC0188899989DC01AA
:10197000ED91FC910084F185E02D0995892BA9F367
:1019800088899989DC01ED91FC910284F385E02D31
:10199000DF91CF910994CF93DF93EC0188899989E6
:1019A000DC01ED91FC910084F185E02D0995892BF6
:1019B000A9F388899989DC01ED91FC910484F5856E
:1019C000E02DDF91CF910994AF92BF92CF92DF9239
:1019D000EF92FF920F931F93CF93DF9300D000D02D
:1019E000CDB7DEB78C015B01C12CD12C7601F8019B
:1019F00080899189DC01ED91FC910284F385E02DD1
:101A000029833A834B835C83099529813A814B81F1
:101A10005C818F3F71F0C216D306E406F5064CF4E4
:101A2000D5018D935D01BFEFCB1ADB0AEB0AFB0AF0
:101A3000DECFC701B6010F900F900F900F90DF918E
:101A4000CF911F910F91FF90EF90DF90CF90BF90BB
:101A5000AF900895DC0150968D919C915197DC01D7
:101A6000ED91FC910084F185E02D099480E090E0F7
:101A7000089580E090E0089580E090E0089580E08F
:101A800090E008950895CF93DF93C0914A04D091D8
:101A90004B04E881F9810084F185E02DCE010995A0
:101AA000892BB9F3E881F9810284F385E02DCE0119
:101AB000DF91CF9109941F93CF93DF93182FC0919B
:101AC0004A04D0914B048A3041F4E881F9810190B5
:101AD000F081E02D6DE0CE010995E881F98101905A
:101AE000F081E02D612FCE01099521E030E00197D2
:101AF00011F420E030E0C901DF91CF911F910895EA
:101B000080910401813019F081E0809304010895EF
:101B10000C94FD25089508950C94FD25DC01ED91AC
:101B2000FC91369720813181820F931F0C948C0D8C
:101B3000FB0120813181FC0131832083FB01428143
:101B40005381F901369720813181FC01E20FF31FA7
:101B500051834083089529E831E0FC0131832083DB
:101B600023E931E0318F208F69E971E00C94980D01
:101B7000DC01ED91FC91369720813181820F931F1A
:101B80000C94AB0DCF93DF93EC010E94AB0DCE0113
:101B9000DF91CF910C94FD25DC01ED91FC913697FE
:101BA00020813181820F931F0C94C20D0C94FD256E
:101BB000089508950C94FD25DC01ED91FC91369774
:101BC00020813181820F931F0C94DA0DFB0120815B
:101BD0003181FC0131832083FB0142815381F90172
:101BE000369720813181FC01E20FF31F518340833E
:101BF000089521E032E0FC01318320832BE032E0C4
:101C0000358B248B61E172E00C94E60DDC01ED91E3
:101C1000FC91369720813181820F931F0C94F90D2E
:101C2000CF93DF93EC010E94F90DCE01DF91CF91AC
:101C30000C94FD25DC01ED91FC91369720813181DA
:101C4000820F931F0C94100E0C94FD250895089597
:101C500008951F920F920FB60F9211248F930FB613
:101C6000F894A8958091600088618093600010923C
:101C700060000FBE8F910F900FBE0F901F901895B0
:101C80004115510529F4EAE7F0E080818F778083E0
:101C90006A307105A9F063FD02C088E001C088E2E6
:101CA0006770682B88E10FB6F894A8958093600060
:101CB0000FBE60936000E0E6F0E080818064808386
:101CC000232BA1F483B7817F846083BFF89483B70B
:101CD000816083BF85B7806685BF8F7D85BF78941F
:101CE000889583B78E7F83BF78940EC083B7817F3A
:101CF000846083BFF89483B7816083BF78948895AC
:101D000083B78E7F83BF7894452B29F4EAE7F0E010
:101D10008081806880830895FC01208131818281E7
:101D200093812817390719F0822F0C940016089513
:101D3000CF93DF93EC019CB59F7D9CBD9CB5937FB9
:101D40009CBD9CB59C7F9CBD9DB591609DBD8A81CD
:101D50000E9400168C899D89DF91CF910C949F166B
:101D600061E00C94980E60E00C94980E8EBD00001B
:101D70000DB407FEFDCF8EB508951F93CF93DF936B
:101D8000EC010E94B30E81EE0E94B60E182FCE0118
:101D90000E94B00E812FDF91CF911F910895EF9295
:101DA000FF921F93CF93DF9300D0CDB7DEB77C01B6
:101DB0004A8369830E94B30E6981862F8F71806286
:101DC0000E94B60E182F4A81842F0E94B60EC701BA
:101DD0000E94B00E812F0F900F90DF91CF911F9135
:101DE000FF90EF900895CF92DF92EF92FF920F93C2
:101DF0001F93CF93DF9300D01F92CDB7DEB77C0146
:101E0000142F2A835B8369830E94B30E6981862F16
:101E10008F7180620E94B60E082FC12E5B81D52E75
:101E20002A81120F1C1531F0F60181916F010E9479
:101E3000B60EF8CFC7010E94B00E802F0F900F9002
:101E40000F90DF91CF911F910F91FF90EF90DF9056
:101E5000CF900895EF92FF921F93CF93DF931F923D
:101E6000CDB7DEB77C0169830E94B30E6981862FEE
:101E70008F710E94B60E8FEF0E94B60E182FC70109
:101E80000E94B00E812F0F90DF91CF911F91FF9094
:101E9000EF900895CF93DF93EC0160E00E942A0F4A
:101EA00081FD0EC0482F426060E0CE010E94CF0E3F
:101EB00065E070E080E090E0DF91CF910C94CF1668
:101EC000DF91CF910895CF93DF93EC0160E00E9402
:101ED0008C0E888999890E949F166DE1CE010E941F
:101EE0002A0F81FF07C0888999890E949F16CE0119
:101EF0000E94BD0E60E0CE010E942A0F482F4E7F47
:101F000060E0CE010E94CF0E62E0CE010E942A0F57
:101F1000E0E9F0E0E49141E050E001C0440FEA95CF
:101F2000EAF7482B62E0CE01DF91CF910C94CF0EFF
:101F3000CF93DF93EC010E944A0F60E0CE010E9434
:101F40002A0F482F416060E0CE010E94CF0E40E78B
:101F500067E0CE010E94CF0E61E0CE010E948C0EA0
:101F60008985882349F02E85AE01475F5F4F6AE07F
:101F7000CE010E94F30E14C062E0CE010E942A0F2F
:101F8000E0E9F0E0E49121E030E001C0220FEA95C1
:101F9000EAF72095422F482362E0CE010E94CF0E3F
:101FA0006DE1CE010E942A0F81FF05C0CE01DF91B5
:101FB000CF910C94BD0EDF91CF910895CF92DF9217
:101FC000EF92FF920F931F93CF93DF93EC018C81DD
:101FD0009D818617970708F03FC07A018B012A81FF
:101FE0003B812617370728F5CB01089628173907B4
:101FF00000F5C880D9809B838A830E9468259983D5
:10200000888320E030E08C819D812817390770F4A7
:10201000E881F981E20FF31F309729F0D601A20F72
:10202000B31F8C9180832F5F3F4FEDCFC6010E947D
:10203000FD258C819D818017910758F4E881F981F5
:10204000E80FF91F309719F0D7012C9120830196E2
:10205000F2CF1D830C8305C06817790710F47D83C8
:102060006C83DF91CF911F910F91FF90EF90DF90E4
:10207000CF900895FC01808191810C94FD250F93F0
:102080001F93CF93DF93FC0104811581FB01C48171
:10209000D581AE010C171D0708F4A801FB01608172
:1020A0007181FC01808191810E942C2D009769F43F
:1020B00081E090E0C017D10740F00C171D0710F029
:1020C00080E090E0919581959109DF91CF911F91EA
:1020D0000F910895CF92DF92EF92FF920F931F938B
:1020E000CF93DF931F92CDB7DEB77C016B0188E001
:1020F00090E0F70193838283158214820E94682501
:10210000F70191838083C114D104B9F0F6010190E5
:102110000020E9F731978F010C191D091982AE01D2
:102120004F5F5F4FB801C7010E94DE0FA801B601E3
:10213000F701808191810E948F0C0F90DF91CF91E8
:102140001F910F91FF90EF90DF90CF900895CF9364
:10215000DF93BC018AE794E00E940613EC016AE079
:1021600073E08AE794E00E942A138C0F9D1FDF9191
:10217000CF910895CF92DF92EF92FF920F931F932A
:10218000CF93DF938C016B01770FEE08FF08F7FE0A
:1021900012C06DE20E94FF12EC0144275527BA01DC
:1021A0004C195D096E097F092AE0C8010E943F139E
:1021B000C80FD91F06C02AE0B701A6010E943F132D
:1021C000EC016AE073E0C8010E942A138C0F9D1F86
:1021D000DF91CF911F910F91FF90EF90DF90CF9003
:1021E0000895FC012281222339F0238122FD04C0BD
:1021F000246023830C949D0308950895CF92DF9269
:10220000EF92FF920F931F93CF93DF936C017A01AC
:102210008B01C0E0D0E0CE15DF0589F0D8016D91CB
:102220008D01D601ED91FC910190F081E02DC60168
:102230000995892B11F47E0102C02196ECCFC701CC
:10224000DF91CF911F910F91FF90EF90DF90CF9092
:102250000895089580E090E00895FC01538D448D29
:10226000252F30E0842F90E0821B930B541710F041
:10227000CF96089501970895FC01918D828D98174E
:1022800061F0828DDF01A80FB11D5D968C91928D5A
:102290009F5F9F73928F90E008958FEF9FEF089557
:1022A000FC01918D828D981731F0828DE80FF11D20
:1022B000858D90E008958FEF9FEF0895FC01918D3B
:1022C000228D892F90E0805C9F4F821B91098F7334
:1022D000992708958AE794E00E945E1121E0892BF6
:1022E00009F420E0822F0895FC01848DDF01A80FFE
:1022F000B11DA35ABF4F2C91848D90E001968F732E
:102300009927848FA689B7892C93A089B1898C914C
:1023100080648C93938D848D981306C00288F38912
:10232000E02D80818F7D80830895EF92FF920F933F
:102330001F93CF93DF93EC0181E0888F9B8D8C8D71
:10234000981305C0E889F989808185FD24C0F62E9F
:102350000B8D10E00F5F1F4F0F731127E02E8C8D38
:10236000E8120CC00FB607FCFACFE889F989808122
:1023700085FFF5CFCE010E947411F1CF8B8DFE0148
:10238000E80FF11DE35AFF4FF0820B8FEA89FB89BA
:102390008081806207C0EE89FF896083E889F989BE
:1023A00080818064808381E090E0DF91CF911F91F4
:1023B0000F91FF90EF900895CF93DF93EC01888DFC
:1023C0008823C9F0EA89FB89808185FD05C0A88939
:1023D000B9898C9186FD0FC00FB607FCF5CF8081BF
:1023E00085FFF2CFA889B9898C9185FFEDCFCE0109
:1023F0000E947411E7CFDF91CF91089580E090E0C3
:10240000892B29F00E946A1181110C940000089513
:1024100027E732E0DC0111963C932E9316968D91BE
:102420009C911797009739F0DC01ED91FC910280A7
:10243000F381E02D099408950E94272D0C94FD2529
:10244000CF93DF93EC010E940812CE01DF91CF9170
:102450000C94FD251F920F920FB60F9211242F930B
:102460003F934F935F936F937F938F939F93AF931C
:10247000BF93EF93FF93E0910201F091030109955F
:10248000FF91EF91BF91AF919F918F917F916F914C
:102490005F914F913F912F910F900FBE0F901F9022
:1024A00018951F920F920FB60F9211242F933F93FE
:1024B0004F935F936F937F938F939F93AF93BF934C
:1024C000EF93FF93E0910001F09101010995FF91D5
:1024D000EF91BF91AF919F918F917F916F915F919C
:1024E0004F913F912F910F900FBE0F901F90189515
:1024F00090910501981324C0EBE6F1E0E4919FEF81
:1025000090930501E130B9F098F0E230C9F4909170
:1025100070009D7F9093700091E09093B000909137
:10252000B100987F94609093B1001092B30008C0FE
:1025300010926E0005C090916F009D7F90936F0088
:1025400060E00C9400161F920F920FB60F921124A8
:102550002F933F934F935F936F937F938F939F93AB
:10256000AF93BF93EF93FF938091AD039091AE0330
:10257000A091AF03B091B003892B8A2B8B2B51F123
:102580008091AC03E091AA03F091AB03908189277D
:1025900080838091AD039091AE03A091AF03B09181
:1025A000B003181619061A061B06C4F48091AD0371
:1025B0009091AE03A091AF03B091B0030197A10930
:1025C000B1098093AD039093AE03A093AF03B09392
:1025D000B00304C0809105010E947812FF91EF9131
:1025E000BF91AF919F918F917F916F915F914F912B
:1025F0003F912F910F900FBE0F901F901895DC0107
:10260000ED91FC910190F081E02D0994EF92FF9201
:102610000F931F93CF93DF938C017B01C0E0D0E039
:10262000F701EC0FFD1F6491662361F0D801ED9175
:10263000FC910190F081E02DC8010995892B11F0E2
:102640002196EECFCE01DF91CF911F910F91FF9098
:10265000EF9008956115710579F0FB01019000205C
:10266000E9F73197AF01461B570BDC01ED91FC9167
:102670000280F381E02D099480E090E008954F926C
:102680005F926F927F92EF92FF920F931F93CF937F
:10269000DF93CDB7DEB7A1970FB6F894DEBF0FBEBC
:1026A000CDBF7C01FA01CB0119A2223008F42AE047
:1026B0008E010F5D1F4F422E512C612C712CBF01DA
:1026C000A30192010E94E02CF901CA0101501109F5
:1026D0006A3014F4605D01C0695CD8016C93232BEF
:1026E000242B252B61F7B801C7010E942A13A1965C
:1026F0000FB6F894DEBF0FBECDBFDF91CF911F9113
:102700000F91FF90EF907F906F905F904F900895A2
:102710004F925F926F927F928F929F92AF92BF92F1
:10272000CF92DF92EF92FF92CF93DF93EC016A0199
:102730007B01B22E9A01AB01C701B6010E94CD2CDC
:10274000882319F066E573E027C026013701E89475
:1027500077F82FEF3FEF4FE75FE7C301B2010E9429
:10276000CD2C81110DC02FEF3FEF4FE75FE7C30185
:10277000B2010E94252A18161CF46AE573E00CC009
:102780002FEF3FEF4FE75FE4C701B6010E94E52B53
:1027900018169CF46EE573E0CE01DF91CF91FF90A7
:1027A000EF90DF90CF90BF90AF909F908F907F90F1
:1027B0006F905F904F900C942A132FEF3FEF4FE7ED
:1027C0005FECC701B6010E94252A87FDE3CF20E018
:1027D00030E0A901C701B6010E94252A87FF0AC07F
:1027E0006DE2CE010E94FF124C01F7FAF094F7F867
:1027F000F09402C0812C912CA12C60E070E080E06C
:102800009FE3AB1441F020E030E040E251E40E944D
:102810002A2AA394F6CF9B01AC01C701B6010E94FE
:10282000B9292B013C010E94DD2A6B017C010E9429
:102830000C2B9B01AC01C301B2010E94B8292B01F2
:102840003C012AE0B701A601CE010E943F137C01A2
:10285000E80CF91CBB2031F06EE2CE010E94FF12A1
:10286000E80EF91EDB2CDD2029F120E030E040E20B
:1028700051E4C301B2010E94602C2B013C010E9473
:10288000DD2A4B01A12CB12C2AE0B501A401CE0117
:102890000E943F13E80EF91EC501B4010E940C2BE3
:1028A0009B01AC01C301B2010E94B8292B013C017C
:1028B000DA94D9CFC701DF91CF91FF90EF90DF90ED
:1028C000CF90BF90AF909F908F907F906F905F90D0
:1028D0004F9008950F931F93CF93DF93EC010E94C5
:1028E0002A138C016AE073E0CE010E942A13800F44
:1028F000911FDF91CF911F910F9108951F920F9219
:102900000FB60F9211242F933F934F935F936F93C2
:102910007F938F939F93AF93BF93EF93FF938AE738
:1029200094E00E947411FF91EF91BF91AF919F913C
:102930008F917F916F915F914F913F912F910F9068
:102940000FBE0F901F9018951F920F920FB60F9207
:1029500011242F938F939F93EF93FF93E0918A0419
:10296000F0918B048081E0919004F091910482FDBC
:1029700012C09081809193048F5F8F732091940493
:10298000821751F0E0919304F0E0E658FB4F958FE9
:102990008093930401C08081FF91EF919F918F916B
:1029A0002F910F900FBE0F901F90189508954F9282
:1029B0005F926F927F928F929F92AF92BF92CF92CF
:1029C000DF92EF92FF920F931F93CF93DF93CDB7D8
:1029D000DEB728970FB6F894DEBF0FBECDBF8C01CF
:1029E0006A017B010E94AA164B015C01F801828DED
:1029F000938DA48DB58DA5019401281B390B4A0B2D
:102A00005B0BCA01B9010E940E2B9B01AC01D801DE
:102A100056966D937D938D939C935997F801828E72
:102A2000938EA48EB58E1A968D919D910D90BC912A
:102A3000A02D89839A83AB83BC8386879787A08BDD
:102A4000B18BC28AD38AE48AF58A82809380A4807B
:102A5000B580C501B4010E942A2A9B01AC01F8018E
:102A6000668377838087918760E070E080E89FEBE2
:102A70000E942A2A0E94A42A2B013C019B01AC013E
:102A800060E070E080E89FE30E94B829A70196010A
:102A90000E94602C6D837E838F83988729813A8181
:102AA0004B815C81C301B2010E94602C9B01AC018F
:102AB0006D817E818F8198850E94B9292B013C010F
:102AC000D8011A966D937D938D939C931D978D914C
:102AD0009C9181309105D1F14CF4892BA1F5A30192
:102AE0009201C701B6010E94B8292AC0823091051F
:102AF000C9F0039741F5A3019201C701B6010E94F5
:102B0000B8296B017C0120E034E244E759E4C501B7
:102B1000B4010E942A2A9B01AC01C701B6010E94A0
:102B20002A2A0EC020E034E244E759E4C501B4018A
:102B30000E942A2A9B01AC01C301B2010E94602CB1
:102B40002B013C0103C0412C512C3201C301B201C5
:102B500028960FB6F894DEBF0FBECDBFDF91CF91A0
:102B60001F910F91FF90EF90DF90CF90BF90AF90AB
:102B70009F908F907F906F905F904F900895BC01D1
:102B80008AE794E00C942A130F931F93CF938C0140
:102B900066E080ED93E00E942A0FC82FC77D0230C7
:102BA000110531F4C0628BE990E0A0E0B0E00DC007
:102BB0000130110529F085E590E0A0E0B0E005C006
:102BC000C86081E490E0A0E0B0E08093E0039093DF
:102BD000E103A093E203B093E3034C2F66E080EDA2
:102BE00093E00E94CF0E66E080ED93E00E942A0FF2
:102BF00091E08C1390E0892FCF911F910F91089550
:102C000090E0FC01E855FE4F3491FC01EC56FE4F7C
:102C10002491FC01E058FE4FE491EE2309F43BC0FF
:102C2000332339F1333091F038F43130A9F03230B8
:102C300001F584B58F7D12C0373091F03830A1F0A6
:102C40003430B9F4809180008F7D03C08091800082
:102C50008F77809380000DC084B58F7784BD09C0C5
:102C60008091B0008F7703C08091B0008F7D8093FA
:102C7000B000F0E0EE0FFF1FEA58FE4FA591B491AF
:102C80008FB7F894EC91611103C020952E2301C0F9
:102C90002E2B2C938FBF0895CF93DF9390E0FC01F0
:102CA000EC56FE4F2491FC01E058FE4F849188239E
:102CB00061F190E0880F991FFC01E459FE4FC59126
:102CC000D491FC01EA58FE4FA591B491611109C05D
:102CD0009FB7F8948881209582238883EC912E23D6
:102CE0000BC0623061F49FB7F8943881822F8095D1
:102CF00083238883EC912E2B2C939FBF06C08FB724
:102D0000F894E8812E2B28838FBFDF91CF9108950F
:102D10008E3008F08E508770806480937C008091A4
:102D20007A00806480937A0080917A0086FDFCCFDF
:102D3000809178002091790090E0922B0895823064
:102D4000910538F0880F991F880F991F05970197F3
:102D5000F1F708953FB7F8948091B6039091B703C7
:102D6000A091B803B091B90326B5A89B05C02F3F29
:102D700019F00196A11DB11D3FBFBA2FA92F982FA1
:102D80008827820F911DA11DB11DBC01CD0142E01C
:102D9000660F771F881F991F4A95D1F708958F9264
:102DA0009F92AF92BF92CF92DF92EF92FF926B0110
:102DB0007C010E94AA164B015C01C114D104E104FC
:102DC000F104F1F00E94AA16DC01CB0188199909DF
:102DD000AA09BB09883E9340A105B10570F321E023
:102DE000C21AD108E108F10888EE880E83E0981E27
:102DF000A11CB11CC114D104E104F10419F7DDCF09
:102E0000FF90EF90DF90CF90BF90AF909F908F900A
:102E100008952FB7F8946091B2037091B303809135
:102E2000B4039091B5032FBF0895CF93C82F6AE0E4
:102E300073E08AE794E00E942A13C23019F462E634
:102E400073E002C06AE773E08AE794E00E946A14C4
:102E50008091FA039091FB030E9404028091FA038F
:102E60009091FB03FC0115860E942A0B8091F403CC
:102E70009091F5030E94DC098091F8039091F90389
:102E80000E949D031092FD030E9409176093FE03A8
:102E90007093FF038093000490930104CF910895F1
:102EA0001F920F920FB60F9211242F933F938F937F
:102EB0009F93AF93BF938091B2039091B303A0917E
:102EC000B403B091B5033091B10323E0230F2D3744
:102ED00020F40196A11DB11D05C026E8230F02961E
:102EE000A11DB11D2093B1038093B2039093B3034E
:102EF000A093B403B093B5038091B6039091B70348
:102F0000A091B803B091B9030196A11DB11D8093A2
:102F1000B6039093B703A093B803B093B903BF91DE
:102F2000AF919F918F913F912F910F900FBE0F9076
:102F30001F901895CF93DF93CDB7DEB7E2970FB60A
:102F4000F894DEBF0FBECDBF789484B5826084BD97
:102F500084B5816084BD85B5826085BD85B581609D
:102F600085BD80916E00816080936E00109281001B
:102F700080918100826080938100809181008160D6
:102F80008093810080918000816080938000809197
:102F9000B10084608093B1008091B0008160809323
:102FA000B00080917A00846080937A0080917A00EA
:102FB000826080937A0080917A00816080937A00A9
:102FC00080917A00806880937A001092C10061E05D
:102FD00086E00E944C1661E088E00E944C1661E099
:102FE00087E00E944C1661E085E00E944C16E0915B
:102FF0008A04F0918B0482E08083E0918604F09152
:1030000087041082E0918804F091890480E1808334
:1030100010929204E0918E04F0918F0486E08083F8
:10302000E0918C04F0918D04808180618083E09137
:103030008C04F0918D04808188608083E0918C0401
:10304000F0918D04808180688083E0918C04F09100
:103050008D0480818F7D808389EC90E00E94A71091
:103060008CEB9CE6ABE9B6E48093240490932504B2
:10307000A0932604B093270481E080934704009135
:10308000E8031091E90380ED93E0D80113969C9337
:103090008E9312978091D0039091D1032091D20307
:1030A0003091D3038217930719F061E00E944C1608
:1030B0008091D2039091D3032091D0033091D1031A
:1030C0002817390719F061E00E944C16FFB6F894F2
:1030D00080918E03811127C0EAE8F1E08491EEE946
:1030E000F1E09491E82FF0E0EE0FFF1FE459FE4F5E
:1030F000A591B491EC91E92321F461E08AE00E946A
:10310000001661E08AE00E944C168CB580618CBD8F
:103110008CB580648CBD61E08DE00E944C1661E04E
:103120008BE00E944C1680918E038F5F80938E03FC
:10313000FFBE60E080ED93E00E948C0E61E080EDC8
:1031400093E00E94980E65E070E080E090E00E94BD
:10315000CF164CE060E080ED93E00E94CF0E4FE58B
:1031600064E080ED93E00E94CF0E82E090E00E9448
:10317000C415882319F081E08093D60366E080EDC2
:1031800093E00E942A0FF82E80E090E00E94C41580
:1031900080ED93E00E94B30E80E50E94B60E83E7B7
:1031A0000E94B60E80ED93E00E94B00E40E06DE10B
:1031B00080ED93E00E94CF0E40E06CE180ED93E063
:1031C0000E94CF0E1092D80340E767E080ED93E0B5
:1031D0000E94CF0E4CE465E080ED93E00E94CF0E9C
:1031E00080ED93E00E94B30E82EE0E94B60E80ED59
:1031F00093E00E94B00E80ED93E00E94BD0E80ED42
:1032000093E00E944A0F60E080ED93E00E942A0F55
:10321000482F4E7F60E080ED93E00E94CF0E8FEF4D
:103220008F0D8E3F08F08AC044E864E080ED93E0A3
:103230000E94CF0E40E06DE180ED93E00E94CF0E42
:1032400040E06CE180ED93E00E94CF0E1092D80335
:1032500080E18093D70382E08BA31CA21DA21EA253
:103260001FA218A619A61AA62091DE03AE014D5D75
:103270005F4F6AE080ED93E00E94F30E2091DE0341
:10328000AE014D5D5F4F60E180ED93E00E94F30E73
:103290004091D70361E180ED93E00E94CF0EFF24BF
:1032A000F394FB8E1C8E1D8E1E8E1F8E18A219A2EB
:1032B0001AA2EDE9F0E064912091DE03AE01455ED3
:1032C0005F4F80ED93E00E94F30EE7E9F0E0649138
:1032D0004091D70380ED93E00E94CF0E62E080ED35
:1032E00093E00E942A0FE1E9F0E0E49141E050E030
:1032F00001C0440FEA95EAF7482B62E080ED93E0C5
:103300000E94CF0E66E080ED93E00E942A0F887F36
:10331000482F436066E080ED93E00E94CF0E82E08C
:1033200090E00E94C41580ED93E00E94980FF80190
:10333000F6868EEA90E00E94A71007C082EA90E02D
:103340000E94A710D8011E961C92C8010E942A0B49
:103350000091E8031091E903F80117860E9409170C
:10336000D80119966D937D938D939C931C978091B2
:103370008F0390919003892B09F0A0C08AE290E01E
:103380000E9468258C0180E191E0F801918380839F
:103390001282138214821582168210861782AA2442
:1033A000A394B12CB286A1864FE2442E48EC542E51
:1033B00047E9642E49E4742E4386548665867686F2
:1033C00080E090ECAFE7B4E4838B948BA58BB68B55
:1033D000878B908FA18FB28F838F948FA58FB68F9D
:1033E0000E94AA16D80193966D937D938D939C931A
:1033F000969797961C92979799961C921E929897DB
:103400008EE00E948816BC0180E090E00E940C2BA8
:1034100020E138E545E550E40E94602C20E030ECE6
:103420004FE754E40E942A2A27EE3BEF49E45FE38A
:103430000E942A2A2FE832EC45EF5CE30E94B8296B
:1034400020E030E048EC52E40E94602C0E94D62A32
:1034500080E090E00E940C2B6B017C010E94AA1678
:10346000F801B286A1864386548665867686C38A2D
:10347000D48AE58AF68AC78AD08EE18EF28EC38E10
:10348000D48EE58EF68E63A374A385A396A3B701AD
:10349000A601C80109960E94D7140E94DD2AF801EE
:1034A000278130852617370729F070876783C80181
:1034B0000E94A9091093900300938F03E0918F035A
:1034C000F0919003F0939203E0939103F093F5034E
:1034D000E093F403A091F603B091F70324E0AD313B
:1034E000B20791F0109721F09C961C921E929B9728
:1034F00080EF93E090934904809348048DE194E039
:103500009093F7038093F603309721F08EEE93E0CB
:1035100091A780A7E091F603F091F703309721F08F
:1035200080EF93E094A783A7E091FA03F091FB0367
:10353000309721F082EF93E0928B818B8091F8039A
:103540009091F903009759F00E94F110E091F8036F
:10355000F091F9038281811102C081E08283E091C0
:10356000F403F091F50367A18091F8039091F903BA
:103570000E942404E091FA03F091FB03648111E0BE
:1035800061278091F8039091F9030E9410048091C3
:10359000F8039091F9030E94F110E091F803F09183
:1035A000F9038281811101C012836BE872E08AE71E
:1035B00094E00E946A148091FA039091FB030E94A8
:1035C00004028091FA039091FB03DC011D961C928A
:1035D0000E942A0B8091F4039091F5030E94DC096C
:1035E0008091F8039091F9030E949D0360E082E0CE
:1035F0000E944C160E9409176093BA037093BB0394
:103600008093BC039093BD036AEB70E08AE794E07B
:103610000E9406138091950590919605FE013196C2
:103620007F01BF01681B790B8AE794E00E94BA1002
:103630009E012F5E3F4F190121E4422E23E4522EBA
:103640002BE4622E712C0E9409178091FD038111D9
:103650002EC20091F6031091F703D8019A968C912F
:10366000882309F44EC00E940917F80185A096A08E
:10367000A7A0B0A4AB01BC01481959096A097B098C
:1036800083A194A1A0E0B0E0481759076A077B071F
:10369000C0F182810E948816BC01990F880B990B9A
:1036A0000E940E2BAB01BC01C80105960E94D714E5
:1036B0000E94DD2AF8012381348126173707D1F0D3
:1036C000D80114967C936E9313973CA72BA79B96D7
:1036D0008D919C919C97009769F0DC01ED91FC9194
:1036E0000480F581E02D9E01255D3F4F40E050E0D4
:1036F000B80109950E940917F80165A376A387A36D
:1037000090A70091F4031091F5030E940917D801C6
:1037100013968D909D90AD90BC901697DC01CB01D7
:1037200088199909AA09BB0984369105A105B10533
:1037300008F45AC0F8018281823008F055C08EE04A
:103740000E948816BC0180E090E00E940C2B20E1D2
:1037500038E545E550E40E94602C20E030EC4FE76E
:1037600054E40E942A2A27EE3BEF49E45FE30E94DB
:103770002A2A2FE832EC45EF5CE30E94B82920E0CA
:1037800030E048EC52E40E94602C0E94D62A072EBA
:10379000000C880B990B0E940E2BAB01BC01C801D9
:1037A00009960E94D714D80112962C91213069F401
:1037B0000E94DD2AF801278130852617370729F076
:1037C00070876783C8010E94A9090E940917D80160
:1037D00013966D937D938D939C93169712968C916F
:1037E00012978F5F12968C930091FA031091FB034E
:1037F000F8018685882309F411C167E182819381EC
:103800000E942A0F80FFB5C14CC0C6010E94B00EB5
:1038100040E767E0C6010E94CF0E20E3298BC80174
:103820000E942A0BE4E0D8011D96EC931D97149694
:103830008C91149781111AC0F1E01496FC93FEA7A5
:1038400028E131E03A8B298B1A8E198E1C8B0B8B59
:103850004AE550E0588F4F8B8EE290E08C0F9D1F11
:103860009E8B8D8BB101C8010E94EA0AA8E1B1E0EC
:10387000BA8BA98B1A8E198E1C8B0B8BEBE5F0E0A3
:10388000F88FEF8BFE8AED8AB101C8010E94EA0A27
:103890000E940917D80119966D937D938D939C937F
:1038A0001C970E940917F80185809680A780B08434
:1038B0002685222309F486C09B01AC012819390909
:1038C0004A095B0949015A018585882341F0813005
:1038D00049F5293C31054105510508F462C0498A82
:1038E0005A8A6B8A7C8A3F922F92ACE9B2E0BF93EE
:1038F000AF93FF92EF920E943A2DB701C8010E9448
:10390000360BC8010E942A0BD8011D968C911D9779
:103910008F5F1D968C930F900F900F900F900F90CC
:103920000F903FC0823069F4293C310541055105B3
:10393000C0F1C8010E942A0BF80185858F5F858739
:1039400030C0833071F5293C31054105510548F1FE
:10395000D80114968C9114978823C9F014961C9260
:103960001DA6E8E1F1E0FA83E9831A8619861C8333
:103970000B832AE530E038872F834DE250E04C0F6F
:103980005D1F5E834D83B701C8010E94EA0AC8012A
:103990000E942A0BD8011D968C911D978F5F1D9652
:1039A0008C93F8018585843069F4F9EF8F16FAE27B
:1039B0009F06A104B10430F0D8011D961C92C801E5
:1039C0000E942A0BF8018785882341F18685882388
:1039D00029F10E940917D80119968D909D90AD90FC
:1039E000BC901C979B01AC01281939094A095B0955
:1039F00049015A0150968C91882351F0F1EB8F16B2
:103A0000F4E09F06A104B10418F0C8010E9424024A
:103A1000D80150968C91882309F4DBC08091F8037B
:103A20009091F9030E94DE020E9409176FA778ABFC
:103A300089AB9AAB8090FE039090FF03A0900004A6
:103A4000B09001040E940917009102041091030430
:103A50002091040430910504DC01CB01801B910B03
:103A6000A20BB30B2091FC03211110C00FA518A9C4
:103A700029A93AA9081919092A093B09083E13403E
:103A80002105310518F021E02093FD0384369105CE
:103A9000A105B10508F4D9CD0E940917609302046D
:103AA000709303048093040490930504CECD62EADE
:103AB00072E08AE794E00E946A148091FA03909180
:103AC000FB030E9424020E9409174B015C010E9423
:103AD0000917DC01CB0188199909AA09BB09CC9700
:103AE000A105B10588F48091F8039091F9030E9433
:103AF000DE020E9409176093FE037093FF03809318
:103B0000000490930104E3CF1092040180E89DE04B
:103B100090930101809300018091690083608093FC
:103B20006900E89A20E030E040E050E068E070E0B2
:103B300083E993E00E94400EE8988DEF90E1909326
:103B400001018093000180910401813039F482E009
:103B50000E94151783E08093040108C0811106C0FC
:103B600083E08093040181E00E9415170E94FE11FA
:103B70006ACDD8011296CD90DC901397F60187811B
:103B8000803128F190E1B92ED60118969C919111BF
:103B900003C0A82EAB1801C0A12CC6010E94B30E11
:103BA00081E60E94B60E4701BA94FFEFBF1639F0C6
:103BB0008FEF0E94B60EF40181934F01F5CFAA203A
:103BC00009F423CE8FEF0E94B60EAA94F8CFB82E38
:103BD000DBCFBDE18B16B5E29B06A104B10408F46E
:103BE0001DCFC8010E940402F801828193810E94C6
:103BF000980F14CF089508950C94FD2502970C9406
:103C0000FC1D04970C94FC1D4F925F926F927F9263
:103C1000AF92BF92CF92DF92EF92FF920F931F93DA
:103C2000CF93DF93CDB7DEB764970FB6F894DEBFBE
:103C30000FBECDBFDC0118962D913C9119976217EC
:103C4000730709F0EEC1FB018C01E380F4801A9642
:103C5000ED91FC911B97B5E0EB16F104E8F081E0E3
:103C6000D8011E968C938281882341F0838187FD41
:103C700005C080688383CF010E949D03F801C4843E
:103C8000D584D6011F961C920E940917F601618700
:103C900072878387948725C0DC011E961C928281DF
:103CA000882341F0838187FF05C08F778383CF010D
:103CB0000E949D03F801C484D58481E0D6011F963B
:103CC0008C930E940917F601618772878387948716
:103CD0000E940917D80150966D937D938D939C9304
:103CE0005397F801828D813011F081E0828FF6E0E8
:103CF000EF16F10408F49EC0D80197968C9197971F
:103D0000813081F081E097968C930E940917F80129
:103D100061A772A783A794A76CEB72E08AE794E08F
:103D20000E946A14D8015B968D919C915C978E15C8
:103D30009F0508F0EBC05C96FC92EE925B970E94A8
:103D40000917F80141A452A463A474A46419750965
:103D5000860997090E940C2B20E030E04AE754E4E2
:103D60000E942A2A2B013C01D80198968C91680167
:103D7000C80ED11CC80ED11CB7016550710980E076
:103D800090E00E940C2BA30192010E942A2A20E0BD
:103D900030E048EC52E40E94602C0E94DD2AF601DB
:103DA000768F658F8CEC92E00E94BF15D8015B96F0
:103DB0004D915C915C9760E070E02AE08AE794E0C6
:103DC0000E943F138CED92E00E94BF1522E0B301E8
:103DD000A2018AE794E00E948813F801C0A4D12CC4
:103DE000FFEFCF1ADF0A85E0C816D10411F4C12C09
:103DF000D12C84EE92E00E94BF15D80198964C9188
:103E000050E060E070E02AE08AE794E00E943F130F
:103E100089EE92E00E94BF15B6018AE794E00E9405
:103E2000BA10F80180A58F5F853011F080A76EC0B1
:103E300010A66CC0B3E0EB16F10408F067C0F801FF
:103E400087A1813009F062C017A2148E138E66E13B
:103E500073E08AE794E00E946A14F80180A590E07C
:103E60008530910509F4DAC0880F991FF801E80F31
:103E7000F91F658D768D80E090E00E940C2B20E08C
:103E800030E048EC52E40E942A2A2B013C018FEEDC
:103E900092E00E94BF156801FDE1CF0ED11C5801D0
:103EA00087E2A80EB11CD6014D915D916D0160E0D5
:103EB00070E02AE08AE794E00E943F1389EF92E0E5
:103EC0000E94BF15CA14DB0471F78CEF92E00E94C8
:103ED000BF1522E0B301A2018AE794E00E94881393
:103EE00085E093E00E94BF156AE073E08AE794E002
:103EF0000E942A13F801168E158E10A2178E12A298
:103F000011A214A213A216A215A210A688E496E587
:103F1000A1E3B0E0898B9A8BAB8BBC8B2701612C22
:103F2000712CC301B2010E940C2B20E138E545E55C
:103F300050E40E94602C2CE63CE741EC5DE30E94DB
:103F40002A2A0E94DD2A6B017C01DF926F93CE0149
:103F500041969F938F938DE093E09F938F93CE0133
:103F600001965C019F938F930E943A2DB501D80171
:103F70001C968D919C911D970E94360B64E171E017
:103F80008AE794E00E9406132AE0B301A2018AE7BF
:103F900094E00E943F1369E071E08AE794E00E9498
:103FA0000613D8011896ED91FC91199763817481DD
:103FB00080E090E00E940C2B20E138E545E550E4DC
:103FC0000E94602C20E030EC4FE754E40E942A2A43
:103FD00020E030E0A9010E94B929AB01BC0122E038
:103FE0008AE794E00E9488136AEF70E08AE794E021
:103FF0000E940613A60160E070E02AE08AE794E0E0
:104000000E943F136CE273E08AE794E00E946A1416
:104010000FB6F894DEBF0FBECDBF03C080E090E0C6
:1040200023CF64960FB6F894DEBF0FBECDBFDF91ED
:10403000CF911F910F91FF90EF90DF90CF90BF90A5
:10404000AF907F906F905F904F90089502970C947F
:10405000041E6F927F928F929F92AF92BF92CF92E7
:10406000DF92EF92FF920F931F93CF93DF93CDB721
:10407000DEB7EC970FB6F894DEBF0FBECDBFFB01E5
:1040800042815381FC01248535854217530709F08D
:10409000CEC1FB015C01868197818A35910509F4C7
:1040A000E4C08B35910509F0C2C1E480F58064E27B
:1040B00071E08AE794E00E940613B7018AE794E072
:1040C0000E946A148E010F5F1F4FA801B701CE0135
:1040D000C4960E946A1038E0E32EF12CF8AAEFA6ED
:1040E0001AAA19AA88E090E00E9468259EA78DA7C9
:1040F000F9A6E8A61BA61AA688E390E00E94682508
:104100009FA38EA3E0904505F0904605E091410500
:10411000F0914205ACA9BDA9CF018E0D9F1DE817F6
:10412000F90709F4BBC031912D913217C1F34FC08B
:104130008CAF6BA17CA16F5F7F4FAE01445C5F4F82
:10414000CE014F960E94DE0FFFEFEF1AFF0A28AD57
:1041500039AD8CA99DA9820F931FC816D90649F0C5
:10416000F60181916F018D3319F7E114F10409F023
:10417000A2C02BA13CA12115310529F12150310903
:1041800041E050E0BE01615E7F4FC8010E943D09E1
:10419000E9A8FAA86D817E816E0D7F1D188EAE0193
:1041A000485E5F4FCE018D960E94DE0F4D815E818D
:1041B00069817A818DA59EA58E0D9F1D0E948F0C11
:1041C000C8010E943A10CE014F960E943A1064E650
:1041D00075E0CE018D960E943F10892BF9F481E4A1
:1041E00093E4A2E5B0E0898B9A8BAB8BBC8BCE01BC
:1041F00041969F938F938CE992E09F938F931F93A7
:104200000F930E943A2D0E945502B8010E94360B6E
:104210000F900F900F900F900F900F900E94091722
:10422000F501608B718B828B938BE12CF12C00E07C
:1042300010E02AA53BA58EA19FA10217130750F4F9
:104240008E0D9F1D0E943A100F5F1F4FF7E0EF0E7B
:10425000F11CEFCF0E94FD25CE018D960E943A10F1
:10426000CE01C4960E943A10E2C00480F581E02D90
:10427000108160E471E08AE794E00E940613612FE8
:1042800070E08AE794E00E94BA1081E0612F68270D
:10429000F501828593850E941004C9C0A8016CE0D5
:1042A00073E0CE014F960E946A10CCA8DDA8F2E020
:1042B000CF0ED11C4CCF6FEFE61AF60A2150310910
:1042C000A701BE016C5C7F4FCE0148960E943D095C
:1042D000AE01455C5F4F64E371E0CE0141960E9400
:1042E0006A102D893E898C8D9D8D8217930720F44D
:1042F000CC24CA94DC2C21C001964C01821A930A6A
:10430000C12CD12CC814D90499F32D893E89A6015A
:10431000BE01685E7F4FC8010E943D09B801CE0111
:1043200041960E943F103C01C8010E943A10672844
:1043300021F08FEFC81AD80AE5CFCE0141960E942E
:104340003A10CD20C09409F45AC08C8D9D8DE88D13
:10435000F98DE12CF12CE816F90651F021912C325F
:1043600019F4C12CD12C18C02FEFE21AF20AF3CFA6
:10437000EE24EA94FE2CF5CFEFEFEE1AFE0AE216D9
:10438000F30658F5FC01EE0DFF1D60816C32A1F7BC
:104390006FEFE616F60609F1FFEFEF16FF0609F4D8
:1043A00041C097012C193D09A601BE01685E7F4FEF
:1043B000C8010E943D09B801CE0186960E94750889
:1043C000C8010E943A10A7014F5F5F4F6A012C8D10
:1043D0003D8D888D998D7A01D2CFBE01685E7F4F69
:1043E000C8010E943D09B801CE0186960E94750859
:1043F000C8010E943A10EE24EA94FE2CCDCF28ADDD
:1044000039AD21503109A701BE016C5C7F4FC80155
:104410000E943D09B801CE0186960E947508C80128
:104420000E943A10CE0148960E943A10A2CEEC9615
:104430000FB6F894DEBF0FBECDBFDF91CF911F91B5
:104440000F91FF90EF90DF90CF90BF90AF909F9033
:104450008F907F906F90089504970C9429200F936C
:104460001F93CF93DF931F92CDB7DEB70AE714E017
:1044700010927D0410927C0488EE93E0A0E0B0E0FE
:1044800080937E0490937F04A0938004B093810472
:1044900081E691E090937B0480937A0485EC90E030
:1044A000909387048093860484EC90E09093890431
:1044B0008093880480EC90E090938B0480938A042E
:1044C00081EC90E090938D0480938C0482EC90E0DA
:1044D00090938F0480938E0486EC90E090939104E7
:1044E0008093900410929304109294041092950477
:1044F00010929604AE014F5F5F4F68E273E08EE862
:1045000095E00E946A10AE014F5F5F4F6BE273E06F
:1045100087E895E00E946A10AE014F5F5F4F6EE240
:1045200073E080E895E00E946A10AE014F5F5F4F34
:1045300063E373E089E795E00E946A10AE014F5F84
:104540005F4F67E373E082E795E00E946A10AE0177
:104550004F5F5F4F6BE373E08BE695E00E946A105C
:10456000AE014F5F5F4F6FE373E084E695E00E941A
:104570006A10AE014F5F5F4F63E473E08DE595E035
:104580000E946A10AE014F5F5F4F67E473E086E5FB
:1045900095E00E946A10AE014F5F5F4F6BE473E0DD
:1045A0008FE495E00E946A10AE014F5F5F4F6FE4A9
:1045B00073E088E495E00E946A10AE014F5F5F4FA0
:1045C00063E573E081E495E00E946A10E1E2F0E0C7
:1045D000F0932F05E0932E051092300510923105CF
:1045E0001092320546E050E060E070E04093330501
:1045F0005093340560933505709336051092370556
:10460000109238051092390510923A0520E2209355
:104610003B0510923D0510923C051092400589E142
:1046200095E090933F0580933E0581E092E0909362
:104630001805809317058BE092E090932C058093EA
:104640002B0510921D0510921C0510921F0510924B
:104650001E0510922105109220051092230510923C
:10466000220510922505109224051092270510921C
:1046700026058FED91E090931A058093190510930C
:104680002A050093290530E130932805F09368044A
:10469000E09367041092690410926A0410926B040C
:1046A00040936C0450936D0460936E0470936F0498
:1046B000109270041092710410927204109273049C
:1046C0002093740410927604109275041092790469
:1046D00010924E0410924F04109250041092510404
:1046E00022E534E0309378042093770429E831E020
:1046F00030934D0420934C0423E931E0309365045A
:104700002093640410925604109255041092580499
:104710001092570410925A041092590410925C049B
:1047200010925B0410925E0410925D04109260047B
:1047300010925F0490935304809352041093630487
:104740000093620488E08093610410934B0400930B
:104750004A0463E47DE08BE59DE00E94952687E8AE
:1047600092E090931E0480931D048FE080931F04B9
:10477000109221041092200481E090E09093230491
:104780008093220484E991EFA6E4B5E480932404A5
:1047900090932504A0932604B093270410922C0430
:1047A00010922D0410922E0410922F0410923004B7
:1047B0001092310410923204109233041092340497
:1047C0001092350410923604109237040E94AA16F3
:1047D00060933C0470933D0480933E0490933F04A7
:1047E00080E490E09093410480934004109242044E
:1047F00010924304109244041092450481E0809387
:104800004604809347041092490410924804809112
:10481000A6039091A703892BE9F483E090E00E941E
:1048200068258C018FE692E0F8019183808382E015
:10483000828361E084E00E944C16F8018281882323
:1048400029F0128260E084E00E9400161093A70312
:104850000093A6038091A6039091A70390931C0454
:1048600080931B0485E392E09093EF038093EE0323
:1048700085E492E09093F1038093F0038FE492E05B
:104880009093F3038093F2031092F5031092F403D4
:104890001092F7031092F6030E9438049093F903E4
:1048A0008093F8030E9455029093FB038093FA03D0
:1048B0001092FC031092FD030E9409176093FE03FF
:1048C0007093FF0380930004909301040E940917E2
:1048D000609302047093030480930404909305048E
:1048E0008DE292E0909307048093060410920804EE
:1048F00010920A04109209041092150410921604E2
:1049000010921704109218041092190410921A04AD
:1049100010920C0410920B0410920E0410920D04CD
:104920001092100410920F041092120410921104AD
:1049300010921404109213040E9438049093ED0313
:104940008093EC038091A8039091A903892BC9F46B
:1049500089E090E00E9468258C018BE192E0F801EB
:104960009183808388E090E0958384831782168208
:104970000E946825F801938382831093A903009312
:10498000A8038091A8039091A9039093EB038093CF
:10499000EA030E9455029093E9038093E80389E0BB
:1049A00090E09093D1038093D0038AE090E09093BD
:1049B000D3038093D2031092D60380E28093D7036F
:1049C0001092D80385E08093DE0345E050E060E07C
:1049D00070E04093E4035093E5036093E603709323
:1049E000E7031092D9032FE732E03093BF032093FF
:1049F000BE038093C0031092C2031092C1031092B1
:104A0000C4031092C3031092C5031092C7031092FF
:104A1000C6031092C8031092C9031092CA031092E1
:104A2000CB031092CD031092CC031092CF031092BF
:104A3000CE0361E00E944C160E9409176093BA03EE
:104A40007093BB038093BC039093BD030F90DF91E1
:104A5000CF911F910F9108958EEE93E00E94E90B84
:104A60008CE494E00E94AB0D87E195E00E94F90D83
:104A700081E495E00E943A1088E495E00E943A10A3
:104A80008FE495E00E943A1086E595E00E943A1086
:104A90008DE595E00E943A1084E695E00E943A1078
:104AA0008BE695E00E943A1082E795E00E943A106A
:104AB00089E795E00E943A1080E895E00E943A105C
:104AC00087E895E00E943A108EE895E00C943A1041
:104AD000CF93DF938230910510F482E090E0E09173
:104AE0009705F091980520E030E0C0E0D0E03097E5
:104AF00011F14081518148175907C0F048175907F3
:104B000061F482819381209719F09B838A832BC063
:104B1000909398058093970526C02115310519F0CB
:104B20004217530718F49A01BE01DF01EF0102801A
:104B3000F381E02DDCCF2115310509F1281B390B5C
:104B40002430310590F412968D919C911397611544
:104B5000710521F0FB019383828304C09093980533
:104B600080939705FD01329644C0FD01E20FF31FCB
:104B700081939193225031092D933C933AC0209117
:104B8000950530919605232B41F420910801309131
:104B900009013093960520939505209106013091E7
:104BA00007012115310541F42DB73EB740910A01A7
:104BB00050910B01241B350BE0919505F091960562
:104BC000E217F307A0F42E1B3F0B2817390778F0E4
:104BD000AC014E5F5F4F2417350748F04E0F5F1F43
:104BE00050939605409395058193919302C0E0E020
:104BF000F0E0CF01DF91CF9108950F931F93CF93F2
:104C0000DF93009709F48CC0FC0132971382128263
:104C100000919705109198050115110581F42081E7
:104C20003181820F931F20919505309196052817A9
:104C3000390779F5F0939605E093950571C0D80191
:104C400040E050E0AE17BF0750F412962D913C9112
:104C50001397AD012115310509F1D901F3CF9D015C
:104C6000DA013383228360817181860F971F821757
:104C7000930769F4EC0128813981260F371F2E5FD5
:104C80003F4F318320838A819B8193838283452B8D
:104C900029F4F0939805E093970542C01396FC938E
:104CA000EE931297ED01499159919E01240F351F02
:104CB000E217F30771F480819181840F951F0296AA
:104CC00011969C938E938281938113969C938E93DD
:104CD0001297E0E0F0E0D80112968D919C91139725
:104CE000009719F0F8018C01F6CF8D919C919801F5
:104CF0002E5F3F4F820F931F2091950530919605AF
:104D00002817390769F4309729F410929805109202
:104D1000970502C0138212821093960500939505A1
:104D2000DF91CF911F910F9108950F931F93CF9310
:104D3000DF93009731F46115710519F480E090E07C
:104D40003AC08B01EC016EE070E081E090E00E94DF
:104D5000B228FC01892B91F380E8838301151105AA
:104D600071F01387028781E8838380919905909180
:104D70009A05892B21F4F0939A05E09399052097E1
:104D8000C9F0D187C08783818260838380919B052E
:104D900090919C05892B71F4F0939C05E0939B0501
:104DA00080919D0590919E05892B21F4F0939E059D
:104DB000E0939D05CF01DF91CF911F910F91089551
:104DC000ACE0B0E0E6EEF6E20C9481297C016B01E8
:104DD0008A01FC0117821682838181FFBDC1CE0149
:104DE00001964C01F7019381F60193FD859193FFA4
:104DF00081916F01882309F4ABC1853239F493FDA9
:104E0000859193FF81916F01853229F4B70190E07C
:104E10000E94EB28E7CF512C312C20E02032A0F467
:104E20008B3269F030F4803259F0833269F42061BA
:104E30002CC08D3239F0803339F4216026C02260D5
:104E4000246023C0286021C027FD27C030ED380F23
:104E50003A3078F426FF06C0FAE05F9E300D112448
:104E6000532E13C08AE0389E300D1124332E206259
:104E70000CC08E3221F426FD6BC1206406C08C3636
:104E800011F4206802C0883641F4F60193FD859143
:104E900093FF81916F018111C1CF982F9F7D955410
:104EA000933028F40C5F1F4FFFE3F9830DC0833666
:104EB00031F0833771F0833509F05BC022C0F8010F
:104EC000808189830E5F1F4F44244394512C5401E9
:104ED00015C03801F2E06F0E711CF801A080B1809E
:104EE00026FF03C0652D70E002C06FEF7FEFC501A4
:104EF0002C870E94E0282C0183012C852F77222EFD
:104F000017C03801F2E06F0E711CF801A080B1806B
:104F100026FF03C0652D70E002C06FEF7FEFC50173
:104F20002C870E94CE282C012C852068222E8301FC
:104F300023FC1BC0832D90E048165906B0F4B7013E
:104F400080E290E00E94EB283A94F4CFF50127FC30
:104F5000859127FE81915F01B70190E00E94EB28C7
:104F600031103A94F1E04F1A51084114510471F78D
:104F7000E5C0843611F0893639F5F80127FF07C0FE
:104F800060817181828193810C5F1F4F08C06081B5
:104F90007181072E000C880B990B0E5F1F4F2F7627
:104FA000722E97FF09C090958095709561957F4FFF
:104FB0008F4F9F4F2068722E2AE030E0A4010E949C
:104FC0002329A82EA81844C0853729F42F7EB22E95
:104FD0002AE030E025C0F22FF97FBF2E8F36C1F0D6
:104FE00018F4883579F0B4C0803719F0883721F08B
:104FF000AFC02F2F2061B22EB4FE0DC08B2D846068
:10500000B82E09C024FF0AC09F2F9660B92E06C093
:1050100028E030E005C020E130E002C020E132E0CD
:10502000F801B7FE07C060817181828193810C5FB6
:105030001F4F06C06081718180E090E00E5F1F4FBE
:10504000A4010E942329A82EA818FB2DFF777F2EEC
:1050500076FE0BC0372D3E7FA51450F474FE0AC0B7
:1050600072FC08C0372D3E7E05C0BA2C372D03C018
:10507000BA2C01C0B52C34FF0DC0FE01EA0DF11DA4
:105080008081803311F4397E09C032FF06C0B394A9
:10509000B39404C0832F867809F0B39433FD13C012
:1050A00030FF06C05A2CB31418F4530C5B18B32C01
:1050B000B31468F4B70180E290E03C870E94EB28CB
:1050C000B3943C85F5CFB31410F43B1801C0312CD8
:1050D00034FF12C0B70180E390E03C870E94EB28C8
:1050E0003C8532FF17C031FD03C088E790E002C065
:1050F00088E590E0B7010CC0832F867859F031FF26
:1051000002C08BE201C080E237FD8DE2B70190E082
:105110000E94EB28A51438F4B70180E390E00E94C8
:10512000EB285A94F7CFAA94F401EA0DF11D80817F
:10513000B70190E00E94EB28A110F5CF332009F4CD
:1051400051CEB70180E290E00E94EB283A94F6CF6E
:10515000F7018681978102C08FEF9FEF2C96E2E1E5
:105160000C949D290F931F93CF93DF93869F80010B
:10517000879F100D969F100D1124C8010E9468256D
:10518000EC01009729F0A80160E070E00E94D928A6
:10519000CE01DF91CF911F910F910895FC010590F1
:1051A000615070400110D8F7809590958E0F9F1F29
:1051B0000895DC0101C06D9341505040E0F708951F
:1051C000FC016150704001900110D8F780959095D6
:1051D0008E0F9F1F08950F931F93CF93DF93FB01B3
:1051E000238121FD03C08FEF9FEF28C022FF16C04F
:1051F00046815781248135814217530744F4A081A9
:10520000B1819D012F5F3F4F318320838C93268195
:1052100037812F5F3F4F3783268310C0EB01092F63
:10522000182F0084F185E02D0995892BE1F68E81F8
:105230009F8101969F838E83812F902FDF91CF9145
:105240001F910F910895FA01AA27283051F12031BA
:1052500081F1E8946F936E7F6E5F7F4F8F4F9F4F0A
:10526000AF4FB1E03ED0B4E03CD0670F781F891F4C
:105270009A1FA11D680F791F8A1F911DA11D6A0F1A
:10528000711D811D911DA11D20D009F468943F91CD
:105290002AE0269F11243019305D3193DEF6CF01CC
:1052A0000895462F4770405D4193B3E00FD0C9F792
:1052B000F6CF462F4F70405D4A3318F0495D31FDFF
:1052C0004052419302D0A9F7EACFB4E0A695979552
:1052D000879577956795BA95C9F700976105710528
:1052E00008959B01AC010A2E069457954795379572
:1052F0002795BA95C9F7620F731F841F951FA01DCC
:1053000008952F923F924F925F926F927F928F9269
:105310009F92AF92BF92CF92DF92EF92FF920F9344
:105320001F93CF93DF93CDB7DEB7CA1BDB0B0FB64E
:10533000F894DEBF0FBECDBF09942A88398848880B
:105340005F846E847D848C849B84AA84B984C884A1
:10535000DF80EE80FD800C811B81AA81B981CE0F98
:10536000D11D0FB6F894DEBF0FBECDBFED0108957D
:105370005058BB27AA270E94D0290C94AB2B0E941F
:105380009D2B38F00E94A42B20F039F49F3F19F494
:1053900026F40C94732B0EF4E095E7FB0C946D2B24
:1053A000E92F0E94BC2B58F3BA17620773078407D2
:1053B000950720F079F4A6F50C94DE2B0EF4E09519
:1053C0000B2EBA2FA02D0B01B90190010C01CA01BF
:1053D000A0011124FF27591B99F0593F50F4503E6A
:1053E00068F11A16F040A22F232F342F4427585F5C
:1053F000F3CF469537952795A795F0405395C9F774
:105400007EF41F16BA0B620B730B840BBAF091502B
:10541000A1F0FF0FBB1F661F771F881FC2F70EC0CA
:10542000BA0F621F731F841F48F48795779567959D
:10543000B795F7959E3F08F0B0CF9395880F08F089
:105440009927EE0F9795879508950E94492B08F4A8
:1054500081E008950E943E2A0C94AB2B0E94A42B5D
:1054600058F00E949D2B40F029F45F3F29F00C94E6
:105470006D2B51110C94DF2B0C94732B0E94BC2BC1
:1054800068F39923B1F3552391F3951B550BBB2773
:10549000AA2762177307840738F09F5F5F4F220FB8
:1054A000331F441FAA1FA9F335D00E2E3AF0E0E8AF
:1054B00032D091505040E695001CCAF72BD0FE2FF9
:1054C00029D0660F771F881FBB1F2617370748078D
:1054D000AB07B0E809F0BB0B802DBF01FF27935845
:1054E0005F4F3AF09E3F510578F00C946D2B0C9471
:1054F000DF2B5F3FE4F3983ED4F38695779567956D
:10550000B795F7959F5FC9F7880F911D9695879579
:1055100097F90895E1E0660F771F881FBB1F621798
:1055200073078407BA0720F0621B730B840BBA0B56
:10553000EE1F88F7E095089529F416F00C946D2B72
:105540000C94DE2B0C94732B0E94C42BA8F396387A
:10555000A0F707F80F92E8942BE33AEA48EB5FE7ED
:105560000E94762C0F920F920F924DB75EB70F925A
:105570000E942C2CE8E6F0E00E94762B4F915F9180
:10558000EF91FF91E595EE1FFF1F49F0FE57E06890
:105590004427EE0F441FFA95E1F74195550B0E9401
:1055A000F62B0F9007FE0C94EA2B08950E94DD2A3B
:1055B0006894B1110C94DF2B08950E94C42B88F0DD
:1055C0009F5798F0B92F9927B751B0F0E1F0660FC7
:1055D000771F881F991F1AF0BA95C9F714C0B13008
:1055E00091F00E94DE2BB1E008950C94DE2B672F22
:1055F000782F8827B85F39F0B93FCCF38695779537
:105600006795B395D9F73EF490958095709561951F
:105610007F4F8F4F9F4F0895E89409C097FB3EF44A
:1056200090958095709561957F4F8F4F9F4F9923EF
:10563000A9F0F92F96E9BB279395F695879577956D
:105640006795B795F111F8CFFAF4BB0F11F460FF2D
:105650001BC06F5F7F4F8F4F9F4F16C0882311F085
:1056600096E911C0772321F09EE8872F762F05C099
:10567000662371F096E8862F70E060E02AF09A9534
:10568000660F771F881FDAF7880F9695879597F929
:105690000895990F0008550FAA0BE0E8FEEF1616C3
:1056A0001706E807F907C0F012161306E407F50716
:1056B00098F0621B730B840B950B39F40A2661F08A
:1056C000232B242B252B21F408950A2609F4A1402D
:1056D000A6958FEF811D811D089597F99F6780E83A
:1056E00070E060E008959FEF80EC0895DF93CF9322
:1056F0001F930F93FF92EF92DF927B018C016894CE
:1057000006C0DA2EEF010E94732CFE01E894A591E9
:105710002591359145915591A6F3EF010E94D0292D
:10572000FE019701A801DA9469F7DF90EF90FF90EE
:105730000F911F91CF91DF91089500240A941616BE
:10574000170618060906089500240A94121613066F
:10575000140605060895092E0394000C11F48823FD
:1057600052F0BB0F40F4BF2B11F460FF04C06F5F19
:105770007F4F8F4F9F4F089557FD9058440F551FEF
:1057800059F05F3F71F04795880F97FB991F61F0C3
:105790009F3F79F087950895121613061406551F3A
:1057A000F2CF4695F1DF08C0161617061806991FA6
:1057B000F1CF86957105610508940895E894BB279B
:1057C00066277727CB0197F908950E94492B08F4A3
:1057D0008FEF08959B01AC0160E070E080E89FE3EB
:1057E0000C942A2A0C946D2B0C94D22C0E94C42B5E
:1057F000D8F39923C9F3940F511DA3F3915050404E
:1058000094F059F0882332F0660F771F881F91506B
:105810005040C1F79E3F51052CF7880F911D96957A
:10582000879597F908955F3FACF0983E9CF0BB27B1
:10583000869577956795B79508F4B1609395C1F70C
:10584000BB0F58F711F460FFE8CF6F5F7F4F8F4FAA
:105850009F4FE3CF0C94DF2BFA01DC01AA0FBB1F93
:105860009B01AC01BF5728F42227332744275078E7
:1058700020C0B75190F4AB2F00244695379527955B
:10588000011CA395D2F3002071F0220F331F441F97
:10589000B395DAF30ED00C94B82961307105A0E805
:1058A0008A07B94630F49B01AC0166277727882721
:1058B0009078309621F0208331834283538308957A
:1058C0000E94732C0C94AB2B0E949D2B38F00E94ED
:1058D000A42B20F0952311F00C946D2B0C94732BBA
:1058E00011240C94DF2B0E94BC2B70F3959FC1F305
:1058F000950F50E0551F629FF001729FBB27F00D7E
:10590000B11D639FAA27F00DB11DAA1F649F6627D2
:10591000B00DA11D661F829F2227B00DA11D621F21
:10592000739FB00DA11D621F839FA00D611D221FDB
:10593000749F3327A00D611D231F849F600D211DBF
:10594000822F762F6A2F11249F5750409AF0F1F042
:1059500088234AF0EE0FFF1FBB1F661F771F881FAB
:1059600091505040A9F79E3F510580F00C946D2B4B
:105970000C94DF2B5F3FE4F3983ED4F38695779544
:105980006795B795F795E7959F5FC1F7FE2B880F51
:10599000911D9695879597F908950E94492B880B3C
:1059A000990B08959F3F31F0915020F4879577959A
:1059B0006795B795880F911D9695879597F90895E6
:1059C000A1E21A2EAA1BBB1BFD010DC0AA1FBB1F03
:1059D000EE1FFF1FA217B307E407F50720F0A21B75
:1059E000B30BE40BF50B661F771F881F991F1A94E2
:1059F00069F760957095809590959B01AC01BD010C
:105A0000CF010895052E97FB1EF400940E94192DD6
:105A100057FD07D00E94E02C07FC03D04EF40C94F5
:105A2000192D50954095309521953F4F4F4F5F4F21
:105A3000089590958095709561957F4F8F4F9F4FFA
:105A40000895EE0FFF1F0590F491E02D099481E079
:105A500090E0F8940C945D2DFB01DC014150504026
:105A600030F08D910190801919F40020B9F7881B4E
:105A7000990B0895AEE0B0E0E0E4FDE20C948F29CC
:105A80000D891E8986E08C831A8309838FEF9FE737
:105A90009E838D83AE01475E5F4F6F89788DCE0107
:105AA00001960E94E0262F813885F801E20FF31F4E
:105AB00010822E96E4E00C94AB2910E0CFEDD0E0FC
:105AC00004C0FE010E94212D2196C03ED107C9F7D6
:045AD000F894FFCF78
:105AD400FD10FD1003FF00009F0580000000000082
