:100000000C9481000C94A9000C94A9000C94A900F4
:100010000C94A9000C94A9000C94A9000C947809E4
:100020000C94A9000C94A9000C94A9000C94A900AC
:100030000C94A9000C94A9000C94A9000C94A9009C
:100040000C94CF0A0C94A9000C94010A0C94DB09BF
:100050000C94A9000C94A9000C94A9000C94A9007C
:100060000C94A9000C94A900025D002C20002070C3
:100070006172616D733A5B0020736F757263653AEC
:10008000002069643A00434D44200045786563755B
:1000900074652000467265652052414D203D200068
:1000A0004F4B0052656365697665643A2000000035
:1000B0000008000201000003040700000000000027
:1000C000000000000000250028002B0000000000B8
:1000D000240027002A000404040404040404020287
:1000E00002020202030303030303010204081020B7
:1000F0004080010204081020010204081020630E51
:100100003F0E11241FBECFEFD8E0DEBFCDBF12E0FF
:10011000A0E0B1E0E0EAF3E202C005900D92A43560
:10012000B107D9F723E0A4E5B2E001C01D92A43BDA
:10013000B207E1F710E0C0E8D0E004C02197FE016B
:100140000E94B811CF37D107C9F70E94190B0C9440
:10015000C3110C940000089508950895FC01928540
:10016000915081E0923008F080E00895DC011A9609
:100170002C91261759F0FC0162870190F081E02D47
:100180000688F789E02D099581E0089580E00895BB
:1001900003960895CB0108957F928F929F92AF921C
:1001A000BF92CF92DF92EF92FF920F931F93CF9364
:1001B000DF93EC0149015A018B01C12CD12C76014E
:1001C000C814D904EA04FB0484F5F80171908F0186
:1001D0008F8580FF0BC0E881F9810084F185E02DD7
:1001E00020E144E060E070E0CE010995EB85FC85FC
:1001F0008D859E85E817F90738F470828B859C857C
:1002000001969C878B870BC0E881F981672D70E090
:10021000028CF38DE02DCE010995019649F02FEF68
:10022000C21AD20AE20AF20ACBCFB401C50102C057
:10023000B601C701DF91CF911F910F91FF90EF9011
:10024000DF90CF90BF90AF909F908F907F90089558
:10025000CF93DF93EC01E881F9810288F389E02DE7
:1002600009958F3F2FEF920731F02D813E812F5F4F
:100270003F4F3E832D83DF91CF9108958FEF9FEF06
:10028000089560E070E0CB01089580E090E008956B
:10029000CB010895CF93DF93EC0188899989DC0124
:1002A000ED91FC910084F185E02D0995892BA9F34E
:1002B00088899989DC01ED91FC910284F385E02D18
:1002C000DF91CF910994CF93DF93EC0188899989CD
:1002D000DC01ED91FC910084F185E02D0995892BDD
:1002E000A9F388899989DC01ED91FC910484F58555
:1002F000E02DDF91CF910994AF92BF92CF92DF9220
:10030000EF92FF920F931F93CF93DF9300D000D013
:10031000CDB7DEB78C015B01C12CD12C7601F80181
:1003200080899189DC01ED91FC910284F385E02DB7
:1003300029833A834B835C83099529813A814B81D8
:100340005C818F3F71F0C216D306E406F5064CF4CB
:10035000D5018D935D01BFEFCB1ADB0AEB0AFB0AD7
:10036000DECFC701B6010F900F900F900F90DF9175
:10037000CF911F910F91FF90EF90DF90CF90BF90A2
:10038000AF900895DC0150968D919C915197DC01BE
:10039000ED91FC910084F185E02D099480E090E0DE
:1003A000089580E090E0089580E090E0089580E076
:1003B00090E008950895CF93DF93C0917502D09196
:1003C0007602E881F9810084F185E02DCE0109955E
:1003D000892BB9F3E881F9810284F385E02DCE0100
:1003E000DF91CF9109941F93CF93DF93182FC09182
:1003F0007502D09176028A3041F4E881F98101904A
:10040000F081E02D6DE0CE010995E881F981019040
:10041000F081E02D612FCE01099521E030E00197B8
:1004200011F420E030E0C901DF91CF911F910895D0
:100430000F931F93CF938C0161E086E00E94520AD4
:1004400061E088E00E94520A61E087E00E94520A5F
:1004500080910001853021F08F3F09F0D8C004C0A1
:10046000E8E6F0E0C49174C085E080930001E8E61E
:10047000F0E0E491EF3F09F4CAC0E13011F1E2305D
:1004800009F442C0E11163C014BC15BC84B582609C
:1004900084BD85B5816085BDEBEDF0E0E491F0E0D1
:1004A000EE0FFF1FEE53FF4F8591949190935B02E7
:1004B00080935A02EFEEF0E0E491E0935902C0E03D
:1004C00049C0109280001092810080918100886064
:1004D0008093810080918100816080938100EBEDA9
:1004E000F0E0E491F0E0EE0FFF1FEE53FF4F859137
:1004F00094919093580280935702EFEEF0E0E491CC
:10050000E0935602C1E026C01092B0001092B100F4
:100510008091B00082608093B0008091B1008160D2
:100520008093B100EBEDF0E0E491F0E0EE0FFF1FFF
:10053000EE53FF4F859194919093650280936402EE
:10054000EFEEF0E0E491E0936602C2E003C0CE2F4C
:10055000C7FD5DC085E00E94330ACC2351F0C23054
:1005600001F58091B100887F82608093B10089EFAE
:100570003BC085B5887F826085BD89EF87BD80E9F6
:1005800091E0A0E0B0E08093600290936102A093BC
:100590006202B093630280916E00826080936E006D
:1005A00036C0C130F1F480918100887F81608093F2
:1005B00081008FEC97E0909389008093880080E918
:1005C00091E0A0E0B0E080935C0290935D02A09384
:1005D0005E02B0935F0280916F00826080936F0033
:1005E00016C0C230A1F48FEC8093B30080E991E093
:1005F000A0E0B0E08093670290936802A093690244
:10060000B0936A02809170008260809370000E94B3
:10061000C30AF801658776878787908B82E0CF9140
:100620001F910F910895CF93DF93EC018BE091E040
:10063000998388838091540290915502009739F0F4
:10064000DC01ED91FC910280F381E02D09958A8116
:100650009B81DF91CF910C949010CF93DF93EC01AD
:100660000E941303CE01DF91CF910C9490100C9453
:100670009010089508950C949010DC01ED91FC9178
:10068000369720813181820F931F0C943B03FB012D
:1006900020813181FC0131832083FB014281538120
:1006A000F901369720813181FC01E20FF31F51835C
:1006B000408308952BE931E0FC013183208325EA52
:1006C00031E0318F208F6BEA71E00C944703DC013D
:1006D000ED91FC91369720813181820F931F0C940C
:1006E0005A03CF93DF93EC010E945A03CE01DF91AE
:1006F000CF910C949010DC01ED91FC913697208104
:100700003181820F931F0C9471030C949010089503
:1007100008950C949010DC01ED91FC9136972081A6
:100720003181820F931F0C948903FB012081318159
:10073000FC0131832083FB0142815381F90136970B
:1007400020813181FC01E20FF31F51834083089522
:1007500023E132E0FC01318320832DE132E0358B4F
:10076000248B63E272E00C949503DC01ED91FC9123
:10077000369720813181820F931F0C94A803CF9369
:10078000DF93EC010E94A803CE01DF91CF910C947E
:100790009010DC01ED91FC91369720813181820F20
:1007A000931F0C94BF030C9490100F931F93CF933F
:1007B000DF93EC01CB01088119817B836A830E945E
:1007C000FB0F9983888320E030E08C819D8128177E
:1007D000390770F4E881F981E20FF31F309729F0AF
:1007E000D801A20FB31F8C9180832F5F3F4FEDCFB5
:1007F000C801DF91CF911F910F910C9490100F932E
:100800001F93CF93DF938C01EB016F3F8FEF78073E
:1008100019F480E090E00FC06A3031F46DE0F80127
:10082000808991890E94D4096C2FF801808991896F
:100830000E94D409CE01DF91CF911F910F910895AD
:100840008F929F92BF92CF92DF92EF92FF920F937F
:100850001F93CF93DF9300D000D0CDB7DEB78C01CC
:100860004B01C12CD12C7601C216D306E406F50645
:1008700044F5F401B1904F01FAE0BF120EC06DE0F3
:10088000F8018089918929833A834B835C830E9494
:10089000D4095C814B813A8129816B2DF8018089D3
:1008A000918929833A834B835C830E94D409FFEFAB
:1008B000CF1ADF0AEF0AFF0A5C814B813A81298156
:1008C000D3CFCA01B9010F900F900F900F90DF9115
:1008D000CF911F910F91FF90EF90DF90CF90BF903D
:1008E0009F908F900895CF93DF93809154029091C1
:1008F0005502892BC9F489E090E00E94FB0FEC01BE
:100900008BE091E09983888388E090E09D838C83DD
:100910001F821E8280E190E00E94FB0F9B838A83EE
:10092000D0935502C0935402809154029091550285
:10093000DF91CF910895EF92FF920F931F93CF9382
:10094000DF93EC01E881F9810684F785E02D63E00F
:1009500009950E947304DC0112968D919C91139766
:1009600016962D913C911797A901440F551F480FDA
:10097000591FBC01FB016417750741F06E5F7F4F83
:10098000008111810C171D07A9F702C0E0E0F0E01B
:10099000CD2B31F1E81BF90BAF0155954795C901F6
:1009A0000197BF016E5F7F4F4817590790F4129669
:1009B000ED90FC9013974F5F5F4F8701060F171F55
:1009C000E80108811981EE0DFF1D11830083FB01F1
:1009D000E8CF8217930720F417969C938E9316976F
:1009E000DF91CF911F910F91FF90EF900895EF92BB
:1009F000FF920F931F93CF93DF93EC018C819D8126
:100A00008617970710F57A018B018A819B818617DB
:100A1000970740F4685F7F4F8617970718F4CE0159
:100A20000E94D5038C819D818017910758F4E8813D
:100A3000F981E80FF91F309719F0D7012C91208325
:100A40000196F2CF1D830C8305C06817790710F457
:100A50007D836C83DF91CF911F910F91FF90EF9079
:100A60000895CF92DF92EF92FF920F931F93CF934F
:100A7000DF931F92CDB7DEB78C016B0188E090E069
:100A8000D80113969C938E93129715961C921E92E2
:100A900014970E94FB0FF80191838083C114D10445
:100AA00049F1F60101900020E9F731977F01EC1838
:100AB000FD081982AE014F5F5F4FB701C8010E9468
:100AC000F704D8012D913C9140E050E0BA01C701F4
:100AD000A0E0B0E0481759076A077B0758F4F60111
:100AE00011916F01F90111939F014F5F5F4F6F4F9C
:100AF0007F4FF0CF0F90DF91CF911F910F91FF901B
:100B0000EF90DF90CF9008950F931F93CF93DF93D3
:100B10001F92CDB7DEB78C01AE014F5F5F4F61E32F
:100B200072E00E943105C8010F90DF91CF911F91B3
:100B30000F9108950F931F93CF93DF931F92CDB71B
:100B4000DEB78C01AE014F5F5F4F65E372E00E943C
:100B50003105C8010F90DF91CF911F910F9108953A
:100B6000FC01808191810C949010AF92BF92CF9242
:100B7000DF92EF92FF920F931F93CF93DF93FC01CD
:100B8000248135816217730708F56B01EC0187E05A
:100B9000869F5001879FB00C11248B01E12CF12C12
:100BA0008C819D810817190778F4C7018A0D9B1D58
:100BB00028813981820F931F0E94B0050F5F1F4F5C
:100BC000F7E0EF0EF11CECCFDD82CC82DF91CF910C
:100BD0001F910F91FF90EF90DF90CF90BF90AF905B
:100BE0000895EF92FF920F931F93CF93DF937C01B1
:100BF00000E010E0C0E0D0E0F70124813581808181
:100C00009181C217D30740F4800F911F0E94B00555
:100C10002196095F1F4FF0CFDF91CF911F910F9168
:100C2000FF90EF900C94901023E131E0FC013183B0
:100C3000208303960C94F105CF93DF93EC010E947F
:100C40001406CE01DF91CF910C949010CF93DF93D7
:100C5000EC016C817D816F5F7F4F8A819B8186175C
:100C6000970718F4CE010E94D503E881F9818C81A1
:100C70009D81E80FF91F108288819981DF91CF91C2
:100C80000895AF92BF92CF92DF92EF92FF920F93AF
:100C90001F93CF93DF931F92CDB7DEB78C016B010B
:100CA0007A01590188E090E0D80113969C938E93C5
:100CB000129715961C921E9214970E94FB0FF80132
:100CC00091838083D60114968D919C9115978E15F2
:100CD0009F0510F40E94BE111982BC016E197F0994
:100CE000A616B70608F4B501AE014F5F5F4FC80105
:100CF0000E94F704F80184819581D601ED91FC9161
:100D0000EE0EFF1EF8012081318140E050E0BA0173
:100D1000A0E0B0E0481759076A077B0758F4F701CD
:100D200011917F01F90111939F014F5F5F4F6F4F49
:100D30007F4FF0CF0F90DF91CF911F910F91FF90D8
:100D4000EF90DF90CF90BF90AF9008952F923F9299
:100D50004F925F926F927F928F929F92AF92BF92CB
:100D6000CF92DF92EF92FF920F931F93CF93DF9377
:100D700000D01F92CDB7DEB77C017B836A831C0154
:100D800023E0220E311C60E070E0C1010E94B50535
:100D9000EA81FB8180809180EA81FB812481358119
:100DA000F7E0F29FC001F39F900D1124EA81FB81CF
:100DB00020813181820F931F8816990609F483C020
:100DC000F701878190856C01FFEFCF1ADF0A8C1540
:100DD0009D0508F070C0F701258136812C153D0571
:100DE000F0F5099628173907D0F56380748096834B
:100DF000858347E09C01429FC001439F900D1124D1
:100E00000E94FB0FF701948383835301412C512CE3
:100E1000F7018781908548165906F0F4F701238180
:100E20003481C50186199709820F931F009751F0ED
:100E30008E010F5F1F4F2FEF3FEF40E050E0B501F5
:100E40000E944106C5010E94B005FFEF4F1A5F0ADC
:100E500027E0A20EB11CDCCFC3010E949010F70165
:100E6000A780B084F7E0FA9D2001FB9D500C11246F
:100E7000612C712CF701AC14BD04D0F423813481B2
:100E8000C301840D951D820F931F009751F08E01B1
:100E90000F5F1F4F2FEF3FEF40E050E0B4010E9483
:100EA0004106FFEFAF1ABF0A27E0620E711CE2CFC6
:100EB000D086C78204C0B601C1010E94B505F7E023
:100EC0008F0E911C69CF0F900F900F90DF91CF91F3
:100ED0001F910F91FF90EF90DF90CF90BF90AF9058
:100EE0009F908F907F906F905F904F903F902F904A
:100EF00008952DE232E0FC0121933193CF010C944F
:100F0000B005CF93DF93EC010E947907CE01DF910A
:100F1000CF910C949010089508950895EF92FF9248
:100F20000F931F93CF93DF938C017B01C0E0D0E040
:100F3000F701EC0FFD1F6491662361F0D801ED917C
:100F4000FC910190F081E02DC8010995892B11F0E9
:100F50002196EECFCE01DF91CF911F910F91FF909F
:100F6000EF900895CF92DF92EF92FF920F931F932D
:100F7000CF93DF936C017A018B01C0E0D0E0CE15F6
:100F8000DF0589F0D8016D918D01D601ED91FC91BD
:100F90000190F081E02DC6010995892B11F47E01A5
:100FA00002C02196ECCFC701DF91CF911F910F9125
:100FB000FF90EF90DF90CF900895089580E090E04B
:100FC0000895FC01538D448D252F30E0842F90E04F
:100FD000821B930B541710F0CF9608950197089534
:100FE000FC01918D828D981761F0828DDF01A80F31
:100FF000B11D5D968C91928D9F5F9F73928F90E053
:1010000008958FEF9FEF0895FC01918D828D9817C1
:1010100031F0828DE80FF11D858D90E008958FEFFE
:101020009FEF0895FC01918D228D892F90E0805CC7
:101030009F4F821B91098F739927089589E792E04A
:101040000E94120821E0892B09F420E0822F0895E4
:10105000FC01848DDF01A80FB11DA35ABF4F2C9155
:10106000848D90E001968F739927848FA689B78924
:101070002C93A089B1898C9180648C93938D848DFD
:10108000981306C00288F389E02D80818F7D8083CC
:101090000895EF92FF920F931F93CF93DF93EC018C
:1010A00081E0888F9B8D8C8D981305C0E889F98924
:1010B000808185FD24C0F62E0B8D10E00F5F1F4F41
:1010C0000F731127E02E8C8DE8120CC00FB607FCB1
:1010D000FACFE889F989808185FFF5CFCE010E949A
:1010E0002808F1CF8B8DFE01E80FF11DE35AFF4F69
:1010F000F0820B8FEA89FB898081806207C0EE89CC
:10110000FF896083E889F98980818064808381E038
:1011100090E0DF91CF911F910F91FF90EF90089594
:10112000CF93DF93EC01888D8823C9F0EA89FB898E
:10113000808185FD05C0A889B9898C9186FD0FC085
:101140000FB607FCF5CF808185FFF2CFA889B9895A
:101150008C9185FFEDCFCE010E942808E7CFDF916B
:10116000CF91089580E090E0892B29F00E941E081D
:1011700081110C94000008950E94BE11909100010D
:10118000981324C0E8E6F0E0E4919FEF909300010B
:10119000E130B9F098F0E230C9F4909170009D7F91
:1011A0009093700091E09093B0009091B100987F7F
:1011B00094609093B1001092B30008C010926E003A
:1011C00005C090916F009D7F90936F0060E00C943C
:1011D000520A0F931F93CF93DF93EC010E94C30A2F
:1011E0000D851E852F853889DC01CB01801B910B75
:1011F000A20BB30B893E9340A105B105B0F060E0AE
:1012000086E00E94520A60E088E00E94520A60E094
:1012100087E00E94520A85E00E94BE08CE01DF915D
:10122000CF911F910F910C949B04DF91CF911F914F
:101230000F9108956115710579F0FB01019000206F
:10124000E9F73197AF01461B570BDC01ED91FC919B
:101250000280F381E02D099480E090E008954F92A0
:101260005F926F927F92EF92FF920F931F93CF93B3
:10127000DF93CDB7DEB7A1970FB6F894DEBF0FBEF0
:10128000CDBF7C01FA01CB0119A2223008F42AE07B
:101290008E010F5D1F4F422E512C612C712CBF010E
:1012A000A30192010E949611F901CA01015011098E
:1012B0006A3014F4605D01C0695CD8016C93232B23
:1012C000242B252B61F7B801C7010E941A09A196AA
:1012D0000FB6F894DEBF0FBECDBFDF91CF911F9147
:1012E0000F91FF90EF907F906F905F904F900895D7
:1012F0001F920F920FB60F9211242F933F934F938B
:101300005F936F937F938F939F93AF93BF93EF936D
:10131000FF938091670290916802A0916902B09159
:101320006A02892B8A2B8B2B51F180916602E09106
:101330006402F09165029081892780838091670221
:1013400090916802A0916902B0916A02181619067C
:101350001A061B06C4F48091670290916802A0915E
:101360006902B0916A020197A109B10980936702ED
:1013700090936802A0936902B0936A0204C08091BE
:1013800000010E94BE08FF91EF91BF91AF919F9124
:101390008F917F916F915F914F913F912F910F901E
:1013A0000FBE0F901F901895DC01ED91FC910190FC
:1013B000F081E02D09941F920F920FB60F92112425
:1013C0002F933F934F935F936F937F938F939F934D
:1013D000AF93BF93EF93FF9389E792E00E942808B1
:1013E000FF91EF91BF91AF919F918F917F916F91FD
:1013F0005F914F913F912F910F900FBE0F901F90D3
:1014000018951F920F920FB60F9211242F938F935E
:101410009F93EF93FF93E0918902F0918A0280817C
:10142000E0918F02F091900282FD12C09081809134
:1014300092028F5F8F7320919302821751F0E09197
:101440009202F0E0E758FD4F958F8093920201C021
:101450008081FF91EF919F918F912F910F900FBEFF
:101460000F901F90189590E0FC01E651FF4F2491DA
:10147000FC01EA52FF4F8491882399F090E0880F95
:10148000991FFC01E453FF4FA591B491FC01EE5369
:10149000FF4F859194918FB7F894EC91E22BEC93E8
:1014A0008FBF089590E0FC01E255FF4F3491FC019D
:1014B000E651FF4F2491FC01EA52FF4FE491EE23E5
:1014C00009F43BC0332339F1333091F038F4313033
:1014D000A9F0323001F584B58F7D12C0373091F01C
:1014E0003830A1F03430B9F4809180008F7D03C092
:1014F000809180008F77809380000DC084B58F77B6
:1015000084BD09C08091B0008F7703C08091B00086
:101510008F7D8093B000F0E0EE0FFF1FEE53FF4F82
:10152000A591B4918FB7F894EC91611103C0209507
:101530002E2301C02E2B2C938FBF08953FB7F89414
:1015400080911B0390911C03A0911D03B0911E0379
:1015500026B5A89B05C02F3F19F00196A11DB11D0E
:101560003FBFBA2FA92F982F8827820F911DA11D49
:10157000B11DBC01CD0142E0660F771F881F991F86
:101580004A95D1F708952FB7F89460911703709199
:1015900018038091190390911A032FBF08951F9289
:1015A0000F920FB60F9211242F933F938F939F9317
:1015B000AF93BF938091170390911803A0911903E3
:1015C000B0911A033091160323E0230F2D3720F436
:1015D0000196A11DB11D05C026E8230F0296A11D8D
:1015E000B11D209316038093170390931803A093C3
:1015F0001903B0931A0380911B0390911C03A091CF
:101600001D03B0911E030196A11DB11D80931B0304
:1016100090931C03A0931D03B0931E03BF91AF9141
:101620009F918F913F912F910F900FBE0F901F9020
:101630001895CF93DF93CDB7DEB72F970FB6F894F9
:10164000DEBF0FBECDBF789484B5826084BD84B503
:10165000816084BD85B5826085BD85B5816085BDAD
:1016600080916E00816080936E0010928100809165
:1016700081008260809381008091810081608093ED
:101680008100809180008160809380008091B10012
:1016900084608093B1008091B00081608093B0003D
:1016A00080917A00846080937A0080917A008260D1
:1016B00080937A0080917A00816080937A00809193
:1016C0007A00806880937A001092C10086E00E94C0
:1016D000330A88E00E94330A87E00E94330A85E0DB
:1016E0000E94330AE0918902F0918A0282E08083AD
:1016F000E0918502F09186021082E0918702F091DC
:1017000088028FEC808310929102E0918D02F0911B
:101710008E0286E08083E0918B02F0918C028081C2
:1017200080618083E0918B02F0918C0280818860DF
:101730008083E0918B02F0918C02808180688083AD
:10174000E0918B02F0918C0280818F7D808360EA32
:1017500070E089E792E00E948E0767E372E089E714
:1017600092E00E941A090E94C30A60936D0270936E
:101770006E0280936F029093700281E190E00E946C
:10178000FB0F7C01DC0112961C92129788E090E01E
:1017900016969C938E93159718961C921E921797E7
:1017A00088E390E00E94FB0FF70194838383128605
:1017B00080916B0290916C02019690936C028093E1
:1017C0006B02948783878FE291E0918380831586F3
:1017D00016861786108A6BE870E089E792E00E940F
:1017E0008E0766E870E089E792E00E948E07D701D5
:1017F000ED91FC910480F581E02DB701CE010196B9
:101800006C010995C6010E942606BC0189E792E099
:101810000E941A09C6010E94B00561E870E089E7DC
:1018200092E00E948E07D7011B964D915C911C9708
:1018300060E070E02AE089E792E00E942F0968E703
:1018400070E089E792E00E948E07F701428150E044
:1018500060E070E02AE089E792E00E942F096EE6DE
:1018600070E089E792E00E948E07D701ED91FC912C
:101870000084F185E02DC70109955C01FC012481FC
:1018800035813D872C87285F3F4F3B872A8787E03C
:10189000F82FF29FC001F39F900D11240E94FB0FBF
:1018A00099878887812C912C612C712C8C859D8542
:1018B00068167906C8F4D5016D917C91680D791D83
:1018C00088859985880D991D009739F086012FEF3D
:1018D0003FEF40E050E00E944106BFEF6B1A7B0AE9
:1018E000E7E08E0E911CE2CFA884B984E7E09E2E3B
:1018F0002C853D85929EC001939E900D11242885D4
:101900003985820F931FA816B90679F18E01015F00
:101910001F4F2FEF3FEF40E050E0B501C6010E949E
:101920004106C6010E942606BC0189E792E00E949A
:101930001A09C6010E94B0052C853D85929EC00102
:10194000939E900D1124079728853985820F931F48
:10195000A816B90631F06BE670E089E792E00E94C4
:101960008E07F7E0AF0EB11CC3CF69E670E089E7E0
:1019700092E00E948E0767E372E089E792E00E949E
:101980001A09CE0108960E94F105D701ED91FC914C
:101990000684F785E02D61E0C7010995D701ED9137
:1019A000FC910088F189E02DC7010995823009F08A
:1019B00074C00E9473048C01E114F10409F47EC028
:1019C000FC01868097805401FFEFAF1ABF0A8A148A
:1019D0009B0408F059C0DC0114962D913C91159799
:1019E0002A153B0598F5C40109962817390770F5A3
:1019F00012966C90129713967C90139715969C9361
:101A00008E931497880F991F0E94FB0FF801938300
:101A10008283D30140E050E048155905A1F0F80158
:101A2000828193819A01220F331FFC01E20FF31F81
:101A3000309729F08D919C911197918380834F5F0E
:101A40005F4F1296E9CFC3010E949010D8011696FD
:101A50008D919C9117979C01220F331F8A159B052E
:101A600078F4D8011296ED91FC911397E20FF31FD1
:101A7000309711F0F182E08201962E5F3F4FEECF5A
:101A8000F801B782A6821AC0A814B904B8F4DC0120
:101A90001796BC92AE92169711C0D701ED91FC91AA
:101AA000813031F40288F389E02DC701099506C021
:101AB0000488F589E02D63E0C701099564E970E0C9
:101AC00089E792E00E948E078091AA039091AB0370
:101AD0004601881A990A092C000CAA08BB08B7FE0F
:101AE0000EC06DE289E792E00E94D4094427552791
:101AF000BA01481959096A097B092AE003C02AE09A
:101B0000B501A40189E792E00E942F0967E372E022
:101B100089E792E00E941A09E0907302F090740243
:101B200089E792E00E941208181619060CF063C0AB
:101B300089E792E00E94F0078A3019F08D3009F0B1
:101B400044C0F70186819781892B09F44DC08E012D
:101B5000085F1F4F2FEF3FEF40E050E0B7016E5F8F
:101B60007F4FC6010E94410663EA70E089E792E078
:101B70000E948E07C6010E942606BC0189E792E0FA
:101B80000E941A0967E372E089E792E00E941A094D
:101B9000C6010E94B005D70116964D915C9117972A
:101BA00060E070E02AE089E792E00E942F0967E395
:101BB00072E089E792E00E941A09F7018681978115
:101BC000892B91F0178216820FC08F87D701169646
:101BD0006D917C9117976F5F7F4FAE01415F5F4FB3
:101BE000C70102960E94F704F70186819781419709
:101BF00010F0178216820E949E0A2B013C019AE087
:101C0000892E912CA12CB12C0E949E0ADC01CB01C3
:101C100084199509A609B709883E9340A105B10525
:101C200058F0F1E08F1A9108A108B10828EE420E91
:101C300023E0521E611C711C81149104A104B104A3
:101C400019F7E0917102F0917202E280F38006814F
:101C50001781000F111F0E0D1F1DE016F10661F018
:101C6000D7018D919D917D01DC01ED91FC91048462
:101C7000F585E02D0995F1CF0E94B2084DCF81E2A4
:101C800093E00E945A038FE493E00E94A80389E73F
:101C900093E00E94B00580E893E00E94B00587E8D9
:101CA00093E00E94B0058EE893E00E94B00585E9BC
:101CB00093E00E94B0058CE993E00E94B00583EAAE
:101CC00093E00C94B0050F931F93CF93DF931F9273
:101CD000CDB7DEB709E712E010927C0210927B02CA
:101CE00088EE93E0A0E0B0E080937D0290937E02C6
:101CF000A0937F02B093800283E791E090937A02F1
:101D00008093790285EC90E090938602809385021F
:101D100084EC90E0909388028093870280EC90E0BE
:101D200090938A028093890281EC90E090938C02D8
:101D300080938B0282EC90E090938E0280938D02D0
:101D400086EC90E09093900280938F021092920222
:101D5000109293021092940210929502AE014F5F7E
:101D60005F4F6AE372E083EA93E00E943105AE01BF
:101D70004F5F5F4F6DE372E08CE993E00E943105A5
:101D8000AE014F5F5F4F60E472E085E993E00E942F
:101D90003105AE014F5F5F4F65E472E08EE893E07E
:101DA0000E943105AE014F5F5F4F69E472E087E842
:101DB00093E00E943105AE014F5F5F4F6DE472E02A
:101DC00080E893E00E943105AE014F5F5F4F61E50F
:101DD00072E089E793E00E943105E1E2F0E0F093E0
:101DE0006703E093660310926803109269031092F0
:101DF0006A0346E050E060E070E040936B0350936C
:101E00006C0360936D0370936E0310926F031092D6
:101E10007003109271031092720320E220937303F7
:101E200010927503109274031092780381E593E089
:101E3000909377038093760383E192E0909350032D
:101E400080934F038DE192E090936403809363034A
:101E50001092550310925403109257031092560398
:101E6000109259031092580310925B0310925A0378
:101E700010925D0310925C0310925F0310925E0358
:101E800081EF91E09093520380935103109362038A
:101E90000093610330E130936003F0933D03E093DE
:101EA0003C0310923E0310923F0310924003409374
:101EB0004103509342036093430370934403109291
:101EC0004503109246031092470310924803209353
:101ED000490310924B0310924A0310924E03109242
:101EE000230310922403109225031092260327E265
:101EF00033E030934D0320934C032BE931E03093D2
:101F000022032093210325EA31E030933A03209302
:101F1000390310922B0310922A0310922D03109272
:101F20002C0310922F0310922E0310923103109263
:101F30003003109233031092320310923503109243
:101F4000340390932803809327031093380300935E
:101F5000370388E08093360310927802109277025C
:101F600010937602009375026BED71E083EF91E0C0
:101F70000E942811909378028093770280911F032A
:101F800090912003892BC9F489E090E00E94FB0F17
:101F90008C018DE292E0F8019183808388E090E0EB
:101FA00095838483178216820E94FB0FF801938326
:101FB00082831093200300931F0380911F0390914D
:101FC000200390937402809373020E947304909391
:101FD0007202809371020E94C30A60936D02709333
:101FE0006E0280936F02909370020F90DF91CF91F9
:101FF0001F910F910895CF93DF938230910510F4D4
:1020000082E090E0E091AC03F091AD0320E030E09D
:10201000C0E0D0E0309711F1408151814817590755
:10202000C0F04817590761F482819381209719F015
:102030009B838A832BC09093AD038093AC0326C00F
:102040002115310519F04217530718F49A01BE0102
:10205000DF01EF010280F381E02DDCCF2115310596
:1020600009F1281B390B2430310590F412968D911B
:102070009C9113976115710521F0FB019383828375
:1020800004C09093AD038093AC03FD01329644C02D
:10209000FD01E20FF31F81939193225031092D939B
:1020A0003C933AC02091AA033091AB03232B41F417
:1020B00020910301309104013093AB032093AA03D4
:1020C00020910101309102012115310541F42DB714
:1020D0003EB74091050150910601241B350BE0915C
:1020E000AA03F091AB03E217F307A0F42E1B3F0BFA
:1020F0002817390778F0AC014E5F5F4F241735077A
:1021000048F04E0F5F1F5093AB034093AA03819397
:10211000919302C0E0E0F0E0CF01DF91CF9108950C
:102120000F931F93CF93DF93009709F48CC0FC01AA
:102130003297138212820091AC031091AD03011506
:10214000110581F420813181820F931F2091AA0310
:102150003091AB032817390779F5F093AB03E0937F
:10216000AA0371C0D80140E050E0AE17BF0750F499
:1021700012962D913C911397AD012115310509F16E
:10218000D901F3CF9D01DA0133832283608171810C
:10219000860F971F8217930769F4EC012881398114
:1021A000260F371F2E5F3F4F318320838A819B810B
:1021B00093838283452B29F4F093AD03E093AC0322
:1021C00042C01396FC93EE931297ED0149915991F9
:1021D0009E01240F351FE217F30771F4808191816E
:1021E000840F951F029611969C938E938281938102
:1021F00013969C938E931297E0E0F0E0D80112962C
:102200008D919C911397009719F0F8018C01F6CFEE
:102210008D919C9198012E5F3F4F820F931F2091CB
:10222000AA033091AB032817390769F4309729F4D2
:102230001092AD031092AC0302C01382128210936D
:10224000AB030093AA03DF91CF911F910F910895E3
:102250000F931F93CF93DF93009731F461157105AE
:1022600019F480E090E03AC08B01EC016EE070E080
:1022700081E090E00E947311FC01892B91F380E8CA
:1022800083830115110571F01387028781E8838329
:102290008091AE039091AF03892B21F4F093AF03AB
:1022A000E093AE032097C9F0D187C0878381826015
:1022B00083838091B0039091B103892B71F4F093E3
:1022C000B103E093B0038091B2039091B303892BE3
:1022D00021F4F093B303E093B203CF01DF91CF91E8
:1022E0001F910F9108950F931F93CF93DF93869FB4
:1022F0008001879F100D969F100D1124C8010E9428
:10230000FB0FEC01009729F0A80160E070E00E944B
:102310008F11CE01DF91CF911F910F910895DC01B4
:1023200001C06D9341505040E0F70895A1E21A2E8C
:10233000AA1BBB1BFD010DC0AA1FBB1FEE1FFF1F69
:10234000A217B307E407F50720F0A21BB30BE40BB9
:10235000F50B661F771F881F991F1A9469F7609500
:102360007095809590959B01AC01BD01CF010895BA
:10237000EE0FFF1F0590F491E02D099481E090E0AD
:10238000F8940C94C31110E0C0E8D0E004C0FE0142
:102390000E94B8112196C138D107C9F7F894FFCF30
:1023A000FF0000B40380000000000013032D0300B1
:1023B000000000000000009A05A606C800AE00ADAF
:1023C00000B600BC089B04AC00AB00000000001489
:1023D000061C068405A606C800AE00E908B600186B
:1023E000029B04AC00AB00180000000000000000DD
:1023F00000E8FFE8FF0000000000001400000000FB
:102400000000000000ECFFECFF00000000000000F6
:102410000000004908B207E10790081208F007041D
:102420000806000000000039033B03FAFFFAFF0032
:10243000003A033D031800000000005A037103E84E
:10244000FFE8FF000067037B039B014D015701A5D7
:1024500001000000008B073703DA01D701D401D156
:1024600001CE01450141013E0128014801CC00CACD
:102470000002000000000087038903FEFFFEFF004A
:102480000088038B03000000008D07D303000000C9
:10249000008C078503DA01D701D401D101CE01C236
:1024A000017C0163014A0148012004FF031400007C
:1024B000000000A803BF03ECFFECFF0000B503C958
:1024C00003130261016B011D020000000079078106
:1024D00007535550003F000D0A0042540048560073
:1024E000534554530053455400544C530054425ADE
:0424F0000041540053
:00000001FF
