:100000000C94C8000C94F0000C94F0000C94F000D8
:100010000C94F0000C94F0000C94F0000C94050289
:100020000C94F0000C94F0000C94F0000C94F00090
:100030000C94F0000C94F0000C94F0000C94F00080
:100040000C9490010C94F0000C94B7100C94911047
:100050000C94F0000C94F0000C94F0000C94F00060
:100060000C94F0000C94F000025D002C2000207035
:100070006172616D733A5B0020736F757263653AEC
:10008000002069643A00434D44200045786563755B
:1000900074652000467265652052414D203D200068
:1000A0004F4B0052656365697665643A2000000035
:1000B0000008000201000003040700000000000027
:1000C000000000000000250028002B0000000000B8
:1000D000240027002A000404040404040404020287
:1000E00002020202030303030303010204081020B7
:1000F0004080010204081020010204081020204D55
:100100006561737572656D656E743A200020566F77
:100110006C746167653A2000485650726F626520C2
:1001200056616C75653A2000562050657263656EA5
:10013000746167653A200020566F6C746167653A98
:100140002000426174746572792056616C75653A5D
:1001500020004261747465727920416C61726D2077
:1001600053746174653A2000250056202D2000202C
:100170002D20002D426174746572793A2000574831
:10018000495445206368616E676500006D15D4179A
:1001900011241FBECFEFD8E0DEBFCDBF12E0A0E03C
:1001A000B1E0EAE1F8E302C005900D92A23FB10789
:1001B000D9F724E0A2EFB2E001C01D92AF39B20737
:1001C000E1F710E0C7ECD0E004C02197FE010E94E7
:1001D000F51BC63CD107C9F70E9457110C94001CAF
:1001E0000C9400003FB7F8948091000390910103B4
:1001F000A0910203B091030326B5A89B05C02F3F31
:1002000019F00196A11DB11D3FBFBA2FA92F982F3C
:100210008827820F911DA11DB11DBC01CD0142E0B7
:10022000660F771F881F991F4A95D1F708950E947E
:10023000FB1B90E0FC01E651FF4F2491FC01EA52C8
:10024000FF4F8491882399F090E0880F991FFC015B
:10025000E453FF4FA591B491FC01EE53FF4F8591FC
:1002600094918FB7F894EC91E22BEC938FBF0895A3
:1002700090E0FC01E255FF4F3491FC01E651FF4F45
:100280002491FC01EA52FF4FE491EE2309F43BC0B4
:10029000332339F1333091F038F43130A9F0323072
:1002A00001F584B58F7D12C0373091F03830A1F060
:1002B0003430B9F4809180008F7D03C0809180003C
:1002C0008F77809380000DC084B58F7784BD09C07F
:1002D0008091B0008F7703C08091B0008F7D8093B4
:1002E000B000F0E0EE0FFF1FEE53FF4FA591B49169
:1002F0008FB7F894EC91611103C020952E2301C0B3
:100300002E2B2C938FBF08952FB7F8946091FC0289
:100310007091FD028091FE029091FF022FBF08951F
:100320001F920F920FB60F9211242F933F938F932A
:100330009F93AF93BF938091FC029091FD02A09197
:10034000FE02B091FF023091FB0223E0230F2D3714
:1003500020F40196A11DB11D05C026E8230F0296C9
:10036000A11DB11D2093FB028093FC029093FD021E
:10037000A093FE02B093FF028091000390910103CD
:10038000A0910203B09103030196A11DB11D8093BA
:10039000000390930103A0930203B0930303BF9162
:1003A000AF919F918F913F912F910F900FBE0F9022
:1003B0001F90189590910001981324C0E8E6F0E092
:1003C000E4919FEF90930001E130B9F098F0E230B2
:1003D000C9F4909170009D7F9093700091E090938C
:1003E000B0009091B100987F94609093B10010920A
:1003F000B30008C010926E0005C090916F009D7F01
:1004000090936F0060E00C9438011F920F920FB62A
:100410000F9211242F933F934F935F936F937F938A
:100420008F939F93AF93BF93EF93FF938091F502C8
:100430009091F602A091F702B091F802892B8A2BD5
:100440008B2B51F18091F402E091F202F091F302D2
:100450009081892780838091F5029091F602A09186
:10046000F702B091F802181619061A061B06C4F412
:100470008091F5029091F602A091F702B091F802F6
:100480000197A109B1098093F5029093F602A09318
:10049000F702B093F80204C0809100010E94DA01D3
:1004A000FF91EF91BF91AF919F918F917F916F914C
:1004B0005F914F913F912F910F900FBE0F901F9022
:1004C00018954F925F926F927F92EF92FF920F93E7
:1004D0001F93CF93DF93CDB7DEB7A1970FB6F894F4
:1004E000DEBF0FBECDBF7C01FA01CB0119A22230C5
:1004F00008F42AE08E010F5D1F4F422E512C612C13
:10050000712CBF01A30192010E94D31BF901CA0102
:10051000015011096A3014F4605D01C0695CD801B2
:100520006C93232B242B252B61F7B801C7010E9464
:100530007C10A1960FB6F894DEBF0FBECDBFDF9141
:10054000CF911F910F91FF90EF907F906F905F90F0
:100550004F9008950F931F93CF93DF93EC010E9468
:100560007C108C016DEB72E0CE010E947C10800F3C
:10057000911FDF91CF911F910F910895DC01ED91B3
:10058000FC910190F081E02D09944F925F926F925F
:100590007F928F929F92AF92BF92CF92DF92EF9213
:1005A000FF92CF93DF93EC016A017B01B22E9A0197
:1005B000AB01C701B6010E94CE1B882319F060EC85
:1005C00072E027C026013701E89477F82FEF3FEF5C
:1005D0004FE75FE7C301B2010E94CE1B81110DC03E
:1005E0002FEF3FEF4FE75FE7C301B2010E94041A0C
:1005F00018161CF464EC72E00CC02FEF3FEF4FE7CD
:100600005FE4C701B6010E945C1B18169CF468ECFD
:1006100072E0CE01DF91CF91FF90EF90DF90CF900D
:10062000BF90AF909F908F907F906F905F904F9012
:100630000C947C102FEF3FEF4FE75FECC701B60142
:100640000E94041A87FDE3CF20E030E0A901C70132
:10065000B6010E94041A87FF0AC06DE2CE010E9413
:10066000BE024C01F7FAF094F7F8F09402C0812C26
:10067000912CA12C60E070E080E09FE3AB1441F08E
:1006800020E030E040E251E40E94091AA394F6CF42
:100690009B01AC01C701B6010E9498192B013C01D6
:1006A0000E947B1A6B017C010E94AA1A9B01AC017B
:1006B000C301B2010E9497192B013C012AE0B70146
:1006C000A601CE010E9461027C01E80CF91CBB204E
:1006D00031F06EE2CE010E94BE02E80EF91EDB2C64
:1006E000DD2029F120E030E040E251E4C301B20115
:1006F0000E94611B2B013C010E947B1A4B01A12C23
:10070000B12C2AE0B501A401CE010E946102E80EDD
:10071000F91EC501B4010E94AA1A9B01AC01C301D4
:10072000B2010E9497192B013C01DA94D9CFC7017D
:10073000DF91CF91FF90EF90DF90CF90BF90AF907F
:100740009F908F907F906F905F904F900895EF9261
:10075000FF920F931F93CF93DF938C017B01C0E037
:10076000D0E0F701EC0FFD1F6491662361F0D80122
:10077000ED91FC910190F081E02DC8010995892B44
:1007800011F02196EECFCE01DF91CF911F910F9105
:10079000FF90EF9008950F931F93CF93DF93EC0199
:1007A0000E94A7038C016DEB72E0CE010E947C10C9
:1007B000800F911FDF91CF911F910F9108950895A0
:1007C000CB0108957F928F929F92AF92BF92CF926A
:1007D000DF92EF92FF920F931F93CF93DF93EC0181
:1007E00049015A018B01C12CD12C7601C814D904BE
:1007F000EA04FB0484F5F80171908F018F8580FF76
:100800000BC0E881F9810084F185E02D20E144E00E
:1008100060E070E0CE010995EB85FC858D859E85B5
:10082000E817F90738F470828B859C8501969C87C0
:100830008B870BC0E881F981672D70E0028CF38D06
:10084000E02DCE010995019649F02FEFC21AD20A88
:10085000E20AF20ACBCFB401C50102C0B601C7015A
:10086000DF91CF911F910F91FF90EF90DF90CF908C
:10087000BF90AF909F908F907F900895CF93DF931C
:10088000EC01E881F9810288F389E02D09958F3F19
:100890002FEF920731F02D813E812F5F3F4F3E8336
:1008A0002D83DF91CF9108958FEF9FEF089560E042
:1008B00070E0CB01089580E090E00895CB010895A9
:1008C000CF93DF93EC0188899989DC01ED91FC914C
:1008D0000084F185E02D0995892BA9F388899989F0
:1008E000DC01ED91FC910284F385E02DDF91CF9145
:1008F0000994CF93DF93EC0188899989DC01ED910C
:10090000FC910084F185E02D0995892BA9F3888954
:100910009989DC01ED91FC910484F585E02DDF914E
:10092000CF910994AF92BF92CF92DF92EF92FF9254
:100930000F931F93CF93DF9300D000D0CDB7DEB7D6
:100940008C015B01C12CD12C7601F8018089918941
:10095000DC01ED91FC910284F385E02D29833A833B
:100960004B835C83099529813A814B815C818F3F60
:1009700071F0C216D306E406F5064CF4D5018D934A
:100980005D01BFEFCB1ADB0AEB0AFB0ADECFC70122
:10099000B6010F900F900F900F90DF91CF911F91A4
:1009A0000F91FF90EF90DF90CF90BF90AF900895A0
:1009B000DC0150968D919C915197DC01ED91FC9159
:1009C0000084F185E02D099480E090E0089580E0B6
:1009D00090E0089580E090E0089580E090E0089530
:1009E0000895CF93DF93C0916B03D0916C03E8819E
:1009F000F9810084F185E02DCE010995892BB9F3A9
:100A0000E881F9810284F385E02DCE01DF91CF9159
:100A100009941F93CF93DF93182FC0916B03D0914C
:100A20006C038A3041F4E881F9810190F081E02D76
:100A30006DE0CE010995E881F9810190F081E02D0A
:100A4000612FCE01099521E030E0019711F420E0FB
:100A500030E0C901DF91CF911F9108952DE432E07C
:100A6000FC0121933193CF010C94930B0C949118BA
:100A70000C9491180C949118089508950C94911861
:100A8000DC01ED91FC91369720813181820F931F1B
:100A90000C943E05FB0120813181FC0131832083D0
:100AA000FB0142815381F901369720813181FC019C
:100AB000E20FF31F5183408308952BEB31E0FC01DB
:100AC0003183208325EC31E0318F208F6BEC71E096
:100AD0000C944A05DC01ED91FC913697208131811F
:100AE000820F931F0C945D05CF93DF93EC010E945E
:100AF0005D05CE01DF91CF910C949118DC01ED9151
:100B0000FC91369720813181820F931F0C947405DC
:100B10000C949118089508950C949118DC01ED91AE
:100B2000FC91369720813181820F931F0C948C05A4
:100B3000FB0120813181FC0131832083FB01428153
:100B40005381F901369720813181FC01E20FF31FB7
:100B500051834083089523E332E0FC0131832083F5
:100B60002DE332E0358B248B63E472E00C9498051E
:100B7000DC01ED91FC91369720813181820F931F2A
:100B80000C94AB05CF93DF93EC010E94AB05CE0133
:100B9000DF91CF910C949118DC01ED91FC91369787
:100BA00020813181820F931F0C94C2050C949118FF
:100BB0000F931F93CF93DF938C01EB016F3F8FEF68
:100BC000780719F480E090E00FC06A3031F46DE0EE
:100BD000F801808991890E94BE026C2FF8018089FA
:100BE00091890E94BE02CE01DF91CF911F910F919A
:100BF00008958F929F92BF92CF92DF92EF92FF92D1
:100C00000F931F93CF93DF9300D000D0CDB7DEB703
:100C10008C014B01C12CD12C7601C216D306E406FF
:100C2000F50644F5F401B1904F01FAE0BF120EC091
:100C30006DE0F8018089918929833A834B835C8335
:100C40000E94BE025C814B813A8129816B2DF801A3
:100C50008089918929833A834B835C830E94BE02F9
:100C6000FFEFCF1ADF0AEF0AFF0A5C814B813A815E
:100C70002981D3CFCA01B9010F900F900F900F9027
:100C8000DF91CF911F910F91FF90EF90DF90CF9068
:100C9000BF909F908F900895CF93DF931F92CDB711
:100CA000DEB762E571E08DE993E049830E94A70316
:100CB000498150E060E070E08DE993E00E942511E9
:100CC0006DEB72E08DE993E00F90DF91CF910C9482
:100CD0007C101F93CF93DF93CB01FB01C5A1D6A15D
:100CE0000E949208182F62E471E08DE993E00E945F
:100CF000A703AE010D2E000C660B770B8DE993E078
:100D00000E94251167E371E08DE993E00E94A7033B
:100D1000BE0180E090E00E94AC1A2AE534E643E58B
:100D200050E40E94611B20E030EC4FE754E40E9445
:100D3000091A20E030E0A9010E949819AB01BC011A
:100D400022E08DE993E00E94C50268E271E08DE93E
:100D500093E00E94A703412F50E060E070E08DE92E
:100D600093E00E9425116CEC72E08DE993E0DF9135
:100D7000CF911F910C94AA020F931F93CF93DF93EF
:100D80008091040390910503892B09F04FC089E3FA
:100D900090E00E94FC17EC0183E491E09983888342
:100DA0001A820BE411E01C830B8386E08D831F8283
:100DB0001E82198618861B861A861C861D861E862C
:100DC0001F86198A188A1B8A1A8A1C8A0E9419018E
:100DD0001E8B0D8B88E08F8B198E188E1B8E1A8EB2
:100DE0001D8E1C8E1E8E1F8E18A219A21BA21AA267
:100DF0001DA21CA21EA20E94190118A70FA387E022
:100E000089A71BA61AA61DA61CA61FA61EA618AA61
:100E100019AA1AAA1BAA1DAA1CAA1FAA1EAA18AEA2
:100E20000E941901D0930503C09304038091040329
:100E300090910503DF91CF911F910F9108950F932A
:100E40001F93CF93DF93CDB7DEB72C970FB6F894EF
:100E5000DEBF0FBECDBFFC017C876B878281938193
:100E60000097E9F0DF0125813681FC014081518145
:100E7000FA010481158143E551E05A834983BC831B
:100E8000AB83AE01455F5F4F5E834D8338872F8311
:100E90001A861986BE016F5F7F4FF80109952C965F
:100EA0000FB6F894DEBF0FBECDBFDF91CF911F917B
:100EB0000F910895CF93DF93EC018C81823099F0EC
:100EC000811102C01E8A1D8A0E9484016B877C8763
:100ED0008D879E8782E08C8361E070E0CE01DF9198
:100EE000CF910C941F07DF91CF9108950895089535
:100EF000089508950895089508950895FC01928530
:100F0000915081E0923008F080E00895DC011A965B
:100F10002C91261759F0FC0162870190F081E02D99
:100F20000688F789E02D099581E0089580E008950D
:100F30000396089508950F931F93CF93DF93EC01C9
:100F400008AD19AD2CAD3DAD220F331F88AD99AD65
:100F5000280F391F0217130771F0D8018D919D9149
:100F60008D01DC01ED91FC910680F781E02D4FA908
:100F7000BE010995E7CFDF91CF911F910F910895A1
:100F800008950C9491180C9491180C94911829E8D8
:100F900032E0FC013183208380AD91AD0C94911837
:100FA000CF93DF93EC010E94C707CE01DF91CF9171
:100FB0000C9491180C949118EF92FF920F931F9339
:100FC000CF93DF93EC01E881F9810684F785E02D6A
:100FD00063E009950E94FD10DC0112968D919C91B1
:100FE000139716962D913C911797A901440F551F01
:100FF000480F591FBC01FB016417750741F06E5F74
:101000007F4F008111810C171D07A9F702C0E0E096
:10101000F0E0CD2B31F1E81BF90BAF015595479569
:10102000C9010197BF016E5F7F4F4817590790F4C0
:101030001296ED90FC9013974F5F5F4F8701060F5C
:10104000171FE80108811981EE0DFF1D1183008330
:10105000FB01E8CF8217930720F417969C938E9399
:101060001697DF91CF911F910F91FF90EF90089508
:101070000F931F93CF93DF93EC01CB01088119816C
:101080007B836A830E94FC179983888320E030E089
:101090008C819D812817390770F4E881F981E20F6E
:1010A000F31F309729F0D801A20FB31F8C918083D2
:1010B0002F5F3F4FEDCFC801DF91CF911F910F916F
:1010C0000C949118CF93DF93EC010E942E05CE0172
:1010D000DF91CF910C949118CF93DF93EC018BE5C6
:1010E00091E099838883809106039091070300978C
:1010F00039F0DC01ED91FC910280F381E02D09953E
:101100008A819B81DF91CF910C949118CF93DF93CB
:10111000EC010E946C08CE01DF91CF910C949118E4
:1011200008950895CF92DF92EF92FF920F931F934D
:10113000CF93DF93FC01C58DD68D038D148D65A1F2
:1011400076A1601771070CF4B801C617D7070CF425
:10115000BE01601B710B072E000C880B990B0E94BF
:10116000AC1A20E030E048EC52E40E94611B6B01B5
:101170007C01C01BD10BBE01DD0F880B990B0E94B7
:10118000AC1A9B01AC01C701B6010E94091A20E00C
:1011900030E0A9010E9498190E947B1A862FDF91E6
:1011A000CF911F910F91FF90EF90DF90CF90089516
:1011B000CF92DF92EF92FF920F931F93CF93DF9323
:1011C000EC01DB011496ED91FC91159780819181E2
:1011D0008430910509F078C0E8A9F9A9EE0FFF1F46
:1011E0008EA59FA5E80FF91F208131818AA59BA5B7
:1011F000ACA5BDA5821B930BA109B1098AA79BA72A
:10120000ACA7BDA789A58E3008F08E50877080648A
:1012100080937C0080917A00806480937A00809132
:101220007A0086FDFCCF809178002091790090E0D3
:10123000922B9183808348A959A99A01220F331FC9
:10124000EEA5FFA5E20FF31F20813181CAA4DBA424
:10125000ECA4FDA4C701B601620F731F811D911D8F
:101260006AA77BA78CA79DA7FA013196F9ABE8ABDB
:101270002AA94FA158A5213011F09F0101C09A0160
:10128000E417F50720F019AA18AA41E04AAB032E8B
:10129000000C440B550B0E94D31B8DA19EA18217FD
:1012A000930709F4A9C03EA32DA3AC0160E070E050
:1012B000CE018396DF91CF911F910F91FF90EF9018
:1012C000DF90CF900C94560E029709F095C00DA1B7
:1012D0001EA18DA99EA90817190709F481C063E70B
:1012E00071E08DE993E00E94A703A80160E070E03F
:1012F0002AE08DE993E00E9461026FE671E08DE9DA
:1013000093E00E94A7036DA17EA180E090E00E947F
:10131000AC1A2AE534E643E550E40E94611B20E064
:1013200030EC4FE754E40E94091A20E030E0A901B4
:101330000E949819AB01BC0122E08DE993E00E9464
:10134000C5026AE671E08DE993E00E94A703CE0131
:101350000E949208482F50E060E070E02AE08DE99A
:1013600093E00E94610268E671E08DE993E00E94DB
:10137000CB034FA92DA13EA18F8D98A141110AC089
:1013800049A15AA1840F951F8217930750F481E059
:101390008FAB04C08217930720F01FAACE010E94D2
:1013A0009B07EDA8FEA8C8ACD9AC8CAD9DAD880F4D
:1013B000991F28AD39AD820F931FC816D90671F059
:1013C000F601819191916F01DC01ED91FC91048016
:1013D000F581E02DA701BE010995E7CF1EAB0DAB4E
:1013E000CE010296DF91CF911F910F91FF90EF9068
:1013F000DF90CF900C945A07DF91CF911F910F91FE
:10140000FF90EF90DF90CF900895CF93DF93611519
:10141000710509F45FC0FB01C081CF3F11F461E0A9
:1014200003C0C11104C060E0FC0182814FC0FC0117
:10143000D2818D2F0E941901ED2FF0E0E255FF4F70
:10144000E491E33009F148F4E130C9F0E230C1F54C
:1014500084B5806284BDC8BD3DC0E73009F1E83085
:1014600039F1E43069F580918000806280938000DA
:101470008C2F90E090938B0080938A002BC084B5D2
:10148000806884BDC7BD26C080918000806880933D
:1014900080008C2F90E090938900809388001AC080
:1014A0008091B00080688093B000C093B30012C0F8
:1014B0008091B00080628093B000C093B4000AC0F5
:1014C000C03810F460E001C061E08D2FDF91CF9152
:1014D0000C943801DF91CF9108958F929F92AF9233
:1014E000BF92CF92DF92EF92FF920F931F93CF9311
:1014F000DF93FC012189223009F065C0EC010E94D4
:1015000084012D853E856901E12CF12C09851A8520
:101510002B853C8546015701801A910AA20AB30A1D
:10152000DC01CB01880D991DAA1DBB1DEF85F88933
:101530004181528160E070E084179507A607B707E4
:1015400008F441C01E861D860E94840169877A873F
:101550008B879C87EF85F88963817481611571059C
:1015600079F48F819885019698878F832D813E81AC
:101570006B817C812115310519F0821793078CF45A
:10158000788B6F87CE01DF91CF911F910F91FF90E4
:10159000EF90DF90CF90BF90AF909F908F900C9482
:1015A000050A198A788B6F871E861D8660E08A81FE
:1015B0000E9438012F8138858D819E812817390737
:1015C00011F418861F82DF91CF911F910F91FF9028
:1015D000EF90DF90CF90BF90AF909F908F90089545
:1015E000EF92FF920F931F93CF93DF93EC018C81C7
:1015F0009D818617970710F57A018B018A819B815F
:101600008617970740F4685F7F4F8617970718F48F
:10161000CE010E9438088C819D818017910758F473
:10162000E881F981E80FF91F309719F0D7012C9163
:1016300020830196F2CF1D830C8305C068177907BC
:1016400010F47D836C83DF91CF911F910F91FF90F8
:10165000EF900895CF92DF92EF92FF920F931F9336
:10166000CF93DF931F92CDB7DEB78C016B0188E07B
:1016700090E0D80113969C938E93129715961C9226
:101680001E9214970E94FC17F80191838083C11465
:10169000D10449F1F60101900020E9F731977F016B
:1016A000EC18FD081982AE014F5F5F4FB701C8010A
:1016B0000E94F00AD8012D913C9140E050E0BA011F
:1016C000C701A0E0B0E0481759076A077B0758F444
:1016D000F60111916F01F90111939F014F5F5F4F67
:1016E0006F4F7F4FF0CF0F90DF91CF911F910F91F0
:1016F000FF90EF90DF90CF9008950F931F93CF93BB
:10170000DF931F92CDB7DEB78C01AE014F5F5F4F05
:1017100061ED72E00E942A0BC8010F90DF91CF911A
:101720001F910F910895FC01808191810C94911873
:10173000AF92BF92CF92DF92EF92FF920F931F93DF
:10174000CF93DF93FC01248135816217730708F57D
:101750006B01EC0187E0869F5001879FB00C11243C
:101760008B01E12CF12C8C819D810817190778F4ED
:10177000C7018A0D9B1D28813981820F931F0E940A
:10178000930B0F5F1F4FF7E0EF0EF11CECCFDD82E4
:10179000CC82DF91CF911F910F91FF90EF90DF905E
:1017A000CF90BF90AF900895EF92FF920F931F9349
:1017B000CF93DF937C0100E010E0C0E0D0E0F701C0
:1017C0002481358180819181C217D30740F4800F35
:1017D000911F0E94930B2196095F1F4FF0CFDF915D
:1017E000CF911F910F91FF90EF900C949118CF9390
:1017F000DF93EC016C817D816F5F7F4F8A819B81DC
:101800008617970718F4CE010E943808E881F981FD
:101810008C819D81E80FF91F108288819981DF9169
:10182000CF910895AF92BF92CF92DF92EF92FF9245
:101830000F931F93CF93DF931F92CDB7DEB78C0129
:101840006B017A01590188E090E0D80113969C93CE
:101850008E93129715961C921E9214970E94FC1755
:10186000F80191838083D60114968D919C911597F0
:101870008E159F0510F40E94FB1B1982BC016E1986
:101880007F09A616B70608F4B501AE014F5F5F4F9A
:10189000C8010E94F00AF80184819581D601ED917A
:1018A000FC91EE0EFF1EF8012081318140E050E0F6
:1018B000BA01A0E0B0E0481759076A077B0758F45F
:1018C000F70111917F01F90111939F014F5F5F4F64
:1018D0006F4F7F4FF0CF0F90DF91CF911F910F91FE
:1018E000FF90EF90DF90CF90BF90AF9008952F9230
:1018F0003F924F925F926F927F928F929F92AF92A0
:10190000BF92CF92DF92EF92FF920F931F93CF93EC
:10191000DF9300D01F92CDB7DEB77C017B836A8353
:101920001C0123E0220E311C60E070E0C1010E9426
:10193000980BEA81FB8180809180EA81FB81248180
:101940003581F7E0F29FC001F39F900D1124EA81E9
:10195000FB8120813181820F931F8816990609F43B
:1019600083C0F701878190856C01FFEFCF1ADF0AF2
:101970008C159D0508F070C0F701258136812C1566
:101980003D05F0F5099628173907D0F56380748076
:101990009683858347E09C01429FC001439F900D41
:1019A00011240E94FC17F701948383835301412C77
:1019B000512CF7018781908548165906F0F4F701FC
:1019C00023813481C50186199709820F931F0097DF
:1019D00051F08E010F5F1F4F2FEF3FEF40E050E0BF
:1019E000B5010E94120CC5010E94930BFFEF4F1A24
:1019F0005F0A27E0A20EB11CDCCFC3010E94911840
:101A0000F701A780B084F7E0FA9D2001FB9D500C00
:101A10001124612C712CF701AC14BD04D0F4238186
:101A20003481C301840D951D820F931F009751F0DF
:101A30008E010F5F1F4F2FEF3FEF40E050E0B401EA
:101A40000E94120CFFEFAF1ABF0A27E0620E711C52
:101A5000E2CFD086C78204C0B601C1010E94980BB4
:101A6000F7E08F0E911C69CF0F900F900F90DF91D0
:101A7000CF911F910F91FF90EF90DF90CF90BF908B
:101A8000AF909F908F907F906F905F904F903F901E
:101A90002F900895CF92DF92EF92FF920F931F93B2
:101AA000CF93DF936C017A018B01C0E0D0E0CE15BB
:101AB000DF0589F0D8016D918D01D601ED91FC9182
:101AC0000190F081E02DC6010995892B11F47E016A
:101AD00002C02196ECCFC701DF91CF911F910F91EA
:101AE000FF90EF90DF90CF900895089580E090E010
:101AF0000895FC01538D448D252F30E0842F90E014
:101B0000821B930B541710F0CF96089501970895F8
:101B1000FC01918D828D981761F0828DDF01A80FF5
:101B2000B11D5D968C91928D9F5F9F73928F90E017
:101B300008958FEF9FEF0895FC01918D828D981786
:101B400031F0828DE80FF11D858D90E008958FEFC3
:101B50009FEF0895FC01918D228D892F90E0805C8C
:101B60009F4F821B91098F73992708958DE993E008
:101B70000E94AA0D21E0892B09F420E0822F08950C
:101B8000FC01848DDF01A80FB11DA35ABF4F2C911A
:101B9000848D90E001968F739927848FA689B789E9
:101BA0002C93A089B1898C9180648C93938D848DC2
:101BB000981306C00288F389E02D80818F7D808391
:101BC0000895EF92FF920F931F93CF93DF93EC0151
:101BD00081E0888F9B8D8C8D981305C0E889F989E9
:101BE000808185FD24C0F62E0B8D10E00F5F1F4F06
:101BF0000F731127E02E8C8DE8120CC00FB607FC76
:101C0000FACFE889F989808185FFF5CFCE010E945E
:101C1000C00DF1CF8B8DFE01E80FF11DE35AFF4F90
:101C2000F0820B8FEA89FB898081806207C0EE8990
:101C3000FF896083E889F98980818064808381E0FD
:101C400090E0DF91CF911F910F91FF90EF90089559
:101C5000CF93DF93EC01888D8823C9F0EA89FB8953
:101C6000808185FD05C0A889B9898C9186FD0FC04A
:101C70000FB607FCF5CF808185FFF2CFA889B9891F
:101C80008C9185FFEDCFCE010E94C00DE7CFDF9193
:101C9000CF91089580E090E0892B29F00E94B60D45
:101CA00081110C940000089508950895CF93DF9357
:101CB00000D000D0CDB7DEB7FC0149835A836B83D7
:101CC0007C8380899189009769F0BF01DC01ED91E7
:101CD000FC910480F581E02D9E012F5F3F4F44E190
:101CE00050E009950F900F900F900F90DF91CF91DA
:101CF0000895FF920F931F93CF93DF93EC010F8909
:101D0000188D0115110521F1FE8087E090E00E94F9
:101D1000FC17DC0183E691E011969C938E93169656
:101D20001C921E9215971396DC93CE9312971496DD
:101D3000FC921497E801E881F9810480F581E02D97
:101D4000BD01C801DF91CF911F910F91FF900994C0
:101D5000DF91CF911F910F91FF900895CF93DF9363
:101D6000EC014A898B899C892A813B81411110C0F1
:101D70004D895E89840F951F28173907D0F081E0BF
:101D80008A8BE881F9810084F185E02D61E00AC049
:101D90008217930770F01A8AE881F9810084F1852F
:101DA000E02D60E0CE010995CE01DF91CF910C943A
:101DB000790EDF91CF9108950C9491180C9491189D
:101DC000EF92FF920F931F93CF93DF937C010E94BA
:101DD0008401F7010585168527853089DC01CB0153
:101DE000801B910BA20BB30B893E9340A105B1055B
:101DF00008F46AC060E086E00E94380160E088E094
:101E00000E94380160E087E00E94380185E00E946E
:101E1000DA010E94BC06EC019A8192FD4CC09460EC
:101E20009A8397FD42C01C8A8E819F819B8B8A8BEF
:101E3000198A188A60E08D810E94380185E090E05F
:101E40000E94FC178C01FC0110821482138282E82C
:101E50009FE09283818385E090E00E94FC17FC0163
:101E60008FEF808384E190E09283818314830383E6
:101E7000FF83EE83FB8BEA8BEF2BB9F08C898230EA
:101E8000A1F0811104C0198A188A1B861A860E9443
:101E900084016C877D878E879F8782E08C8B6A891F
:101EA0007B89CE0103960E94050A6EE771E08DE9F9
:101EB00093E00E94CB03C701DF91CF911F910F9157
:101EC000FF90EF900C94DC07DF91CF911F910F9161
:101ED000FF90EF9008950F931F93CF938C0161E0D3
:101EE00086E00E94380161E088E00E94380161E0EC
:101EF00087E00E94380180910001853021F08F3FFA
:101F000009F0D8C004C0E8E6F0E0C49174C085E0F0
:101F100080930001E8E6F0E0E491EF3F09F4CAC0E5
:101F2000E13011F1E23009F442C0E11163C014BCA8
:101F300015BC84B5826084BD85B5816085BDEBED3F
:101F4000F0E0E491F0E0EE0FFF1FEE53FF4F8591BC
:101F5000949190930D0380930C03EFEEF0E0E491E5
:101F6000E0930B03C0E049C0109280001092810002
:101F700080918100886080938100809181008160E0
:101F800080938100EBEDF0E0E491F0E0EE0FFF1FB5
:101F9000EE53FF4F8591949190930A038093090328
:101FA000EFEEF0E0E491E0930803C1E026C0109268
:101FB000B0001092B1008091B00082608093B000B8
:101FC0008091B10081608093B100EBEDF0E0E4918D
:101FD000F0E0EE0FFF1FEE53FF4F85919491909329
:101FE000F3028093F202EFEEF0E0E491E093F4026A
:101FF000C2E003C0CE2FC7FD5DC085E00E9419017D
:10200000CC2351F0C23001F58091B100887F82600D
:102010008093B10089EF3BC085B5887F826085BD24
:1020200089EF87BD80ED97E0A0E0B0E080931203D8
:1020300090931303A0931403B093150380916E0043
:10204000826080936E0036C0C130F1F480918100CF
:10205000887F8160809381008FEC97E09093890066
:102060008093880080ED97E0A0E0B0E080930E03BD
:1020700090930F03A0931003B093110380916F000E
:10208000826080936F0016C0C230A1F48FEC809301
:10209000B30080ED97E0A0E0B0E08093F50290936C
:1020A000F602A093F702B093F8028091700082606C
:1020B000809370000E948401F80165877687878786
:1020C000908B82E0CF911F910F9108950F931F93F2
:1020D000CF93DF931F92CDB7DEB78C01AE014F5F78
:1020E0005F4F63ED72E00E942A0BC8010F90DF91F1
:1020F000CF911F910F9108956115710579F0FB0142
:1021000001900020E9F73197AF01461B570BDC0126
:10211000ED91FC910280F381E02D099480E090E044
:1021200008951F920F920FB60F9211242F933F9391
:102130004F935F936F937F938F939F93AF93BF93CF
:10214000EF93FF938DE993E00E94C00DFF91EF9113
:10215000BF91AF919F918F917F916F915F914F91BF
:102160003F912F910F900FBE0F901F9018951F92C7
:102170000F920FB60F9211242F938F939F93EF938B
:10218000FF93E091AD03F091AE038081E091B30342
:10219000F091B40382FD12C090818091B6038F5FED
:1021A0008F732091B703821751F0E091B603F0E0EE
:1021B000E356FC4F958F8093B60301C08081FF9159
:1021C000EF919F918F912F910F900FBE0F901F90C5
:1021D0001895089508952BE031E0FC0131832083A8
:1021E00003960C94D40BCF93DF93EC010E94EB1079
:1021F000CE01DF91CF910C949118CF93DF93809112
:10220000060390910703892BC9F489E090E00E94AE
:10221000FC17EC018BE591E09983888388E090E0DE
:102220009D838C831F821E8280E190E00E94FC17B8
:102230009B838A83D0930703C09306038091060390
:1022400090910703DF91CF910895CF92DF92EF92A3
:10225000FF920F931F93CF93DF9377FF1DC06A0107
:102260007B01EC016DE20E94BE028C0144275527E0
:10227000BA014C195D096E097F092AE0CE010E945E
:102280006102800F911FDF91CF911F910F91FF90FD
:10229000EF90DF90CF9008952AE0DF91CF911F91CA
:1022A0000F91FF90EF90DF90CF900C946102CF934D
:1022B000DF93CDB7DEB72F970FB6F894DEBF0FBE12
:1022C000CDBF789484B5826084BD84B5816084BDBF
:1022D00085B5826085BD85B5816085BD80916E00C4
:1022E000816080936E0010928100809181008260F5
:1022F0008093810080918100816080938100809132
:1023000080008160809380008091B1008460809320
:10231000B1008091B00081608093B00080917A001C
:10232000846080937A0080917A00826080937A0042
:1023300080917A00816080937A0080917A00806831
:1023400080937A001092C10086E00E94190188E013
:102350000E94190187E00E94190185E00E9419017D
:10236000E091AD03F091AE0382E08083E091A90398
:10237000F091AA031082E091AB03F091AC038FECD3
:1023800080831092B503E091B103F091B20386E02F
:102390008083E091AF03F091B003808180618083FE
:1023A000E091AF03F091B003808188608083E09179
:1023B000AF03F091B003808180688083E091AF0328
:1023C000F091B00380818F7D808360EA70E08DE9B9
:1023D00093E00E94CB038EE293E00E945A070E9492
:1023E0008401609318037093190380931A039093E8
:1023F0001B0381E190E00E94FC177C01DC01129636
:102400001C92129788E090E016969C938E931597F5
:1024100018961C921E92179788E390E00E94FC1772
:10242000F7019483838312868091F9029091FA02D6
:1024300001969093FA028093F9029487838787E24A
:1024400091E091838083158616861786108A6BE843
:1024500070E08DE993E00E94A70366E870E08DE9E3
:1024600093E00E94A703D701ED91FC910480F581D0
:10247000E02DB701CE0101966C010995C6010E94BD
:10248000F70BBC018DE993E00E947C10C6010E940D
:10249000930B61E870E08DE993E00E94A703D701F8
:1024A0001B964D915C911C9760E070E02AE08DE9ED
:1024B00093E00E94610268E770E08DE993E00E947A
:1024C000A703F701428150E060E070E02AE08DE967
:1024D00093E00E9461026EE670E08DE993E00E9455
:1024E000A703D701ED91FC910084F185E02DC70190
:1024F00009955C01FC01248135813D872C87285F8B
:102500003F4F3B872A8787E0F82FF29FC001F39F58
:10251000900D11240E94FC1799878887812C912C9B
:10252000612C712C8C859D8568167906C8F4D501BF
:102530006D917C91680D791D88859985880D991D0F
:10254000009739F086012FEF3FEF40E050E00E9406
:10255000120CBFEF6B1A7B0AE7E08E0E911CE2CFE4
:10256000A884B984E7E09E2E2C853D85929EC0010B
:10257000939E900D112428853985820F931FA816EC
:10258000B90679F18E01015F1F4F2FEF3FEF40E059
:1025900050E0B501C6010E94120CC6010E94F70B63
:1025A000BC018DE993E00E947C10C6010E94930B50
:1025B0002C853D85929EC001939E900D1124079716
:1025C00028853985820F931FA816B90631F06BE66E
:1025D00070E08DE993E00E94A703F7E0AF0EB11C15
:1025E000C3CF69E670E08DE993E00E94CB03CE0192
:1025F00008960E94D40BD701ED91FC910684F785D3
:10260000E02D61E0C7010995D701ED91FC910088AB
:10261000F189E02DC7010995823009F074C00E944C
:10262000FD108C01E114F10409F47EC0FC018680E8
:1026300097805401FFEFAF1ABF0A8A149B0408F079
:1026400059C0DC0114962D913C9115972A153B0534
:1026500098F5C40109962817390770F512966C9001
:10266000129713967C90139715969C938E931497BC
:10267000880F991F0E94FC17F80193838283D3016E
:1026800040E050E048155905A1F0F801828193819E
:102690009A01220F331FFC01E20FF31F309729F03C
:1026A0008D919C911197918380834F5F5F4F12961C
:1026B000E9CFC3010E949118D80116968D919C9183
:1026C00017979C01220F331F8A159B0578F4D801B8
:1026D0001296ED91FC911397E20FF31F309711F0D2
:1026E000F182E08201962E5F3F4FEECFF801B78274
:1026F000A6821AC0A814B904B8F4DC011796BC92DB
:10270000AE92169711C0D701ED91FC91813031F452
:102710000288F389E02DC701099506C00488F58970
:10272000E02D63E0C701099564E970E08DE993E06D
:102730000E94A7038091950490919604A601481BDE
:10274000590B052E000C660B770B8DE993E00E9468
:1027500025116DEB72E08DE993E00E947C10809171
:102760003203823009F06CC00E94840100913D0365
:1027700010913E0320913F03309140038090390334
:1027800090903A03A0903B03B0903C0308191909BC
:102790002A093B09DC01CB01800F911FA21FB31F47
:1027A000009135031091360320913703309138039F
:1027B00080179107A207B30708F442C08091430332
:1027C000909144030196909344038093430364E003
:1027D00070E08EE293E00E941F0780914103909188
:1027E00042030097D9F020914303309144038217AC
:1027F0009307A1F41092320310923D0310923E030E
:1028000010923F031092400310924403109243032E
:1028100062E070E08EE293E00E941F070E94840154
:102820006093390370933A0380933B0390933C0386
:1028300010923D0310923E0310923F03109240030A
:102840000091200310912103C80103960E946D0A94
:10285000C80145960E946D0AC80187960E946D0ABC
:10286000E0901E03F0901F038DE993E00E94AA0DF3
:10287000181619060CF05CC08DE993E00E94880DD3
:102880008A3011F08D30F1F5F70186819781892B1F
:1028900009F447C08E01085F1F4F2FEF3FEF40E064
:1028A00050E0B7016E5F7F4FC6010E94120C63EAD1
:1028B00070E08DE993E00E94A703C6010E94F70B28
:1028C000BC018DE993E00E94AA02C6010E94930B0D
:1028D000D70116964D915C91179760E070E02AE061
:1028E0008DE993E00E9461026DEB72E08DE993E067
:1028F0000E947C10F70186819781892B91F01782C5
:1029000016820FC08F87D70116966D917C9117970D
:102910006F5F7F4FAE01415F5F4FC70102960E941C
:10292000F00AF70186819781419710F0178216828D
:102930000E94F2002B013C019AE0892E912CA12CDF
:10294000B12C0E94F200DC01CB0184199509A60983
:10295000B709883E9340A105B10558F0F1E08F1A00
:102960009108A108B10828EE420E23E0521E611C16
:10297000711C81149104A104B10419F7E0911C03A6
:10298000F0911D03E280F38006811781000F111F73
:102990000E0D1F1DE016F10661F0D7018D919D917E
:1029A0007D01DC01ED91FC910484F585E02D099514
:1029B000F1CF0E944A0ED3CE08950C94911802973D
:1029C0000C94DD14CF92DF92EF92FF92CF93DF93BE
:1029D000FC01868197816817790709F074C04A3035
:1029E000510509F070C0FB01C280D380E601D7FC1D
:1029F00007C0C114F4E0DF062CF0CFEFD3E002C033
:102A0000C0E0D0E068E171E08DE993E00E94A703A7
:102A1000E12CF12C2AE0B701A6018DE993E00E9498
:102A200061026DE071E08DE993E00E94A703C701A8
:102A3000B6010E94AC1A2AE534E643E550E40E9450
:102A4000611B20E030EC4FE754E40E94091A20E0BB
:102A500030E0A9010E949819AB01BC0122E08DE988
:102A600093E00E94C5026EEF70E08DE993E00E9452
:102A7000A703BE01DD0F880B990B0E94AC1A20E062
:102A800030E044E352E40E94611B20E030EC4FE769
:102A900054E40E94091A20E030E0A9010E9498192C
:102AA000AB01BC0122E08DE993E00E94C5026EEC0F
:102AB00072E08DE993E0DF91CF91FF90EF90DF908E
:102AC000CF900C94AA02DF91CF91FF90EF90DF900E
:102AD000CF90089502970C94E214EF92FF920F9317
:102AE0001F93CF93DF931F92CDB7DEB70DE913E0AD
:102AF0001092A00310929F0388EE93E0A0E0B0E054
:102B00008093A1039093A203A093A303B093A40383
:102B100083E991E090939E0380939D0385EC90E080
:102B20009093AA038093A90384EC90E09093AC0364
:102B30008093AB0380EC90E09093AE038093AD0361
:102B400081EC90E09093B0038093AF0382EC90E02F
:102B50009093B2038093B10386EC90E09093B4031A
:102B60008093B3031092B6031092B7031092B80388
:102B70001092B903AE014F5F5F4F67ED72E08EE8D0
:102B800094E00E942A0BAE014F5F5F4F6AED72E046
:102B900087E894E00E942A0BAE014F5F5F4F6DED16
:102BA00072E080E894E00E942A0BAE014F5F5F4F15
:102BB00062EE72E089E794E00E942A0BAE014F5F5B
:102BC0005F4F66EE72E082E794E00E942A0BAE014E
:102BD0004F5F5F4F6AEE72E08BE694E00E942A0B33
:102BE000AE014F5F5F4F6EEE72E084E694E00E94AC
:102BF0002A0BE1E2F0E0F0935204E09351041092CA
:102C00005304109254041092550446E050E060E0E2
:102C100070E04093560450935704609358047093A7
:102C2000590410925A0410925B0410925C041092A2
:102C30005D0420E220935E041092600410925F0411
:102C4000109263048CE394E0909362048093610497
:102C500083E392E090933B0480933A048DE392E007
:102C600090934F0480934E041092400410923F04BE
:102C700010924204109241041092440410924304B2
:102C80001092460410924504109248041092470492
:102C900010924A041092490481E192E090933D041D
:102CA00080933C0410934D0400934C0430E1309326
:102CB0004B04F0938B03E0938A0310928C031092E1
:102CC0008D0310928E0340938F0350939003609373
:102CD00091037093920310929303109294031092B5
:102CE00095031092960320939703109299031092E4
:102CF000980310929C031092710310927203109229
:102D000073031092740325E733E030939B03209301
:102D10009A032BEB31E03093700320936F0325EC83
:102D200031E0309388032093870310927903109247
:102D3000780310927B0310927A0310927D03109215
:102D40007C0310927F0310927E03109281031092F5
:102D500080031092830310928203909376038093F2
:102D60007503109386030093850388E080938403A2
:102D700010926E0310926D0310936C0300936B031B
:102D800061EF74E089E095E00E94291990936E0349
:102D900080936D0389E892E090932D0380932C0338
:102DA00081E892E090932F0380932E0310923203D8
:102DB00010923403109233031092390310923A03A5
:102DC00010923B0310923C0310923D0310923E037D
:102DD00010923F0310924003109244031092430359
:102DE00080E094E090934603809345038EE293E065
:102DF000909348038093470381ED93E090934A03B7
:102E00008093490386E493E090934C0380934B03B3
:102E100083E090E090934E0380934D0380E290E036
:102E20000E94FC17FC019C01205E3F4F1192119201
:102E3000E217F307D9F727E632E0309350032093E7
:102E40004F03109252031092510320E130E030936F
:102E50005403209353032EE02093550310925603FE
:102E600010925703109258031092590390935B03EA
:102E700080935A0310925D0310925C0310925E03DC
:102E80001092600310925F038FEF9FEF90936203A5
:102E9000809361031092630388E0E82EF12CF09296
:102EA0006703E0926603109269031092680380E161
:102EB00090E00E94FC1790936503809364038FE079
:102EC00090E0A0E0B0E08093350390933603A093A8
:102ED0003703B093380380E490E0909342038093EB
:102EE00041038CE293E0909331038093300389EAAD
:102EF00092E0909323038093220387EB92E09093D8
:102F00002503809324031092270310922603109226
:102F100029031092280310922B0310922A030E9477
:102F2000BC06909321038093200380911603909117
:102F30001703892BC9F489E090E00E94FC178C01EB
:102F40008DE492E0F80191838083F582E482178218
:102F5000168288E090E00E94FC17F8019383828338
:102F60001093170300931603809116039091170393
:102F700090931F0380931E030E94FD1090931D03E6
:102F800080931C030E9484016093180370931903BB
:102F900080931A0390931B030F90DF91CF911F91A1
:102FA0000F91FF90EF9008958CE293E00E94C70785
:102FB0008FE693E00E945D058AE394E00E94AB05F2
:102FC00084E694E00E94930B8BE694E00E94930BBE
:102FD00082E794E00E94930B89E794E00E94930BB0
:102FE00080E894E00E94930B87E894E00E94930BA2
:102FF0008EE894E00C94930BCF93DF93823091058D
:1030000010F482E090E0E0919704F091980420E0C1
:1030100030E0C0E0D0E0309711F140815181481795
:103020005907C0F04817590761F4828193812097AE
:1030300019F09B838A832BC0909398048093970404
:1030400026C02115310519F04217530718F49A01CB
:10305000BE01DF01EF010280F381E02DDCCF2115FD
:10306000310509F1281B390B2430310590F41296F3
:103070008D919C9113976115710521F0FB0193834C
:10308000828304C09093980480939704FD01329644
:1030900044C0FD01E20FF31F819391932250310947
:1030A0002D933C933AC02091950430919604232BA4
:1030B00041F4209103013091040130939604209350
:1030C000950420910101309102012115310541F44F
:1030D0002DB73EB74091050150910601241B350BD9
:1030E000E0919504F0919604E217F307A0F42E1BEB
:1030F0003F0B2817390778F0AC014E5F5F4F24175C
:10310000350748F04E0F5F1F509396044093950487
:103110008193919302C0E0E0F0E0CF01DF91CF9185
:1031200008950F931F93CF93DF93009709F48CC0FA
:10313000FC01329713821282009197041091980437
:103140000115110581F420813181820F931F209197
:103150009504309196042817390779F5F093960471
:10316000E093950471C0D80140E050E0AE17BF076E
:1031700050F412962D913C911397AD012115310514
:1031800009F1D901F3CF9D01DA01338322836081F4
:103190007181860F971F8217930769F4EC012881CC
:1031A0003981260F371F2E5F3F4F318320838A815D
:1031B0009B8193838283452B29F4F0939804E093B9
:1031C000970442C01396FC93EE931297ED01499138
:1031D00059919E01240F351FE217F30771F4808186
:1031E0009181840F951F029611969C938E938281F4
:1031F000938113969C938E931297E0E0F0E0D801B0
:1032000012968D919C911397009719F0F8018C01FB
:10321000F6CF8D919C9198012E5F3F4F820F931FA7
:1032200020919504309196042817390769F4309756
:1032300029F4109298041092970402C0138212820B
:103240001093960400939504DF91CF911F910F91F5
:1032500008950F931F93CF93DF93009731F4611577
:10326000710519F480E090E03AC08B01EC016EE04A
:1032700070E081E090E00E947419FC01892B91F3C9
:1032800080E883830115110571F01387028781E8B7
:1032900083838091990490919A04892B21F4F0936F
:1032A0009A04E09399042097C9F0D187C08783815D
:1032B0008260838380919B0490919C04892B71F49C
:1032C000F0939C04E0939B0480919D0490919E0454
:1032D000892B21F4F0939E04E0939D04CF01DF91AC
:1032E000CF911F910F9108950F931F93CF93DF9369
:1032F000869F8001879F100D969F100D1124C80195
:103300000E94FC17EC01009729F0A80160E070E032
:103310000E949019CE01DF91CF911F910F910895D6
:10332000DC0101C06D9341505040E0F708955058C2
:10333000BB27AA270E94AF190C94221B0E94141BC2
:1033400038F00E941B1B20F039F49F3F19F426F43B
:103350000C94111B0EF4E095E7FB0C940B1BE92F6A
:103360000E94331B58F3BA17620773078407950747
:1033700020F079F4A6F50C94551B0EF4E0950B2E75
:10338000BA2FA02D0B01B90190010C01CA01A001B7
:103390001124FF27591B99F0593F50F4503E68F112
:1033A0001A16F040A22F232F342F4427585FF3CF53
:1033B000469537952795A795F0405395C9F77EF424
:1033C0001F16BA0B620B730B840BBAF09150A1F06D
:1033D000FF0FBB1F661F771F881FC2F70EC0BA0FF3
:1033E000621F731F841F48F4879577956795B7957B
:1033F000F7959E3F08F0B0CF9395880F08F0992776
:10340000EE0F9795879508950E94E71A08F481E0DA
:1034100008950E941D1A0C94221B0E941B1B58F039
:103420000E94141B40F029F45F3F29F00C940B1B01
:1034300051110C94561B0C94111B0E94331B68F302
:103440009923B1F3552391F3951B550BBB27AA275D
:1034500062177307840738F09F5F5F4F220F331F97
:10346000441FAA1FA9F335D00E2E3AF0E0E832D05F
:1034700091505040E695001CCAF72BD0FE2F29D062
:10348000660F771F881FBB1F261737074807AB0734
:10349000B0E809F0BB0B802DBF01FF2793585F4FA9
:1034A0003AF09E3F510578F00C940B1B0C94561B80
:1034B0005F3FE4F3983ED4F3869577956795B7958B
:1034C000F7959F5FC9F7880F911D9695879597F996
:1034D0000895E1E0660F771F881FBB1F621773070F
:1034E0008407BA0720F0621B730B840BBA0BEE1F24
:1034F00088F7E09508950E943B1B88F09F5798F04D
:10350000B92F9927B751B0F0E1F0660F771F881FE8
:10351000991F1AF0BA95C9F714C0B13091F00E9402
:10352000551BB1E008950C94551B672F782F882701
:10353000B85F39F0B93FCCF3869577956795B39529
:10354000D9F73EF490958095709561957F4F8F4F98
:103550009F4F0895E89409C097FB3EF4909580959D
:10356000709561957F4F8F4F9F4F9923A9F0F92F49
:1035700096E9BB279395F695879577956795B795C7
:10358000F111F8CFFAF4BB0F11F460FF1BC06F5FAD
:103590007F4F8F4F9F4F16C0882311F096E911C0BF
:1035A000772321F09EE8872F762F05C0662371F0E0
:1035B00096E8862F70E060E02AF09A95660F771FF4
:1035C000881FDAF7880F9695879597F90895990FD0
:1035D0000008550FAA0BE0E8FEEF16161706E807DD
:1035E000F907C0F012161306E407F50798F0621BFE
:1035F000730B840B950B39F40A2661F0232B242BD3
:10360000252B21F408950A2609F4A140A6958FEFF1
:10361000811D811D089597F99F6780E870E060E043
:1036200008959FEF80EC089500240A94161617065B
:1036300018060906089500240A94121613061406A3
:1036400005060895092E0394000C11F4882352F006
:10365000BB0F40F4BF2B11F460FF04C06F5F7F4FBE
:103660008F4F9F4F089557FD9058440F551F59F0A5
:103670005F3F71F04795880F97FB991F61F09F3F5F
:1036800079F087950895121613061406551FF2CF88
:103690004695F1DF08C0161617061806991FF1CFD8
:1036A00086957105610508940895E894BB276627FF
:1036B0007727CB0197F908950E94E71A08F48FEF56
:1036C00008950E94741B0C94221B0E94141B38F056
:1036D0000E941B1B20F0952311F00C940B1B0C94E3
:1036E000111B11240C94561B0E94331B70F3959FE1
:1036F000C1F3950F50E0551F629FF001729FBB27E9
:10370000F00DB11D639FAA27F00DB11DAA1F649F84
:103710006627B00DA11D661F829F2227B00DA11D37
:10372000621F739FB00DA11D621F839FA00D611DBD
:10373000221F749F3327A00D611D231F849F600DDE
:10374000211D822F762F6A2F11249F5750409AF007
:10375000F1F088234AF0EE0FFF1FBB1F661F771F93
:10376000881F91505040A9F79E3F510580F00C945E
:103770000B1B0C94561B5F3FE4F3983ED4F38695E5
:1037800077956795B795F795E7959F5FC1F7FE2BFE
:10379000880F911D9695879597F908950E94E71ACD
:1037A000880B990B0895A1E21A2EAA1BBB1BFD01E1
:1037B0000DC0AA1FBB1FEE1FFF1FA217B307E40710
:1037C000F50720F0A21BB30BE40BF50B661F771F68
:1037D000881F991F1A9469F7609570958095909548
:1037E0009B01AC01BD01CF010895EE0FFF1F0590B5
:1037F000F491E02D099481E090E0F8940C94001C81
:1038000010E0C7ECD0E004C0FE010E94F51B219639
:0A381000C83CD107C9F7F894FFCFB8
:10381A00FF00009F04800000000000000000007DFF
:10382A000B770C98077E077D0786071701DC077C54
:10383A00077B0700000000EB10F3106610770C9866
:10384A00077E07E00E86076B0FDC077C077B070005
:10385A00000000DF03360500000000C007DA070099
:10386A000000009A07C507000000006C08860800DF
:10387A000000009008C107180000000000000000C6
:10388A0000E8FFE8FF00000000000014000000004C
:10389A000000000000ECFFECFF0000000000000048
:1038AA00000000E10D4A0D790D280EAA0D880D9C25
:1038BA000D0600000000003C053E05FAFFFAFF0075
:1038CA00003D0540051800000000005D057405E88C
:1038DA00FFE8FF00006A057E05BB016D017701C59F
:1038EA00010000000077073A05F004ED04EA04E756
:1038FA0004E4045B04570454043E045E04E203E057
:10390A00030200000000008A058C05FEFFFEFF008E
:10391A00008B058E05000000007907D6050000001F
:10392A000078078805F004ED04EA04E704E404D803
:10393A00049204790460045E04F905D805140000B1
:10394A00000000AB05C205ECFFECFF0000B805CC97
:10395A0005330281018B013D02000000002E056241
:10396A00080000000000000000170100000000919C
:10397A0008C30700000000EA10DE0E560E550E00BE
:10398A00000000E910DC0E560EAE0E540E000000C8
:10399A00007607380500000000C707D007D80800DE
:1039AA0000000000000000170117010000000000DD
:1039BA000000001701000000007A07DD1469064CB8
:1039CA0006E214FEFF0000DC14DF146A150D0A007B
:1039DA006E616E00696E66006F76660025006B5632
:1039EA00003F005355500042540048560053455476
:1039FA00530053455400544C530054425A00415406
:023A0A000000BA
:00000001FF
