:100000000C94D5000C94FD000C94FD000C94FD00A4
:100010000C94FD000C94FD000C94FD000C9437082A
:100020000C94FD000C94FD000C94FD000C94FD005C
:100030000C94FD000C94FD000C94FD000C94FD004C
:100040000C94C2070C94FD000C94770E0C94510E86
:100050000C94FD000C94FD000C94FD000C94FD002C
:100060000C94FD000C94FD00204D65617375726564
:100070006D656E743A200020566F6C746167653A46
:100080002000485650726F62652056616C75653A63
:100090002000562050657263656E746167653A2072
:1000A0000020566F6C746167653A20004261747479
:1000B0006572792056616C75653A200042617474EE
:1000C00065727920416C61726D2053746174653A78
:1000D0002000202D20456E61626C65204572726F94
:1000E0007200202D2044697361626C652052454482
:1000F00000202D20456E61626C652042617474653C
:10010000727900025D002C200020706172616D73B5
:100110003A5B0020736F757263653A002069643A38
:1001200000434D44200045786563757465200046A2
:100130007265652052414D203D20004F4B005265B5
:100140006365697665643A200000000008000201DA
:1001500000000304070000000000000000574849A9
:100160005445206368616E6765000000000025004B
:1001700028002B0000000000240027002A000404AF
:10018000040404040404020202020202030303033F
:10019000030301020408102040800102040810201B
:1001A00001020408102044151C1511241FBECFEFB6
:1001B000D8E0DEBFCDBF12E0A0E0B1E0E6E1F7E3BA
:1001C00002C005900D92AA3CB107D9F724E0AAEC31
:1001D000B2E001C01D92A437B207E1F710E0C4ED10
:1001E000D0E004C02197FE010E94731BC33DD107DC
:1001F000C9F70E9405100C947E1B0C940000089512
:100200000895CB0108957F928F929F92AF92BF92F3
:10021000CF92DF92EF92FF920F931F93CF93DF93D2
:10022000EC0149015A018B01C12CD12C7601C81473
:10023000D904EA04FB0484F5F80171908F018F85DD
:1002400080FF0BC0E881F9810084F185E02D20E179
:1002500044E060E070E0CE010995EB85FC858D857A
:100260009E85E817F90738F470828B859C85019686
:100270009C878B870BC0E881F981672D70E0028C29
:10028000F38DE02DCE010995019649F02FEFC21AAA
:10029000D20AE20AF20ACBCFB401C50102C0B6010C
:1002A000C701DF91CF911F910F91FF90EF90DF90E9
:1002B000CF90BF90AF909F908F907F900895CF93F5
:1002C000DF93EC01E881F9810288F389E02D09953B
:1002D0008F3F2FEF920731F02D813E812F5F3F4FEF
:1002E0003E832D83DF91CF9108958FEF9FEF089587
:1002F00060E070E0CB01089580E090E00895CB01CC
:100300000895CF93DF93EC0188899989DC01ED9101
:10031000FC910084F185E02D0995892BA9F388894A
:100320009989DC01ED91FC910284F385E02DDF9148
:10033000CF910994CF93DF93EC0188899989DC01EF
:10034000ED91FC910084F185E02D0995892BA9F3AD
:1003500088899989DC01ED91FC910484F585E02D73
:10036000DF91CF910994AF92BF92CF92DF92EF923B
:10037000FF920F931F93CF93DF9300D000D0CDB7A0
:10038000DEB78C015B01C12CD12C7601F80180898C
:100390009189DC01ED91FC910284F385E02D2983A4
:1003A0003A834B835C83099529813A814B815C8137
:1003B0008F3F71F0C216D306E406F5064CF4D50162
:1003C0008D935D01BFEFCB1ADB0AEB0AFB0ADECF90
:1003D000C701B6010F900F900F900F90DF91CF9152
:1003E0001F910F91FF90EF90DF90CF90BF90AF9053
:1003F0000895DC0150968D919C915197DC01ED910F
:10040000FC910084F185E02D099480E090E008954E
:1004100080E090E0089580E090E0089580E090E032
:1004200008950895CF93DF93C0913E03D0913F0389
:10043000E881F9810084F185E02DCE010995892BB1
:10044000B9F3E881F9810284F385E02DCE01DF91D3
:10045000CF9109941F93CF93DF93182FC0913E0340
:10046000D0913F038A3041F4E881F9810190F08115
:10047000E02D6DE0CE010995E881F9810190F081D0
:10048000E02D612FCE01099521E030E0019711F4B4
:1004900020E030E0C901DF91CF911F9108950C94C5
:1004A000E71725E432E0FC013183208383AD94AD6E
:1004B0000C94E717CF93DF93EC010E945102CE0119
:1004C000DF91CF910C94E7170C94E7170C94E71782
:1004D0000C94E717089508950C94E717DC01ED914B
:1004E000FC91369720813181820F931F0C946C020E
:1004F000FB0120813181FC0131832083FB0142819A
:100500005381F901369720813181FC01E20FF31FFD
:100510005183408308952BEA31E0FC01318320832D
:1005200025EB31E0318F208F6BEB71E00C9478027A
:10053000DC01ED91FC91369720813181820F931F70
:100540000C948B02CF93DF93EC010E948B02CE01BF
:10055000DF91CF910C94E717DC01ED91FC91369778
:1005600020813181820F931F0C94A2020C94E71713
:10057000089508950C94E717DC01ED91FC913697EE
:1005800020813181820F931F0C94BA02FB012081DC
:100590003181FC0131832083FB0142815381F901C8
:1005A000369720813181FC01E20FF31F5183408394
:1005B000089523E232E0FC01318320832DE232E012
:1005C000358B248B63E372E00C94C602DC01ED9161
:1005D000FC91369720813181820F931F0C94D902B0
:1005E000CF93DF93EC010E94D902CE01DF91CF912E
:1005F0000C94E717DC01ED91FC9136972081318155
:10060000820F931F0C94F0020C94E7170F931F9323
:10061000CF93DF93EC01CB01088119817B836A833F
:100620000E9452179983888320E030E08C819D815D
:100630002817390770F4E881F981E20FF31F30972A
:1006400029F0D801A20FB31F8C9180832F5F3F4FF9
:10065000EDCFC801DF91CF911F910F910C94E71757
:10066000CF93DF936115710509F45FC0FB01C08171
:10067000CF3F11F461E003C0C11104C060E0FC0190
:1006800082814FC0FC01D2818D2F0E94C708ED2FBF
:10069000F0E0E75BFE4FE491E33009F148F4E1302C
:1006A000C9F0E230C1F584B5806284BDC8BD3DC0EB
:1006B000E73009F1E83039F1E43069F580918000E4
:1006C0008062809380008C2F90E090938B008093C9
:1006D0008A002BC084B5806884BDC7BD26C08091C8
:1006E00080008068809380008C2F90E09093890038
:1006F000809388001AC08091B00080688093B00019
:10070000C093B30012C08091B00080628093B000AB
:10071000C093B4000AC0C03810F460E001C061E0CA
:100720008D2FDF91CF910C94A009DF91CF91089587
:100730000F931F93CF93DF938C01EB016F3F8FEFEC
:10074000780719F480E090E00FC06A3031F46DE072
:10075000F801808991890E94BE0C6C2FF801808974
:1007600091890E94BE0CCE01DF91CF911F910F9114
:1007700008958F929F92BF92CF92DF92EF92FF9255
:100780000F931F93CF93DF9300D000D0CDB7DEB788
:100790008C014B01C12CD12C7601C216D306E40684
:1007A000F50644F5F401B1904F01FAE0BF120EC016
:1007B0006DE0F8018089918929833A834B835C83BA
:1007C0000E94BE0C5C814B813A8129816B2DF8011E
:1007D0008089918929833A834B835C830E94BE0C74
:1007E000FFEFCF1ADF0AEF0AFF0A5C814B813A81E3
:1007F0002981D3CFCA01B9010F900F900F900F90AC
:10080000DF91CF911F910F91FF90EF90DF90CF90EC
:10081000BF909F908F900895CF92DF92EF92FF92BA
:100820000F931F93CF93DF93FB01E488F588C08576
:10083000D1850681178168010E151F050CF467012B
:100840006CEA70E080E493E00E94C50CC7010E944E
:10085000930861EA70E080E493E00E94C50CB70160
:1008600080E090E00E94021A2AE534E643E550E475
:100870000E94B71A20E030EC4FE754E40E945F1961
:1008800020E030E0A9010E94EE18AB01BC0122E09B
:1008900080E493E00E94470D62E970E080E493E019
:1008A0000E94C50CB601CC15DD050CF4BE01601B21
:1008B000710B072E000C880B990B0E94021A20E086
:1008C00030E048EC52E40E94B71A6B017C01C01B77
:1008D000D10BBE01DD0F880B990B0E94021A9B0100
:1008E000AC01C701B6010E945F1920E030E0A90108
:1008F0000E94EE180E94D119862F90E00E94930862
:100900006FE772E080E493E0DF91CF911F910F9148
:10091000FF90EF90DF90CF900C94290E0895FC018A
:10092000118A83819481908B87871686158660E073
:1009300082810C94A0098F929F92AF92BF92CF9226
:10094000DF92EF92FF920F931F93CF93DF93FC01FF
:100950002189223009F060C0EC010E94110A2D8526
:100960003E856901E12CF12C09851A852B853C8592
:1009700046015701801A910AA20AB30ADC01CB0191
:10098000880D991DAA1DBB1DEF85F88941815281F3
:1009900060E070E084179507A607B707E8F11E86A8
:1009A0001D860E94110A69877A878B879C87EF854D
:1009B000F889638174816115710579F48F81988557
:1009C000019698878F832D813E812115310519F07D
:1009D000821793079CF46B817C81788B6F87CE01A3
:1009E000DF91CF911F910F91FF90EF90DF90CF900B
:1009F000BF90AF909F908F900C943003188A1F8601
:100A0000CE010E948F042F8138858D819E81281709
:100A1000390711F418861F82DF91CF911F910F9132
:100A2000FF90EF90DF90CF90BF90AF909F908F900E
:100A30000895CF93DF93FC0183819481892BC9F0C2
:100A400081898230B1F0811104C016861586108626
:100A50001782EF010E94110A69877A878B879C872A
:100A600082E0898B6F857889CE01DF91CF910C94DC
:100A70003003DF91CF910895EF92FF920F931F9370
:100A8000CF93DF93EC018C819D818617970710F53A
:100A90007A018B018A819B818617970740F4685FF2
:100AA0007F4F8617970718F4CE010E9406038C81AA
:100AB0009D818017910758F4E881F981E80FF91FAB
:100AC000309719F0D7012C9120830196F2CF1D8326
:100AD0000C8305C06817790710F47D836C83DF9160
:100AE000CF911F910F91FF90EF900895CF92DF92D9
:100AF000EF92FF920F931F93CF93DF931F92CDB787
:100B0000DEB78C016B0188E090E0D80113969C93CE
:100B10008E93129715961C921E9214970E9452174C
:100B2000F80191838083C114D10449F1F601019049
:100B30000020E9F731977F01EC18FD081982AE011A
:100B40004F5F5F4FB701C8010E943C05D8012D914E
:100B50003C9140E050E0BA01C701A0E0B0E0481786
:100B600059076A077B0758F4F60111916F01F901E3
:100B700011939F014F5F5F4F6F4F7F4FF0CF0F90EB
:100B8000DF91CF911F910F91FF90EF90DF90CF9069
:100B90000895FC01808191810C94E717EF92FF92F8
:100BA0000F931F93CF93DF937C0100E010E0C0E030
:100BB000D0E0F7012481358180819181C217D3076C
:100BC00040F4800F911F0E94C9052196095F1F4FB5
:100BD000F0CFDF91CF911F910F91FF90EF900C9488
:100BE000E717CF93DF93EC016C817D816F5F7F4FBF
:100BF0008A819B818617970718F4CE010E9406030D
:100C0000E881F9818C819D81E80FF91F108288812C
:100C10009981DF91CF910895AF92BF92CF92DF92E9
:100C2000EF92FF920F931F93CF93DF931F92CDB755
:100C3000DEB78C016B017A01590188E090E0D801A0
:100C400013969C938E93129715961C921E9214974E
:100C50000E945217F80191838083D60114968D91DA
:100C60009C9115978E159F0510F40E94791B19828F
:100C7000BC016E197F09A616B70608F4B501AE01CE
:100C80004F5F5F4FC8010E943C05F8018481958148
:100C9000D601ED91FC91EE0EFF1EF801208131810D
:100CA00040E050E0BA01A0E0B0E0481759076A07F9
:100CB0007B0758F4F70111917F01F90111939F010E
:100CC0004F5F5F4F6F4F7F4FF0CF0F90DF91CF910E
:100CD0001F910F91FF90EF90DF90CF90BF90AF905A
:100CE00008952DE332E0FC0121933193CF010C9460
:100CF000C905CF93DF93EC010E947106CE01DF910D
:100D0000CF910C94E717CF92DF92EF92FF920F935F
:100D10001F93CF93DF93EC01162F64E872E080E419
:100D200093E00E94290E8A81112309F44CC080644B
:100D30008A8387FD8EC061EF70E080E493E00E94BB
:100D40003D0E6E0185E1C80ED11CC6010E948F04C4
:100D500085E090E00E9452178C01FC011082148201
:100D6000138288E097E09283818385E090E00E947F
:100D700052177C0180EAF701808384E690E0928339
:100D800081831483038385E090E00E9452178C01D5
:100D9000FC0110828CE390E092838183F482E382F1
:100DA00085E090E00E945217FC018FEF808388E27B
:100DB00090E09283818314830383F98FE88FFDA3EE
:100DC000ECA3C6013CC08F7B8A8387FD42C062EEE4
:100DD00070E080E493E00E943D0E7E01F5E1EF0EAD
:100DE000F11CC7010E948F048A8185FF32C062ED29
:100DF00070E080E493E00E943D0EC7010E948F04E2
:100E000085E090E00E9452178C01FC011082148250
:100E100013828EEEC82E82E0D82ED282C18285E067
:100E200090E00E945217FC018FEF8083D282C18232
:100E300014830383F98FE88FFDA3ECA3C701DF912F
:100E4000CF911F910F91FF90EF90DF90CF900C9476
:100E50001905DF91CF911F910F91FF90EF90DF90D7
:100E6000CF9008950F931F93CF938C01C42F6CEBF9
:100E700070E080E493E00E94C50C6C2F70E080E489
:100E800093E00E94E608D8011896ED91FC9119971D
:100E9000928196FB992790F99C1739F06C2FCF011E
:100EA000CF911F910F910C948306CF911F910F91B9
:100EB00008950F931F93CF93DF938091D402909165
:100EC000D502892B09F04FC089E390E00E945217A8
:100ED000EC018BE091E0998388831A8203E111E0B1
:100EE0001C830B8386E08D831F821E8219861886E1
:100EF0001B861A861C861D861E861F86198A188ADE
:100F00001B8A1A8A1C8A0E94C7081E8B0D8B88E0D8
:100F10008F8B198E188E1B8E1A8E1D8E1C8E1E8E18
:100F20001F8E18A219A21BA21AA21DA21CA21EA2E9
:100F30000E94C70818A70FA387E089A71BA61AA6B7
:100F40001DA61CA61FA61EA618AA19AA1AAA1BAA85
:100F50001DAA1CAA1FAA1EAA18AE0E94C708D093D9
:100F6000D502C093D4028091D4029091D502DF9132
:100F7000CF911F910F9108950895089508950895B0
:100F80000E94791B1F920F920FB60F9211242F937C
:100F90003F938F939F93AF93BF938091E002909183
:100FA000E102A091E202B091E3023091DF0223E07E
:100FB000230F2D3720F40196A11DB11D05C026E891
:100FC000230F0296A11DB11D2093DF028093E00242
:100FD0009093E102A093E202B093E3028091E402D5
:100FE0009091E502A091E602B091E7020196A11D61
:100FF000B11D8093E4029093E502A093E602B093C2
:10100000E702BF91AF919F918F913F912F910F90E8
:101010000FBE0F901F90189590910001981324C057
:10102000E3E0F1E0E4919FEF90930001E130B9F04B
:1010300098F0E230C9F4909170009D7F9093700019
:1010400091E09093B0009091B100987F946090935C
:10105000B1001092B30008C010926E0005C09091CC
:101060006F009D7F90936F0060E00C94A0091F9229
:101070000F920FB60F9211242F933F934F935F93CC
:101080006F937F938F939F93AF93BF93EF93FF9350
:101090008091D9029091DA02A091DB02B091DC023A
:1010A000892B8A2B8B2B51F18091D802E091D602AB
:1010B000F091D7029081892780838091D902909105
:1010C000DA02A091DB02B091DC02181619061A06AA
:1010D0001B06C4F48091D9029091DA02A091DB0240
:1010E000B091DC020197A109B1098093D9029093D4
:1010F000DA02A093DB02B093DC0204C0809100010D
:101100000E940C08FF91EF91BF91AF919F918F9139
:101110007F916F915F914F913F912F910F900FBEF3
:101120000F901F901895CF92DF92EF92FF92CF937E
:10113000DF936C01990FEE08FF08F7FE1BC06DE20C
:1011400080E493E00E94BE0CEC0144275527BA01CD
:101150004C195D096E097F092AE080E493E00E9442
:10116000FE0C8C0F9D1FDF91CF91FF90EF90DF90D1
:10117000CF9008952AE0B701A60180E493E0DF91C3
:10118000CF91FF90EF90DF90CF900C94FE0C90E009
:10119000FC01EE56FE4F2491FC01E258FE4F849173
:1011A000882399F090E0880F991FFC01EC58FE4FBE
:1011B000A591B491FC01E659FE4F859194918FB7AA
:1011C000F894EC91E22BEC938FBF0895CF92DF92CD
:1011D000EF92FF920F931F93CF93DF938C016B01DC
:1011E000770FEE08FF08F7FE12C06DE20E94BE0CFA
:1011F000EC0144275527BA014C195D096E097F0996
:101200002AE0C8010E94FE0CC80FD91F06C02AE0C0
:10121000B701A6010E94FE0CEC016BE972E0C80167
:101220000E94E90C8C0F9D1FDF91CF911F910F91B0
:10123000FF90EF90DF90CF900895CF92DF92EF92E2
:10124000FF920F931F93CF93DF93EC019A8192FD4E
:1012500048C094609A8397FD36C06E0183E0C80E43
:10126000D11CC6010E948F0485E090E00E945217B5
:101270007C01FC0110821482138280E99BE092833E
:10128000818385E090E00E9452178C018FEFF80176
:10129000808384E190E092838183F482E38285E01D
:1012A00090E00E945217FC0183E0808388E290E086
:1012B0009283818314830383FF83EE83FB8BEA8B0A
:1012C000C6010E9419056DE571E080E493E0DF91AD
:1012D000CF911F910F91FF90EF90DF90CF900C94E2
:1012E0003D0EDF91CF911F910F91FF90EF90DF9016
:1012F000CF900895CF93DF93C0913703D0913803F7
:1013000080913B0390913C03880F991F20913703F4
:1013100030913803820F931FC817D90771F0899154
:101320009991DC01ED91FC910680F781E02D4091CF
:101330000F036CEF72E00995E3CFDF91CF91089531
:1013400090E0FC01E75BFE4F3491FC01EE56FE4F4E
:101350002491FC01E258FE4FE491EE2309F43BC0D6
:10136000332339F1333091F038F43130A9F0323091
:1013700001F584B58F7D12C0373091F03830A1F07F
:101380003430B9F4809180008F7D03C0809180005B
:101390008F77809380000DC084B58F7784BD09C09E
:1013A0008091B0008F7703C08091B0008F7D8093D3
:1013B000B000F0E0EE0FFF1FE659FE4FA591B4918B
:1013C0008FB7F894EC91611103C020952E2301C0D2
:1013D0002E2B2C938FBF08953FB7F8948091E40291
:1013E0009091E502A091E602B091E70226B5A89B94
:1013F00005C02F3F19F00196A11DB11D3FBFBA2FA7
:10140000A92F982F8827820F911DA11DB11DBC0106
:10141000CD0142E0660F771F881F991F4A95D1F7CB
:1014200008952FB7F8946091E0027091E1028091E5
:10143000E2029091E3022FBF0895CF92DF92EF92E4
:10144000FF920F931F93CF93DF936C017A018B016F
:10145000C0E0D0E0CE15DF0589F0D8016D918D0197
:10146000D601ED91FC910190F081E02DC601099526
:10147000892B11F47E0102C02196ECCFC701DF91C8
:10148000CF911F910F91FF90EF90DF90CF90089533
:10149000089580E090E00895FC01538D448D252F40
:1014A00030E0842F90E0821B930B541710F0CF96FE
:1014B000089501970895FC01918D828D981761F030
:1014C000828DDF01A80FB11D5D968C91928D9F5F7B
:1014D0009F73928F90E008958FEF9FEF0895FC0126
:1014E000918D828D981731F0828DE80FF11D858DD9
:1014F00090E008958FEF9FEF0895FC01918D228D6C
:10150000892F90E0805C9F4F821B91098F739927F0
:10151000089580E493E00E947D0A21E0892B09F47C
:1015200020E0822F0895FC01848DDF01A80FB11DFA
:10153000A35ABF4F2C91848D90E001968F73992709
:10154000848FA689B7892C93A089B1898C918064F6
:101550008C93938D848D981306C00288F389E02DB7
:1015600080818F7D80830895EF92FF920F931F9368
:10157000CF93DF93EC0181E0888F9B8D8C8D981346
:1015800005C0E889F989808185FD24C0F62E0B8D80
:1015900010E00F5F1F4F0F731127E02E8C8DE812A4
:1015A0000CC00FB607FCFACFE889F989808185FF66
:1015B000F5CFCE010E94930AF1CF8B8DFE01E80F8B
:1015C000F11DE35AFF4FF0820B8FEA89FB8980817E
:1015D000806207C0EE89FF896083E889F98980818C
:1015E0008064808381E090E0DF91CF911F910F9123
:1015F000FF90EF900895CF93DF93EC01888D8823BF
:10160000C9F0EA89FB89808185FD05C0A889B9896F
:101610008C9186FD0FC00FB607FCF5CF808185FF4A
:10162000F2CFA889B9898C9185FFEDCFCE010E94B8
:10163000930AE7CFDF91CF91089580E090E0892B66
:1016400029F00E94890A81110C94000008950895E0
:1016500008950895FC019285915081E0923008F040
:1016600080E00895DC011A962C91261759F0FC01B0
:1016700062870190F081E02D0688F789E02D0995B9
:1016800081E0089580E0089503960895CF93DF9355
:10169000EC0161E086E00E94A00961E088E00E9420
:1016A000A00961E087E00E94A0090E94110A6D87ED
:1016B0007E878F87988B82E0DF91CF9108950F937B
:1016C0001F93CF93DF931F92CDB7DEB78C01AE018E
:1016D0004F5F5F4F68EB72E00E947605C8010F9084
:1016E000DF91CF911F910F9108950F931F93CF9387
:1016F000DF931F92CDB7DEB78C01AE014F5F5F4F16
:101700006CEB72E00E947605C8010F90DF91CF91DB
:101710001F910F910895CF93DF93EC018BE792E037
:10172000998388838091680490916904009739F0C7
:10173000DC01ED91FC910280F381E02D09958A8115
:101740009B81DF91CF910C94E717CF93DF93EC014E
:101750000E948B0BCE01DF91CF910C94E717AF92D3
:10176000BF92CF92DF92EF92FF920F931F93CF938E
:10177000DF93FC01248135816217730708F56B0143
:10178000EC0187E0869F5001879FB00C11248B01EC
:10179000E12CF12C8C819D810817190778F4C70181
:1017A0008A0D9B1D28813981820F931F0E94C905D4
:1017B0000F5F1F4FF7E0EF0EF11CECCFDD82CC8204
:1017C000DF91CF911F910F91FF90EF90DF90CF901D
:1017D000BF90AF9008952F923F924F925F926F9279
:1017E0007F928F929F92AF92BF92CF92DF92EF92B1
:1017F000FF920F931F93CF93DF9300D01F92CDB72B
:10180000DEB77C017B836A831C0123E0220E311C3E
:1018100060E070E0C1010E94AF0BEA81FB81808033
:101820009180EA81FB8124813581F7E0F29FC0013C
:10183000F39F900D1124EA81FB8120813181820F79
:10184000931F8816990609F483C0F7018781908554
:101850006C01FFEFCF1ADF0A8C159D0508F070C0F0
:10186000F701258136812C153D05F0F509962817DD
:101870003907D0F5638074809683858347E09C01A7
:10188000429FC001439F900D11240E945217F701FF
:10189000948383835301412C512CF70187819085D8
:1018A00048165906F0F4F70123813481C5018619E1
:1018B0009709820F931F009751F08E010F5F1F4F02
:1018C0002FEF3FEF40E050E0B5010E940C06C5014C
:1018D0000E94C905FFEF4F1A5F0A27E0A20EB11C54
:1018E000DCCFC3010E94E717F701A780B084F7E0BF
:1018F000FA9D2001FB9D500C1124612C712CF701E5
:10190000AC14BD04D0F423813481C301840D951D32
:10191000820F931F009751F08E010F5F1F4F2FEF23
:101920003FEF40E050E0B4010E940C06FFEFAF1A19
:10193000BF0A27E0620E711CE2CFD086C78204C0C6
:10194000B601C1010E94AF0BF7E08F0E911C69CF69
:101950000F900F900F90DF91CF911F910F91FF90FB
:10196000EF90DF90CF90BF90AF909F908F907F903F
:101970006F905F904F903F902F900895DC01ED9114
:10198000FC910190F081E02D0994EF92FF920F936A
:101990001F93CF93DF938C017B01C0E0D0E0F70170
:1019A000EC0FFD1F6491662361F0D801ED91FC916D
:1019B0000190F081E02DC8010995892B11F0219645
:1019C000EECFCE01DF91CF911F910F91FF90EF905D
:1019D00008956115710579F0FB0101900020E9F788
:1019E0003197AF01461B570BDC01ED91FC91028052
:1019F000F381E02D099480E090E008954F925F928A
:101A00006F927F92EF92FF920F931F93CF93DF938A
:101A1000CDB7DEB7A1970FB6F894DEBF0FBECDBF2E
:101A20007C01FA01CB0119A2223008F42AE08E01D0
:101A30000F5D1F4F422E512C612C712CBF01A30151
:101A400092010E943D1BF901CA01015011096A303F
:101A500014F4605D01C0695CD8016C93232B242BC6
:101A6000252B61F7B801C7010E94E90CA1960FB6BA
:101A7000F894DEBF0FBECDBFDF91CF911F910F91C4
:101A8000FF90EF907F906F905F904F9008954F92EE
:101A90005F926F927F928F929F92AF92BF92CF92FE
:101AA000DF92EF92FF92CF93DF93EC016A017B010B
:101AB000B22E9A01AB01C701B6010E94241B8823F4
:101AC00019F06EEB72E027C026013701E89477F831
:101AD0002FEF3FEF4FE75FE7C301B2010E94241BE6
:101AE00081110DC02FEF3FEF4FE75FE7C301B20158
:101AF0000E945A1918161CF462EC72E00CC02FEF09
:101B00003FEF4FE75FE4C701B6010E94B21A181613
:101B10009CF466EC72E0CE01DF91CF91FF90EF90E4
:101B2000DF90CF90BF90AF909F908F907F906F90FD
:101B30005F904F900C94E90C2FEF3FEF4FE75FEC75
:101B4000C701B6010E945A1987FDE3CF20E030E0BB
:101B5000A901C701B6010E945A1987FF0AC06DE2A8
:101B6000CE010E94BE0C4C01F7FAF094F7F8F09405
:101B700002C0812C912CA12C60E070E080E09FE3FA
:101B8000AB1441F020E030E040E251E40E945F19E4
:101B9000A394F6CF9B01AC01C701B6010E94EE18D9
:101BA0002B013C010E94D1196B017C010E94001A9B
:101BB0009B01AC01C301B2010E94ED182B013C0155
:101BC0002AE0B701A601CE010E94FE0C7C01E80CC0
:101BD000F91CBB2031F06EE2CE010E94BE0CE80E73
:101BE000F91EDB2CDD2029F120E030E040E251E459
:101BF000C301B2010E94B71A2B013C010E94D11906
:101C00004B01A12CB12C2AE0B501A401CE010E9408
:101C1000FE0CE80EF91EC501B4010E94001A9B01DA
:101C2000AC01C301B2010E94ED182B013C01DA9412
:101C3000D9CFC701DF91CF91FF90EF90DF90CF9088
:101C4000BF90AF909F908F907F906F905F904F90DC
:101C500008950F931F93CF93DF93EC010E94E90C3B
:101C60008C016BE972E0CE010E94E90C800F911F9C
:101C7000DF91CF911F910F9108950F931F93CF93F1
:101C8000DF93EC010E94C50C8C016BE972E0CE0180
:101C90000E94E90C800F911FDF91CF911F910F914E
:101CA00008951F920F920FB60F9211242F933F9316
:101CB0004F935F936F937F938F939F93AF93BF9354
:101CC000EF93FF9380E493E00E94930AFF91EF91DA
:101CD000BF91AF919F918F917F916F915F914F9144
:101CE0003F912F910F900FBE0F901F9018951F924C
:101CF0000F920FB60F9211242F938F939F93EF9310
:101D0000FF93E0915003F09151038081E0915603DD
:101D1000F091570382FD12C09081809159038F5F2B
:101D20008F7320915A03821751F0E0915903F0E02C
:101D3000E05CFC4F958F8093590301C08081FF9137
:101D4000EF919F918F912F910F900FBE0F901F9049
:101D5000189523E231E0FC013183208303960C9433
:101D6000CE05CF93DF93EC010E94A90ECE01DF9147
:101D7000CF910C94E717CF93DF93809168049091F3
:101D80006904892BC9F489E090E00E945217EC01A4
:101D90008BE792E09983888388E090E09D838C8331
:101DA0001F821E8280E190E00E9452179B838A83EB
:101DB000D0936904C0936804809168049091690489
:101DC000DF91CF910895EF92FF920F931F93CF93DE
:101DD000DF93EC01E881F9810684F785E02D63E06B
:101DE00009950E94BB0EDC0112968D919C91139770
:101DF00016962D913C911797A901440F551F480F36
:101E0000591FBC01FB016417750741F06E5F7F4FDE
:101E1000008111810C171D07A9F702C0E0E0F0E076
:101E2000CD2B31F1E81BF90BAF0155954795C90151
:101E30000197BF016E5F7F4F4817590790F41296C4
:101E4000ED90FC9013974F5F5F4F8701060F171FB0
:101E5000E80108811981EE0DFF1D11830083FB014C
:101E6000E8CF8217930720F417969C938E931697CA
:101E7000DF91CF911F910F91FF90EF9008950F93F5
:101E80001F93CF93DF93EC010E94110A0D851E85ED
:101E90002F853889DC01CB01801B910BA20BB30B82
:101EA000853F9140A105B105D0F060E086E00E9439
:101EB000A00960E088E00E94A00960E087E00E943D
:101EC000A00985E00E940C080E9459070E941D0984
:101ED000CE01DF91CF911F910F910C94E30EDF9112
:101EE000CF911F910F91089508950C94E7170297D1
:101EF0000C94750FCF92DF92EF92FF92CF93DF9306
:101F0000FC01868197816817790709F074C04A300F
:101F1000510509F070C0FB01C280D380E601D7FCF7
:101F200007C0C114F4E0DF062CF0CFEFD3E002C00D
:101F3000C0E0D0E062E870E080E493E00E94C50C6D
:101F4000E12CF12C2AE0B701A60180E493E00E9485
:101F5000FE0C67E770E080E493E00E94C50CC701C7
:101F6000B6010E94021A2AE534E643E550E40E94D5
:101F7000B71A20E030EC4FE754E40E945F1920E0EC
:101F800030E0A9010E94EE18AB01BC0122E080E420
:101F900093E00E94470D68E670E080E493E00E94C1
:101FA000C50CBE01DD0F880B990B0E94021A20E0C0
:101FB00030E044E352E40E94B71A20E030EC4FE7EF
:101FC00054E40E945F1920E030E0A9010E94EE185D
:101FD000AB01BC0122E080E493E00E94470D61E880
:101FE00072E080E493E0DF91CF91FF90EF90DF907B
:101FF000CF900C94290EDF91CF91FF90EF90DF905E
:10200000CF90089502970C947A0FCF93DF93CDB7BA
:10201000DEB764970FB6F894DEBF0FBECDBF7894DD
:1020200084B5826084BD84B5816084BD85B58260DD
:1020300085BD85B5816085BD80916E00816080938E
:102040006E001092810080918100826080938100F7
:102050008091810081608093810080918000816007
:10206000809380008091B10084608093B100809162
:10207000B00081608093B00080917A00846080938A
:102080007A0080917A00826080937A0080917A0051
:10209000816080937A0080917A00806880937A00D2
:1020A0001092C10086E00E94C70888E00E94C7081D
:1020B00087E00E94C70885E00E94C708E0915003AE
:1020C000F091510382E08083E0914C03F0914D0345
:1020D0001082E0914E03F0914F038FEC80831092B9
:1020E0005803E0915403F091550386E08083E0911A
:1020F0005203F0915303808180618083E091520309
:10210000F0915303808188608083E0915203F091C5
:102110005303808180688083E0915203F0915303E0
:1021200080818F7D80836BE371E080E493E00E9487
:102130003D0EE091F602F091F70222E0EC3FF2074B
:1021400009F4B4C0309709F444C083AC94AC5F0187
:102150004FE3A40EB11C23AD34ADD5014D915C917C
:10216000CA01880F991F820F931F8816990689F15B
:10217000D4018D919C91825F924039F5C401821BFC
:10218000930B8C0115950795BA01615071097C017B
:10219000B2E0EB0EF11C0617170788F423AD34AD3F
:1021A0000F5F1F4F6901CE0CDF1CD601CD90DC9074
:1021B000820F931FDC01CD92DC92C701E8CF641738
:1021C000750718F4D5016D937C93B2E08B0E911CCA
:1021D000C2CFE0903B03F0903C0387010F5F1F4F9D
:1021E000E016F10608F055C08091390390913A034A
:1021F00080179107A0F59701275F3F4F821793073C
:1022000070F5C0903703D090380330933A03209391
:102210003903C901880F991F0E9452179093380300
:1022200080933703D60140E050E04E155F05A1F0E2
:10223000E0913703F09138039A01220F331FE20F28
:10224000F31F309729F08D919C9111979183808392
:102250004F5F5F4F1296E9CFC6010E94E71780914A
:102260003B0390913C039C01220F331F42EF52E04D
:102270008017910788F4E0913703F0913803E20F5B
:10228000F31F309711F05183408301962E5F3F4F2B
:10229000EFCF0E151F0520F410933C0300933B0372
:1022A0008CEF92E09093F7028093F6028091F00217
:1022B0009091F1029093FB028093FA02E091F60272
:1022C000F091F702309711F082E086870091F802D2
:1022D0001091F902FE0131966F0101151105D1F13E
:1022E0007801F4E1EF0EF11CD80158968C915897C3
:1022F000823081F1811104C09A961C921E929997A6
:102300000E94110AF801678F70A381A392A382E053
:10231000808F81E090E09B8B8A8B868997890097DC
:10232000C9F0218D328DDC01ED91FC910480F581A5
:10233000E02D4BE151E05A834983FC82EB82AE01F0
:102340004E5E5F4F5E834D8338872F831A861986D2
:10235000B60109958091FA029091FB02009711F065
:102360000E941D09E091F602F091F7026389E09165
:10237000FA02F091FB02928196FB992790F9961749
:1023800019F0CF010E94830682E080930A030E9425
:10239000110A6093E8027093E9028093EA02909335
:1023A000EB0281E190E00E9452177C01FC01128255
:1023B00088E090E0968385831086178288E390E01A
:1023C0000E945217D70114969C938E9313971A96D6
:1023D0001C921A978091DD029091DE0201969093F3
:1023E000DE028093DD021C969C938E931B978FE3F5
:1023F00091E08D939C93F701158616861786108AB7
:1024000066E271E080E493E00E94C50C61E271E055
:1024100080E493E00E94C50CD701ED91FC9104800B
:10242000F581E02DB701C6010995C6010E94F105AD
:10243000BC0180E493E00E94E90CC6010E94C9053A
:102440006CE171E080E493E00E94C50CF7014385E4
:10245000548560E070E02AE080E493E00E94FE0C86
:1024600063E171E080E493E00E94C50CD70112960D
:102470004C9150E060E070E02AE080E493E00E943C
:10248000FE0C69E071E080E493E00E94C50CD70186
:10249000ED91FC910084F185E02DC70109955C0167
:1024A000FC0124813581388B2F87285F3F4F3E8781
:1024B0002D8787E0F82FF29FC001F39F900D112424
:1024C0000E9452179C878B87812C912C612C712C38
:1024D0008F85988968167906C8F4D5016D917C912D
:1024E000680D791D8B859C85880D991D009739F0A5
:1024F00086012FEF3FEF40E050E00E940C06BFEF57
:102500006B1A7B0AE7E08E0E911CE2CFAB84BC8491
:10251000A7E09A2E2F853889929EC001939E900D38
:1025200011242B853C85820F931FA816B90679F1DB
:102530008E010C5E1F4F2FEF3FEF40E050E0B501E2
:10254000C6010E940C06C6010E94F105BC0180E490
:1025500093E00E94E90CC6010E94C9052F853889C5
:10256000929EC001939E900D112407972B853C8568
:10257000820F931FA816B90631F066E071E080E47F
:1025800093E00E94C50CF7E0AF0EB11CC3CF64E02E
:1025900071E080E493E00E943D0ECE010B960E9414
:1025A000CE05D701ED91FC910684F785E02D61E021
:1025B000C7010995D701ED91FC910088F189E02DC3
:1025C000C7010995823009F074C00E94BB0E8C01CE
:1025D000E114F10409F47EC0FC0186809780540167
:1025E000FFEFAF1ABF0A8A149B0408F059C0DC0140
:1025F00014962D913C9115972A153B0598F5C40129
:1026000009962817390770F512966C901297139651
:102610007C90139715969C938E931497880F991F0F
:102620000E945217F80193838283D30140E050E067
:1026300048155905A1F0F801828193819A01220F72
:10264000331FFC01E20FF31F309729F08D919C910D
:102650001197918380834F5F5F4F1296E9CFC3013B
:102660000E94E717D80116968D919C9117979C01AF
:10267000220F331F8A159B0578F4D8011296ED912D
:10268000FC911397E20FF31F309711F0F182E08273
:1026900001962E5F3F4FEECFF801B782A6821AC097
:1026A000A814B904B8F4DC011796BC92AE92169740
:1026B00011C0D701ED91FC91813031F40288F3898A
:1026C000E02DC701099506C00488F589E02D63E077
:1026D000C70109956FE271E080E493E00E94C50CA8
:1026E00080916A0490916B04B601681B790B80E4B9
:1026F00093E00E94E6083324339480910A038230E9
:1027000009F078C00E94110A00910B0310910C038C
:1027100020910D0330910E03AB01BC01401B510B06
:10272000620B730B8091000390910103A0E0B0E075
:10273000481759076A077B0708F45CC020913403E7
:1027400030913503F901EE0FFF1FEC5EFC4F8091D5
:1027500012039091130340815181841B950B909338
:102760001303809312038091FE028E3008F08E5086
:102770008770806480937C0080917A00806480936D
:102780007A0080917A0086FDFCCF8091780040919C
:102790007900220F331FF901EC5EFC4F90E0942B7F
:1027A000918380832091340330913503F901EE0F3A
:1027B000FF1FEC5EFC4F408151818091120390918C
:1027C0001303840F951F90931303809312032F5FBD
:1027D0003F4F30933503209334035091360340919B
:1027E000FF02513009F4C2C0B90150E02417350787
:1027F00008F0BFC00091F0021091F102C8010396E9
:102800000E949B04C80145960E949B04C8018796BC
:102810000E949B04E090EE02F090EF0280E493E0CF
:102820000E947D0A181619060CF05CC080E493E043
:102830000E945B0A8A3011F08D30F1F5F701868134
:102840009781892B09F447C08E01055F1F4F2FEF39
:102850003FEF40E050E0B7016E5F7F4FC6010E943E
:102860000C066EE371E080E493E00E94C50CC601A3
:102870000E94F105BC0180E493E00E94290EC6018C
:102880000E94C905D70116964D915C91179760E09B
:1028900070E02AE080E493E00E94FE0C6BE972E0B5
:1028A00080E493E00E94E90CF70186819781892BEF
:1028B00091F0178216820FC08C8BD70116966D91FE
:1028C0007C9117976F5F7F4FAE014C5E5F4FC701E2
:1028D00002960E943C05F70186819781419710F08E
:1028E000178216820E94EC094B015C012AE0422EFD
:1028F000512C612C712C0E94EC09DC01CB01881950
:102900009909AA09BB09883E9340A105B10558F071
:10291000F1E04F1A51086108710828EE820E23E099
:10292000921EA11CB11C411451046104710419F7D9
:10293000E091EC02F091ED02E280F38006811781D4
:10294000000F111F0E0D1F1DE016F10661F0D701DB
:102950008D919D917D01DC01ED91FC910484F585C3
:10296000E02D0995F1CF0E941D0BC7CE642F70E0BA
:102970003CCF0E94291B8B01109235031092340327
:10298000309236030E94110A60930B0370930C037C
:1029900080930D0390930E03E0901003F0901103C9
:1029A0000E151F0509F426CF109311030093100391
:1029B000009137031091380380913B0390913C03C1
:1029C000880F991F2091370330913803820F931F8E
:1029D0000817190779F0F801819191918F01DC01B5
:1029E000ED91FC910480F581E02DA7016CEF72E080
:1029F0000995E2CF40910F0320911003309111030C
:102A00008091060390910703442369F040910803E5
:102A100050910903840F951F8217930708F0EACE9F
:102A200010920F0306C08217930708F4E3CE30928A
:102A30000F030E947A09DECE8CEF92E00E945102D1
:102A40008FED93E00E948B028DE094E00E94D9020A
:102A500087E394E00E94C9058EE394E00E94C905D3
:102A600085E494E00E94C9058CE494E00E94C905C5
:102A700083E594E00E94C9058AE594E00E94C905B7
:102A800081E694E00C94C905FF920F931F93CF93B6
:102A9000DF931F92CDB7DEB700E413E0109243033B
:102AA0001092420388EE93E0A0E0B0E080934403EC
:102AB00090934503A0934603B093470383E891E0C6
:102AC000909341038093400385EC90E090934D03F5
:102AD00080934C0384EC90E090934F0380934E03DB
:102AE00080EC90E0909351038093500381EC90E050
:102AF000909353038093520382EC90E0909355039C
:102B00008093540386EC90E0909357038093560390
:102B10001092590310925A0310925B0310925C03B7
:102B2000AE014F5F5F4F6EE972E081E694E00E9474
:102B30007605AE014F5F5F4F61EA72E08AE594E08F
:102B40000E947605AE014F5F5F4F64EA72E083E555
:102B500094E00E947605AE014F5F5F4F69EA72E034
:102B60008CE494E00E947605AE014F5F5F4F6DEA02
:102B700072E085E494E00E947605AE014F5F5F4FFE
:102B800061EB72E08EE394E00E947605AE014F5F48
:102B90005F4F65EB72E087E394E00E947605E1E227
:102BA000F0E0F0932504E0932404109226041092A0
:102BB00027041092280446E050E060E070E0409363
:102BC000290450932A0460932B0470932C041092D0
:102BD0002D0410922E0410922F041092300420E243
:102BE0002093310410923304109232041092360470
:102BF0008FE094E0909335048093340483E292E074
:102C000090930E0480930D048DE292E09093220441
:102C10008093210410921304109212041092150450
:102C200010921404109217041092160410921904B2
:102C30001092180410921B0410921A0410921D0492
:102C400010921C0481E092E09093100480930F0492
:102C50001093200400931F0430E1F32EF0921E0421
:102C6000F093FB03E093FA031092FC031092FD0330
:102C70001092FE034093FF035093000460930104FD
:102C8000709302041092030410920404109205043D
:102C9000109206042093070410920904109208046D
:102CA00010920C041092E1031092E2031092E303DD
:102CB0001092E40325EE33E030930B0420930A04D2
:102CC0002BEA31E03093E0032093DF0325EB31E082
:102CD0003093F8032093F7031092E9031092E8036E
:102CE0001092EB031092EA031092ED031092EC03A2
:102CF0001092EF031092EE031092F1031092F00382
:102D00001092F3031092F2039093E6038093E5038D
:102D10001093F6030093F50388E08093F403109377
:102D20003F0300933E0362E172E08AE292E00E9478
:102D30007F1885E492E09093FD028093FC028EE080
:102D40008093FE02F092FF0280E094E090930103F2
:102D5000809300038EE293E0909303038093020339
:102D600081ED93E0909305038093040386E493E060
:102D7000909307038093060383E090E09093090308
:102D80008093080310920A0310920B0310920C0315
:102D900010920D0310920E0310920F031092110364
:102DA0001092100310921303109212031092350325
:102DB000109234031092360388E090E090933A0327
:102DC0008093390310923C0310923B0380E190E022
:102DD0000E9452179093380380933703E4E1F3E0A5
:102DE0001192119283E0E433F807D1F783E692E081
:102DF0009093F3028093F20281E792E09093F502C0
:102E00008093F4021092F7021092F6021092F902E7
:102E10001092F8021092FB021092FA020E945907D7
:102E20009093F1028093F0028091DD039091DE0394
:102E3000892BC9F489E090E00E9452178C018DE340
:102E400092E0F8019183808388E090E09583848309
:102E5000178216820E945217F8019383828310937F
:102E6000DE030093DD038091DD039091DE039093F8
:102E7000EF028093EE020E94BB0E9093ED028093CE
:102E8000EC020E94110A6093E8027093E9028093B9
:102E9000EA029093EB020F90DF91CF911F910F9177
:102EA000FF900895CF93DF938230910510F482E074
:102EB00090E0E0916C04F0916D0420E030E0C0E01F
:102EC000D0E0309711F14081518148175907C0F087
:102ED0004817590761F482819381209719F09B83E9
:102EE0008A832BC090936D0480936C0426C02115B7
:102EF000310519F04217530718F49A01BE01DF019A
:102F0000EF010280F381E02DDCCF2115310509F1BD
:102F1000281B390B2430310590F412968D919C9129
:102F200013976115710521F0FB019383828304C01F
:102F300090936D0480936C04FD01329644C0FD01B2
:102F4000E20FF31F81939193225031092D933C930B
:102F50003AC020916A0430916B04232B41F42091F4
:102F600003013091040130936B0420936A04209193
:102F70000101309102012115310541F42DB73EB711
:102F80004091050150910601241B350BE0916A0424
:102F9000F0916B04E217F307A0F42E1B3F0B2817E8
:102FA000390778F0AC014E5F5F4F2417350748F0C2
:102FB0004E0F5F1F50936B0440936A04819391936B
:102FC00002C0E0E0F0E0CF01DF91CF9108950F93D0
:102FD0001F93CF93DF93009709F48CC0FC013297C5
:102FE0001382128200916C0410916D040115110579
:102FF00081F420813181820F931F20916A043091E6
:103000006B042817390779F5F0936B04E0936A0491
:1030100071C0D80140E050E0AE17BF0750F41296DF
:103020002D913C911397AD012115310509F1D9017D
:10303000F3CF9D01DA013383228360817181860F92
:10304000971F8217930769F4EC0128813981260FB5
:10305000371F2E5F3F4F318320838A819B8193836B
:103060008283452B29F4F0936D04E0936C0442C0F5
:103070001396FC93EE931297ED01499159919E019D
:10308000240F351FE217F30771F480819181840FBB
:10309000951F029611969C938E938281938113962D
:1030A0009C938E931297E0E0F0E0D80112968D91F8
:1030B0009C911397009719F0F8018C01F6CF8D9130
:1030C0009C9198012E5F3F4F820F931F20916A04BD
:1030D00030916B042817390769F4309729F410925E
:1030E0006D0410926C0402C01382128210936B0460
:1030F00000936A04DF91CF911F910F9108950F9370
:103100001F93CF93DF93009731F46115710519F484
:1031100080E090E03AC08B01EC016EE070E081E06D
:1031200090E00E94CA18FC01892B91F380E8838308
:103130000115110571F01387028781E8838380915F
:103140006E0490916F04892B21F4F0936F04E09347
:103150006E042097C9F0D187C08783818260838302
:103160008091700490917104892B71F4F093710433
:10317000E09370048091720490917304892B21F480
:10318000F0937304E0937204CF01DF91CF911F910C
:103190000F9108950F931F93CF93DF93869F800124
:1031A000879F100D969F100D1124C8010E94521781
:1031B000EC01009729F0A80160E070E00E94E61899
:1031C000CE01DF91CF911F910F910895DC0101C0D5
:1031D0006D9341505040E0F708955058BB27AA27FF
:1031E0000E9405190C94781A0E946A1A38F00E94FD
:1031F000711A20F039F49F3F19F426F40C94671AE1
:103200000EF4E095E7FB0C94611AE92F0E94891AED
:1032100058F3BA17620773078407950720F079F40B
:10322000A6F50C94AB1A0EF4E0950B2EBA2FA02D38
:103230000B01B90190010C01CA01A0011124FF2763
:10324000591B99F0593F50F4503E68F11A16F0405E
:10325000A22F232F342F4427585FF3CF469537955D
:103260002795A795F0405395C9F77EF41F16BA0B22
:10327000620B730B840BBAF09150A1F0FF0FBB1FD0
:10328000661F771F881FC2F70EC0BA0F621F731F19
:10329000841F48F4879577956795B795F7959E3F76
:1032A00008F0B0CF9395880F08F09927EE0F979507
:1032B000879508950E943D1A08F481E008950E94C0
:1032C00073190C94781A0E94711A58F00E946A1AA5
:1032D00040F029F45F3F29F00C94611A51110C94CD
:1032E000AC1A0C94671A0E94891A68F39923B1F3F7
:1032F000552391F3951B550BBB27AA27621773071C
:10330000840738F09F5F5F4F220F331F441FAA1FAF
:10331000A9F335D00E2E3AF0E0E832D0915050406B
:10332000E695001CCAF72BD0FE2F29D0660F771F19
:10333000881FBB1F261737074807AB07B0E809F0FF
:10334000BB0B802DBF01FF2793585F4F3AF09E3F84
:10335000510578F00C94611A0C94AC1A5F3FE4F3B9
:10336000983ED4F3869577956795B795F7959F5FC7
:10337000C9F7880F911D9695879597F90895E1E013
:10338000660F771F881FBB1F621773078407BA0772
:1033900020F0621B730B840BBA0BEE1F88F7E095CD
:1033A00008950E94911A88F09F5798F0B92F992795
:1033B000B751B0F0E1F0660F771F881F991F1AF020
:1033C000BA95C9F714C0B13091F00E94AB1AB1E0C0
:1033D00008950C94AB1A672F782F8827B85F39F0BF
:1033E000B93FCCF3869577956795B395D9F73EF4B9
:1033F00090958095709561957F4F8F4F9F4F089561
:10340000E89409C097FB3EF490958095709561957E
:103410007F4F8F4F9F4F9923A9F0F92F96E9BB2734
:103420009395F695879577956795B795F111F8CFB0
:10343000FAF4BB0F11F460FF1BC06F5F7F4F8F4F1B
:103440009F4F16C0882311F096E911C0772321F011
:103450009EE8872F762F05C0662371F096E8862FA9
:1034600070E060E02AF09A95660F771F881FDAF700
:10347000880F9695879597F90895990F0008550F2D
:10348000AA0BE0E8FEEF16161706E807F907C0F0EA
:1034900012161306E407F50798F0621B730B840BF2
:1034A000950B39F40A2661F0232B242B252B21F4CC
:1034B00008950A2609F4A140A6958FEF811D811D6C
:1034C000089597F99F6780E870E060E008959FEFA6
:1034D00080EC089500240A941616170618060906AB
:1034E000089500240A94121613061406050608957A
:1034F000092E0394000C11F4882352F0BB0F40F402
:10350000BF2B11F460FF04C06F5F7F4F8F4F9F4F41
:10351000089557FD9058440F551F59F05F3F71F0C3
:103520004795880F97FB991F61F09F3F79F087952A
:103530000895121613061406551FF2CF4695F1DFB3
:1035400008C0161617061806991FF1CF8695710543
:10355000610508940895E894BB2766277727CB0177
:1035600097F908950E943D1A08F48FEF08950E947C
:10357000CA1A0C94781A0E946A1A38F00E94711ABA
:1035800020F0952311F00C94611A0C94671A112401
:103590000C94AC1A0E94891A70F3959FC1F3950F91
:1035A00050E0551F629FF001729FBB27F00DB11DC7
:1035B000639FAA27F00DB11DAA1F649F6627B00D57
:1035C000A11D661F829F2227B00DA11D621F739F40
:1035D000B00DA11D621F839FA00D611D221F749F4E
:1035E0003327A00D611D231F849F600D211D822F95
:1035F000762F6A2F11249F5750409AF0F1F08823BC
:103600004AF0EE0FFF1FBB1F661F771F881F9150E8
:103610005040A9F79E3F510580F00C94611A0C941C
:10362000AC1A5F3FE4F3983ED4F38695779567959F
:10363000B795F795E7959F5FC1F7FE2B880F911D12
:103640009695879597F908950E943D1A880B990BD6
:10365000089597FB072E16F4009407D077FD09D044
:103660000E945F1B07FC05D03EF4909581959F4F0B
:103670000895709561957F4F0895A1E21A2EAA1BB7
:10368000BB1BFD010DC0AA1FBB1FEE1FFF1FA21712
:10369000B307E407F50720F0A21BB30BE40BF50B0F
:1036A000661F771F881F991F1A9469F76095709598
:1036B000809590959B01AC01BD01CF010895AA1B97
:1036C000BB1B51E107C0AA1FBB1FA617B70710F00D
:1036D000A61BB70B881F991F5A95A9F7809590953F
:1036E000BC01CD010895EE0FFF1F0590F491E02D70
:1036F000099481E090E0F8940C947E1B10E0C4EDF6
:10370000D0E004C0FE010E94731B2196C53DD10785
:06371000C9F7F894FFCF99
:10371600FF00007404800000000000000166020043
:10372600000000FF006402000000008E044F02004B
:1037360000000000000000750BEB0B440B2A0B2960
:103746000B320BC007E30E280B270B00000000A965
:103756000EB10E5F0BEB0B440B2A0B3F0F320B46E1
:103766000BE30E280B270B180000000000000000DA
:1037760000E8FFE8FF000000000000140000000061
:103786000000000000ECFFECFF000000000000005D
:10379600000000B40A1D0A4C0AFB0A7D0A5B0A6F88
:1037A6000A0600000000006A026C02FAFFFAFF0037
:1037B600006B026E021800000000008B02A202E8F5
:1037C600FFE8FF00009802AC02AB015D016701B59E
:1037D6000100000000BC07680211020E020B02087D
:1037E6000205027C01780175015F017F0103010179
:1037F60001020000000000B802BA02FEFFFEFF0050
:1038060000B902BC0200000000BE0704030000006D
:1038160000BD07B60211020E020B0208020502F9EC
:1038260001B3019A0181017F01B9039803140000D5
:10383600000000D902F002ECFFECFF0000E602FAFD
:1038460002230271017B012D02000000007106793E
:10385600060000000051025A0200000000000000AD
:1038660000C007C0070000000000000000C00700FD
:10387600000000BF07750F0C0432077A0FFEFF0029
:1038860000740F770F0210000000008B0BA50B25AC
:10389600006B560020736574426174746572794CCE
:1038A6006F77456E61626C656420000D0A004254B4
:1038B60000485600534554530053455400544C5346
:1038C6000054425A00415400535550003F006E6167
:0A38D6006E00696E66006F766600F2
:00000001FF
