:100000000C945E000C9486000C9486000C94860080
:100010000C9486000C9486000C9486000C94860048
:100020000C9486000C9486000C9486000C94860038
:100030000C9486000C9486000C9486000C94860028
:100040000C94980D0C9486000C94CA080C94A40887
:100050000C9486000C9486000C9486000C94860008
:100060000C9486000C948600000000080002010039
:100070000003040700000000000000000000000072
:10008000250028002B0000000000240027002A0083
:10009000040404040404040402020202020203032E
:1000A0000303030301020408102040800102040836
:1000B0001020010204081020960EA61811241FBE5D
:1000C000CFEFD8E0DEBFCDBF13E0A0E0B1E0EAEEB5
:1000D000F9E302C005900D92AA3BB107D9F725E0DC
:1000E000AAEBB3E001C01D92A53CB207E1F710E016
:1000F000CDE5D0E004C02197FE010E94CF1CCC3595
:10010000D107C9F70E94A4130C94E81C0C940000BA
:100110000895089508950F931F93CF93DF93EC01F3
:1001200008AD19AD2CAD3DAD220F331F88AD99AD93
:10013000280F391F0217130771F0D8018D919D9177
:100140008D01DC01ED91FC910680F781E02D4FA936
:10015000BE010995E7CFDF91CF911F910F910895CF
:10016000CB0108957F928F929F92AF92BF92CF92D0
:10017000DF92EF92FF920F931F93CF93DF93EC01E7
:1001800049015A018B01C12CD12C7601C814D90424
:10019000EA04FB0484F5F80171908F018F8580FFDC
:1001A0000BC0E881F9810084F185E02D20E144E075
:1001B00060E070E0CE010995EB85FC858D859E851C
:1001C000E817F90738F470828B859C8501969C8727
:1001D0008B870BC0E881F981672D70E0028CF38D6D
:1001E000E02DCE010995019649F02FEFC21AD20AEF
:1001F000E20AF20ACBCFB401C50102C0B601C701C1
:10020000DF91CF911F910F91FF90EF90DF90CF90F2
:10021000BF90AF909F908F907F900895CF93DF9382
:10022000EC01E881F9810288F389E02D09958F3F7F
:100230002FEF920731F02D813E812F5F3F4F3E839C
:100240002D83DF91CF9108958FEF9FEF089560E0A8
:1002500070E0CB01089580E090E00895CB0108950F
:10026000CF93DF93EC0188899989DC01ED91FC91B2
:100270000084F185E02D0995892BA9F38889998956
:10028000DC01ED91FC910284F385E02DDF91CF91AB
:100290000994CF93DF93EC0188899989DC01ED9172
:1002A000FC910084F185E02D0995892BA9F38889BB
:1002B0009989DC01ED91FC910484F585E02DDF91B5
:1002C000CF910994AF92BF92CF92DF92EF92FF92BB
:1002D0000F931F93CF93DF9300D000D0CDB7DEB73D
:1002E0008C015B01C12CD12C7601F80180899189A8
:1002F000DC01ED91FC910284F385E02D29833A83A2
:100300004B835C83099529813A814B815C818F3FC6
:1003100071F0C216D306E406F5064CF4D5018D93B0
:100320005D01BFEFCB1ADB0AEB0AFB0ADECFC70188
:10033000B6010F900F900F900F90DF91CF911F910A
:100340000F91FF90EF90DF90CF90BF90AF90089506
:10035000DC0150968D919C915197DC01ED91FC91BF
:100360000084F185E02D099480E090E0089580E01C
:1003700090E0089580E090E0089580E090E0089596
:100380000895CF93DF93C0919104D0919204E881B6
:10039000F9810084F185E02DCE010995892BB9F30F
:1003A000E881F9810284F385E02DCE01DF91CF91C0
:1003B00009941F93CF93DF93182FC0919104D0918C
:1003C00092048A3041F4E881F9810190F081E02DB6
:1003D0006DE0CE010995E881F9810190F081E02D71
:1003E000612FCE01099521E030E0019711F420E062
:1003F00030E0C901DF91CF911F9108950C94D2197B
:100400000C94D2190C94D2190C94D2192AE032E02F
:10041000FC013183208380AD91AD0C94D219CF9330
:10042000DF93EC010E940602CE01DF91CF910C9484
:10043000D2190C94D2190C94D2190C94D219089593
:1004400008950C94D219DC01ED91FC91369720812E
:100450003181820F931F0C942102FB012081318195
:10046000FC0131832083FB0142815381F9013697DE
:1004700020813181FC01E20FF31F518340830895F5
:1004800022E631E0FC01318320832CE631E0318F1C
:10049000208F62E771E00C942D02DC01ED91FC915C
:1004A000369720813181820F931F0C944002CF93A5
:1004B000DF93EC010E944002CE01DF91CF910C94BA
:1004C000D219DC01ED91FC91369720813181820FA8
:1004D000931F0C9457020C94D219089508950C940C
:1004E000D219DC01ED91FC91369720813181820F88
:1004F000931F0C946F02FB0120813181FC01318339
:100500002083FB0142815381F9013697208131819B
:10051000FC01E20FF31F5183408308952AED31E07F
:10052000FC013183208324EE31E0358B248B6AEE8D
:1005300071E00C947B02DC01ED91FC9136972081F7
:100540003181820F931F0C948E02CF93DF93EC01C5
:100550000E948E02CE01DF91CF910C94D219DC0162
:10056000ED91FC91369720813181820F931F0C947D
:10057000A5020C94D2190F931F93CF93DF938C0194
:10058000EB016F3F8FEF780719F480E090E00FC028
:100590006A3031F46DE0F801808991890E94720817
:1005A0006C2FF801808991890E947208CE01DF9139
:1005B000CF911F910F9108958F929F92BF92CF92EA
:1005C000DF92EF92FF920F931F93CF93DF9300D0B0
:1005D00000D0CDB7DEB78C014B01C12CD12C7601F8
:1005E000C216D306E406F50644F5F401B1904F01B6
:1005F000FAE0BF120EC06DE0F8018089918929836D
:100600003A834B835C830E9472085C814B813A8100
:1006100029816B2DF8018089918929833A834B8345
:100620005C830E947208FFEFCF1ADF0AEF0AFF0A0D
:100630005C814B813A812981D3CFCA01B9010F90E6
:100640000F900F900F90DF91CF911F910F91FF901E
:10065000EF90DF90CF90BF909F908F9008950F9371
:100660001F93CF93DF93EC01CB01088119817B832A
:100670006A830E943D199983888320E030E08C8151
:100680009D812817390770F4E881F981E20FF31F83
:10069000309729F0D801A20FB31F8C9180832F5F70
:1006A0003F4FEDCFC801DF91CF911F910F910C9477
:1006B000D219CF93DF931F92CDB7DEB769ED72E009
:1006C00083EC94E049830E94A2084981642F70E082
:1006D00080E090E04AE00E94AF0B6FEE72E083ECA6
:1006E00094E00F90DF91CF910C947908CF92DF9234
:1006F000EF92FF920F931F93CF93DF93FB01E5A03F
:10070000F6A0C58DD68D038D148D68010E151F05BD
:100710000CF4670162EF72E083EC94E00E94A2089F
:10072000C7010E94F20B62E073E083EC94E00E9448
:10073000A208B70180E090E00E94861B25EE30ED14
:1007400042E750E40E943B1C20E030EC4FE754E4C9
:100750000E94E31A20E030E0A9010E94721A42E0F0
:100760000E94220C6DE073E083EC94E00E94A208EA
:10077000B601CC15DD050CF4BE01601B710B072E14
:10078000000C880B990B0E94861B20E030E048EC9F
:1007900052E40E943B1C6B017C01C01BD10BBE01CB
:1007A000DD0F880B990B0E94861B9B01AC01C701D2
:1007B000B6010E94E31A20E030E0A9010E94721AFB
:1007C0000E94551B862F90E00E94F20B6CE173E0B3
:1007D00083EC94E0DF91CF911F910F91FF90EF9008
:1007E000DF90CF900C948E08089508950895089591
:1007F000FC01808191810C94D21924EF31E0FC013D
:1008000021933193CF010C94F803CF93DF93EC0144
:100810000E94FD03CE01DF91CF910C94D219CF93AA
:10082000DF93EC016C817D816F5F7F4F8A819B81BB
:100830008617970718F4CE010E942F03E881F981EB
:100840008C819D81E80FF91F108288819981DF9149
:10085000CF91089508950F931F93CF93DF93CDB752
:10086000DEB72C970FB6F894DEBF0FBECDBFDC010C
:1008700014962C911497223099F1211104C05696A8
:100880001C921E9255978C010E948C0DF801638773
:1008900074878587968782E0848381E090E09C87D7
:1008A0008B87828193810097D9F025813681DC0185
:1008B000ED91FC910480F581E02D4AE051E05A83EE
:1008C00049831C830B83AE01455F5F4F5E834D837D
:1008D00038872F831A861986BE016F5F7F4F09956F
:1008E0002C960FB6F894DEBF0FBECDBFDF91CF912F
:1008F0001F910F910895CF92DF92EF92FF920F9385
:100900001F93CF93DF93EC01DB011496ED91FC91E3
:100910001597808191818430910509F078C0E8A90C
:10092000F9A9EE0FFF1F8EA59FA5E80FF91F2081E3
:1009300031818AA59BA5ACA5BDA5821B930BA109FE
:10094000B1098AA79BA7ACA7BDA789A58E3008F0DF
:100950008E508770806480937C0080917A008064E0
:1009600080937A0080917A0086FDFCCF8091780098
:100970002091790090E0922B9183808348A959A916
:100980009A01220F331FEEA5FFA5E20FF31F20816E
:100990003181CAA4DBA4ECA4FDA4C701B601620F97
:1009A000731F811D911D6AA77BA78CA79DA7FA01C4
:1009B0003196F9ABE8AB2AA94FA158A5213011F027
:1009C0009F0101C09A01E417F50720F019AA18AA9F
:1009D00041E04AAB032E000C440B550B0E94AD1CAA
:1009E0008DA19EA18217930709F45CC03EA32DA39D
:1009F000AC0160E070E0CE018396DF91CF911F9152
:100A00000F91FF90EF90DF90CF900C942207029708
:100A100009F048C00DA11EA18DA99EA908171907AC
:100A2000A9F12FA98F8D98A121110AC029A13AA15E
:100A3000820F931F8017910750F481E08FAB04C0A1
:100A40008017910720F01FAACE010E948B00EDA80D
:100A5000FEA8C8ACD9AC8CAD9DAD880F991F28AD50
:100A600039AD820F931FC816D90671F0F601819136
:100A700091916F01DC01ED91FC910480F581E02DF5
:100A8000A701BE010995E7CF1EAB0DABCE010296C3
:100A9000DF91CF911F910F91FF90EF90DF90CF905A
:100AA0000C942B04DF91CF911F910F91FF90EF9049
:100AB000DF90CF900895089508950895EF92FF92E2
:100AC0000F931F93CF93DF93EC018C819D81861749
:100AD000970710F57A018B018A819B81861797070A
:100AE00040F4685F7F4F8617970718F4CE010E9485
:100AF0002F038C819D818017910758F4E881F9813B
:100B0000E80FF91F309719F0D7012C912083019637
:100B1000F2CF1D830C8305C06817790710F47D831D
:100B20006C83DF91CF911F910F91FF90EF9008950B
:100B3000CF93DF93EC0188E090E09B838A831D8252
:100B40001C820E943D1999838883DF91CF9108957B
:100B5000CF92DF92EF92FF920F931F93FB01DC0184
:100B600000E010E098016A01E12CF12C0C151D0544
:100B70002E053F0538F461916D930F5F1F4F2F4F86
:100B80003F4FF4CF840F951F1F910F91FF90EF906F
:100B9000DF90CF9008958F929F92AF92BF92CF92A5
:100BA000DF92EF92FF920F931F93CF93DF931F92E9
:100BB000CDB7DEB76C015B017A014901B8010E9433
:100BC0009805D5011496ED91FC911597EE15FF054A
:100BD00010F40E94D51C1982BF016E197F09861678
:100BE000970608F4B401AE014F5F5F4FC6010E9443
:100BF0005E05F60144815581D5016D917C916E0DA4
:100C00007F1D808191810E94A8050F90DF91CF9177
:100C10001F910F91FF90EF90DF90CF90BF90AF901A
:100C20009F908F90089508950E94D51CCF92DF92D7
:100C3000EF92FF920F931F93CF93DF936C017A0192
:100C40008B01C0E0D0E0CE15DF0589F0D8016D91B1
:100C50008D01D601ED91FC910190F081E02DC6014E
:100C60000995892B11F47E0102C02196ECCFC701B2
:100C7000DF91CF911F910F91FF90EF90DF90CF9078
:100C80000895089580E090E00895FC01538D448D0F
:100C9000252F30E0842F90E0821B930B541710F027
:100CA000CF96089501970895FC01918D828D981734
:100CB00061F0828DDF01A80FB11D5D968C91928D40
:100CC0009F5F9F73928F90E008958FEF9FEF08953D
:100CD000FC01918D828D981731F0828DE80FF11D06
:100CE000858D90E008958FEF9FEF0895FC01918D21
:100CF000228D892F90E0805C9F4F821B91098F731A
:100D00009927089583EC94E00E94760621E0892BD0
:100D100009F420E0822F0895FC01848DDF01A80FE3
:100D2000B11DA35ABF4F2C91848D90E001968F7313
:100D30009927848FA689B7892C93A089B1898C9132
:100D400080648C93938D848D981306C00288F389F8
:100D5000E02D80818F7D80830895EF92FF920F9325
:100D60001F93CF93DF93EC0181E0888F9B8D8C8D57
:100D7000981305C0E889F989808185FD24C0F62E85
:100D80000B8D10E00F5F1F4F0F731127E02E8C8D1E
:100D9000E8120CC00FB607FCFACFE889F989808108
:100DA00085FFF5CFCE010E948C06F1CF8B8DFE0121
:100DB000E80FF11DE35AFF4FF0820B8FEA89FB89A0
:100DC0008081806207C0EE89FF896083E889F989A4
:100DD00080818064808381E090E0DF91CF911F91DA
:100DE0000F91FF90EF900895CF93DF93EC01888DE2
:100DF0008823C9F0EA89FB89808185FD05C0A8891F
:100E0000B9898C9186FD0FC00FB607FCF5CF8081A4
:100E100085FFF2CFA889B9898C9185FFEDCFCE01EE
:100E20000E948C06E7CFDF91CF91089580E090E09B
:100E3000892B29F00E94820681110C9400000895EC
:100E400008950895CF93DF9300D000D0CDB7DEB7DB
:100E5000FC0149835A836B837C8380899189009745
:100E600069F0BF01DC01ED91FC910480F581E02D7A
:100E70009E012F5F3F4F44E150E009950F900F9086
:100E80000F900F90DF91CF91089581E090E0089549
:100E900081E090E00895FC0180890895FC01608B59
:100EA000089509960895FF920F931F93CF93DF93B0
:100EB000EC010F89188D0115110521F1FE8087E0E5
:100EC00090E00E943D19DC0187E992E011969C9325
:100ED0008E9316961C921E9215971396DC93CE93C2
:100EE00012971496FC921497E801E881F981048026
:100EF000F581E02DBD01C801DF91CF911F910F91C8
:100F0000FF900994DF91CF911F910F91FF90089569
:100F1000CF93DF93EC014A898B899C892A813B819D
:100F2000411110C04D895E89840F951F281739071C
:100F3000D0F081E08A8BE881F9810084F185E02D91
:100F400061E00AC08217930770F01A8AE881F9817C
:100F50000084F185E02D60E0CE010995CE01DF919E
:100F6000CF910C945307DF91CF9108950C94D2192F
:100F70000C94D219AF92BF92CF92DF92EF92FF9270
:100F80000F931F93CF93DF93FC0124813581621768
:100F9000730708F56B01EC0187E0869F5001879F7E
:100FA000B00C11248B01E12CF12C8C819D81081750
:100FB000190778F4C7018A0D9B1D28813981820F9A
:100FC000931F0E94F8030F5F1F4FF7E0EF0EF11C15
:100FD000ECCFDD82CC82DF91CF911F910F91FF90FA
:100FE000EF90DF90CF90BF90AF900895EF92FF9277
:100FF0000F931F93CF93DF931F92CDB7DEB77C0182
:101000006E5F7F4F8E010F5F1F4F2FEF3FEF40E06E
:1010100050E00E94CB05C7010F90DF91CF911F9147
:101020000F91FF90EF9008958F929F92AF92BF9291
:10103000CF92DF92EF92FF920F931F93CF93DF93A4
:101040001F92CDB7DEB77C01DC01AD90BC9011974B
:1010500013967C936E93129787E0B82FB69FC001CA
:10106000B79F900D11240E943D19F7019183808351
:101070006501812C912CD70114968D919C91159727
:1010800088169906F0F4D701ED91FC91C6018A19F2
:101090009B098E0F9F1F009751F08E010F5F1F4F0E
:1010A0002FEF3FEF40E050E0B6010E94CB05C601B4
:1010B0000E94F803BFEF8B1A9B0AE7E0CE0ED11C0B
:1010C000DACFC5010E94D2190F90DF91CF911F9105
:1010D0000F91FF90EF90DF90CF90BF90AF909F90D7
:1010E0008F900895DC01ED91FC910190F081E02D4D
:1010F00009946115710579F0FB0101900020E9F771
:101100003197AF01461B570BDC01ED91FC9102803A
:10111000F381E02D099480E090E008950F931F93F0
:10112000CF93DF93EC010E9479088C016FEE72E09F
:10113000CE010E947908800F911FDF91CF911F91FE
:101140000F9108950C9479081F920F920FB60F9289
:1011500011242F933F934F935F936F937F938F93BC
:101160009F93AF93BF93EF93FF9383EC94E00E9420
:101170008C06FF91EF91BF91AF919F918F917F91DD
:101180006F915F914F913F912F910F900FBE0F90F4
:101190001F9018951F920F920FB60F9211242F9344
:1011A0008F939F93EF93FF93E091D304F091D40436
:1011B0008081E091D904F091DA0482FD12C090811F
:1011C0008091DC048F5F8F732091DD04821751F0D2
:1011D000E091DC04F0E0ED53FB4F958F8093DC044D
:1011E00001C08081FF91EF919F918F912F910F907E
:1011F0000FBE0F901F901895089508958F929F929B
:10120000AF92BF92CF92DF92EF92FF920F931F9314
:10121000CF93DF931F92CDB7DEB77C015B01FB015B
:1012200084819581F70195838483089693838283D3
:1012300027E0AC01249FC001259F900D11240E943E
:101240003D19F70191838083C12CD12C812C912CE5
:10125000F7018481958188169906E0F4F501608193
:1012600071816C0D7D1DF701808191818C0D9D1D1B
:10127000009749F08E010F5F1F4F2FEF3FEF40E0C7
:1012800050E00E94CB05FFEF8F1A9F0A47E0C40E83
:10129000D11CDECF0F90DF91CF911F910F91FF9066
:1012A000EF90DF90CF90BF90AF909F908F90089578
:1012B0000F931F93CF93DF93FC0104811581FB01F2
:1012C000C481D581AE010C171D0708F4A801FB01EC
:1012D00060817181FC01808191810E94DA1C0097FC
:1012E00069F481E090E0C017D10740F00C171D07AA
:1012F00010F080E090E0919581959109DF91CF9178
:101300001F910F910895EF92FF920F931F93CF9328
:10131000DF937C0100E010E0C0E0D0E0F701248121
:10132000358180819181C217D30740F4800F911FCE
:101330000E94F8032196095F1F4FF0CFDF91CF91F4
:101340001F910F91FF90EF900C94D219CF93DF93E0
:10135000EC018BE692E099838883CE0109960E9486
:101360008309CE010296DF91CF910C94F803CF93BD
:10137000DF93EC010E94A609CE01DF91CF910C947E
:10138000D219CF93DF93EC018BE692E099838883A7
:10139000CE0109960E948309CE010296DF91CF917A
:1013A0000C94F803CF93DF93EC010E94C109CE01A6
:1013B000DF91CF910C94D219EF92FF920F931F936C
:1013C000CF93DF931F92CDB7DEB78C017B016817F7
:1013D0007907D9F0FC0184819581892B11F0158260
:1013E0001482F701648175811982AE014F5F5F4FEE
:1013F000C8010E945E05F7014481558160817181B9
:10140000F801808191810E94A805C8010F90DF91A9
:10141000CF911F910F91FF90EF9008954F925F929F
:101420006F927F928F929F92AF92BF92CF92DF92F4
:10143000EF92FF920F931F93CF93DF931F92CDB73D
:10144000DEB74C0129E0820E911C6815790509F47C
:101450007BC06B017C01FB0164817581FC0183858C
:1014600094858617970718F4C4010E941408F701A1
:1014700085859685F601648075808615970508F444
:101480003C01A12CB12C412C512C4614570499F04D
:10149000F601608171816A0D7B1DF701818592855E
:1014A0008A0D9B1D0E94DC09FFEF4F1A5F0A27E09F
:1014B000A20EB11CEACFF701A584B684F60184819F
:1014C0009581A816B90668F0F60164817581F70167
:1014D0008585968568177907B8F5C4010E94BA0713
:1014E00033C087E08A9D20018B9D500C1124612C14
:1014F000712CF60184819581A816B90628F7F601AA
:1015000060817181C301840D951D680F791FF701FA
:1015100021853285820F931F009749F08E010F5F5E
:101520001F4F2FEF3FEF40E050E00E94CB05F70147
:1015300085859685019696878587FFEFAF1ABF0A46
:1015400027E0620E711CD5CF0F90DF91CF911F91D4
:101550000F91FF90EF90DF90CF90BF90AF909F9052
:101560008F907F906F905F904F90089502960C94AB
:10157000DC094F925F926F927F928F929F92AF920F
:10158000BF92CF92DF92EF92FF920F931F93CF9370
:10159000DF931F92CDB7DEB77C013B01FC01648174
:1015A00075816B01FFEFCF1ADF0A6C157D05D0F551
:1015B000FC01828193818C159D0540F4675F7F4F0C
:1015C0008617970718F4C7010E941408F701A48032
:1015D000B58087E08A9D20018B9D500C1124812CC1
:1015E000912CF701AC14BD04D0F420813181C401E9
:1015F000840D951D820F931F009751F08E010F5F90
:101600001F4F2FEF3FEF40E050E0B3010E94CB05AA
:10161000FFEFAF1ABF0A87E0880E911CE2CFD58298
:10162000C48203C0B6010E94BA070F90DF91CF9128
:101630001F910F91FF90EF90DF90CF90BF90AF90F0
:101640009F908F907F906F905F904F900895CF9272
:10165000DF92EF92FF920F931F93CF93DF9300D00F
:10166000CDB7DEB76C01FB010481158104171507A6
:1016700010F40E94D51C041B150B2017310708F429
:101680008901FB01E080F180E40EF51EBE016E5F72
:101690007F4FC6010E9498050F3FFFEF1F0749F3D8
:1016A000F7018081181684F41982AE014F5F5F4FF5
:1016B000B801C6010E945E05F60144815581B7015B
:1016C000808191810E94A805C6010F900F90DF9143
:1016D000CF911F910F91FF90EF90DF90CF900895E1
:1016E000AF92BF92CF92DF92EF92FF920F931F9330
:1016F000CF93DF931F92CDB7DEB76C017B01BA01A8
:101700000E949805E114F104F1F0F7010190002026
:10171000E9F731978F010E191F09F601A480B580F2
:101720001982B8016A0D7B1DAE014F5F5F4FC60184
:101730000E945E05F60180819181A801B7018A0DA2
:101740009B1D0E94A8050F90DF91CF911F910F91D3
:10175000FF90EF90DF90CF90BF90AF9008958F9261
:101760009F92AF92BF920F931F93CF93DF93CDB70A
:10177000DEB7A1970FB6F894DEBF0FBECDBF19A29A
:10178000423008F44AE08E010F5D1F4F842E912CE9
:10179000A12CB12CA50194010E94AD1CE62FB9012A
:1017A000CA0101501109EA3014F4E05D01C0E95C9E
:1017B000D801EC93232B242B252B61F7B80183EC64
:1017C00094E00E947908A1960FB6F894DEBF0FBE90
:1017D000CDBFDF91CF911F910F91BF90AF909F90A0
:1017E0008F900895CF92DF92EF92FF92CF93DF9385
:1017F0006C01990FEE08FF08F7FE19C06DE283EC4B
:1018000094E00E947208EC0166277727CB016C19DF
:101810007D098E099F094AE00E94AF0B8C0F9D1F26
:10182000DF91CF91FF90EF90DF90CF9008954AE045
:10183000C701B601DF91CF91FF90EF90DF90CF907D
:101840000C94AF0B4F925F926F927F928F929F9208
:10185000AF92BF92CF92DF92EF92FF926B017C0129
:10186000B42E9B01AC010E94A81C882319F06DEADC
:1018700073E027C026013701E89477F82FEF3FEF98
:101880004FE75FE7C301B2010E94A81C81110DC0A0
:101890002FEF3FEF4FE75FE7C301B2010E94DE1A6F
:1018A00018161CF461EB73E00CC02FEF3FEF4FE70D
:1018B0005FE4C701B6010E94361C181694F465EB6C
:1018C00073E083EC94E0FF90EF90DF90CF90BF90B7
:1018D000AF909F908F907F906F905F904F900C94FF
:1018E00079082FEF3FEF4FE75FECC701B6010E9489
:1018F000DE1A87FDE4CF20E030E0A901C701B60180
:101900000E94DE1A87FF0BC06DE283EC94E00E9418
:1019100072084C01F7FAF094F7F8F09402C0812CA9
:10192000912CA12C60E070E080E09FE3AB1441F0CB
:1019300020E030E040E251E40E94E31AA394F6CFA5
:101940009B01AC01C701B6010E94721A2B013C0138
:101950000E94551B6B017C010E94841B9B01AC0102
:10196000C301B2010E94711A2B013C014AE0C70178
:10197000B6010E94AF0B7C01E80CF91CBB2039F0CA
:101980006EE283EC94E00E947208E80EF91EDB2CF4
:10199000DD2021F120E030E040E251E4C301B2015A
:1019A0000E943B1C2B013C010E94551B4B01A12CAA
:1019B000B12C4AE0C501B4010E94AF0BE80EF91E3C
:1019C000C501B4010E94841B9B01AC01C301B2019B
:1019D0000E94711A2B013C01DA94DACFC701FF9003
:1019E000EF90DF90CF90BF90AF909F908F907F90BF
:1019F0006F905F904F90089590E0FC01EC55FF4F81
:101A00002491FC01E057FF4F8491882399F090E0E6
:101A1000880F991FFC01EA57FF4FA591B491FC0173
:101A2000E458FF4F859194918FB7F894EC91E22B95
:101A3000EC938FBF089590E0FC01E859FF4F34917B
:101A4000FC01EC55FF4F2491FC01E057FF4FE4915E
:101A5000EE2309F43BC0332339F1333091F038F4ED
:101A60003130A9F0323001F584B58F7D12C03730A6
:101A700091F03830A1F03430B9F4809180008F7D3E
:101A800003C0809180008F77809380000DC084B563
:101A90008F7784BD09C08091B0008F7703C080919B
:101AA000B0008F7D8093B000F0E0EE0FFF1FE45890
:101AB000FF4FA591B4918FB7F894EC91611103C0D9
:101AC00020952E2301C02E2B2C938FBF08953FB756
:101AD000F8948091C1039091C203A091C303B09187
:101AE000C40326B5A89B05C02F3F19F00196A11D80
:101AF000B11D3FBFBA2FA92F982F8827820F911DA4
:101B0000A11DB11DBC01CD0142E0660F771F881FEA
:101B1000991F4A95D1F708952FB7F8946091BD03A6
:101B20007091BE038091BF039091C0032FBF0895B1
:101B30001F920F920FB60F9211242F933F938F9302
:101B40009F93AF93BF938091BD039091BE03A091EB
:101B5000BF03B091C0033091BC0323E0230F2D37A6
:101B600020F40196A11DB11D05C026E8230F0296A1
:101B7000A11DB11D2093BC038093BD039093BE03B0
:101B8000A093BF03B093C0038091C1039091C2039F
:101B9000A091C303B091C4030196A11DB11D809310
:101BA000C1039093C203A093C303B093C403BF9136
:101BB000AF919F918F913F912F910F900FBE0F90FA
:101BC0001F9018950F931F93CF93DF93EC010A8119
:101BD0001B818BA59CA50817190799F08DA59EA5BB
:101BE000009769F0DC01ED91FC910480F581E02D16
:101BF0009E01255D3F4F4AE050E0BE0109951CA7BC
:101C00000BA7DF91CF911F910F91089542970C94EC
:101C1000E20D089508950C94D21942970C940B0E7E
:101C20000C94D21902970C94100ECF92DF92EF927F
:101C3000FF92CF93DF93FC01868197816817790724
:101C400009F06AC04A30510509F066C0FB01C28044
:101C5000D380E601D7FC07C0C114F4E0DF062CF006
:101C6000CFEFD3E002C0C0E0D0E06EE173E083ECE0
:101C700094E00E94A208E12CF12C4AE0C701B601D1
:101C80000E94AF0B62E073E083EC94E00E94A20834
:101C9000C701B6010E94861B25EE30ED42E750E4F5
:101CA0000E943B1C20E030EC4FE754E40E94E31A12
:101CB00020E030E0A9010E94721A42E00E94220C4A
:101CC0006EE273E083EC94E00E94A208BE01DD0F97
:101CD000880B990B0E94861B20E030E044E352E41D
:101CE0000E943B1C20E030EC4FE754E40E94E31AD2
:101CF00020E030E0A9010E94721A42E00E94220C0A
:101D00006DE373E083EC94E0DF91CF91FF90EF906F
:101D1000DF90CF900C948E08DF91CF91FF90EF90E1
:101D2000DF90CF90089502970C94150E4F925F921A
:101D30006F927F928F929F92AF92BF92CF92DF92DB
:101D4000EF92FF920F931F93CF93DF931F92CDB724
:101D5000DEB703EC14E01092C6041092C50488EEBE
:101D600093E0A0E0B0E08093C7049093C804A093F0
:101D7000C904B093CA048AE391E09093C4048093A9
:101D8000C30485EC90E09093D0048093CF0484EC5E
:101D900090E09093D2048093D10480EC90E09093F3
:101DA000D4048093D30481EC90E09093D604809384
:101DB000D50482EC90E09093D8048093D70486EC0D
:101DC00090E09093DA048093D9041092DC0410928E
:101DD000DD041092DE041092DF04AE014F5F5F4F0E
:101DE00060E473E084EB95E00E94700BAE014F5FFE
:101DF0005F4F63E473E08DEA95E00E94700BAE01E3
:101E00004F5F5F4F66E473E086EA95E00E94700BD7
:101E1000AE014F5F5F4F6BE473E08FE995E00E9486
:101E2000700BAE014F5F5F4F6FE473E088E995E0A0
:101E30000E94700BAE014F5F5F4F63E573E081E975
:101E400095E00E94700BAE014F5F5F4F67E573E056
:101E50008AE895E00E94700BE1E2F0E0F0937805EB
:101E6000E09377051092790510927A0510927B0520
:101E700046E050E060E070E040937C0550937D05C3
:101E800060937E0570937F05109280051092810506
:101E9000109282051092830520E22093840510920F
:101EA0008605109285051092890582E695E090934B
:101EB0008805809387058AED91E090936105809372
:101EC000600584EE91E090937505809374051092FF
:101ED00066051092650510926805109267051092CC
:101EE0006A051092690510926C0510926B051092AC
:101EF0006E0510926D051092700510926F0588EBBB
:101F000091E09093630580936205109373050093AD
:101F1000720530E130937105F093B104E093B004A1
:101F20001092B2041092B3041092B4044093B5041A
:101F30005093B6046093B7047093B8041092B90438
:101F40001092BA041092BB041092BC042093BD04FA
:101F50001092BF041092BE041092C2041092970413
:101F6000109298041092990410929A042BE934E08C
:101F70003093C1042093C00422E631E030939604EC
:101F8000209395042CE631E03093AE042093AD0409
:101F900010929F0410929E041092A1041092A0042B
:101FA0001092A3041092A2041092A5041092A4040B
:101FB0001092A7041092A6041092A9041092A804EB
:101FC00090939C0480939B041093AC040093AB0407
:101FD00088E08093AA0410929404109293041093C2
:101FE00092040093910461EC71E089ED91E00E940C
:101FF000D61890939404809393048CE192E090938C
:1020000063048093620410926504109264048FE06C
:10201000809368041092690410926A0410926B0411
:1020200010926C041092700410926F04109271045C
:10203000109273041092720480E490E00E943D19A3
:1020400080936D0490936E0420E230E03093670437
:1020500020936604FC01805C9F4FE817F90719F094
:1020600011921192FACF8AE392E0909363048093E5
:1020700062048AE492E0909375048093740482E38E
:1020800092E0909377048093760410927A041092F1
:102090007C0410927B0410928104109282041092AE
:1020A0008304109284041092850410928604109286
:1020B00087041092880410928C0410928B04109262
:1020C0008A041092890440E850E060E070E0409398
:1020D0007D0450937E0460937F047093800410927B
:1020E0008E0410928D041092900410928F0424E7B5
:1020F00034E030937904209378042AE032E030937E
:1021000024042093230490932604809325041092A2
:10211000290410922B0410922A0410923004109279
:10212000310410923204109233041092340410924D
:102130003504109236041092370410923B0410922A
:102140003A0480E094E090933D0480933C048EE256
:1021500093E090933F0480933E0481ED93E090934D
:1021600041048093400486E493E090934304809379
:10217000420483E090E0909345048093440480E21D
:1021800090E00E943D19FC019C01205E3F4F11929E
:102190001192E217F307D9F72CE132E030934704AC
:1021A00020934604109249041092480420E130E044
:1021B00030934B0420934A042EE020934C04109259
:1021C0004D0410924E0410924F04109250049093BC
:1021D00052048093510410925404109253041092AC
:1021E000550410925704109256048FEF9FEF90936E
:1021F00059048093580410925A0488E090E0909318
:102200005E0480935D041092600410925F0480E18C
:1022100090E00E943D1990935C0480935B048FE0F2
:1022200090E0A0E0B0E080932C0490932D04A09364
:102230002E04B0932F0480E490E0909339048093AF
:10224000380483E294E0909328048093270485EB7C
:1022500092E090931A048093190483EC92E0909397
:102260001C0480931B0410921E0410921D041092F3
:10227000200410921F04109222041092210485ED74
:1022800092E09093D3038093D2030DEC12E010936D
:10229000D5030093D4038AE08093D6031092D80329
:1022A0001092D7031092DA031092D9031092DC0334
:1022B0001092DB031092DD031092DE031092DF0315
:1022C0001092E0031092E2031092E1031092E403F3
:1022D0001092E3031092E5030E94FC0C1093E703B5
:1022E0000093E60389E08093E8031092EA031092DA
:1022F000E9031092EC031092EB031092EE0310929C
:10230000ED031092EF031092F0031092F10310927C
:10231000F2031092F4031092F3031092F60310925A
:10232000F5031092F7030E94FC0C1093F90300933D
:10233000F80386E08093FA031092FC031092FB03EB
:102340001092FE031092FD03109200041092FF03FE
:1023500010920104109202041092030410920404DB
:1023600010920604109205041092080410920704BB
:10237000109209040E94FC0C10920A0485E090E07F
:102380000E943D197C01FC011082148213828FE9A6
:102390009BE09283818385E090E00E943D19FC01DF
:1023A0001FEF108389E1C82ED12CD282C182F48222
:1023B000E382F0930C04E0930B0485E090E00E942C
:1023C0003D197C01FC011082148213828FEA90E097
:1023D0009283818385E090E00E943D195C01FC01BD
:1023E0001083D282C182F482E38285E090E00E9471
:1023F0003D197C01FC01108283EA92E09283818383
:10240000B482A38285E090E00E943D195C01FC014A
:102410001083D282C182F482E38285E090E00E9440
:102420003D197C01FC0110829BE4892E912C928243
:102430008182B482A38285E090E00E943D19FC0174
:102440001083D282C182F482E38290930E0480933F
:102450000D0485E090E00E943D195C01FC011082B2
:10246000148213828CEC91E09283818385E090E06A
:102470000E943D192C01FC01108328E2E22EF12C70
:10248000F282E182B482A38285E090E00E943D194D
:102490003C01FC0110823CE3A32EB12CB282A1824C
:1024A0005482438285E090E00E943D192C01FC019A
:1024B0001083F282E1827482638285E090E00E9460
:1024C0003D193C01FC011082B282A18254824382F8
:1024D00085E090E00E943D192C01FC011083F282FE
:1024E000E1827482638285E090E00E943D193C01A4
:1024F000FC011082B282A1825482438285E090E086
:102500000E943D192C01FC011083F282E182748249
:10251000638285E090E00E943D193C01FC0110823D
:10252000B282A1825482438285E090E00E943D19EC
:102530002C01FC011083F282E1827482638285E0C7
:1025400090E00E943D193C01FC011082B282A18200
:102550005482438285E090E00E943D19FC01108383
:10256000F282E182748263829093100480930F045C
:1025700085E090E00E943D193C01FC01108214822C
:10258000138288E097E09283818385E090E00E9447
:102590003D192C0180EAF201808384E690E0928369
:1025A00081837482638285E090E00E943D193C0142
:1025B000FC011082B282A1825482438285E090E0C5
:1025C0000E943D19FC011083F282E18274826382D1
:1025D000909312048093110485E090E00E943D19CD
:1025E0007C01FC011082148213824EEEA42E42E084
:1025F000B42EB282A18285E090E00E943D19FC01D8
:102600001083B282A182F482E382909314048093B7
:10261000130485E090E00E943D197C01FC011082CA
:102620001482138286EB93E09283818385E090E0AD
:102630000E943D19FC01108382E390E09283818324
:10264000F482E382F0931604E093150485E090E0B1
:102650000E943D197C01FC0110821482138287EDD7
:102660009AE09283818385E090E00E943D195C01AD
:10267000FC011083D282C182F482E38285E090E083
:102680000E943D197C01FC01108292828182B482F9
:10269000A38285E090E00E943D19FC011083D28264
:1026A000C182F482E382909318048093170480918E
:1026B000BA039091BB03892BA1F489E090E00E94BA
:1026C0003D198C01FC0184EF91E081939193BE014F
:1026D0006F5F7F4FCF010E9498050093BA0310935C
:1026E000BB036091BA037091BB0384EF91E09093B8
:1026F000CA038093C9036E5F7F4F8E010F5F1F4F28
:102700002FEF3FEF40E050E08BEC93E00E94CB05D1
:102710000E948C0D6093C5037093C6038093C7031A
:102720009093C8030F90DF91CF911F910F91FF906D
:10273000EF90DF90CF90BF90AF909F908F907F9061
:102740006F905F904F900895CF93DF93CDB7DEB732
:10275000E0970FB6F894DEBF0FBECDBF789484B576
:10276000826084BD84B5816084BD85B5826085BD8D
:1027700085B5816085BD80916E00816080936E001B
:10278000109281008091810082608093810080910D
:1027900081008160809381008091800081608093BE
:1027A00080008091B10084608093B1008091B0007E
:1027B00081608093B00080917A00846080937A0079
:1027C00080917A00826080937A0080917A008160A3
:1027D00080937A0080917A00806880937A001092CA
:1027E000C1008AE00E94FC0C89E00E94FC0C61E0C0
:1027F0008AE00E941B0D61E089E00E941B0DE091C0
:10280000D304F091D40482E08083E091CF04F0916E
:10281000D0041082E091D104F091D2048FEC808337
:102820001092DB04E091D704F091D80486E0808315
:10283000E091D504F091D604808180618083E0919D
:10284000D504F091D604808188608083E091D5041E
:10285000F091D604808180688083E091D504F09166
:10286000D60480818F7D80836AE573E083EC94E0F9
:102870000E948E08E0911F04F091200424E0E236CB
:10288000F20781F0309711F016A615A68BE194E0BF
:102890009093900480938F0482E694E090932004B8
:1028A00080931F04E0911D04F0911E0444E0E33284
:1028B000F40709F4ACC03097E9F1A0ACB1AC20AD9D
:1028C00031AD44AD55ADCA01880F991F820F931FDA
:1028D000A816B90679F1D5018D919C918951944042
:1028E00029F5C501821B930BBC01759567959A016B
:1028F000215031098C010E5F1F4F6217730788F456
:10290000C0ACD1AC6F5F7F4F7601E00EF11ED701F6
:10291000ED90FC908C0D9D1DDC01ED92FC92C801A8
:10292000E9CF2417350710F435AF24AFB2E0AB0E72
:10293000B11CC5CFE0905F04F090600487010F5F89
:102940001F4FE016F10608F055C080915D0490918C
:102950005E0480179107A0F59701275F3F4F82170C
:10296000930770F5C0905B04D0905C0430935E04D4
:1029700020935D04C901880F991F0E943D1990930F
:102980005C0480935B04D60140E050E04E155F0587
:10299000A1F0E0915B04F0915C049A01220F331FD7
:1029A000E20FF31F309729F08D919C91119791833D
:1029B00080834F5F5F4F1296E9CFC6010E94D21904
:1029C00080915F04909160049C01220F331F49E1C4
:1029D00054E08017910788F4E0915B04F0915C0467
:1029E000E20FF31F309711F05183408301962E5F61
:1029F0003F4FEFCF0E151F0520F410936004009396
:102A00005F0483E294E090931E0480931D0482EDA2
:102A100093E0909322048093210480911D0490916F
:102A20001E04009719F002960E942B0480911F0447
:102A300090912004009719F044960E942B04009175
:102A40002104109122040115110509F4AAC0F8010E
:102A500080AD82FDA6C0846080AF87FD9CC0138AD4
:102A600085819681928B818B108A178660E08481A4
:102A70000E941B0DD801D9968D919C91DA971696DC
:102A80009C938E93159752969C938E935197892B76
:102A900009F481C053968C915397823009F47BC01E
:102AA000811108C050961C921E921F971A961C9274
:102AB0001E9219970E948C0DF80163877487858791
:102AC000968782E0838B0188F289E02D309709F4A4
:102AD00062C090819F3F29F461E0D80114968C91E7
:102AE00058C0911104C060E0F801848152C0D8013F
:102AF00014961C91812F98AB0E94FC0CE12FF0E002
:102B0000E859FF4FE49198A9E33009F148F4E13026
:102B1000C9F0E230C1F584B5806284BD98BD3BC088
:102B2000E73009F1E83039F1E43069F5809180004F
:102B3000806280938000892F90E090938B00809337
:102B40008A0029C084B5806884BD97BD24C0809167
:102B50008000806880938000892F90E090938900A6
:102B60008093880018C08091B00080688093B00086
:102B70009093B30010C08091B00080628093B00049
:102B80009093B40008C0903810F460E001C061E098
:102B9000812F0E941B0D62E773E083EC94E00E949A
:102BA0008E080E94670D4B015C0154EFC52EDD2499
:102BB000D394E12CF12C0E94670DDC01CB01881924
:102BC0009909AA09BB09883E9340A105B10558F0AF
:102BD000B1E0CB1AD108E108F108E8EE8E0EE3E08F
:102BE0009E1EA11CB11CC114D104E104F10419F70B
:102BF0006FE773E083EC94E00E948E0860E08AE067
:102C00000E941B0D60E089E00E941B0D0E948C0D4C
:102C10006093C5037093C6038093C7039093C80362
:102C20000E948C0D83EC94E00E947606181619061B
:102C30000CF0B3C183EC94E00E945406182F8FA7C8
:102C40006091CF037091D0036F5F7F4FAE01415D04
:102C50005F4F8BEC93E00E945E051A3009F09DC136
:102C600064E973E083EC94E00E94A2088BEC93E0AB
:102C70000E940F04BC0183EC94E00E948E08009136
:102C8000CF031091D0031EA6B8016F5F7F4FAE0136
:102C9000425D5F4F8BEC93E00E945E058091CB0319
:102CA0009091CC0341E050E06FE973E0800F911FF9
:102CB0000E94A805AE014F5F5F4F61EF72E0CE0149
:102CC00084960E94700B48E0E42EF12CF8A2EF8E5F
:102CD0001AA219A288E390E00E943D199E8F8D8F61
:102CE00081E190E00E943D198C012BE632E0DC018D
:102CF0002D933D93CD01BE016F5F7F4F0E949805DC
:102D0000F801F486E3861686158688E390E00E9433
:102D10003D19D8011A969C938E93199750961C9240
:102D2000509781E892E08D939C93E0908E05F0900F
:102D30008F05E0918A05F0918B05A091CB03B091AE
:102D4000CC03CF018E0D9F1DE817F90709F428C1A8
:102D500031912D913217C1F37CC08DA76A8D7B8D87
:102D60006F5F7F4FAE01435D5F4FCE0146960E947D
:102D70005E05BFEFEB1AFB0ACE0146960E940F04D8
:102D8000BC0183EC94E00E94A208E091CB03F09197
:102D9000CC03EE0DFF1D80818D3089F0E4E1EE164D
:102DA000F10468F42091CF033091D003E216F306CA
:102DB00030F48D3391F6E114F10409F0FBC02A8D53
:102DC0003B8D2150310941E050E0BE016A5E7F4FEA
:102DD000CE0101960E94270BBE016F5F7F4FCE018F
:102DE00084960E94DC09CE0101960E94F803CE0170
:102DF00046960E94F80364EB75E0CE0184960E942B
:102E00005809892BE9F481E190E00E943D198C0179
:102E10002BE632E0DC012D933D93CD01BE016F5FC7
:102E20007F4F0E949805BE01635E7F4FC8010996DF
:102E30000E94FE08F801108A84E592E09183808365
:102E4000CE0184960E940F04BC0183EC94E00E94A2
:102E5000A208CE014D960E948309CE0184960E945D
:102E6000F80361EA73E083EC94E00E94A208D801C1
:102E7000ED91FC910680F781E02DB801CE0101961D
:102E80000995CE0101960E940F04BC0183EC94E0E9
:102E90000E94A208CE0101960E94F80366EA73E040
:102EA00083EC94E00E94A208D801ED91FC91028489
:102EB000F385E02DC8010995BC01CE0108960E945A
:102EC000FE08E884F98487E0D82E2C853D85D29EC3
:102ED000C001D39E900D112428853985820F931F40
:102EE000E816F90691F18E01015F1F4F2FEF3FEFBA
:102EF00040E050E0B701CE0101960E94CB05CE0123
:102F000001960E940F04BC0183EC94E00E94A20889
:102F1000CE0101960E94F8032C853D85D29EC0010A
:102F2000D39E900D1124079728853985820F931F12
:102F3000E816F90631F068EA73E083EC94E00E9449
:102F4000A208B7E0EB0EF11CC0CF6BEA73E083EC94
:102F500094E00E948E08CE0108960E948309809119
:102F6000CF039091D003892B21F01092D0031092BF
:102F7000CF031BA6AE01455D5F4F60E070E08BECB8
:102F800093E00E945E0540E050E061EF72E08091C6
:102F9000CB039091CC030E94A8050E94160740CE57
:102FA000AE014F5F5F4F61EF72E0CE0146960E9427
:102FB000700BEBCEFFEFEF1AFF0A21503109A7018A
:102FC0006BEC73E0CE010F960E94270BAE01445DBF
:102FD0005F4F66E672E0CE0108960E94700B2C856A
:102FE0003D858B899C898217930720F4CC24CA9451
:102FF000DC2C25C001965C01A21AB30AC12CD12C8D
:10300000CA14DB0499F32C853D85A601BE01615FDE
:103010007F4FCE0101960E94270BBE016F5F7F4F4D
:10302000CE0108960E9458094C01CE0101960E94DB
:10303000F803892821F02FEFC21AD20AE1CFCE017E
:1030400008960E94F803CD20C09409F462C08B89D1
:103050009C89EF85F889E12CF12CE816F90651F0EE
:1030600021912C3219F4C12CD12C18C06FEFE61A23
:10307000F60AF3CFEE24EA94FE2CF5CFBFEFEB1A5D
:10308000FB0AE216F30670F5FA01EE0DFF1D6081F2
:103090006C32A1F7AFEFEA16FA0621F1EFEFEE1668
:1030A000FE0609F44EC097012C193D09A601BE0188
:1030B000615F7F4FCE0101960E94270BBE016F5FBB
:1030C0007F4FCE014D960E94B90ACE0101960E9413
:1030D000F803C70101966C012B893C894F855889FB
:1030E0007C01CFCFAC01BE01615F7F4FCE01019665
:1030F0000E94270BBE016F5F7F4FCE014D960E944D
:10310000B90ACE0101960E94F803EE24EA94FE2C3F
:10311000C5CF2091CF033091D00321503109A701B1
:103120006BEC73E0CE0101960E94270BBE016F5F2E
:103130007F4FCE014D960E94B90ACE0101960E94A2
:10314000F803CE010F960E94F80339CE89EC93E084
:103150000E94FD0383E294E00E94060282E694E06E
:103160000E948A0085E994E00E94400280E695E092
:103170000E948E028AE895E00E94F80381E995E0BA
:103180000E94F80388E995E00E94F8038FE995E032
:103190000E94F80386EA95E00E94F8038DEA95E024
:1031A0000E94F80384EB95E00C94F8030F931F93AF
:1031B000CF93DF93009731F46115710519F480E026
:1031C00090E03AC08B01EC016EE070E081E090E0AD
:1031D0000E942119FC01892B91F380E8838301155A
:1031E000110571F01387028781E883838091BB0505
:1031F0009091BC05892B21F4F093BC05E093BB05AD
:103200002097C9F0D187C0878381826083838091B2
:10321000BD059091BE05892B71F4F093BE05E09336
:10322000BD058091BF059091C005892B21F4F093D5
:10323000C005E093BF05CF01DF91CF911F910F91A2
:1032400008950F931F93CF93DF93869F8001879FED
:10325000100D969F100D1124C8010E943D19EC011C
:10326000009729F0A80160E070E00E946A1ACE0180
:10327000DF91CF911F910F910895CF93DF9382300B
:10328000910510F482E090E0E091C305F091C4054F
:1032900020E030E0C0E0D0E0309711F14081518172
:1032A00048175907C0F04817590761F48281938184
:1032B000209719F09B838A832BC09093C405809339
:1032C000C30526C02115310519F04217530718F41C
:1032D0009A01BE01DF01EF010280F381E02DDCCF16
:1032E0002115310509F1281B390B2430310590F4E3
:1032F00012968D919C9113976115710521F0FB0138
:103300009383828304C09093C4058093C305FD0119
:10331000329644C0FD01E20FF31F81939193225036
:1033200031092D933C933AC02091C1053091C205DB
:10333000232B41F420910201309103013093C20507
:103340002093C10520910001309101012115310523
:1033500041F42DB73EB74091040150910501241B63
:10336000350BE091C105F091C205E217F307A0F417
:103370002E1B3F0B2817390778F0AC014E5F5F4FCB
:103380002417350748F04E0F5F1F5093C205409336
:10339000C1058193919302C0E0E0F0E0CF01DF919D
:1033A000CF9108950F931F93CF93DF93009709F464
:1033B0008CC0FC013297138212820091C3051091D8
:1033C000C4050115110581F420813181820F931FFD
:1033D0002091C1053091C2052817390779F5F0937E
:1033E000C205E093C10571C0D80140E050E0AE17BE
:1033F000BF0750F412962D913C911397AD01211502
:10340000310509F1D901F3CF9D01DA01338322831C
:1034100060817181860F971F8217930769F4EC0111
:1034200028813981260F371F2E5F3F4F318320833C
:103430008A819B8193838283452B29F4F093C40571
:10344000E093C30542C01396FC93EE931297ED01EF
:10345000499159919E01240F351FE217F30771F42A
:1034600080819181840F951F029611969C938E9373
:103470008281938113969C938E931297E0E0F0E003
:10348000D80112968D919C911397009719F0F8012D
:103490008C01F6CF8D919C9198012E5F3F4F820F4A
:1034A000931F2091C1053091C2052817390769F48F
:1034B000309729F41092C4051092C30502C01382FC
:1034C00012821093C2050093C105DF91CF911F9125
:1034D0000F910895DC0101C06D9341505040E0F719
:1034E00008955058BB27AA270E94891A0C94FC1BE8
:1034F0000E94EE1B38F00E94F51B20F039F49F3F2C
:1035000019F426F40C94EB1B0EF4E095E7FB0C94F5
:10351000E51BE92F0E940D1C58F3BA1762077307C9
:103520008407950720F079F4A6F50C942F1C0EF46F
:10353000E0950B2EBA2FA02D0B01B90190010C01C3
:10354000CA01A0011124FF27591B99F0593F50F4DB
:10355000503E68F11A16F040A22F232F342F442733
:10356000585FF3CF469537952795A795F04053952B
:10357000C9F77EF41F16BA0B620B730B840BBAF0FB
:103580009150A1F0FF0FBB1F661F771F881FC2F766
:103590000EC0BA0F621F731F841F48F4879577957A
:1035A0006795B795F7959E3F08F0B0CF9395880F34
:1035B00008F09927EE0F9795879508950E94C11BF3
:1035C00008F481E008950E94F71A0C94FC1B0E94F5
:1035D000F51B58F00E94EE1B40F029F45F3F29F0E4
:1035E0000C94E51B51110C94301C0C94EB1B0E94A5
:1035F0000D1C68F39923B1F3552391F3951B550BDB
:10360000BB27AA2762177307840738F09F5F5F4FB5
:10361000220F331F441FAA1FA9F335D00E2E3AF0F4
:10362000E0E832D091505040E695001CCAF72BD00C
:10363000FE2F29D0660F771F881FBB1F261737075D
:103640004807AB07B0E809F0BB0B802DBF01FF278F
:1036500093585F4F3AF09E3F510578F00C94E51B6C
:103660000C94301C5F3FE4F3983ED4F38695779535
:103670006795B795F7959F5FC9F7880F911D969548
:10368000879597F90895E1E0660F771F881FBB1FA4
:10369000621773078407BA0720F0621B730B840B51
:1036A000BA0BEE1F88F7E09508950E94151C88F06C
:1036B0009F5798F0B92F9927B751B0F0E1F0660FF6
:1036C000771F881F991F1AF0BA95C9F714C0B13037
:1036D00091F00E942F1CB1E008950C942F1C672FCD
:1036E000782F8827B85F39F0B93FCCF38695779566
:1036F0006795B395D9F73EF490958095709561954F
:103700007F4F8F4F9F4F0895E89409C097FB3EF479
:1037100090958095709561957F4F8F4F9F4F99231E
:10372000A9F0F92F96E9BB279395F695879577959C
:103730006795B795F111F8CFFAF4BB0F11F460FF5C
:103740001BC06F5F7F4F8F4F9F4F16C0882311F0B4
:1037500096E911C0772321F09EE8872F762F05C0C8
:10376000662371F096E8862F70E060E02AF09A9563
:10377000660F771F881FDAF7880F9695879597F958
:103780000895990F0008550FAA0BE0E8FEEF1616F2
:103790001706E807F907C0F012161306E407F50745
:1037A00098F0621B730B840B950B39F40A2661F0B9
:1037B000232B242B252B21F408950A2609F4A1405C
:1037C000A6958FEF811D811D089597F99F6780E869
:1037D00070E060E008959FEF80EC089500240A9463
:1037E0001616170618060906089500240A941216DC
:1037F0001306140605060895092E0394000C11F40F
:10380000882352F0BB0F40F4BF2B11F460FF04C0BB
:103810006F5F7F4F8F4F9F4F089557FD9058440F14
:10382000551F59F05F3F71F04795880F97FB991F1F
:1038300061F09F3F79F087950895121613061406DC
:10384000551FF2CF4695F1DF08C016161706180669
:10385000991FF1CF86957105610508940895E89444
:10386000BB2766277727CB0197F908950E94C11BD4
:1038700008F48FEF08950E944E1C0C94FC1B0E94CC
:10388000EE1B38F00E94F51B20F0952311F00C94EC
:10389000E51B0C94EB1B11240C94301C0E940D1C96
:1038A00070F3959FC1F3950F50E0551F629FF00193
:1038B000729FBB27F00DB11D639FAA27F00DB11DAC
:1038C000AA1F649F6627B00DA11D661F829F222735
:1038D000B00DA11D621F739FB00DA11D621F839FBC
:1038E000A00D611D221F749F3327A00D611D231F92
:1038F000849F600D211D822F762F6A2F11249F57E0
:1039000050409AF0F1F088234AF0EE0FFF1FBB1FE2
:10391000661F771F881F91505040A9F79E3F5105A1
:1039200080F00C94E51B0C94301C5F3FE4F3983E50
:10393000D4F3869577956795B795F795E7959F5F4B
:10394000C1F7FE2B880F911D9695879597F90895DD
:103950000E94C11B880B990B0895A1E21A2EAA1B85
:10396000BB1BFD010DC0AA1FBB1FEE1FFF1FA2172F
:10397000B307E407F50720F0A21BB30BE40BF50B2C
:10398000661F771F881F991F1A9469F760957095B5
:10399000809590959B01AC01BD01CF010895EE0F7C
:1039A000FF1F0590F491E02D099481E090E0F894D8
:1039B0000C94E81CFB01DC014150504030F08D912B
:1039C0000190801919F40020B9F7881B990B08950C
:1039D00010E0CDE5D0E004C0FE010E94CF1C21968E
:0A39E000CE35D107C9F7F894FFCFE8
:1039EA000000C505800000000000880004021800DD
:1039FA000000000000000000E8FFE8FF00000000EF
:103A0A00000014000000000000000000ECFFECFFC2
:103A1A0000000000000000000000AD061606450682
:103A2A00F4067606540668060600000000001F0227
:103A3A002102FAFFFAFF0000200223021800000008
:103A4A00000040025702E8FFE8FF00004D02610251
:103A5A00620114011E016C01000000005B051D02D9
:103A6A00C001BD01BA01B701B4012B01270124012C
:103A7A000E012E01B200B0000200000000006D022B
:103A8A006F02FEFFFEFF00006E02710200000000DE
:103A9A005D05B902000000005C056B02C001BD01B2
:103AAA00BA01B701B401A8016201490130012E012E
:103ABA00DC02BB021400000000008E02A502ECFF2B
:103ACA00ECFF00009B02AF02DA0128013201E40197
:103ADA0000000000FD03050400000000FC08B60712
:103AEA002207880720070000000006020F027B0455
:103AFA0000000000F503020200000000FD08B807FC
:103B0A002207210700000000000000001406000040
:103B1A000000F6031B02000000008A000B0E2207B9
:103B2A002107E20D8900EEFF0000090E0D0E060EB8
:103B3A0000000000A609B709B60AF6070E0A5107DF
:103B4A004E074B0748072C0000000000000000B693
:103B5A000AF6070E0A51074E074B07140600000023
:103B6A0000C109D209B60AF6070E0A51074E074BD9
:103B7A0007450700000000F40300020000000000EF
:103B8A0000000014061406000000000000000014E3
:103B9A0006000000001306100E76035903150EFEE8
:103BAA00FF00000A0E120E930E00000000F7031920
:103BBA0002000000002A04FE0142617474657279F1
:103BCA0020416C61726D2053746174653A20000D56
:103BDA000A00426174746572792056616C75653A9F
:103BEA00200020566F6C746167653A200056205099
:103BFA00657263656E746167653A200025004856F0
:103C0A0050726F62652056616C75653A2000204DCE
:103C1A006561737572656D656E743A20006B560046
:103C2A0042540048560053455453005345540054D7
:103C3A004C530054425A004154005472616E736DE1
:103C4A006974746572205374617274696E672E2E7A
:103C5A002E005748495445206368616E67650054D1
:103C6A0072616E736D6974746572205374617274D3
:103C7A006564210052656365697665643A20000DC2
:103C8A0000434D4420005B002C20005D006E616EF5
:0A3C9A0000696E66006F7666000098
:00000001FF
