:100000000C94F2000C941A010C941A010C941A012D
:100010000C941A010C941A010C941A010C94720C91
:100020000C941A010C941A010C941A010C941A01E4
:100030000C941A010C941A010C941A010C941A01D4
:100040000C94EF0F0C941A010C94870E0C94610E13
:100050000C941A010C941A010C941A010C941A01B4
:100060000C941A010C941A01204D65617375726528
:100070006D656E743A200020566F6C746167653A46
:100080002000485650726F62652056616C75653A63
:100090002000562050657263656E746167653A2072
:1000A0000020566F6C746167653A20004261747479
:1000B0006572792056616C75653A200042617474EE
:1000C00065727920416C61726D2053746174653A78
:1000D0002000202D20456E61626C65204572726F94
:1000E0007200202D2044697361626C652052454482
:1000F00000202D20456E61626C652042617474653C
:100100007279000001020304051112131415160A76
:100110000B0C0D0E0F526164696F20426567696EAA
:1001200000526164696F204552524F52005D002CAD
:10013000200020706172616D733A5B0020736F75EF
:100140007263653A002069643A00434D44200045DB
:100150007865637574652000467265652052414D6F
:10016000203D20004F4B0052656365697665643A17
:1001700020005377697463684F6E204D6F73666516
:1001800074000000000800020100000304070000E2
:100190000000000000005748495445206368616E24
:1001A00067650000000000250028002B000000000B
:1001B00000240027002A00040404040404040402A8
:1001C00002020202020303030303030102040810F4
:1001D00020408001020408102001020408102002BF
:1001E0006217E61911241FBECFEFD8E0DEBFCDBFE6
:1001F00012E0A0E0B1E0EEE8FCE302C005900D9251
:10020000AC3DB107D9F724E0ACEDB2E001C01D92DE
:10021000A73AB207E1F710E0C1EFD0E004C02197A0
:10022000FE010E942F1EC03FD107C9F70E94CA10CD
:100230000C943A1E0C94000008950895CB01089583
:100240007F928F929F92AF92BF92CF92DF92EF9266
:10025000FF920F931F93CF93DF93EC0149015A0153
:100260008B01C12CD12C7601C814D904EA04FB04FB
:1002700084F5F80171908F018F8580FF0BC0E881B4
:10028000F9810084F185E02D20E144E060E070E038
:10029000CE010995EB85FC858D859E85E817F907CC
:1002A00038F470828B859C8501969C878B870BC068
:1002B000E881F981672D70E0028CF38DE02DCE018D
:1002C0000995019649F02FEFC21AD20AE20AF20A02
:1002D000CBCFB401C50102C0B601C701DF91CF91F8
:1002E0001F910F91FF90EF90DF90CF90BF90AF9054
:1002F0009F908F907F900895CF93DF93EC01E881DA
:10030000F9810288F389E02D09958F3F2FEF92073D
:1003100031F02D813E812F5F3F4F3E832D83DF9152
:10032000CF9108958FEF9FEF089560E070E0CB01CB
:10033000089580E090E00895CB010895CF93DF9376
:10034000EC0188899989DC01ED91FC910084F185AB
:10035000E02D0995892BA9F388899989DC01ED9114
:10036000FC910284F385E02DDF91CF910994CF9326
:10037000DF93EC0188899989DC01ED91FC9100847F
:10038000F185E02D0995892BA9F388899989DC01EC
:10039000ED91FC910484F585E02DDF91CF910994D6
:1003A000AF92BF92CF92DF92EF92FF920F931F9383
:1003B000CF93DF9300D000D0CDB7DEB78C015B01C7
:1003C000C12CD12C7601F80180899189DC01ED9155
:1003D000FC910284F385E02D29833A834B835C836F
:1003E000099529813A814B815C818F3F71F0C2165A
:1003F000D306E406F5064CF4D5018D935D01BFEFFD
:10040000CB1ADB0AEB0AFB0ADECFC701B6010F905D
:100410000F900F900F90DF91CF911F910F91FF9050
:10042000EF90DF90CF90BF90AF900895DC01509691
:100430008D919C915197DC01ED91FC910084F185A7
:10044000E02D099480E090E0089580E090E0089528
:1004500080E090E0089580E090E008950895CF93C3
:10046000DF93C0916C03D0916D03E881F981008422
:10047000F185E02DCE010995892BB9F3E881F98149
:100480000284F385E02DCE01DF91CF9109941F9373
:10049000CF93DF93182FC0916C03D0916D038A30F6
:1004A00041F4E881F9810190F081E02D6DE0CE0109
:1004B0000995E881F9810190F081E02D612FCE014D
:1004C000099521E030E0019711F420E030E0C90106
:1004D000DF91CF911F9108950C94A31A27E532E084
:1004E000FC013183208383AD94AD0C94A31ACF9388
:1004F000DF93EC010E946E02CE01DF91CF910C944C
:10050000A31A0C94A31A0C94A31A0C94A31A0C9477
:10051000A31A089508950C94A31ADC01ED91FC919F
:10052000369720813181820F931F0C948B02FB013F
:1005300020813181FC0131832083FB014281538181
:10054000F901369720813181FC01E20FF31F5183BD
:10055000408308952DEA31E0FC013183208327EBAD
:1005600031E0318F208F6DEB71E00C949702DC014C
:10057000ED91FC91369720813181820F931F0C946D
:10058000AA02CF93DF93EC010E94AA02CE01DF9171
:10059000CF910C94A31ADC01ED91FC913697208148
:1005A0003181820F931F0C94C1020C94A31A0895F9
:1005B00008950C94A31ADC01ED91FC9136972081EB
:1005C0003181820F931F0C94D902FB01208131816C
:1005D000FC0131832083FB0142815381F90136976D
:1005E00020813181FC01E20FF31F51834083089584
:1005F00025E232E0FC01318320832FE232E0358BAB
:10060000248B65E372E00C94E502DC01ED91FC9132
:10061000369720813181820F931F0C94F802CF937B
:10062000DF93EC010E94F802CE01DF91CF910C9490
:10063000A31ADC01ED91FC91369720813181820F64
:10064000931F0C940F030C94A31A0F931F93CF9333
:10065000DF93EC01CB01088119817B836A830E94BF
:100660000E1A9983888320E030E08C819D812817C1
:10067000390770F4E881F981E20FF31F309729F010
:10068000D801A20FB31F8C9180832F5F3F4FEDCF16
:10069000C801DF91CF911F910F910C94A31ACF93B2
:1006A000DF936115710509F45FC0FB01C081CF3F85
:1006B00011F461E003C0C11104C060E0FC0182815B
:1006C0004FC0FC01D2818D2F0E945908ED2FF0E020
:1006D000EE57FE4FE491E33009F148F4E130C9F000
:1006E000E230C1F584B5806284BDC8BD3DC0E7304D
:1006F00009F1E83039F1E43069F5809180008062D9
:10070000809380008C2F90E090938B0080938A00E0
:100710002BC084B5806884BDC7BD26C08091800091
:100720008068809380008C2F90E090938900809364
:1007300088001AC08091B00080688093B000C09398
:10074000B30012C08091B00080628093B000C0936B
:10075000B4000AC0C03810F460E001C061E08D2F21
:10076000DF91CF910C941309DF91CF9108950F93EE
:100770001F93CF93DF938C01EB016F3F8FEF7807CF
:1007800019F480E090E00FC06A3031F46DE0F801B8
:10079000808991890E94CE0C6C2FF8018089918903
:1007A0000E94CE0CCE01DF91CF911F910F91089541
:1007B0008F929F92BF92CF92DF92EF92FF920F9310
:1007C0001F93CF93DF9300D000D0CDB7DEB78C015D
:1007D0004B01C12CD12C7601C216D306E406F506D6
:1007E00044F5F401B1904F01FAE0BF120EC06DE084
:1007F000F8018089918929833A834B835C830E9425
:10080000CE0C5C814B813A8129816B2DF801808966
:10081000918929833A834B835C830E94CE0CFFEF3E
:10082000CF1ADF0AEF0AFF0A5C814B813A812981E6
:10083000D3CFCA01B9010F900F900F900F90DF91A5
:10084000CF911F910F91FF90EF90DF90CF90BF90CD
:100850009F908F900895CF92DF92EF92FF920F9327
:100860001F93CF93DF93FB01E488F588C085D18582
:100870000681178168010E151F050CF467016CEAEB
:1008800070E08CE993E00E94D50CA7010F2C000CBE
:10089000660B770B8CE993E00E94270861EA70E011
:1008A0008CE993E00E94D50CB70180E090E00E94B3
:1008B000BE1C24EA30E745E550E40E94731D20E0A9
:1008C00030EC4FE754E40E941B1C20E030E0A9010B
:1008D0000E94AA1BAB01BC0122E08CE993E00E94BC
:1008E000570D62E970E08CE993E00E94D50CB601E7
:1008F000CC15DD050CF4BE01601B710B072E000C3E
:10090000880B990B0E94BE1C20E030E048EC52E4BA
:100910000E94731D6B017C01C01BD10BBE01DD0F5A
:10092000880B990B0E94BE1C9B01AC01C701B6014C
:100930000E941B1C20E030E0A9010E94AA1B0E941B
:100940008D1C462F50E060E070E08CE993E00E943F
:10095000270861E972E08CE993E0DF91CF911F9164
:100960000F91FF90EF90DF90CF900C94390E089587
:100970002FE432E0DC012D933C938091EB029091C7
:10098000EC02009739F0DC01ED91FC910280F381DB
:10099000E02D09940895CF93DF93EC010E94B804F1
:1009A000CE01DF91CF910C94A31AFC01118A8381AF
:1009B0009481908B87871686158660E082810C94DF
:1009C00013098F929F92AF92BF92CF92DF92EF92D4
:1009D000FF920F931F93CF93DF93FC012189223065
:1009E00009F060C0EC010E94E30F2D853E8569018E
:1009F000E12CF12C09851A852B853C854601570190
:100A0000801A910AA20AB30ADC01CB01880D991D54
:100A1000AA1DBB1DEF85F8894181528160E070E01D
:100A200084179507A607B707E8F11E861D860E9462
:100A3000E30F69877A878B879C87EF85F8896381C5
:100A400074816115710579F48F8198850196988775
:100A50008F832D813E812115310519F0821793076F
:100A60009CF46B817C81788B6F87CE01DF91CF9175
:100A70001F910F91FF90EF90DF90CF90BF90AF90BC
:100A80009F908F900C944F03188A1F86CE010E946E
:100A9000D5042F8138858D819E812817390711F45F
:100AA00018861F82DF91CF911F910F91FF90EF90D9
:100AB000DF90CF90BF90AF909F908F900895CF938D
:100AC000DF93FC0183819481892BC9F08189823075
:100AD000B1F0811104C01686158610861782EF01C9
:100AE0000E94E30F69877A878B879C8782E0898BD6
:100AF0006F857889CE01DF91CF910C944F03DF9100
:100B0000CF9108950895EF92FF920F931F93CF9383
:100B1000DF93EC018C819D818617970710F57A0190
:100B20008B018A819B818617970740F4685F7F4F0E
:100B30008617970718F4CE010E9425038C819D81AA
:100B40008017910758F4E881F981E80FF91F309771
:100B500019F0D7012C9120830196F2CF1D830C83CD
:100B600005C06817790710F47D836C83DF91CF91FE
:100B70001F910F91FF90EF900895CF92DF92EF9227
:100B8000FF920F931F93CF93DF931F92CDB7DEB7E2
:100B90008C016B0188E090E0D80113969C938E93B2
:100BA000129715961C921E9214970E940E1AF80125
:100BB00091838083C114D10449F1F6010190002092
:100BC000E9F731977F01EC18FD081982AE014F5FFC
:100BD0005F4FB701C8010E948305D8012D913C9158
:100BE00040E050E0BA01C701A0E0B0E04817590763
:100BF0006A077B0758F4F60111916F01F90111930F
:100C00009F014F5F5F4F6F4F7F4FF0CF0F90DF918E
:100C1000CF911F910F91FF90EF90DF90CF900895AB
:100C2000FC01808191810C94A31AAF92BF92CF9264
:100C3000DF92EF92FF920F931F93CF93DF93FC010C
:100C4000248135816217730708F56B01EC0187E099
:100C5000869F5001879FB00C11248B01E12CF12C51
:100C60008C819D810817190778F4C7018A0D9B1D97
:100C700028813981820F931F0E9410060F5F1F4F3A
:100C8000F7E0EF0EF11CECCFDD82CC82DF91CF914B
:100C90001F910F91FF90EF90DF90CF90BF90AF909A
:100CA0000895EF92FF920F931F93CF93DF937C01F0
:100CB00000E010E0C0E0D0E0F701248135818081C0
:100CC0009181C217D30740F4800F911F0E94100634
:100CD0002196095F1F4FF0CFDF91CF911F910F91A8
:100CE000FF90EF900C94A31ACF93DF93EC016C81EB
:100CF0007D816F5F7F4F8A819B818617970718F4EC
:100D0000CE010E942503E881F9818C819D81E80F45
:100D1000F91F108288819981DF91CF910895AF9258
:100D2000BF92CF92DF92EF92FF920F931F93CF93D8
:100D3000DF931F92CDB7DEB78C016B017A015901A9
:100D400088E090E0D80113969C938E9312971596A5
:100D50001C921E9214970E940E1AF80191838083B0
:100D6000D60114968D919C9115978E159F0510F4C0
:100D70000E94351E1982BC016E197F09A616B7069E
:100D800008F4B501AE014F5F5F4FC8010E948305B3
:100D9000F80184819581D601ED91FC91EE0EFF1E44
:100DA000F8012081318140E050E0BA01A0E0B0E0DC
:100DB000481759076A077B0758F4F70111917F011B
:100DC000F90111939F014F5F5F4F6F4F7F4FF0CF3E
:100DD0000F90DF91CF911F910F91FF90EF90DF90D7
:100DE000CF90BF90AF90089527E432E0FC012193AB
:100DF0003193CF010C941006CF93DF93EC010E9446
:100E0000F406CE01DF91CF910C94A31ACF92DF921A
:100E1000EF92FF920F931F93CF93DF93EC01162F66
:100E200066E972E08CE993E00E94390E8A81112311
:100E300051F180648A8387FD6CC061EF70E08CE9BA
:100E400093E00E944D0E7E0185E1E80EF11CC70182
:100E50000E94D50485E090E00E940E1A8C01FC01EE
:100E600010821482138289EA9BE09283818385E059
:100E700090E00E940E1AFC018FEF808389E190E0E0
:100E80009283818335C08F7B8A8387FD42C062EE67
:100E900070E08CE993E00E944D0E7E01F5E1EF0ECB
:100EA000F11CC7010E94D5048A8185FF32C062ED22
:100EB00070E08CE993E00E944D0EC7010E94D504BA
:100EC00085E090E00E940E1A8C01FC0110821482D1
:100ED00013828EEEC82E82E0D82ED282C18285E0A7
:100EE00090E00E940E1AFC018FEF8083D282C182B3
:100EF00014830383F98FE88FFDA3ECA3C701DF916F
:100F0000CF911F910F91FF90EF90DF90CF900C94B5
:100F10005F05DF91CF911F910F91FF90EF90DF90D0
:100F2000CF9008950F931F93CF938C01C42F6CEB38
:100F300070E08CE993E00E94D50C6C2F70E08CE996
:100F400093E00E947808D8011896ED91FC911997CA
:100F5000928196FB992790F99C1739F06C2FCF015D
:100F6000CF911F910F910C940607CF911F910F9174
:100F700008950F931F93CF93DF938091E602909192
:100F8000E702892B09F04FC089E390E00E940E1A16
:100F9000EC018DE091E0998388831A8205E111E0EC
:100FA0001C830B8386E08D831F821E821986188620
:100FB0001B861A861C861D861E861F86198A188A1D
:100FC0001B8A1A8A1C8A0E9459081E8B0D8B88E086
:100FD0008F8B198E188E1B8E1A8E1D8E1C8E1E8E58
:100FE0001F8E18A219A21BA21AA21DA21CA21EA229
:100FF0000E94590818A70FA387E089A71BA61AA665
:101000001DA61CA61FA61EA618AA19AA1AAA1BAAC4
:101010001DAA1CAA1FAA1EAA18AE0E945908D09386
:10102000E702C093E6028091E6029091E702DF9129
:10103000CF911F910F9108950895089508958EBD41
:1010400000000DB407FEFDCF8EB508950895CF9230
:10105000DF92EF92FF920F931F93CF93DF9377FF6F
:101060001DC06A017B01EC016DE20E94CE0C8C0177
:1010700044275527BA014C195D096E097F092AE0FA
:10108000CE010E940E0D800F911FDF91CF911F9115
:101090000F91FF90EF90DF90CF9008952AE0DF91BD
:1010A000CF911F910F91FF90EF90DF90CF900C9414
:1010B0000E0D90E0FC01E553FE4F2491FC01E95434
:1010C000FE4F8491882399F090E0880F991FFC01CE
:1010D000E355FE4FA591B491FC01ED55FE4F85916E
:1010E00094918FB7F894EC91E22BEC938FBF089515
:1010F0000F931F93CF93DF93EC01AB01770F660B38
:10110000770B0E9427088C016DEA72E0CE010E94E5
:10111000F90C800F911FDF91CF911F910F910895CE
:10112000CF92DF92EF92FF920F931F93CF93DF93B3
:10113000EC019A8192FD48C094609A8397FD36C075
:101140006E0183E0C80ED11CC6010E94D50485E063
:1011500090E00E940E1A7C01FC011082148213821E
:101160008CE79BE09283818385E090E00E940E1AD9
:101170008C018FEFF801808384E190E0928381837A
:10118000F482E38285E090E00E940E1AFC0183E085
:10119000808388E290E09283818314830383FF83BA
:1011A000EE83FB8BEA8BC6010E945F0566E971E066
:1011B0008CE993E0DF91CF911F910F91FF90EF9019
:1011C000DF90CF900C944D0EDF91CF911F910F9136
:1011D000FF90EF90DF90CF900895CF93DF93C09171
:1011E0006503D09166038091690390916A03880F2B
:1011F000991F2091650330916603820F931FC817D2
:10120000D90771F089919991DC01ED91FC910680EB
:10121000F781E02D40913D036AE273E00995E3CF49
:10122000DF91CF91089590E0FC01EE57FE4F34918D
:10123000FC01E553FE4F2491FC01E954FE4FE4917B
:10124000EE2309F43BC0332339F1333091F038F405
:101250003130A9F0323001F584B58F7D12C03730BE
:1012600091F03830A1F03430B9F4809180008F7D56
:1012700003C0809180008F77809380000DC084B57B
:101280008F7784BD09C08091B0008F7703C08091B3
:10129000B0008F7D8093B000F0E0EE0FFF1FED55A2
:1012A000FE4FA591B4918FB7F894EC91611103C0F2
:1012B00020952E2301C02E2B2C938FBF08959CB513
:1012C0009F7D9CBD9CB5937F9CBD9CB59C7F9CBD28
:1012D0009DB591609DBD682F809100030E94130908
:1012E00080911203909113038230910538F0880F9A
:1012F000991F880F991F05970197F1F708951F937C
:10130000CF93DF931F92CDB7DEB7182F80E06983AC
:101310000E945F09812F8F7180620E941F08182F21
:101320006981862F0E941F0881E00E945F09812F3A
:101330000F90DF91CF911F910895EF92FF920F933D
:101340001F93CF93DF9300D0CDB7DEB7082F162FB2
:1013500080E049837A830E945F09802F8F718062C9
:101360000E941F08082FE12E7A81F72E4981140F61
:101370001E1531F0F70181917F010E941F08F8CFFF
:1013800081E00E945F09802F0F900F90DF91CF9135
:101390001F910F91FF90EF900895CF93C82F80E099
:1013A0000E945F098C2F8F710E941F088FEF0E948F
:1013B0001F08C82F81E00E945F098C2FCF910895EC
:1013C000CF92DF92EF92FF920F931F93CF93DF9311
:1013D0006C017A018B01C0E0D0E0CE15DF0589F009
:1013E000D8016D918D01D601ED91FC910190F081B4
:1013F000E02DC6010995892B11F47E0102C02196CA
:10140000ECCFC701DF91CF911F910F91FF90EF902B
:10141000DF90CF900895089580E090E00895FC015A
:10142000538D448D252F30E0842F90E0821B930B49
:10143000541710F0CF96089501970895FC01918DEF
:10144000828D981761F0828DDF01A80FB11D5D9626
:101450008C91928D9F5F9F73928F90E008958FEF94
:101460009FEF0895FC01918D828D981731F0828D48
:10147000E80FF11D858D90E008958FEF9FEF08959F
:10148000FC01918D228D892F90E0805C9F4F821B03
:1014900091098F73992708958CE993E00E94400A7F
:1014A00021E0892B09F420E0822F0895FC01848D2E
:1014B000DF01A80FB11DA35ABF4F2C91848D90E07E
:1014C00001968F739927848FA689B7892C93A08959
:1014D000B1898C9180648C93938D848D981306C010
:1014E0000288F389E02D80818F7D80830895EF92BB
:1014F000FF920F931F93CF93DF93EC0181E0888FCE
:101500009B8D8C8D981305C0E889F989808185FDB4
:1015100024C0F62E0B8D10E00F5F1F4F0F731127A5
:10152000E02E8C8DE8120CC00FB607FCFACFE889CC
:10153000F989808185FFF5CFCE010E94560AF1CF4F
:101540008B8DFE01E80FF11DE35AFF4FF0820B8FE8
:10155000EA89FB898081806207C0EE89FF89608308
:10156000E889F98980818064808381E090E0DF915F
:10157000CF911F910F91FF90EF900895CF93DF933C
:10158000EC01888D8823C9F0EA89FB89808185FD7B
:1015900005C0A889B9898C9186FD0FC00FB607FCDC
:1015A000F5CF808185FFF2CFA889B9898C9185FF1D
:1015B000EDCFCE010E94560AE7CFDF91CF9108957B
:1015C00080E090E0892B29F00E944C0A81110C9454
:1015D00000000895089508950895FC0192859150A2
:1015E00081E0923008F080E00895DC011A962C9199
:1015F000261759F0FC0162870190F081E02D0688E2
:10160000F789E02D099581E0089580E0089503961B
:1016100008950E94351E90910201981324C0EFEDA9
:10162000F1E0E4919FEF90930201E130B9F098F07E
:10163000E230C9F4909170009D7F9093700091E02A
:101640009093B0009091B100987F94609093B10016
:101650001092B30008C010926E0005C090916F0008
:101660009D7F90936F0060E00C941309CF93DF93FC
:10167000EC0161E086E00E94130961E088E00E94CD
:10168000130961E087E00E9413090E94E30F6D8750
:101690007E878F87988B82E0DF91CF9108950F939B
:1016A0001F93CF93DF931F92CDB7DEB78C01AE01AE
:1016B0004F5F5F4F6AEC72E00E94BD05C8010F905A
:1016C000DF91CF911F910F9108950F931F93CF93A7
:1016D000DF931F92CDB7DEB78C01AE014F5F5F4F36
:1016E0006EEC72E00E94BD05C8010F90DF91CF91B2
:1016F0001F910F910895CF93DF93EC018FE592E056
:10170000998388838091F1029091F202009739F0D9
:10171000DC01ED91FC910280F381E02D09958A8135
:101720009B81DF91CF910C94A31ACF93DF93EC01AF
:101730000E947B0BCE01DF91CF910C94A31A2F92C4
:101740003F924F925F926F927F928F929F92AF9251
:10175000BF92CF92DF92EF92FF920F931F93CF939E
:10176000DF9300D01F92CDB7DEB77C017B836A8305
:101770001C0123E0220E311C60E070E0C1010E94D8
:101780001506EA81FB8180809180EA81FB812481BA
:101790003581F7E0F29FC001F39F900D1124EA819B
:1017A000FB8120813181820F931F8816990609F4ED
:1017B00083C0F701878190856C01FFEFCF1ADF0AA4
:1017C0008C159D0508F070C0F701258136812C1518
:1017D0003D05F0F5099628173907D0F56380748028
:1017E0009683858347E09C01429FC001439F900DF3
:1017F00011240E940E1AF701948383835301412C14
:10180000512CF7018781908548165906F0F4F701AD
:1018100023813481C50186199709820F931F009790
:1018200051F08E010F5F1F4F2FEF3FEF40E050E070
:10183000B5010E948F06C5010E941006FFEF4F1AE6
:101840005F0A27E0A20EB11CDCCFC3010E94A31ADD
:10185000F701A780B084F7E0FA9D2001FB9D500CB2
:101860001124612C712CF701AC14BD04D0F4238138
:101870003481C301840D951D820F931F009751F091
:101880008E010F5F1F4F2FEF3FEF40E050E0B4019C
:101890000E948F06FFEFAF1ABF0A27E0620E711C8D
:1018A000E2CFD086C78204C0B601C1010E941506EE
:1018B000F7E08F0E911C69CF0F900F900F90DF9182
:1018C000CF911F910F91FF90EF90DF90CF90BF903D
:1018D000AF909F908F907F906F905F904F903F90D0
:1018E0002F9008951F920F920FB60F9211242F93ED
:1018F0003F934F935F936F937F938F939F93AF9398
:10190000BF93EF93FF938091F6029091F702A0911D
:10191000F802B091F902892B8A2B8B2B51F180911F
:10192000F502E091F302F091F4029081892780831F
:101930008091F6029091F702A091F802B091F9021D
:10194000181619061A061B06C4F48091F602909127
:10195000F702A091F802B091F9020197A109B1092B
:101960008093F6029093F702A093F802B093F902E5
:1019700004C0809102010E940B0BFF91EF91BF9177
:10198000AF919F918F917F916F915F914F913F9117
:101990002F910F900FBE0F901F901895DC01ED91C5
:1019A000FC910190F081E02D0994EF92FF920F934A
:1019B0001F93CF93DF938C017B01C0E0D0E0F70150
:1019C000EC0FFD1F6491662361F0D801ED91FC914D
:1019D0000190F081E02DC8010995892B11F0219625
:1019E000EECFCE01DF91CF911F910F91FF90EF903D
:1019F00008956115710579F0FB0101900020E9F768
:101A00003197AF01461B570BDC01ED91FC91028031
:101A1000F381E02D099480E090E008954F925F9269
:101A20006F927F92EF92FF920F931F93CF93DF936A
:101A3000CDB7DEB7A1970FB6F894DEBF0FBECDBF0E
:101A40007C01FA01CB0119A2223008F42AE08E01B0
:101A50000F5D1F4F422E512C612C712CBF01A30131
:101A600092010E94F91DF901CA01015011096A3061
:101A700014F4605D01C0695CD8016C93232B242BA6
:101A8000252B61F7B801C7010E94F90CA1960FB68A
:101A9000F894DEBF0FBECDBFDF91CF911F910F91A4
:101AA000FF90EF907F906F905F904F9008954F92CE
:101AB0005F926F927F928F929F92AF92BF92CF92DE
:101AC000DF92EF92FF92CF93DF93EC016A017B01EB
:101AD000B22E9A01AB01C701B6010E94E01D882316
:101AE00019F060ED72E027C026013701E89477F81D
:101AF0002FEF3FEF4FE75FE7C301B2010E94E01D08
:101B000081110DC02FEF3FEF4FE75FE7C301B20137
:101B10000E94161C18161CF464ED72E00CC02FEF26
:101B20003FEF4FE75FE4C701B6010E946E1D181634
:101B30009CF468ED72E0CE01DF91CF91FF90EF90C1
:101B4000DF90CF90BF90AF909F908F907F906F90DD
:101B50005F904F900C94F90C2FEF3FEF4FE75FEC45
:101B6000C701B6010E94161C87FDE3CF20E030E0DC
:101B7000A901C701B6010E94161C87FF0AC06DE2C9
:101B8000CE010E94CE0C4C01F7FAF094F7F8F094D5
:101B900002C0812C912CA12C60E070E080E09FE3DA
:101BA000AB1441F020E030E040E251E40E941B1C05
:101BB000A394F6CF9B01AC01C701B6010E94AA1BFA
:101BC0002B013C010E948D1C6B017C010E94BC1CFE
:101BD0009B01AC01C301B2010E94A91B2B013C0176
:101BE0002AE0B701A601CE010E940E0D7C01E80C8F
:101BF000F91CBB2031F06EE2CE010E94CE0CE80E43
:101C0000F91EDB2CDD2029F120E030E040E251E438
:101C1000C301B2010E94731D2B013C010E948D1C67
:101C20004B01A12CB12C2AE0B501A401CE010E94E8
:101C30000E0DE80EF91EC501B4010E94BC1C9B01EB
:101C4000AC01C301B2010E94A91B2B013C01DA9433
:101C5000D9CFC701DF91CF91FF90EF90DF90CF9068
:101C6000BF90AF909F908F907F906F905F904F90BC
:101C700008950F931F93CF93DF93EC010E94F90C0B
:101C80008C016DEA72E0CE010E94F90C800F911F69
:101C9000DF91CF911F910F9108950F931F93CF93D1
:101CA000DF93EC010E94D50C8C016DEA72E0CE014D
:101CB0000E94F90C800F911FDF91CF911F910F911E
:101CC00008951F920F920FB60F9211242F933F93F6
:101CD0004F935F936F937F938F939F93AF93BF9334
:101CE000EF93FF938CE993E00E94560AFF91EF91E6
:101CF000BF91AF919F918F917F916F915F914F9124
:101D00003F912F910F900FBE0F901F9018951F922B
:101D10000F920FB60F9211242F938F939F93EF93EF
:101D2000FF93E091AC03F091AD038081E091B203A9
:101D3000F091B30382FD12C090818091B5038F5F53
:101D40008F732091B603821751F0E091B503F0E054
:101D5000E456FC4F958F8093B50301C08081FF91BD
:101D6000EF919F918F912F910F900FBE0F901F9029
:101D7000189525E231E0FC013183208303960C9411
:101D80005106CF93DF93EC010E94B90ECE01DF9193
:101D9000CF910C94A31ACF93DF938091F10290918D
:101DA000F202892BC9F489E090E00E940E1AEC013E
:101DB0008FE592E09983888388E090E09D838C830F
:101DC0001F821E8280E190E00E940E1A9B838A830C
:101DD000D093F202C093F1028091F1029091F2024D
:101DE000DF91CF910895EF92FF920F931F93CF93BE
:101DF000DF93EC01E881F9810684F785E02D63E04B
:101E000009950E94CB0EDC0112968D919C9113973F
:101E100016962D913C911797A901440F551F480F15
:101E2000591FBC01FB016417750741F06E5F7F4FBE
:101E3000008111810C171D07A9F702C0E0E0F0E056
:101E4000CD2B31F1E81BF90BAF0155954795C90131
:101E50000197BF016E5F7F4F4817590790F41296A4
:101E6000ED90FC9013974F5F5F4F8701060F171F90
:101E7000E80108811981EE0DFF1D11830083FB012C
:101E8000E8CF8217930720F417969C938E931697AA
:101E9000DF91CF911F910F91FF90EF9008950F93D5
:101EA0001F93CF93DF93EC010E94E30F0D851E85F6
:101EB0002F853889DC01CB01801B910BA20BB30B62
:101EC000853F9140A105B105D0F060E086E00E9419
:101ED000130960E088E00E94130960E087E00E9437
:101EE000130985E00E940B0B0E94B9070E9490081D
:101EF000CE01DF91CF911F910F910C94F30EDF91E2
:101F0000CF911F910F9108953FB7F8948091990454
:101F100090919A04A0919B04B0919C0426B5A89B33
:101F200005C02F3F19F00196A11DB11D3FBFBA2F6B
:101F3000A92F982F8827820F911DA11DB11DBC01CB
:101F4000CD0142E0660F771F881F991F4A95D1F790
:101F500008958F929F92AF92BF92CF92DF92EF92AD
:101F6000FF926B017C010E94840F4B015C01C11444
:101F7000D104E104F104F1F00E94840FDC01CB01F3
:101F800088199909AA09BB09883E9340A105B105A2
:101F900070F321E0C21AD108E108F10888EE880E3A
:101FA00083E0981EA11CB11CC114D104E104F1040A
:101FB00019F7DDCFFF90EF90DF90CF90BF90AF90FB
:101FC0009F908F9008952FB7F89460919504709129
:101FD000960480919704909198042FBF08951F92C2
:101FE0000F920FB60F9211242F933F938F939F93CD
:101FF000AF93BF938091950490919604A09197041C
:10200000B09198043091940423E0230F2D3720F4ED
:102010000196A11DB11D05C026E8230F0296A11D42
:10202000B11D209394048093950490939604A093FB
:102030009704B09398048091990490919A04A09188
:102040009B04B0919C040196A11DB11D809399043D
:1020500090939A04A0939B04B0939C04BF91AF917A
:102060009F918F913F912F910F900FBE0F901F90D6
:10207000189508950C94A31A02970C943A10CF92D5
:10208000DF92EF92FF92CF93DF93FC0186819781DD
:102090006817790709F074C04A30510509F070C01B
:1020A000FB01C280D380E601D7FC07C0C114F4E075
:1020B000DF062CF0CFEFD3E002C0C0E0D0E062E852
:1020C00070E08CE993E00E94D50CE12CF12C2AE021
:1020D000B701A6018CE993E00E940E0D67E770E05E
:1020E0008CE993E00E94D50CC701B6010E94BE1C8A
:1020F00024EA30E745E550E40E94731D20E030EC0F
:102100004FE754E40E941B1C20E030E0A9010E942C
:10211000AA1BAB01BC0122E08CE993E00E94570DA1
:1021200068E670E08CE993E00E94D50CBE01DD0FFB
:10213000880B990B0E94BE1C20E030E044E352E47F
:102140000E94731D20E030EC4FE754E40E941B1CFA
:1021500020E030E0A9010E94AA1BAB01BC0122E0F3
:102160008CE993E00E94570D63E972E08CE993E0FB
:10217000DF91CF91FF90EF90DF90CF900C94390ECC
:10218000DF91CF91FF90EF90DF90CF90089502976D
:102190000C943F10CF93DF93CDB7DEB7A4970FB663
:1021A000F894DEBF0FBECDBF789484B5826084BD45
:1021B00084B5816084BD85B5826085BD85B581604B
:1021C00085BD80916E00816080936E0010928100C9
:1021D0008091810082608093810080918100816084
:1021E0008093810080918000816080938000809145
:1021F000B10084608093B1008091B00081608093D1
:10220000B00080917A00846080937A0080917A0097
:10221000826080937A0080917A00816080937A0056
:1022200080917A00806880937A001092C10086E0E5
:102230000E94590888E00E94590887E00E945908C6
:1022400085E00E945908E091AC03F091AD0382E073
:102250008083E091A803F091A9031082E091AA0382
:10226000F091AB038FEC80831092B403E091B00344
:10227000F091B10386E08083E091AE03F091AF036B
:10228000808180618083E091AE03F091AF03808113
:1022900088608083E091AE03F091AF038081806815
:1022A0008083E091AE03F091AF0380818F7D8083C6
:1022B00064E671E08CE993E00E944D0EE091180312
:1022C000F09119034EEF52E053834283052E000C28
:1022D000660B770B8CE993E00E9427086DEA72E0A9
:1022E0008CE993E00E94F90C8091FE029091FF022C
:1022F00020910003309101038217930711F00E948F
:10230000590880910003909101032091FE023091C1
:10231000FF022817390711F00E9459081FB7F894D7
:102320008091E802811124C0E1ECF1E08491E5EDB7
:10233000F1E09491E82FF0E0EE0FFF1FE355FE4F20
:10234000A591B491EC91E92321F461E08AE00E9427
:1023500013098AE00E9459088CB580618CBD8CB548
:1023600080648CBD8DE00E9459088BE00E94590862
:102370008091E8028F5F8093E8021FBF8091FE0288
:102380009091FF022091000330910103821793077F
:1023900019F060E00E94130981E00E945F0965E086
:1023A00070E080E090E00E94A90F6CE080E00E9465
:1023B0007F096FE584E00E947F0986E00E94CD09D5
:1023C000877D182F10628BE990E0A0E0B0E0809349
:1023D0000E0390930F03A0931003B0931103612F8A
:1023E00086E00E947F0986E00E94CD09811709F4EA
:1023F000F8C486E00E94CD09182F86E00E94CD091E
:1024000045E550E060E070E040930E0350930F0309
:102410006093100370931103682F677D86E00E941C
:102420007F0986E00E94CD0980E00E945F0980E577
:102430000E941F0883E70E941F0881E00E945F0935
:1024400060E08DE10E947F0960E08CE10E947F09DD
:102450001092060360E787E00E947F096CE485E044
:102460000E947F0980E00E945F0982EE0E941F089F
:1024700081E00E945F0980E00E945F0981EE0E9476
:102480001F0881E00E945F0980E00E94CD0981FD64
:102490000BC0682F626080E00E947F0965E070E0F9
:1024A00080E090E00E94A90F80E00E94CD09682F93
:1024B0006E7F80E00E947F0911501E3F08F054C0DB
:1024C00082E08B8B1C8A1D8A1E8A1F8A188E198EA9
:1024D0001A8E40910C03BE016D5E7F4F8AE00E9410
:1024E0009D0940910C03BE016D5E7F4F80E10E940B
:1024F0009D096091050381E10E947F0981E08B873E
:102500001C861D861E861F86188A198A1A8AE0E193
:10251000F1E0849140910C03BE01655F7F4F0E9402
:102520009D09EAE0F1E08491609105030E947F0932
:1025300082E00E94CD09E4E0F1E0E49161E070E026
:1025400001C0660FEA95EAF7682B82E00E947F09D6
:1025500086E00E94CD09887F682F616086E00E9436
:102560007F0965E171E002C061E271E08CE993E00E
:102570000E944D0EE0912203F091230323E0EA3202
:10258000F20709F4B4C0309709F444C083AC94ACAA
:102590005F014FE3A40EB11C23AD34ADD5014D91C5
:1025A0005C91CA01880F991F820F931F88169906A4
:1025B00089F1D4018D919C918E51934039F5C401DC
:1025C000821B930B8C0115950795BA016150710917
:1025D0007C01B2E0EB0EF11C0617170788F423AD5F
:1025E00034AD0F5F1F4F6901CE0CDF1CD601CD90BB
:1025F000DC90820F931FDC01CD92DC92C701E8CF03
:102600006417750718F4D5016D937C93B2E08B0EB7
:10261000911CC2CFE0906903F0906A0387010F5FBD
:102620001F4FE016F10608F055C0809167039091A6
:10263000680380179107A0F59701275F3F4F821726
:10264000930770F5C0906503D090660330936803DC
:1026500020936703C901880F991F0E940E1A909357
:10266000660380936503D60140E050E04E155F0598
:10267000A1F0E0916503F09166039A01220F331FE8
:10268000E20FF31F309729F08D919C911197918360
:1026900080834F5F5F4F1296E9CFC6010E94A31A55
:1026A0008091690390916A039C01220F331F4EE1D0
:1026B00053E08017910788F4E0916503F091660379
:1026C000E20FF31F309711F05183408301962E5F84
:1026D0003F4FEFCF0E151F0520F410936A030093B0
:1026E00069038AE293E0909323038093220380910D
:1026F0001C0390911D039093270380932603E09180
:102700002203F0912303309711F082E08687009135
:10271000240310912503FE0131966F010115110567
:10272000D1F17801F4E1EF0EF11CD80158968C91AB
:102730005897823081F1811104C09A961C921E92A2
:1027400099970E94E30FF801678F70A381A392A36A
:1027500082E0808F81E090E09BA38AA3868997899D
:102760000097C9F0218D328DDC01ED91FC91048040
:10277000F581E02D4DE151E05A834983FC82EB82E3
:10278000AE014E5D5F4F5E834D8338872F831A867F
:102790001986B60109958091260390912703009729
:1027A00011F00E949008E0912203F09123036389C5
:1027B000E0912603F0912703928196FB992790F9E7
:1027C000961719F0CF010E94060782E08093380324
:1027D0000E94E30F6093FA027093FB028093FC0265
:1027E0009093FD0281E190E00E940E1A7C01FC01B1
:1027F000128288E090E0968385831086178288E3B2
:1028000090E00E940E1AD70114969C938E93139712
:102810001A961C921A978091E9029091EA02019609
:102820009093EA028093E9021C969C938E931B97E7
:1028300081E491E08D939C93F701158616861786A7
:10284000108A6FE471E08CE993E00E94D50C6AE491
:1028500071E08CE993E00E94D50CD701ED91FC91D9
:102860000480F581E02DB701C6010995C6010E94DB
:102870007406BC018CE993E00E94F90CC6010E9429
:10288000100665E471E08CE993E00E94D50CF70135
:102890004385548560E070E02AE08CE993E00E9473
:1028A0000E0D6CE371E08CE993E00E94D50CD7012A
:1028B00012964C9150E060E070E02AE08CE993E0E1
:1028C0000E940E0D62E371E08CE993E00E94D50C4A
:1028D000D701ED91FC910084F185E02DC7010995A8
:1028E0005C01FC012481358138A32F8F285F3F4F85
:1028F0003E8F2D8F87E0F82FF29FC001F39F900D40
:1029000011240E940E1A9C8F8B8F812C912C612C8C
:10291000712C8F8D98A168167906C8F4D5016D9138
:102920007C91680D791D8B8D9C8D880D991D00976C
:1029300039F086012FEF3FEF40E050E00E948F0614
:10294000BFEF6B1A7B0AE7E08E0E911CE2CFAB8CD7
:10295000BC8CA7E09A2E2F8D38A1929EC001939E29
:10296000900D11242B8D3C8D820F931FA816B90654
:1029700079F18E010C5D1F4F2FEF3FEF40E050E0EB
:10298000B501C6010E948F06C6010E947406BC01F3
:102990008CE993E00E94F90CC6010E9410062F8D6D
:1029A00038A1929EC001939E900D112407972B8D04
:1029B0003C8D820F931FA816B90631F06FE271E0CB
:1029C0008CE993E00E94D50CF7E0AF0EB11CC3CFA9
:1029D0006DE271E08CE993E00E944D0ECE014B96C2
:1029E0000E945106D701ED91FC910684F785E02DF8
:1029F00061E0C7010995D701ED91FC910088F1894B
:102A0000E02DC7010995823009F074C00E94CB0EF9
:102A10008C01E114F10409F47EC0FC0186809780EA
:102A20005401FFEFAF1ABF0A8A149B0408F059C083
:102A3000DC0114962D913C9115972A153B0598F5CC
:102A4000C40109962817390770F512966C901297F1
:102A500013967C90139715969C938E931497880FDA
:102A6000991F0E940E1AF80193838283D30140E0DC
:102A700050E048155905A1F0F801828193819A012F
:102A8000220F331FFC01E20FF31F309729F08D91C5
:102A90009C911197918380834F5F5F4F1296E9CF8E
:102AA000C3010E94A31AD80116968D919C91179785
:102AB0009C01220F331F8A159B0578F4D8011296CA
:102AC000ED91FC911397E20FF31F309711F0F18213
:102AD000E08201962E5F3F4FEECFF801B782A682CB
:102AE0001AC0A814B904B8F4DC011796BC92AE92CF
:102AF000169711C0D701ED91FC91813031F4028815
:102B0000F389E02DC701099506C00488F589E02DF9
:102B100063E0C701099568E571E08CE993E00E94E4
:102B2000D50C80919D0490919E04B601681B790B91
:102B30008CE993E00E947808BB24B3940E94E30FD1
:102B40000091FA021091FB022091FC023091FD02EB
:102B5000DC01CB01801B910BA20BB30B883B9B408C
:102B6000A105B1052CF18091000190910101019620
:102B700090930101809300010E94E30F6093FA0299
:102B80007093FB028093FC029093FD0262E771E078
:102B90008CE993E00E944D0EE0912803F091290307
:102BA0008281813029F0B28261E084E00E941309C1
:102BB00080913803823009F078C00E94E30F0091C1
:102BC000390310913A0320913B0330913C03AB0150
:102BD000BC01401B510B620B730B80912E03909133
:102BE0002F03A0E0B0E0481759076A077B0708F4F5
:102BF0005CC02091620330916303F901EE0FFF1F67
:102C0000EE5BFC4F809140039091410340815181E4
:102C1000841B950B909341038093400380912C0378
:102C20008E3008F08E508770806480937C00809195
:102C30007A00806480937A0080917A0086FDFCCFD0
:102C40008091780040917900220F331FF901EE5BEB
:102C5000FC4F90E0942B918380832091620330910C
:102C60006303F901EE0FFF1FEE5BFC4F40815181C2
:102C70008091400390914103840F951F90934103ED
:102C8000809340032F5F3F4F309363032093620391
:102C90005091640340912D03513009F4A6C0B9014D
:102CA00050E02417350708F0A3C000911C031091D1
:102CB0001D03C80103960E94E104C80145960E94C5
:102CC000E104C80187960E94E104E0901A03F090A5
:102CD0001B038CE993E00E94400A181619060CF0B9
:102CE0005CC08CE993E00E941E0A8A3011F08D309E
:102CF000F1F5F70186819781892B09F447C08E0190
:102D0000055E1F4F2FEF3FEF40E050E0B7016E5FD1
:102D10007F4FC6010E948F0667E671E08CE993E061
:102D20000E94D50CC6010E947406BC018CE993E098
:102D30000E94390EC6010E941006D70116964D91C9
:102D40005C91179760E070E02AE08CE993E00E94C4
:102D50000E0D6DEA72E08CE993E00E94F90CF70128
:102D600086819781892B91F0178216820FC08CA3E0
:102D7000D70116966D917C9117976F5F7F4FAE01CB
:102D80004C5D5F4FC70102960E948305F701868163
:102D90009781419710F0178216826AE070E080E018
:102DA00090E00E94A90FE0911603F0911703E280D2
:102DB000F38006811781000F111F0E0D1F1DE016F5
:102DC000F10661F0D7018D919D917D01DC01ED91BE
:102DD000FC910484F585E02D0995F1CF0E94E00A6D
:102DE000ADCE81E08093040304CB642F70E058CF14
:102DF0000E94E51D8B010F5E1F4F1092630310921E
:102E00006203B09264030E94E30F609339037093EE
:102E10003A0380933B0390933C03E0903E03F09091
:102E20003F030E151F0509F440CF10933F03009395
:102E30003E030091650310916603809169039091B0
:102E40006A03880F991F2091650330916603820FF2
:102E5000931F0817190779F0D8018D919D918D0165
:102E6000DC01ED91FC910480F581E02DA7016AE27F
:102E700073E00995E2CF40913D0320913E033091EC
:102E80003F038091340390913503442361F04091D6
:102E9000360350913703840F951F8217930750F420
:102EA00010923D0305C08217930720F0B0923D03B6
:102EB0000E94ED0860913D0370E08CE993E00E9470
:102EC0007808F3CEFF920F931F93CF93DF931F9257
:102ED000CDB7DEB70CE913E010929F0310929E036A
:102EE00088EE93E0A0E0B0E08093A0039093A1036C
:102EF000A093A203B093A30385E891E090939D0370
:102F000080939C0385EC90E09093A9038093A803A1
:102F100084EC90E09093AB038093AA0380EC90E064
:102F20009093AD038093AC0381EC90E09093AF035A
:102F30008093AE0382EC90E09093B1038093B00352
:102F400086EC90E09093B3038093B2031092B503A4
:102F50001092B6031092B7031092B803AE014F5F00
:102F60005F4F60EB72E08DE894E00E94BD05AE011A
:102F70004F5F5F4F63EB72E086E894E00E94BD050F
:102F8000AE014F5F5F4F66EB72E08FE794E00E9407
:102F9000BD05AE014F5F5F4F6BEB72E088E794E0D9
:102FA0000E94BD05AE014F5F5F4F6FEB72E081E79E
:102FB00094E00E94BD05AE014F5F5F4F63EC72E08D
:102FC0008AE694E00E94BD05AE014F5F5F4F67EC5B
:102FD00072E083E694E00E94BD05E1E2F0E0F09348
:102FE0005104E09350041092520410925304109232
:102FF000540446E050E060E070E040935504509384
:103000005604609357047093580410925904109218
:103010005A0410925B0410925C0420E220935D0439
:1030200010925F0410925E04109262048BE394E0AD
:10303000909361048093600485E292E090933A0457
:10304000809339048FE292E090934E0480934D0474
:1030500010923F0410923E041092410410924004DA
:1030600010924304109242041092450410924404BA
:10307000109247041092460410924904109248049A
:1030800083E092E090933C0480933B0410934C04C3
:1030900000934B0430E1F32EF0924A04F0938A033C
:1030A000E093890310928B0310928C0310928D038E
:1030B00040938E0350938F0360939003709391031A
:1030C000109292031092930310929403109295031E
:1030D00020939603109298031092970310929B03EB
:1030E0001092700310927103109272031092730386
:1030F00024E733E030939A03209399032DEA31E0DB
:1031000030936F0320936E0327EB31E030938703F6
:1031100020938603109278031092770310927A031B
:103120001092790310927C0310927B0310927E031D
:1031300010927D031092800310927F0310928203FD
:103140001092810390937503809374031093850309
:103150000093840388E08093830310936D030093AE
:103160006C036FE272E087E492E00E943B1B87E50C
:1031700092E090932B0380932A038EE080932C039C
:10318000F0922D0380E094E090932F0380932E0320
:103190008CE393E090933103809330038FEF93E0BF
:1031A00090933303809332038EE493E0909335033E
:1031B000809334038AE090E0909337038093360342
:1031C000109238031092390310923A0310923B0385
:1031D00010923C0310923D0310923F0310923E0365
:1031E0001092410310924003109263031092620305
:1031F0001092640388E090E09093680380936703E3
:1032000010926A031092690380E190E00E940E1A06
:103210009093660380936503E2E4F3E011921192C8
:1032200083E0E236F807D1F78091EB029091EC024F
:10323000892BE1F483E090E00E940E1A8C018FE468
:1032400092E0F8019183808382E0828384E00E948F
:103250005908F8018281882329F0128260E084E015
:103260000E9413091093EC020093EB028091EB0291
:103270009091EC0290932903809328038DE792E0CC
:1032800090931F0380931E038BE892E09093210399
:10329000809320031092230310922203109225039F
:1032A0001092240310922703109226030E94B9075C
:1032B00090931D0380931C038091EF029091F00284
:1032C000892BC9F489E090E00E940E1A8C0187E4F2
:1032D00092E0F8019183808388E090E09583848375
:1032E000178216820E940E1AF8019383828310932C
:1032F000F0020093EF028091EF029091F002909320
:103300001B0380931A038091ED029091EE02892BAA
:10331000D1F48EE090E00E940E1AFC018FE392E05F
:1033200091838083138212821482158216821782FF
:10333000108683E081871286138615861486F093A3
:10334000EE02E093ED028091ED029091EE029093F7
:103350001903809318030E94CB0E90931703809358
:10336000160389E090E09093FF028093FE028AE0CA
:1033700090E090930103809300031092040380E295
:10338000809305031092060385E080930C0385E08B
:1033900090E0A0E0B0E08093120390931303A09319
:1033A0001403B0931503109207030E94E30F609378
:1033B000FA027093FB028093FC029093FD020F903F
:1033C000DF91CF911F910F91FF9008958AE293E0D2
:1033D0000E946E028EE693E00E94AA0289E394E0C6
:1033E0000E94F80283E694E00E9410068AE694E0C8
:1033F0000E94100681E794E00E94100688E794E09E
:103400000E9410068FE794E00E94100686E894E080
:103410000E9410068DE894E00C941006CF93DF9381
:103420008230910510F482E090E0E0919F04F091E9
:10343000A00420E030E0C0E0D0E0309711F14081FE
:10344000518148175907C0F04817590761F4828124
:103450009381209719F09B838A832BC09093A004BB
:1034600080939F0426C02115310519F04217530798
:1034700018F49A01BE01DF01EF010280F381E02D13
:10348000DCCF2115310509F1281B390B243031051A
:1034900090F412968D919C9113976115710521F00E
:1034A000FB019383828304C09093A00480939F04C4
:1034B000FD01329644C0FD01E20FF31F8193919309
:1034C000225031092D933C933AC020919D043091B4
:1034D0009E04232B41F42091050130910601309385
:1034E0009E0420939D042091030130910401211535
:1034F000310541F42DB73EB74091070150910801C5
:10350000241B350BE0919D04F0919E04E217F30714
:10351000A0F42E1B3F0B2817390778F0AC014E5F43
:103520005F4F2417350748F04E0F5F1F50939E04DE
:1035300040939D048193919302C0E0E0F0E0CF01BD
:10354000DF91CF9108950F931F93CF93DF9300974F
:1035500009F48CC0FC0132971382128200919F04FF
:103560001091A0040115110581F420813181820F91
:10357000931F20919D0430919E042817390779F5F7
:10358000F0939E04E0939D0471C0D80140E050E0A8
:10359000AE17BF0750F412962D913C911397AD01D1
:1035A0002115310509F1D901F3CF9D01DA013383EA
:1035B000228360817181860F971F8217930769F4B8
:1035C000EC0128813981260F371F2E5F3F4F318351
:1035D00020838A819B8193838283452B29F4F093F6
:1035E000A004E0939F0442C01396FC93EE931297BD
:1035F000ED01499159919E01240F351FE217F30700
:1036000071F480819181840F951F029611969C938D
:103610008E938281938113969C938E931297E0E010
:10362000F0E0D80112968D919C911397009719F0B4
:10363000F8018C01F6CF8D919C9198012E5F3F4F40
:10364000820F931F20919D0430919E042817390703
:1036500069F4309729F41092A00410929F0402C0DC
:103660001382128210939E0400939D04DF91CF91E8
:103670001F910F9108950F931F93CF93DF9300979E
:1036800031F46115710519F480E090E03AC08B01C6
:10369000EC016EE070E081E090E00E94861BFC018E
:1036A000892B91F380E883830115110571F013874D
:1036B000028781E883838091A1049091A204892BE1
:1036C00021F4F093A204E093A1042097C9F0D187DC
:1036D000C0878381826083838091A3049091A40436
:1036E000892B71F4F093A404E093A3048091A504C2
:1036F0009091A604892B21F4F093A604E093A504ED
:10370000CF01DF91CF911F910F9108950F931F93D8
:10371000CF93DF93869F8001879F100D969F100D9A
:103720001124C8010E940E1AEC01009729F0A8018B
:1037300060E070E00E94A21BCE01DF91CF911F914B
:103740000F910895DC0101C06D9341505040E0F7A6
:1037500008955058BB27AA270E94C11B0C94341D02
:103760000E94261D38F00E942D1D20F039F49F3F45
:1037700019F426F40C94231D0EF4E095E7FB0C9449
:103780001D1DE92F0E94451D58F3BA1762077307E4
:103790008407950720F079F4A6F50C94671D0EF4C4
:1037A000E0950B2EBA2FA02D0B01B90190010C0151
:1037B000CA01A0011124FF27591B99F0593F50F469
:1037C000503E68F11A16F040A22F232F342F4427C1
:1037D000585FF3CF469537952795A795F0405395B9
:1037E000C9F77EF41F16BA0B620B730B840BBAF089
:1037F0009150A1F0FF0FBB1F661F771F881FC2F7F4
:103800000EC0BA0F621F731F841F48F48795779507
:103810006795B795F7959E3F08F0B0CF9395880FC1
:1038200008F09927EE0F9795879508950E94F91C47
:1038300008F481E008950E942F1C0C94341D0E940E
:103840002D1D58F00E94261D40F029F45F3F29F0FD
:103850000C941D1D51110C94681D0C94231D0E9485
:10386000451D68F39923B1F3552391F3951B550B2F
:10387000BB27AA2762177307840738F09F5F5F4F43
:10388000220F331F441FAA1FA9F335D00E2E3AF082
:10389000E0E832D091505040E695001CCAF72BD09A
:1038A000FE2F29D0660F771F881FBB1F26173707EB
:1038B0004807AB07B0E809F0BB0B802DBF01FF271D
:1038C00093585F4F3AF09E3F510578F00C941D1DC0
:1038D0000C94681D5F3FE4F3983ED4F3869577958A
:1038E0006795B795F7959F5FC9F7880F911D9695D6
:1038F000879597F90895E1E0660F771F881FBB1F32
:10390000621773078407BA0720F0621B730B840BDE
:10391000BA0BEE1F88F7E09508950E944D1D88F0C0
:103920009F5798F0B92F9927B751B0F0E1F0660F83
:10393000771F881F991F1AF0BA95C9F714C0B130C4
:1039400091F00E94671DB1E008950C94671D672FE8
:10395000782F8827B85F39F0B93FCCF386957795F3
:103960006795B395D9F73EF49095809570956195DC
:103970007F4F8F4F9F4F0895E89409C097FB3EF407
:1039800090958095709561957F4F8F4F9F4F9923AC
:10399000A9F0F92F96E9BB279395F695879577952A
:1039A0006795B795F111F8CFFAF4BB0F11F460FFEA
:1039B0001BC06F5F7F4F8F4F9F4F16C0882311F042
:1039C00096E911C0772321F09EE8872F762F05C056
:1039D000662371F096E8862F70E060E02AF09A95F1
:1039E000660F771F881FDAF7880F9695879597F9E6
:1039F0000895990F0008550FAA0BE0E8FEEF161680
:103A00001706E807F907C0F012161306E407F507D2
:103A100098F0621B730B840B950B39F40A2661F046
:103A2000232B242B252B21F408950A2609F4A140E9
:103A3000A6958FEF811D811D089597F99F6780E8F6
:103A400070E060E008959FEF80EC089500240A94F0
:103A50001616170618060906089500240A94121669
:103A60001306140605060895092E0394000C11F49C
:103A7000882352F0BB0F40F4BF2B11F460FF04C049
:103A80006F5F7F4F8F4F9F4F089557FD9058440FA2
:103A9000551F59F05F3F71F04795880F97FB991FAD
:103AA00061F09F3F79F0879508951216130614066A
:103AB000551FF2CF4695F1DF08C0161617061806F7
:103AC000991FF1CF86957105610508940895E894D2
:103AD000BB2766277727CB0197F908950E94F91C29
:103AE00008F48FEF08950E94861D0C94341D0E94E7
:103AF000261D38F00E942D1D20F0952311F00C9406
:103B00001D1D0C94231D11240C94681D0E94451D3D
:103B100070F3959FC1F3950F50E0551F629FF00120
:103B2000729FBB27F00DB11D639FAA27F00DB11D39
:103B3000AA1F649F6627B00DA11D661F829F2227C2
:103B4000B00DA11D621F739FB00DA11D621F839F49
:103B5000A00D611D221F749F3327A00D611D231F1F
:103B6000849F600D211D822F762F6A2F11249F576D
:103B700050409AF0F1F088234AF0EE0FFF1FBB1F70
:103B8000661F771F881F91505040A9F79E3F51052F
:103B900080F00C941D1D0C94681D5F3FE4F3983E6B
:103BA000D4F3869577956795B795F795E7959F5FD9
:103BB000C1F7FE2B880F911D9695879597F908956B
:103BC0000E94F91C880B990B089597FB072E16F499
:103BD000009407D077FD09D00E941B1E07FC05D07A
:103BE0003EF4909581959F4F0895709561957F4F14
:103BF0000895A1E21A2EAA1BBB1BFD010DC0AA1F2E
:103C0000BB1FEE1FFF1FA217B307E407F50720F045
:103C1000A21BB30BE40BF50B661F771F881F991FC0
:103C20001A9469F760957095809590959B01AC0109
:103C3000BD01CF010895AA1BBB1B51E107C0AA1FFC
:103C4000BB1FA617B70710F0A61BB70B881F991F3D
:103C50005A95A9F780959095BC01CD010895EE0F76
:103C6000FF1F0590F491E02D099481E090E0F89415
:103C70000C943A1E10E0C1EFD0E004C0FE010E9497
:0E3C80002F1E2196C23FD107C9F7F894FFCF3F
:103C8E000100FF0000A7048000000000001D018558
:103C9E0002000000001C01810200000000B7046C4D
:103CAE00020000000000000000650B9F0B070BEDEB
:103CBE000AEC0AF50A090BF30EEB0AEA0A000000F9
:103CCE0000B90EC10E4F0B9F0B070BED0A4F0FF5F0
:103CDE000A360BF30EEB0AEA0A1800000000000089
:103CEE00000000E8FFE8FF000000000000140000E4
:103CFE0000000000000000ECFFECFF0000000000E0
:103D0E000000000000770AE0090F0ABE0A400A1EF2
:103D1E000A320A06000000000089028B02FAFFFA3E
:103D2E00FF00008A028D02180000000000AA02C1E6
:103D3E0002E8FFE8FF0000B702CB02AD015F0169A8
:103D4E0001B701000000001C0887022E022B02287A
:103D5E0002250222029901950192017C019C01200B
:103D6E00011E01020000000000D702D902FEFFFE74
:103D7E00FF0000D802DB02000000001E0823030033
:103D8E000000001D08D5022E022B02280225022259
:103D9E00021602D001B7019E019C01D803B703148D
:103DAE000000000000F8020F03ECFFECFF0000051E
:103DBE00031903250273017D012F0200000000820A
:103DCE0005830200000000F406FC0600000000B8A7
:103DDE0004CB04000000006E027702000000007B9E
:103DEE000B950B0000000000000000090B090B00F2
:103DFE0000000000000000090B0000000026083A39
:103E0E00102B0492073F10FEFF000039103C10C724
:103E1E001025006B560020736574426174746572D0
:103E2E00794C6F77456E61626C656420000D0A00F7
:103E3E0042540048560053455453005345540054C1
:103E4E004C530054425A00415400535550003F0009
:0C3E5E006E616E00696E66006F76660093
:00000001FF
