:100000000C9400010C9428010C9428010C942801F4
:100010000C9428010C9428010C9428010C94670876
:100020000C9428010C9428010C9428010C942801AC
:100030000C9428010C9428010C9428010C9428019C
:100040000C9440170C9428010C94010C0C94DB0BBD
:100050000C9428010C9428010C9428010C9428017C
:100060000C9428010C94280107634236B79BD8A74B
:100070001A39685618AEBAAB558C1D3CB7CC5763CD
:10008000BD6DEDFD753EF6177231BF000000803F7B
:100090000001020304051112131415160A0B0C0DAE
:1000A0000E0F526164696F204552524F52005261E7
:1000B00064696F20426567696E005D002C20002036
:1000C000706172616D733A5B0020736F7572636566
:1000D0003A002069643A00434D4420004672656549
:1000E0002052414D20616674657220434D44203D8D
:1000F000200045786563757465200046726565204B
:1001000052414D203D2000534C415645204F4B005D
:1001100052656365697665643A2000526164696F6F
:1001200020506F776572446F776E00467265652068
:1001300052414D203D2000536C617665205246208F
:100140004D657373616765205265636569766564A3
:100150003A2000000000080002010000030407002C
:100160000000000000000000000000250028002B17
:100170000000000000240027002A000404040404F6
:100180000404040202020202020303030303030144
:10019000020408102040800102040810200102041B
:1001A00008102002526164696F20506F77657255A4
:1001B000700052462053656E743A200056205065F8
:1001C0007263656E746167653A200020566F6C74C7
:1001D0006167653A200042617474657279205661E6
:1001E0006C75653A20004261747465727920416CC7
:1001F00061726D2053746174653A2000752337274E
:1002000011241FBECFEFD8E0DEBFCDBF13E0A0E0CA
:10021000B1E0E6E2FFE502C005900D92A635B10718
:10022000D9F725E0A6E5B3E001C01D92AE37B207CD
:10023000E1F710E0CFEFD0E004C02197FE010E946B
:100240003B2FCE3FD107C9F70E948A170C94862F07
:100250000C9400000895CF92DF92EF92FF920F93DB
:100260001F93FB01DC0100E010E098016A01E12C22
:10027000F12C0C151D052E053F0538F461916D9389
:100280000F5F1F4F2F4F3F4FF4CF840F951F1F91CC
:100290000F91FF90EF90DF90CF9008950895CB01DC
:1002A00008957F928F929F92AF92BF92CF92DF92EA
:1002B000EF92FF920F931F93CF93DF93EC014901CD
:1002C0005A018B01C12CD12C7601C814D904EA043F
:1002D000FB0484F5F80171908F018F8580FF0BC0BE
:1002E000E881F9810084F185E02D20E144E060E0BF
:1002F00070E0CE010995EB85FC858D859E85E8171C
:10030000F90738F470828B859C8501969C878B87D2
:100310000BC0E881F981672D70E0028CF38DE02D30
:10032000CE010995019649F02FEFC21AD20AE20ACE
:10033000F20ACBCFB401C50102C0B601C701DF91FB
:10034000CF911F910F91FF90EF90DF90CF90BF90D2
:10035000AF909F908F907F900895CF93DF93EC01A3
:10036000E881F9810288F389E02D09958F3F2FEF0D
:10037000920731F02D813E812F5F3F4F3E832D83C9
:10038000DF91CF9108958FEF9FEF089560E070E0C7
:10039000CB01089580E090E00895CB010895CF93BC
:1003A000DF93EC0188899989DC01ED91FC9100844F
:1003B000F185E02D0995892BA9F388899989DC01BC
:1003C000ED91FC910284F385E02DDF91CF910994AA
:1003D000CF93DF93EC0188899989DC01ED91FC9141
:1003E0000084F185E02D0995892BA9F388899989E5
:1003F000DC01ED91FC910484F585E02DDF91CF9136
:100400000994AF92BF92CF92DF92EF92FF920F9337
:100410001F93CF93DF9300D000D0CDB7DEB78C0110
:100420005B01C12CD12C7601F80180899189DC0116
:10043000ED91FC910284F385E02D29833A834B836F
:100440005C83099529813A814B815C818F3F71F0F2
:10045000C216D306E406F5064CF4D5018D935D0172
:10046000BFEFCB1ADB0AEB0AFB0ADECFC701B601EE
:100470000F900F900F900F90DF91CF911F910F91E0
:10048000FF90EF90DF90CF90BF90AF900895DC0188
:1004900050968D919C915197DC01ED91FC910084D7
:1004A000F185E02D099480E090E0089580E090E0EF
:1004B000089580E090E0089580E090E00895089528
:1004C000CF93DF93C0911E04D0911F04E881F9817E
:1004D0000084F185E02DCE010995892BB9F3E881DF
:1004E000F9810284F385E02DCE01DF91CF9109944B
:1004F0001F93CF93DF93182FC0911E04D0911F0438
:100500008A3041F4E881F9810190F081E02D6DE0BD
:10051000CE010995E881F9810190F081E02D612FEC
:10052000CE01099521E030E0019711F420E030E0A0
:10053000C901DF91CF911F9108950C940C280C9460
:100540000C280C940C28089508950C940C28DC01B8
:10055000ED91FC91369720813181820F931F0C948D
:10056000A502FB0120813181FC0131832083FB0145
:1005700042815381F901369720813181FC01E20FDC
:10058000F31F5183408308952EEA31E0FC0131834B
:10059000208328EB31E0318F208F6EEB71E00C94DB
:1005A000B102DC01ED91FC91369720813181820FFF
:1005B000931F0C94C402CF93DF93EC010E94C402FA
:1005C000CE01DF91CF910C940C28DC01ED91FC91D0
:1005D000369720813181820F931F0C94DB020C949B
:1005E0000C28089508950C940C28DC01ED91FC91E1
:1005F000369720813181820F931F0C94F302FB0107
:1006000020813181FC0131832083FB0142815381B0
:10061000F901369720813181FC01E20FF31F5183EC
:100620004083089526E232E0FC013183208320E3F9
:1006300032E0358B248B66E372E00C94FF02DC0120
:10064000ED91FC91369720813181820F931F0C949C
:100650001203CF93DF93EC010E941203CE01DF91CE
:10066000CF910C940C28DC01ED91FC913697208100
:100670003181820F931F0C9429030C940C280F9343
:100680001F93CF93DF938C01EB016F3F8FEF7807C0
:1006900019F480E090E00FC06A3031F46DE0F801A9
:1006A000808991890E942A0B6C2FF8018089918999
:1006B0000E942A0BCE01DF91CF911F910F910895D7
:1006C0008F929F92BF92CF92DF92EF92FF920F9301
:1006D0001F93CF93DF9300D000D0CDB7DEB78C014E
:1006E0004B01C12CD12C7601C216D306E406F506C7
:1006F00044F5F401B1904F01FAE0BF120EC06DE075
:10070000F8018089918929833A834B835C830E9415
:100710002A0B5C814B813A8129816B2DF8018089FC
:10072000918929833A834B835C830E942A0BFFEFD4
:10073000CF1ADF0AEF0AFF0A5C814B813A812981D7
:10074000D3CFCA01B9010F900F900F900F90DF9196
:10075000CF911F910F91FF90EF90DF90CF90BF90BE
:100760009F908F900895EF92FF920F931F93CF93D6
:10077000DF93EC019B8196FB882780F9861709F4AB
:100780005CC0662311F190649B8397FD56C07E0187
:1007900086E1E80EF11CC7010E94921185E090E00D
:1007A0000E9477278C01FC011082148213828EE94B
:1007B00097E09283818385E090E00E947727FC0197
:1007C0008FEF808382E390E027C09F7B9B8397FD20
:1007D00034C07E01F6E1EF0EF11CC7010E949211B8
:1007E0008B8185FF2AC0C7010E94921185E090E0AD
:1007F0000E9477278C01FC0110821482138284EFFF
:1008000091E09283818385E090E00E947727FC014C
:100810008FEF80838AEF90E0928381831483038338
:10082000FA8FE98FFEA3EDA3C701DF91CF911F914E
:100830000F91FF90EF900C941C12DF91CF911F91BC
:100840000F91FF90EF9008950F931F93CF93DF9335
:100850008091590390915A03892B09F06EC08CE462
:1008600090E00E947727EC0186E591E099838883E8
:100870001A821B8202EE12E01D830C8386E08E83B7
:1008800018861F821A8619861C861B861D861E8660
:100890001F86188A1A8A198A1C8A1B8A1D8A0E9436
:1008A000CE051F8B0E8B88E0888F1A8E198E1C8EBA
:1008B0001B8E1E8E1D8E1F8E18A219A21AA21CA29C
:1008C0001BA21EA21DA21FA20E94CE0519A708A747
:1008D00087E08AA71CA61BA61EA61DA618AA1FA6EF
:1008E00019AA1AAA1BAA1CAA1EAA1DAA18AE1FAAD8
:1008F00019AE0E94CE058AEE92E09BAF8AAF85E0EA
:100900008CAF1EAE1DAEFE01FF9611821082329694
:1009100010823196118210823296108211821282D8
:1009200013823496118210823296118210820E94B4
:10093000CE05D0935A03C0935903809159039091E7
:100940005A03DF91CF911F910F9108950895089553
:100950000895089561E00C94F9151F93CF93DF93E8
:10096000EC010E94111681EE0E941416182FCE0180
:100970000E94AA04812FDF91CF911F910895EF92D9
:10098000FF921F93CF93DF9300D0CDB7DEB77C01EA
:100990004A8369830E9411166981862F8F71806254
:1009A0000E941416182F4A81842F0E941416C70122
:1009B0000E94AA04812F0F900F90DF91CF911F9179
:1009C000FF90EF900895CF92DF92EF92FF920F93F6
:1009D0001F93CF93DF9300D01F92CDB7DEB77C017A
:1009E000142F2A835B8369830E9411166981862FE5
:1009F0008F7180620E941416082FC12E5B81D52E44
:100A00002A81120F1C1531F0F60181916F010E94AD
:100A10001416F8CFC7010E94AA04802F0F900F90E0
:100A20000F90DF91CF911F910F91FF90EF90DF908A
:100A3000CF900895EF92FF921F93CF93DF931F9271
:100A4000CDB7DEB77C0169830E9411166981862FBC
:100A50008F710E9414168FEF0E941416182FC70171
:100A60000E94AA04812F0F90DF91CF911F91FF90D8
:100A7000EF900895CF93DF93EC0160E00E941A0598
:100A800081FD0EC0482F426060E0CE010E94BF048D
:100A900065E070E080E090E0DF91CF910C94CE06AD
:100AA000DF91CF910895CF93DF93EC0160E00E9436
:100AB000ED15888999890E94C3066DE1CE010E94D7
:100AC0001A0581FF07C0888999890E94C306CE0153
:100AD0000E94AD0460E0CE010E941A05482F4E7FAF
:100AE00060E0CE010E94BF0462E0CE010E941A05C0
:100AF000E0E9F0E0E49141E050E001C0440FEA9504
:100B0000EAF7482B62E0CE01DF91CF910C94BF044D
:100B1000CF93DF93EC010E943A0560E0CE010E9482
:100B20001A05482F416060E0CE010E94BF0440E7F3
:100B300067E0CE010E94BF0461E0CE010E94ED1586
:100B40008985882349F02E85AE01475F5F4F6AE0B3
:100B5000CE010E94E30414C062E0CE010E941A0597
:100B6000E0E9F0E0E49121E030E001C0220FEA95F5
:100B7000EAF72095422F482362E0CE010E94BF048D
:100B80006DE1CE010E941A0581FF05C0CE01DF9103
:100B9000CF910C94AD04DF91CF91089590E0FC01CA
:100BA000E157FE4F2491FC01E558FE4F84918823C4
:100BB00099F090E0880F991FFC01EF58FE4FA59126
:100BC000B491FC01E959FE4F859194918FB7F89447
:100BD000EC91E22BEC938FBF0895CF92DF92EF92CE
:100BE000FF920F931F93CF93DF938C016B01770FCD
:100BF000EE08FF08F7FE12C06DE20E942A0BEC011E
:100C000044275527BA014C195D096E097F092AE06E
:100C1000C8010E946A0BC80FD91F06C02AE0B7019D
:100C2000A6010E946A0BEC0166EF72E0C8010E9407
:100C3000550B8C0F9D1FDF91CF911F910F91FF904E
:100C4000EF90DF90CF9008950F931F93CF938C0177
:100C500066E080E993E00E941A05C82FC77D023044
:100C6000110531F4C0628BE990E0A0E0B0E00DC066
:100C70000130110529F085E590E0A0E0B0E005C065
:100C8000C86081E490E0A0E0B0E08093A00390937E
:100C9000A103A093A203B093A3034C2F66E080E9C5
:100CA00093E00E94BF0466E080E993E00E941A0589
:100CB00091E08C1390E0892FCF911F910F910895AF
:100CC00090E0FC01ED5AFE4F3491FC01E157FE4FDC
:100CD0002491FC01E558FE4FE491EE2309F43BC05A
:100CE000332339F1333091F038F43130A9F0323018
:100CF00001F584B58F7D12C0373091F03830A1F006
:100D00003430B9F4809180008F7D03C080918000E1
:100D10008F77809380000DC084B58F7784BD09C024
:100D20008091B0008F7703C08091B0008F7D809359
:100D3000B000F0E0EE0FFF1FE959FE4FA591B4910E
:100D40008FB7F894EC91611103C020952E2301C058
:100D50002E2B2C938FBF08958E3008F08E50877005
:100D6000806480937C0080917A00806480937A0014
:100D700080917A0086FDFCCF8091780020917900E7
:100D800090E0922B08958230910538F0880F991FDA
:100D9000880F991F05970197F1F708958F929F92F9
:100DA000AF92BF92CF92DF92EF92FF926B017C01E4
:100DB0000E940F174B015C01C114D104E104F1043E
:100DC000F1F00E940F17DC01CB0188199909AA09DB
:100DD000BB09883E9340A105B10570F321E0C21A1A
:100DE000D108E108F10888EE880E83E0981EA11C66
:100DF000B11CC114D104E104F10419F7DDCFFF9057
:100E0000EF90DF90CF90BF90AF909F908F9008951C
:100E1000CF92DF92EF92FF920F931F93CF93DF93C6
:100E20006C017A018B01C0E0D0E0CE15DF0589F0BE
:100E3000D8016D918D01D601ED91FC910190F08169
:100E4000E02DC6010995892B11F47E0102C021967F
:100E5000ECCFC701DF91CF911F910F91FF90EF90E1
:100E6000DF90CF900895089580E090E00895FC0110
:100E7000538D448D252F30E0842F90E0821B930BFF
:100E8000541710F0CF96089501970895FC01918DA5
:100E9000828D981761F0828DDF01A80FB11D5D96DC
:100EA0008C91928D9F5F9F73928F90E008958FEF4A
:100EB0009FEF0895FC01918D828D981731F0828DFE
:100EC000E80FF11D858D90E008958FEF9FEF089555
:100ED000FC01918D228D892F90E0805C9F4F821BB9
:100EE00091098F739927089580E594E00E9468071F
:100EF00021E0892B09F420E0822F0895FC01848DE4
:100F0000DF01A80FB11DA35ABF4F2C91848D90E033
:100F100001968F739927848FA689B7892C93A0890E
:100F2000B1898C9180648C93938D848D981306C0C5
:100F30000288F389E02D80818F7D80830895EF9270
:100F4000FF920F931F93CF93DF93EC0181E0888F83
:100F50009B8D8C8D981305C0E889F989808185FD6A
:100F600024C0F62E0B8D10E00F5F1F4F0F7311275B
:100F7000E02E8C8DE8120CC00FB607FCFACFE88982
:100F8000F989808185FFF5CFCE010E947E07F1CFE0
:100F90008B8DFE01E80FF11DE35AFF4FF0820B8F9E
:100FA000EA89FB898081806207C0EE89FF896083BE
:100FB000E889F98980818064808381E090E0DF9115
:100FC000CF911F910F91FF90EF900895CF93DF93F2
:100FD000EC01888D8823C9F0EA89FB89808185FD31
:100FE00005C0A889B9898C9186FD0FC00FB607FC92
:100FF000F5CF808185FFF2CFA889B9898C9185FFD3
:10100000EDCFCE010E947E07E7CFDF91CF9108950B
:1010100080E090E0892B29F00E94740781110C94E4
:10102000000008950895CF93DF9300D000D0CDB78E
:10103000DEB7FC0149835A836B837C838089918965
:10104000009769F0BF01DC01ED91FC910480F5810E
:10105000E02D9E012F5F3F4F44E150E009950F9036
:101060000F900F900F90DF91CF9108950E94502F15
:101070000C940C280C940C2890910201981324C015
:10108000E3EAF1E0E4919FEF90930201E130B9F0DF
:1010900098F0E230C9F4909170009D7F90937000B9
:1010A00091E09093B0009091B100987F94609093FC
:1010B000B1001092B30008C010926E0005C090916C
:1010C0006F009D7F90936F0060E00C9460061F920C
:1010D0000F920FB60F9211242F933F934F935F936C
:1010E0006F937F938F939F93AF93BF93EF93FF93F0
:1010F0008091720390917303A0917403B091750372
:10110000892B8A2B8B2B51F180917103E0916F0316
:10111000F091700390818927808380917203909170
:101120007303A0917403B0917503181619061A067B
:101130001B06C4F48091720390917303A091740311
:10114000B09175030197A109B1098093720390933F
:101150007303A0937403B093750304C080910201DC
:101160000E943C08FF91EF91BF91AF919F918F91A9
:101170007F916F915F914F913F912F910F900FBE93
:101180000F901F9018953F924F925F926F927F92AF
:101190008F929F92AF92BF92CF92DF92EF92FF9287
:1011A0000F931F93CF93DF9300D000D0CDB7DEB75E
:1011B00090910201981721F09F3F09F035C204C0B9
:1011C000E3EAF1E0349081C080930201E3EAF1E0C8
:1011D000E491EF3F09F428C2E13031F1E23009F443
:1011E0004BC0E11171C014BC15BC94B5926094BDA4
:1011F00095B5916095BDA82FB0E0FD01E558FE4F73
:10120000E491F0E0EE0FFF1FE959FE4F05911491B4
:101210001093660300936503FD01E157FE4FE491CF
:10122000E0936403312C53C010928000109281002F
:1012300090918100986090938100909181009160DD
:1012400090938100A82FB0E0FD01E558FE4FE49196
:10125000F0E0EE0FFF1FE959FE4F05911491109336
:10126000630300936203FD01E157FE4FE491E093B5
:101270006103332433942BC01092B0001092B1005C
:101280009091B00092609093B0009091B100916005
:101290009093B100A82FB0E0FD01E558FE4FE49116
:1012A000F0E0EE0FFF1FE959FE4F059114911093E6
:1012B000700300936F03FD01E157FE4FE491E0934B
:1012C000710302E0302E03C03E2E37FCADC1290170
:1012D0003A018B010E94CE054801A12CB12C832D2F
:1012E0008D7F09F0BBC060E072E18AE790E0A50164
:1012F00094010E94112F29833A834B835C836901F7
:101300007A0121E0C21AD108E108F1088FEFC8166E
:10131000D104E104F10409F008F44CC060E472E483
:101320008FE090E0A50194010E94112F69017A01DC
:10133000E1E0CE1AD108E108F108F2E03F1220C046
:101340002FEFC216D104E104F10409F008F46AC1D8
:1013500060E970ED83E090E0A50194010E94112FF7
:1013600069017A0181E0C81AD108E108F108EFEFBC
:10137000CE16D104E104F10409F0D0F583E067C092
:10138000FFEFCF16D104E104F104B1F0A8F068E456
:1013900078EE81E090E0A50194010E94112F69018F
:1013A0007A0181E0C81AD108E108F108332009F474
:1013B000DFC02FC181E001C082E03320A1F047C02F
:1013C00089819A81AB81BC812AE0B595A7959795D3
:1013D00087952A95D1F76C017D0121E0C21AD108C9
:1013E000E108F10885E095B5987F892B85BD6FC030
:1013F00068E478EE81E090E0A50194010E94112F4D
:1014000069017A01F1E0CF1AD108E108F1082FEF64
:10141000C216D104E104F10409F008F4A7C064E2A3
:1014200074EF80E090E0A50194010E94112F690102
:101430007A01E1E0CE1AD108E108F108FFEFCF16FA
:10144000D104E104F10411F008F0B4C085E09091FA
:10145000B100987F892B8093B10039C060E072E1C0
:101460008AE790E0A50194010E94112F69017A0199
:1014700081E0C81AD108E108F108C114D104E1E003
:10148000EE06F10488F068E478EE81E090E0A501D2
:1014900094010E94112F69017A01F1E0CF1AD1085D
:1014A000E108F10893E001C091E021E032120FC0A1
:1014B00080918100887F892B8093810041145104A1
:1014C0006104710449F42FEF3FEFA9012DC04114CD
:1014D00051046104710471F0D801AA0FBB1FA3016C
:1014E00092010E94302F28EE33E040E050E00E944D
:1014F000EF2E03C02FEF3FEFA90181E03816A1F0D6
:10150000E2E03E1619F131108FC0C7BC20936B0387
:1015100030936C0340936D0350936E0380916E0083
:10152000826080936E0080C0D0928900C092880053
:1015300020936703309368034093690350936A03D1
:1015400080916F00826080936F006EC0C092B30084
:101550002093720330937303409374035093750385
:10156000809170008260809370005EC084E06FCFD5
:10157000FFEFCF16D104E104F104D1F0C8F062E12D
:101580007AE780E090E0A50194010E94112F6901A3
:101590007A0181E0C81AD108E108F108EFEFCE1610
:1015A000D104E104F10411F008F00ACF84E01BCF6C
:1015B00083E019CF62E17AE780E090E0A501940131
:1015C0000E94112F69017A0181E0C81AD108E1084F
:1015D000F108EFEFCE16D104E104F104C1F0B8F048
:1015E00089819A81AB81BC814AE0B595A795979591
:1015F00087954A95D1F76C017D0121E0C21AD10887
:10160000E108F108332009F4EDCE87E020CF86E031
:10161000D4CEFFEFCF16D104E104F10409F050F667
:1016200084E0CBCE82E013CF0F900F900F900F90FD
:10163000DF91CF911F910F91FF90EF90DF90CF90AE
:10164000BF90AF909F908F907F906F905F904F90E2
:101650003F900895DC01ED91FC910190F081E02D27
:101660000994EF92FF920F931F93CF93DF938C0116
:101670007B01C0E0D0E0F701EC0FFD1F6491662311
:1016800061F0D801ED91FC910190F081E02DC8014D
:101690000995892B11F02196EECFCE01DF91CF91E4
:1016A0001F910F91FF90EF9008956115710579F0EA
:1016B000FB0101900020E9F73197AF01461B570B62
:1016C000DC01ED91FC910280F381E02D099480E032
:1016D00090E008954F925F926F927F92EF92FF9207
:1016E0000F931F93CF93DF93CDB7DEB7A1970FB6BC
:1016F000F894DEBF0FBECDBF7C01FA01CB0119A269
:10170000223008F42AE08E010F5D1F4F422E512C2B
:10171000612C712CBF01A30192010E94EF2EF901EF
:10172000CA01015011096A3014F4605D01C0695C9E
:10173000D8016C93232B242B252B61F7B801C7010B
:101740000E94550BA1960FB6F894DEBF0FBECDBF19
:10175000DF91CF911F910F91FF90EF907F906F904D
:101760005F904F9008950F931F93CF93DF93EC01F9
:101770000E94550B8C0166EF72E0CE010E94550B62
:10178000800F911FDF91CF911F910F9108950F93BB
:101790001F93CF93DF93EC010E94310B8C0166EF16
:1017A00072E0CE010E94550B800F911FDF91CF9107
:1017B0001F910F9108951F920F920FB60F9211244F
:1017C0002F933F934F935F936F937F938F939F9349
:1017D000AF93BF93EF93FF9380E594E00E947E0761
:1017E000FF91EF91BF91AF919F918F917F916F91F9
:1017F0005F914F913F912F910F900FBE0F901F90CF
:1018000018951F920F920FB60F9211242F938F935A
:101810009F93EF93FF93E0916004F09161048081C6
:10182000E0916604F091670482FD12C0908180917E
:1018300069048F5F8F7320916A04821751F0E091E1
:101840006904F0E0E05BFB4F958F8093690401C071
:101850008081FF91EF919F918F912F910F900FBEFB
:101860000F901F901895089508954F925F926F9270
:101870007F928F929F92AF92BF92CF92DF92EF9220
:10188000FF920F931F93CF93DF93CDB7DEB72897C7
:101890000FB6F894DEBF0FBECDBF8C016A017B018D
:1018A0000E940F174B015C01F801828D938DA48D6E
:1018B000B58DA5019401281B390B4A0B5B0BCA019E
:1018C000B9010E941D2D9B01AC01D80156966D9364
:1018D0007D938D939C935997F801828E938EA48E5D
:1018E000B58E1A968D919D910D90BC91A02D8983F6
:1018F0009A83AB83BC8386879787A08BB18BC28A80
:10190000D38AE48AF58A82809380A480B580C50159
:10191000B4010E94392C9B01AC01F80166837783E6
:101920008087918760E070E080E89FEB0E94392C0F
:101930000E94B32C2B013C019B01AC0160E070E0E4
:1019400080E89FE30E94C72BA70196010E946F2E9B
:101950006D837E838F83988729813A814B815C8157
:10196000C301B2010E946F2E9B01AC016D817E818B
:101970008F8198850E94C82B2B013C01D8011A96B3
:101980006D937D938D939C931D978D919C91813048
:101990009105D1F14CF4892BA1F5A3019201C70166
:1019A000B6010E94C72B2AC082309105C9F0039767
:1019B00041F5A3019201C701B6010E94C72B6B013B
:1019C0007C0120E034E244E759E4C501B4010E94FF
:1019D000392C9B01AC01C701B6010E94392C0EC005
:1019E00020E034E244E759E4C501B4010E94392CF7
:1019F0009B01AC01C301B2010E946F2E2B013C017F
:101A000003C0412C512C3201C301B20128960FB6FC
:101A1000F894DEBF0FBECDBFDF91CF911F910F9124
:101A2000FF90EF90DF90CF90BF90AF909F908F90FE
:101A30007F906F905F904F90089525E431E0DC0136
:101A400011963C932E9316968D919C911797009723
:101A500039F0DC01ED91FC910280F381E02D0994D5
:101A60000895CF93DF93EC010E941D0DCE01DF910D
:101A7000CF910C940C288F929F92AF92BF92CF92ED
:101A8000DF92EF92FF920F931F93CF93DF93EC01BE
:101A90000E9434172E853F856901E12CF12C0A85BF
:101AA0001B852C853D8546015701801A910AA20AA3
:101AB000B30ADC01CB01880D991DAA1DBB1DE88965
:101AC000F9894481558160E070E084179507A60785
:101AD000B70708F440C01F861E860E9434176A8725
:101AE0007B878C879D87E889F98966817781611575
:101AF000710579F4888599850196998788872D8164
:101B00003E816B817C812115310519F08217930785
:101B10008CF4798B688BCE01DF91CF911F910F915F
:101B2000FF90EF90DF90CF90BF90AF909F908F90FD
:101B30000C94950E1F82798B688B1F861E868A8176
:101B40000E943C08288539858D819E812817390798
:101B500011F419861886DF91CF911F910F91FF9094
:101B6000EF90DF90CF90BF90AF909F908F900895AF
:101B7000089508950895FC019285915081E0923076
:101B800008F080E00895DC011A962C91261759F090
:101B9000FC0162870190F081E02D0688F789E02D35
:101BA000099581E0089580E00895039608950895C9
:101BB00008950C940C28CF93DF93EC0182ED92E012
:101BC000998388838091760390917703009739F009
:101BD000DC01ED91FC910280F381E02D09958A8171
:101BE0009B81DF91CF910C940C28CF93DF93EC0174
:101BF0000E94DB0DCE01DF91CF910C940C280C9448
:101C00000C280C940C280C940C28CF93DF93EC0137
:101C10000E949713FC0115860E947F1261E086E006
:101C20000E94600661E088E00E94600661E087E053
:101C30000E9460062AEF30E040E050E060EA7FE07A
:101C400085E00E94C3080E9434176D877E878F87C6
:101C5000988B82E0DF91CF9108950F931F93CF93DC
:101C6000DF931F92CDB7DEB78C01AE014F5F5F4FA0
:101C700066E373E00E94D216C8010F90DF91CF9106
:101C80001F910F9108950F931F93CF93DF931F928E
:101C9000CDB7DEB78C01AE014F5F5F4F6AE373E0F3
:101CA0000E94D216C8010F90DF91CF911F910F9122
:101CB0000895AF92BF92CF92DF92EF92FF920F936F
:101CC0001F93CF93DF93FC01248135816217730743
:101CD00008F56B01EC0187E0869F5001879FB00CEF
:101CE00011248B01E12CF12C8C819D81081719079F
:101CF00078F4C7018A0D9B1D28813981820F931FBB
:101D00000E947F160F5F1F4FF7E0EF0EF11CECCF24
:101D1000DD82CC82DF91CF911F910F91FF90EF90E8
:101D2000DF90CF90BF90AF9008956115710589F055
:101D3000FB01628173816115710539F020E030E0AB
:101D4000A901FC0182810C94C308FC0182810C94DE
:101D50003C08089508952DE031E0FC013183208393
:101D600003960C94AF16CF93DF93EC010E94AB0E59
:101D7000CE01DF91CF910C940C28CF93DF9380910B
:101D8000760390917703892BC9F489E090E00E9453
:101D90007727EC0182ED92E09983888388E090E0D8
:101DA0009D838C831F821E8280E190E00E947727B2
:101DB0009B838A83D0937703C093760380917603C5
:101DC00090917703DF91CF910895EF92FF920F9357
:101DD0001F93CF93DF938C01DC01ED91FC9106847E
:101DE000F785E02D63E009950E94BD0EEC01011519
:101DF000110509F441C0EA81FB814E815F81CA016E
:101E0000880F991F8E0F9F1FDF01A817B90741F098
:101E10002D913D9120173107C1F321933193F5CFD7
:101E20008A819B819F01281B390BB90175956795A4
:101E3000AE1BBF0BCD0195958795FA01E81BF90BF9
:101E4000CF016817790798F4EA81FB817F01E20EE0
:101E5000F31E87010A0F1B1FF80100811181F70192
:101E6000118300836F5F7F4F2E5F3F4FEACF841750
:101E7000950710F49F838E83DF91CF911F910F916F
:101E8000FF90EF900895AF92BF92CF92DF92EF92C2
:101E9000FF920F931F93CF93DF937C010E9434171F
:101EA000F7010585168527853089DC01CB01801B6C
:101EB000910BA20BB30B853F9140A105B10508F42E
:101EC0005FC060E086E00E94600660E088E00E94FB
:101ED000600660E087E00E94600685E00E943C08A2
:101EE0000E942404EC018A818823E9F19B8192FD00
:101EF0003AC094609B8397FD36C05E0124E0A20E39
:101F0000B11CC5010E94921185E090E00E947727E4
:101F10006C01FC011082148213828CE79BE0928397
:101F2000818385E090E00E9477278C018FEFF80194
:101F3000808384E190E092838183D482C38285E0B0
:101F400090E00E947727FC0183E0808388E290E0A4
:101F50009283818314830383F887EF83FC8BEB8B5D
:101F6000C5010E941C12C701DF91CF911F910F91F3
:101F7000FF90EF90DF90CF90BF90AF900C94E50E64
:101F8000DF91CF911F910F91FF90EF90DF90CF9055
:101F9000BF90AF9008954F925F926F927F928F9211
:101FA0009F92AF92BF92CF92DF92EF92FF920F93E8
:101FB0001F93CF93DF931F92CDB7DEB77C012B0128
:101FC000FC01848195816C01FFEFCF1ADF0A8C152B
:101FD0009D0508F070C0F701228133812C153D0565
:101FE000F0F5099628173907D0F580809180938302
:101FF000828327E0AC01249FC001259F900D11240E
:102000000E947727F701918380835401612C712C02
:10201000F7018481958168167906F0F4F701208133
:102020003181C50188199909820F931F009751F0DA
:102030008E010F5F1F4F2FEF3FEF40E050E0B501E3
:102040000E94DC13C5010E947F16FFEF6F1A7F0A02
:1020500027E0A20EB11CDCCFC4010E940C28F701BE
:10206000A480B58087E08A9D30018B9D700C11247F
:10207000812C912CF701AC14BD04D0F42081318166
:10208000C401860D971D820F931F009751F08E019A
:102090000F5F1F4F2FEF3FEF40E050E0B2010E9473
:1020A000DC13FFEFAF1ABF0A27E0820E911CE2CFCC
:1020B000D582C48204C0B601C7010E94590E0F9098
:1020C000DF91CF911F910F91FF90EF90DF90CF9014
:1020D000BF90AF909F908F907F906F905F904F9048
:1020E0000895DF92EF92FF920F931F93CF93DF93A8
:1020F0008B0103967C0160E070E00E94590EF801AC
:10210000C081D18187E0D82EF80184819581D89E45
:102110009001D99E300D112480819181280F391FA3
:10212000C217D30731F0BE01C7010E94CB0F27961B
:10213000EBCFDF91CF911F910F91FF90EF90DF9048
:102140000895CF92DF92EF92FF920F931F93CF9358
:10215000DF931F92CDB7DEB78C01FB01E480F580E1
:10216000E416F50610F40E94502FE41AF50A2E1515
:102170003F0508F47901C080D180C40ED51E88E0E7
:1021800090E0F80193838283158214820E9477275E
:10219000F80191838083FFEFEF16FF0621F3F6012C
:1021A0008081181684F41982AE014F5F5F4FB7012A
:1021B000C8010E944516F80144815581B60180810D
:1021C00091810E942B01C8010F90DF91CF911F9147
:1021D0000F91FF90EF90DF90CF90089508950895AC
:1021E00022E832E0DC012D933C9380915B039091D7
:1021F0005C03009739F0DC01ED91FC910280F381E2
:10220000E02D09940895CF93DF93EC010E94F01024
:10221000CE01DF91CF910C940C28CF93DF93EC018A
:10222000ADA5BEA5109761F0ED91FC9111970680C8
:10223000F781E02D4CA5BC01CD01DF91CF91099430
:10224000DF91CF910895089508950895CF93DF9376
:102250006115710509F45FC0FB01C081CF3F11F426
:1022600061E003C0C11104C060E0FC0182814FC085
:10227000FC01D2818D2F0E94CE05ED2FF0E0ED5AAA
:10228000FE4FE491E33009F148F4E130C9F0E23067
:10229000C1F584B5806284BDC8BD3DC0E73009F199
:1022A000E83039F1E43069F58091800080628093F4
:1022B00080008C2F90E090938B0080938A002BC03D
:1022C00084B5806884BDC7BD26C0809180008068C9
:1022D000809380008C2F90E09093890080938800F9
:1022E0001AC08091B00080688093B000C093B300A2
:1022F00012C08091B00080628093B000C093B4009F
:102300000AC0C03810F460E001C061E08D2FDF9199
:10231000CF910C946006DF91CF9108950C940C2816
:102320000C940C28FC01118A83819481908B8787FF
:102330001686158660E082810C9460068F929F92CB
:10234000AF92BF92CF92DF92EF92FF920F931F93C3
:10235000CF93DF93FC012189223009F060C0EC01AA
:102360000E9434172D853E856901E12CF12C0985E9
:102370001A852B853C8546015701801A910AA20ACD
:10238000B30ADC01CB01880D991DAA1DBB1DEF8589
:10239000F8894181528160E070E084179507A607B3
:1023A000B707E8F11E861D860E94341769877A8771
:1023B0008B879C87EF85F88963817481611571052E
:1023C00079F48F819885019698878F832D813E813E
:1023D0002115310519F0821793079CF46B817C81DC
:1023E000788B6F87CE01DF91CF911F910F91FF9076
:1023F000EF90DF90CF90BF90AF909F908F900C9414
:102400002611188A1F86CE010E9492112F813885CD
:102410008D819E812817390711F418861F82DF915C
:10242000CF911F910F91FF90EF90DF90CF90BF90D1
:10243000AF909F908F900895CF93DF93FC0183819D
:102440009481892BC9F081898230B1F0811104C057
:102450001686158610861782EF010E943417698749
:102460007A878B879C8782E0898B6F857889CE01FC
:10247000DF91CF910C942611DF91CF910895CF93E6
:10248000DF93CDB7DEB72A970FB6F894DEBF0FBE45
:10249000CDBFFC0180899189009741F1DB01FC01EE
:1024A00020813181F901448155812DE431E03A8365
:1024B000298312962D913C9113973C832B8314967C
:1024C0002D913C9115973E832D8316962D913C912D
:1024D000179738872F8318962D913C9119973A8733
:1024E0002987BE016F5F7F4FFA0109952A960FB6C3
:1024F000F894DEBF0FBECDBFDF91CF910895CF938B
:10250000DF93EC010E9434176D837E838F8398875D
:10251000DF91CF910895CF93DF93EC018A819B8166
:102520000E943A058A819B810E94880581E08F87FD
:102530000E94341769877A878B879C8764EA71E0E9
:1025400080E594E0DF91CF910C94C70B7F928F923E
:102550009F92AF92BF92CF92DF92EF92FF920F9332
:102560001F93CF93DF93CDB7DEB72A970FB6F894BA
:10257000DEBF0FBECDBFFC017684772009F484C096
:10258000C72EB62E8C010E948B1262EB71E080E5A3
:1025900094E00E94310B6B2D7C2D80E594E00E942D
:1025A000B30BF801828193810E945305F801E28008
:1025B000F380F7019781A92E913110F080E1A82EC8
:1025C000F7018085811103C0D92EDA1801C0D12C02
:1025D000C7010E94111680EA0E9414168B2C9C2CB5
:1025E000AA94FFEFAF1631F0F40181914F010E94E0
:1025F0001416F6CFDD2029F080E00E941416DA943C
:10260000F9CFC7010E94AA0461E0C7010E94ED153D
:10261000C7010E9411168FEF0E941416D82EC70111
:102620000E94AA048D2D807399F360E0C7010E9477
:10263000ED1540E767E0C7010E94BF0484FF04C0B6
:10264000C7010E94AD04712C8DE491E09A838983C7
:102650001A8619861C830B838CE590E098878F83FC
:10266000BD82CE82BE016F5F7F4FC8010E943F12C4
:10267000F801828193810E9488050E943417F80135
:102680006187728783879487872D2A960FB6F8947F
:10269000DEBF0FBECDBFDF91CF911F910F91FF9095
:1026A000EF90DF90CF90BF90AF909F908F907F90F2
:1026B0000895EF92FF920F931F93CF93DF93CDB7BF
:1026C000DEB764970FB6F894DEBF0FBECDBF7C01B6
:1026D00081E493E4ABE4B0E0898B9A8BAB8BBC8B49
:1026E0009E012F5E3F4F3F932F9322E033E03F93B5
:1026F0002F938E010F5F1F4F1F930F930E94632F25
:10270000B801C7010E94A6120F900F900F900F9072
:102710000F900F9064960FB6F894DEBF0FBECDBF3A
:10272000DF91CF911F910F91FF90EF9008958091CD
:10273000780390917903892BF9F482E190E00E946B
:102740007727FC018AED92E09183808313821282C5
:1027500014821582168217821086118612861386BD
:10276000148684E08587168681E08787118A108A1F
:10277000F0937903E0937803809178039091790343
:102780000895CF93DF93EC016C817D816F5F7F4F64
:102790008A819B818617970718F4CE010E941B1629
:1027A000E881F9818C819D81E80FF91F1082888171
:1027B0009981DF91CF910895AF92BF92CF92DF922E
:1027C000EF92FF920F931F93CF93DF931F92CDB79A
:1027D000DEB78C016B017A01590188E090E0F801C5
:1027E00093838283158214820E947727F801918354
:1027F0008083F601848195818E159F0510F40E94D7
:10280000502F1982BC016E197F09A616B70608F46D
:10281000B501AE014F5F5F4FC8010E944516F80138
:1028200044815581F601608171816E0D7F1DF80133
:10283000808191810E942B010F90DF91CF911F9198
:102840000F91FF90EF90DF90CF90BF90AF900895E1
:1028500020E432E0FC0121933193CF010C947F16E8
:10286000CF93DF93EC010E942814CE01DF91CF912A
:102870000C940C280F931F93CF938C01C42F66EEFA
:1028800071E080E594E00E94310B6C2F70E080E5F0
:1028900094E00E94ED05F80182859385FC01228178
:1028A000222331F06C2FCF911F910F910C94B30321
:1028B000CF911F910F9108952F923F924F925F9267
:1028C0006F927F928F929F92AF92BF92CF92DF9240
:1028D000EF92FF920F931F93CF93DF93CDB7DEB7A5
:1028E00068970FB6F894DEBF0FBECDBF1C01DB01A9
:1028F0001796ED90FC9018972701612C712CC3015D
:10290000B2010E941D2D2CE032E043E550E40E940C
:102910006F2E20E030EC4FE754E40E94392C20E089
:1029200030E0A9010E94C82B20E030E048EC52E4DE
:102930000E946F2E4B015C01B701BCE3EB16B3E0C4
:10294000FB0644F0EDEFEE16E3E0FE062CF06CEF34
:1029500073E002C06CE373E06C537340072E000C0D
:10296000880B990B0E941D2D20E030E048EC52E4CA
:102970000E946F2E20E030E040E453E40E94392CA6
:1029800020E030E0A9010E94C82B0E94EC2C162FF9
:1029900066ED71E080E594E00E94310B2AE0B3011E
:1029A000A20180E594E00E946A0B6BEC71E080E587
:1029B00094E00E94310B20E030E048EC52E4C50185
:1029C000B4010E94392C6B017C016D8B7E8B8F8B47
:1029D000988F9B01AC010E94DC2E882319F06CE3D8
:1029E00073E01AC026013701E89477F82FEF3FEF24
:1029F0004FE75FE7C301B2010E94DC2E811111C0D5
:102A00002FEF3FEF4FE75FE7C301B2010E94342C85
:102A100018163CF460E473E080E594E00E94550BE6
:102A200082C02FEF3FEF4FE75FE4C701B6010E947E
:102A3000F42D18161CF464E473E0EECF2FEF3FEF93
:102A40004FE75FECC701B6010E94342C87FDF3CF3E
:102A500020E030E0A901C701B6010E94342C87FFB5
:102A60000CC06DE280E594E00E942A0BD701C601FC
:102A7000B0588D8B9E8BAF8BB88F2AE037ED43EA31
:102A80005BE36D897E898F89988D0E94C82B2B010D
:102A90003C010E94EC2C6B017C010E941B2D9B01D0
:102AA000AC01C301B2010E94C72B2B013C012AE0FB
:102AB000B701A60180E594E00E946A0B6EE280E512
:102AC00094E00E942A0B20E030E040E251E4C30190
:102AD000B2010E946F2E2B013C010E94EC2C6B0175
:102AE000E12CF12C2AE0B701A60180E594E00E94D8
:102AF0006A0BC701B6010E941B2D9B01AC01C301EB
:102B0000B2010E94C72B20E030E040E251E40E9475
:102B10006F2E0E94EC2CAB0160E070E02AE080E5B3
:102B200094E00E946A0B6CEB71E080E594E00E94F7
:102B3000310B412F50E060E070E02AE080E594E046
:102B40000E946A0B68E473E080E594E00E94B30B96
:102B500082E491E4A4E5B0E0898B9A8BAB8BBC8BCB
:102B60001F921F93C501B4010E94E52C7F936F93C0
:102B7000CE0141969F938F938AE493E09F938F9326
:102B80008E010F5F1F4F1F930F930E94632FB80199
:102B9000D1011C968D919C911D970E94A6120FB693
:102BA000F894DEBF0FBECDBF68960FB6F894DEBFB7
:102BB0000FBECDBFDF91CF911F910F91FF90EF908E
:102BC000DF90CF90BF90AF909F908F907F906F904D
:102BD0005F904F903F902F900895FC0120813181AC
:102BE000828193812817390719F0822F0C9460068F
:102BF0000895CF93DF93EC019CB59F7D9CBD9CB560
:102C0000937F9CBD9CB59C7F9CBD9DB591609DBDF7
:102C10008A810E9460068C899D89DF91CF910C94F6
:102C2000C30660E00C94F9158EBD00000DB407FEDC
:102C3000FDCF8EB508950F931F93CF93DF93EC01D3
:102C4000CB01088119817B836A830E94772799834E
:102C5000888320E030E08C819D812817390770F44B
:102C6000E881F981E20FF31F309729F0D801A20F14
:102C7000B31F8C9180832F5F3F4FEDCFC801DF9151
:102C8000CF911F910F910C940C28EF92FF920F930C
:102C90001F93CF93DF93EC018C819D81861797075B
:102CA00010F57A018B018A819B818617970740F482
:102CB000685F7F4F8617970718F4CE010E941B1696
:102CC0008C819D818017910758F4E881F981E80F84
:102CD000F91F309719F0D7012C9120830196F2CF7C
:102CE0001D830C8305C06817790710F47D836C83FE
:102CF000DF91CF911F910F91FF90EF900895FC010C
:102D0000808191810C940C280F931F93CF93DF93B4
:102D1000FC0104811581FB01C481D581AE010C1732
:102D20001D0708F4A801FB0160817181FC0180810D
:102D300091810E94552F009769F481E090E0C017BF
:102D4000D10740F00C171D0710F080E090E091953E
:102D500081959109DF91CF911F910F910895EF9285
:102D6000FF920F931F93CF93DF937C0100E010E05D
:102D7000C0E0D0E0F7012481358180819181C217C4
:102D8000D30740F4800F911F0E947F162196095FA0
:102D90001F4FF0CFDF91CF911F910F91FF90EF90D8
:102DA0000C940C28CF92DF92EF92FF920F931F9317
:102DB000CF93DF931F92CDB7DEB77C016B0188E024
:102DC00090E0F70193838283158214820E94772713
:102DD000F70191838083C114D104B9F0F601019009
:102DE0000020E9F731978F010C191D091982AE01F6
:102DF0004F5F5F4FB801C7010E944516A801B60199
:102E0000F701808191810E942B010F90DF91CF917A
:102E10001F910F91FF90EF90DF90CF9008953FB7F3
:102E2000F8948091700590917105A0917205B09110
:102E3000730526B5A89B05C02F3F19F00196A11D6B
:102E4000B11D3FBFBA2FA92F982F8827820F911D40
:102E5000A11DB11DBC01CD0142E0660F771F881F87
:102E6000991F4A95D1F708952FB7F89460916C0592
:102E700070916D0580916E0590916F052FBF08953B
:102E80001F920F920FB60F9211242F933F938F939F
:102E90009F93AF93BF9380916C0590916D05A09126
:102EA0006E05B0916F0530916B0523E0230F2D3730
:102EB00020F40196A11DB11D05C026E8230F02963E
:102EC000A11DB11D20936B0580936C0590936D053A
:102ED000A0936E05B0936F05809170059091710578
:102EE000A0917205B09173050196A11DB11D80934B
:102EF000700590937105A0937205B0937305BF910F
:102F0000AF919F918F913F912F910F900FBE0F9096
:102F10001F901895CF93DF93CDB7DEB7E1970FB62B
:102F2000F894DEBF0FBECDBF789484B5826084BDB7
:102F300084B5816084BD85B5826085BD85B58160BD
:102F400085BD80916E00816080936E00109281003B
:102F500080918100826080938100809181008160F6
:102F600080938100809180008160809380008091B7
:102F7000B10084608093B1008091B0008160809343
:102F8000B00080917A00846080937A0080917A000A
:102F9000826080937A0080917A00816080937A00C9
:102FA00080917A00806880937A001092C10086E058
:102FB0000E94CE0588E00E94CE0587E00E94CE05E3
:102FC00085E00E94CE05E0916004F091610482E00A
:102FD0008083E0915C04F0915D041082E0915E04D6
:102FE000F0915F0480E1808310926804E0916404B2
:102FF000F091650486E08083E0916204F0916304BF
:10300000808180618083E0916204F091630480811B
:1030100088608083E0916204F0916304808180681D
:103020008083E0916204F091630480818F7D8083CE
:1030300067E071E080E594E00E94C70B8CEB9CE6B2
:10304000ABE9B8E48093F6039093F703A093F803F9
:10305000B093F90381E0809319040091AA031091C1
:10306000AB0380E993E0D80113969C938E9312975B
:10307000809190039091910320919203309193035A
:103080008217930711F00E94CE05809192039091D0
:10309000930320919003309191032817390711F081
:1030A0000E94CE05FFB6F89480915603811124C08A
:1030B000E5E8F1E08491E9E9F1E09491E82FF0E0AE
:1030C000EE0FFF1FEF58FE4FA591B491EC91E9234D
:1030D00021F461E08AE00E9460068AE00E94CE0549
:1030E0008CB580618CBD8CB580648CBD8DE00E94F8
:1030F000CE058BE00E94CE05809156038F5F8093B2
:103100005603FFBE60E080E993E00E94ED1561E0A8
:1031100080E993E00E94F91565E070E080E090E0BE
:103120000E94CE064CE060E080E993E00E94BF047C
:103130004FE564E080E993E00E94BF0482E090E004
:103140000E942406882319F081E08093960366E0AC
:1031500080E993E00E941A05F82E80E090E00E943A
:10316000240680E993E00E94111680E50E9414165F
:1031700083E70E94141680E993E00E94AA0440E0CD
:103180006DE180E993E00E94BF0440E06CE180E9DA
:1031900093E00E94BF041092980340E767E080E943
:1031A00093E00E94BF044CE465E080E993E00E9454
:1031B000BF0480E993E00E94111682EE0E9414166B
:1031C00080E993E00E94AA0480E993E00E94AD04A4
:1031D00080E993E00E943A0560E080E993E00E9474
:1031E0001A05482F4E7F60E080E993E00E94BF04FB
:1031F0008FEF8F0D8E3F08F08CC04FEF64E080E9B9
:1032000093E00E94BF0440E06DE180E993E00E94FA
:10321000BF0440E06CE180E993E00E94BF0410929B
:10322000980380E18093970382E08BA31CA21DA2E8
:103230001EA21FA218A619A61AA620919E03AE01CF
:103240004D5D5F4F6AE080E993E00E94E3042091C6
:103250009E03AE014D5D5F4F60E180E993E00E9407
:10326000E3044091970361E180E993E00E94BF0489
:10327000FF24F394FB8E1C8E1D8E1E8E1F8E18A2B3
:1032800019A21AA2EDE9F0E0649120919E03AE012B
:10329000455E5F4F80E993E00E94E304E7E9F0E0D8
:1032A00064914091970380E993E00E94BF0462E03B
:1032B00080E993E00E941A05E1E9F0E0E49141E041
:1032C00050E001C0440FEA95EAF7482B62E080E93C
:1032D00093E00E94BF0466E080E993E00E941A0533
:1032E000887F482F416066E080E993E00E94BF0438
:1032F00082E090E00E94240680E993E00E94880525
:10330000F801F6866EEA70E080E594E00E94C70B53
:1033100009C062EA70E080E594E00E94C70BD80122
:103320001E961C92C8010E947F12E0911C04F0912D
:103330001D0482E082838091D803FE0131963F0113
:103340008230D1F1811104C01092EA031092E90396
:103350000E9434176093DF037093E0038093E103CE
:103360009093E20382E08093D80381E090E09EA7EF
:103370008DA78091D6039091D7030097E9F0209113
:10338000D9033091DA03DC01ED91FC910480F581E1
:10339000E02D4DE451E05A83498344ED53E05C83D2
:1033A0004B83AE01435D5F4F5E834D8338872F8330
:1033B0001A861986B3010995E0911C04F0911D0449
:1033C000F093B703E093B603A091B803B091B903AB
:1033D00023E0AF3EB20791F0109721F09C961C922B
:1033E0001E929B9782EB93E090931B0480931A04A8
:1033F0008FEE93E09093B9038093B803309721F058
:1034000080EB93E096A785A7A091B803B091B9038C
:10341000109731F082EB93E09C969C938E939B9750
:10342000A091BC03B091BD03109731F084EB93E001
:1034300051969C938E9350978091BA039091BB03C1
:10344000009721F021E0DC0112962C9364A5FC0189
:10345000228121110E94B3030E94341760937A03E2
:1034600070937B0380937C0390937D0381E190E0D4
:103470000E9477277C01DC0112961C92129788E04B
:1034800090E016969C938E93159718961C921E9218
:10349000179788E390E00E947727F701948383834E
:1034A0001286809157039091580301969093580388
:1034B000809357039487838789E291E09183808387
:1034C000158616861786108A62EF70E080E594E014
:1034D0000E94310B67ED70E080E594E00E94310BB3
:1034E000D701ED91FC910480F581E02DB701C30176
:1034F0000995C3010E94C113BC0180E594E00E94BC
:10350000550BC3010E947F1662ED70E080E594E0E8
:103510000E94310BF7014385548560E070E02AE09A
:1035200080E594E00E946A0B69EC70E080E594E02D
:103530000E94310BD70112964C9150E060E070E090
:103540002AE080E594E00E946A0B6FEB70E080E572
:1035500094E00E94310BD701ED91FC910084F1853C
:10356000E02DC70109956C01FC01248135813E8B5A
:103570002D8B285F3F4F3C8B2B8B87E0F82FF29FE2
:10358000C001F39F900D11240E9477279A8B898B9D
:10359000A12CB12C812C912C8D899E89881699069D
:1035A000C8F4D6016D917C916A0D7B1D89899A8939
:1035B0008A0D9B1D009739F083012FEF3FEF40E00C
:1035C00050E00E94DC13BFEF8B1A9B0AE7E0AE0EBF
:1035D000B11CE2CFC988DA88A7E0BA2E2D893E89CE
:1035E000B29EC001B39E900D112429893A89820FA1
:1035F000931FC816D90679F18E01055D1F4F2FEF75
:103600003FEF40E050E0B601C3010E94DC13C3016C
:103610000E94C113BC0180E594E00E94550BC301D8
:103620000E947F162D893E89B29EC001B39E900DE7
:103630001124079729893A89820F931FC816D90642
:1036400031F06CEB70E080E594E00E94310BF7E024
:10365000CF0ED11CC3CF6AEB70E080E594E00E94EE
:10366000C70BCE0141960E94AF16D701ED91FC9198
:103670000684F785E02D61E0C7010995D701ED913A
:10368000FC910088F189E02DC7010995823009F08D
:1036900074C00E94BD0E8C01E114F10409F47EC0D7
:1036A000FC01A680B7806501FFEFCF1ADF0AAC14DA
:1036B000BD0408F059C0DC0114962D913C9115977A
:1036C0002C153D0598F5C50109962817390770F5A1
:1036D00012968C90129713969C90139715969C9324
:1036E0008E931497880F991F0E947727F801938370
:1036F0008283D40140E050E04A155B05A1F0F80157
:10370000828193819A01220F331FFC01E20FF31F84
:10371000309729F08D919C911197918380834F5F11
:103720005F4F1296E9CFC4010E940C28D80116966B
:103730008D919C9117979C01220F331F8C159D052D
:1037400078F4D8011296ED91FC911397E20FF31FD4
:10375000309711F0F182E08201962E5F3F4FEECF5D
:10376000F801D782C6821AC0CA14DB04B8F4DC019F
:103770001796DC92CE92169711C0D701ED91FC916D
:10378000813031F40288F389E02DC701099506C024
:103790000488F589E02D63E0C70109956CED70E0C0
:1037A00080E594E00E94310B80917405909175053D
:1037B000B301681B790B80E594E00E94ED056BEF87
:1037C00070E080E594E00E94310B80917405909147
:1037D0007505B301681B790B80E594E00E94ED0547
:1037E00045E4E42E41E0F42E5AE5852E50E1952E75
:1037F0006DE4A62E61E0B62E0E94341700917A0384
:1038000010917B0320917C0330917D03DC01CB017F
:10381000801B910BA20BB30B883B9B40A105B1050C
:103820000CF4B4C08091000190910101019709F05E
:10383000ADC022E030E030930101209300010E94EE
:10384000341760937A0370937B0380937C03909387
:103850007D0388E090E00E9477278C01DC011196BF
:10386000FC92EE9213961C921E92129717961C923F
:103870001E921697ECEBF2E01596FC93EE931497DC
:1038800088E090E00E9477276C01DC011196FC92A1
:10389000EE9213969C928E921297E9E1F0E01596C3
:1038A000FC93EE93149717961C930E93169788E04B
:1038B00090E00E9477278C01DC011196FC92EE9239
:1038C00013961C921E921297EBE4F0E01596FC936F
:1038D000EE9314971796DC92CE92169788E090E0BC
:1038E0000E9477276C01DC011196FC92EE921396F0
:1038F0009C928E921297E9E1F0E01596FC93EE937C
:10390000149717961C930E93169788E090E00E94E8
:1039100077278C01DC011196FC92EE9213961C9293
:103920001E921297EBE4F0E01596FC93EE93149739
:103930001796DC92CE92169788E090E00E94772747
:10394000FC01F182E08220EC3DE03383228349E1F7
:1039500050E05583448317830683909382038093BA
:10396000810390938F0380938E036BE271E080E577
:1039700094E00E94310B8091740590917505B3011C
:10398000681B790B80E594E00E94ED0500911C0412
:1039900010911D04D80112968C91823009F062C0FA
:1039A0000E943417F8012381348145815681DC015E
:1039B000CB01821B930BA40BB50B81159440A10581
:1039C000B10508F44FC08EE00E94AC0697FD039647
:1039D000BC017595679575956795072E000C880B4A
:1039E000990B0E941D2DAB01BC01C8010B960E94D2
:1039F000350C0E94E52CAB01440F551F440F551F99
:103A0000F801878190858417950719F1D8011896D8
:103A10005C934E9317979D968D919C919E970097DE
:103A200041F0DC01ED91FC910480F581E02DB801BD
:103A30000995F80124A587819085222309F446C2BF
:103A40008935934030F0D8019C961C92C8010E94A1
:103A50000D110E943417D80113966D937D938D93A9
:103A60009C9316970091AE031091AF03F8018281E9
:103A70008823A9F0EF5BFF4F8081823021F4C801D9
:103A8000CA960E943B0DC80104960E949E11C8016F
:103A900046960E949E11C80188960E949E11C09071
:103AA000AC03D090AD0380E594E00E94680718163F
:103AB00019060CF062C080E594E00E944607D6012A
:103AC00016966D917C9117978A3019F08D3009F018
:103AD00043C0672B09F44AC08E010F5E1F4F2FEFC2
:103AE0003FEF40E050E0B6016E5F7F4FC3010E94A0
:103AF000DC1360E171E080E594E00E94310BC301CA
:103B00000E94C1138C01BC0180E594E00E94B30BBC
:103B10000E949713B8010E94A612C3010E947F164B
:103B2000F6014681578160E070E02AE080E594E08C
:103B30000E946A0B66EF72E080E594E00E94550BEC
:103B4000D60116968D919C911797892B79F017962F
:103B50001C921E9216970AC089AB6F5F7F4FAE0111
:103B60004F5C5F4FC60102960E944516F6018681A2
:103B70009781419710F0178216826AE070E080E02A
:103B800090E00E94CE060091AA031091AB03D801E9
:103B90001E968C911E97882309F415C167E1129631
:103BA0008D919C9113970E941A0580FF97C147C081
:103BB000C6010E94AA0440E767E0C6010E94BF0454
:103BC00080E3898BC8010E947F1284E0F801858719
:103BD0008481811119C081E0848388ABBA8AA98A63
:103BE0001A8E198E1C8B0B8B8AE590E0988F8F8B29
:103BF00020E330E02C0F3D1F3E8B2D8BBE016F5E0E
:103C00007F4FC8010E943F12BA8AA98A1A8E198E64
:103C10001C8B0B8B4BE550E0588F4F8B7E8A6D8A47
:103C2000BE016F5E7F4FC8010E943F120E94341791
:103C3000D80119966D937D938D939C931C970E9448
:103C40003417F8012580368047805084268522234A
:103C500009F469C09B01AC012219330944095509D3
:103C600019012A018585811102C060E01CC08130E4
:103C700091F4253F31404105510508F443C061E00E
:103C8000C8010E945913C8010E947F12F80185855E
:103C90008F5F858737C0823051F4253F3140410521
:103CA000510580F162E0C8010E94591321C08330A0
:103CB00049F5253F31404105510520F1F801848146
:103CC0008823B1F014821FA6BA82A9821A861986A7
:103CD0001C830B838AE590E098878F832FE230E086
:103CE0002C0F3D1F3E832D83B301C8010E943F125C
:103CF000C8010E947F12D8011D968C911D978F5F7D
:103D00001D968C93F8018585843069F4F9EF2F16A0
:103D1000FAE23F064104510430F0D8011D961C928E
:103D2000C8010E947F120E943417F8012184328456
:103D3000438454842685222309F445C09B01AC01A9
:103D4000221933094409550919012A018785882355
:103D500031F131EB231634E0330641045104F8F01D
:103D6000828193810E945305D8011296CD90DC90F8
:103D7000139760E0C6010E94ED1560E0C6010E9445
:103D80001A05482F4D7F60E0C6010E94BF04F8016C
:103D900017866BE171E080E594E00E94C70BD801C3
:103DA0001F968C9181110FC0BDE12B16B5E23B0629
:103DB0004104510440F0C8010E948B12F801828135
:103DC00093810E948805E091A803F091A903C28025
:103DD000D38006811781000F111F0C0D1D1DC01609
:103DE000D10661F0D6018D919D916D01DC01ED91BF
:103DF000FC910484F585E02D0995F1CF809119049B
:103E0000882309F458C00E943417009114041091BB
:103E100015042091160430911704AB01BC01401B1E
:103E2000510B620B730B8091120490911304A0E06C
:103E3000B0E0481759076A077B07E8F18091F10362
:103E40000E94AC06BC01990F880B990B0E941D2D96
:103E5000AB01BC0184EF93E00E94350C0E94EC2C76
:103E60002091F2033091F30326173707D1F07093B6
:103E7000F3036093F2033CA72BA780911A0490915F
:103E80001B04009771F0DC01ED91FC910480F58139
:103E9000E02D9E01255D3F4F40E050E06FEE73E066
:103EA00009950E943417609314047093150480934D
:103EB00016049093170480918503823021F48EE7D5
:103EC00093E00E943B0D0E94080896CC8F349340EB
:103ED00008F0BFCD81E0F80184A7B8CDD8011296D3
:103EE000CD90DC901397F6018781803120F130E18D
:103EF000232EF6019085911103C0382E321801C08F
:103F0000312CC6010E94111681E60E94141623016D
:103F10002A94BFEF2B1639F08FEF0E941416D201AE
:103F20008D932D01F5CF332009F442CE8FEF0E94FF
:103F300014163A94F8CF282EDCCF089508952F92C6
:103F40003F924F925F926F927F928F929F92AF9229
:103F5000BF92CF92DF92EF92FF920F931F93CF9376
:103F6000DF93CDB7DEB764970FB6F894DEBF0FBE10
:103F7000CDBFDC0118962D913C91199762177307FC
:103F800009F0C8C1FB016C0183809480FC010285AB
:103F90001385F6E08F16910408F4BDC0D80112967F
:103FA0008C911297882309F4AFC013968C911397C4
:103FB00087FDAAC0806813968C931801B6E12B0E7A
:103FC000311CC1010E94921185E090E00E94772788
:103FD0003C01FC0110821482138289E1E82EF12C4D
:103FE000F282E18285E090E00E9477272C01EFEFDA
:103FF000DC01EC939BE4A92EB12C1296BC92AE92FC
:10400000119714967C926E92139785E090E00E942F
:1040100077273C01DC011C921296BC92AE9211975C
:1040200014965C924E92139785E090E00E94772759
:104030002C018FEFF2018083F282E182748263822D
:1040400085E090E00E9477273C01DC011C921296EB
:10405000BC92AE92119714965C924E92139785E0A3
:1040600090E00E9477272C018FEFF2018083F2828B
:10407000E1827482638285E090E00E9477273C01B0
:10408000DC011C921296BC92AE92119714965C922F
:104090004E92139785E090E00E9477272C018FEFD6
:1040A000F2018083F282E1827482638285E090E093
:1040B0000E9477273C01DC011C921296BC92AE92C2
:1040C000119714965C924E92139785E090E00E94AF
:1040D0007727FC01BFEFB083F282E18274826382B2
:1040E000D8015A969C938E93599796969C938E934B
:1040F0009597C1010E941C12C80188960E949211D6
:10410000C80104960E949211D6011696ED91FC9179
:10411000179781E0C1C0F8018281882309F4B6C0F5
:10412000838187FFB3C08F7783837801F6E1EF0E39
:10413000F11CC7010E949211D80113968C9182FF45
:104140003FC03801B4E06B0E711CC3010E94921194
:1041500085E090E00E9477272C01FC0110821482F8
:1041600013828CE79BE09283818385E090E00E943C
:1041700077275C018FEFD5018C9384E190E0129654
:104180009C938E93119714965C924E92139785E0B0
:1041900090E00E947727FC0183E0808388E290E032
:1041A00092838183B482A382D8011896FC93EE9304
:1041B00017975496FC93EE935397C3010E941C12D9
:1041C000F801838184FF31C03801F8E26F0E711C61
:1041D000C3010E94921185E090E00E9477275C0164
:1041E000DC011C9214961C921E92139784EF91E0AE
:1041F00012969C938E93119785E090E00E9477270A
:10420000FC018FEF80838AEF90E092838183B482F8
:10421000A382D8019C96FC93EE939B97D896FC932F
:10422000EE93D797C3010E941C12F801838186FF89
:104230002DC0C7010E94921185E090E00E9477276F
:104240005C01DC011C9214961C921E9213978EE95D
:1042500097E012969C938E93119785E090E00E94D0
:104260007727FC018FEF808382E390E09283818344
:10427000B482A382D8015A96FC93EE9359979696EE
:10428000FC93EE939597C7010E941C12D6011696D7
:10429000ED91FC91179782E0828388E496E5A1E393
:1042A000B0E0898B9A8BAB8BBC8BB40180E090E043
:1042B0000E941B2D2CE032E043E550E40E946F2E5B
:1042C00021ED3BEC48EE5DE30E94392C0E94EC2C82
:1042D0007F936F93CE0141969F938F9389EF92E0E6
:1042E0009F938F938E010F5F1F4F1F930F930E9419
:1042F000632FB801F601848595850E94A61261E0BE
:1043000070E080E090E00E94CE060FB6F894DEBF29
:104310000FBECDBF64960FB6F894DEBF0FBECDBF03
:10432000DF91CF911F910F91FF90EF90DF90CF9091
:10433000BF90AF909F908F907F906F905F904F90C5
:104340003F902F90089502970C949F1F0C940C2877
:1043500002970C94A62104970C94A6218F929F9209
:10436000AF92BF92CF92DF92EF92FF920F931F9383
:10437000CF93DF93CDB7DEB7EC970FB6F894DEBFDF
:104380000FBECDBFFB0122813381FC018485958561
:104390002817390709F096C1FB01868197818B3573
:1043A000910509F08FC1E480F58067E371E080E555
:1043B00094E00E94310BB70180E594E00E94B30BBA
:1043C0008E010F5F1F4FA801B701CE01C4960E9456
:1043D000D21638E0E32EF12CF8AAEFA61AAA19AAF1
:1043E00088E090E00E9477279EA78DA7F9A6E8A60F
:1043F0001BA61AA688E390E00E9477279FA38EA3AE
:10440000E0901B05F0901C05E0911705F091180550
:10441000ACA9BDA9CF018E0D9F1DE817F90709F4BE
:1044200088C031912D913217C1F34FC08CAF6BA171
:104430007CA16F5F7F4FAE01445C5F4FCE014F9612
:104440000E944516FFEFEF1AFF0A28AD39AD8CA97F
:104450009DA9820F931FC816D90649F0F6018191D4
:104460006F018D3319F7E114F10409F06FC02BA12E
:104470003CA12115310529F12150310941E050E0DD
:10448000BE01615E7F4FC8010E94A110E9A8FAA891
:104490006D817E816E0D7F1D188EAE01485E5F4F6F
:1044A000CE018D960E9445164D815E8169817A818B
:1044B0008DA59EA58E0D9F1D0E942B01C8010E94F7
:1044C0007F16CE014F960E947F166AE375E0CE01FB
:1044D0008D960E948416892BF9F481E493E4A2E579
:1044E000B0E0898B9A8BAB8BBC8BCE0141969F93AE
:1044F0008F9382E093E09F938F931F930F930E947B
:10450000632F0E949713B8010E94A6120F900F907C
:104510000F900F900F900F90CE0186960E94AF16CD
:10452000CE018D960E947F16CE01C4960E947F1602
:10453000C9C0A80168EF72E0CE014F960E94D21662
:10454000CCA8DDA822E0C20ED11C7FCF6FEFE61A07
:10455000F60A21503109A701BE016C5C7F4FCE01E4
:1045600048960E94A110AE01455C5F4F61E571E085
:10457000CE0141960E94D2162D893E898C8D9D8D4B
:104580008217930720F4CC24CA94DC2C21C0019616
:104590005C01A21AB30AC12CD12CCA14DB0499F312
:1045A0002D893E89A601BE01685E7F4FC8010E9429
:1045B000A110B801CE0141960E9484164C01C80199
:1045C0000E947F16892821F08FEFC81AD80AE5CFFC
:1045D000CE0141960E947F16CD20C09409F45AC0A6
:1045E0008C8D9D8DE88DF98DE12CF12CE816F90666
:1045F00051F021912C3219F4C12CD12C18C02FEF7D
:10460000E21AF20AF3CFEE24EA94FE2CF5CFEFEF94
:10461000EE1AFE0AE216F30658F5FC01EE0DFF1D38
:1046200060816C32A1F76FEFE616F60609F1FFEF35
:10463000EF16FF0609F441C097012C193D09A601A8
:10464000BE01685E7F4FC8010E94A110B801CE0173
:1046500086960E94CB0FC8010E947F16A7014F5F6C
:104660005F4F6A012C8D3D8D888D998D7A01D2CF57
:10467000BE01685E7F4FC8010E94A110B801CE0143
:1046800086960E94CB0FC8010E947F16EE24EA9402
:10469000FE2CCDCF28AD39AD21503109A701BE0187
:1046A0006C5C7F4FC8010E94A110B801CE018696B4
:1046B0000E94CB0FC8010E947F16CE0148960E942F
:1046C0007F16D5CEEC960FB6F894DEBF0FBECDBFE9
:1046D000DF91CF911F910F91FF90EF90DF90CF90DE
:1046E000BF90AF909F908F9008950F931F93CF939B
:1046F000DF931F92CDB7DEB700E514E010925304AC
:104700001092520488EE93E0A0E0B0E0809354044D
:1047100090935504A0935604B093570486E891E013
:10472000909351048093500485EC90E090935D0445
:1047300080935C0484EC90E090935F0480935E042B
:1047400080EC90E0909361048093600481EC90E0B1
:10475000909363048093620482EC90E090936504EC
:104760008093640486EC90E09093670480936604E1
:104770001092690410926A0410926B0410926C04F7
:10478000AE014F5F5F4F68E073E084E695E00E9402
:10479000D216AE014F5F5F4F6BE073E08DE595E0A1
:1047A0000E94D216AE014F5F5F4F6EE073E086E568
:1047B00095E00E94D216AE014F5F5F4F63E173E058
:1047C0008FE495E00E94D216AE014F5F5F4F67E124
:1047D00073E088E495E00E94D216AE014F5F5F4F10
:1047E0006BE173E081E495E00E94D216AE014F5F69
:1047F0005F4F6FE173E08AE395E00E94D216AE014D
:104800004F5F5F4F63E273E083E395E00E94D2164F
:10481000AE014F5F5F4F67E273E08CE295E00E946C
:10482000D216AE014F5F5F4F6BE273E085E295E019
:104830000E94D216AE014F5F5F4F6FE273E08EE1D0
:1048400095E00E94D216AE014F5F5F4F63E373E0C5
:1048500087E195E00E94D216E1E2F0E0F0930505D1
:10486000E0930405109206051092070510920805C2
:1048700046E050E060E070E04093090550930A057F
:1048800060930B0570930C0510920D0510920E05A8
:1048900010920F051092100520E22093110510923E
:1048A000130510921205109216058FEE94E0909366
:1048B00015058093140586E292E09093EE048093B0
:1048C000ED0480E392E0909302058093010510923D
:1048D000F3041092F2041092F5041092F404109272
:1048E000F7041092F6041092F9041092F804109252
:1048F000FB041092FA041092FD041092FC0484E070
:1049000092E09093F0048093EF04109300050093DD
:10491000FF0430E13093FE04F0933E04E0933D0445
:1049200010923F04109240041092410440934204BC
:1049300050934304609344047093450410924604DA
:1049400010924704109248041092490420934A049C
:1049500010924C0410924B0410924F0410922404B5
:1049600010922504109226041092270428E234E0C5
:1049700030934E0420934D042EEA31E0309323040B
:104980002093220428EB31E030933B0420933A0437
:1049900010922C0410922B0410922E0410922D04CD
:1049A0001092300410922F041092320410923104AD
:1049B000109234041092330410923604109235048D
:1049C00090932904809328041093390400933804A9
:1049D00088E08093370410922104109220041093F1
:1049E0001F0400931E0460E672E088E792E00E94D4
:1049F000A428909321048093200480915F039091D8
:104A00006003892B09F040C08FE290E00E94772775
:104A10008C018AEC92E0F8019183808312821382E8
:104A2000148215821682108617821286118681E002
:104A300090E0948783878BEE97E4A2ECB9E48587B6
:104A40009687A787B08B80E090E0ACECB2E4858BD2
:104A5000968BA78BB08F818F928FA38FB48F858F0A
:104A6000968FA78FB0A30E940F17F80165A376A3B6
:104A700087A390A712A611A613A614A616A615A67C
:104A80001093600300935F0380915F039091600334
:104A900090931D0480931C0482EF92E09093F003A6
:104AA0008093EF031FE01093F1031092F303109231
:104AB000F20381E090E09093F5038093F40384E99E
:104AC00091EFA6E4B5E48093F6039093F703A093E7
:104AD000F803B093F9031092FE031092FF031092B3
:104AE0000004109201041092020410920304109228
:104AF0000404109205041092060410920704109208
:104B00000804109209040E940F1760930E0470931A
:104B10000F04809310049093110480E890E0909328
:104B2000130480931204109214041092150410922E
:104B300016041092170481E08093180480931904DE
:104B400010921B0410921A0482E992E09093C10320
:104B50008093C0031092C3031092C2031093C60344
:104B60001092C7031092C8031092C9031092CA038F
:104B70001092CE031092CD031092CF031092D10366
:104B80001092D00380E290E00E9477278093CB03BD
:104B90009093CC0320E130E03093C5032093C4030D
:104BA000FC018096E817F90719F011921192FACFDB
:104BB00080EB92E09093C1038093C00380EC92E07D
:104BC0009093D3038093D20388EA92E09093D50325
:104BD0008093D4031092D8031092DA031092D90371
:104BE0001092DF031092E0031092E1031092E203AF
:104BF0001092E3031092E4031092E5031092E6038F
:104C00001092EA031092E9031092E8031092E7036E
:104C100080E890E0A0E0B0E08093DB039093DC03B9
:104C2000A093DD03B093DE031092EC031092EB032C
:104C30001092EE031092ED0382ED93E09093D70370
:104C40008093D60380915B0390915C03892BE1F400
:104C500083E090E00E9477278C0182E892E0F801DF
:104C60009183808382E0828384E00E94CE05F801F4
:104C70008281882329F0128260E084E00E9460062D
:104C800010935C0300935B0380915B0390915C0342
:104C90009093BF038093BE0388E492E09093B103A6
:104CA0008093B00388E592E09093B3038093B203BE
:104CB00082E692E09093B5038093B4031092B70319
:104CC0001092B6031092B9031092B8030E94240404
:104CD0009093BB038093BA030E9497139093BD03F4
:104CE0008093BC030E9424049093AF038093AE038F
:104CF00080915D0390915E03892BC9F489E090E077
:104D00000E9477278C0180E492E0F80191838083F0
:104D100088E090E095838483178216820E9477272B
:104D2000F8019383828310935E0300935D03809167
:104D30005D0390915E039093AD038093AC030E945A
:104D400097139093AB038093AA030E94BD0E909398
:104D5000A9038093A80389E090E090939103809346
:104D600090038AE090E090939303809392031092D3
:104D7000960380E2809397031092980385E08093D6
:104D80009E0345E050E060E070E04093A403509340
:104D9000A5036093A6037093A703109299032AEECC
:104DA00032E030937F0320937E0380938003109240
:104DB0008203109281031092840310928303109255
:104DC0008503109287031092860310928803109235
:104DD000890310928A0310928B0310928D03109214
:104DE0008C0310928F0310928E030E94CE050E94B6
:104DF000341760937A0370937B0380937C039093C2
:104E00007D030F90DF91CF911F910F9108950F9324
:104E10001F93CF93DF93EC010A811B818BA59CA587
:104E20000817190799F08DA59EA5009769F0DC0178
:104E3000ED91FC910480F581E02D9E01255D3F4FB1
:104E40004AE050E0BE0109951CA70BA7DF91CF9166
:104E50001F910F91089542970C94072708950C9481
:104E60000C2842970C942F2704970C94AE2180EBCA
:104E700093E00E942A0180EC93E00E94D80D82E228
:104E800094E00E94C4028DEE94E00E94120387E138
:104E900095E00E947F168EE195E00E947F1685E2E4
:104EA00095E00E947F168CE295E00E947F1683E3D6
:104EB00095E00E947F168AE395E00E947F1681E4C8
:104EC00095E00E947F1688E495E00E947F168FE4AB
:104ED00095E00E947F1686E595E00E947F168DE59D
:104EE00095E00E947F1684E695E00C947F16CF93A0
:104EF000DF938230910510F482E090E0E091760536
:104F0000F091770520E030E0C0E0D0E0309711F17B
:104F10004081518148175907C0F04817590761F47B
:104F200082819381209719F09B838A832BC0909371
:104F300077058093760526C02115310519F04217B3
:104F4000530718F49A01BE01DF01EF010280F381DB
:104F5000E02DDCCF2115310509F1281B390B243058
:104F6000310590F412968D919C91139761157105FE
:104F700021F0FB019383828304C090937705809393
:104F80007605FD01329644C0FD01E20FF31F8193C7
:104F90009193225031092D933C933AC0209174058E
:104FA00030917505232B41F42091050130910601C4
:104FB000309375052093740520910301309104010D
:104FC0002115310541F42DB73EB7409107015091AD
:104FD0000801241B350BE0917405F0917505E2176B
:104FE000F307A0F42E1B3F0B2817390778F0AC010C
:104FF0004E5F5F4F2417350748F04E0F5F1F5093E9
:105000007505409374058193919302C0E0E0F0E050
:10501000CF01DF91CF9108950F931F93CF93DF932B
:10502000009709F48CC0FC01329713821282009120
:105030007605109177050115110581F420813181E4
:10504000820F931F20917405309175052817390739
:1050500079F5F0937505E093740571C0D80140E0CF
:1050600050E0AE17BF0750F412962D913C91139764
:10507000AD012115310509F1D901F3CF9D01DA0107
:105080003383228360817181860F971F8217930774
:1050900069F4EC0128813981260F371F2E5F3F4FBD
:1050A000318320838A819B8193838283452B29F4DA
:1050B000F0937705E093760542C01396FC93EE9348
:1050C0001297ED01499159919E01240F351FE21766
:1050D000F30771F480819181840F951F02961196D8
:1050E0009C938E938281938113969C938E931297B7
:1050F000E0E0F0E0D80112968D919C911397009713
:1051000019F0F8018C01F6CF8D919C9198012E5FDA
:105110003F4F820F931F209174053091750528171A
:10512000390769F4309729F41092770510927605C3
:1051300002C0138212821093750500937405DF91EB
:10514000CF911F910F9108950F931F93CF93DF93EA
:10515000009731F46115710519F480E090E03AC0D0
:105160008B01EC016EE070E081E090E00E94C12ACA
:10517000FC01892B91F380E883830115110571F0FF
:105180001387028781E88383809178059091790560
:10519000892B21F4F0937905E09378052097C9F0E5
:1051A000D187C08783818260838380917A059091C3
:1051B0007B05892B71F4F0937B05E0937A05809150
:1051C0007C0590917D05892B21F4F0937D05E0937A
:1051D0007C05CF01DF91CF911F910F910895ACE035
:1051E000B0E0E5EFF8E20C94902B7C016B018A01B2
:1051F000FC0117821682838181FFBDC1CE01019619
:105200004C01F7019381F60193FD859193FF819104
:105210006F01882309F4ABC1853239F493FD859180
:1052200093FF81916F01853229F4B70190E00E94CC
:10523000FA2AE7CF512C312C20E02032A0F48B3217
:1052400069F030F4803259F0833269F420612CC067
:105250008D3239F0803339F4216026C02260246019
:1052600023C0286021C027FD27C030ED380F3A3019
:1052700078F426FF06C0FAE05F9E300D1124532E0D
:1052800013C08AE0389E300D1124332E20620CC0EA
:105290008E3221F426FD6BC1206406C08C3611F4D9
:1052A000206802C0883641F4F60193FD859193FF92
:1052B00081916F018111C1CF982F9F7D95549330BB
:1052C00028F40C5F1F4FFFE3F9830DC0833631F0E4
:1052D000833771F0833509F05BC022C0F80180810B
:1052E00089830E5F1F4F44244394512C540115C0F1
:1052F0003801F2E06F0E711CF801A080B18026FF2A
:1053000003C0652D70E002C06FEF7FEFC5012C87F1
:105310000E94EF2A2C0183012C852F77222E17C0A3
:105320003801F2E06F0E711CF801A080B18026FFF9
:1053300003C0652D70E002C06FEF7FEFC5012C87C1
:105340000E94DD2A2C012C852068222E830123FC5B
:105350001BC0832D90E048165906B0F4B70180E2D7
:1053600090E00E94FA2A3A94F4CFF50127FC859147
:1053700027FE81915F01B70190E00E94FA2A311067
:105380003A94F1E04F1A51084114510471F7E5C005
:10539000843611F0893639F5F80127FF07C060819E
:1053A0007181828193810C5F1F4F08C06081718180
:1053B000072E000C880B990B0E5F1F4F2F76722E55
:1053C00097FF09C090958095709561957F4F8F4F9D
:1053D0009F4F2068722E2AE030E0A4010E94322BF9
:1053E000A82EA81844C0853729F42F7EB22E2AE0B3
:1053F00030E025C0F22FF97FBF2E8F36C1F018F4B0
:10540000883579F0B4C0803719F0883721F0AFC003
:105410002F2F2061B22EB4FE0DC08B2D8460B82ECC
:1054200009C024FF0AC09F2F9660B92E06C028E04D
:1054300030E005C020E130E002C020E132E0F801B8
:10544000B7FE07C060817181828193810C5F1F4F1D
:1054500006C06081718180E090E00E5F1F4FA40163
:105460000E94322BA82EA818FB2DFF777F2E76FEE8
:105470000BC0372D3E7FA51450F474FE0AC072FC99
:1054800008C0372D3E7E05C0BA2C372D03C0BA2C7C
:1054900001C0B52C34FF0DC0FE01EA0DF11D808165
:1054A000803311F4397E09C032FF06C0B394B3943F
:1054B00004C0832F867809F0B39433FD13C030FF06
:1054C00006C05A2CB31418F4530C5B18B32CB31445
:1054D00068F4B70180E290E03C870E94FA2AB39416
:1054E0003C85F5CFB31410F43B1801C0312C34FFC8
:1054F00012C0B70180E390E03C870E94FA2A3C8505
:1055000032FF17C031FD03C088E790E002C088E594
:1055100090E0B7010CC0832F867859F031FF02C0AC
:105520008BE201C080E237FD8DE2B70190E00E947E
:10553000FA2AA51438F4B70180E390E00E94FA2A11
:105540005A94F7CFAA94F401EA0DF11D8081B701B6
:1055500090E00E94FA2AA110F5CF332009F451CE31
:10556000B70180E290E00E94FA2A3A94F6CFF70160
:105570008681978102C08FEF9FEF2C96E2E10C9419
:10558000AC2B0F931F93CF93DF93869F8001879F50
:10559000100D969F100D1124C8010E947727EC0171
:1055A000009729F0A80160E070E00E94E82ACE018F
:1055B000DF91CF911F910F910895FC0105906150EB
:1055C00070400110D8F7809590958E0F9F1F089519
:1055D000DC0101C06D9341505040E0F70895FC019B
:1055E0006150704001900110D8F7809590958E0F12
:1055F0009F1F08950F931F93CF93DF93FB01238188
:1056000021FD03C08FEF9FEF28C022FF16C0468107
:105610005781248135814217530744F4A081B18119
:105620009D012F5F3F4F318320838C9326813781EB
:105630002F5F3F4F3783268310C0EB01092F182FB0
:105640000084F185E02D0995892BE1F68E819F81FB
:1056500001969F838E83812F902FDF91CF911F9191
:105660000F910895FA01AA27283051F1203181F1D4
:10567000E8946F936E7F6E5F7F4F8F4F9F4FAF4F5A
:10568000B1E03ED0B4E03CD0670F781F891F9A1F6D
:10569000A11D680F791F8A1F911DA11D6A0F711D21
:1056A000811D911DA11D20D009F468943F912AE02D
:1056B000269F11243019305D3193DEF6CF01089515
:1056C000462F4770405D4193B3E00FD0C9F7F6CF46
:1056D000462F4F70405D4A3318F0495D31FD40520E
:1056E000419302D0A9F7EACFB4E0A69597958795A4
:1056F00077956795BA95C9F7009761057105089583
:105700009B01AC010A2E069457954795379527952E
:10571000BA95C9F7620F731F841F951FA01D0895C6
:105720002F923F924F925F926F927F928F929F92B1
:10573000AF92BF92CF92DF92EF92FF920F931F939F
:10574000CF93DF93CDB7DEB7CA1BDB0B0FB6F89450
:10575000DEBF0FBECDBF09942A88398848885F8490
:105760006E847D848C849B84AA84B984C884DF8001
:10577000EE80FD800C811B81AA81B981CE0FD11DE5
:105780000FB6F894DEBF0FBECDBFED01089550589F
:10579000BB27AA270E94DF2B0C94BA2D0E94AC2DA8
:1057A00038F00E94B32D20F039F49F3F19F426F40D
:1057B0000C94822D0EF4E095E7FB0C947C2DE92FE0
:1057C0000E94CB2D58F3BA17620773078407950719
:1057D00020F079F4A6F50C94ED2D0EF4E0950B2E47
:1057E000BA2FA02D0B01B90190010C01CA01A00133
:1057F0001124FF27591B99F0593F50F4503E68F18E
:105800001A16F040A22F232F342F4427585FF3CFCE
:10581000469537952795A795F0405395C9F77EF49F
:105820001F16BA0B620B730B840BBAF09150A1F0E8
:10583000FF0FBB1F661F771F881FC2F70EC0BA0F6E
:10584000621F731F841F48F4879577956795B795F6
:10585000F7959E3F08F0B0CF9395880F08F09927F1
:10586000EE0F9795879508950E94582D08F481E0D2
:1058700008950E944D2C0C94BA2D0E94B32D58F01F
:105880000E94AC2D40F029F45F3F29F00C947C2D50
:1058900051110C94EE2D0C94822D0E94CB2D68F3A7
:1058A0009923B1F3552391F3951B550BBB27AA27D9
:1058B00062177307840738F09F5F5F4F220F331F13
:1058C000441FAA1FA9F335D00E2E3AF0E0E832D0DB
:1058D00091505040E695001CCAF72BD0FE2F29D0DE
:1058E000660F771F881FBB1F261737074807AB07B0
:1058F000B0E809F0BB0B802DBF01FF2793585F4F25
:105900003AF09E3F510578F00C947C2D0C94EE2DCE
:105910005F3FE4F3983ED4F3869577956795B79506
:10592000F7959F5FC9F7880F911D9695879597F911
:105930000895E1E0660F771F881FBB1F621773078A
:105940008407BA0720F0621B730B840BBA0BEE1F9F
:1059500088F7E095089529F416F00C947C2D0C94AA
:10596000ED2D0C94822D0E94D32DA8F39638A0F72C
:1059700007F80F92E8942BE33AEA48EB5FE70E94BE
:10598000852E0F920F920F924DB75EB70F920E9425
:105990003B2EE8E6F0E00E94852D4F915F91EF915C
:1059A000FF91E595EE1FFF1F49F0FE57E068442781
:1059B000EE0F441FFA95E1F74195550B0E94052E15
:1059C0000F9007FE0C94F92D08950E94EC2C68941A
:1059D000B1110C94EE2D08950E94D32D88F09F579D
:1059E00098F0B92F9927B751B0F0E1F0660F771F03
:1059F000881F991F1AF0BA95C9F714C0B13091F0F9
:105A00000E94ED2DB1E008950C94ED2D672F782FB5
:105A10008827B85F39F0B93FCCF3869577956795BD
:105A2000B395D9F73EF490958095709561957F4F29
:105A30008F4F9F4F0895E89409C097FB3EF49095CF
:105A40008095709561957F4F8F4F9F4F9923A9F057
:105A5000F92F96E9BB279395F695879577956795E6
:105A6000B795F111F8CFFAF4BB0F11F460FF1BC02A
:105A70006F5F7F4F8F4F9F4F16C0882311F096E9BD
:105A800011C0772321F09EE8872F762F05C066236B
:105A900071F096E8862F70E060E02AF09A95660F24
:105AA000771F881FDAF7880F9695879597F90895DD
:105AB000990F0008550FAA0BE0E8FEEF161617061F
:105AC000E807F907C0F012161306E407F50798F087
:105AD000621B730B840B950B39F40A2661F0232BA0
